:100000000C9489000C94AD0B0C94860B0C94B100ED
:100010000C94B1000C94B1000C94B1000C94B1009C
:100020000C94B1000C94B1000C94B1000C94B1008C
:100030000C94B1000C948F0C0C94B1000C94B10092
:100040000C94E8200C94B1000C945D0C0C94370CCB
:100050000C94B1000C94B1000C94B1000C94B1005C
:100060000C94B60C0C94B1007C3C3E5E2B3D3F2FB3
:100070005B5D3B2C2A225C001F1C1F1E1F1E1F1FC6
:100080001E1F1E1F00000000240027002A00000081
:100090000000250028002B0000000000230026009F
:1000A00029000404040404040404020202020202FB
:1000B000030303030303010204081020408001022C
:1000C00004081020010204081020000000080002AB
:1000D000010000030407000000000000000046616A
:1000E000696C656420746F20726561642066696C58
:1000F000652C207573696E672064656661756C7424
:1001000020636F6E66696775726174696F6E000057
:100110002B2A11241FBECFEFD8E0DEBFCDBF26E0D3
:10012000A4EDB2E001C01D92AF3FB207E1F712E0CB
:10013000A0E0B1E0E8E1F1E602C005900D92A43D37
:10014000B107D9F710E0C9E8D0E004C02197FE015B
:100150000E947B2CC838D107C9F70E9432210C9429
:100160008A300C940000DC015996ED91FC915A976D
:100170003097B9F083899489A589B68942855385DA
:1001800064857585841B950BA60BB70B811520E83C
:100190009207A105B10538F08FEF9FE7A0E0B0E02E
:1001A000089580E090E00895CF93DF931F92CDB73C
:1001B000DEB76983DC01ED91FC910280F381E02DD3
:1001C00041E050E0BE016F5F7F4F09950F90DF91D6
:1001D000CF910895089580E090E00895982F80EDE4
:1001E000890F8A3020F081EA890F8C3110F481E088
:1001F00008958FEB890F8A31D0F39B32C1F381E0F0
:100200009D3221F09E3219F080E0089508950895FE
:1002100081E08093E5029091E40289278093E402D3
:100220000895FC0184819581009799F022813381A2
:10023000468157812417350718F0158214820895D6
:10024000A9014F5F5F4F53834283FC01E20FF31F0D
:1002500060830895CF93DF93DC01EB01EC81FD8196
:100260008A819B810896E817F90718F480E090E0EE
:1002700021C03897FD83EC833097C1F31296CD915E
:10028000DC911397209751F0CF018C1B9D0B23E03D
:10029000959587952A95E1F78D8303C01196FC9378
:1002A000EE931396FC93EE931297158214821782A5
:1002B0001682CF01DF91CF910895FC01818D928D3F
:1002C000009711F00C9448120895CF93DF93EC013E
:1002D000898D9A8D009739F481E090E09B838A8321
:1002E00080E090E00BC0FC01138212820E94D016C5
:1002F000E98DFA8D22813381232B71F7DF91CF9124
:100300000895CF93C1E0C093DF0282E00E940E20E7
:10031000892BB1F08091E0029091E102A091E2027C
:10032000B091E3020196A11DB11D8093E00290936C
:10033000E102A093E202B093E302C093DE0202C0A6
:100340001092DE02CF9108950F931F93CF93DF9306
:100350001F92CDB7DEB78C01FC01828581111BC0D5
:100360008581882311F0118613C0198241E050E085
:10037000BE016F5F7F4FF801828193810E94D40B91
:1003800021E0892B09F020E0F8012583898181870C
:1003900081E0F8018287F80181850F90DF91CF918C
:1003A0001F910F910895DF92EF92FF920F931F9389
:1003B000CF93DF93CDB7DEB728970FB6F894DEBFA3
:1003C0000FBECDBF8C017B01DC011696ED91FC9137
:1003D0001797228133818481958193838283FA8365
:1003E000E9831C821B823E832D83821B930B98879B
:1003F0008F83C8010E94A401D82EF8011286C8017B
:100400000E94A401D8011A961C92D81649F18111B4
:1004100003C081E090E047C08C35E1F4C8010E9440
:10042000A4018823B1F3853719F0EAE9F2E006C0A8
:1004300084E090E038C0891729F0329690819111BC
:10044000FACF06C08181811103C082E090E02BC009
:10045000F8011286682FCE0101960E941101CFCFBC
:1004600060E0CE0101960E9411018D819E81892B51
:1004700071F08B819C81E981FA812F813885821B03
:10048000930B22813381820F931F938382838D810B
:100490009E81D7018D939C93892B19F483E090E082
:1004A00002C080E090E028960FB6F894DEBF0FBE41
:1004B000CDBFDF91CF911F910F91FF90EF90DF9013
:1004C00008951F93CF93DF93EC01CE010E94A40106
:1004D0008B302CF489300CF58823C1F032C0803287
:1004E000E1F08F3219F08D3061F517C01A86CE0118
:1004F0000E94A4018A3219F08F32C9F01FC01A86F7
:1005000010E0CE010E94A401811103C081E090E0BF
:100510001AC08F3221F4112311F01A86D6CF11E0C0
:100520008A3209F010E01A86ECCF8A3071F21A860E
:10053000CE010E94A4018111F8CFE8CF82E090E0C3
:1005400002C080E090E0DF91CF911F9108958EBDB1
:1005500000000DB407FEFDCF8EB508958FEF0C940B
:10056000A7028CBD9DBD0895FC01DB0112968D9103
:100570009C9113979383828388E891E09183808391
:1005800014968C911497848315968C911597858376
:1005900016964D915D916D917C9119974683578385
:1005A000608771871A964D915D916D917C911D9731
:1005B00042875387648775871E964D915D916D9133
:1005C0007C91519746875787608B718B52968C919F
:1005D0005297828B53964D915D916D917C91569778
:1005E000438B548B658B768B57964D915D916D91B6
:1005F0007C915A97478B508F618F728F5B968D914C
:100600009C915C97948F838F08954F925F926F9225
:100610007F92AF92BF92CF92DF92EF92FF920F93B1
:100620001F93CF93DF931F92CDB7DEB7FC012581D7
:10063000222309F4C1C0848180FFBEC083899489CC
:10064000A589B6894284538464847584841595058C
:10065000A605B70509F4B0C06F015201F1E0BF2251
:10066000D6015B968D919C915C97B301A20139E014
:1006700076956795579547953A95D1F7223071F45D
:10068000FC01828D938DA48DB58D8A019B01080F8D
:10069000191F2A1F3B1FC901B8014AC0DC0114966B
:1006A0001C9111501423A114B104F9F411111DC0AF
:1006B00045284628472851F4F6018789908DA18D59
:1006C000B28D86839783A087B1870FC0D601169617
:1006D0004D915D916D917C91199796012A5F3F4FE5
:1006E0000E94E30F882309F467C0F601238D348D3F
:1006F00086819781A085B1850297A109B109AC01D6
:10070000BD01F901058404C0440F551F661F771F02
:100710000A94D2F786859785A089B189840F951FA1
:10072000A61FB71FBC01CD01610F711D811D911D59
:10073000D60114962C9126FF0DC0409004015090D4
:10074000050160900601709007014616570668067D
:10075000790699F440E00E94F90E882369F1F501C9
:10076000E151FB4FDE0111969F012F5F3F4F2E1786
:100770003F0799F081918D93FACFFE0131967F0169
:1007800001E010E09501AB01BC018091EF06909172
:10079000F0060E94D015882379F0F60182859385B2
:1007A000A485B5850196A11DB11D82879387A48775
:1007B000B587898190E002C08FEF9FEF0F90DF91A6
:1007C000CF911F910F91FF90EF90DF90CF90BF904E
:1007D000AF907F906F905F904F900895FC01818D56
:1007E000928D009711F00C9405038FEF9FEF089501
:1007F0000F931F93CF93DF93FC01818D928D009710
:10080000B9F0EF010E9405038C010F3F8FEF18072D
:1008100091F0898D9A8DFC0142855385648575859B
:1008200041505109610971090E949D12C80105C01A
:1008300080E090E002C08FEF9FEFDF91CF911F919A
:100840000F9108959F92AF92BF92CF92DF92EF9255
:10085000FF920F931F93CF93DF936C015B01FC0119
:100860001082FB01108200E010E0C0E0D0E082E0E6
:10087000E82EFF24F39493E0992E86E00E940E2048
:10088000811125C021968091D502813049F028F050
:10089000823071F08330A9F01EC0F092D5021BC0E7
:1008A000C436D105C1F4F6018083E092D50211C0AF
:1008B000C83EF3E0DF0779F4F601F0829092D502AA
:1008C00008C0C83CD10539F4F601F08202C010928C
:1008D000D502C0E0D0E085E00E940E20811126C044
:1008E0000F5F1F4F8091D402813049F028F0823091
:1008F00071F08330A9F01EC0F092D4021BC0043600
:100900001105C1F4F5018083E092D40211C0083EC4
:10091000F3E01F0779F4F501F0829092D40208C049
:10092000083C110539F4F501F08202C01092D4029E
:1009300000E010E0F6018081811102C0209739F4B7
:10094000F501808181110AC00115110539F061E0BE
:1009500070E080E090E00E94A2208FCFDF91CF91E5
:100960001F910F91FF90EF90DF90CF90BF90AF90CD
:100970009F9008950F931F93CF93DF93FC012481E1
:1009800025FF1FC08B01C081D1812097D1F06E81DE
:100990007F810115110519F06115710521F46017AA
:1009A000710731F411C0C8010E94BF2D892B61F07D
:1009B0008D81882331F0F8E08F02C00DD11D112404
:1009C000E4CF80E090E001C0CE01DF91CF911F9194
:1009D0000F910895FC0180819181892B21F460E0C1
:1009E00070E0CB0108956AEE70E080E090E0089539
:1009F0004F925F926F927F928F929F92AF92BF922F
:100A0000DF92EF92FF920F931F93CF93DF93CDB7B7
:100A1000DEB7C654D1090FB6F894DEBF0FBECDBF06
:100A20008C017B010E94610227969FAF8EAF2797B2
:100A3000CE018B5B9F4F0E94EA04672B09F08CC0AC
:100A400080FD8AC0C8010E94A4018B3561F5D701E1
:100A500014968C9114978078806414968C931497D4
:100A600011961C921E9213961C921E921297F801D8
:100A70008085882371F1C8010E94A4018B3509F09B
:100A80009CC1D8011A961C92C8010E9461029A83E7
:100A90008983CE0101960E94EA04672B09F0C0C148
:100AA00080FDBEC160C08B3789F5D70114968C914B
:100AB00014978078806214968C93149711961C92E8
:100AC0001E9213961C921E921297F8018085811136
:100AD00002C085E0B8C1C8010E94A4018B3709F0AB
:100AE0006CC1D8011A961C92C8010E946102259619
:100AF0009FAF8EAF2597CE018D5B9F4F0E94EA047A
:100B0000672B09F076C180FD74C198C0C8010E94AE
:100B1000A401873209F474C1823209F471C1C80199
:100B20000E94A401B82ECE0101964C01D12C8B2D30
:100B30000E94EE00882309F488C1FFE3DF1609F460
:100B400084C1F8011286D394D401BD924D01C8012D
:100B50000E94A401B82EEBCF26968FAD269727963C
:100B60009FAD279785C3C8010E94A4018D35B1F1BF
:100B7000D8016D917C91C7010E942A01BC01892B8B
:100B800009F451C0F801908591509087C8010E94E6
:100B9000F8049A838983D80118968C9118978F5FEF
:100BA00018968C93CE0101960E94EA04672B09F0F7
:100BB00037C180FD35C1C8010E9461029A838983D3
:100BC000CE0101960E94EA04672B09F029C180FD3D
:100BD00027C1C8010E94A4018D3539F5F80112869C
:100BE00031C1C8010E94A4018C3209F0E6C0F801AD
:100BF0001286C8010E94610225969FAF8EAF25978D
:100C0000CE018D5B9F4F0E94EA04672B09F0F1C073
:100C100080FDEFC0D8016D917C91C7010E942A012F
:100C20005C01892B89F483E00EC1C8010E94A401F4
:100C30008C3209F0C2C0F80112869ACFC8010E9416
:100C4000A4018D3739F7CACFC8010E94A4018732A9
:100C500011F08232A9F4BE016F5B7F4FC8010E9480
:100C6000D30125969FAF8EAF2597CE018D5B9F4F09
:100C70000E94EA04672B09F0BCC080FF5BC0B9C0CA
:100C8000D8011696ED91FC911797228133818481CA
:100C9000958193838283FA83E9831C821B823E833E
:100CA0002D83821B930B98878F83C8010E94A40118
:100CB000D82E8823E1F18D2D0E94EE00882389F142
:100CC000F80112866D2DCE0101960E941101C80116
:100CD0000E94A401D82E0E94EE008111F1CF60E0A5
:100CE000CE0101960E9411018D819E81892B71F0A8
:100CF000E981FA818B819C812F813885821B930B3E
:100D000022813381820F931F938382838D819E8101
:100D100023969FAF8EAF2397892B31F483E090E029
:100D2000A0CF82E090E09DCF80E090E09ACF81E07C
:100D300090E097CF23962EAD3FAD2397F5018481A8
:100D40008068848337832683C8010E9461022596C8
:100D50009FAF8EAF2597CE018D5B9F4F0E94EA0417
:100D6000672B09F046C080FD44C0C8010E94A40161
:100D70008A3319F5D8011A961C921A9718968C91F5
:100D80001897815018968C93B501C8010E94F804F9
:100D900025969FAF8EAF2597F80180858F5F80875E
:100DA000CE018D5B9F4F0E94EA04672B11F580FFF7
:100DB00006C01FC01E3609F44BC282E044C0C80101
:100DC0000E94610225969FAF8EAF2597CE018D5B65
:100DD0009F4F0E94EA04672B61F480FD0AC0C8019E
:100DE0000E94A4018D3709F0FCCED8011A961C92FE
:100DF00029C024968FAD249725969FAD259738C29C
:100E0000BE016F5B7F4FC8010E94D3019A83898323
:100E1000CE0101960E94EA04672B11F480FF03C003
:100E200089819A8125C223962EAD3FAD2397D701A4
:100E300014968C9114978078846014968C931497F0
:100E40002D933C9380E090E013C2E1E0F0E0EC0FE2
:100E5000FD1FED0DF11D10821981112309F465C0EC
:100E6000CE011D3211F01B3211F4029601C0019621
:100E7000FC01819190ED980F9A30D8F3811155C003
:100E8000143709F4ECC11B3231F01D3231F010E09F
:100E9000FE01319605C010E001C011E0FE0132965E
:100EA00020E030E0A901019180ED800F8A30A0F4AC
:100EB000AAE0B0E00E949E2B202F000F330B20539E
:100EC00031094901330FAA08BB08A5019401260F77
:100ED000371F481F591FE7CF112309F4C2C121153D
:100EE000310541055105B9F4E0E070E060E090E0C3
:100EF000D70114968C9114978078866014968C9301
:100F00001497EC9311967C93119712966C93129709
:100F100013969C9397CFF7018481807887608483B0
:100F200020833183428353838DCF65EA72E0CE0103
:100F300001960E94BF2D892B09F449C01D3239F05A
:100F40001B3251F45E01B2E0AB0EB11C08C05E0171
:100F5000E2E0AE0EB11C03C0CE0101965C0169EA6D
:100F600072E0C5010E94BF2D892B89F1D5018C91BA
:100F7000882309F441C1FD018D9190ED980F9A30BD
:100F8000D0F38E3241F49D01F9012F5F3F4F8081F4
:100F900080538A30C8F380818F7D8534A9F48181A4
:100FA0008D3209F463C18B3209F460C131968081BE
:100FB00080538A3008F020C19F01F9012F5F3F4F15
:100FC000808180538A30C8F38081811115C11B3222
:100FD00051F01D3279F41A81DD24D3945E01B2E020
:100FE000AB0EB11C0BC01A81D12C5E01E2E0AE0E3B
:100FF000B11C04C0D12CCE0101965C01143709F458
:10100000DFC01F7D1E3409F4E0C0193409F48AC022
:1010100000E020E030E0A901F501D5011D915D015E
:1010200080ED810F8A30E8F42C3CBCEC3B07BCE03F
:101030004B075105A4F4AAE0B0E00E949E2B212F9B
:10104000110F330B205331092901330F660877083C
:10105000A3019201260F371F481F591FDDCF0F5FD5
:10106000DBCF1E3241F55F018FEFA81AB80AF501F8
:10107000D5011D915D0180ED810F8A30E0F42C3C9B
:10108000BCEC3B07BCE04B0751058CF7AAE0B0E095
:101090000E949E2B212F110F330B20533109290160
:1010A000330F66087708A3019201260F371F481FE8
:1010B000591F0150DCCF80818F7D002E000C110B59
:1010C0008534F1F581818D3219F43296B1E006C094
:1010D0008B3211F0319601C03296B0E080E090E0A2
:1010E0006AE0B62EA19160ED6A0F6A3018F5B89EDD
:1010F000B001B99E700D11248A2FAA0F990BC097C9
:10110000860F971FB801680F791F6732710554F376
:10111000BB2341F0DD2009F45DC080E090E0A0E059
:10112000B0E860C0DD2009F459C080E090E0A0E89C
:10113000BFEF58C0BB2331F091958195910902C052
:1011400080E090E0080F191FCA01B9010E94A52A8A
:1011500010161106B4F4B12C00FF0CC024E0B29EAE
:10116000F0011124EA5DFE4F2081318142815381DB
:101170000E94E02A15950795B3940115110561F7B2
:1011800019C0119501951109B12C0115110591F0A6
:1011900000FF0CC0A4E0BA9EF0011124E25FFE4FF4
:1011A00020813181428153810E94E02A1595079563
:1011B000B394EBCFDC01CB01DD20A1F0B05812C01D
:1011C00080E090E0A0E8BFE30DC080E090E0A0ECFC
:1011D000BFE708C080E090E0DC0104C080E090E060
:1011E000A0E8BFE7F701248120782860248380836A
:1011F0009183A283B38326CE1437A1F4D70114962A
:101200008C9114978078856014968C9381E090E09F
:10121000A0E0B0E0F70180839183A283B38390E0E4
:10122000F4E013C0163609F0C5CDD70114968C91A1
:1012300014978078856014968C93F7011082118240
:101240001282138281E090E0F5E0DF1211C005C048
:1012500081E090E024E0D2120BC080E009C0E1E020
:1012600044CEE22F732F642F952F42CE32969FCE1D
:10127000CA5BDF4F0FB6F894DEBF0FBECDBFDF9164
:10128000CF911F910F91FF90EF90DF90BF90AF90A3
:101290009F908F907F906F905F904F9008950097F0
:1012A00039F0FC0194819F77965081E0933008F0EB
:1012B00080E00895EF92FF920F931F93CF93DF93F7
:1012C00000D000D000D0CDB7DEB77C018B014091BB
:1012D000E0025091E1026091E2027091E302CE01DE
:1012E00001960E94460E898190E04496982F8827A7
:1012F000990F2A8140E2249F900111244B81242BD5
:10130000822B932BF701918380838D81F0E28F9F55
:10131000900111249C81892F90E0982F8827990FA4
:10132000990F990F822B932B2E8130E035952795BD
:10133000822B932BF8019183808326960FB6F89425
:10134000DEBF0FBECDBFDF91CF911F910F91FF90F8
:10135000EF9008950895CF92DF92EF92FF920F934E
:101360001F93CF93DF936C017A018B01C0E0D0E033
:10137000CE15DF0581F0D8016D918D01D601ED917B
:10138000FC910190F081E02DC6010995892B11F0A7
:101390002196EECF7E01C701DF91CF911F910F9172
:1013A000FF90EF90DF90CF900895FC01538D448D16
:1013B000252F30E0842F90E0821B930B541710F000
:1013C000CF96089501970895FC01918D828D98170D
:1013D00061F0828DDF01A80FB11D5D968C91928D19
:1013E0009F5F9F73928F90E008958FEF9FEF089516
:1013F000FC01918D828D981731F0828DE80FF11DDF
:10140000858D90E008958FEF9FEF0895FC01918DF9
:10141000228D892F90E0805C9F4F821B91098F73F2
:101420009927089586EE93E00E94060A21E0892B11
:1014300009F420E0822F0895FC01848DDF01A80FBC
:10144000B11DA35ABF4F2C91848D90E001968F73EC
:101450009927848FA689B7892C93A089B1898C910B
:10146000837080648C93938D848D981306C002885A
:10147000F389E02D80818F7D80830895EF92FF9224
:101480000F931F93CF93DF93EC0181E0888F9B8DA7
:101490008C8D981305C0E889F989808185FD26C067
:1014A000F62E0B8D10E00F5F1F4F0F731127E02EEC
:1014B0008C8DE8120CC00FB607FCFACFE889F989C9
:1014C000808185FFF5CFCE010E941C0AF1CF8B8D64
:1014D000FE01E80FF11DE35AFF4FF0829FB7F89429
:1014E0000B8FEA89FB89808180620AC09FB7F894DC
:1014F000EE89FF896083E889F9898081837080643F
:1015000080839FBF81E090E0DF91CF911F910F9189
:10151000FF90EF900895CF93DF93EC01888D88239F
:10152000C9F0EA89FB89808185FD05C0A889B98950
:101530008C9186FD0FC00FB607FCF5CF808185FF2B
:10154000F2CFA889B9898C9185FFEDCFCE010E9499
:101550001C0AE7CFDF91CF91089580E090E0892BBE
:1015600029F00E94120A81110C940000089585ED63
:101570008093BC008091BC0084FDFCCF1092C0031E
:10158000089540915503262F30E0240F311D21325C
:101590003105DCF42091C0032430C9F4FC0180E063
:1015A00090E0861758F4309155032191DC01AB5C33
:1015B000BC4FA30FB11D2C930196F3CF809155031F
:1015C000680F6093550380E0089581E0089582E0FC
:1015D0000895089508950895E091C2038091C1038C
:1015E000E81730F4F0E0ED53FC4F808190E008956F
:1015F0008FEF9FEF08959091C2038091C1039817D8
:1016000050F4E92FF0E0ED53FC4F208130E09F5F74
:101610009093C20302C02FEF3FEFC901089580915C
:10162000C10390E02091C203821B91090895CF92DB
:10163000DF92EF92FF920F931F93CF93DF937C0182
:10164000CB018A012091E503222389F0EB016B0194
:10165000C40ED51ECC15DD0569F06991D701ED9159
:10166000FC910190F081E02DC7010995F3CF642F23
:101670000E94C10AC801DF91CF911F910F91FF9085
:10168000EF90DF90CF900895CF93DF931F92CDB767
:10169000DEB769832091E5032223D1F02091E30393
:1016A000203240F021E030E0FC013383228380E0EF
:1016B00090E015C08091E403E82FF0E0E658FC4F7D
:1016C000998190838F5F8093E4038093E30305C047
:1016D00061E0CE0101960E94C10A81E090E00F9086
:1016E000DF91CF9108950E94A22DCF93DF931F9297
:1016F000CDB7DEB7698341E050E0BE016F5F7F4F39
:101700000E94D0160F90DF91CF9108951F920F92F3
:101710000FB60F9211242F933F934F935F936F93C4
:101720007F938F939F93AF93BF93EF93FF93E0913A
:101730000201F09103010995FF91EF91BF91AF91E3
:101740009F918F917F916F915F914F913F912F91D9
:101750000F900FBE0F901F9018951F920F920FB60B
:101760000F9211242F933F934F935F936F937F9327
:101770008F939F93AF93BF93EF93FF93E0910001FB
:10178000F09101010995FF91EF91BF91AF919F9168
:101790008F917F916F915F914F913F912F910F901A
:1017A0000FBE0F901F9018958F929F92AF92BF928D
:1017B000CF92DF92EF92FF920F931F93CF93DF931D
:1017C000EC016A017B0100E010E00C151D0561F1E0
:1017D0000E94DC20688779878A879B87E881F98166
:1017E0000284F385E02DCE01099597FF17C00E9472
:1017F000DC2088849984AA84BB84DC01CB0188190D
:101800009909AA09BB098C809D80AE80BF8088158C
:101810009905AA05BB0510F3680106C0F70181937D
:101820007F010F5F1F4FD1CFC601DF91CF911F9175
:101830000F91FF90EF90DF90CF90BF90AF909F906F
:101840008F9008956115710579F0FB0101900020DA
:10185000E9F73197AF01461B570BDC01ED91FC9185
:101860000280F381E02D099480E090E008951F92BA
:101870000F920FB60F9211242F933F934F935F93C4
:101880006F937F938F939F93AF93BF93EF93FF9348
:1018900086EE93E00E941C0AFF91EF91BF91AF91F9
:1018A0009F918F917F916F915F914F913F912F9178
:1018B0000F900FBE0F901F9018951F920F920FB6AA
:1018C0000F9211242F938F939F93EF93FF93E091A7
:1018D000F603F091F7038081E091FC03F091FD03A2
:1018E00082FD12C090818091FF038F5F8F732091E2
:1018F0000004821751F0E091FF03F0E0EA51FC4F41
:10190000958F8093FF0301C08081FF91EF919F919C
:101910008F912F910F900FBE0F901F9018951F92CF
:101920000F920FB60F9211242F933F934F935F9313
:101930006F937F938F939F93AF93BF93EF93FF9397
:10194000E091D602F091D7020995FF91EF91BF91F6
:10195000AF919F918F917F916F915F914F913F9147
:101960002F910F900FBE0F901F9018951F920F92FE
:101970000FB60F9211242F933F934F935F936F9362
:101980007F938F939F93AF93BF93EF93FF93809138
:10199000B900887F803609F49CC068F5883209F464
:1019A0005BC090F4803109F454C038F4882309F402
:1019B000F6C0883009F44DC0F6C0883109F44CC037
:1019C000803209F45DC0EFC0803409F468C048F487
:1019D000803309F455C0883309F0E5C08093BE0315
:1019E000D8C0803509F44FC0883509F45DC088340B
:1019F00009F0D9C0D6C0883909F4C7C0A8F488371F
:101A000009F467C038F4883609F463C0803709F4F4
:101A100060C0C9C0883809F4B8C0803909F45FC013
:101A2000803809F0C0C05BC0803B09F486C038F440
:101A3000803A09F466C0883A09F47FC0B4C0803C9B
:101A400009F4A7C0883C09F4A4C0883B09F48AC003
:101A5000AAC08091BB0310C09091BD038091BC03CC
:101A6000981770F5E091BD0381E08E0F8093BD0360
:101A7000F0E0E656FC4F80818093BB0085EC86C089
:101A80008093BE038EC0E091BD0381E08E0F8093F2
:101A9000BD038091BB00F0E0E656FC4F808390913F
:101AA000BD038091BC036EC0E091BD0381E08E0F49
:101AB0008093BD038091BB00F0E0E656FC4F80832D
:101AC0008091BF0381116DC081E08093BA0384EAE5
:101AD00061C083E08093C00310927703CFCF8091E1
:101AE0007703803208F051C0E091770381E08E0FD8
:101AF000809377038091BB00F0E0E95AFC4F80832C
:101B0000BDCF85EC8093BC001092C0038091770319
:101B1000803230F4E0917703F0E0E95AFC4F108214
:101B20006091770370E0E091D802F091D90287E5E7
:101B300093E009951092770336C084E08093C00348
:101B40001092560310925503E091DA02F091DB02F5
:101B5000099580915503811105C081E0809355035B
:101B600010923503E091560381E08E0F8093560367
:101B7000F0E0EB5CFC4F80818093BB0090915603BA
:101B800080915503981708F479CF85E88093BC00BD
:101B90000AC085EC8093BC001092C00304C0109270
:101BA000BE030E94B70AFF91EF91BF91AF919F9141
:101BB0008F917F916F915F914F913F912F910F90F6
:101BC0000FBE0F901F901895EF92FF920F931F93E7
:101BD000CF93DF93EC0169813881432F50E08A81F4
:101BE00090E0E8E7F0E021E0261730F47491870FE9
:101BF000911D2F5F3196F8CF633018F0337009F4E0
:101C000001966DE671E0469F9001479F300D569F0B
:101C1000300D1124215031094D5F5F4F5695479586
:101C200056954795240F351F280F391FA8E1B0E0BE
:101C30000E94E02B2B817B018C01E20EF11C011D27
:101C4000111DA8019701ACE3B0E00E949E2B2C81EE
:101C50007B018C01E20EF11C011D111DA8019701F1
:101C60000E949E2B2D81DC01CB01820F911DA11DB5
:101C7000B11DBC01CD0160587C4B8249974CDF916E
:101C8000CF911F910F91FF90EF9008958F929F92A7
:101C9000AF92BF92CF92DF92EF92FF92CF93DF93FA
:101CA000EC016A017B0180E8C81A83E4D80A8DE65A
:101CB000E80A88E3F80A8CE3882E912CA12CB12C39
:101CC000C701B601A50194010E94592C6D83CA0178
:101CD000B901A50194010E94592C6C83C701B6017A
:101CE00020E13EE040E050E00E94592CCA01B901D9
:101CF00028E130E040E050E00E94592C6B83C7019E
:101D0000B60120E831E541E050E00E94592C1882EC
:101D10004881542F537081E009F080E090E0BC01CD
:101D200063597E4F2617370738F0281B390B2D567D
:101D300031404F5F4883ECCF81E089838981E82F70
:101D4000F0E0E958FF4FE491511103C0823009F4EB
:101D5000EF5FF0E02E173F0720F02E1B3F0B8F5F49
:101D6000ECCF2F5F2A83DF91CF91FF90EF90DF9030
:101D7000CF90BF90AF909F908F9008958091300347
:101D80008823A9F140910401509105016091060159
:101D9000709107012FEE34E08091EF069091F006EC
:101DA0000E946416811102C080E0089540913103C1
:101DB0005091320360913303709134034115510502
:101DC0006105710591F02FEE34E08091EF0690915E
:101DD000F0060E946416882339F3109231031092A2
:101DE000320310923303109234031092300381E0D7
:101DF00008958F929F92AF92BF92EF92FF920F93AE
:101E00001F93CF934B015C01C42F809104019091EB
:101E10000501A0910601B091070188159905AA0551
:101E2000BB0501F10E94BE0E811102C080E020C0FE
:101E30008FEEE82E84E0F82E00E012E020E030E0A3
:101E4000B501A4018091EF069091F0060E94D01593
:101E5000882361F38092040190920501A09206010B
:101E6000B092070180913003C82BC093300381E00A
:101E7000CF911F910F91FF90EF90BF90AF909F90E7
:101E80008F9008954F925F926F927F928F929F9260
:101E9000AF92BF92CF92DF92EF92FF920F931F9378
:101EA000CF93DF93EC01423051056105710510F4C9
:101EB00080E078C089859A85AB85BC850196A11D97
:101EC000B11D84179507A607B70790F3CB88DC8868
:101ED000ED88FE888F89803129F4BB27A72F962FA4
:101EE000852F09C0DB01CA01E7E0B695A795979554
:101EF0008795EA95D1F7480159012A013B01C80E9F
:101F0000D91EEA1EFB1E8091040190910501A0914B
:101F10000601B0910701C816D906EA06FB0681F44E
:101F20008F898031A9F4B301A2015527662777274D
:101F3000440F551FFA01E151FB4F9182808219C075
:101F400040E0C701B6010E94F90E8111E9CFB0CF80
:101F5000B301A2014F77552766277727440F551FF6
:101F6000440F551FFA01E151FB4F80829182A282FA
:101F7000B382809130038160809330038A898230FC
:101F800080F08D819E81AF81B885C80ED91EEA1E72
:101F9000FB1EC0923103D0923203E0923303F092E1
:101FA000340381E0DF91CF911F910F91FF90EF906B
:101FB000DF90CF90BF90AF909F908F907F906F9069
:101FC0005F904F9008958F929F92AF92BF92CF9261
:101FD000DF92EF92FF920F931F93CF93DF93FC0159
:101FE00081859285A385B4850196A11DB11D8417B5
:101FF0009507A607B70710F480E05BC08388948834
:10200000A588B6888789803129F4BB27A72F962F0A
:10201000852F09C0DB01CA01C7E0B695A795979542
:102020008795CA95D1F7E9016A017B018F01BC014F
:10203000CD01680D791D8A1D9B1D80900401909033
:102040000501A0900601B0900701681579058A0581
:102050009B0591F4F80187898031A1F4DD24EE24F9
:10206000FF24C601880F991FFC01E151FB4F8081BD
:102070009181A0E0B0E018C040E00E94F90E81110B
:10208000E9CFBACFE894C7F8DD24EE24FF24C601D7
:10209000880F991F880F991FFC01E151FB4F808128
:1020A0009181A281B381BF7088839983AA83BB8306
:1020B00081E0DF91CF911F910F91FF90EF90DF9022
:1020C000CF90BF90AF909F908F9008952F923F92A6
:1020D0004F925F926F927F928F929F92AF92BF9238
:1020E000CF92DF92EF92FF920F931F93CF93DF93E4
:1020F000CDB7DEB72B970FB6F894DEBF0FBECDBFBE
:102100007C01FE013196CE010C966F0130E23193D5
:10211000E817F907E1F7DA0130E087E09D919923AC
:1021200031F19E3231F48A3009F479C138E08AE025
:10213000F5CFE8E6F0E04491442321F03196941382
:10214000FACF6DC1831708F46AC14FED490F4E35C0
:1021500008F065C141E0430FF601E30FF11D3FE9CF
:10216000390F3A3108F490529083342FD7CF8981B8
:10217000803209F454C1322E8B01DB015B968D91C4
:102180009C915C97F701948F838F16961D921D92F8
:102190001D921C921997FB011286138614861586D0
:1021A000B12CF80182859385A485B585438954892E
:1021B0006589768984179507A607B70708F05BC07D
:1021C00025E0B695A795979587952A95D1F7F82F8D
:1021D000FF70AF2ED80115968C91823008F41FC184
:1021E000C8010E94050397FD1AC1F80182859385F5
:1021F000A485B5854F96A11DB11D82879387A487BD
:10220000B587F0E2AF9EB001112461517B4F61159B
:10221000710509F404C1DB018C91882319F0853E16
:10222000C1F4FFC0B1100EC0F701A28A8091040171
:1022300090910501A0910601B091070186879787CB
:10224000A08BB18BDB018C91882399F0BB24B394D4
:10225000A8CF4BE050E0C6010E94A72D892B09F0C2
:10226000A0CF832D8073803309F4D9C0432D6A2D0C
:10227000D2C0BB24B394832D8271823109F0CFC0C8
:10228000BB20C9F0F701668577858089918941E097
:102290000E94F90E882309F4C2C0D70152960C910E
:1022A000B0E20B9F8001112401511B4F0115110554
:1022B00009F078C0B4C0F8018581823009F4AFC05C
:1022C000C8010E943D14882309F4A9C0D8015B9677
:1022D000ED91FC915C9716968D909D90AD90BC9081
:1022E0001997B2E08B1A9108A108B108058404C0BF
:1022F000880C991CAA1CBB1C0A94D2F7868597856A
:10230000A089B189880E991EAA1EBB1E2480E1E017
:102310008E1A9108A108B108222009F12401350183
:10232000420C511C611C711C0E94BE0E882309F4D2
:1023300076C0EFEEF4E0119226E0EF3EF207D9F717
:1023400040920401509205016092060170920701CB
:10235000809130038160809330032A94DDCFD801CF
:102360005B96ED91FC915C9780E092E0A0E0B0E09C
:10237000058404C0880F991FAA1FBB1F0A94D2F7B7
:10238000F8014389548965897689840F951FA61FB2
:10239000B71F838B948BA58BB68BD70152961C925B
:1023A0000FEE14E080E2F80111928A95E9F78BE0D4
:1023B000F601D80101900D928A95E1F7E091DC02D7
:1023C000F091DD02309739F0B801625F7F4FC801AC
:1023D000409609950DC081E298E2D80151969C93F0
:1023E0008E93509780E098E01F969C938E931E9753
:1023F000F80180899189938B828B918F808F86855C
:102400009785978B868B0E94BE0E882341F0432DC3
:10241000D70152966C91C7010E94341305C080E029
:1024200003C0B11013CF00CF2B960FB6F894DEBFC8
:102430000FBECDBFDF91CF911F910F91FF90EF9015
:10244000DF90CF90BF90AF909F908F907F906F90D4
:102450005F904F903F902F9008950F931F93CF93CD
:10246000DF93EB010E94DC208B010E94AE028F3FC4
:1024700049F00E94DC20601B710B6C177D07A8F3EC
:1024800080E001C081E0DF91CF911F910F9108950D
:102490000F931F93CF93DF93FC012581222309F42F
:1024A00046C0248127FF3DC08C01668577858089E1
:1024B000918941E00E94F90E8823C9F1F801C2898F
:1024C000F0E2CF9FE0011124C151DB4F209779F159
:1024D000F8018581823040F483899489A589B68981
:1024E0008C8F9D8FAE8FBF8FF8018789908DA18DC6
:1024F000B28D9B8F8A8FBD8BAC8BE091DC02F0910B
:10250000DD02309751F0BE016A5E7F4FCE014896E2
:102510000995888D998D9B8B8A8BF80194819F7783
:102520009483DF91CF911F910F910C94BE0E80E0A8
:10253000DF91CF911F910F9108958F929F92AF924B
:10254000BF92CF92DF92EF92FF920F931F93CF93A0
:10255000DF93EC018D81811102C080E078C00B898E
:102560001C892D893E890417150726073707A8F30C
:102570006A017B01823029F4CA86DB86EC86FD86FF
:102580000DC0C114D104E104F10451F41E821F8274
:10259000188619861A861B861C861D8681E057C000
:1025A0008A849B84AC84BD84EB8DFC8D258530E0D2
:1025B000275F3F4FB501A4014150510961097109DD
:1025C000022E04C076956795579547950A94D2F7E1
:1025D000D701C6010197A109B10904C0B695A79515
:1025E000979587952A95D2F784179507A607B70779
:1025F00020F089288A288B2871F44F89588D698D9D
:102600007A8D4E835F83688779874C015D018E01E7
:102610000A5F1F4F16C0841B950BA60BB70BF5CF97
:102620004E815F816885798598018B8D9C8D0E9494
:10263000E30F91E0891A9108A108B108882309F4F1
:102640008CCF81149104A104B10451F795CFDF918F
:10265000CF911F910F91FF90EF90DF90CF90BF909F
:10266000AF909F908F9008958F929F92AF92BF925C
:10267000CF92DF92EF92FF920F931F93CF93DF934E
:1026800000D000D0CDB7DEB77C0180E2689FF001BA
:102690001124E151FB4F9385917121F0842F8274B5
:1026A00009F08FC0142FD70152966C935297409126
:1026B00004015091050160910601709107011E9679
:1026C0004D935D936D937C9351974489558960E058
:1026D00070E0BA0155274427828D938DA0E0B0E0C9
:1026E000482B592B6A2B7B2BD70157964D935D9323
:1026F0006D937C935A978385887159F4848D958D59
:10270000A68DB78DF701838B948BA58BB68B81E05B
:1027100012C0803109F055C097012D5E3F4FD7019F
:102720005B968D919C915C970E941E1A882309F4F8
:1027300048C084E0F7018583812F8F70D7011496FC
:102740008C931497F70116821782108611861A96B9
:102750001D921D921D921C921D9716FF34C0159656
:102760008C91813071F511FF2CC0F7014389548998
:1027700065897689452B462B472B09F461C040E0DB
:1027800050E0BA01C7010E949D128823D1F0F701E1
:102790008788908CA18CB28CC38CD48C82E090E022
:1027A000A0E0B0E0F60180839183A283B3839E0111
:1027B0002F5F3F4FB501A401C6010E94E30F8111B5
:1027C00004C080E03DC081E03BC000E010E0980123
:1027D000B501A401C6010E94420F882391F38980AC
:1027E0009A80AB80BC80D60157968C91803129F0BD
:1027F00088EF9FEFAFEFBFE004C088EF9FEFA0E04E
:10280000B0E088169906AA06BB0688F2D70157964B
:102810001D921D921D921C925A97F701138A148AD9
:10282000158A168A848180688483C7010E944812B1
:10283000882339F240E050E0BA01C7010E949D129E
:102840000F900F900F900F90DF91CF911F910F91EC
:10285000FF90EF90DF90CF90BF90AF909F908F90C0
:102860000895CF93DF93EC010E944812882311F062
:102870001D8281E0DF91CF9108953F924F925F9248
:102880006F927F928F929F92AF92BF92CF92DF9280
:10289000EF92FF920F931F93CF93DF93CDB7DEB7E5
:1028A0002C970FB6F894DEBF0FBECDBF5C01DC01E4
:1028B0005B968D909C905C971696CD90DD90ED90F8
:1028C000FC901997C114D104E104F10439F0BFEF71
:1028D000CB1ADB0AEB0AFB0A312C07C0F401C080DB
:1028E000D180E280F38033243394F4018185928592
:1028F000A385B4859C01AD012F5F3F4F4F4F5F4FC4
:1029000029873A874B875C87260137011D821E8203
:102910001F821886F40181859285A385B4852D8157
:102920003E814F815885281739074A075B0708F011
:1029300063C089859A85AB85BC858C159D05AE05E0
:10294000BF0550F482E0C82ED12CE12CF12C92E08E
:10295000492E512C612C712C9E012F5F3F4FB701E6
:10296000A601C4010E94E30F882309F445C08981B0
:102970009A81AB81BC81892B8A2B8B2B41F026015C
:1029800037019FEF491A590A690A790A05C0C41428
:10299000D504E604F70491F02D813E814F815885DE
:1029A0002F5F3F4F4F4F5F4F2D833E834F8358879D
:1029B0003FEFC31AD30AE30AF30AACCF0FEF1FEFBE
:1029C0002FEF3FE0B301A201C4010E94420F882310
:1029D00099F0D50116964D915D916D917C91199765
:1029E000411551056105710549F093018201C4014A
:1029F0000E94420F811102C080E02AC0D5011696C4
:102A00004D925D926D927C921997332051F0D301D3
:102A1000C2010196A11DB11DF40180839183A2839F
:102A2000B383F5018789908DA18DB28D892B8A2B77
:102A30008B2B69F4D50157964D925D926D927C92E5
:102A40005A9714968C911497806814968C9381E011
:102A50002C960FB6F894DEBF0FBECDBFDF91CF919D
:102A60001F910F91FF90EF90DF90CF90BF90AF90AC
:102A70009F908F907F906F905F904F903F900895C0
:102A80008FB7F894809178038FBF0895CF93DF9329
:102A9000EC0180917903811109C081E08093790371
:102AA00080918F04909190040E94B10260E08C812B
:102AB000DF91CF910C94372061E0FC0184810E946A
:102AC0003720809179038111109279030895CF9373
:102AD000DF93EC018E81882389F08F8198859C019A
:102AE0002F5F3F4F38872F838230924018F40E9427
:102AF000AE02F3CFCE010E945C151E82DF91CF9112
:102B000008958F929F92AF92BF92FF920F931F935F
:102B1000CF93DF93EC01F62E49015A010E9467150D
:102B2000CE010E9446156CE271E0CE010E942D128A
:102B30008F2D80640E94A70208E110E0D501C40136
:102B4000002E04C0B695A795979587950A94D2F75D
:102B50000E94A70208501109083F8FEF180771F76C
:102B6000FF2029F088E0F81204C087E803C085E957
:102B700001C08FEF0E94A70210E00E94AE028A8778
:102B800087FF04C01F3F11F01F5FF7CFDF91CF9188
:102B90001F910F91FF90BF90AF909F908F900895DD
:102BA000AF92BF92CF92DF92EF92FF920F931F935B
:102BB000CF93DF93EC016901C801820F931F81302D
:102BC000924008F070C08E81882371F088819981CD
:102BD000AA81BB8184179507A607B70729F48F81BF
:102BE0009885C816D906B0F5488359836A837B83D4
:102BF0008B85833039F089E0440F551F661F771F9E
:102C00008A95D1F79A01AB0161E1CE010E9481154D
:102C1000882319F083E08D8346C00E94DC205B018D
:102C20000E94AE028A878F3F49F40E94DC206A1915
:102C30007B096D327140A0F38FE003C08E3F31F00D
:102C40008DE08D83CE010E945C152DC018861F82F9
:102C500081E08E838F8198858C159D0540F40E94BC
:102C6000AE028F819885019698878F83F3CF670195
:102C7000E00EF11EEC14FD0431F00E94AE02F601EC
:102C800081936F01F7CF8F819885080F191F1887DF
:102C90000F838985882319F00115124048F0CE0171
:102CA0000E94671505C0CE010E945C1580E001C03E
:102CB00081E0DF91CF911F910F91FF90EF90DF9016
:102CC000CF90BF90AF900895EF92FF920F931F9314
:102CD000CF93DF93EC017901411551056105710531
:102CE00011F482E13CC08B85833039F089E0440FD8
:102CF000551F661F771F8A95D1F79A01AB0168E1CE
:102D0000CE010E948115882311F084E028C08EEF47
:102D10000E94A70287018EEFF81AF80181918F01B6
:102D20000E94A702E016F106C1F78FEF0E94A702EA
:102D30008FEF0E94A7020E94AE028A878F718530B2
:102D400031F081E18D83CE010E945C1509C068E5F8
:102D500072E0CE010E942D12811107C085E18D83A2
:102D6000CE010E945C1580E014C020E030E0A90193
:102D70006DE0CE010E948115811109C00E94AE0252
:102D8000811105C0CE010E945C1581E002C084E182
:102D9000E6CFDF91CF911F910F91FF90EF900895B3
:102DA0002F923F924F925F926F927F928F929F925B
:102DB000AF92BF92CF92DF92EF92FF920F931F9349
:102DC000CF93DF9300D000D0CDB7DEB78C016B017D
:102DD0001A01DC0115968C9115978130C9F414966F
:102DE0008C9181FF15C082FF1DC0F8014389548971
:102DF0006589768982859385A485B585841795072D
:102E0000A607B70779F0C8010E949D1281110AC078
:102E100081E090E0D80113969C938E93129780E006
:102E200090E048C1410183C05B968D919C915C9775
:102E3000FC0174802FEF270D2A013B0139E07694C5
:102E40006794579447943A95D1F7722E74207A017B
:102E5000F1E0FF22772009F476C080E092E08E193D
:102E60009F0954018815990508F45C01D8015B9607
:102E70002D913C915C9716968D919D910D90BC91F2
:102E8000A02D0297A109B109F901058404C0880F9A
:102E9000991FAA1FBB1F0A94D2F7468557856089E0
:102EA0007189840F951FA61FB71F9C01AD01270DC7
:102EB000311D411D511D29013A01A11432E0B30613
:102EC00009F088C08091040190910501A09106014C
:102ED000B0910701481659066A067B0659F48FEF30
:102EE0009FEFDC018093040190930501A0930601FC
:102EF000B09307019601B301A2018091EF06909172
:102F0000F0060E946416882309F482CF9EEFD91A36
:102F10008A189B08F80182859385A485B5858A0D5A
:102F20009B1DA11DB11D82879387A487B587D801FA
:102F30001A964D915D916D917C911D97811491042C
:102F400009F072CF87C0E114F10409F086CF16961C
:102F50004D915D916D917C911997411551056105D8
:102F6000710559F457968D919D910D90BC91A02DAE
:102F70000097A105B10541F521C09E012F5F3F4F8C
:102F80000E94E30F882309F44BCF89819A81AB819A
:102F9000BC81F801238D348DF9012789203129F076
:102FA00048EF5FEF6FEF7FE004C048EF5FEF60E056
:102FB00070E084179507A607B70730F0C8010E9494
:102FC0003D1481114ACF24CFF80186839783A087CF
:102FD000B18743CFE114F10429F5D8011A964D9138
:102FE0005D916D917C911D9753968D919D910D9062
:102FF000BC91A02D481759076A077B0798F00E94DB
:10300000BE0E882309F404CF4092040150920501BA
:103010006092060170920701809130038160809375
:10302000300308C041E0C301B2010E94F90E8823B9
:1030300009F4EECED601F701E151FB4F9F012A0DB5
:103040003B1D2E173F0719F08D918193FACFCA0CC3
:10305000DB1C5ECFD8015396CD90DD90ED90FC90B7
:10306000569714968C91C416D506E606F70640F4DA
:10307000F801438B548B658B768B806884830DC0FD
:103080002091DC023091DD02232B39F02114310430
:1030900021F08068D80114968C93F801848183FD17
:1030A00002C0C10107C0C8010E944812882309F468
:1030B000AFCEF7CF0F900F900F900F90DF91CF9181
:1030C0001F910F91FF90EF90DF90CF90BF90AF9046
:1030D0009F908F907F906F905F904F903F902F9038
:1030E00008958091DD049091DE048230910538F0DE
:1030F000880F991F880F991F05970197F1F7089579
:10310000CF93DF93CAEDD4E061E089810E9466200D
:103110000E94711860E088810E9466200E947118E8
:1031200060E089810E946620DF91CF910C94711834
:1031300061E08091DB040E9466200C947118CF93AB
:10314000DF93D82FC8E061E08091DA040E94662006
:103150000E947118D0FF02C060E001C061E0809160
:10316000DB040E9466200E94711860E08091DA04FE
:103170000E9466200E947118D695C15021F761E027
:103180008091DA040E94662060E08091DB040E9456
:1031900066200E94711860E08091DA040E94662027
:1031A0000E9471188091DB040E940E20C82F8111AB
:1031B00005C061E08091DB040E9466200E947118C6
:1031C00061E08091DA040E9466200E94711881E01B
:1031D000C11101C080E0DF91CF910895EF92FF927D
:1031E0000F931F93CF93DF93EC017B018A011B8226
:1031F0001A8288EE93E0A0E0B0E08C839D83AE83DA
:10320000BF8382E591E0998388838DE190E00E94FD
:10321000812C9A8F898F009779F02DE1F701DC01DD
:1032200001900D922A95E1F74CE050E0B801CE01F3
:103230000C960E94C82D188EDF91CF911F910F918F
:10324000FF90EF900895FF920F931F93CF93DF931A
:10325000F82E092F162FC42F0E94981880E40E9480
:103260009F180E9480180E9498188C2F8370805499
:103270000E949F18CF2DD02FCE01810F911D8C0160
:10328000C017D10721F089910E949F18F9CF0E94A1
:1032900080180E9498188091DC048F7080580E94DA
:1032A0009F18DF91CF911F910F91FF900C94801880
:1032B00091E09093E5038093E6041092E40310926A
:1032C000E30308959091C0039111FCCF982F8132B0
:1032D00008F090E281E08093C0038093BF032FEF5A
:1032E0002093BE031092BD03290F2093BC0380934B
:1032F000BB038091BB03806D8093BB038091BA03B5
:10330000813061F41092BA038091BB038093BB00BB
:103310008091BC0083FDF8CF85EC01C085EE8093E1
:10332000BC008091C0038130E1F38091BD03891717
:1033300010F49091BD03EAE9F3E0A3ECB3E080E080
:10334000891721F021912D938F5FFACF1092C2033C
:103350008093C10308953091E303313208F04BC0EC
:103360008091C0038111FCCF9091E60422E020936C
:10337000C00321E02093BF032FEF2093BE031092E0
:10338000BD033093BC03EAE7F3E0AAE9B3E020E031
:10339000321721F041914D932F5FFACF1092BB036A
:1033A0002091BB03990F922B9093BB039091BA038A
:1033B000913061F41092BA039091BB039093BB00DB
:1033C0009091BC0093FDF8CF95EC01C095EE9093E1
:1033D000BC009091C0039230E1F39091BE039F3FF7
:1033E00079F08091BE03803241F08091BE0380333A
:1033F00031F084E005C081E003C082E001C083E0D9
:103400001092E4031092E3031092E5030895682FED
:1034100083E894E00C94440BCF93DF93EC01898D07
:103420009A8D009741F00E943114898D9A8D0E94E7
:10343000192D1A8E198EDF91CF9108954F925F92B8
:103440006F927F92AF92BF92CF92DF92EF92FF92F4
:103450000F931F93CF93DF9300D000D0CDB7DEB78B
:103460008C0149835A836B837C835901C12CD12CF5
:103470007601412C82E0582E612C712C49815A81B1
:103480006B817C819E012F5F3F4FC8010E94E30F3B
:10349000882351F1D301C201F801058404C0880FCB
:1034A000991FAA1FBB1F0A94D2F7C80ED91EEA1E85
:1034B000FB1E49815A816B817C818789803129F08B
:1034C00088EF9FEFAFEFBFE004C088EF9FEFA0E071
:1034D000B0E0481759076A077B0780F2F501C08200
:1034E000D182E282F38281E00F900F900F900F90D3
:1034F000DF91CF911F910F91FF90EF90DF90CF90D0
:10350000BF90AF907F906F905F904F900895CF9352
:10351000DF93FC012581222311F080E049C0EC01FA
:103520008091B4048031C1F482E08583178A108EC3
:10353000118E128E8091B5049091B604A0E0B0E097
:1035400025E0880F991FAA1FBB1F2A95D1F7838BEF
:10355000948BA58BB68B19C08032F9F683E08583F6
:103560004091B7045091B8046091B9047091BA04C5
:10357000478B508F618F728F9F012D5E3F4F8DE97A
:1035800094E00E941E1A882341F28DE994E09C8FFA
:103590008B8F81E08C831E821F82188619861A8683
:1035A0001B861C861D861E861F86188A198A1A8A03
:1035B000DF91CF9108952F923F924F925F926F9239
:1035C0007F928F929F92AF92BF92CF92DF92EF92B3
:1035D000FF920F931F93CF93DF93CDB7DEB7C756FC
:1035E000D1090FB6F894DEBF0FBECDBF6C015B01F1
:1035F000A6964FAFA69719A218A288E891E09F8FD0
:103600008E8F1BA21C821B829A8389831E824E018D
:103610008EE1880E911CC4010E94871A75018E01EB
:103620000F5F1F4F240118016FE270E0C7010E9475
:10363000B42D009709F442C0F70120812F3221F404
:10364000FFEFEF1AFF0AF0CF8E198D3008F08CE0F3
:10365000682E712CA301B701CE01885A9F4F0E949A
:10366000C82DE8E5F0E0EC0FFD1FE60DF71D108218
:10367000C8010E943114F8018581882351F01EAEE3
:103680001DAE88E891E09CAF8BAF21961FAE2197CD
:1036900021C021E0AE01485A5F4FB201C8010E942B
:1036A0006610882361F3E60CF71CC2010E943114F6
:1036B000942D852D2801092F182FB6CFC7018A19FF
:1036C0009B09A8969FAF8EAFA897B201CE01CB966B
:1036D0000E94B402A896EEADFFADA897AE0EBF1E35
:1036E000F5018081811109C0BE01655C7F4FC10178
:1036F0000E94B40242EB52E041C019A218A288E82D
:1037000091E09F8F8E8F1BA221968FAD2197811103
:1037100013C0F6011382128288EE93E0A0E0B0E0BD
:1037200084839583A683B78382E591E09183808328
:10373000128E118E148626C0A6962FADA697A501CF
:10374000BE01655C7F4FC4010E946610882309F3A7
:10375000CE01CB960E943114A6968FADA6978670A7
:10376000863039F449A95AA96BA97CA9C4010E94E1
:103770009D12B401C1010E94B402A501B101C601AC
:103780000E94EE18C601C959DF4F0FB6F894DEBF8C
:103790000FBECDBFDF91CF911F910F91FF90EF90A2
:1037A000DF90CF90BF90AF909F908F907F906F9061
:1037B0005F904F903F902F9008958F929F92AF927D
:1037C000BF92CF92DF92EF92FF920F931F93CF930E
:1037D000DF9300D000D0CDB7DEB7D62EC42EBC010B
:1037E00097FF03C0719561957109FB01392F331F54
:1037F0003327331F8E010F5F1F4F5801AC0CB11CD4
:1038000078018AE0882E912C40E40A151B05D1F03E
:10381000CF01B4010E94312CDC01BB27A25CBE4F5A
:103820009C91D5019E935D01811106C0309721F4D2
:10383000332311F04C9330E0CF01B4010E94312CBE
:10384000FB01E3CFD11016C0422F6C2DC8010E949E
:1038500023190F900F900F900F90DF91CF911F9130
:103860000F91FF90EF90DF90CF90BF90AF909F901F
:103870008F900895AE014B5F5F4F8D2D8078F701DB
:103880009081892BD7018D937D01DD0C4A175B0751
:10389000A1F7DACF833081F028F4813099F08230BB
:1038A000A1F008958730A9F08830B9F08430D1F4C0
:1038B000809180008F7D03C0809180008F778093FE
:1038C0008000089584B58F7702C084B58F7D84BD54
:1038D00008958091B0008F7703C08091B0008F7DF4
:1038E0008093B00008953FB7F8948091EB049091D5
:1038F000EC04A091ED04B091EE0426B5A89B05C0A0
:103900002F3F19F00196A11DB11D3FBFBA2FA92F5E
:10391000982F8827820F911DA11DB11DBC01CD01DB
:1039200042E0660F771F881F991F4A95D1F70895C7
:103930000F931F93CF93DF93FC0102811381C0810A
:10394000D1812896B801CE010E94BA040E944F0985
:10395000882309F44FC0B801CE010E94BA04FC01CB
:10396000892B09F447C094819F77973028F49530CC
:1039700070F4933090F43EC0973061F09830D1F5F8
:1039800060817181828193810E94EF2B39C0808197
:10399000918137C06081718128C00190F081E02D54
:1039A000309741F18081843741F18B3229F08D329B
:1039B00021F4319691E002C0319690E060E070E031
:1039C0004AE0819120ED280F2A3068F4469F90014B
:1039D000479F300D1124682F880F770B60537109B2
:1039E000620F731FEECF992359F088279927861B02
:1039F000970B07C080E090E004C081E090E001C038
:103A0000CB01DF91CF911F910F9108950F931F93D9
:103A1000CF93DF93FC0102811381C081D18128966D
:103A2000B801CE010E94BA040E944F09882309F40C
:103A30004FC0B801CE010E94BA04FC01892B09F4E1
:103A40004AC094819F77973028F4953070F4933072
:103A500090F441C0973061F09830E9F56081718150
:103A6000828193810E94F62B3CC0808191813AC073
:103A70006081718128C00190F081E02D309759F16B
:103A80008081843759F18B3229F08D3221F43196BF
:103A900091E002C0319690E060E070E04AE08191F0
:103AA00020ED280F2A3068F4469F9001479F300D83
:103AB0001124B90160537109680F711D87FD7A9552
:103AC000EECF992371F088279927861B970B0AC0A0
:103AD0008FEF9FEF07C080E090E004C081E090E0AE
:103AE00001C0CB01DF91CF911F910F910895CF932A
:103AF000DF9300D000D0CDB7DEB719821A821B82C7
:103B00001C8240E064E0CE0101960E9423190F90D0
:103B10000F900F900F90DF91CF910895CF93C82F02
:103B200088E60E945819CC2319F08FE090E002C07B
:103B30008EE090E00E94071A0E94AB1981E090E0AD
:103B40000E94621983E894E00E94FB0ACF910895D5
:103B5000CF92DF92EF92FF920F931F93CF93DF9359
:103B6000CDB7DEB7C753D1400FB6F894DEBF0FBE56
:103B7000CDBF7E0122EFE21A2EEFF20A41E0BC0136
:103B8000C7010E94DB1ACE010E969A8389839C831B
:103B90008B83FE82ED82F886EF828D8580788D871B
:103BA0008E010F5F1F4FC75DDE4F19830883C95217
:103BB000D140C55DDE4FF982E882CB52D140C35D72
:103BC000DE4F1882CD52D140C25DDE4F1882CE52F8
:103BD000D140C15DDE4F19830883CF52D1408AE0C6
:103BE000CF5CDE4F8883C153D140CD5CDE4F18825D
:103BF000C353D140BE01675F7F4FCE01875D9E4FAB
:103C00000E94F804CA5CDE4F99838883C653D14072
:103C1000CE018A5C9E4F0E94EA04672B29F09EED3C
:103C2000C92E90E0D92E0CC080FDF9CF13C086EECE
:103C300093E00E943E0AFFEFCF1ADF0A892B21F0A2
:103C4000F60164916111F3CF6CED71E086EE93E0C3
:103C50000E94220C64EB72E0CE0109960E94BA0425
:103C6000FC01892B49F094819F779350923020F486
:103C70000190F081E02D02C0E0E0F0E082E5809369
:103C8000F1068181811106C080818F7D893411F414
:103C90008093F106CC24CA94DC2CCC5CDE4FD98214
:103CA000C882C453D140C75DDE4F19830883C9520F
:103CB000D1408CEB92E0C55DDE4F99838883CB5277
:103CC000D140BE016C5C7E4FCE01875D9E4F0E944D
:103CD000061D9093F5068093F406CC5CDE4F1982A6
:103CE0001882C453D140C75DDE4F19830883C9527F
:103CF000D14082EC92E0C55DDE4F99838883CB5240
:103D0000D140BE016C5C7E4FCE01875D9E4F0E940C
:103D1000981C9093F3068093F206CC5CDE4FD98218
:103D2000C882C453D140C75DDE4F19830883C9528E
:103D3000D14088EC92E0C55DDE4F99838883CB52F9
:103D4000D140BE016C5C7E4FCE01875D9E4F0E94CC
:103D5000061D9093F9068093F806CC5CDE4F19821D
:103D60001882C453D140C75DDE4F19830883C952FE
:103D7000D1408EEC92E0C55DDE4F99838883CB52B3
:103D8000D140BE016C5C7E4FCE01875D9E4F0E948C
:103D9000981C9093F7068093F606C7010E940C1AB0
:103DA000C95CDE4F0FB6F894DEBF0FBECDBFDF910A
:103DB000CF911F910F91FF90EF90DF90CF900895DA
:103DC0008F929F92AF92BF92CF92DF92EF92FF922B
:103DD000CF93DF93C82F81E994E09093F00680930E
:103DE000EF06CC2369F1C53010F080E00CC140E053
:103DF00060E070E0CB010E94F90E8823B1F320E16E
:103E0000C29FC001112481529B4FFC01E254FE4F1E
:103E100020812F7751F73C964081518162817381D7
:103E2000443651056105710500F33497C080D18097
:103E3000E280F380C114D104E104F10421F4D5CF70
:103E4000C12CD12C760140E0C701B6010E94F90EC9
:103E5000882359F28091FA049091FB0481159240D5
:103E600021F6A091FF04AA2309F4BFCF6091FD04BD
:103E70007091FE046115710509F4B7CF2091FC041F
:103E8000222309F4B2CFA093AF042093A10480E0D1
:103E900030E041E050E0C82FFA01082E02C0EE0FDA
:103EA000FF1F0A94E2F72E173F0739F08F5FC830E3
:103EB00091F789E08093AA0498CF8093AA04209177
:103EC0000505309106052115310519F040E050E057
:103ED00008C02091130530911405409115055091AB
:103EE00016052093A2043093A3044093A404509396
:103EF000A50446015701860E971EA11CB11C809295
:103F0000B0049092B104A092B204B092B304E091D4
:103F10000005F0910105F093B604E093B504B0E01C
:103F20000E949E2B860E971EA81EB91E8092B70473
:103F30009092B804A092B904B092BA0485E0EE0F52
:103F4000FF1F8A95E1F7E150FE4FEF2FFF27E6951F
:103F50008E0E9F1EA11CB11C8092AB049092AC04EB
:103F6000A092AD04B092AE042091020530910305F9
:103F70002115310521F0A90160E070E008C04091F1
:103F80000F05509110056091110570911205D70130
:103F9000C60188199909AA09BB09840F951FA61F94
:103FA000B71F04C0B695A79597958795CA95D2F780
:103FB0008093A6049093A704A093A804B093A904A7
:103FC000853F2FE09207A105B10510F48CE018C0E1
:103FD000853F9F4FA105B10510F480E111C080918C
:103FE0001B0590911C05A0911D05B0911E058093A5
:103FF000B7049093B804A093B904B093BA0480E2D4
:104000008093B40481E0DF91CF91FF90EF90DF9037
:10401000CF90BF90AF909F908F900895CF93DF93F4
:10402000282F30E0F901E653FF4F8491F901EA545B
:10403000FF4FD491F901EE55FF4FC491CC2391F07D
:1040400081110E944A1CEC2FF0E0EE0FFF1FE85692
:10405000FF4FA591B491EC91ED2381E090E021F424
:1040600080E002C080E090E0DF91CF9108951F933F
:10407000CF93DF93282F30E0F901E653FF4F84916F
:10408000F901EA54FF4FD491F901EE55FF4FC49165
:10409000CC23C1F0162F81110E944A1CEC2FF0E0B6
:1040A000EE0FFF1FE257FF4FA591B4919FB7F89411
:1040B000111104C08C91D095D82302C0EC91DE2B55
:1040C000DC939FBFDF91CF911F910895CF93DF9332
:1040D00090E0FC01EA54FF4F2491FC01EE55FF4FA4
:1040E0008491882361F190E0880F991FFC01EC57BF
:1040F000FF4FC591D491FC01E257FF4FA591B491B8
:10410000611109C09FB7F894888120958223888324
:10411000EC912E230BC0623061F49FB7F894888134
:10412000322F309583238883EC912E2B2C939FBFC5
:1041300006C08FB7F894E8812E2B28838FBFDF91BC
:10414000CF9108958F929F92AF92BF92CF92DF92BC
:10415000EF92FF926B017C010E94731C4B015C018A
:10416000C114D104E104F104F1F00E94731CDC01DC
:10417000CB0188199909AA09BB09883E9340A1057A
:10418000B10570F321E0C21AD108E108F10888EE08
:10419000880E83E0981EA11CB11CC114D104E10457
:1041A000F10419F7DDCFFF90EF90DF90CF90BF9033
:1041B000AF909F908F9008952FB7F8946091E70487
:1041C0007091E8048091E9049091EA042FBF08956A
:1041D0001F920F920FB60F9211242F933F938F933C
:1041E0009F93AF93BF938091E7049091E804A091CF
:1041F000E904B091EA043091FA0623E0230F2D3749
:1042000020F40196A11DB11D05C026E8230F0296DA
:10421000A11DB11D2093FA068093E7049093E80452
:10422000A093E904B093EA048091EB049091EC042C
:10423000A091ED04B091EE040196A11DB11D8093F3
:10424000EB049093EC04A093ED04B093EE04BF91C3
:10425000AF919F918F913F912F910F900FBE0F9033
:104260001F901895CF93DF93CDB7DEB7CC56D10909
:104270000FB6F894DEBF0FBECDBF789484B58260D0
:1042800084BD84B5816084BD85B5826085BD85B5FA
:10429000816085BD80916E00816080936E00109278
:1042A00081008091810082608093810080918100F3
:1042B0008160809381008091800081608093800084
:1042C0008091B10084608093B1008091B0008160E2
:1042D0008093B00080917A00846080937A0080910E
:1042E0007A00826080937A0080917A008160809366
:1042F0007A0080917A00806880937A001092C100E1
:1043000010922C0310922B0310922E0310922D0367
:1043100010922F0361E087E00E94662060E087E052
:104320000E94372061E088E00E94662060E088E01B
:104330000E9437201092290362E086E00E946620E6
:1043400062E085E00E9466201092D5021092D402AD
:1043500060ED77E080E090E00E94A220E091F6031B
:10436000F091F70382E08083E091F203F091F30390
:104370001082E091F403F091F50380E180831092C4
:10438000FE03E091FA03F091FB0386E08083E09165
:10439000F803F091F903808180618083E091F80354
:1043A000F091F903808188608083E091F803F091B7
:1043B000F903808180688083E091F803F091F9032C
:1043C00080818F7D808384E690E0A0E0B0E08093E0
:1043D000EA039093EB03A093EC03B093ED038CE915
:1043E00091E09F938F9381EA91E09F938F9389EE61
:1043F00092E09F938F930E94D72D69EE72E086EE34
:1044000093E00E94220C8FE08093DC040E94771DD1
:1044100081E08093DF028093DE028AE599E0909349
:10442000DD028093DC020F900F900F900F900F90A1
:104430000F908091C004882321F08BEB94E00E94C0
:10444000311410929C0410929A04109297041092C6
:1044500096048AE0809395040E94DC206B017C0125
:1044600061E0809195040E94662061E0809195044E
:104470000E9437201FB7F8948091E802811127C06D
:10448000ECEAF0E08491E0ECF0E09491E82FF0E0C9
:10449000EE0FFF1FEC57FF4FA591B491EC91E9236C
:1044A00021F461E08AE00E94372061E08AE00E9406
:1044B00066208CB580618CBD8CB580648CBD61E05C
:1044C0008DE00E94662061E08BE00E946620809172
:1044D000E8028F5F8093E8021FBF82E580938F041C
:1044E0001092900480918F04909190040E94B102E8
:1044F0001AE08FEF0E94A7021150D9F781E994E0EA
:104500000E94461520E030E0A90160E081E994E0D6
:104510000E948115182F80939B04813049F00E94DE
:10452000DC206C197D09613D774060F381E054C067
:104530002AEA31E040E050E068E081E994E00E943E
:10454000811582FF03C010939C040EC014E00E94EA
:10455000AE0280939B041150D1F78A3A11F082E0A9
:104560003BC082E080939C0480919C04823031F4B3
:10457000812C912CA12CF0E4BF2E03C0812C912C16
:10458000540120E030E0A90167E381E994E00E9452
:104590008115A501940169E281E994E00E948115E9
:1045A00080939B04882349F00E94DC206C197D09CC
:1045B000613D774030F388E00FC080919C048230E9
:1045C00001F520E030E0A9016AE381E994E00E946E
:1045D0008115882341F086E08093960481E994E078
:1045E0000E945C1528C00E94AE02807C803C19F4B9
:1045F00083E080939C040E94AE020E94AE020E945F
:10460000AE0281E994E00E945C1580E580938F04FE
:104610001092900481E00E94E01E882339F08BEB19
:1046200094E00E94871A882331F025C080E00E9420
:10463000E01E8111F4CF03E010E061E087E00E940A
:10464000372068EC70E080E090E00E94A22060E0FB
:1046500087E00E94372068EC70E080E090E00E94E4
:10466000A2200150110949F760ED77E080E090E069
:104670000E94A220E0CF1092E70281E08093E50241
:104680008093E40290E1909381001092800093E087
:104690009093E60222E13AE7309387002093860068
:1046A00093E19093810028E031E03093D70220938A
:1046B000D60280936F0010928100109285001092B4
:1046C00084009091E6029061909381001092C20361
:1046D0001092C1031092E4031092E3031092C003FE
:1046E0008093BF031092BA0361E082E10E943720F9
:1046F00061E083E10E9437208091B9008E7F809332
:10470000B9008091B9008D7F8093B90088E48093CF
:10471000B80085E48093BC0089EE9AE09093DB02B8
:104720008093DA028AEE9AE09093D9028093D802BD
:104730008FE498E1A9E4BCE58093E0029093E10264
:10474000A093E202B093E30288E60E94581980E049
:1047500090E00E94071A0E94AB1987E090E00E9447
:10476000621983E894E00E94FB0A8F77982F929554
:104770009F701AEF082F919F000D112483E894E099
:104780000E94FB0A9C01332744E0359527954A9502
:10479000E1F7F82E129FF00C112483E894E00E94B8
:1047A000FB0A9C01332754E0359527955A95E1F78C
:1047B000E82E129FE00C112483E894E00E94FB0A8B
:1047C00083E894E00E94FB0A9C01332764E035955E
:1047D00027956A95E1F7D82E129FD00C112483E813
:1047E00094E00E94FB0A9C01332774E035952795DD
:1047F0007A95E1F7C82E129FC00C112483E894E04B
:104800000E94FB0A9C013327E4E035952795EA9541
:10481000E1F7129F800D11248983CA82DB82EC822A
:10482000FD820E83CE0101960E94E40D6093E002AA
:104830007093E1028093E2029093E30280E00E9491
:104840008E1D182F88E60E9458198EE090E00E9475
:10485000071A612F637283E894E00E94440B0E9460
:10486000AB1962E080E00E94662081E891E09093BD
:10487000010180930001809169008C7F81608093A9
:104880006900E89A81E00E948E1D87FD27C48BEBAA
:1048900091E00E94A81D67EC71E086EE93E00E9413
:1048A000220C6CED71E086EE93E00E94220CE09009
:1048B000DF048091E004A9968FAFA9978091E1046D
:1048C000A8968FAFA8978091E204A7968FAFA7977D
:1048D0008091E304A6968FAFA6978091E702882384
:1048E00009F430C2833009F48CC030F4813059F0BF
:1048F000823009F452C023C2843009F4BBC0853031
:1049000009F4FFC01CC2F12C87010053184FBE01EF
:1049100067597F4FCE0186599F4F0E942204AB9664
:104920009FADAB97AA968FADAA97911123C088230C
:1049300031F183E6E816F10418F40F5F1F4F02C04F
:1049400000ED17E010928100109285001092840013
:104950008091E60280618093810081E08093E5028E
:104960008093E402C801805D97408093DF04109239
:10497000E40405C0811103C082E00E94FD298091FA
:10498000E502882309F4A7C38091E402882309F48F
:104990006EC020E044E060E0B2C0BE0167597F4FC6
:1049A000CE0186599F4F0E942204AB969FADAB97D4
:1049B000AA968FADAA97911111C08823A1F04CE05F
:1049C00061E0CE0188599F4F0E94102AA9968FADB1
:1049D000A9978093E0041092E40405C0811103C0FC
:1049E00083E00E94FD298091E502882309F473C3C6
:1049F0008091E4028823D9F1A9968FADA99720E090
:104A000033C0BE0167597F4FCE0186599F4F0E9428
:104A10002204AB969FADAB97AA968FADAA97911142
:104A200011C08823A1F04FE161E0CE0189599F4F69
:104A30000E94102AA8968FADA8978093E104109247
:104A4000E40405C0811103C084E00E94FD29809127
:104A5000E502882309F43FC38091E402882339F0FA
:104A6000A8968FADA89722E042E060E062C10E9464
:104A7000771D62C1BE0167597F4FCE0186599F4F96
:104A80000E942204AB969FADAB97AA968FADAA97D2
:104A9000911111C08823A1F047E160E0CE018A594D
:104AA0009F4F0E94102AA7968FADA7978093E2048C
:104AB0001092E40405C0811103C085E00E94FD2925
:104AC0008091E502882309F406C30091E3048091F4
:104AD000E40210E0882371F0A7968FADA79720E03D
:104AE00044E060EEF80134E6839FE00DF11D1124EF
:104AF000CF0120C10E94771D22E042E060EEC80194
:104B000019C1BE0167597F4FCE0186599F4F0E9440
:104B10002204AB969FADAB97AA968FADAA97911141
:104B200012C0882309F4E7C04BE360E0CE018B5943
:104B30009F4F0E94102AA6968FADA6978093E304FC
:104B40001092E404D8C08111D6C00091DF0488E639
:104B50000E94581986E090E00E94071A1AE0802F00
:104B6000612F0E94252C692FE0E18E9F600D11249A
:104B700083E894E00E94440B0E94AB190091E0048A
:104B800088E60E94581985E090E00E94071A802F5D
:104B9000612F0E94252C692FF0E18F9F600D112459
:104BA00083E894E00E94440B0E94AB190091E10459
:104BB00088E60E94581984E090E00E94071A802F2E
:104BC000612F0E94252C692F20E1829F600D112406
:104BD00083E894E00E94440B0E94AB190091E20428
:104BE00088E60E94581982E090E00E94071A0E940D
:104BF000AB1981E090E00E94621983E894E00E9482
:104C0000FB0A86FF18C00D3060F084EF800F612F23
:104C10000E94252C192F30E1839F100D112410665E
:104C200014C0802F612F0E94252C192FE0E18E9F48
:104C3000100D11240AC0802F612F0E94252C192FDE
:104C4000F0E18F9F100D11241F7B88E60E945819F8
:104C500082E090E00E94071A612F83E894E00E94AE
:104C6000440B0E94AB191091E30488E60E94581986
:104C700081E090E00E94071A812F6AE00E94252CB3
:104C8000692F20E1829F600D112483E894E00E9447
:104C9000440B0E94AB1988E60E94581980E090E00E
:104CA0000E94071A60E083E894E00E94440B0E948F
:104CB000AB1981E00E948E1D182F88E60E945819BA
:104CC0008FE090E00E94071A612F6F7783E894E0ED
:104CD0000E94440B0E94AB198FED94E00E94E40DFA
:104CE0006093E0027093E1028093E2029093E3020A
:104CF00080E00E94FD298091E502882309F4EBC140
:104D00001091E2048091E402882369F0A6968FADA9
:104D1000A69790E020E044E060EE34E6139F800D1B
:104D2000911D112407C00E94771D20E042E060EE33
:104D3000812F90E00E94DD1B1092E502CCC1109201
:104D4000E702C9C18091F106823509F0C3C06091C4
:104D50002F0370E044E050E0461B570B655D7C4F2D
:104D600086EE93E00E94D40B882309F462C19091EF
:104D70002F03890F80932F03843009F0ACC1209159
:104D80002B0330912C0332272327322730932C0317
:104D900020932B0380912D0390912E039827892730
:104DA000982790932E0380932D034091F406509101
:104DB000F5064217530708F48AC04091F206509155
:104DC000F3062417350708F482C02091F8063091C5
:104DD000F9062817390708F47AC02091F6063091B1
:104DE000F7068217930708F472C080912A0388237C
:104DF00009F46DC061E088E00E94372085E080936F
:104E000029034091E0025091E1026091E202709129
:104E1000E302CE014E960E94460E47E16BE173E03D
:104E2000CE0101960E94DB1AEA8DFB8D309709F4C2
:104E30004AC08581882309F446C04091E002509120
:104E4000E1026091E2027091E30280912E038F9360
:104E500080912D038F9380912C038F9380912B034E
:104E60008F938BA11F928F938AA11F928F9389A1F9
:104E70001F928F9388A11F928F938F8D1F928F9374
:104E80008E8D90E08053984F9F938F937F936F9375
:104E90005F934F938FED91E09F938F9389EE92E014
:104EA0009F938F930E94D72D69EE72E0CE010196F9
:104EB0000E94220CCE0101960E940C1A0FB6F894A3
:104EC000DEBF0FBECDBF60E088E00E9437201092A9
:104ED0002F0301C1893409F0ACC060912F0370E049
:104EE00042E050E0461B570B655D7C4F86EE93E039
:104EF0000E94D40B882309F49CC090912F0399231E
:104F000079F09130C1F420912B0330912C0332279A
:104F10002327322730932C0320932B038F5F09C064
:104F200090912B03907F39F090912C0390932B0359
:104F3000815080932F0380912F03823009F0CBC0E2
:104F400010922F0380912A03882309F4C4C061E0E2
:104F500088E00E9437204091E0025091E102609188
:104F6000E2027091E302CE014E960E94460E47E1A6
:104F70006BE173E0CE0101960E94DB1AEA8DFB8D96
:104F8000309709F44EC08581882309F44AC0909176
:104F90002B0380912C034091E0025091E10260913B
:104FA000E2027091E3028F939F93482E46944694B9
:104FB0004694512CC201817099279F938F938BA1A6
:104FC0001F928F938AA11F928F9389A11F928F9313
:104FD00088A11F928F938F8D1F928F938E8D90E05B
:104FE0008053984F9F938F937F936F935F934F93CB
:104FF0008FED91E09F938F9389EE92E09F938F9333
:105000000E94D72D69EE72E0CE0101960E94220C1B
:10501000CE0101960E940C1A0FB6F894DEBF0FBEA7
:10502000CDBF60E088E002C060E087E00E943720EA
:1050300052C010922F038091DF028823F1F010926A
:10504000DF024091E0025091E1026091E202709132
:10505000E302CE0101960E94460E2C818D8190E0E4
:10506000F4E62F9F800D911D11242091DE02211165
:1050700042C044E060EE0E94DD1BBE0167597F4FD5
:10508000CE0186599F4F0E94220490912A039111CC
:1050900036C0AB968FADAB97882389F1AA968FADBA
:1050A000AA97882361F14091E0025091E10260915A
:1050B000E2027091E302CE0101960E94460E86E064
:1050C000FE013196AFEDB4E001900D928A95E1F7C3
:1050D00081E00E94FD290E94AD0AE9CB6CE672E0F6
:1050E00086EE93E00E94220C6CED71E086EE93E078
:1050F0000E94220CCCCB20E044E060E0BCCFAB9619
:105100008FADAB97882309F4CDC0AA962FADAA978F
:105110002111C8C081E0292E282620922A032220AE
:1051200009F482CF61E087E00E943720C12CD12CA6
:1051300098E8A92E91E0B92EDF92CF9228E032E0D4
:105140003F932F93EBE1F3E0FF93EF930E94D72D72
:105150001EAE1DAEBCAEABAE21961FAE219719A2FE
:1051600018A2BF8EAE8E1BA20F900F900F900F90C3
:105170000F900F90612C712CCE01CB967C010BEB24
:1051800014E0C301F301E55EFC4F20812F3209F4E6
:105190000196DC01A55EBC4FFE01E85AFF4F20E0FE
:1051A00030E04F014D914F3249F0442339F02F5FE9
:1051B0003F4F019641932C303105A1F7F401E20FE6
:1051C000F31F1082FC01E55EFC4F20812F3209F4B1
:1051D00001963C01FC01E55EFC4F30801C821B8285
:1051E000BA82A9821E8221E0A401B801CE010196F3
:1051F0000E946610882309F4D1C0CE0101960E9456
:1052000031143320E1F0F70185818111C7C021E01D
:10521000A401B801C7010E946610982EF4E00B3B70
:105220001F0709F4E4C0C8010E943114992009F451
:10523000BCC0902F812F8701E92EF82EA2CF24E049
:105240000B3B120719F0C8010E943114222009F407
:10525000ACC03FEFC31AD30A80E1C81687E2D80674
:1052600009F06ACF03E010E061E087E00E94372098
:1052700064EF71E080E090E00E94A22060E087E0AF
:105280000E94372064EF71E080E090E00E94A2204D
:105290000150110949F760ED77E080E090E00E944D
:1052A000A220E0CFAA969FADAA97992309F413CF25
:1052B000811111CF88E60E94581981E190E00E9487
:1052C000071A0E94AB1982E090E00E946219909147
:1052D000C1038091C203981731F183E894E00E94E2
:1052E000FB0A182F83E894E00E94FB0AAD961FAFDB
:1052F000AD97AC961FAEAC97AD966EAD7FADAD974A
:10530000682B86E0759567958A95E1F7072E000C66
:10531000880B990B0E94A52A20E030E040E85EE36C
:105320000E94E02A04C060E07CE38CE196EC0E94DD
:10533000EF2B9B0119821A821B821C8249E34C834A
:1053400077FF0BC022273327261B370B80E42A3038
:10535000310514F48A8301C08983C9016AE070E0D1
:105360000E94452CFC01E25CFE4F80818B832A3039
:1053700031053CF06F70E62FF0E0E25CFE4F80817B
:105380008A8340E064E0CE0101960E94231968EB15
:105390007BE080E090E00E94A2209DCE94E00B3B59
:1053A000190719F0C8010E94311447E16BE173E05D
:1053B000CE0101960E94DB1AEA8DFB8D309709F42D
:1053C0008ACE8581882309F486CE8091F1068934BE
:1053D00019F465E172E002C06DE372E0CE0101965E
:1053E0000E94220CCE0101960E940C1A74CE8823D2
:1053F000E1F28E01025E1F4F1CCF8093E702E1E8CD
:10540000F0E0108210928500109284008091E602F4
:105410008061808381E08093E5028093E4020895B7
:10542000FC019081961728F0941718F49F5F9083E1
:1054300001C0608310928100109285001092840058
:105440008091E60280618093810081E08093E50293
:105450008093E4020895CF93DF93E6EEF3E01382A6
:10546000128288EE93E0A0E0B0E084839583A68367
:10547000B78324E631E03183208325EC30E03587A3
:10548000248724EC30E03787268720EC30E0318B0E
:10549000208B21EC30E0338B228B22EC30E0358BFB
:1054A000248B26EC30E0378B268B118E128E138ED8
:1054B000148EE3E8F4E01382128284839583A6833A
:1054C000B78386E791E091838083EFE8F4E080E59D
:1054D00080831182E1E9F4E0158216821186138639
:1054E00082E090E0A0E0B0E084879587A687B78748
:1054F00013A215A614A688E891E093A782A717A681
:1055000040E050E0BA018FED94E00E94460ECAEDF3
:10551000D4E083E0888384E0898384E690E09C8300
:105520008B8360E083E00E94662060E089810E94B6
:10553000662060E088810E94372060E08981DF91E9
:10554000CF910C943720E89409C097FB3EF49095D6
:105550008095709561957F4F8F4F9F4F9923A9F04C
:10556000F92F96E9BB279395F695879577956795DB
:10557000B795F111F8CFFAF4BB0F11F460FF1BC01F
:105580006F5F7F4F8F4F9F4F16C0882311F096E9B2
:1055900011C0772321F09EE8872F762F05C0662360
:1055A00071F096E8862F70E060E02AF09A95660F19
:1055B000771F881FDAF7880F9695879597F90895D2
:1055C0000E94F32A0C94642B0E94562B38F00E9400
:1055D0005D2B20F0952311F00C944D2B0C94532B44
:1055E00011240C94982B0E94752B70F3959FC1F396
:1055F000950F50E0551F629FF001729FBB27F00D81
:10560000B11D639FAA27F00DB11DAA1F649F6627D5
:10561000B00DA11D661F829F2227B00DA11D621F24
:10562000739FB00DA11D621F839FA00D611D221FDE
:10563000749F3327A00D611D231F849F600D211DC2
:10564000822F762F6A2F11249F5750409AF0F1F045
:1056500088234AF0EE0FFF1FBB1F661F771F881FAE
:1056600091505040A9F79E3F510580F00C944D2B6E
:105670000C94982B5F3FE4F3983ED4F3869577958E
:105680006795B795F795E7959F5FC1F7FE2B880F54
:10569000911D9695879597F9089597F99F6780E8EA
:1056A00070E060E008959FEF80EC089500240A9474
:1056B0001616170618060906089500240A941216ED
:1056C0001306140605060895092E0394000C11F420
:1056D000882352F0BB0F40F4BF2B11F460FF04C0CD
:1056E0006F5F7F4F8F4F9F4F089557FD9058440F26
:1056F000551F59F05F3F71F04795880F97FB991F31
:1057000061F09F3F79F087950895121613061406ED
:10571000551FF2CF4695F1DF08C01616170618067A
:10572000991FF1CF86957105610508940895E89455
:10573000BB2766277727CB0197F908950E94E02BB6
:10574000A59F900DB49F900DA49F800D911D1124D5
:1057500008952F923F924F925F926F927F928F9215
:105760009F92AF92BF92CF92DF92EF92FF920F93F0
:105770001F93CF93DF93CDB7DEB7CA1BDB0B0FB6FA
:10578000F894DEBF0FBECDBF09942A8839884888B7
:105790005F846E847D848C849B84AA84B984C8844D
:1057A000DF80EE80FD800C811B81AA81B981CE0F44
:1057B000D11D0FB6F894DEBF0FBECDBFED01089529
:1057C000A29FB001B39FC001A39F700D811D112442
:1057D000911DB29F700D811D1124911D08950E948D
:1057E000F62B6894B1110C94982B08950E947D2B90
:1057F00088F09F5798F0B92F9927B751B0F0E1F092
:10580000660F771F881F991F1AF0BA95C9F714C041
:10581000B13091F00E94972BB1E008950C94972B32
:10582000672F782F8827B85F39F0B93FCCF386957A
:1058300077956795B395D9F73EF4909580957095D7
:1058400061957F4F8F4F9F4F0895991B79E004C05A
:10585000991F961708F0961B881F7A95C9F78095AF
:105860000895AA1BBB1B51E107C0AA1FBB1FA617A7
:10587000B70710F0A61BB70B881F991F5A95A9F7F9
:1058800080959095BC01CD01089597FB072E16F4E5
:10589000009407D077FD09D00E94312C07FC05D079
:1058A0003EF4909581959F4F0895709561957F4F37
:1058B0000895A1E21A2EAA1BBB1BFD010DC0AA1F51
:1058C000BB1FEE1FFF1FA217B307E407F50720F069
:1058D000A21BB30BE40BF50B661F771F881F991FE4
:1058E0001A9469F760957095809590959B01AC012D
:1058F000BD01CF010895EE0FFF1F0590F491E02D3B
:1059000009940F931F93CF93DF938230910510F486
:1059100082E090E0E091FD06F091FE0620E030E0AC
:10592000A0E0B0E0309719F14081518102811381EC
:1059300048175907C8F08417950769F4109731F094
:1059400012960C93129713961C9327C00093FD0692
:105950001093FE0622C02115310519F04217530796
:1059600018F49A01BD01EF01DF01F801DBCF211529
:105970003105F9F0281B390B2430310580F48A8178
:105980009B816115710521F0FB019383828304C023
:105990009093FE068093FD06FE01329644C0FE0100
:1059A000E20FF31F819391932250310939832883A9
:1059B0003AC02091FB063091FC06232B41F4209144
:1059C0000A0130910B013093FC062093FB062091D5
:1059D0000801309109012115310541F42DB73EB779
:1059E00040910C0150910D01241B350BE091FB06F9
:1059F000F091FC06E217F307A0F42E1B3F0B2817CB
:105A0000390778F0AC014E5F5F4F2417350748F037
:105A10004E0F5F1F5093FC064093FB0681939193BA
:105A200002C0E0E0F0E0CF01DF91CF911F910F9134
:105A30000895CF93DF93009709F481C0FC0132975A
:105A400013821282A091FD06B091FE06109781F498
:105A500020813181820F931F2091FB063091FC063B
:105A60002817390751F5F093FC06E093FB0667C051
:105A7000ED0120E030E0CE17DF0740F44A815B8182
:105A80009E0141155105F1F0EA01F5CFD383C283A0
:105A900040815181840F951FC817D90759F4888117
:105AA0009981840F951F0296918380838A819B81BF
:105AB000938382832115310529F4F093FE06E09348
:105AC000FD063DC0E901FB83EA8349915991C40F6A
:105AD000D51FEC17FD0761F480819181840F951F1C
