:100000000C9470000C94BD120C9496120C949800F1
:100010000C9498000C9498000C9498000C94980000
:100020000C9498000C9498000C9498000C949800F0
:100030000C9498000C9451130C9498000C94980014
:100040000C9420190C9498000C941F130C94F91222
:100050000C9498000C9498000C9498000C949800C0
:100060000C9452140C949800000000002400270007
:100070002A0000000000250028002B0000000000DE
:1000800023002600290004040404040404040202DA
:100090000202020203030303030301020408102007
:1000A0004080010204081020010204081020000012
:1000B0000008000201000003040700000000000027
:1000C00000007C3C3E5E2B3D3F2F5B5D3B2C2A229B
:1000D0005C001F1C1F1E1F1E1F1F1E1F1E1F5A22DB
:1000E00011241FBECFEFD8E0DEBFCDBF26E0A0E8D1
:1000F000B2E001C01D92A83AB207E1F712E0A0E019
:10010000B1E0E4E6F1E502C005900D92A038B10738
:10011000D9F710E0C0E7D0E004C02197FE010E94AB
:10012000AA24CF36D107C9F70E946A190C94B028C7
:100130000C940000DC015996ED91FC915A97309790
:10014000B9F083899489A589B689428553856485E8
:100150007585841B950BA60BB70B811520E89207BC
:10016000A105B10538F08FEF9FE7A0E0B0E008955A
:1001700080E090E00895CF93DF931F92CDB7DEB774
:100180006983DC01ED91FC910280F381E02D41E077
:1001900050E0BE016F5F7F4F09950F90DF91CF91C7
:1001A0000895089580E090E008950F931F93CF93F2
:1001B000DF93FC012581222309F446C0248127FF17
:1001C0003DC08C01668577858089918941E00E94D8
:1001D000BB158823C9F1F801C289F0E2CF9FE00185
:1001E0001124CC51DD4F209779F1F80185818230BF
:1001F00040F483899489A589B6898C8F9D8FAE8FB1
:10020000BF8FF8018789908DA18DB28D9B8F8A8FCA
:10021000BD8BAC8BE0918802F0918902309751F050
:10022000BE016A5E7F4FCE0148960995888D998DF3
:100230009B8B8A8BF80194819F779483DF91CF9178
:100240001F910F910C94801580E0DF91CF911F9149
:100250000F910895FC01818D928D009711F00C94FF
:10026000D500089581E080939302909192028927AE
:100270008093920280918C028F3F71F080918C026A
:10028000882331F080918C02815080938C020895F4
:1002900060E088E00C94EE0E0895CF93C1E0C09327
:1002A0008B0282E00E94C50E892BB1F080918D02F5
:1002B00090918E02A0918F02B09190020196A11DA3
:1002C000B11D80938D0290938E02A0938F02B09304
:1002D0009002C0938A0202C010928A02CF910895C0
:1002E0008F929F92AF92BF92CF92DF92EF92FF9246
:1002F0000F931F93CF93DF93EC018D81811102C087
:1003000080E078C00B891C892D893E890417150768
:1003100026073707A8F36A017B01823029F4CA86D1
:10032000DB86EC86FD860DC0C114D104E104F10426
:1003300051F41E821F82188619861A861B861C8617
:100340001D8681E057C08A849B84AC84BD84EB8D7C
:10035000FC8D258530E0275F3F4FB501A40141505A
:10036000510961097109022E04C076956795579568
:1003700047950A94D2F7D701C6010197A109B1099F
:1003800004C0B695A795979587952A95D2F78417B7
:100390009507A607B70720F089288A288B2871F4CB
:1003A0004F89588D698D7A8D4E835F8368877987F1
:1003B0004C015D018E010A5F1F4F16C0841B950B17
:1003C000A60BB70BF5CF4E815F81688579859801C3
:1003D0008B8D9C8D0E94A51691E0891A9108A10829
:1003E000B108882309F48CCF81149104A104B104CD
:1003F00051F795CFDF91CF911F910F91FF90EF9023
:10040000DF90CF90BF90AF909F908F9008958F9284
:100410009F92AF92BF92CF92DF92EF92FF920F9393
:100420001F93CF93DF9300D000D0CDB7DEB77C0110
:1004300080E2689FF0011124EC51FD4F938591718A
:1004400021F0842F827409F08FC0142FD7015296A7
:100450006C935297409104015091050160910601FF
:10046000709107011E964D935D936D937C93519708
:100470004489558960E070E0BA0155274427828D90
:10048000938DA0E0B0E0482B592B6A2B7B2BD70132
:1004900057964D935D936D937C935A97838588719E
:1004A00059F4848D958DA68DB78DF701838B948B30
:1004B000A58BB68B81E012C0803109F055C0970141
:1004C0002D5E3F4FD7015B968D919C915C970E946A
:1004D000840B882309F448C084E0F7018583812FC9
:1004E0008F70D70114968C931497F7011682178298
:1004F000108611861A961D921D921D921C921D97B0
:1005000016FF34C015968C91813071F511FF2CC007
:10051000F7014389548965897689452B462B472BFA
:1005200009F461C040E050E0BA01C7010E947001C7
:100530008823D1F0F7018788908CA18CB28CC38C72
:10054000D48C82E090E0A0E0B0E0F601808391835B
:10055000A283B3839E012F5F3F4FB501A401C60163
:100560000E94A516811104C080E03DC081E03BC01F
:1005700000E010E09801B501A401C6010E94041634
:10058000882391F389809A80AB80BC80D6015796EE
:100590008C91803129F088EF9FEFAFEFBFE004C06E
:1005A00088EF9FEFA0E0B0E088169906AA06BB0688
:1005B00088F2D70157961D921D921D921C925A9750
:1005C000F701138A148A158A168A848180688483C5
:1005D000C7010E94D500882339F240E050E0BA01FB
:1005E000C7010E9470010F900F900F900F90DF9144
:1005F000CF911F910F91FF90EF90DF90CF90BF9020
:10060000AF909F908F900895CF93DF93EC010E945D
:10061000D500882311F01D8281E0DF91CF910895EC
:100620003F924F925F926F927F928F929F92AF9282
:10063000BF92CF92DF92EF92FF920F931F93CF93CF
:10064000DF93CDB7DEB72C970FB6F894DEBF0FBEA1
:10065000CDBF5C01DC015B968D909C905C971696FB
:10066000CD90DD90ED90FC901997C114D104E10478
:10067000F10439F0BFEFCB1ADB0AEB0AFB0A312C8D
:1006800007C0F401C080D180E280F380332433942A
:10069000F40181859285A385B4859C01AD012F5F0E
:1006A0003F4F4F4F5F4F29873A874B875C87260123
:1006B00037011D821E821F821886F4018185928572
:1006C000A385B4852D813E814F8158852817390730
:1006D0004A075B0708F063C089859A85AB85BC85AE
:1006E0008C159D05AE05BF0550F482E0C82ED12CB7
:1006F000E12CF12C92E0492E512C612C712C9E01A1
:100700002F5F3F4FB701A601C4010E94A5168823A1
:1007100009F445C089819A81AB81BC81892B8A2BE0
:100720008B2B41F0260137019FEF491A590A690ABC
:10073000790A05C0C414D504E604F70491F02D81AC
:100740003E814F8158852F5F3F4F4F4F5F4F2D8325
:100750003E834F8358873FEFC31AD30AE30AF30A55
:10076000ACCF0FEF1FEF2FEF3FE0B301A201C401A9
:100770000E940416882399F0D50116964D915D913B
:100780006D917C911997411551056105710549F0ED
:1007900093018201C4010E940416811102C080E00D
:1007A0002AC0D50116964D925D926D927C92199752
:1007B000332051F0D301C2010196A11DB11DF401F6
:1007C00080839183A283B383F5018789908DA18D66
:1007D000B28D892B8A2B8B2B69F4D50157964D92BC
:1007E0005D926D927C925A9714968C9114978068C2
:1007F00014968C9381E02C960FB6F894DEBF0FBE52
:10080000CDBFDF91CF911F910F91FF90EF90DF90BF
:10081000CF90BF90AF909F908F907F906F905F90A0
:100820004F903F9008958FB7F8948091D5028FBF75
:10083000089561E0FC0184810E94EE0E8091D40253
:1008400081111092D40208958EBD00000DB407FEF0
:10085000FDCF8EB508958FEF0C9424040F931F9352
:10086000CF93DF93EB010E9414198B010E942B049C
:100870008F3F49F00E941419601B710B6C177D07A4
:10088000A8F380E001C081E0DF91CF911F910F912B
:100890000895CF93DF93EC018E81882389F08F81B7
:1008A00098859C012F5F3F4F38872F83823092407D
:1008B00018F40E942B04F3CFCE010E9419041E826B
:1008C000DF91CF9108958CBD9DBD0895CF93DF93A7
:1008D000EC018091D402811109C081E08093D4029F
:1008E0008091FB059091FC050E94630460E08C817F
:1008F000DF91CF910C94EE0E8F929F92AF92BF92A8
:10090000FF920F931F93CF93DF93EC01F62E4901D3
:100910005A010E944904CE010E9466046CE271E013
:10092000CE010E942E048F2D80640E94240408E1D1
:1009300010E0D501C401002E04C0B695A795979587
:1009400087950A94D2F70E94240408501109083FA1
:100950008FEF180771F7FF2029F088E0F81204C024
:1009600087E803C085E901C08FEF0E94240410E0EE
:100970000E942B048A8787FF04C01F3F11F01F5F6E
:10098000F7CFDF91CF911F910F91FF90BF90AF9064
:100990009F908F900895AF92BF92CF92DF92EF9287
:1009A000FF920F931F93CF93DF93EC016901C8016E
:1009B000820F931F8130924008F070C08E8188238F
:1009C00071F088819981AA81BB8184179507A60758
:1009D000B70729F48F819885C816D906B0F54883E2
:1009E00059836A837B838B85833039F089E0440F98
:1009F000551F661F771F8A95D1F79A01AB0161E1F8
:100A0000CE010E947C04882319F083E08D8346C0C8
:100A10000E9414195B010E942B048A878F3F49F4BE
:100A20000E9414196A197B096D327140A0F38FE09E
:100A300003C08E3F31F08DE08D83CE010E941904FA
:100A40002DC018861F8281E08E838F8198858C153A
:100A50009D0540F40E942B048F819885019698870C
:100A60008F83F3CF6701E00EF11EEC14FD0431F02B
:100A70000E942B04F60181936F01F7CF8F81988537
:100A8000080F191F18870F838985882319F001150E
:100A9000124048F0CE010E94490405C0CE010E94D8
:100AA000190480E001C081E0DF91CF911F910F9187
:100AB000FF90EF90DF90CF90BF90AF900895EF92AE
:100AC000FF920F931F93CF93DF93EC0179014115B0
:100AD00051056105710511F482E13CC08B858330BD
:100AE00039F089E0440F551F661F771F8A95D1F7AB
:100AF0009A01AB0168E1CE010E947C04882311F0C9
:100B000084E028C08EEF0E94240487018EEFF81A3B
:100B1000F80181918F010E942404E016F106C1F7CB
:100B20008FEF0E9424048FEF0E9424040E942B0464
:100B30008A878F71853031F081E18D83CE010E94EB
:100B4000190409C068E572E0CE010E942E048111EB
:100B500007C085E18D83CE010E94190480E014C096
:100B600020E030E0A9016DE0CE010E947C048111FB
:100B700009C00E942B04811105C0CE010E941904F6
:100B800081E002C084E1E6CFDF91CF911F910F9108
:100B9000FF90EF9008952F923F924F925F926F9245
:100BA0007F928F929F92AF92BF92CF92DF92EF92FD
:100BB000FF920F931F93CF93DF9300D000D0CDB758
:100BC000DEB78C016B011A01DC0115968C9115972B
:100BD0008130C9F414968C9181FF15C082FF1DC02D
:100BE000F801438954896589768982859385A4852E
:100BF000B58584179507A607B70779F0C8010E9445
:100C0000700181110AC081E090E0D80113969C9395
:100C10008E93129780E090E048C1410183C05B96BB
:100C20008D919C915C97FC0174802FEF270D2A0118
:100C30003B0139E076946794579447943A95D1F7FD
:100C4000722E74207A01F1E0FF22772009F476C039
:100C500080E092E08E199F0954018815990508F4E7
:100C60005C01D8015B962D913C915C9716968D9115
:100C70009D910D90BC91A02D0297A109B109F90198
:100C8000058404C0880F991FAA1FBB1F0A94D2F7BE
:100C90004685578560897189840F951FA61FB71FE8
:100CA0009C01AD01270D311D411D511D29013A0146
:100CB000A11432E0B30609F088C08091040190913C
:100CC0000501A0910601B0910701481659066A0670
:100CD0007B0659F48FEF9FEFDC0180930401909322
:100CE0000501A0930601B09307019601B301A2018B
:100CF0008091E4049091E5040E945F05882309F443
:100D000082CF9EEFD91A8A189B08F80182859385B5
:100D1000A485B5858A0D9B1DA11DB11D8287938772
:100D2000A487B587D8011A964D915D916D917C91FC
:100D30001D978114910409F072CF87C0E114F1046A
:100D400009F086CF16964D915D916D917C91199722
:100D5000411551056105710559F457968D919D9185
:100D60000D90BC91A02D0097A105B10541F521C0C2
:100D70009E012F5F3F4F0E94A516882309F44BCF99
:100D800089819A81AB81BC81F801238D348DF90171
:100D90002789203129F048EF5FEF6FEF7FE004C033
:100DA00048EF5FEF60E070E084179507A607B7078C
:100DB00030F0C8010E94100381114ACF24CFF801FE
:100DC00086839783A087B18743CFE114F10429F587
:100DD000D8011A964D915D916D917C911D97539616
:100DE0008D919D910D90BC91A02D481759076A07D0
:100DF0007B0798F00E948015882309F404CF409265
:100E000004015092050160920601709207018091E1
:100E1000530681608093530608C041E0C301B201CC
:100E20000E94BB15882309F4EECED601F701EC51E0
:100E3000FD4F9F012A0D3B1D2E173F0719F08D9185
:100E40008193FACFCA0CDB1C5ECFD8015396CD90AC
:100E5000DD90ED90FC90569714968C91C416D506B3
:100E6000E606F70640F4F801438B548B658B768BCE
:100E7000806884830DC02091880230918902232BE1
:100E800039F02114310421F08068D80114968C9334
:100E9000F801848183FD02C0C10107C0C8010E941E
:100EA000D500882309F4AFCEF7CF0F900F900F90A5
:100EB0000F90DF91CF911F910F91FF90EF90DF90F6
:100EC000CF90BF90AF909F908F907F906F905F90EA
:100ED0004F903F902F900895CF93DF93EC01898D31
:100EE0009A8D009739F481E090E09B838A8380E0BB
:100EF00090E00BC0FC01138212820E94CB05E98DA9
:100F0000FA8D22813381232B71F7DF91CF910895E0
:100F1000FC01DB0112968D919C9113979383828340
:100F20008CE591E09183808314968C91149784834F
:100F300015968C911597858316964D915D916D91BF
:100F40007C91199746835783608771871A964D91D4
:100F50005D916D917C911D9742875387648775875A
:100F60001E964D915D916D917C9151974687578763
:100F7000608B718B52968C915297828B53964D91C8
:100F80005D916D917C915697438B548B658B768BDD
:100F900057964D915D916D917C915A97478B508FEB
:100FA000618F728F5B968D919C915C97948F838FEC
:100FB00008954F925F926F927F92AF92BF92CF92BD
:100FC000DF92EF92FF920F931F93CF93DF931F92C5
:100FD000CDB7DEB7FC012581222309F4C1C084818D
:100FE00080FFBEC083899489A589B68942845384D1
:100FF0006484758484159505A605B70509F4B0C009
:101000006F015201F1E0BF22D6015B968D919C9158
:101010005C97B301A20139E076956795579547959E
:101020003A95D1F7223071F4FC01828D938DA48D15
:10103000B58D8A019B01080F191F2A1F3B1FC9018B
:10104000B8014AC0DC0114961C9111501423A1145C
:10105000B104F9F411111DC045284628472851F460
:10106000F6018789908DA18DB28D86839783A087A5
:10107000B1870FC0D60116964D915D916D917C910F
:10108000199796012A5F3F4F0E94A516882309F4FD
:1010900067C0F601238D348D86819781A085B18547
:1010A0000297A109B109AC01BD01F901058404C091
:1010B000440F551F661F771F0A94D2F786859785C0
:1010C000A089B189840F951FA61FB71FBC01CD0150
:1010D000610F711D811D911DD60114962C9126FF63
:1010E0000DC0409004015090050160900601709081
:1010F0000701461657066806790699F440E00E94F3
:10110000BB15882369F1F501EC51FD4FDE01119605
:101110009F012F5F3F4F2E173F0799F081918D93CD
:10112000FACFFE0131967F0101E010E09501AB019D
:10113000BC018091E4049091E5040E94CB048823D3
:1011400079F0F60182859385A485B5850196A11D68
:10115000B11D82879387A487B587898190E002C0FB
:101160008FEF9FEF0F90DF91CF911F910F91FF9025
:10117000EF90DF90CF90BF90AF907F906F905F9097
:101180004F900895FC01818D928D009711F00C9481
:10119000D9078FEF9FEF08950F931F93CF93DF939E
:1011A000FC01818D928D0097B9F0EF010E94D90763
:1011B0008C010F3F8FEF180791F0898D9A8DFC01FC
:1011C00042855385648575854150510961097109CE
:1011D0000E947001C80105C080E090E002C08FEF5E
:1011E0009FEFDF91CF911F910F9108959F92AF9242
:1011F000BF92CF92DF92EF92FF920F931F93CF9304
:10120000DF936C015B01FC011082FB01108200E0A6
:1012100010E0C0E0D0E082E0E82EFF24F39493E0F9
:10122000992E86E00E94C50E811125C021968091DD
:101230008102813049F028F0823071F08330A9F0CA
:101240001EC0F09281021BC0C436D105C1F4F60164
:101250008083E092810211C0C83EF3E0DF0779F499
:10126000F601F0829092810208C0C83CD10539F4A1
:10127000F601F08202C010928102C0E0D0E085E069
:101280000E94C50E811126C00F5F1F4F8091800202
:10129000813049F028F0823071F08330A9F01EC00F
:1012A000F09280021BC004361105C1F4F501808361
:1012B000E092800211C0083EF3E01F0779F4F501C7
:1012C000F0829092800208C0083C110539F4F501C3
:1012D000F08202C01092800200E010E0F6018081EE
:1012E000811102C0209739F4F501808181110AC073
:1012F0000115110539F061E070E080E090E00E9496
:1013000080108FCFDF91CF911F910F91FF90EF90C1
:10131000DF90CF90BF90AF909F900895CF93DF93D1
:1013200000D000D0CDB7DEB740910E0150910F0133
:10133000609110017091110149835A836B837C8302
:10134000813069F048F0823079F0833091F48FE495
:101350008C8388EE93E00FC08FE38C830AC086E015
:101360008C838AEF90E007C08BE58C8384EF91E05B
:1013700002C084E690E0BB24BA940FE06C01E12C3B
:10138000F12C18E061E087E00E94EE0EB0928C0232
:101390000093480640E064E0CE0101960E94C70F2A
:1013A000C701B6010E94801060E087E00E94EE0E47
:1013B0001093480640E064E0CE0101960E94C70FFA
:1013C000C701B6010E948010DDCF80939402E1E84E
:1013D000F0E01082109285001092840080919102BA
:1013E0008061808381E080939302809392020895CC
:1013F000FC019081961728F0941718F49F5F908352
:1014000001C06083109281001092850010928400C8
:101410008091910280618093810081E080939302AA
:10142000809392020895EF92FF920F931F93CF93B0
:10143000DF9300D000D000D0CDB7DEB77C018B01A8
:1014400040918D0250918E0260918F0270919002B6
:10145000CE0101960E94DA13898190E04496982F7C
:101460008827990F2A8140E2249F900111244B8103
:10147000242B822B932BF701918380838D81F0E2C3
:101480008F9F900111249C81892F90E0982F8827AD
:10149000990F990F990F822B932B2E8130E0359560
:1014A0002795822B932BF8019183808326960FB684
:1014B000F894DEBF0FBECDBFDF91CF911F910F918A
:1014C000FF90EF9008958091490690914A068230EE
:1014D000910538F0880F991F880F991F059701977C
:1014E000F1F70895833081F028F4813099F082304B
:1014F000A1F008958730A9F08830B9F08430D1F494
:10150000809180008F7D03C0809180008F778093D1
:101510008000089584B58F7702C084B58F7D84BD27
:1015200008958091B0008F7703C08091B0008F7DC7
:101530008093B0000895EF92FF920F931F93CF9383
:10154000DF93EC017B018A011B821A8288EE93E013
:10155000A0E0B0E08C839D83AE83BF8386E291E000
:10156000998388838DE190E00E94B0249A8F898FBF
:10157000009779F02DE1F701DC0101900D922A9599
:10158000E1F74CE050E0B801CE010C960E94EE2548
:10159000188EDF91CF911F910F91FF90EF900895DA
:1015A00030915105313208F04BC080912E058111E8
:1015B000FCCF9091520622E020932E0521E020934B
:1015C0002D052FEF20932C0510922B0530932A0523
:1015D000E1E3F5E0AAE0B5E020E0321721F0419127
:1015E0004D932F5FFACF1092090520910905990FAD
:1015F000922B9093090590910805913061F4109217
:101600000805909109059093BB009091BC0093FD53
:10161000F8CF95EC01C095EE9093BC0090912E050B
:101620009230E1F390912C059F3F79F080912C0549
:10163000803241F080912C05803331F084E005C088
:1016400081E003C082E001C083E010923005109277
:10165000510510922F050895682F8FEE95E00C9498
:10166000541291E090932F0580935206109230050A
:1016700010925105089590912E059111FCCF982F4D
:10168000813208F090E281E080932E0580932D0551
:101690002FEF20932C0510922B05290F20932A055C
:1016A0008093090580910905806D809309058091DB
:1016B0000805813061F41092080580910905809336
:1016C000BB008091BC0083FDF8CF85EC01C085EEA6
:1016D0008093BC0080912E058130E1F380912B0531
:1016E000891710F490912B05EAE0F5E0A8EEB4E03C
:1016F00080E0891721F021912D938F5FFACF10920E
:10170000E7048093E60408954F925F926F927F9270
:10171000AF92BF92CF92DF92EF92FF920F931F93FF
:10172000CF93DF9300D000D0CDB7DEB78C014983D3
:101730005A836B837C835901C12CD12C7601412CB7
:1017400082E0582E612C712C49815A816B817C81F9
:101750009E012F5F3F4FC8010E94A516882351F1BB
:10176000D301C201F801058404C0880F991FAA1F84
:10177000BB1F0A94D2F7C80ED91EEA1EFB1E498170
:101780005A816B817C818789803129F088EF9FEFB6
:10179000AFEFBFE004C088EF9FEFA0E0B0E04817D4
:1017A00059076A077B0780F2F501C082D182E28285
:1017B000F38281E00F900F900F900F90DF91CF9107
:1017C0001F910F91FF90EF90DF90CF90BF90AF905F
:1017D0007F906F905F904F900895CF93DF93FC01BF
:1017E0002581222311F080E049C0EC018091200680
:1017F0008031C1F482E08583178A108E118E128E9B
:101800008091210690912206A0E0B0E025E0880FAB
:10181000991FAA1FBB1F2A95D1F7838B948BA58B89
:10182000B68B19C08032F9F683E085834091230698
:10183000509124066091250670912606478B508FA3
:10184000618F728F9F012D5E3F4F89E096E00E946D
:10185000840B882341F289E096E09C8F8B8F81E096
:101860008C831E821F82188619861A861B861C8608
:101870001D861E861F86188A198A1A8ADF91CF91C3
:1018800008958F929F92AF92BF92CF92DF92EF9284
:10189000FF92CF93DF93C82F8DEF95E09093E504EF
:1018A0008093E404CC2369F1C53010F080E00CC1D2
:1018B00040E060E070E0CB010E94BB158823B1F3EB
:1018C00020E1C29FC00111248C529D4FFC01E254C3
:1018D000FE4F20812F7751F73C96408151816281E4
:1018E0007381443651056105710500F33497C0805A
:1018F000D180E280F380C114D104E104F10421F429
:10190000D5CFC12CD12C760140E0C701B6010E9491
:10191000BB15882359F28091EF029091F002811556
:10192000924021F6A091F402AA2309F4BFCF60915E
:10193000F2027091F3026115710509F4B7CF20919D
:10194000F102222309F4B2CFA0931B0620930D06C7
:1019500080E030E041E050E0C82FFA01082E02C0DC
:10196000EE0FFF1F0A94E2F72E173F0739F08F5F43
:10197000C83091F789E08093160698CF80931606B9
:101980002091FA023091FB022115310519F040E057
:1019900050E008C0209108033091090340910A03E8
:1019A00050910B0320930E0630930F0640931006C0
:1019B0005093110646015701860E971EA11CB11CBB
:1019C00080921C0690921D06A0921E06B0921F06E1
:1019D000E091F502F091F602F0932206E0932106E1
:1019E000B0E00E94CD23860E971EA81EB91E8092DD
:1019F000230690922406A0922506B092260685E042
:101A0000EE0FFF1F8A95E1F7E150FE4FEF2FFF2702
:101A1000E6958E0E9F1EA11CB11C80921706909217
:101A20001806A0921906B0921A062091F70230917A
:101A3000F8022115310521F0A90160E070E008C02D
:101A400040910403509105036091060370910703D0
:101A5000D701C60188199909AA09BB09840F951FE6
:101A6000A61FB71F04C0B695A79597958795CA95E9
:101A7000D2F78093120690931306A0931406B093A6
:101A80001506853F2FE09207A105B10510F48CE003
:101A900018C0853F9F4FA105B10510F480E111C02A
:101AA0008091100390911103A0911203B091130340
:101AB0008093230690932406A0932506B0932606D0
:101AC00080E28093200681E0DF91CF91FF90EF903C
:101AD000DF90CF90BF90AF909F908F900895CF935D
:101AE000DF93EC01898D9A8D009741F00E940403E9
:101AF000898D9A8D0E9448251A8E198EDF91CF917B
:101B000008952F923F924F925F926F927F928F92A1
:101B10009F92AF92BF92CF92DF92EF92FF920F937C
:101B20001F93CF93DF93CDB7DEB7C456D1090FB65D
:101B3000F894DEBF0FBECDBF5C0119A218A28CE5E0
:101B400091E09F8F8E8F1BA21C821B829A838983B8
:101B50001E824E018EE1880E911CC4010E94ED0B85
:101B60008E010F5F1F4F240186EDC82E82E0D82E14
:101B700018016FE270E0C6010E94E325009709F4A6
:101B800042C0F60120812F3221F4FFEFCF1ADF0A85
:101B9000F0CF8C198D3008F08CE0E82EF12CA701E5
:101BA000B601CE01885A9F4F0E94EE25E8E5F0E08D
:101BB000EC0FFD1FEE0DFF1D1082C8010E940403F3
:101BC000F8018581882351F01EAE1DAE8CE591E0B1
:101BD0009CAF8BAF21961FAE21971EC021E0AE01B6
:101BE000485A5F4FB201C8010E942817882361F349
:101BF000CE0CDF1CC2010E940403942D852D280108
:101C0000092F182FB6CFC601865D92403C01B20164
:101C1000CE01CB960E94880783010A521D4FF8011E
:101C20008081811109C0BE01655C7F4FC1010E94A6
:101C300088074DE752E039C019A218A28CE591E05F
:101C40009F8F8E8F1BA221968FAD2197811113C07C
:101C5000F5011382128288EE93E0A0E0B0E0848365
:101C60009583A683B78386E291E091838083128E69
:101C7000118E14861EC027E1A801BE01655C7F4F4E
:101C8000C4010E942817882319F3CE01CB960E9425
:101C9000040349A95AA96BA97CA9C4010E94700137
:101CA000B401C1010E948807A801B101C5010E94C9
:101CB0009B0AC501CC59DF4F0FB6F894DEBF0FBEAB
:101CC000CDBFDF91CF911F910F91FF90EF90DF90EB
:101CD000CF90BF90AF909F908F907F906F905F90CC
:101CE0004F903F902F9008958F929F92AF92BF9206
:101CF000EF92FF920F931F93CF93DF938B017C01A1
:101D0000C0E0D0E0C017D107A1F10E941419609380
:101D10005A0570935B0580935C0590935D0582E5A1
:101D200095E00E94F41097FF1FC00E941419809044
:101D30005A0590905B05A0905C05B0905D05DC01B4
:101D4000CB0188199909AA09BB0980905605909082
:101D50005705A0905805B090590588159905AA0512
:101D6000BB05E8F28E0105C0F70181937F01219642
:101D7000C9CFC801DF91CF911F910F91FF90EF90D4
:101D8000BF90AF909F908F900895CF93DF93282FAF
:101D900030E0F901E255FF4F8491F901E656FF4F1B
:101DA000D491F901EA57FF4FC491CC2391F08111EE
:101DB0000E94720AEC2FF0E0EE0FFF1FE458FF4F75
:101DC000A591B491EC91ED2381E090E021F480E0C5
:101DD00002C080E090E0DF91CF9108951F93CF93F0
:101DE000DF93282F30E0F901E255FF4F8491F9018C
:101DF000E656FF4FD491F901EA57FF4FC491CC2327
:101E0000C1F0162F81110E94720AEC2FF0E0EE0F44
:101E1000FF1FEE58FF4FA591B4919FB7F894111191
:101E200004C08C91D095D82302C0EC91DE2BDC93BA
:101E30009FBFDF91CF911F910895CF93DF9390E0E3
:101E4000FC01E656FF4F2491FC01EA57FF4F8491B5
:101E5000882361F190E0880F991FFC01E859FF4F3A
:101E6000C591D491FC01EE58FF4FA591B491611139
:101E700009C09FB7F8948881209582238883EC91CC
:101E80002E230BC0623061F49FB7F8948881322F03
:101E9000309583238883EC912E2B2C939FBF06C013
:101EA0008FB7F894E8812E2B28838FBFDF91CF91D5
:101EB0000895CF93DF93C6E4D6E061E089810E9464
:101EC0001D0F0E94630A60E088810E941D0F0E941E
:101ED000630A60E089810E941D0FDF91CF910C940D
:101EE000630ACF93DF93D82FC8E061E08091460664
:101EF0000E941D0F0E94630AD0FF02C060E001C073
:101F000061E0809147060E941D0F0E94630A60E015
:101F1000809146060E941D0F0E94630AD695C1500B
:101F200021F761E0809146060E941D0F60E08091DC
:101F300047060E941D0F0E94630A60E080914606DA
:101F40000E941D0F0E94630A809147060E94C50EE1
:101F5000C82F811105C061E0809147060E941D0FC6
:101F60000E94630A61E0809146060E941D0F0E9454
:101F7000630A81E0C11101C080E0DF91CF91089533
:101F800061E0809147060E941D0F0C94630AFF9246
:101F90000F931F93CF93DF93F82E092F162FC42F83
:101FA0000E94C00F80E40E94710F0E94590F0E948E
:101FB000C00F8C2F837080540E94710FCF2DD02FB3
:101FC000CE01810F911D8C01C017D10721F089919D
:101FD0000E94710FF9CF0E94590F0E94C00F80918B
:101FE00048068F7080580E94710FDF91CF911F912A
:101FF0000F91FF900C94590FCF93DF9300D000D036
:10200000CDB7DEB719821A821B821C8240E064E0E1
:10201000CE0101960E94C70F0F900F900F900F9066
:10202000DF91CF9108958F929F92AF92BF92CF92FE
:10203000DF92EF92FF920F931F93CF93DF9300D025
:1020400000D0CDB7DEB7D62EC42EBC0197FF03C09B
:10205000719561957109FB01392F331F3327331FA8
:102060008E010F5F1F4F5801AC0CB11C78018AE044
:10207000882E912C40E40A151B05D1F0CF01B40144
:102080000E946024DC01BB27AE5EBE4F9C91D5014F
:102090009E935D01811106C0309721F4332311F026
:1020A0004C9330E0CF01B4010E946024FB01E3CFE8
:1020B000D11016C0422F6C2DC8010E94C70F0F907F
:1020C0000F900F900F90DF91CF911F910F91FF9084
:1020D000EF90DF90CF90BF90AF909F908F9008953A
:1020E000AE014B5F5F4F8D2D8078F7019081892B7A
:1020F000D7018D937D01DD0C4A175B07A1F7DACF7D
:102100008F929F92AF92BF92CF92DF92EF92FF9207
:102110006B017C010E94EF184B015C01C114D104DA
:10212000E104F104F1F00E94EF18DC01CB01881901
:102130009909AA09BB09883E9340A105B10570F32E
:1021400021E0C21AD108E108F10888EE880E83E088
:10215000981EA11CB11CC114D104E104F10419F7AB
:10216000DDCFFF90EF90DF90CF90BF90AF909F902A
:102170008F9008950895CF92DF92EF92FF920F9380
:102180001F93CF93DF936C017A018B01C0E0D0E005
:10219000CE15DF0581F0D8016D918D01D601ED914D
:1021A000FC910190F081E02DC6010995892B11F079
:1021B0002196EECF7E01C701DF91CF911F910F9144
:1021C000FF90EF90DF90CF900895FC01538D448DE8
:1021D000252F30E0842F90E0821B930B541710F0D2
:1021E000CF96089501970895FC01918D828D9817DF
:1021F00061F0828DDF01A80FB11D5D968C91928DEB
:102200009F5F9F73928F90E008958FEF9FEF0895E7
:10221000FC01918D828D981731F0828DE80FF11DB0
:10222000858D90E008958FEF9FEF0895FC01918DCB
:10223000228D892F90E0805C9F4F821B91098F73C4
:102240009927089582E595E00E94161121E0892BD7
:1022500009F420E0822F0895FC01848DDF01A80F8E
:10226000B11DA35ABF4F2C91848D90E001968F73BE
:102270009927848FA689B7892C93A089B1898C91DD
:10228000837080648C93938D848D981306C002882C
:10229000F389E02D80818F7D80830895EF92FF92F6
:1022A0000F931F93CF93DF93EC0181E0888F9B8D79
:1022B0008C8D981305C0E889F989808185FD26C039
:1022C000F62E0B8D10E00F5F1F4F0F731127E02EBE
:1022D0008C8DE8120CC00FB607FCFACFE889F9899B
:1022E000808185FFF5CFCE010E942C11F1CF8B8D1F
:1022F000FE01E80FF11DE35AFF4FF0829FB7F894FB
:102300000B8FEA89FB89808180620AC09FB7F894AD
:10231000EE89FF896083E889F98980818370806410
:1023200080839FBF81E090E0DF91CF911F910F915B
:10233000FF90EF900895CF93DF93EC01888D882371
:10234000C9F0EA89FB89808185FD05C0A889B98922
:102350008C9186FD0FC00FB607FCF5CF808185FFFD
:10236000F2CFA889B9898C9185FFEDCFCE010E946B
:102370002C11E7CFDF91CF91089580E090E0892B79
:1023800029F00E94221181110C940000089585ED1E
:102390008093BC008091BC0084FDFCCF10922E0580
:1023A000089540917806262F30E0240F311D213208
:1023B0003105DCF420912E052430C9F4FC0180E0C5
:1023C00090E0861758F4309178062191DC01A85AE4
:1023D000B94FA30FB11D2C930196F3CF80917806CE
:1023E000680F6093780680E0089581E0089582E0A8
:1023F0000895089508950895E091E7048091E60412
:10240000E81730F4F0E0E851FB4F808190E0089548
:102410008FEF9FEF08959091E7048091E60498175D
:1024200050F4E92FF0E0E851FB4F208130E09F5F4E
:102430009093E70402C02FEF3FEFC9010895809108
:10244000E60490E02091E704821B91090895CF9261
:10245000DF92EF92FF920F931F93CF93DF937C0154
:10246000CB018A0120912F05222389F0EB016B011A
:10247000C40ED51ECC15DD0569F06991D701ED912B
:10248000FC910190F081E02DC7010995F3CF642FF5
:102490000E94D111C801DF91CF911F910F91FF9040
:1024A000EF90DF90CF900895CF93DF931F92CDB739
:1024B000DEB7698320912F052223D1F020915105A9
:1024C000203240F021E030E0FC013383228380E0C1
:1024D00090E015C080913005E82FF0E0EF5CFA4FF6
:1024E000998190838F5F809330058093510505C05B
:1024F00061E0CE0101960E94D11181E090E00F9041
:10250000DF91CF9108950E94D125CF93DF931F9241
:10251000CDB7DEB7698341E050E0BE016F5F7F4F0A
:102520000E94CB050F90DF91CF9108951F920F92DB
:102530000FB60F9211242F933F934F935F936F9396
:102540007F938F939F93AF93BF93EF93FF93E0910C
:102550000201F09103010995FF91EF91BF91AF91B5
:102560009F918F917F916F915F914F913F912F91AB
:102570000F900FBE0F901F9018951F920F920FB6DD
:102580000F9211242F933F934F935F936F937F93F9
:102590008F939F93AF93BF93EF93FF93E0910001CD
:1025A000F09101010995FF91EF91BF91AF919F913A
:1025B0008F917F916F915F914F913F912F910F90EC
:1025C0000FBE0F901F9018956115710579F0FB01F2
:1025D00001900020E9F73197AF01461B570BDC0152
:1025E000ED91FC910280F381E02D099480E090E070
:1025F00008951F920F920FB60F9211242F933F93BD
:102600004F935F936F937F938F939F93AF93BF93FA
:10261000EF93FF9382E595E00E942C11FF91EF91DB
:10262000BF91AF919F918F917F916F915F914F91EA
:102630003F912F910F900FBE0F901F9018951F92F2
:102640000F920FB60F9211242F938F939F93EF93B6
:10265000FF93E0916205F09163058081E091680548
:10266000F091690582FD12C0908180916B058F5FAA
:102670008F7320916C05821751F0E0916B05F0E0AB
:10268000EE5AFA4F958F80936B0501C08081FF91C0
:10269000EF919F918F912F910F900FBE0F901F90F0
:1026A00018951F920F920FB60F9211242F933F93FC
:1026B0004F935F936F937F938F939F93AF93BF934A
:1026C000EF93FF93E0918202F09183020995FF91CD
:1026D000EF91BF91AF919F918F917F916F915F919A
:1026E0004F913F912F910F900FBE0F901F90189513
:1026F000EF92FF920F931F93CF93DF93EC016981C9
:102700003881432F50E08A8190E0E2EDF0E021E053
:10271000261730F47491870F911D2F5F3196F8CFF3
:10272000633018F0337009F401966DE671E0469F4E
:102730009001479F300D569F300D112421503109D3
:102740004D5F5F4F5695479556954795240F351F1A
:10275000280F391FA8E1B0E00E940F242B817B01D4
:102760008C01E20EF11C011D111DA8019701ACE3C3
:10277000B0E00E94CD232C817B018C01E20EF11C84
:10278000011D111DA80197010E94CD232D81DC019F
:10279000CB01820F911DA11DB11DBC01CD0160585F
:1027A0007C4B8249974CDF91CF911F910F91FF9005
:1027B000EF9008958F929F92AF92BF92CF92DF9247
:1027C000EF92FF92CF93DF93EC016A017B0180E8E7
:1027D000C81A83E4D80A8DE6E80A88E3F80A8CE38D
:1027E000882E912CA12CB12CC701B601A501940112
:1027F0000E9488246D83CA01B901A50194010E9439
:1028000088246C83C701B60120E13EE040E050E03F
:102810000E948824CA01B90128E130E040E050E07C
:102820000E9488246B83C701B60120E831E541E0AE
:1028300050E00E94882418824881542F537081E010
:1028400009F080E090E0BC0163597E4F26173707FE
:1028500038F0281B390B2D5631404F5F4883ECCFA1
:1028600081E089838981E82FF0E0EF52FF4FE49106
:10287000511103C0823009F4EF5FF0E02E173F07DB
:1028800020F02E1B3F0B8F5FECCF2F5F2A83DF9151
:10289000CF91FF90EF90DF90CF90BF90AF909F903F
:1028A0008F9008951F920F920FB60F9211242F93BD
:1028B0003F934F935F936F937F938F939F93AF93C8
:1028C000BF93EF93FF938091B900887F803609F41E
:1028D0009CC068F5883209F45BC090F4803109F43B
:1028E00054C038F4882309F4F6C0883009F44DC088
:1028F000F6C0883109F44CC0803209F45DC0EFC0E5
:10290000803409F468C048F4803309F455C0883332
:1029100009F0E5C080932C05D8C0803509F44FC07C
:10292000883509F45DC0883409F0D9C0D6C088392B
:1029300009F4C7C0A8F4883709F467C038F48836AA
:1029400009F463C0803709F460C0C9C0883809F44D
:10295000B8C0803909F45FC0803809F0C0C05BC0DE
:10296000803B09F486C038F4803A09F466C0883A9E
:1029700009F47FC0B4C0803C09F4A7C0883C09F4C6
:10298000A4C0883B09F48AC0AAC08091090510C080
:1029900090912B0580912A05981770F5E0912B05F1
:1029A00081E08E0F80932B05F0E0E65FFA4F808187
:1029B0008093BB0085EC86C080932C058EC0E0918F
:1029C0002B0581E08E0F80932B058091BB00F0E0FA
:1029D000E65FFA4F808390912B0580912A056EC0A7
:1029E000E0912B0581E08E0F80932B058091BB0039
:1029F000F0E0E65FFA4F808380912D0581116DC074
:102A000081E08093080584EA61C083E080932E050D
:102A100010929A06CFCF80919A06803208F051C06A
:102A2000E0919A0681E08E0F80939A068091BB0018
:102A3000F0E0E658F94F8083BDCF85EC8093BC0071
:102A400010922E0580919A06803230F4E0919A0619
:102A5000F0E0E658F94F108260919A0670E0E0913C
:102A60008402F09185028AE796E0099510929A0611
:102A700036C084E080932E05109279061092780675
:102A8000E0918602F0918702099580917806811184
:102A900005C081E08093780610925806E09179068F
:102AA00081E08E0F80937906F0E0E85AF94F80813B
:102AB0008093BB009091790680917806981708F46E
:102AC00079CF85E88093BC000AC085EC8093BC0078
:102AD00010922E0504C010922C050E94C711FF9180
:102AE000EF91BF91AF919F918F917F916F915F9186
:102AF0004F913F912F910F900FBE0F901F901895FF
:102B0000809153068823A9F1409104015091050159
:102B1000609106017091070124EE32E08091E40497
:102B20009091E5040E945F05811102C080E0089544
:102B30004091540650915506609156067091570683
:102B4000411551056105710591F024EE32E0809147
:102B5000E4049091E5040E945F05882339F3109204
:102B6000540610925506109256061092570610926F
:102B7000530681E008958F929F92AF92BF92EF9299
:102B8000FF920F931F93CF934B015C01C42F809151
:102B9000040190910501A0910601B09107018815EB
:102BA0009905AA05BB0501F10E948015811102C09B
:102BB00080E020C084EEE82E82E0F82E00E012E0F3
:102BC00020E030E0B501A4018091E4049091E50497
:102BD0000E94CB04882361F3809204019092050146
:102BE000A0920601B092070180915306C82BC093B2
:102BF000530681E0CF911F910F91FF90EF90BF900E
:102C0000AF909F908F9008954F925F926F927F92B6
:102C10008F929F92AF92BF92CF92DF92EF92FF92EC
:102C20000F931F93CF93DF93EC0142305105610561
:102C3000710510F480E078C089859A85AB85BC85E4
:102C40000196A11DB11D84179507A607B70790F33C
:102C5000CB88DC88ED88FE888F89803129F4BB27FA
:102C6000A72F962F852F09C0DB01CA01E7E0B69593
:102C7000A79597958795EA95D1F7480159012A01BB
:102C80003B01C80ED91EEA1EFB1E809104019091E3
:102C90000501A0910601B0910701C816D906EA0600
:102CA000FB0681F48F898031A9F4B301A201552775
:102CB00066277727440F551FFA01EC51FD4F91828B
:102CC000808219C040E0C701B6010E94BB15811186
:102CD000E9CFB0CFB301A2014F77552766277727F9
:102CE000440F551F440F551FFA01EC51FD4F8082D0
:102CF0009182A282B38280915306816080935306B1
:102D00008A89823080F08D819E81AF81B885C80E1E
:102D1000D91EEA1EFB1EC0925406D0925506E092C0
:102D20005606F092570681E0DF91CF911F910F91E7
:102D3000FF90EF90DF90CF90BF90AF909F908F90DB
:102D40007F906F905F904F9008958F929F92AF9277
:102D5000BF92CF92DF92EF92FF920F931F93CF9388
:102D6000DF93FC0181859285A385B4850196A11D21
:102D7000B11D84179507A607B70710F480E05BC064
:102D800083889488A588B6888789803129F4BB27F1
:102D9000A72F962F852F09C0DB01CA01C7E0B69582
:102DA000A79597958795CA95D1F7E9016A017B01A7
:102DB0008F01BC01CD01680D791D8A1D9B1D80907E
:102DC000040190900501A0900601B09007016815DC
:102DD00079058A059B0591F4F80187898031A1F472
:102DE000DD24EE24FF24C601880F991FFC01EC515D
:102DF000FD4F80819181A0E0B0E018C040E00E94CA
:102E0000BB158111E9CFBACFE894C7F8DD24EE24D1
:102E1000FF24C601880F991F880F991FFC01EC51F0
:102E2000FD4F80819181A281B381BF708883998396
:102E3000AA83BB8381E0DF91CF911F910F91FF9017
:102E4000EF90DF90CF90BF90AF909F908F900895BC
:102E50002F923F924F925F926F927F928F929F92AA
:102E6000AF92BF92CF92DF92EF92FF920F931F9398
:102E7000CF93DF93CDB7DEB72B970FB6F894DEBFB5
:102E80000FBECDBF7C01FE013196CE010C966F01C5
:102E900030E23193E817F907E1F7DA0130E087E033
:102EA0009D91992331F19E3231F48A3009F479C130
:102EB00038E08AE0F5CFE2ECF0E04491442321F0E1
:102EC00031969413FACF6DC1831708F46AC14FEDA0
:102ED000490F4E3508F065C141E0430FF601E30F9D
:102EE000F11D3FE9390F3A3108F490529083342FA5
:102EF000D7CF8981803209F454C1322E8B01DB0196
:102F00005B968D919C915C97F701948F838F1696B9
:102F10001D921D921D921C921997FB011286138619
:102F200014861586B12CF80182859385A485B58514
:102F3000438954896589768984179507A607B70759
:102F400008F05BC025E0B695A795979587952A95DB
:102F5000D1F7F82FFF70AF2ED80115968C918230E3
:102F600008F41FC1C8010E94D90797FD1AC1F801D2
:102F700082859385A485B5854F96A11DB11D828755
:102F80009387A487B587F0E2AF9EB00111246C51FE
:102F90007D4F6115710509F404C1DB018C91882313
:102FA00019F0853EC1F4FFC0B1100EC0F701A28A2E
:102FB0008091040190910501A0910601B091070153
:102FC00086879787A08BB18BDB018C91882399F042
:102FD000BB24B394A8CF4BE050E0C6010E94D62595
:102FE000892B09F0A0CF832D8073803309F4D9C0D9
:102FF000432D6A2DD2C0BB24B394832D82718231BC
:1030000009F0CFC0BB20C9F0F701668577858089BC
:10301000918941E00E94BB15882309F4C2C0D70101
:1030200052960C91B0E20B9F800111240C511D4F60
:103030000115110509F078C0B4C0F801858182300E
:1030400009F4AFC0C8010E941003882309F4A9C085
:10305000D8015B96ED91FC915C9716968D909D90B2
:10306000AD90BC901997B2E08B1A9108A108B108F5
:10307000058404C0880C991CAA1CBB1C0A94D2F7B6
:1030800086859785A089B189880E991EAA1EBB1EC8
:103090002480E1E08E1A9108A108B108222009F1EC
:1030A00024013501420C511C611C711C0E948015C9
:1030B000882309F476C0E4EEF2E0119224E0E43EC5
:1030C000F207D9F74092040150920501609206017F
:1030D00070920701809153068160809353062A9471
:1030E000DDCFD8015B96ED91FC915C9780E092E09A
:1030F000A0E0B0E0058404C0880F991FAA1FBB1F81
:103100000A94D2F7F8014389548965897689840F36
:10311000951FA61FB71F838B948BA58BB68BD701EA
:1031200052961C9204EE12E080E2F80111928A9508
:10313000E9F78BE0F601D80101900D928A95E1F74D
:10314000E0918802F0918902309739F0B801625F0E
:103150007F4FC801409609950DC081E298E2D801E1
:1031600051969C938E93509780E098E01F969C9385
:103170008E931E97F80180899189938B828B918F12
:10318000808F86859785978B868B0E9480158823F4
:1031900041F0432DD70152966C91C7010E9407025E
:1031A00005C080E003C0B11013CF00CF2B960FB63F
:1031B000F894DEBF0FBECDBFDF91CF911F910F916D
:1031C000FF90EF90DF90CF90BF90AF909F908F9047
:1031D0007F906F905F904F903F902F9008953FB7F2
:1031E000F8948091A0069091A106A091A206B091BA
:1031F000A30626B5A89B05C02F3F19F00196A11D77
:10320000B11D3FBFBA2FA92F982F8827820F911D7C
:10321000A11DB11DBC01CD0142E0660F771F881FC3
:10322000991F4A95D1F708952FB7F89460919C069D
:1032300070919D0680919E0690919F062FBF0895E4
:103240001F920F920FB60F9211242F933F938F93DB
:103250009F93AF93BF9380919C0690919D06A09100
:103260009E06B0919F0630919B0623E0230F2D37D9
:1032700020F40196A11DB11D05C026E8230F02967A
:10328000A11DB11D20939B0680939C0690939D06E3
:10329000A0939E06B0939F068091A0069091A106F0
:1032A000A091A206B091A3060196A11DB11D809325
:1032B000A0069093A106A093A206B093A306BF9187
:1032C000AF919F918F913F912F910F900FBE0F90D3
:1032D0001F901895CF93DF93CDB7DEB7CA56D109AB
:1032E0000FB6F894DEBF0FBECDBF789484B5826070
:1032F00084BD84B5816084BD85B5826085BD85B59A
:10330000816085BD80916E00816080936E00109217
:103310008100809181008260809381008091810092
:103320008160809381008091800081608093800023
:103330008091B10084608093B1008091B000816081
:103340008093B00080917A00846080937A008091AD
:103350007A00826080937A0080917A008160809305
:103360007A0080917A00806880937A001092C10080
:103370001092CA021092C9021092CC021092CB0293
:103380001092CE0261E087E00E941D0F60E087E0AE
:103390000E94EE0E61E088E00E941D0F60E088E070
:1033A0000E94EE0E10928C0262E086E00E941D0FD9
:1033B00062E085E00E941D0F10928102109280024F
:1033C00082E58093CF0285E00E94C50E892B19F417
:1033D00089E48093CF028091CF02893419F480ED83
:1033E00097E004C0823551F488E393E09093D302D0
:1033F0008093D2021092D1021092D002E091620525
:10340000F091630582E08083E0915E05F0915F05B5
:103410001082E0916005F091610580E18083109257
:103420006A05E0916605F091670586E08083E0918A
:103430006405F0916505808180618083E091640579
:10344000F0916505808188608083E0916405F0914A
:103450006505808180688083E0916405F091650551
:1034600080818F7D808384E690E0A0E0B0E080934F
:10347000560590935705A0935805B093590580E7DA
:1034800091E09F938F9385E791E09F938F9386E9D7
:1034900092E09F938F930E94FD2566E972E082E59A
:1034A00095E00E94E4128FE0809348060E94FC0F92
:1034B0000F900F900F900F900F900F908091CF0270
:1034C000823511F480E501C080E18E8F86E08F8F18
:1034D0008DE688A386E689A340E064E0CE014E969F
:1034E0000E94C70F60ED77E080E090E00E948010BE
:1034F0000E94FC0F81E080938B0280938A0283E11B
:103500009AE0909389028093880280912C06882308
:1035100021F087E296E00E940403109208061092C0
:10352000060610920306109202068AE080930106B6
:103530000E9414198B0161E0809101060E941D0F09
:1035400061E0809101060E94EE0EFFB6F894809132
:103550009502811127C0E0E9F0E08491E4EAF0E00F
:103560009491E82FF0E0EE0FFF1FE859FF4FA5916F
:10357000B491EC91E92321F461E08AE00E94EE0E1F
:1035800061E08AE00E941D0F8CB580618CBD8CB516
:1035900080648CBD61E08DE00E941D0F61E08BE0D6
:1035A0000E941D0F809195028F5F80939502FFBE50
:1035B00082E58093FB051092FC058091FB059091BC
:1035C000FC050E946304BAE0FB2E8FEF0E942404E6
:1035D000FA94F110FACF8DEF95E00E94660420E096
:1035E00030E0A90160E08DEF95E00E947C04F82EA8
:1035F0008093070621E0821749F00E941419601B8E
:10360000710B613D774058F381E056C02AEA31E002
:1036100040E050E068E08DEF95E00E947C0482FF7E
:1036200003C0F092080610C0A4E0FA2E0E942B04FA
:1036300080930706FA94F110F9CF8A3A11F082E0EC
:103640003BC082E08093080680910806823031F406
:10365000C12CD12CE12CF0E4FF2E03C0C12CD12CC5
:10366000760120E030E0A90167E38DEF95E00E944C
:103670007C04A701960169E28DEF95E00E947C042D
:1036800080930706882349F00E941419601B710B70
:10369000613D774030F388E00FC0809108068230AA
:1036A00001F520E030E0A9016AE38DEF95E00E948A
:1036B0007C04882341F086E0809302068DEF95E03C
:1036C0000E94190428C00E942B04807C803C19F4BD
:1036D00083E0809308060E942B040E942B040E9422
:1036E0002B048DEF95E00E94190480E58093FB0583
:1036F0001092FC0581E00E94410C882339F087E29A
:1037000096E00E94ED0B882331F007C080E00E9414
:10371000410C8111F4CF80E0F2C41092940281E058
:10372000809393028093920290E190938100109293
:10373000800093E09093910222E13AE73093870072
:103740002093860093E19093810022E331E030934F
:1037500083022093820280936F0010928100109266
:103760008500109284009091910290619093810065
:103770004FE458E169E47CE540938D0250938E025A
:1037800060938F02709390021092E7041092E60407
:10379000109230051092510510922E0580932D0540
:1037A0001092080561E082E10E94EE0E61E083E183
:1037B0000E94EE0E8091B9008E7F8093B9008091B7
:1037C000B9008D7F8093B90088E48093B80085E4C8
:1037D0008093BC0089EF91E19093870280938602E9
:1037E0008AEF91E1909385028093840288E60E949B
:1037F000310B80E090E00E942C0B0E94D00A87E001
:1038000090E00E943B0B8FEE95E00E940B128F77A9
:10381000982F92959F701AEF082F919F000D1124F9
:103820008FEE95E00E940B129C01332744E0359502
:1038300027954A95E1F7F82E129FF00C11248FEE90
:1038400095E00E940B129C01332754E03595279593
:103850005A95E1F7E82E129FE00C11248FEE95E0C7
:103860000E940B128FEE95E00E940B129C013327F1
:1038700064E0359527956A95E1F7D82E129FD00C14
:1038800011248FEE95E00E940B129C01332774E007
:10389000359527957A95E1F7C82E129FC00C112413
:1038A0008FEE95E00E940B129C013327E4E03595E2
:1038B0002795EA95E1F7129F800D11248983CA822A
:1038C000DB82EC82FD820E83CE0101960E9478138A
:1038D00060938D0270938E0280938F02909390027A
:1038E00088E60E94310B8EE090E00E942C0B0E9433
:1038F000D00A81E090E00E943B0B8FEE95E00E94A1
:103900000B12182F88E60E94310B8EE090E00E9487
:103910002C0B612F63728FEE95E00E9454120E946F
:10392000D00A62E080E00E941D0F8DE491E0909348
:10393000010180930001809169008C7F81608093F8
:103940006900E89A6FE871E082E595E00E94E41270
:1039500064EA71E082E595E00E94E41200914B0672
:1039600030914C06A9963FAFA99780914D06A89635
:103970008FAFA897F0904E06A796FFAEA7979091AD
:103980004F06A6969FAFA69720919402222309F492
:1039900039C2233009F497C030F4213059F0223075
:1039A00009F455C02CC2243009F4C4C0253009F4F0
:1039B00003C125C210E00053184F80919302882361
:1039C00079F080919202882339F020E044E060E0B1
:1039D000C8010E94131002C00E94FC0F10929302B3
:1039E000BE0167597F4FCE0186599F4F0E94F6084E
:1039F000AB969FADAB97AA968FADAA97911123C0B6
:103A0000882309F442C4C801805D9740833691053C
:103A100018F40F5F1F4F02C000ED17E010928100F5
:103A200010928500109284008091910280618093B1
:103A3000810081E08093930280939202005D1740A1
:103A400000934B0637C0811120C482E039C08091B9
:103A50009302882381F080919202882341F020E034
:103A600042E060E0832F90E00E94131002C00E94A9
:103A7000FC0F10929302BE0167597F4FCE01865909
:103A80009F4F0E94F608AB969FADAB97AA968FAD5D
:103A9000AA97911112C0882309F4F7C34CE061E0A2
:103AA000CE0188599F4F0E94F809A9968FADA9971A
:103AB00080934C0610925006E8C38111E6C383E060
:103AC0000E94E509E2C390919302992379F09091C5
:103AD0009202992339F022E042E060E090E00E94F7
:103AE000131002C00E94FC0F10929302BE0167598E
:103AF0007F4FCE0186599F4F0E94F608AB969FAD2F
:103B0000AB97AA968FADAA97911110C0882309F49C
:103B1000BCC34FE161E0CE0189599F4F0E94F80973
:103B2000A8968FADA89780934D06C4CF8111ADC3E1
:103B300084E0C6CF809193028823D1F080919202D5
:103B4000092F10E0882351F020E044E060EEC80126
:103B5000E4E6FE9E800D911D112406C00E94FC0F1C
:103B600022E042E060EEC8010E941310109293021E
:103B7000BE0167597F4FCE0186599F4F0E94F608BC
:103B8000AB969FADAB97AA968FADAA97911110C037
:103B9000882309F47AC347E160E0CE018A599F4F38
:103BA0000E94F809A7968FADA79780934E0682CF03
:103BB00081116BC385E084CF809193028823D1F07B
:103BC00080919202882359F0892F90E020E044E010
:103BD00060EEF4E6FF9E800D911D112407C00E9447
:103BE000FC0F20E042E060EE8F2D90E00E94131069
:103BF00010929302BE0167597F4FCE0186599F4FA5
:103C00000E94F608AB969FADAB97AA968FADAA9788
:103C1000911110C0882309F438C34BE360E0CE0152
:103C20008B599F4F0E94F809A6968FADA697809357
:103C30004F0640CF811129C300914B0688E60E94B0
:103C4000310B86E090E00E942C0B1AE0802F612F50
:103C50000E945424692F20E1829F600D11248FEE71
:103C600095E00E9454120E94D00A00914C0688E60A
:103C70000E94310B85E090E00E942C0B802F612F79
:103C80000E945424692F30E1839F600D11248FEE30
:103C900095E00E9454120E94D00A00914D0688E6D9
:103CA0000E94310B84E090E00E942C0B802F612F4A
:103CB0000E945424692FE0E18E9F600D11248FEE45
:103CC00095E00E9454120E94D00A00914E0688E6A8
:103CD0000E94310B82E090E00E942C0B0E94D00ADF
:103CE00081E090E00E943B0B8FEE95E00E940B126A
:103CF00086FF18C00D3060F084EF800F612F0E94A6
:103D00005424192FF0E18F9F100D1124106614C058
:103D1000802F612F0E945424192F20E1829F100DC3
:103D200011240AC0802F612F0E945424192F30E1E2
:103D3000839F100D11241F7B88E60E94310B82E0C7
:103D400090E00E942C0B612F8FEE95E00E945412A0
:103D50000E94D00A10914F0688E60E94310B81E044
:103D600090E00E942C0B812F6AE00E945424692F5E
:103D7000E0E18E9F600D11248FEE95E00E945412B9
:103D80000E94D00A88E60E94310B80E090E00E94F9
:103D90002C0B60E08FEE95E00E9454120E94D00A36
:103DA00088E60E94310B8FE090E00E942C0B0E946D
:103DB000D00A81E090E00E943B0B8FEE95E00E94DC
:103DC0000B12182F88E60E94310B8FE090E00E94C2
:103DD0002C0B612F6F778FEE95E00E9454120E949A
:103DE000D00A8BE496E00E94781360938D02709362
:103DF0008E0280938F029093900280E061CE1092A9
:103E0000940243C28091CF02823509F0BCC0009178
:103E1000CE02802F90E065E070E0681B790B87533D
:103E20009D4F0E94740E182F882309F46EC161E023
:103E300088E00E94EE0E82E080938C02100F1093B7
:103E4000CE02153009F021C22091C9023091CA0278
:103E50003227232732273093CA022093C902809148
:103E6000CB029091CC029827892798279093CC0277
:103E70008093CB026091D2027091D302261737074C
:103E800008F07EC04091D0025091D10242175307F2
:103E900008F076C08617970708F072C048175907D0
:103EA00008F06EC08091C802882309F469C040916F
:103EB0008D0250918E0260918F0270919002CE011E
:103EC0004E960E94DA13CE0101960E94810DEA8D72
:103ED000FB8D309709F454C08581882309F450C0C4
:103EE0008091CD0240918D0250918E0260918F029F
:103EF0007091900281FB992790F91F929F93817096
:103F00001F928F938091CC028F938091CB028F93DD
:103F10008091CA028F938091C9028F938BA11F92C7
:103F20008F938AA11F928F9389A11F928F9388A14B
:103F30001F928F938F8D1F928F938E8D90E0805361
:103F4000984F9F938F937F936F935F934F9387EADD
:103F500091E09F938F9386E992E09F938F930E94C5
:103F6000FD2566E972E0CE0101960E94E412CE01C1
:103F700001960E946F0D0FB6F894DEBF0FBECDBF45
:103F80001092CE0282C1893409F0BFC00091CE02E6
:103F9000802F90E062E070E0681B790B87539D4FA3
:103FA0000E94740E182F882309F4AFC001110FC0AE
:103FB0008091C9029091CA02282F207F19F4809322
:103FC000C90205C01150892FB9F79093C902010F9A
:103FD000023008F496C01092CE028091C9029091EE
:103FE000CA029827892798279093CA028093C9020A
:103FF0002091C802222309F486C097702091D20232
:104000003091D3022817390708F47DC02091D002DF
:104010003091D1028217930708F475C061E088E0FF
:104020000E94EE0E8FEF80938C0240918D02509192
:104030008E0260918F0270919002CE014E960E9486
:10404000DA13CE0101960E94810DEA8DFB8D309727
:1040500009F454C08581882309F450C08091C902B5
:104060009091CA029C01377093FF03C088EE93E0E1
:1040700002C080E090E040918D0250918E026091EC
:104080008F02709190023F932F939F938F938BA1F8
:104090001F928F938AA11F928F9389A11F928F9352
:1040A00088A11F928F938F8D1F928F938E8D90E09A
:1040B0008053984F9F938F937F936F935F934F930A
:1040C00086ED91E09F938F9386E992E09F938F9383
:1040D0000E94FD2566E972E0CE0101960E94E4127D
:1040E000CE0101960E946F0D60E088E00E94EE0E06
:1040F0000FB6F894DEBF0FBECDBF05C083E00E94AF
:104100008E090093CE021111C0C01092CE02809190
:104110008B028823F1F010928B0240918D02509116
:104120008E0260918F0270919002CE0101960E94E2
:10413000DA132C818D8190E0E4E62E9F800D911D95
:10414000112420918A022111A3C044E060EE0E9454
:104150001310BE0167597F4FCE0186599F4F0E94B1
:10416000F6089091C802992309F496C0AB968FADDA
:10417000AB97882309F4FBC0AA962FADAA9721110B
:10418000F6C081E0292E28262092C802222009F4B8
:10419000E9C0C12CD12C9CE5A92E91E0B92EDF926B
:1041A000CF928091CF02282F082E000C330B3F9323
:1041B0008F932FEF31E03F932F93E6EDF2E0FF93E3
:1041C000EF930E94FD251EAE1DAEBCAEABAE219698
:1041D0001FAE219719A218A2BF8EAE8E1BA20FB6DA
:1041E000F894DEBF0FBECDBF612C712CFE01FB9693
:1041F0007F0107E216E0C301F301EA52FD4F20817F
:104200002F3209F40196DC01AA52BD4FFE01E85A93
:10421000FF4F20E030E04F014D914F3209F05FC079
:10422000F401E20FF31F1082FC01EA52FD4F2081DE
:104230002F3209F401963C01FC01EA52FD4F308017
:104240001C821B82BA82A9821E8221E0A401B801CD
:10425000CE0101960E94281781114DC0F6E0073269
:104260001F0709F023C161E087E00E94EE0E8FEF87
:1042700080938C02CE0101960E94810DEA8DFB8D08
:10428000309719F085818111E7C00E94BD1166CB7E
:1042900020E044E060E05BCFAB968FADAB97882326
:1042A00009F464CFAA968FADAA97882309F45ECF4C
:1042B00040918D0250918E0260918F027091900218
:1042C000CE0101960E94DA1386E0FE013196ABE43E
:1042D000B6E001900D928A95E1F781E0F1CB44239D
:1042E00009F49ECF2F5F3F4F019641932C3031054B
:1042F00009F092CF95CFCE0101960E94040333209E
:10430000E1F0F70185818111CCC021E0A401B80161
:10431000C7010E942817982EF6E007321F0709F4FC
:10432000B9C0C8010E940403992009F49CCF902FC2
:10433000812F8701E92EF82E5ECF26E00732120783
:1043400019F0C8010E940403222009F48CCF3FEF2A
:10435000C31AD30A88EEC81683E0D80609F01FCF27
:1043600082E0CDCE60E087E00E94EE0E8ECFAA966E
:104370009FADAA97992309F488CF811186CF88E64B
:104380000E94310B81E190E00E942C0B0E94D00A28
:1043900082E090E00E943B0B9091E6048091E7045C
:1043A0009817F9F08FEE95E00E940B12182F8FEE00
:1043B00095E00E940B12512E412CB201682B86E031
:1043C000759567958A95E1F7072E000C880B990B78
:1043D0000E94D42220E030E040E85EE30E940F23F8
:1043E00004C060E07CE38CE196EC0E941E249B01FB
:1043F00019821A821B821C8249E34C8377FF0BC00F
:1044000022273327261B370B80E42A30310514F48A
:104410008A8301C08983C9016AE070E00E94742424
:10442000FC01EE5EFE4F80818B832A3031053CF02B
:104430006F70E62FF0E0EE5EFE4F80818A8340E0F1
:1044400064E0CE0101960E94C70F68EB7BE080E03C
:1044500090E00E94801019CF6EE072E0CE010196CC
:104460000E94E41266ED72E0CE0101960E94E41211
:104470008091CF02893419F465E172E002C06DE3E6
:1044800072E0CE0101960E94E412CE0101960E94D4
:104490006F0DFBCE882309F4E6CE8E01025E1F4F1E
:1044A00046CF96E00732190709F4DDCEC8010E9415
:1044B0000403D9CECF93DF93E2E5F5E013821282B5
:1044C00088EE93E0A0E0B0E084839583A683B78371
:1044D00028E331E03183208325EC30E035872487E1
:1044E00024EC30E03787268720EC30E0318B208BBE
:1044F00021EC30E0338B228B22EC30E0358B248BA7
:1045000026EC30E0378B268B118E128E138E148E94
:10451000EFEEF5E01382128284839583A683B7833E
:104520008AE491E091838083EBEFF5E080E580837E
:104530001182EDEFF5E0158216821186138682E076
:1045400090E0A0E0B0E084879587A687B78713A2A4
:1045500015A614A68CE591E093A782A717A640E0C4
:1045600050E0BA018BE496E00E94DA13C6E4D6E08C
:1045700083E0888384E0898384E690E09C838B8356
:1045800060E083E00E941D0F60E089810E941D0FA2
:1045900060E088810E94EE0E60E08981DF91CF911A
:1045A0000C94EE0EE89409C097FB3EF4909580952C
:1045B000709561957F4F8F4F9F4F9923A9F0F92FE9
:1045C00096E9BB279395F695879577956795B79567
:1045D000F111F8CFFAF4BB0F11F460FF1BC06F5F4D
:1045E0007F4F8F4F9F4F16C0882311F096E911C05F
:1045F000772321F09EE8872F762F05C0662371F080
:1046000096E8862F70E060E02AF09A95660F771F93
:10461000881FDAF7880F9695879597F908950E9475
:1046200022230C9493230E94852338F00E948C232C
:1046300020F0952311F00C947C230C9482231124F8
:104640000C94C7230E94A42370F3959FC1F3950F88
:1046500050E0551F629FF001729FBB27F00DB11D06
:10466000639FAA27F00DB11DAA1F649F6627B00D96
:10467000A11D661F829F2227B00DA11D621F739F7F
:10468000B00DA11D621F839FA00D611D221F749F8D
:104690003327A00D611D231F849F600D211D822FD4
:1046A000762F6A2F11249F5750409AF0F1F08823FB
:1046B0004AF0EE0FFF1FBB1F661F771F881F915028
:1046C0005040A9F79E3F510580F00C947C230C9438
:1046D000C7235F3FE4F3983ED4F3869577956795BB
:1046E000B795F795E7959F5FC1F7FE2B880F911D52
:1046F0009695879597F9089597F99F6780E870E0F8
:1047000060E008959FEF80EC089500240A94161647
:10471000170618060906089500240A9412161306AF
:10472000140605060895092E0394000C11F488233D
:1047300052F0BB0F40F4BF2B11F460FF04C06F5F59
:104740007F4F8F4F9F4F089557FD9058440F551F2F
:1047500059F05F3F71F04795880F97FB991F61F003
:104760009F3F79F087950895121613061406551F7A
:10477000F2CF4695F1DF08C0161617061806991FE6
:10478000F1CF86957105610508940895E894BB27DB
:1047900066277727CB0197F908950E940F24A59FDC
:1047A000900DB49F900DA49F800D911D112408952C
:1047B0002F923F924F925F926F927F928F929F9231
:1047C000AF92BF92CF92DF92EF92FF920F931F931F
:1047D000CF93DF93CDB7DEB7CA1BDB0B0FB6F894D0
:1047E000DEBF0FBECDBF09942A88398848885F8410
:1047F0006E847D848C849B84AA84B984C884DF8081
:10480000EE80FD800C811B81AA81B981CE0FD11D64
:104810000FB6F894DEBF0FBECDBFED010895A29F85
:10482000B001B39FC001A39F700D811D1124911D84
:10483000B29F700D811D1124911D08950E942524A1
:104840006894B1110C94C72308950E94AC2388F09A
:104850009F5798F0B92F9927B751B0F0E1F0660F44
:10486000771F881F991F1AF0BA95C9F714C0B13085
:1048700091F00E94C623B1E008950C94C623672FDF
:10488000782F8827B85F39F0B93FCCF386957795B4
:104890006795B395D9F73EF490958095709561959D
:1048A0007F4F8F4F9F4F0895991B79E004C0991F48
:1048B000961708F0961B881F7A95C9F7809508957A
:1048C000AA1BBB1B51E107C0AA1FBB1FA617B70736
:1048D00010F0A61BB70B881F991F5A95A9F7809552
:1048E0009095BC01CD01089597FB072E16F4009416
:1048F00007D077FD09D00E94602407FC05D03EF464
:10490000909581959F4F0895709561957F4F08957B
:10491000A1E21A2EAA1BBB1BFD010DC0AA1FBB1FC3
:10492000EE1FFF1FA217B307E407F50720F0A21B35
:10493000B30BE40BF50B661F771F881F991F1A94A2
:1049400069F760957095809590959B01AC01BD01CC
:10495000CF010895EE0FFF1F0590F491E02D09940B
:104960000F931F93CF93DF938230910510F482E071
:1049700090E0E091A606F091A70620E030E0A0E0EC
:10498000B0E0309719F140815181028113814817BD
:104990005907C8F08417950769F4109731F01296FB
:1049A0000C93129713961C9327C00093A60610939E
:1049B000A70622C02115310519F04217530718F434
:1049C0009A01BD01EF01DF01F801DBCF21153105AF
:1049D000F9F0281B390B2430310580F48A819B8142
:1049E0006115710521F0FB019383828304C09093CC
:1049F000A7068093A606FE01329644C0FE01E20F90
:104A0000F31F8193919322503109398328833AC04F
:104A10002091A4063091A506232B41F420910A0190
:104A200030910B013093A5062093A4062091080134
:104A3000309109012115310541F42DB73EB7409160
:104A40000C0150910D01241B350BE091A406F0914F
:104A5000A506E217F307A0F42E1B3F0B2817390712
:104A600078F0AC014E5F5F4F2417350748F04E0FCA
:104A70005F1F5093A5064093A4068193919302C0B3
:104A8000E0E0F0E0CF01DF91CF911F910F91089509
:104A9000CF93DF93009709F481C0FC013297138212
:104AA0001282A091A606B091A706109781F42081EA
:104AB0003181820F931F2091A4063091A5062817FB
:104AC000390751F5F093A506E093A40667C0ED0100
:104AD00020E030E0CE17DF0740F44A815B819E0181
:104AE00041155105F1F0EA01F5CFD383C28340812E
:104AF0005181840F951FC817D90759F4888199816E
:104B0000840F951F0296918380838A819B81938372
:104B100082832115310529F4F093A706E093A606B8
:104B20003DC0E901FB83EA8349915991C40FD51F28
:104B3000EC17FD0761F480819181840F951F029627
:104B4000E90199838883828193819B838A83E0E052
:104B5000F0E012968D919C911397009719F0FD014A
:104B6000DC01F7CF8D919C9111979D012E5F3F4FF6
:104B7000820F931F2091A4063091A50628173907AC
:104B800069F4309729F41092A7061092A60602C085
:104B900013821282B093A506A093A406DF91CF9151
:104BA000089581E090E0F8940C94B028FB01DC01BA
:104BB00004C08D910190801921F441505040C8F7F4
:104BC000881B990B0895FC018191861721F0882399
:104BD000D9F7992708953197CF010895FB01DC019A
:104BE0004150504048F001900D920020C9F701C09B
:104BF0001D9241505040E0F70895AEE0B0E0E3E090
:104C0000F6E20C94E6230D891E8986E08C831A83D4
:104C100009838FEF9FE79E838D83AE01475E5F4FD1
:104C20006F89788DCE0101960E941F26EF81F8854D
:104C3000E00FF11F10822E96E4E00C940224ABE00A
:104C4000B0E0E5E2F6E20C94D8236C017B018A0126
:104C5000FC0117821682838181FFCCC1CE010196AF
:104C60003C01F6019381F70193FD859193FF8191BA
:104C70007F01882309F4BAC1853239F493FD859107
:104C800093FF81917F01853229F4B60190E00E9463
:104C90001628E7CF912C212C312CFFE1F315D8F009
:104CA0008B3279F038F4803279F08332A1F4232DFD
:104CB00020611DC08D3261F0803369F4232D2160A5
:104CC00016C0832D8260382EE32DE4603E2E2AC06C
:104CD000F32DF8601DC037FC2DC020ED280F2A30C1
:104CE00040F08E32B9F436FC81C1232D2064322E7F
:104CF00019C036FE06C08AE0989E200D1124922E1F
:104D000011C0EAE02E9E200D1124222EF32DF06218
:104D10003F2E08C08C3621F4832D8068382E02C0C7
:104D2000883641F4F70193FD859193FF81917F01CE
:104D30008111B3CF982F9F7D9554933028F40C5F49
:104D40001F4F9FE399830DC0833631F0833771F095
:104D5000833509F059C021C0F801808189830E5F35
:104D60001F4F88248394912C530113C02801F2E033
:104D70004F0E511CF801A080B18036FE03C0692D92
:104D800070E002C06FEF7FEFC5010E940B284C015D
:104D90008201F32DFF773F2E16C0280122E0420E3C
:104DA000511CF801A080B18036FE03C0692D70E06F
:104DB00002C06FEF7FEFC5010E9400284C01F32D68
:104DC000F0683F2E820133FC1BC0822D90E08816D4
:104DD0009906B0F4B60180E290E00E9416282A9469
:104DE000F4CFF50137FC859137FE81915F01B60163
:104DF00090E00E94162821102A9421E0821A91083E
:104E00008114910471F7E8C0843611F0893641F5B8
:104E1000F80137FE07C060817181828193810C5F48
:104E20001F4F08C060817181072E000C880B990B01
:104E30000E5F1F4FF32DFF763F2E97FF09C0909511
:104E40008095709561957F4F8F4F9F4FF0683F2EF3
:104E50002AE030E0A3010E945228882E861845C01F
:104E6000853731F4232D2F7EB22E2AE030E025C085
:104E7000932D997FB92E8F36C1F018F4883579F0CB
:104E8000B5C0803719F0883721F0B0C0E92FE06154
:104E9000BE2EB4FE0DC0FB2DF460BF2E09C034FE43
:104EA0000AC0292F2660B22E06C028E030E005C0D7
:104EB00020E130E002C020E132E0F801B7FE07C097
:104EC00060817181828193810C5F1F4F06C0608178
:104ED000718180E090E00E5F1F4FA3010E94522875
:104EE000882E8618FB2DFF773F2E36FE0DC0232D12
:104EF0002E7FA22E891458F434FE0BC032FC09C058
:104F0000832D8E7EA82E05C0B82CA32C03C0B82CF0
:104F100001C0B92CA4FE0FC0FE01E80DF11D808177
:104F2000803321F49A2D997EA92E09C0A2FE06C0D5
:104F3000B394B39404C08A2D867809F0B394A3FC8B
:104F400011C0A0FE06C0B21488F4280C922C9B1845
:104F50000EC0B21460F4B60180E290E00E94162800
:104F6000B394F7CFB21418F42B1802C0982C212C4C
:104F7000A4FE10C0B60180E390E00E941628A2FEB5
:104F800017C0A1FC03C088E790E002C088E590E06C
:104F9000B6010CC08A2D867859F0A1FE02C08BE2C2
:104FA00001C080E2A7FC8DE2B60190E00E941628C5
:104FB000891438F4B60180E390E00E9416289A9490
:104FC000F7CF8A94F301E80DF11D8081B60190E0DE
:104FD0000E9416288110F5CF222009F442CEB60196
:104FE00080E290E00E9416282A94F6CFF60186818E
:104FF000978102C08FEF9FEF2B96E2E10C94F42390
:10500000FC010590615070400110D8F78095909593
:105010008E0F9F1F0895FC01615070400190011098
:10502000D8F7809590958E0F9F1F08950F931F932B
:10503000CF93DF93FB01238121FD03C08FEF9FEF0F
:105040002CC022FF16C0468157812481358142172A
:10505000530744F4A081B1819D012F5F3F4F3183FD
:1050600020838C93268137812F5F3F4F37832683A0
:1050700014C08B01EC01FB010084F185E02D099542
:10508000892BE1F6D80116968D919C911797019680
:1050900017969C938E931697CE01DF91CF911F9117
:1050A0000F910895FA01AA27283051F1203181F19A
:1050B000E8946F936E7F6E5F7F4F8F4F9F4FAF4F20
:1050C000B1E03ED0B4E03CD0670F781F891F9A1F33
:1050D000A11D680F791F8A1F911DA11D6A0F711DE7
:1050E000811D911DA11D20D009F468943F912AE0F3
:1050F000269F11243019305D3193DEF6CF010895DB
:10510000462F4770405D4193B3E00FD0C9F7F6CF0B
:10511000462F4F70405D4A3318F0495D31FD4052D3
:10512000419302D0A9F7EACFB4E0A6959795879569
:1051300077956795BA95C9F7009761057105089548
:105140009B01AC010A2E06945795479537952795F4
:10515000BA95C9F7620F731F841F951FA01D08958C
:04516000F894FFCFF1
:10516400BA10BA10FFFFFFFF0000A80680007950B4
:1051740050003F065B4F666D7D077F6F777C395E1D
:10518400797100000000BB006C07D2002A019A006C
:10519400C208CC08000000004E11BB10E5109B11A2
:1051A4001611F41008110000000054122712D20046
:1051B400FB111F120B12FC11000000008512BB1022
:1051C400D200D100000000008312BB10D200D10035
:1051D400312E3534005374617274696E67202876F9
:1051E400657273696F6E202573292E2E2E0A00496D
:1051F4006E697469616C697A6174696F6E20444F79
:105204004E452E000D0A00256C642C253034642F85
:10521400253032642F253032642C253032643A250F
:105224003032643A253032642C25642C25642C25D4
:10523400642C25640A00256C642C253034642F25E5
:105244003032642F253032642C253032643A2530D4
:1052540032643A253032642C25642C25640A0052C9
:1052640045475F2563253033642E43535600466912
:105274006C653A2000556E69782074696D652C441C
:105284006174652C54696D652C416C61726D2C439D
:10529400757272656E7420492841290A00556E6939
:1052A400782074696D652C446174652C54696D654E
:1052B4002C526573697374616E7365202D2C52656D
:1052C40073697374616E7365202B2C52656C6179FC
:1052D40020312C2052656C617920320A002F0000A5
:00000001FF
