:100000000C9470000C94A7120C9480120C9498001D
:100010000C9498000C9498000C9498000C94980000
:100020000C9498000C9498000C9498000C949800F0
:100030000C9498000C943D130C9498000C94980028
:100040000C940C190C9498000C940B130C94E5125E
:100050000C9498000C9498000C9498000C949800C0
:100060000C943E140C94980000000000240027001B
:100070002A0000000000250028002B0000000000DE
:1000800023002600290004040404040404040202DA
:100090000202020203030303030301020408102007
:1000A0004080010204081020010204081020000012
:1000B0000008000201000003040700000000000027
:1000C00000007C3C3E5E2B3D3F2F5B5D3B2C2A229B
:1000D0005C001F1C1F1E1F1E1F1F1E1F1E1F4422F1
:1000E00011241FBECFEFD8E0DEBFCDBF26E0A0E8D1
:1000F000B2E001C01D92A73AB207E1F712E0A0E01A
:10010000B1E0E8E3F1E502C005900D92A038B10737
:10011000D9F710E0C0E7D0E004C02197FE010E94AB
:100120009424CF36D107C9F70E9456190C949A2807
:100130000C940000DC015996ED91FC915A97309790
:10014000B9F083899489A589B689428553856485E8
:100150007585841B950BA60BB70B811520E89207BC
:10016000A105B10538F08FEF9FE7A0E0B0E008955A
:1001700080E090E00895CF93DF931F92CDB7DEB774
:100180006983DC01ED91FC910280F381E02D41E077
:1001900050E0BE016F5F7F4F09950F90DF91CF91C7
:1001A0000895089580E090E0089581E080939202A0
:1001B0009091910289278093910208950F931F9344
:1001C000CF93DF93FC012581222309F446C02481CB
:1001D00027FF3DC08C01668577858089918941E044
:1001E0000E94A7158823C9F1F801C289F0E2CF9FC8
:1001F000E0011124CD51DD4F209779F1F80185817F
:10020000823040F483899489A589B6898C8F9D8F2B
:10021000AE8FBF8FF8018789908DA18DB28D9B8F96
:100220008A8FBD8BAC8BE0918802F0918902309768
:1002300051F0BE016A5E7F4FCE0148960995888DC8
:10024000998D9B8B8A8BF80194819F779483DF91A2
:10025000CF911F910F910C946C1580E0DF91CF919D
:100260001F910F910895FC01818D928D009711F0DF
:100270000C94DE000895CF93C1E0C0938B0282E01E
:100280000E94AF0E892BB1F080918C0290918D026B
:10029000A0918E02B0918F020196A11DB11D809395
:1002A0008C0290938D02A0938E02B0938F02C09324
:1002B0008A0202C010928A02CF9108958F929F9273
:1002C000AF92BF92CF92DF92EF92FF920F931F9364
:1002D000CF93DF93EC018D81811102C080E078C063
:1002E0000B891C892D893E890417150726073707B6
:1002F000A8F36A017B01823029F4CA86DB86EC868A
:10030000FD860DC0C114D104E104F10451F41E8234
:100310001F82188619861A861B861C861D8681E018
:1003200057C08A849B84AC84BD84EB8DFC8D25856D
:1003300030E0275F3F4FB501A401415051096109E9
:100340007109022E04C076956795579547950A94D2
:10035000D2F7D701C6010197A109B10904C0B6952A
:10036000A795979587952A95D2F784179507A6079D
:10037000B70720F089288A288B2871F44F89588D77
:10038000698D7A8D4E835F83688779874C015D0123
:100390008E010A5F1F4F16C0841B950BA60BB70B6F
:1003A000F5CF4E815F816885798598018B8D9C8D15
:1003B0000E94911691E0891A9108A108B10888233A
:1003C00009F48CCF81149104A104B10451F795CFA5
:1003D000DF91CF911F910F91FF90EF90DF90CF9021
:1003E000BF90AF909F908F9008958F929F92AF9201
:1003F000BF92CF92DF92EF92FF920F931F93CF9312
:10040000DF9300D000D0CDB7DEB77C0180E2689FDB
:10041000F0011124ED51FD4F9385917121F0842F4E
:10042000827409F08FC0142FD70152966C935297A3
:1004300040910401509105016091060170910701FE
:100440001E964D935D936D937C9351974489558986
:1004500060E070E0BA0155274427828D938DA0E0BB
:10046000B0E0482B592B6A2B7B2BD70157964D9325
:100470005D936D937C935A978385887159F4848D2D
:10048000958DA68DB78DF701838B948BA58BB68B3D
:1004900081E012C0803109F055C097012D5E3F4FB9
:1004A000D7015B968D919C915C970E946E0B88237F
:1004B00009F448C084E0F7018583812F8F70D7014C
:1004C00014968C931497F701168217821086118662
:1004D0001A961D921D921D921C921D9716FF34C0F4
:1004E00015968C91813071F511FF2CC0F70143896D
:1004F000548965897689452B462B472B09F461C0C1
:1005000040E050E0BA01C7010E945E018823D1F0AB
:10051000F7018788908CA18CB28CC38CD48C82E03C
:1005200090E0A0E0B0E0F60180839183A283B383E2
:100530009E012F5F3F4FB501A401C6010E94911695
:10054000811104C080E03DC081E03BC000E010E0CC
:100550009801B501A401C6010E94F015882391F30A
:1005600089809A80AB80BC80D60157968C9180316F
:1005700029F088EF9FEFAFEFBFE004C088EF9FEF57
:10058000A0E0B0E088169906AA06BB0688F2D7015B
:1005900057961D921D921D921C925A97F701138A2D
:1005A000148A158A168A848180688483C7010E9410
:1005B000DE00882339F240E050E0BA01C7010E9412
:1005C0005E010F900F900F900F90DF91CF911F91D0
:1005D0000F91FF90EF90DF90CF90BF90AF909F90E2
:1005E0008F900895CF93DF93EC010E94DE00882363
:1005F00011F01D8281E0DF91CF9108953F924F92DB
:100600005F926F927F928F929F92AF92BF92CF92A2
:10061000DF92EF92FF920F931F93CF93DF93CDB7AB
:10062000DEB72C970FB6F894DEBF0FBECDBF5C01CE
:10063000DC015B968D909C905C971696CD90DD903A
:10064000ED90FC901997C114D104E104F10439F044
:10065000BFEFCB1ADB0AEB0AFB0A312C07C0F4010F
:10066000C080D180E280F38033243394F40181850B
:100670009285A385B4859C01AD012F5F3F4F4F4FFD
:100680005F4F29873A874B875C87260137011D8298
:100690001E821F821886F40181859285A385B48508
:1006A0002D813E814F815885281739074A075B07FE
:1006B00008F063C089859A85AB85BC858C159D053E
:1006C000AE05BF0550F482E0C82ED12CE12CF12CF0
:1006D00092E0492E512C612C712C9E012F5F3F4FCF
:1006E000B701A601C4010E949116882309F445C0F0
:1006F00089819A81AB81BC81892B8A2B8B2B41F01C
:10070000260137019FEF491A590A690A790A05C07B
:10071000C414D504E604F70491F02D813E814F8185
:1007200058852F5F3F4F4F4F5F4F2D833E834F8341
:1007300058873FEFC31AD30AE30AF30AACCF0FEF8F
:100740001FEF2FEF3FE0B301A201C4010E94F0159B
:10075000882399F0D50116964D915D916D917C910C
:100760001997411551056105710549F09301820101
:10077000C4010E94F015811102C080E02AC0D50199
:1007800016964D925D926D927C921997332051F09E
:10079000D301C2010196A11DB11DF4018083918393
:1007A000A283B383F5018789908DA18DB28D892BAA
:1007B0008A2B8B2B69F4D50157964D925D926D92E1
:1007C0007C925A9714968C911497806814968C9307
:1007D00081E02C960FB6F894DEBF0FBECDBFDF913F
:1007E000CF911F910F91FF90EF90DF90CF90BF902E
:1007F000AF909F908F907F906F905F904F903F90C1
:1008000008958FB7F8948091D5028FBF089561E065
:10081000FC0184810E94D80E8091D4028111109233
:10082000D40208958EBD00000DB407FEFDCF8EB535
:1008300008958FEF0C9412040F931F93CF93DF93BF
:10084000EB010E9400198B010E9419048F3F49F0AF
:100850000E940019601B710B6C177D07A8F380E0E4
:1008600001C081E0DF91CF911F910F910895CF9347
:10087000DF93EC018E81882389F08F8198859C011C
:100880002F5F3F4F38872F838230924018F40E94A9
:100890001904F3CFCE010E9407041E82DF91CF918D
:1008A00008958CBD9DBD0895CF93DF93EC01809199
:1008B000D402811109C081E08093D4028091FA05AD
:1008C0009091FB050E94510460E08C81DF91CF91F3
:1008D0000C94D80E8F929F92AF92BF92FF920F937B
:1008E0001F93CF93DF93EC01F62E49015A010E942A
:1008F0003704CE010E9454046CE271E0CE010E94E4
:100900001C048F2D80640E94120408E110E0D501C0
:10091000C401002E04C0B695A795979587950A94B3
:10092000D2F70E94120408501109083F8FEF1807F0
:1009300071F7FF2029F088E0F81204C087E803C0AF
:1009400085E901C08FEF0E94120410E00E94190493
:100950008A8787FF04C01F3F11F01F5FF7CFDF9129
:10096000CF911F910F91FF90BF90AF909F908F906C
:100970000895AF92BF92CF92DF92EF92FF920F93C2
:100980001F93CF93DF93EC016901C801820F931F7E
:100990008130924008F070C08E81882371F0888188
:1009A0009981AA81BB8184179507A607B70729F407
:1009B0008F819885C816D906B0F5488359836A8314
:1009C0007B838B85833039F089E0440F551F661F88
:1009D000771F8A95D1F79A01AB0161E1CE010E94A0
:1009E0006A04882319F083E08D8346C00E940019B1
:1009F0005B010E9419048A878F3F49F40E94001905
:100A00006A197B096D327140A0F38FE003C08E3FFD
:100A100031F08DE08D83CE010E9407042DC0188631
:100A20001F8281E08E838F8198858C159D0540F40F
:100A30000E9419048F819885019698878F83F3CF40
:100A40006701E00EF11EEC14FD0431F00E94190460
:100A5000F60181936F01F7CF8F819885080F191FD9
:100A600018870F838985882319F00115124048F0F3
:100A7000CE010E94370405C0CE010E94070480E029
:100A800001C081E0DF91CF911F910F91FF90EF9016
:100A9000DF90CF90BF90AF900895EF92FF920F93A9
:100AA0001F93CF93DF93EC01790141155105610547
:100AB000710511F482E13CC08B85833039F089E007
:100AC000440F551F661F771F8A95D1F79A01AB0116
:100AD00068E1CE010E946A04882311F084E028C0F6
:100AE0008EEF0E94120487018EEFF81AF8018191AF
:100AF0008F010E941204E016F106C1F78FEF0E94E9
:100B000012048FEF0E9412040E9419048A878F71C9
:100B1000853031F081E18D83CE010E94070409C048
:100B200068E572E0CE010E941C04811107C085E1D6
:100B30008D83CE010E94070480E014C020E030E0E5
:100B4000A9016DE0CE010E946A04811109C00E94D2
:100B50001904811105C0CE010E94070481E002C082
:100B600084E1E6CFDF91CF911F910F91FF90EF903D
:100B700008952F923F924F925F926F927F928F9241
:100B80009F92AF92BF92CF92DF92EF92FF920F931C
:100B90001F93CF93DF9300D000D0CDB7DEB78C0189
:100BA0006B011A01DC0115968C9115978130C9F4FF
:100BB00014968C9181FF15C082FF1DC0F8014389F6
:100BC00054896589768982859385A485B58584173E
:100BD0009507A607B70779F0C8010E945E01811149
:100BE0000AC081E090E0D80113969C938E931297EF
:100BF00080E090E048C1410183C05B968D919C915B
:100C00005C97FC0174802FEF270D2A013B0139E02E
:100C100076946794579447943A95D1F7722E74203E
:100C20007A01F1E0FF22772009F476C080E092E0BB
:100C30008E199F0954018815990508F45C01D801A3
:100C40005B962D913C915C9716968D919D910D90A0
:100C5000BC91A02D0297A109B109F901058404C036
:100C6000880F991FAA1FBB1F0A94D2F74685578584
:100C700060897189840F951FA61FB71F9C01AD0164
:100C8000270D311D411D511D29013A01A11432E0EA
:100C9000B30609F088C08091040190910501A091EC
:100CA0000601B0910701481659066A067B0659F4F9
:100CB0008FEF9FEFDC018093040190930501A093D7
:100CC0000601B09307019601B301A2018091E304EC
:100CD0009091E4040E944D05882309F482CF9EEF91
:100CE000D91A8A189B08F80182859385A485B58551
:100CF0008A0D9B1DA11DB11D82879387A487B5878F
:100D0000D8011A964D915D916D917C911D9781143A
:100D1000910409F072CF87C0E114F10409F086CF85
:100D200016964D915D916D917C91199741155105E4
:100D30006105710559F457968D919D910D90BC9167
:100D4000A02D0097A105B10541F521C09E012F5F9F
:100D50003F4F0E949116882309F44BCF89819A81D5
:100D6000AB81BC81F801238D348DF90127892031B5
:100D700029F048EF5FEF6FEF7FE004C048EF5FEFCF
:100D800060E070E084179507A607B70730F0C80148
:100D90000E94FE0281114ACF24CFF80186839783F7
:100DA000A087B18743CFE114F10429F5D8011A9641
:100DB0004D915D916D917C911D9753968D919D9173
:100DC0000D90BC91A02D481759076A077B0798F032
:100DD0000E946C15882309F404CF409204015092BC
:100DE00005016092060170920701809152068160B0
:100DF0008093520608C041E0C301B2010E94A715CA
:100E0000882309F4EECED601F701ED51FD4F9F0185
:100E10002A0D3B1D2E173F0719F08D918193FACFB4
:100E2000CA0CDB1C5ECFD8015396CD90DD90ED90BF
:100E3000FC90569714968C91C416D506E606F706D4
:100E400040F4F801438B548B658B768B80688483E8
:100E50000DC02091880230918902232B39F0211492
:100E6000310421F08068D80114968C93F8018481B4
:100E700083FD02C0C10107C0C8010E94DE008823B3
:100E800009F4AFCEF7CF0F900F900F900F90DF9136
:100E9000CF911F910F91FF90EF90DF90CF90BF9077
:100EA000AF909F908F907F906F905F904F903F900A
:100EB0002F900895CF93DF93EC01898D9A8D009741
:100EC00039F481E090E09B838A8380E090E00BC05E
:100ED000FC01138212820E94B905E98DFA8D2281EC
:100EE0003381232B71F7DF91CF910895FC01DB0152
:100EF00012968D919C911397938382838CE591E058
:100F00009183808314968C911497848315968C9189
:100F10001597858316964D915D916D917C911997EA
:100F200046835783608771871A964D915D916D91C5
:100F30007C911D9742875387648775871E964D91D4
:100F40005D916D917C91519746875787608B718B2E
:100F500052968C915297828B53964D915D916D91E3
:100F60007C915697438B548B658B768B57964D911E
:100F70005D916D917C915A97478B508F618F728FE5
:100F80005B968D919C915C97948F838F08954F927F
:100F90005F926F927F92AF92BF92CF92DF92EF9269
:100FA000FF920F931F93CF93DF931F92CDB7DEB7BE
:100FB000FC012581222309F4C1C0848180FFBEC0C9
:100FC00083899489A589B68942845384648475840D
:100FD00084159505A605B70509F4B0C06F01520147
:100FE000F1E0BF22D6015B968D919C915C97B30195
:100FF000A20139E076956795579547953A95D1F7CF
:10100000223071F4FC01828D938DA48DB58D8A01FF
:101010009B01080F191F2A1F3B1FC901B8014AC0B5
:10102000DC0114961C9111501423A114B104F9F49D
:1010300011111DC045284628472851F4F60187891B
:10104000908DA18DB28D86839783A087B1870FC0C5
:10105000D60116964D915D916D917C9119979601EF
:101060002A5F3F4F0E949116882309F467C0F6015A
:10107000238D348D86819781A085B1850297A10942
:10108000B109AC01BD01F901058404C0440F551F2D
:10109000661F771F0A94D2F786859785A089B18944
:1010A000840F951FA61FB71FBC01CD01610F711DD5
:1010B000811D911DD60114962C9126FF0DC04090E4
:1010C00004015090050160900601709007014616DA
:1010D00057066806790699F440E00E94A715882310
:1010E00069F1F501ED51FD4FDE0111969F012F5F72
:1010F0003F4F2E173F0799F081918D93FACFFE0154
:1011000031967F0101E010E09501AB01BC018091B7
:10111000E3049091E4040E94B904882379F0F60175
:1011200082859385A485B5850196A11DB11D828711
:101130009387A487B587898190E002C08FEF9FEFE6
:101140000F90DF91CF911F910F91FF90EF90DF9063
:10115000CF90BF90AF907F906F905F904F90089529
:10116000FC01818D928D009711F00C94C7078FEFD1
:101170009FEF08950F931F93CF93DF93FC01818D11
:10118000928D0097B9F0EF010E94C7078C010F3FC5
:101190008FEF180791F0898D9A8DFC014285538558
:1011A0006485758541505109610971090E945E018C
:1011B000C80105C080E090E002C08FEF9FEFDF9193
:1011C000CF911F910F9108959F92AF92BF92CF92AE
:1011D000DF92EF92FF920F931F93CF93DF936C01F7
:1011E0005B01FC011082FB01108200E010E0C0E016
:1011F000D0E082E0E82EFF24F39493E0992E86E07D
:101200000E94AF0E811125C021968091810281300C
:1012100049F028F0823071F08330A9F01EC0F092BE
:1012200081021BC0C436D105C1F4F6018083E0926F
:10123000810211C0C83EF3E0DF0779F4F601F082C5
:101240009092810208C0C83CD10539F4F601F082C1
:1012500002C010928102C0E0D0E085E00E94AF0E93
:10126000811126C00F5F1F4F80918002813049F0AD
:1012700028F0823071F08330A9F01EC0F092800215
:101280001BC004361105C1F4F5018083E092800291
:1012900011C0083EF3E01F0779F4F501F082909247
:1012A000800208C0083C110539F4F501F08202C043
:1012B0001092800200E010E0F6018081811102C0EE
:1012C000209739F4F501808181110AC001151105BB
:1012D00039F061E070E080E090E00E946A108FCF0A
:1012E000DF91CF911F910F91FF90EF90DF90CF9002
:1012F000BF90AF909F900895CF93DF9300D000D020
:10130000CDB7DEB740910E0150910F0160911001F1
:101310007091110149835A836B837C83813069F01A
:1013200048F0823079F0833091F48FE48C8388EE3A
:1013300093E00FC08FE38C830AC086E08C838AEF32
:1013400090E007C08BE58C8384EF91E002C084E6D7
:1013500090E00FE06C01E12CF12C18E061E087E0F7
:101360000E94D80E0093470640E064E0CE0101964B
:101370000E94B10FC701B6010E946A1060E087E0C9
:101380000E94D80E1093470640E064E0CE0101961B
:101390000E94B10FC701B6010E946A10DFCF80938F
:1013A0009302E1E8F0E01082109285001092840030
:1013B000809190028061808381E08093920280938B
:1013C00091020895FC019081961728F0941718F463
:1013D0009F5F908301C0608310928100109285000E
:1013E000109284008091900280618093810081E05E
:1013F00080939202809391020895EF92FF920F934F
:101400001F93CF93DF9300D000D000D0CDB7DEB7CD
:101410007C018B0140918C0250918D0260918E0273
:1014200070918F02CE0101960E94C613898190E0CF
:101430004496982F8827990F2A8140E2249F900193
:1014400011244B81242B822B932BF70191838083D2
:101450008D81F0E28F9F900111249C81892F90E073
:10146000982F8827990F990F990F822B932B2E81F4
:1014700030E035952795822B932BF801918380835B
:1014800026960FB6F894DEBF0FBECDBFDF91CF9189
:101490001F910F91FF90EF900895809148069091D1
:1014A00049068230910538F0880F991F880F991FDF
:1014B00005970197F1F70895833081F028F4813082
:1014C00099F08230A1F008958730A9F08830B9F002
:1014D0008430D1F4809180008F7D03C080918000A2
:1014E0008F7780938000089584B58F7702C084B58C
:1014F0008F7D84BD08958091B0008F7703C0809167
:10150000B0008F7D8093B0000895EF92FF920F930B
:101510001F93CF93DF93EC017B018A011B821A8218
:1015200088EE93E0A0E0B0E08C839D83AE83BF8320
:1015300086E291E0998388838DE190E00E949A246D
:101540009A8F898F009779F02DE1F701DC010190E6
:101550000D922A95E1F74CE050E0B801CE010C96CF
:101560000E94D825188EDF91CF911F910F91FF9087
:10157000EF90089530915005313208F04BC08091C2
:101580002D058111FCCF9091510622E020932D056D
:1015900021E020932C052FEF20932B0510922A0594
:1015A00030932905E0E3F5E0A9E0B5E020E032174B
:1015B00021F041914D932F5FFACF109208052091B1
:1015C0000805990F922B909308059091070591308B
:1015D00061F410920705909108059093BB009091DB
:1015E000BC0093FDF8CF95EC01C095EE9093BC0044
:1015F00090912D059230E1F390912B059F3F79F06A
:1016000080912B05803241F080912B05803331F0A1
:1016100084E005C081E003C082E001C083E0109255
:101620002F051092500510922E050895682F8EEE0A
:1016300095E00C943E1291E090932E058093510614
:1016400010922F0510925005089590912D0591113B
:10165000FCCF982F813208F090E281E080932D0535
:1016600080932C052FEF20932B0510922A05290F2C
:10167000209329058093080580910805806D80934B
:10168000080580910705813061F41092070580916B
:1016900008058093BB008091BC0083FDF8CF85ECEA
:1016A00001C085EE8093BC0080912D058130E1F36F
:1016B00080912A05891710F490912A05E9E0F5E058
:1016C000A7EEB4E080E0891721F021912D938F5F80
:1016D000FACF1092E6048093E50408954F925F924A
:1016E0006F927F92AF92BF92CF92DF92EF92FF9272
:1016F0000F931F93CF93DF9300D000D0CDB7DEB709
:101700008C0149835A836B837C835901C12CD12C72
:101710007601412C82E0582E612C712C49815A812E
:101720006B817C819E012F5F3F4FC8010E94911603
:10173000882351F1D301C201F801058404C0880F48
:10174000991FAA1FBB1F0A94D2F7C80ED91EEA1E02
:10175000FB1E49815A816B817C818789803129F008
:1017600088EF9FEFAFEFBFE004C088EF9FEFA0E0EE
:10177000B0E0481759076A077B0780F2F501C0827D
:10178000D182E282F38281E00F900F900F900F9050
:10179000DF91CF911F910F91FF90EF90DF90CF904D
:1017A000BF90AF907F906F905F904F900895CF93D0
:1017B000DF93FC012581222311F080E049C0EC0178
:1017C00080911F068031C1F482E08583178A108ED4
:1017D000118E128E8091200690912106A0E0B0E03B
:1017E00025E0880F991FAA1FBB1F2A95D1F7838B6D
:1017F000948BA58BB68B19C08032F9F683E0858374
:10180000409122065091230660912406709125068E
:10181000478B508F618F728F9F012D5E3F4F88E005
:1018200096E00E946E0B882341F288E096E09C8F40
:101830008B8F81E08C831E821F82188619861A8600
:101840001B861C861D861E861F86188A198A1A8A80
:10185000DF91CF9108958F929F92AF92BF92CF92D6
:10186000DF92EF92FF92CF93DF93C82F8CEF95E03A
:101870009093E4048093E304CC2369F1C53010F025
:1018800080E00CC140E060E070E0CB010E94A71551
:101890008823B1F320E1C29FC00111248D529D4FD6
:1018A000FC01E254FE4F20812F7751F73C96408196
:1018B000518162817381443651056105710500F3E0
:1018C0003497C080D180E280F380C114D104E10458
:1018D000F10421F4D5CFC12CD12C760140E0C70111
:1018E000B6010E94A715882359F28091EE029091CB
:1018F000EF028115924021F6A091F302AA2309F488
:10190000BFCF6091F1027091F2026115710509F487
:10191000B7CF2091F002222309F4B2CFA0931A0688
:1019200020930C0680E030E041E050E0C82FFA013F
:10193000082E02C0EE0FFF1F0A94E2F72E173F0792
:1019400039F08F5FC83091F789E08093150698CF02
:10195000809315062091F9023091FA022115310584
:1019600019F040E050E008C02091070330910803CF
:101970004091090350910A0320930D0630930E06FF
:1019800040930F065093100646015701860E971E8E
:10199000A11CB11C80921B0690921C06A0921D06F1
:1019A000B0921E06E091F402F091F502F093210648
:1019B000E0932006B0E00E94B723860E971EA81E73
:1019C000B91E8092220690922306A0922406B0921D
:1019D000250685E0EE0FFF1F8A95E1F7E150FE4FE7
:1019E000EF2FFF27E6958E0E9F1EA11CB11C809243
:1019F000160690921706A0921806B092190620912A
:101A0000F6023091F7022115310521F0A90160E0BD
:101A100070E008C0409103035091040360910503F6
:101A200070910603D701C60188199909AA09BB0953
:101A3000840F951FA61FB71F04C0B695A79597954D
:101A40008795CA95D2F78093110690931206A093BA
:101A50001306B0931406853F2FE09207A105B10548
:101A600010F48CE018C0853F9F4FA105B10510F41C
:101A700080E111C080910F0390911003A091110398
:101A8000B09112038093220690932306A09324061C
:101A9000B093250680E280931F0681E0DF91CF910D
:101AA000FF90EF90DF90CF90BF90AF909F908F907E
:101AB0000895CF93DF93EC01898D9A8D009741F0C3
:101AC0000E94F202898D9A8D0E9432251A8E198EFB
:101AD000DF91CF9108952F923F924F925F926F9234
:101AE0007F928F929F92AF92BF92CF92DF92EF92AE
:101AF000FF920F931F93CF93DF93CDB7DEB7C456FA
:101B0000D1090FB6F894DEBF0FBECDBF5C0119A29C
:101B100018A28CE591E09F8F8E8F1BA21C821B82E6
:101B20009A8389831E824E018EE1880E911CC40126
:101B30000E94D70B8E010F5F1F4F240186EDC82E28
:101B400082E0D82E18016FE270E0C6010E94CD2518
:101B5000009709F442C0F60120812F3221F4FFEFF3
:101B6000CF1ADF0AF0CF8C198D3008F08CE0E82E08
:101B7000F12CA701B601CE01885A9F4F0E94D825AB
:101B8000E8E5F0E0EC0FFD1FEE0DFF1D1082C8012F
:101B90000E94F202F8018581882351F01EAE1DAE2D
:101BA0008CE591E09CAF8BAF21961FAE21971EC0B4
:101BB00021E0AE01485A5F4FB201C8010E941417DC
:101BC000882361F3CE0CDF1CC2010E94F202942D27
:101BD000852D2801092F182FB6CFC601865D9240AA
:101BE0003C01B201CE01CB960E94760783010A52D6
:101BF0001D4FF8018081811109C0BE01655C7F4FD6
:101C0000C1010E9476074DE752E039C019A218A21F
:101C10008CE591E09F8F8E8F1BA221968FAD21972F
:101C2000811113C0F5011382128288EE93E0A0E0C7
:101C3000B0E084839583A683B78386E291E09183A5
:101C40008083128E118E14861EC027E1A801BE016A
:101C5000655C7F4FC4010E941417882319F3CE01DD
:101C6000CB960E94F20249A95AA96BA97CA9C4018A
:101C70000E945E01B401C1010E947607A801B10172
:101C8000C5010E94850AC501CC59DF4F0FB6F894F3
:101C9000DEBF0FBECDBFDF91CF911F910F91FF909F
:101CA000EF90DF90CF90BF90AF909F908F907F90FC
:101CB0006F905F904F903F902F9008958F929F92DA
:101CC000AF92BF92EF92FF920F931F93CF93DF9348
:101CD0008B017C01C0E0D0E0C017D107A1F10E94C8
:101CE00000196093590570935A0580935B05909392
:101CF0005C0581E595E00E94DE1097FF1FC00E9401
:101D000000198090590590905A05A0905B05B090FD
:101D10005C05DC01CB0188199909AA09BB098090EF
:101D2000550590905605A0905705B0905805881518
:101D30009905AA05BB05E8F28E0105C0F70181935C
:101D40007F012196C9CFC801DF91CF911F910F91DB
:101D5000FF90EF90BF90AF909F908F900895CF939A
:101D6000DF93282F30E0F901E255FF4F8491F9010C
:101D7000E656FF4FD491F901EA57FF4FC491CC23A7
:101D800091F081110E945C0AEC2FF0E0EE0FFF1F32
:101D9000E458FF4FA591B491EC91ED2381E090E0E0
:101DA00021F480E002C080E090E0DF91CF910895BF
:101DB0001F93CF93DF93282F30E0F901E255FF4FB7
:101DC0008491F901E656FF4FD491F901EA57FF4F8C
:101DD000C491CC23C1F0162F81110E945C0AEC2F14
:101DE000F0E0EE0FFF1FEE58FF4FA591B4919FB7A3
:101DF000F894111104C08C91D095D82302C0EC91B5
:101E0000DE2BDC939FBFDF91CF911F910895CF937D
:101E1000DF9390E0FC01E656FF4F2491FC01EA5766
:101E2000FF4F8491882361F190E0880F991FFC0196
:101E3000E859FF4FC591D491FC01EE58FF4FA59191
:101E4000B491611109C09FB7F894888120958223CD
:101E50008883EC912E230BC0623061F49FB7F89415
:101E60008881322F309583238883EC912E2B2C93FD
:101E70009FBF06C08FB7F894E8812E2B28838FBFB1
:101E8000DF91CF910895CF93DF93C5E4D6E061E071
:101E900089810E94070F0E944D0A60E088810E949C
:101EA000070F0E944D0A60E089810E94070FDF91B1
:101EB000CF910C944D0ACF93DF93D82FC8E061E007
:101EC000809145060E94070F0E944D0AD0FF02C074
:101ED00060E001C061E0809146060E94070F0E9409
:101EE0004D0A60E0809145060E94070F0E944D0A4E
:101EF000D695C15021F761E0809145060E94070FF9
:101F000060E0809146060E94070F0E944D0A60E043
:101F1000809145060E94070F0E944D0A8091460657
:101F20000E94AF0EC82F811105C061E08091460666
:101F30000E94070F0E944D0A61E0809145060E94B1
:101F4000070F0E944D0A81E0C11101C080E0DF91BE
:101F5000CF91089561E0809146060E94070F0C948E
:101F60004D0AFF920F931F93CF93DF93F82E092F03
:101F7000162FC42F0E94AA0F80E40E945B0F0E94BC
:101F8000430F0E94AA0F8C2F837080540E945B0F16
:101F9000CF2DD02FCE01810F911D8C01C017D107FD
:101FA00021F089910E945B0FF9CF0E94430F0E949C
:101FB000AA0F809147068F7080580E945B0FDF91B7
:101FC000CF911F910F91FF900C94430FCF93DF930C
:101FD00000D000D0CDB7DEB719821A821B821C82D6
:101FE00040E064E0CE0101960E94B10F0F900F9087
:101FF0000F900F90DF91CF9108958F929F92AF92A3
:10200000BF92CF92DF92EF92FF920F931F93CF93E5
:10201000DF9300D000D0CDB7DEB7D62EC42EBC01E2
:1020200097FF03C0719561957109FB01392F331F2B
:102030003327331F8E010F5F1F4F5801AC0CB11CAB
:1020400078018AE0882E912C40E40A151B05D1F016
:10205000CF01B4010E944A24DC01BB27AE5EBE4F13
:102060009C91D5019E935D01811106C0309721F4AA
:10207000332311F04C9330E0CF01B4010E944A2485
:10208000FB01E3CFD11016C0422F6C2DC8010E9476
:10209000B10F0F900F900F900F90DF91CF911F9184
:1020A0000F91FF90EF90DF90CF90BF90AF909F90F7
:1020B0008F900895AE014B5F5F4F8D2D8078F701B3
:1020C0009081892BD7018D937D01DD0C4A175B0729
:1020D000A1F7DACF8F929F92AF92BF92CF92DF9209
:1020E000EF92FF926B017C010E94DB184B015C01B7
:1020F000C114D104E104F104F1F00E94DB18DC0109
:10210000CB0188199909AA09BB09883E9340A1050A
:10211000B10570F321E0C21AD108E108F10888EE98
:10212000880E83E0981EA11CB11CC114D104E104E7
:10213000F10419F7DDCFFF90EF90DF90CF90BF90C3
:10214000AF909F908F9008950895CF92DF92EF9275
:10215000FF920F931F93CF93DF936C017A018B0152
:10216000C0E0D0E0CE15DF0581F0D8016D918D0182
:10217000D601ED91FC910190F081E02DC601099509
:10218000892B11F02196EECF7E01C701DF91CF910F
:102190001F910F91FF90EF90DF90CF900895FC0179
:1021A000538D448D252F30E0842F90E0821B930BBC
:1021B000541710F0CF96089501970895FC01918D62
:1021C000828D981761F0828DDF01A80FB11D5D9699
:1021D0008C91928D9F5F9F73928F90E008958FEF07
:1021E0009FEF0895FC01918D828D981731F0828DBB
:1021F000E80FF11D858D90E008958FEF9FEF089512
:10220000FC01918D228D892F90E0805C9F4F821B75
:1022100091098F739927089581E595E00E94001137
:1022200021E0892B09F420E0822F0895FC01848DA0
:10223000DF01A80FB11DA35ABF4F2C91848D90E0F0
:1022400001968F739927848FA689B7892C93A089CB
:10225000B1898C91837080648C93938D848D981355
:1022600006C00288F389E02D80818F7D80830895E8
:10227000EF92FF920F931F93CF93DF93EC0181E0D6
:10228000888F9B8D8C8D981305C0E889F989808192
:1022900085FD26C0F62E0B8D10E00F5F1F4F0F73CC
:1022A0001127E02E8C8DE8120CC00FB607FCFACF78
:1022B000E889F989808185FFF5CFCE010E9416114A
:1022C000F1CF8B8DFE01E80FF11DE35AFF4FF08235
:1022D0009FB7F8940B8FEA89FB89808180620AC0DE
:1022E0009FB7F894EE89FF896083E889F989808136
:1022F0008370806480839FBF81E090E0DF91CF9105
:102300001F910F91FF90EF900895CF93DF93EC0111
:10231000888D8823C9F0EA89FB89808185FD05C005
:10232000A889B9898C9186FD0FC00FB607FCF5CF3F
:10233000808185FFF2CFA889B9898C9185FFEDCF87
:10234000CE010E941611E7CFDF91CF91089580E072
:1023500090E0892B29F00E940C1181110C9400004F
:10236000089585ED8093BC008091BC0084FDFCCF76
:1023700010922D05089540917706262F30E0240F06
:10238000311D21323105DCF420912D052430C9F4B2
:10239000FC0180E090E0861758F430917706219197
:1023A000DC01A95AB94FA30FB11D2C930196F3CFAD
:1023B00080917706680F6093770680E0089581E04A
:1023C000089582E00895089508950895E091E6043F
:1023D0008091E504E81730F4F0E0E951FB4F80818B
:1023E00090E008958FEF9FEF08959091E60480911B
:1023F000E504981750F4E92FF0E0E951FB4F2081F4
:1024000030E09F5F9093E60402C02FEF3FEFC901D9
:1024100008958091E50490E02091E604821B9109E3
:102420000895CF92DF92EF92FF920F931F93CF9375
:10243000DF937C01CB018A0120912E05222389F0B4
:10244000EB016B01C40ED51ECC15DD0569F0699159
:10245000D701ED91FC910190F081E02DC701099524
:10246000F3CF642F0E94BB11C801DF91CF911F9160
:102470000F91FF90EF90DF90CF900895CF93DF936F
:102480001F92CDB7DEB7698320912E052223D1F0AC
:1024900020915005203240F021E030E0FC013383F0
:1024A000228380E090E015C080912F05E82FF0E0B6
:1024B000E05DFA4F998190838F5F80932F05809321
:1024C000500505C061E0CE0101960E94BB1181E07C
:1024D00090E00F90DF91CF9108950E94BB25CF939C
:1024E000DF931F92CDB7DEB7698341E050E0BE01B4
:1024F0006F5F7F4F0E94B9050F90DF91CF910895D4
:102500001F920F920FB60F9211242F933F934F9368
:102510005F936F937F938F939F93AF93BF93EF934B
:10252000FF93E0910201F09103010995FF91EF9172
:10253000BF91AF919F918F917F916F915F914F91DB
:102540003F912F910F900FBE0F901F9018951F92E3
:102550000F920FB60F9211242F933F934F935F93D7
:102560006F937F938F939F93AF93BF93EF93FF935B
:10257000E0910001F09101010995FF91EF91BF9168
:10258000AF919F918F917F916F915F914F913F910B
:102590002F910F900FBE0F901F9018956115710528
:1025A00079F0FB0101900020E9F73197AF01461B5C
:1025B000570BDC01ED91FC910280F381E02D099431
:1025C00080E090E008950C94CE121F920F920FB607
:1025D0000F9211242F933F934F935F936F937F93A9
:1025E0008F939F93AF93BF93EF93FF9381E595E014
:1025F0000E941611FF91EF91BF91AF919F918F9122
:102600007F916F915F914F913F912F910F900FBEEE
:102610000F901F9018951F920F920FB60F921124D2
:102620002F938F939F93EF93FF93E0916105F09128
:1026300062058081E0916705F091680582FD12C016
:10264000908180916A058F5F8F7320916B0582174F
:1026500051F0E0916A05F0E0EF5AFA4F958F8093C0
:102660006A0501C08081FF91EF919F918F912F9119
:102670000F900FBE0F901F9018951F920F920FB6DC
:102680000F9211242F933F934F935F936F937F93F8
:102690008F939F93AF93BF93EF93FF93E091820249
:1026A000F09183020995FF91EF91BF91AF919F91B6
:1026B0008F917F916F915F914F913F912F910F90EB
:1026C0000FBE0F901F901895EF92FF920F931F93DC
:1026D000CF93DF93EC0169813881432F50E08A81E9
:1026E00090E0E2EDF0E021E0261730F47491870FDE
:1026F000911D2F5F3196F8CF633018F0337009F4D5
:1027000001966DE671E0469F9001479F300D569F00
:10271000300D1124215031094D5F5F4F569547957B
:1027200056954795240F351F280F391FA8E1B0E0B3
:102730000E94F9232B817B018C01E20EF11C011D0B
:10274000111DA8019701ACE3B0E00E94B7232C81D2
:102750007B018C01E20EF11C011D111DA8019701E6
:102760000E94B7232D81DC01CB01820F911DA11D99
:10277000B11DBC01CD0160587C4B8249974CDF9163
:10278000CF911F910F91FF90EF9008958F929F929C
:10279000AF92BF92CF92DF92EF92FF92CF93DF93EF
:1027A000EC016A017B0180E8C81A83E4D80A8DE64F
:1027B000E80A88E3F80A8CE3882E912CA12CB12C2E
:1027C000C701B601A50194010E9472246D83CA015C
:1027D000B901A50194010E9472246C83C701B6015E
:1027E00020E13EE040E050E00E947224CA01B901BD
:1027F00028E130E040E050E00E9472246B83C70182
:10280000B60120E831E541E050E00E9472241882D0
:102810004881542F537081E009F080E090E0BC01C2
:1028200063597E4F2617370738F0281B390B2D5672
:1028300031404F5F4883ECCF81E089838981E82F65
:10284000F0E0EF52FF4FE491511103C0823009F4E0
:10285000EF5FF0E02E173F0720F02E1B3F0B8F5F3E
:10286000ECCF2F5F2A83DF91CF91FF90EF90DF9025
:10287000CF90BF90AF909F908F9008951F920F922E
:102880000FB60F9211242F933F934F935F936F9343
:102890007F938F939F93AF93BF93EF93FF93809119
:1028A000B900887F803609F49CC068F5883209F445
:1028B0005BC090F4803109F454C038F4882309F4E3
:1028C000F6C0883009F44DC0F6C0883109F44CC018
:1028D000803209F45DC0EFC0803409F468C048F468
:1028E000803309F455C0883309F0E5C080932B0587
:1028F000D8C0803509F44FC0883509F45DC08834EC
:1029000009F0D9C0D6C0883909F4C7C0A8F48837FF
:1029100009F467C038F4883609F463C0803709F4D5
:1029200060C0C9C0883809F4B8C0803909F45FC0F4
:10293000803809F0C0C05BC0803B09F486C038F421
:10294000803A09F466C0883A09F47FC0B4C0803C7C
:1029500009F4A7C0883C09F4A4C0883B09F48AC0E4
:10296000AAC08091080510C090912A058091290580
:10297000981770F5E0912A0581E08E0F80932A0563
:10298000F0E0E75FFA4F80818093BB0085EC86C062
:1029900080932B058EC0E0912A0581E08E0F8093F5
:1029A0002A058091BB00F0E0E75FFA4F80839091A9
:1029B0002A05809129056EC0E0912A0581E08E0FDD
:1029C00080932A058091BB00F0E0E75FFA4F808397
:1029D00080912C0581116DC081E08093070584EA08
:1029E00061C083E080932D0510929906CFCF80912E
:1029F0009906803208F051C0E091990681E08E0F6F
:102A0000809399068091BB00F0E0E758F94F8083EE
:102A1000BDCF85EC8093BC0010922D058091990666
:102A2000803230F4E0919906F0E0E758F94F1082D7
:102A30006091990670E0E0918402F091850289E747
:102A400096E009951092990636C084E080932D0592
:102A50001092780610927706E0918602F091870234
:102A6000099580917706811105C081E080937706F2
:102A700010925706E091780681E08E0F80937806D9
:102A8000F0E0E95AF94F80818093BB00909178067D
:102A900080917706981708F479CF85E88093BC0079
:102AA0000AC085EC8093BC0010922D0504C01092E2
:102AB0002B050E94B111FF91EF91BF91AF919F91B2
:102AC0008F917F916F915F914F913F912F910F90D7
:102AD0000FBE0F901F901895809152068823A9F180
:102AE0004091040150910501609106017091070128
:102AF00023EE32E08091E3049091E4040E944D05BE
:102B0000811102C080E0089540915306509154060F
:102B10006091550670915606411551056105710584
:102B200091F023EE32E08091E3049091E4040E945E
:102B30004D05882339F310925306109254061092D3
:102B40005506109256061092520681E008958F9213
:102B50009F92AF92BF92EF92FF920F931F93CF93EA
:102B60004B015C01C42F8091040190910501A0915B
:102B70000601B091070188159905AA05BB0501F169
:102B80000E946C15811102C080E020C083EEE82E07
:102B900082E0F82E00E012E020E030E0B501A40170
:102BA0008091E3049091E4040E94B904882361F3C6
:102BB0008092040190920501A0920601B092070153
:102BC00080915206C82BC093520681E0CF911F918D
:102BD0000F91FF90EF90BF90AF909F908F900895CE
:102BE0004F925F926F927F928F929F92AF92BF921D
:102BF000CF92DF92EF92FF920F931F93CF93DF93C9
:102C0000EC01423051056105710510F480E078C097
:102C100089859A85AB85BC850196A11DB11D841758
:102C20009507A607B70790F3CB88DC88ED88FE8868
:102C30008F89803129F4BB27A72F962F852F09C0B4
:102C4000DB01CA01E7E0B695A79597958795EA95C8
:102C5000D1F7480159012A013B01C80ED91EEA1ECD
:102C6000FB1E8091040190910501A0910601B09195
:102C70000701C816D906EA06FB0681F48F89803160
:102C8000A9F4B301A201552766277727440F551FE2
:102C9000FA01ED51FD4F9182808219C040E0C701D9
:102CA000B6010E94A7158111E9CFB0CFB301A201EF
:102CB0004F77552766277727440F551F440F551F19
:102CC000FA01ED51FD4F80829182A282B382809100
:102CD00052068160809352068A89823080F08D810D
:102CE0009E81AF81B885C80ED91EEA1EFB1EC09218
:102CF0005306D0925406E0925506F092560681E0B3
:102D0000DF91CF911F910F91FF90EF90DF90CF90C7
:102D1000BF90AF909F908F907F906F905F904F90FB
:102D200008958F929F92AF92BF92CF92DF92EF92CF
:102D3000FF920F931F93CF93DF93FC0181859285C0
:102D4000A385B4850196A11DB11D84179507A6071B
:102D5000B70710F480E05BC083889488A588B688A4
:102D60008789803129F4BB27A72F962F852F09C08B
:102D7000DB01CA01C7E0B695A79597958795CA95D7
:102D8000D1F7E9016A017B018F01BC01CD01680D1A
:102D9000791D8A1D9B1D8090040190900501A090D3
:102DA0000601B0900701681579058A059B0591F425
:102DB000F80187898031A1F4DD24EE24FF24C601C7
:102DC000880F991FFC01ED51FD4F80819181A0E09A
:102DD000B0E018C040E00E94A7158111E9CFBACF3A
:102DE000E894C7F8DD24EE24FF24C601880F991F5C
:102DF000880F991FFC01ED51FD4F80819181A281C7
:102E0000B381BF7088839983AA83BB8381E0DF91FC
:102E1000CF911F910F91FF90EF90DF90CF90BF90D7
:102E2000AF909F908F9008952F923F924F925F9214
:102E30006F927F928F929F92AF92BF92CF92DF92CA
:102E4000EF92FF920F931F93CF93DF93CDB7DEB72F
:102E50002B970FB6F894DEBF0FBECDBF7C01FE01ED
:102E60003196CE010C966F0130E23193E817F907E5
:102E7000E1F7DA0130E087E09D91992331F19E324C
:102E800031F48A3009F479C138E08AE0F5CFE2EC18
:102E9000F0E04491442321F031969413FACF6DC1B0
:102EA000831708F46AC14FED490F4E3508F065C12C
:102EB00041E0430FF601E30FF11D3FE9390F3A31CD
:102EC00008F490529083342FD7CF8981803209F44F
:102ED00054C1322E8B01DB015B968D919C915C97E6
:102EE000F701948F838F16961D921D921D921C924E
:102EF0001997FB011286138614861586B12CF801EA
:102F000082859385A485B5854389548965897689A9
:102F100084179507A607B70708F05BC025E0B695AC
:102F2000A795979587952A95D1F7F82FFF70AF2E23
:102F3000D80115968C91823008F41FC1C8010E94F7
:102F4000C70797FD1AC1F80182859385A485B585C9
:102F50004F96A11DB11D82879387A487B587F0E2A4
:102F6000AF9EB00111246D517D4F6115710509F4BB
:102F700004C1DB018C91882319F0853EC1F4FFC0A8
:102F8000B1100EC0F701A28A809104019091050151
:102F9000A0910601B091070186879787A08BB18B1E
:102FA000DB018C91882399F0BB24B394A8CF4BE02C
:102FB00050E0C6010E94C025892B09F0A0CF832DC7
:102FC0008073803309F4D9C0432D6A2DD2C0BB244D
:102FD000B394832D8271823109F0CFC0BB20C9F038
:102FE000F701668577858089918941E00E94A71560
:102FF000882309F4C2C0D70152960C91B0E20B9F0E
:10300000800111240D511D4F0115110509F078C0E3
:10301000B4C0F8018581823009F4AFC0C8010E94B4
:10302000FE02882309F4A9C0D8015B96ED91FC91BA
:103030005C9716968D909D90AD90BC901997B2E0DC
:103040008B1A9108A108B108058404C0880C991C4A
:10305000AA1CBB1C0A94D2F786859785A089B189E2
:10306000880E991EAA1EBB1E2480E1E08E1A9108CC
:10307000A108B108222009F124013501420C511C9C
:10308000611C711C0E946C15882309F476C0E3EE64
:10309000F2E0119224E0E33EF207D9F740920401F6
:1030A00050920501609206017092070180915206CC
:1030B0008160809352062A94DDCFD8015B96ED9112
:1030C000FC915C9780E092E0A0E0B0E0058404C051
:1030D000880F991FAA1FBB1F0A94D2F7F8014389D2
:1030E000548965897689840F951FA61FB71F838B26
:1030F000948BA58BB68BD70152961C9203EE12E0EF
:1031000080E2F80111928A95E9F78BE0F601D80187
:1031100001900D928A95E1F7E0918802F091890281
:10312000309739F0B801625F7F4FC801409609952A
:103130000DC081E298E2D80151969C938E935097EE
:1031400080E098E01F969C938E931E97F8018089EB
:103150009189938B828B918F808F86859785978BB2
:10316000868B0E946C15882341F0432DD70152961F
:103170006C91C7010E94F50105C080E003C0B11049
:1031800013CF00CF2B960FB6F894DEBF0FBECDBF86
:10319000DF91CF911F910F91FF90EF90DF90CF9033
:1031A000BF90AF909F908F907F906F905F904F9067
:1031B0003F902F9008953FB7F89480919F0690918B
:1031C000A006A091A106B091A20626B5A89B05C0B5
:1031D0002F3F19F00196A11DB11D3FBFBA2FA92F96
:1031E000982F8827820F911DA11DB11DBC01CD0113
:1031F00042E0660F771F881F991F4A95D1F70895FF
:103200002FB7F89460919B0670919C0680919D0663
:1032100090919E062FBF08951F920F920FB60F92A6
:1032200011242F933F938F939F93AF93BF938091DC
:103230009B0690919C06A0919D06B0919E063091B0
:103240009A0623E0230F2D3720F40196A11DB11D0E
:1032500005C026E8230F0296A11DB11D20939A06F2
:1032600080939B0690939C06A0939D06B0939E0628
:1032700080919F069091A006A091A106B091A20610
:103280000196A11DB11D80939F069093A006A09367
:10329000A106B093A206BF91AF919F918F913F91EC
:1032A0002F910F900FBE0F901F901895CF93DF9323
:1032B000CDB7DEB7CA56D1090FB6F894DEBF0FBE40
:1032C000CDBF789484B5826084BD84B5816084BDAF
:1032D00085B5826085BD85B5816085BD80916E00B4
:1032E000816080936E0010928100809181008260E5
:1032F0008093810080918100816080938100809122
:1033000080008160809380008091B1008460809310
:10331000B1008091B00081608093B00080917A000C
:10332000846080937A0080917A00826080937A0032
:1033300080917A00816080937A0080917A00806821
:1033400080937A001092C1001092CA021092C902B2
:103350001092CC021092CB021092CE0261E087E074
:103360000E94070F60E087E00E94D80E61E088E0CD
:103370000E94070F60E088E00E94D80E1092C702FA
:1033800062E086E00E94070F62E085E00E94070F7E
:10339000109281021092800282E58093CF0285E034
:1033A0000E94AF0E892B19F489E48093CF0280919B
:1033B000CF02893419F480ED97E004C0823551F4CE
:1033C00088EC90E09093D3028093D2021092D102C5
:1033D0001092D002E0916105F091620582E0808355
:1033E000E0915D05F0915E051082E0915F05F0913E
:1033F000600580E1808310926905E0916505F09198
:10340000660586E08083E0916305F0916405808124
:1034100080618083E0916305F0916405808188601C
:103420008083E0916305F0916405808180688083EA
:10343000E0916305F091640580818F7D808384E64F
:1034400090E0A0E0B0E08093550590935605A093DE
:103450005705B093580580E791E09F938F9385E7D8
:1034600091E09F938F9385E992E09F938F930E94C1
:10347000E72565E972E081E595E00E94E3128FE0BF
:10348000809347060E94E60F0F900F900F900F90C9
:103490000F900F908091CF02823511F480E501C02A
:1034A00080E18E8F86E08F8F86E688A38FE689A3E2
:1034B00040E064E0CE014E960E94B10F60ED77E0EF
:1034C00080E090E00E946A100E94E60F81E0809305
:1034D0008B0280938A028DEF99E09093890280930A
:1034E000880280912B06882321F086E296E00E94D4
:1034F000F202109207061092050610920206109230
:1035000001068AE0809300060E9400198B0161E0A9
:10351000809100060E94070F61E0809100060E94E2
:10352000D80EFFB6F89480919402811127C0E0E98B
:10353000F0E08491E4EAF0E09491E82FF0E0EE0FFF
:10354000FF1FE859FF4FA591B491EC91E92321F4B5
:1035500061E08AE00E94D80E61E08AE00E94070FD5
:103560008CB580618CBD8CB580648CBD61E08DE0D4
:103570000E94070F61E08BE00E94070F8091940288
:103580008F5F80939402FFBE82E58093FA051092CC
:10359000FB058091FA059091FB050E945104BAE069
:1035A000FB2E8FEF0E941204FA94F110FACF8CEFE9
:1035B00095E00E94540420E030E0A90160E08CEF27
:1035C00095E00E946A04F82E8093060621E0821797
:1035D00049F00E940019601B710B613D774058F360
:1035E00081E056C02AEA31E040E050E068E08CEF2C
:1035F00095E00E946A0482FF03C0F092070610C0A3
:10360000A4E0FA2E0E94190480930606FA94F110A1
:10361000F9CF8A3A11F082E03BC082E0809307063E
:1036200080910706823031F4C12CD12CE12CF0E4DA
:10363000FF2E03C0C12CD12C760120E030E0A9017F
:1036400067E38CEF95E00E946A04A701960169E2A6
:103650008CEF95E00E946A0480930606882349F067
:103660000E940019601B710B613D774030F388E0C8
:103670000FC080910706823001F520E030E0A901FB
:103680006AE38CEF95E00E946A04882341F086E0AB
:10369000809301068CEF95E00E94070428C00E94E9
:1036A0001904807C803C19F483E0809307060E9413
:1036B00019040E9419040E9419048CEF95E00E94DD
:1036C000070480E58093FA051092FB0581E00E94D3
:1036D0002B0C882339F086E296E00E94D70B8823D2
:1036E00031F007C080E00E942B0C8111F4CF80E004
:1036F000EDC41092930281E0809392028093910234
:1037000090E1909381001092800093E0909390025A
:1037100022E13AE7309387002093860093E190936B
:10372000810025ED30E03093830220938202809364
:103730006F00109281001092850010928400909189
:1037400090029061909381004FE458E169E47CE538
:1037500040938C0250938D0260938E0270938F027F
:103760001092E6041092E50410922F051092500575
:1037700010922D0580932C051092070561E082E1DF
:103780000E94D80E61E083E10E94D80E8091B900BA
:103790008E7F8093B9008091B9008D7F8093B900AE
:1037A00088E48093B80085E48093BC0083EE91E1C7
:1037B000909387028093860284EE91E19093850234
:1037C0008093840288E60E941B0B80E090E00E94B8
:1037D000160B0E94BA0A87E090E00E94250B8EEE3D
:1037E00095E00E94F5118F77982F92959F701AEFB0
:1037F000082F919F000D11248EEE95E00E94F51187
:103800009C01332744E0359527954A95E1F7F82E3A
:10381000129FF00C11248EEE95E00E94F5119C0190
:10382000332754E0359527955A95E1F7E82E129FF6
:10383000E00C11248EEE95E00E94F5118EEE95E0DD
:103840000E94F5119C01332764E0359527956A9510
:10385000E1F7D82E129FD00C11248EEE95E00E9435
:10386000F5119C01332774E0359527957A95E1F79A
:10387000C82E129FC00C11248EEE95E00E94F51107
:103880009C013327E4E035952795EA95E1F7129FEF
:10389000800D11248983CA82DB82EC82FD820E8333
:1038A000CE0101960E94641360938C0270938D0286
:1038B00080938E0290938F0288E60E941B0B8EE00D
:1038C00090E00E94160B0E94BA0A81E090E00E94EC
:1038D000250B8EEE95E00E94F511182F88E60E94C8
:1038E0001B0B8EE090E00E94160B612F63728EEE30
:1038F00095E00E943E120E94BA0A62E080E00E94B7
:10390000070F8BE391E09093010180930001809178
:1039100069008C7F816080936900E89A6FE871E0AC
:1039200081E595E00E94CE1264EA71E081E595E0C0
:103930000E94CE1200914A0630914B06A9963FAFE5
:10394000A99780914C06A8968FAFA897F0904D0646
:10395000A796FFAEA79790914E06A6969FAFA69703
:1039600020919302222309F439C2233009F497C02D
:1039700030F4213059F0223009F455C02CC22430E3
:1039800009F4C4C0253009F403C125C210E0005376
:10399000184F80919202882379F0809191028823B8
:1039A00039F020E044E060E0C8010E94FD0F02C051
:1039B0000E94E60F10929202BE0167597F4FCE011E
:1039C00086599F4F0E94E408AB969FADAB97AA968D
:1039D0008FADAA97911123C0882309F43AC4C80176
:1039E000805D97408336910518F40F5F1F4F02C02A
:1039F00000ED17E010928100109285001092840073
:103A00008091900280618093810081E08093920296
:103A100080939102005D174000934A0637C08111E0
:103A200018C482E039C080919202882381F080918D
:103A30009102882341F020E042E060E0832F90E093
:103A40000E94FD0F02C00E94E60F10929202BE017A
:103A500067597F4FCE0186599F4F0E94E408AB966D
:103A60009FADAB97AA968FADAA97911112C08823EC
:103A700009F4EFC34CE061E0CE0188599F4F0E94EA
:103A8000E209A9968FADA99780934B0610924F0635
:103A9000E0C38111DEC383E00E94CF09DAC39091B5
:103AA0009202992379F090919102992339F022E0C2
:103AB00042E060E090E00E94FD0F02C00E94E60F2D
:103AC00010929202BE0167597F4FCE0186599F4FD7
:103AD0000E94E408AB969FADAB97AA968FADAA97CC
:103AE000911110C0882309F4B4C34FE161E0CE0105
:103AF00089599F4F0E94E209A8968FADA89780939D
:103B00004C06C4CF8111A5C384E0C6CF8091920238
:103B10008823D1F080919102092F10E0882351F081
:103B200020E044E060EEC801E4E6FE9E800D911DB9
:103B3000112406C00E94E60F22E042E060EEC801B8
:103B40000E94FD0F10929202BE0167597F4FCE0175
:103B500086599F4F0E94E408AB969FADAB97AA96FB
:103B60008FADAA97911110C0882309F472C347E161
:103B700060E0CE018A599F4F0E94E209A7968FAD5F
:103B8000A79780934D0682CF811163C385E084CFD0
:103B9000809192028823D1F080919102882359F07C
:103BA000892F90E020E044E060EEF4E6FF9E800D77
:103BB000911D112407C00E94E60F20E042E060EE54
:103BC0008F2D90E00E94FD0F10929202BE01675966
:103BD0007F4FCE0186599F4F0E94E408AB969FAD60
:103BE000AB97AA968FADAA97911110C0882309F4BC
:103BF00030C34BE360E0CE018B599F4F0E94E20936
:103C0000A6968FADA69780934E0640CF811121C313
:103C100000914A0688E60E941B0B86E090E00E9415
:103C2000160B1AE0802F612F0E943E24692F20E19D
:103C3000829F600D11248EEE95E00E943E120E943C
:103C4000BA0A00914B0688E60E941B0B85E090E0C3
:103C50000E94160B802F612F0E943E24692F30E1B5
:103C6000839F600D11248EEE95E00E943E120E940B
:103C7000BA0A00914C0688E60E941B0B84E090E093
:103C80000E94160B802F612F0E943E24692FE0E1D5
:103C90008E9F600D11248EEE95E00E943E120E94D0
:103CA000BA0A00914D0688E60E941B0B82E090E064
:103CB0000E94160B0E94BA0A81E090E00E94250B38
:103CC0008EEE95E00E94F51186FF18C00D3060F071
:103CD00084EF800F612F0E943E24192FF0E18F9F07
:103CE000100D1124106614C0802F612F0E943E24F5
:103CF000192F20E1829F100D11240AC0802F612FFF
:103D00000E943E24192F30E1839F100D11241F7B48
:103D100088E60E941B0B82E090E00E94160B612F48
:103D20008EEE95E00E943E120E94BA0A10914E0655
:103D300088E60E941B0B81E090E00E94160B812F09
:103D40006AE00E943E24692FE0E18E9F600D1124FD
:103D50008EEE95E00E943E120E94BA0A88E60E940A
:103D60001B0B80E090E00E94160B60E08EEE95E069
:103D70000E943E120E94BA0A88E60E941B0B8FE046
:103D800090E00E94160B0E94BA0A81E090E00E9427
:103D9000250B8EEE95E00E94F511182F88E60E9403
:103DA0001B0B8FE090E00E94160B612F6F778EEE59
:103DB00095E00E943E120E94BA0A8AE496E00E94B0
:103DC000641360938C0270938D0280938E029093A3
:103DD0008F0280E061CE109293023BC28091CF02AD
:103DE000823509F0BDC01091CE02812F90E065E0D0
:103DF00070E0681B790B87539D4F0E945E0E8823ED
:103E000009F46AC1180F1093CE02153009F021C2CF
:103E10002091C9023091CA023227232732273093DA
:103E2000CA022093C9028091CB029091CC029827BC
:103E3000892798279093CC028093CB026091D2027D
:103E40007091D3022617370708F087C04091D0023F
:103E50005091D1024217530708F07FC08617970789
:103E600008F07BC04817590708F077C08091C80256
:103E7000882309F472C061E088E00E94D80E109394
:103E8000C70240918C0250918D0260918E02709118
:103E90008F02CE014E960E94C613CE0101960E945B
:103EA0006B0DEA8DFB8D309709F453C08581882313
:103EB00009F44FC08091CD0240918C0250918D0247
:103EC00060918E0270918F02982F92701F929F9333
:103ED00081701F928F938091CC028F938091CB023F
:103EE0008F938091CA028F938091C9028F938BA187
:103EF0001F928F938AA11F928F9389A11F928F93F4
:103F000088A11F928F938F8D1F928F938E8D90E03B
:103F10008053984F9F938F937F936F935F934F93AB
:103F200087EA91E09F938F9385E992E09F938F9327
:103F30000E94E72565E972E0CE0101960E94E31236
:103F4000CE0101960E94590D0FB6F894DEBF0FBE48
:103F5000CDBF60E088E00E94D80E1092CE0279C1F9
:103F6000893409F0B9C00091CE02802F90E062E060
:103F700070E0681B790B87539D4F0E945E0E182FCF
:103F8000882309F4A9C001110CC08091C902982F9F
:103F9000907F29F011508091CA021111F8CF8093BF
:103FA000C902010F023008F493C01092CE02809132
:103FB000C9029091CA029827892798279093CA022C
:103FC0008093C9022091C802222309F483C097700C
:103FD0002091D2023091D3022817390708F47AC011
:103FE0002091D0023091D1028217930708F472C059
:103FF00061E088E00E94D80E40918C0250918D02C1
:1040000060918E0270918F02CE014E960E94C6136F
:10401000CE0101960E946B0DEA8DFB8D309709F45D
:1040200054C08581882309F450C08091C9029091C1
:10403000CA029C01377093FF03C088EE93E002C070
:1040400080E090E040918C0250918D0260918E0250
:1040500070918F023F932F939F938F938BA11F9209
:104060008F938AA11F928F9389A11F928F9388A10A
:104070001F928F938F8D1F928F938E8D90E0805320
:10408000984F9F938F937F936F935F934F9386ED9A
:1040900091E09F938F9385E992E09F938F930E9485
:1040A000E72565E972E0CE0101960E94E312CE0198
:1040B00001960E94590D60E088E00E94D80E0FB66C
:1040C000F894DEBF0FBECDBF05C083E00E947C091F
:1040D0000093CE021111BDC01092CE0280918B02CE
:1040E0008823F1F010928B0240918C0250918D0246
:1040F00060918E0270918F02CE0101960E94C613CC
:104100002C818D8190E0E4E62E9F800D911D11247D
:1041100020918A022111A0C044E060EE0E94FD0FB0
:10412000BE0167597F4FCE0186599F4F0E94E40818
:104130009091C802992309F493C0AB968FADAB97C9
:10414000882309F4F8C0AA962FADAA972111F3C0CD
:1041500081E0292E28262092C802222009F4E6C0F8
:10416000C12CD12C9CE5A92E91E0B92EDF92CF92E3
:104170008091CF02282F082E000C330B3F938F9392
:104180002FEF31E03F932F93E6EDF2E0FF93EF93B3
:104190000E94E7251EAE1DAEBCAEABAE21961FAE93
:1041A000219719A218A2BF8EAE8E1BA20FB6F8944B
:1041B000DEBF0FBECDBF612C712CFE01FB967F01CF
:1041C00006E216E0C301F301EA52FD4F20812F32CF
:1041D00009F40196DC01AA52BD4FFE01E85AFF4FD7
:1041E00020E030E04F014D914F3209F05CC0F40106
:1041F000E20FF31F1082FC01EA52FD4F20812F32A3
:1042000009F401963C01FC01EA52FD4F30801C820A
:104210001B82BA82A9821E8221E0A401B801CE01CC
:1042200001960E94141781114AC0F6E006321F075A
:1042300009F026C161E087E00E94D80ECE01019608
:104240000E946B0DEA8DFB8D309719F085818111ED
:10425000E7C00E94A7116ECB20E044E060E05ECF93
:10426000AB968FADAB97882309F467CFAA968FAD35
:10427000AA97882309F461CF40918C0250918D0256
:1042800060918E0270918F02CE0101960E94C6133A
:1042900086E0FE013196AAE4B6E001900D928A957F
:1042A000E1F781E0F9CB442309F4A1CF2F5F3F4F21
:1042B000019641932C30310509F095CF98CFCE016E
:1042C00001960E94F2023320E1F0F701858181110D
:1042D000D2C021E0A401B801C7010E941417982E92
:1042E000F6E006321F0709F4BFC0C8010E94F202BF
:1042F000992009F49FCF902F812F8701E92EF82E66
:1043000061CF26E00632120719F0C8010E94F202BE
:10431000222009F48FCF3FEFC31AD30A88EEC816C4
:1043200083E0D80609F022CF82E0D0CE60E087E0BB
:104330000E94D80E8ECFAA969FADAA97992309F412
:1043400088CF811186CF88E60E941B0B81E190E027
:104350000E94160B0E94BA0A82E090E00E94250B90
:104360009091E5048091E6049817F9F08EEE95E0BF
:104370000E94F511182F8EEE95E00E94F511512E36
:10438000412CB201682B86E0759567958A95E1F717
:10439000072E000C880B990B0E94BE2220E030E013
:1043A00040E85EE30E94F92204C060E07CE38CE117
:1043B00096EC0E9408249B0119821A821B821C829F
:1043C00049E34C8377FF0BC022273327261B370B8B
:1043D00080E42A30310514F48A8301C08983C9013D
:1043E0006AE070E00E945E24FC01EE5EFE4F808178
:1043F0008B832A3031053CF06F70E62FF0E0EE5EE3
:10440000FE4F80818A8340E064E0CE0101960E94E5
:10441000B10F68EB7BE080E090E00E946A1019CF5A
:104420006EE072E0CE0101960E94E31266ED72E04A
:10443000CE0101960E94E31265EA71E0CE01019679
:104440000E94E3128091CF02893419F465E172E091
:1044500002C06DE372E0CE0101960E94E312CE012C
:1044600001960E94590DF5CE882309F4E3CE8E0102
:10447000025E1F4F40CF96E00632190709F4DACEEC
:10448000C8010E94F202D6CECF93DF93E1E5F5E0BA
:104490001382128288EE93E0A0E0B0E084839583DB
:1044A000A683B78328E331E03183208325EC30E015
:1044B0003587248724EC30E03787268720EC30E0EE
:1044C000318B208B21EC30E0338B228B22EC30E0DF
:1044D000358B248B26EC30E0378B268B118E128E99
:1044E000138E148EEEEEF5E0138212828483958390
:1044F000A683B7838AE491E091838083EAEFF5E0B5
:1045000080E580831182ECEFF5E01582168211863A
:10451000138682E090E0A0E0B0E084879587A687CC
:10452000B78713A215A614A68CE591E093A782A7DE
:1045300017A640E050E0BA018AE496E00E94C61354
:10454000C5E4D6E083E0888384E0898384E690E054
:104550009C838B8360E083E00E94070F60E0898189
:104560000E94070F60E088810E94D80E60E0898178
:10457000DF91CF910C94D80EE89409C097FB3EF4DC
:1045800090958095709561957F4F8F4F9F4F9923A0
:10459000A9F0F92F96E9BB279395F695879577951E
:1045A0006795B795F111F8CFFAF4BB0F11F460FFDE
:1045B0001BC06F5F7F4F8F4F9F4F16C0882311F036
:1045C00096E911C0772321F09EE8872F762F05C04A
:1045D000662371F096E8862F70E060E02AF09A95E5
:1045E000660F771F881FDAF7880F9695879597F9DA
:1045F00008950E940C230C947D230E946F2338F0B1
:104600000E94762320F0952311F00C9466230C94DD
:104610006C2311240C94B1230E948E2370F3959F78
:10462000C1F3950F50E0551F629FF001729FBB27A9
:10463000F00DB11D639FAA27F00DB11DAA1F649F45
:104640006627B00DA11D661F829F2227B00DA11DF8
:10465000621F739FB00DA11D621F839FA00D611D7E
:10466000221F749F3327A00D611D231F849F600D9F
:10467000211D822F762F6A2F11249F5750409AF0C8
:10468000F1F088234AF0EE0FFF1FBB1F661F771F54
:10469000881F91505040A9F79E3F510580F00C941F
:1046A00066230C94B1235F3FE4F3983ED4F38695E0
:1046B00077956795B795F795E7959F5FC1F7FE2BBF
:1046C000880F911D9695879597F9089597F99F679B
:1046D00080E870E060E008959FEF80EC089500248A
:1046E0000A941616170618060906089500240A9457
:1046F00012161306140605060895092E0394000CDD
:1047000011F4882352F0BB0F40F4BF2B11F460FF6B
:1047100004C06F5F7F4F8F4F9F4F089557FD905894
:10472000440F551F59F05F3F71F04795880F97FB75
:10473000991F61F09F3F79F087950895121613062F
:104740001406551FF2CF4695F1DF08C0161617065E
:104750001806991FF1CF8695710561050894089593
:10476000E894BB2766277727CB0197F908950E9425
:10477000F923A59F900DB49F900DA49F800D911DCE
:10478000112408952F923F924F925F926F927F92E1
:104790008F929F92AF92BF92CF92DF92EF92FF9251
:1047A0000F931F93CF93DF93CDB7DEB7CA1BDB0BFD
:1047B0000FB6F894DEBF0FBECDBF09942A883988A2
:1047C00048885F846E847D848C849B84AA84B984A9
:1047D000C884DF80EE80FD800C811B81AA81B981B5
:1047E000CE0FD11D0FB6F894DEBF0FBECDBFED01C9
:1047F0000895A29FB001B39FC001A39F700D811DBA
:104800001124911DB29F700D811D1124911D0895D9
:104810000E940F246894B1110C94B12308950E9452
:10482000962388F09F5798F0B92F9927B751B0F089
:10483000E1F0660F771F881F991F1AF0BA95C9F724
:1048400014C0B13091F00E94B023B1E008950C94EF
:10485000B023672F782F8827B85F39F0B93FCCF3A2
:10486000869577956795B395D9F73EF490958095A1
:10487000709561957F4F8F4F9F4F0895991B79E0F9
:1048800004C0991F961708F0961B881F7A95C9F7E0
:1048900080950895AA1BBB1B51E107C0AA1FBB1F2F
:1048A000A617B70710F0A61BB70B881F991F5A95BC
:1048B000A9F780959095BC01CD01089597FB072E2F
:1048C00016F4009407D077FD09D00E944A2407FC13
:1048D00005D03EF4909581959F4F08957095619510
:1048E0007F4F0895A1E21A2EAA1BBB1BFD010DC02C
:1048F000AA1FBB1FEE1FFF1FA217B307E407F50790
:1049000020F0A21BB30BE40BF50B661F771F881F6B
:10491000991F1A9469F760957095809590959B0101
:10492000AC01BD01CF010895EE0FFF1F0590F4917A
:10493000E02D09940F931F93CF93DF93823091055D
:1049400010F482E090E0E091A506F091A60620E048
:1049500030E0A0E0B0E0309719F140815181028150
:10496000138148175907C8F08417950769F4109701
:1049700031F012960C93129713961C9327C0009354
:10498000A5061093A60622C02115310519F042177D
:10499000530718F49A01BD01EF01DF01F801DBCFE5
:1049A00021153105F9F0281B390B2430310580F42D
:1049B0008A819B816115710521F0FB0193838283BC
:1049C00004C09093A6068093A506FE01329644C0CB
:1049D000FE01E20FF31F8193919322503109398335
:1049E00028833AC02091A3063091A406232B41F4DA
:1049F00020910A0130910B013093A4062093A30665
:104A000020910801309109012115310541F42DB79C
:104A10003EB740910C0150910D01241B350BE091E4
:104A2000A306F091A406E217F307A0F42E1B3F0B98
:104A30002817390778F0AC014E5F5F4F2417350710
:104A400048F04E0F5F1F5093A4064093A306819336
:104A5000919302C0E0E0F0E0CF01DF91CF911F9190
:104A60000F910895CF93DF93009709F481C0FC0163
:104A7000329713821282A091A506B091A6061097D4
:104A800081F420813181820F931F2091A306309100
:104A9000A4062817390751F5F093A406E093A3065E
:104AA00067C0ED0120E030E0CE17DF0740F44A8117
:104AB0005B819E0141155105F1F0EA01F5CFD383E9
:104AC000C28340815181840F951FC817D90759F4BB
:104AD00088819981840F951F0296918380838A81B2
:104AE0009B81938382832115310529F4F093A606D7
:104AF000E093A5063DC0E901FB83EA834991599102
:104B0000C40FD51FEC17FD0761F480819181840FDC
:104B1000951F0296E90199838883828193819B8303
:104B20008A83E0E0F0E012968D919C9113970097B4
:104B300019F0FD01DC01F7CF8D919C9111979D013A
:104B40002E5F3F4F820F931F2091A3063091A40642
:104B50002817390769F4309729F41092A6061092A5
:104B6000A50602C013821282B093A406A093A306E6
:104B7000DF91CF91089581E090E0F8940C949A2809
:104B8000FB01DC0104C08D910190801921F441509A
:104B90005040C8F7881B990B0895FC018191861736
:104BA00021F08823D9F7992708953197CF010895E7
:104BB000FB01DC014150504048F001900D92002073
:104BC000C9F701C01D9241505040E0F70895AEE092
:104BD000B0E0EDEEF5E20C94D0230D891E8986E05D
:104BE0008C831A8309838FEF9FE79E838D83AE01A9
:104BF000475E5F4F6F89788DCE0101960E9409262E
:104C0000EF81F885E00FF11F10822E96E4E00C94FE
:104C1000EC23ABE0B0E0EFE0F6E20C94C2236C01D1
:104C20007B018A01FC0117821682838181FFCCC13E
:104C3000CE0101963C01F6019381F70193FD859128
:104C400093FF81917F01882309F4BAC1853239F439
:104C500093FD859193FF81917F01853229F4B601FF
:104C600090E00E940028E7CF912C212C312CFFE10D
:104C7000F315D8F08B3279F038F4803279F0833242
:104C8000A1F4232D20611DC08D3261F0803369F4C1
:104C9000232D216016C0832D8260382EE32DE46021
:104CA0003E2E2AC0F32DF8601DC037FC2DC020ED2C
:104CB000280F2A3040F08E32B9F436FC81C1232D02
:104CC0002064322E19C036FE06C08AE0989E200D60
:104CD0001124922E11C0EAE02E9E200D1124222EC6
:104CE000F32DF0623F2E08C08C3621F4832D8068AE
:104CF000382E02C0883641F4F70193FD859193FF69
:104D000081917F018111B3CF982F9F7D955493306E
:104D100028F40C5F1F4F9FE399830DC0833631F059
:104D2000833771F0833509F059C021C0F8018081C3
:104D300089830E5F1F4F88248394912C530113C0E5
:104D40002801F2E04F0E511CF801A080B18036FE20
:104D500003C0692D70E002C06FEF7FEFC5010E94B4
:104D6000F5274C018201F32DFF773F2E16C0280155
:104D700022E0420E511CF801A080B18036FE03C033
:104D8000692D70E002C06FEF7FEFC5010E94EA2736
:104D90004C01F32DF0683F2E820133FC1BC0822DA5
:104DA00090E088169906B0F4B60180E290E00E9487
:104DB00000282A94F4CFF50137FC859137FE8191C4
:104DC0005F01B60190E00E94002821102A9421E0A2
:104DD000821A91088114910471F7E8C0843611F0A9
:104DE000893641F5F80137FE07C060817181828103
:104DF00093810C5F1F4F08C060817181072E000CEA
:104E0000880B990B0E5F1F4FF32DFF763F2E97FFF8
:104E100009C090958095709561957F4F8F4F9F4FFA
:104E2000F0683F2E2AE030E0A3010E943C28882E43
:104E3000861845C0853731F4232D2F7EB22E2AE007
:104E400030E025C0932D997FB92E8F36C1F018F42C
:104E5000883579F0B5C0803719F0883721F0B0C0B7
:104E6000E92FE061BE2EB4FE0DC0FB2DF460BF2E15
:104E700009C034FE0AC0292F2660B22E06C028E0E1
:104E800030E005C020E130E002C020E132E0F8016E
:104E9000B7FE07C060817181828193810C5F1F4FD3
:104EA00006C06081718180E090E00E5F1F4FA3011A
:104EB0000E943C28882E8618FB2DFF773F2E36FE59
:104EC0000DC0232D2E7FA22E891458F434FE0BC062
:104ED00032FC09C0832D8E7EA82E05C0B82CA32CD1
:104EE00003C0B82C01C0B92CA4FE0FC0FE01E80D10
:104EF000F11D8081803321F49A2D997EA92E09C05D
:104F0000A2FE06C0B394B39404C08A2D867809F03B
:104F1000B394A3FC11C0A0FE06C0B21488F4280C00
:104F2000922C9B180EC0B21460F4B60180E290E09F
:104F30000E940028B394F7CFB21418F42B1802C0C3
:104F4000982C212CA4FE10C0B60180E390E00E94B2
:104F50000028A2FE17C0A1FC03C088E790E002C0B1
:104F600088E590E0B6010CC08A2D867859F0A1FE44
:104F700002C08BE201C080E2A7FC8DE2B60190E0A6
:104F80000E940028891438F4B60180E390E00E9462
:104F900000289A94F7CF8A94F301E80DF11D8081DF
:104FA000B60190E00E9400288110F5CF222009F47C
:104FB00042CEB60180E290E00E9400282A94F6CF0B
:104FC000F6018681978102C08FEF9FEF2B96E2E179
:104FD0000C94DE23FC010590615070400110D8F75D
:104FE000809590958E0F9F1F0895FC016150704031
:104FF00001900110D8F7809590958E0F9F1F08950E
:105000000F931F93CF93DF93FB01238121FD03C0F7
:105010008FEF9FEF2CC022FF16C04681578124815D
:1050200035814217530744F4A081B1819D012F5F60
:105030003F4F318320838C93268137812F5F3F4FF1
:105040003783268314C08B01EC01FB010084F185BA
:10505000E02D0995892BE1F6D80116968D919C914A
:105060001797019617969C938E931697CE01DF9112
:10507000CF911F910F910895FA01AA27283051F17D
:10508000203181F1E8946F936E7F6E5F7F4F8F4F79
:105090009F4FAF4FB1E03ED0B4E03CD0670F781FD8
:1050A000891F9A1FA11D680F791F8A1F911DA11DBD
:1050B0006A0F711D811D911DA11D20D009F46894F6
:1050C0003F912AE0269F11243019305D3193DEF69E
:1050D000CF010895462F4770405D4193B3E00FD054
:1050E000C9F7F6CF462F4F70405D4A3318F0495D3F
:1050F00031FD4052419302D0A9F7EACFB4E0A69522
:105100009795879577956795BA95C9F70097610543
:10511000710508959B01AC010A2E06945795479599
:1051200037952795BA95C9F7620F731F841F951F8E
:08513000A01D0895F894FFCFC3
:10513800A410A410FFFFFFFF0000A706800079500D
:1051480050003F065B4F666D7D077F6F777C395E49
:10515800797100000000BB005A07D20033019A00A1
:10516800B008BA08000000003811A510CF1085114A
:105178000011DE10F210000000003E121112D200E1
:10518800E5110912F511E611000000006F12A510D3
:10519800D200D100000000006D12A510D200D1008D
:1051A800312E3439005374617274696E6720287621
:1051B800657273696F6E202573292E2E2E0A004999
:1051C8006E697469616C697A6174696F6E20444FA5
:1051D8004E452E000D0A00256C642C253034642FB2
:1051E800253032642F253032642C253032643A253C
:1051F8003032643A253032642C25642C25642C2501
:10520800642C25640A00256C642C253034642F2511
:105218003032642F253032642C253032643A253000
:1052280032643A253032642C25642C25640A0052F5
:1052380045475F2563253033642E4353560046693E
:105248006C653A2000556E69782074696D652C4448
:105258006174652C54696D652C416C61726D2C43C9
:10526800757272656E7420492841290A00556E6965
:10527800782074696D652C446174652C54696D657A
:105288002C526573697374616E7365202D2C526599
:1052980073697374616E7365202B2C52656C617928
:1052A80020312C2052656C617920320A002F0000D1
:00000001FF
