:100000000C9470000C94B0100C9489100C9498000F
:100010000C9498000C9498000C9498000C94980000
:100020000C9498000C9498000C9498000C949800F0
:100030000C9498000C9444110C9498000C94980023
:100040000C94E2160C9498000C9412110C94EC1081
:100050000C9498000C9498000C9498000C949800C0
:100060000C946B110C9498000000000024002700F1
:100070002A0000000000250028002B0000000000DE
:1000800023002600290004040404040404040202DA
:100090000202020203030303030301020408102007
:1000A0004080010204081020010204081020000012
:1000B0000008000201000003040700000000000027
:1000C00000007C3C3E5E2B3D3F2F5B5D3B2C2A229B
:1000D0005C001F1C1F1E1F1E1F1F1E1F1E1FC9206E
:1000E00011241FBECFEFD8E0DEBFCDBF26E0A4E3D2
:1000F000B2E001C01D92A635B207E1F712E0A0E020
:10010000B1E0ECE0FEE402C005900D92A433B1072B
:10011000D9F710E0C0E7D0E004C02197FE010E94AB
:10012000FE22CF36D107C9F70E942C170C94042762
:100130000C940000DC015996ED91FC915A97309790
:10014000B9F083899489A589B689428553856485E8
:100150007585841B950BA60BB70B811520E89207BC
:10016000A105B10538F08FEF9FE7A0E0B0E008955A
:1001700080E090E00895CF93DF931F92CDB7DEB774
:100180006983DC01ED91FC910280F381E02D41E077
:1001900050E0BE016F5F7F4F09950F90DF91CF91C7
:1001A0000895089580E090E0089581E080934502ED
:1001B0009091440289278093440208950F931F93DE
:1001C000CF93DF93FC012581222309F446C02481CB
:1001D00027FF3DC08C01668577858089918941E044
:1001E0000E94AE138823C9F1F801C289F0E2CF9FC3
:1001F000E0011124C656DD4F209779F1F801858181
:10020000823040F483899489A589B6898C8F9D8F2B
:10021000AE8FBF8FF8018789908DA18DB28D9B8F96
:100220008A8FBD8BAC8BE0913C02F0913D02309700
:1002300051F0BE016A5E7F4FCE0148960995888DC8
:10024000998D9B8B8A8BF80194819F779483DF91A2
:10025000CF911F910F910C94731380E0DF91CF9198
:100260001F910F910895FC01818D928D009711F0DF
:100270000C94DE000895CF93C1E0C0933F0282E06A
:100280000E94AC0C892BB1F0809140029091410208
:10029000A0914202B09143020196A11DB11D80932D
:1002A000400290934102A0934202B0934302C09354
:1002B0003E0202C010923E02CF9108958F929F920B
:1002C000AF92BF92CF92DF92EF92FF920F931F9364
:1002D000CF93DF93EC018D81811102C080E078C063
:1002E0000B891C892D893E890417150726073707B6
:1002F000A8F36A017B01823029F4CA86DB86EC868A
:10030000FD860DC0C114D104E104F10451F41E8234
:100310001F82188619861A861B861C861D8681E018
:1003200057C08A849B84AC84BD84EB8DFC8D25856D
:1003300030E0275F3F4FB501A401415051096109E9
:100340007109022E04C076956795579547950A94D2
:10035000D2F7D701C6010197A109B10904C0B6952A
:10036000A795979587952A95D2F784179507A6079D
:10037000B70720F089288A288B2871F44F89588D77
:10038000698D7A8D4E835F83688779874C015D0123
:100390008E010A5F1F4F16C0841B950BA60BB70B6F
:1003A000F5CF4E815F816885798598018B8D9C8D15
:1003B0000E94981491E0891A9108A108B108882335
:1003C00009F48CCF81149104A104B10451F795CFA5
:1003D000DF91CF911F910F91FF90EF90DF90CF9021
:1003E000BF90AF909F908F9008958F929F92AF9201
:1003F000BF92CF92DF92EF92FF920F931F93CF9312
:10040000DF9300D000D0CDB7DEB77C0180E2689FDB
:10041000F0011124E656FD4F9385917121F0842F50
:10042000827409F08FC0142FD70152966C935297A3
:1004300040910401509105016091060170910701FE
:100440001E964D935D936D937C9351974489558986
:1004500060E070E0BA0155274427828D938DA0E0BB
:10046000B0E0482B592B6A2B7B2BD70157964D9325
:100470005D936D937C935A978385887159F4848D2D
:10048000958DA68DB78DF701838B948BA58BB68B3D
:1004900081E012C0803109F055C097012D5E3F4FB9
:1004A000D7015B968D919C915C970E94C10A88232D
:1004B00009F448C084E0F7018583812F8F70D7014C
:1004C00014968C931497F701168217821086118662
:1004D0001A961D921D921D921C921D9716FF34C0F4
:1004E00015968C91813071F511FF2CC0F70143896D
:1004F000548965897689452B462B472B09F461C0C1
:1005000040E050E0BA01C7010E945E018823D1F0AB
:10051000F7018788908CA18CB28CC38CD48C82E03C
:1005200090E0A0E0B0E0F60180839183A283B383E2
:100530009E012F5F3F4FB501A401C6010E94981490
:10054000811104C080E03DC081E03BC000E010E0CC
:100550009801B501A401C6010E94F713882391F305
:1005600089809A80AB80BC80D60157968C9180316F
:1005700029F088EF9FEFAFEFBFE004C088EF9FEF57
:10058000A0E0B0E088169906AA06BB0688F2D7015B
:1005900057961D921D921D921C925A97F701138A2D
:1005A000148A158A168A848180688483C7010E9410
:1005B000DE00882339F240E050E0BA01C7010E9412
:1005C0005E010F900F900F900F90DF91CF911F91D0
:1005D0000F91FF90EF90DF90CF90BF90AF909F90E2
:1005E0008F900895CF93DF93EC010E94DE00882363
:1005F00011F01D8281E0DF91CF9108953F924F92DB
:100600005F926F927F928F929F92AF92BF92CF92A2
:10061000DF92EF92FF920F931F93CF93DF93CDB7AB
:10062000DEB72C970FB6F894DEBF0FBECDBF5C01CE
:10063000DC015B968D909C905C971696CD90DD903A
:10064000ED90FC901997C114D104E104F10439F044
:10065000BFEFCB1ADB0AEB0AFB0A312C07C0F4010F
:10066000C080D180E280F38033243394F40181850B
:100670009285A385B4859C01AD012F5F3F4F4F4FFD
:100680005F4F29873A874B875C87260137011D8298
:100690001E821F821886F40181859285A385B48508
:1006A0002D813E814F815885281739074A075B07FE
:1006B00008F063C089859A85AB85BC858C159D053E
:1006C000AE05BF0550F482E0C82ED12CE12CF12CF0
:1006D00092E0492E512C612C712C9E012F5F3F4FCF
:1006E000B701A601C4010E949814882309F445C0EB
:1006F00089819A81AB81BC81892B8A2B8B2B41F01C
:10070000260137019FEF491A590A690A790A05C07B
:10071000C414D504E604F70491F02D813E814F8185
:1007200058852F5F3F4F4F4F5F4F2D833E834F8341
:1007300058873FEFC31AD30AE30AF30AACCF0FEF8F
:100740001FEF2FEF3FE0B301A201C4010E94F71396
:10075000882399F0D50116964D915D916D917C910C
:100760001997411551056105710549F09301820101
:10077000C4010E94F713811102C080E02AC0D50194
:1007800016964D925D926D927C921997332051F09E
:10079000D301C2010196A11DB11DF4018083918393
:1007A000A283B383F5018789908DA18DB28D892BAA
:1007B0008A2B8B2B69F4D50157964D925D926D92E1
:1007C0007C925A9714968C911497806814968C9307
:1007D00081E02C960FB6F894DEBF0FBECDBFDF913F
:1007E000CF911F910F91FF90EF90DF90CF90BF902E
:1007F000AF909F908F907F906F905F904F903F90C1
:1008000008958FB7F894809183028FBF089561E0B7
:10081000FC0184810E94D50C80918202811110928A
:10082000820208958EBD00000DB407FEFDCF8EB587
:1008300008958FEF0C9412040F931F93CF93DF93BF
:10084000EB010E94A10E8B010E9419048F3F49F019
:100850000E94A10E601B710B6C177D07A8F380E04E
:1008600001C081E0DF91CF911F910F910895CF9347
:10087000DF93EC018E81882389F08F8198859C011C
:100880002F5F3F4F38872F838230924018F40E94A9
:100890001904F3CFCE010E9407041E82DF91CF918D
:1008A00008958CBD9DBD0895CF93DF93EC01809199
:1008B0008202811109C081E0809382028091B1059A
:1008C0009091B2050E94510460E08C81DF91CF913C
:1008D0000C94D50C8F929F92AF92BF92FF920F9380
:1008E0001F93CF93DF93EC01F62E49015A010E942A
:1008F0003704CE010E9454046CE271E0CE010E94E4
:100900001C048F2D80640E94120408E110E0D501C0
:10091000C401002E04C0B695A795979587950A94B3
:10092000D2F70E94120408501109083F8FEF1807F0
:1009300071F7FF2029F088E0F81204C087E803C0AF
:1009400085E901C08FEF0E94120410E00E94190493
:100950008A8787FF04C01F3F11F01F5FF7CFDF9129
:10096000CF911F910F91FF90BF90AF909F908F906C
:100970000895AF92BF92CF92DF92EF92FF920F93C2
:100980001F93CF93DF93EC016901C801820F931F7E
:100990008130924008F070C08E81882371F0888188
:1009A0009981AA81BB8184179507A607B70729F407
:1009B0008F819885C816D906B0F5488359836A8314
:1009C0007B838B85833039F089E0440F551F661F88
:1009D000771F8A95D1F79A01AB0161E1CE010E94A0
:1009E0006A04882319F083E08D8346C00E94A10E1B
:1009F0005B010E9419048A878F3F49F40E94A10E6F
:100A00006A197B096D327140A0F38FE003C08E3FFD
:100A100031F08DE08D83CE010E9407042DC0188631
:100A20001F8281E08E838F8198858C159D0540F40F
:100A30000E9419048F819885019698878F83F3CF40
:100A40006701E00EF11EEC14FD0431F00E94190460
:100A5000F60181936F01F7CF8F819885080F191FD9
:100A600018870F838985882319F00115124048F0F3
:100A7000CE010E94370405C0CE010E94070480E029
:100A800001C081E0DF91CF911F910F91FF90EF9016
:100A9000DF90CF90BF90AF900895EF92FF920F93A9
:100AA0001F93CF93DF93EC01790141155105610547
:100AB000710511F482E13CC08B85833039F089E007
:100AC000440F551F661F771F8A95D1F79A01AB0116
:100AD00068E1CE010E946A04882311F084E028C0F6
:100AE0008EEF0E94120487018EEFF81AF8018191AF
:100AF0008F010E941204E016F106C1F78FEF0E94E9
:100B000012048FEF0E9412040E9419048A878F71C9
:100B1000853031F081E18D83CE010E94070409C048
:100B200068E572E0CE010E941C04811107C085E1D6
:100B30008D83CE010E94070480E014C020E030E0E5
:100B4000A9016DE0CE010E946A04811109C00E94D2
:100B50001904811105C0CE010E94070481E002C082
:100B600084E1E6CFDF91CF911F910F91FF90EF903D
:100B700008952F923F924F925F926F927F928F9241
:100B80009F92AF92BF92CF92DF92EF92FF920F931C
:100B90001F93CF93DF9300D000D0CDB7DEB78C0189
:100BA0006B011A01DC0115968C9115978130C9F4FF
:100BB00014968C9181FF15C082FF1DC0F8014389F6
:100BC00054896589768982859385A485B58584173E
:100BD0009507A607B70779F0C8010E945E01811149
:100BE0000AC081E090E0D80113969C938E931297EF
:100BF00080E090E048C1410183C05B968D919C915B
:100C00005C97FC0174802FEF270D2A013B0139E02E
:100C100076946794579447943A95D1F7722E74203E
:100C20007A01F1E0FF22772009F476C080E092E0BB
:100C30008E199F0954018815990508F45C01D801A3
:100C40005B962D913C915C9716968D919D910D90A0
:100C5000BC91A02D0297A109B109F901058404C036
:100C6000880F991FAA1FBB1F0A94D2F74685578584
:100C700060897189840F951FA61FB71F9C01AD0164
:100C8000270D311D411D511D29013A01A11432E0EA
:100C9000B30609F088C08091040190910501A091EC
:100CA0000601B0910701481659066A067B0659F4F9
:100CB0008FEF9FEFDC018093040190930501A093D7
:100CC0000601B09307019601B301A20180919A0435
:100CD00090919B040E944D05882309F482CF9EEFDA
:100CE000D91A8A189B08F80182859385A485B58551
:100CF0008A0D9B1DA11DB11D82879387A487B5878F
:100D0000D8011A964D915D916D917C911D9781143A
:100D1000910409F072CF87C0E114F10409F086CF85
:100D200016964D915D916D917C91199741155105E4
:100D30006105710559F457968D919D910D90BC9167
:100D4000A02D0097A105B10541F521C09E012F5F9F
:100D50003F4F0E949814882309F44BCF89819A81D0
:100D6000AB81BC81F801238D348DF90127892031B5
:100D700029F048EF5FEF6FEF7FE004C048EF5FEFCF
:100D800060E070E084179507A607B70730F0C80148
:100D90000E94FE0281114ACF24CFF80186839783F7
:100DA000A087B18743CFE114F10429F5D8011A9641
:100DB0004D915D916D917C911D9753968D919D9173
:100DC0000D90BC91A02D481759076A077B0798F032
:100DD0000E947313882309F404CF409204015092B7
:100DE00005016092060170920701809109068160F9
:100DF0008093090608C041E0C301B2010E94AE130E
:100E0000882309F4EECED601F701E656FD4F9F0187
:100E10002A0D3B1D2E173F0719F08D918193FACFB4
:100E2000CA0CDB1C5ECFD8015396CD90DD90ED90BF
:100E3000FC90569714968C91C416D506E606F706D4
:100E400040F4F801438B548B658B768B80688483E8
:100E50000DC020913C0230913D02232B39F021142A
:100E6000310421F08068D80114968C93F8018481B4
:100E700083FD02C0C10107C0C8010E94DE008823B3
:100E800009F4AFCEF7CF0F900F900F900F90DF9136
:100E9000CF911F910F91FF90EF90DF90CF90BF9077
:100EA000AF909F908F907F906F905F904F903F900A
:100EB0002F900895CF93DF93EC01898D9A8D009741
:100EC00039F481E090E09B838A8380E090E00BC05E
:100ED000FC01138212820E94B905E98DFA8D2281EC
:100EE0003381232B71F7DF91CF9108954F925F9259
:100EF0006F927F92AF92BF92CF92DF92EF92FF926A
:100F00000F931F93CF93DF931F92CDB7DEB7FC01F2
:100F10002581222309F4C1C0848180FFBEC083895A
:100F20009489A589B6894284538464847584841520
:100F30009505A605B70509F4B0C06F015201F1E0AF
:100F4000BF22D6015B968D919C915C97B301A20163
:100F500039E076956795579547953A95D1F72230C0
:100F600071F4FC01828D938DA48DB58D8A019B0156
:100F7000080F191F2A1F3B1FC901B8014AC0DC0115
:100F800014961C9111501423A114B104F9F41111F9
:100F90001DC045284628472851F4F6018789908DC1
:100FA000A18DB28D86839783A087B1870FC0D601AC
:100FB00016964D915D916D917C91199796012A5FDE
:100FC0003F4F0E949814882309F467C0F601238DCF
:100FD000348D86819781A085B1850297A109B109D9
:100FE000AC01BD01F901058404C0440F551F661F03
:100FF000771F0A94D2F786859785A089B189840FD7
:10100000951FA61FB71FBC01CD01610F711D811D6A
:10101000911DD60114962C9126FF0DC0409004011D
:101020005090050160900601709007014616570622
:101030006806790699F440E00E94AE13882369F1AE
:10104000F501E656FD4FDE0111969F012F5F3F4FE0
:101050002E173F0799F081918D93FACFFE013196BB
:101060007F0101E010E09501AB01BC0180919A0481
:1010700090919B040E94B904882379F0F60182853F
:101080009385A485B5850196A11DB11D828793879F
:10109000A487B587898190E002C08FEF9FEF0F9002
:1010A000DF91CF911F910F91FF90EF90DF90CF9044
:1010B000BF90AF907F906F905F904F900895FC012C
:1010C000818D928D009711F00C9476078FEF9FEF32
:1010D00008950F931F93CF93DF93FC01818D928D21
:1010E0000097B9F0EF010E9476078C010F3F8FEF58
:1010F000180791F0898D9A8DFC014285538564858E
:10110000758541505109610971090E945E01C8014C
:1011100005C080E090E002C08FEF9FEFDF91CF919C
:101120001F910F9108959F92AF92BF92CF92DF923D
:10113000EF92FF920F931F93CF93DF936C015B01AC
:10114000FC011082FB01108200E010E0C0E0D0E062
:1011500082E0E82EFF24F39493E0992E86E00E942B
:10116000AC0C811125C0219680913502813049F067
:1011700028F0823071F08330A9F01EC0F092350261
:101180001BC0C436D105C1F4F6018083E09235025C
:1011900011C0C83EF3E0DF0779F4F601F0829092C7
:1011A000350208C0C83CD10539F4F601F08202C00E
:1011B00010923502C0E0D0E085E00E94AC0C8111B5
:1011C00026C00F5F1F4F80913402813049F028F014
:1011D000823071F08330A9F01EC0F09234021BC03F
:1011E00004361105C1F4F5018083E092340211C088
:1011F000083EF3E01F0779F4F501F0829092340283
:1012000008C0083C110539F4F501F08202C01092C3
:10121000340200E010E0F6018081811102C02097C5
:1012200039F4F501808181110AC00115110539F0E9
:1012300061E070E080E090E00E94670E8FCFDF9168
:10124000CF911F910F91FF90EF90DF90CF90BF90C3
:10125000AF909F900895FC019081961728F0941705
:1012600018F49F5F908301C06083109281001092F8
:1012700085001092840080914602806180938100F5
:1012800081E080934502809344020895EF92FF929B
:101290000F931F93CF93DF9300D000D000D0CDB732
:1012A000DEB77C018B014091400250914102609178
:1012B000420270914302CE0101960E94FB12898185
:1012C00090E04496982F8827990F2A8140E2249F26
:1012D000900111244B81242B822B932BF7019183B6
:1012E00080838D81F0E28F9F900111249C81892F52
:1012F00090E0982F8827990F990F990F822B932BA5
:101300002E8130E035952795822B932BF801918320
:10131000808326960FB6F894DEBF0FBECDBFDF9157
:10132000CF911F910F91FF90EF9008958091FF054D
:10133000909100068230910538F0880F991F880F30
:10134000991F05970197F1F70895833081F028F4EC
:10135000813099F08230A1F008958730A9F088306B
:10136000B9F08430D1F4809180008F7D03C08091EA
:1013700080008F7780938000089584B58F7702C0B6
:1013800084B58F7D84BD08958091B0008F7703C0B0
:101390008091B0008F7D8093B00008953FB7F8949E
:1013A0008091880290918902A0918A02B0918B026B
:1013B00026B5A89B05C02F3F19F00196A11DB11DB0
:1013C0003FBFBA2FA92F982F8827820F911DA11DEB
:1013D000B11DBC01CD0142E0660F771F881F991F28
:1013E0004A95D1F7089591E09093070580930806F8
:1013F000109206051092050508959091E20491114E
:10140000FCCF982F813208F090E281E08093E204D3
:101410008093E1042FEF2093E0041092DF04290F62
:101420002093DE048093DD048091DD04806D809341
:10143000DD048091DC04813061F41092DC04809141
:10144000DD048093BB008091BC0083FDF8CF85EC68
:1014500001C085EE8093BC008091E2048130E1F30D
:101460008091DF04891710F49091DF04ECEBF4E035
:10147000A5EEB4E080E0891721F021912D938F5FD4
:10148000FACF1092E4048093E304089530910505A7
:10149000313208F04BC08091E2048111FCCF909171
:1014A000080622E02093E20421E02093E1042FEFDC
:1014B0002093E0041092DF043093DE04ECE9F4E0C2
:1014C000ACEBB4E020E0321721F041914D932F5F57
:1014D000FACF1092DD042091DD04990F922B9093A6
:1014E000DD049091DC04913061F41092DC04909161
:1014F000DD049093BB009091BC0093FDF8CF95EC78
:1015000001C095EE9093BC009091E2049230E1F31B
:101510009091E0049F3F79F08091E004803241F0A7
:101520008091E004803331F084E005C081E003C0A5
:1015300082E001C083E0109206051092050510922A
:1015400007050895682F85EA95E00C944710CF931E
:10155000C82F88E60E94F309CC2319F08FE090E0B1
:1015600002C08EE090E00E94A20A0E94460A81E03A
:1015700090E00E94FD0985EA95E00E94FE0FCF9160
:1015800008954F925F926F927F92AF92BF92CF92E7
:10159000DF92EF92FF920F931F93CF93DF9300D0D0
:1015A00000D0CDB7DEB78C0149835A836B837C832F
:1015B0005901C12CD12C7601412C82E0582E612C8E
:1015C000712C49815A816B817C819E012F5F3F4F35
:1015D000C8010E949814882351F1D301C201F80177
:1015E000058404C0880F991FAA1FBB1F0A94D2F755
:1015F000C80ED91EEA1EFB1E49815A816B817C816F
:101600008789803129F088EF9FEFAFEFBFE004C0FA
:1016100088EF9FEFA0E0B0E0481759076A077B0703
:1016200080F2F501C082D182E282F38281E00F90E4
:101630000F900F900F90DF91CF911F910F91FF901E
:10164000EF90DF90CF90BF90AF907F906F905F90C2
:101650004F900895CF93DF93FC012581222311F051
:1016600080E049C0EC018091D6058031C1F482E070
:101670008583178A108E118E128E8091D7059091D6
:10168000D805A0E0B0E025E0880F991FAA1FBB1F76
:101690002A95D1F7838B948BA58BB68B19C080329A
:1016A000F9F683E085834091D9055091DA05609180
:1016B000DB057091DC05478B508F618F728F9F0126
:1016C0002D5E3F4F8FEB95E00E94C10A882341F2C7
:1016D0008FEB95E09C8F8B8F81E08C831E821F8225
:1016E000188619861A861B861C861D861E861F86EE
:1016F000188A198A1A8ADF91CF9108958F929F9242
:10170000AF92BF92CF92DF92EF92FF92CF93DF938F
:10171000C82F83EB95E090939B0480939A04CC238D
:1017200069F1C53010F080E00CC140E060E070E08D
:10173000CB010E94AE138823B1F320E1C29FC00108
:10174000112486579D4FFC01E254FE4F20812F77D4
:1017500051F73C9640815181628173814436510535
:101760006105710500F33497C080D180E280F38079
:10177000C114D104E104F10421F4D5CFC12CD12C42
:10178000760140E0C701B6010E94AE13882359F2EA
:101790008091A5029091A6028115924021F6A09118
:1017A000AA02AA2309F4BFCF6091A8027091A902EE
:1017B0006115710509F4B7CF2091A702222309F41E
:1017C000B2CFA093D1052093C30580E030E041E083
:1017D00050E0C82FFA01082E02C0EE0FFF1F0A9436
:1017E000E2F72E173F0739F08F5FC83091F789E095
:1017F0008093CC0598CF8093CC052091B002309196
:10180000B1022115310519F040E050E008C02091E7
:10181000BE023091BF024091C0025091C10220939C
:10182000C4053093C5054093C6055093C7054601CE
:101830005701860E971EA11CB11C8092D205909272
:10184000D305A092D405B092D505E091AB02F091FA
:10185000AC02F093D805E093D705B0E00E943C229B
:10186000860E971EA81EB91E8092D9059092DA05A1
:10187000A092DB05B092DC0585E0EE0FFF1F8A9594
:10188000E1F7E150FE4FEF2FFF27E6958E0E9F1EEA
:10189000A11CB11C8092CD059092CE05A092CF05DF
:1018A000B092D0052091AD023091AE0221153105E4
:1018B00021F0A90160E070E008C04091BA025091A7
:1018C000BB026091BC027091BD02D701C6018819AC
:1018D0009909AA09BB09840F951FA61FB71F04C049
:1018E000B695A79597958795CA95D2F78093C80521
:1018F0009093C905A093CA05B093CB05853F2FE00F
:101900009207A105B10510F48CE018C0853F9F4FE8
:10191000A105B10510F480E111C08091C60290913B
:10192000C702A091C802B091C9028093D9059093D3
:10193000DA05A093DB05B093DC0580E28093D60541
:1019400081E0DF91CF91FF90EF90DF90CF90BF903B
:10195000AF909F908F900895CF93DF93282F30E022
:10196000F901E255FF4F8491F901E656FF4FD491FA
:10197000F901EA57FF4FC491CC2391F081110E94E5
:10198000A509EC2FF0E0EE0FFF1FE458FF4FA591E3
:10199000B491EC91ED2381E090E021F480E002C06D
:1019A00080E090E0DF91CF9108951F93CF93DF9374
:1019B000282F30E0F901E255FF4F8491F901E656F6
:1019C000FF4FD491F901EA57FF4FC491CC23C1F0E6
:1019D000162F81110E94A509EC2FF0E0EE0FFF1FDA
:1019E000EE58FF4FA591B4919FB7F894111104C020
:1019F0008C91D095D82302C0EC91DE2BDC939FBF55
:101A0000DF91CF911F910895CF93DF9390E0FC0178
:101A1000E656FF4F2491FC01EA57FF4F849188233B
:101A200061F190E0880F991FFC01E859FF4FC591C3
:101A3000D491FC01EE58FF4FA591B491611109C0FA
:101A40009FB7F8948881209582238883EC912E2378
:101A50000BC0623061F49FB7F8948881322F3095C3
:101A600083238883EC912E2B2C939FBF06C08FB7C6
:101A7000F894E8812E2B28838FBFDF91CF910895B2
:101A8000CF93DF93CCEFD5E061E089810E94040D14
:101A90000E94960960E088810E94040D0E949609C8
:101AA00060E089810E94040DDF91CF910C9496092A
:101AB000CF93DF93D82FC8E061E08091FC050E94AE
:101AC000040D0E949609D0FF02C060E001C061E0F1
:101AD0008091FD050E94040D0E94960960E08091AE
:101AE000FC050E94040D0E949609D695C15021F76D
:101AF00061E08091FC050E94040D60E08091FD058D
:101B00000E94040D0E94960960E08091FC050E94ED
:101B1000040D0E9496098091FD050E94AC0CC82F0F
:101B2000811105C061E08091FD050E94040D0E94B5
:101B3000960961E08091FC050E94040D0E949609BF
:101B400081E0C11101C080E0DF91CF91089561E093
:101B50008091FD050E94040D0C949609FF920F934D
:101B60001F93CF93DF93F82E092F162FC42F0E94B7
:101B7000A70D80E40E94580D0E94400D0E94A70D01
:101B80008C2F837080540E94580DCF2DD02FCE0102
:101B9000810F911D8C01C017D10721F089910E94FE
:101BA000580DF9CF0E94400D0E94A70D8091FE05AF
:101BB0008F7080580E94580DDF91CF911F910F9127
:101BC000FF900C94400DCF93DF9300D000D0CDB7A1
:101BD000DEB719821A821B821C8240E064E0CE01CB
:101BE00001960E94AE0D0F900F900F900F90DF9115
:101BF000CF9108958F929F92AF92BF92CF92DF9232
:101C0000EF92FF920F931F93CF93DF9300D000D0FA
:101C1000CDB7DEB7D62EC42EBC0197FF03C0719599
:101C200061957109FB01392F331F3327331F8E0153
:101C30000F5F1F4F5801AC0CB11C78018AE0882E51
:101C4000912C40E40A151B05D1F0CF01B4010E948C
:101C5000C822DC01BB27A05EBE4F9C91D5019E939C
:101C60005D01811106C0309721F4332311F04C93AC
:101C700030E0CF01B4010E94C822FB01E3CFD110B4
:101C800016C0422F6C2DC8010E94AE0D0F900F9010
:101C90000F900F90DF91CF911F910F91FF90EF90D8
:101CA000DF90CF90BF90AF909F908F900895AE013E
:101CB0004B5F5F4F8D2D8078F7019081892BD70185
:101CC0008D937D01DD0C4A175B07A1F7DACF8F9268
:101CD0009F92AF92BF92CF92DF92EF92FF926B01F1
:101CE0007C010E94CE094B015C01C114D104E104C6
:101CF000F104F1F00E94CE09DC01CB0188199909A9
:101D0000AA09BB09883E9340A105B10570F321E003
:101D1000C21AD108E108F10888EE880E83E0981E07
:101D2000A11CB11CC114D104E104F10419F7DDCFE9
:101D3000FF90EF90DF90CF90BF90AF909F908F90EB
:101D400008952FB7F8946091840270918502809174
:101D50008602909187022FBF08950895CF92DF9257
:101D6000EF92FF920F931F93CF93DF936C017A0151
:101D70008B01C0E0D0E0CE15DF0581F0D8016D9178
:101D80008D01D601ED91FC910190F081E02DC6010D
:101D90000995892B11F02196EECF7E01C701DF91C5
:101DA000CF911F910F91FF90EF90DF90CF9008950A
:101DB000FC01538D448D252F30E0842F90E0821B51
:101DC000930B541710F0CF96089501970895FC01D6
:101DD000918D828D981761F0828DDF01A80FB11D62
:101DE0005D968C91928D9F5F9F73928F90E0089586
:101DF0008FEF9FEF0895FC01918D828D981731F040
:101E0000828DE80FF11D858D90E008958FEF9FEF93
:101E10000895FC01918D228D892F90E0805C9F4F69
:101E2000821B91098F739927089588E095E00E949D
:101E3000090F21E0892B09F420E0822F0895FC018D
:101E4000848DDF01A80FB11DA35ABF4F2C91848D43
:101E500090E001968F739927848FA689B7892C9378
:101E6000A089B1898C91837080648C93938D848DCB
:101E7000981306C00288F389E02D80818F7D8083CE
:101E80000895EF92FF920F931F93CF93DF93EC018E
:101E900081E0888F9B8D8C8D981305C0E889F98926
:101EA000808185FD26C0F62E0B8D10E00F5F1F4F41
:101EB0000F731127E02E8C8DE8120CC00FB607FCB3
:101EC000FACFE889F989808185FFF5CFCE010E949C
:101ED0001F0FF1CF8B8DFE01E80FF11DE35AFF4F6D
:101EE000F0829FB7F8940B8FEA89FB89808180622A
:101EF0000AC09FB7F894EE89FF896083E889F98961
:101F000080818370806480839FBF81E090E0DF9157
:101F1000CF911F910F91FF90EF900895CF93DF9392
:101F2000EC01888D8823C9F0EA89FB89808185FDD1
:101F300005C0A889B9898C9186FD0FC00FB607FC32
:101F4000F5CF808185FFF2CFA889B9898C9185FF73
:101F5000EDCFCE010E941F0FE7CFDF91CF91089503
:101F600080E090E0892B29F00E94150F81110C94DC
:101F70000000089585ED8093BC008091BC0084FD35
:101F8000FCCF1092E204089540912E06262F30E0F7
:101F9000240F311D21323105DCF42091E20424307C
:101FA000C9F4FC0180E090E0861758F430912E06C9
:101FB0002191DC01A25FB94FA30FB11D2C930196B3
:101FC000F3CF80912E06680F60932E0680E008956F
:101FD00081E0089582E00895089508950895E091BC
:101FE000E4048091E304E81730F4F0E0EB51FB4F98
:101FF000808190E008958FEF9FEF08959091E40421
:102000008091E304981750F4E92FF0E0EB51FB4F77
:10201000208130E09F5F9093E40402C02FEF3FEFF8
:10202000C90108958091E30490E02091E404821BAB
:1020300091090895CF92DF92EF92FF920F931F9331
:10204000CF93DF937C01CB018A01209107052223E6
:1020500089F0EB016B01C40ED51ECC15DD0569F0CE
:102060006991D701ED91FC910190F081E02DC701BC
:102070000995F3CF642F0E94C40FC801DF91CF915F
:102080001F910F91FF90EF90DF90CF900895CF9325
:10209000DF931F92CDB7DEB7698320910705222316
:1020A000D1F020910505203240F021E030E0FC0124
:1020B0003383228380E090E015C080910605E82FED
:1020C000F0E0E456FB4F998190838F5F8093060583
:1020D0008093050505C061E0CE0101960E94C40F02
:1020E00081E090E00F90DF91CF9108950E94252428
:1020F000CF93DF931F92CDB7DEB7698341E050E005
:10210000BE016F5F7F4F0E94B9050F90DF91CF91A5
:1021100008951F920F920FB60F9211242F933F93A1
:102120004F935F936F937F938F939F93AF93BF93DF
:10213000EF93FF93E0910201F09103010995FF9164
:10214000EF91BF91AF919F918F917F916F915F912F
:102150004F913F912F910F900FBE0F901F901895A8
:102160001F920F920FB60F9211242F933F934F930C
:102170005F936F937F938F939F93AF93BF93EF93EF
:10218000FF93E0910001F09101010995FF91EF911A
:10219000BF91AF919F918F917F916F915F914F917F
:1021A0003F912F910F900FBE0F901F9018956115C2
:1021B000710579F0FB0101900020E9F73197AF013B
:1021C000461B570BDC01ED91FC910280F381E02D61
:1021D000099480E090E008951F920F920FB60F923D
:1021E00011242F933F934F935F936F937F938F931C
:1021F0009F93AF93BF93EF93FF9388E095E00E9486
:102200001F0FFF91EF91BF91AF919F918F917F91A0
:102210006F915F914F913F912F910F900FBE0F9053
:102220001F9018951F920F920FB60F9211242F93A3
:102230008F939F93EF93FF93E0911805F091190509
:102240008081E0911E05F0911F0582FD12C09081F2
:10225000809121058F5F8F7320912205821751F0A5
:10226000E0912105F0E0E85FFA4F958F809321051A
:1022700001C08081FF91EF919F918F912F910F90DD
:102280000FBE0F901F9018951F920F920FB60F92CE
:1022900011242F933F934F935F936F937F938F936B
:1022A0009F93AF93BF93EF93FF93E0913602F0912A
:1022B00037020995FF91EF91BF91AF919F918F9157
:1022C0007F916F915F914F913F912F910F900FBE32
:1022D0000F901F9018951F920F920FB60F92112416
:1022E0002F933F934F935F936F937F938F939F931E
:1022F000AF93BF93EF93FF938091B900887F8036AF
:1023000009F49CC068F5883209F45BC090F4803110
:1023100009F454C038F4882309F4F6C0883009F46D
:102320004DC0F6C0883109F44CC0803209F45DC05C
:10233000EFC0803409F468C048F4803309F455C014
:10234000883309F0E5C08093E004D8C0803509F4F3
:102350004FC0883509F45DC0883409F0D9C0D6C0B3
:10236000883909F4C7C0A8F4883709F467C038F47D
:10237000883609F463C0803709F460C0C9C0883862
:1023800009F4B8C0803909F45FC0803809F0C0C0D2
:102390005BC0803B09F486C038F4803A09F466C01B
:1023A000883A09F47FC0B4C0803C09F4A7C0883CD7
:1023B00009F4A4C0883B09F48AC0AAC08091DD0456
:1023C00010C09091DF048091DE04981770F5E091C1
:1023D000DF0481E08E0F8093DF04F0E0E454FB4FD4
:1023E00080818093BB0085EC86C08093E0048EC022
:1023F000E091DF0481E08E0F8093DF048091BB00C9
:10240000F0E0E454FB4F80839091DF048091DE0480
:102410006EC0E091DF0481E08E0F8093DF04809135
:10242000BB00F0E0E454FB4F80838091E104811114
:102430006DC081E08093DC0484EA61C083E0809316
:10244000E20410925006CFCF80915006803208F0FF
:1024500051C0E091500681E08E0F8093500680912C
:10246000BB00F0E0E05DF94F8083BDCF85EC809349
:10247000BC001092E20480915006803230F4E0916A
:102480005006F0E0E05DF94F10826091500670E078
:10249000E0913802F091390280E396E009951092BC
:1024A000500636C084E08093E20410922F0610920A
:1024B0002E06E0913A02F0913B02099580912E069A
:1024C000811105C081E080932E0610920E06E091E6
:1024D0002F0681E08E0F80932F06F0E0E25FF94F28
:1024E00080818093BB0090912F0680912E069817D3
:1024F00008F479CF85E88093BC000AC085EC80930E
:10250000BC001092E20404C01092E0040E94BA0FD2
:10251000FF91EF91BF91AF919F918F917F916F91BB
:102520005F914F913F912F910F900FBE0F901F9091
:102530001895EF92FF920F931F93CF93DF93EC01C7
:1025400069813881432F50E08A8190E0E2EDF0E02C
:1025500021E0261730F47491870F911D2F5F31967B
:10256000F8CF633018F0337009F401966DE671E02E
:10257000469F9001479F300D569F300D11242150EA
:1025800031094D5F5F4F5695479556954795240FF6
:10259000351F280F391FA8E1B0E00E947E222B8151
:1025A0007B018C01E20EF11C011D111DA801970198
:1025B000ACE3B0E00E943C222C817B018C01E20E56
:1025C000F11C011D111DA80197010E943C222D81C3
:1025D000DC01CB01820F911DA11DB11DBC01CD01FC
:1025E00060587C4B8249974CDF91CF911F910F919E
:1025F000FF90EF9008958F929F92AF92BF92CF92EB
:10260000DF92EF92FF92CF93DF93EC016A017B019F
:1026100080E8C81A83E4D80A8DE6E80A88E3F80A55
:102620008CE3882E912CA12CB12CC701B601A501F9
:1026300094010E94DC226D83CA01B901A5019401B5
:102640000E94DC226C83C701B60120E13EE040E03D
:1026500050E00E94DC22CA01B90128E130E040E0EC
:1026600050E00E94DC226B83C701B60120E831E50F
:1026700041E050E00E94DC2218824881542F5370C0
:1026800081E009F080E090E0BC0163597E4F26179D
:10269000370738F0281B390B2D5631404F5F4883E0
:1026A000ECCF81E089838981E82FF0E0EF52FF4F82
:1026B000E491511103C0823009F4EF5FF0E02E176E
:1026C0003F0720F02E1B3F0B8F5FECCF2F5F2A833D
:1026D000DF91CF91FF90EF90DF90CF90BF90AF90C0
:1026E0009F908F900895809109068823A9F14091C9
:1026F00004015091050160910601709107012AE9DA
:1027000032E080919A0490919B040E944D058111C2
:1027100002C080E0089540910A0650910B06609136
:102720000C0670910D06411551056105710591F07A
:102730002AE932E080919A0490919B040E944D0511
:10274000882339F310920A0610920B0610920C0699
:1027500010920D061092090681E008958F929F92C3
:10276000AF92BF92EF92FF920F931F93CF934B01C3
:102770005C01C42F8091040190910501A091060194
:10278000B091070188159905AA05BB0501F10E94C2
:102790007313811102C080E020C08AE9E82E82E034
:1027A000F82E00E012E020E030E0B501A4018091B5
:1027B0009A0490919B040E94B904882361F380924B
:1027C000040190920501A0920601B0920701809148
:1027D0000906C82BC093090681E0CF911F910F9184
:1027E000FF90EF90BF90AF909F908F9008954F9281
:1027F0005F926F927F928F929F92AF92BF92CF9291
:10280000DF92EF92FF920F931F93CF93DF93EC0130
:10281000423051056105710510F480E078C089856A
:102820009A85AB85BC850196A11DB11D84179507BE
:10283000A607B70790F3CB88DC88ED88FE888F89E0
:10284000803129F4BB27A72F962F852F09C0DB01E4
:10285000CA01E7E0B695A79597958795EA95D1F7D0
:10286000480159012A013B01C80ED91EEA1EFB1E70
:102870008091040190910501A0910601B09107019A
:10288000C816D906EA06FB0681F48F898031A9F4BF
:10289000B301A201552766277727440F551FFA0178
:1028A000E656FD4F9182808219C040E0C701B60113
:1028B0000E94AE138111E9CFB0CFB301A2014F77CF
:1028C000552766277727440F551F440F551FFA01D8
:1028D000E656FD4F80829182A282B38280910906E2
:1028E0008160809309068A89823080F08D819E8183
:1028F000AF81B885C80ED91EEA1EFB1EC0920A061B
:10290000D0920B06E0920C06F0920D0681E0DF916A
:10291000CF911F910F91FF90EF90DF90CF90BF90DC
:10292000AF909F908F907F906F905F904F900895A1
:102930008F929F92AF92BF92CF92DF92EF92FF92CF
:102940000F931F93CF93DF93FC0181859285A3851D
:10295000B4850196A11DB11D84179507A607B70779
:1029600010F480E05BC083889488A588B688878946
:10297000803129F4BB27A72F962F852F09C0DB01B3
:10298000CA01C7E0B695A79597958795CA95D1F7DF
:10299000E9016A017B018F01BC01CD01680D791D40
:1029A0008A1D9B1D8090040190900501A090060156
:1029B000B0900701681579058A059B0591F4F80127
:1029C00087898031A1F4DD24EE24FF24C601880F1D
:1029D000991FFC01E656FD4F80819181A0E0B0E097
:1029E00018C040E00E94AE138111E9CFBACFE8943D
:1029F000C7F8DD24EE24FF24C601880F991F880F35
:102A0000991FFC01E656FD4F80819181A281B3811F
:102A1000BF7088839983AA83BB8381E0DF91CF91C4
:102A20001F910F91FF90EF90DF90CF90BF90AF90EC
:102A30009F908F9008952F923F924F925F926F9246
:102A40007F928F929F92AF92BF92CF92DF92EF923E
:102A5000FF920F931F93CF93DF93CDB7DEB72B97E2
:102A60000FB6F894DEBF0FBECDBF7C01FE013196DC
:102A7000CE010C966F0130E23193E817F907E1F7C8
:102A8000DA0130E087E09D91992331F19E3231F4F3
:102A90008A3009F479C138E08AE0F5CFE2ECF0E061
:102AA0004491442321F031969413FACF6DC18317DA
:102AB00008F46AC14FED490F4E3508F065C141E099
:102AC000430FF601E30FF11D3FE9390F3A3108F4E6
:102AD00090529083342FD7CF8981803209F454C12A
:102AE000322E8B01DB015B968D919C915C97F701F7
:102AF000948F838F16961D921D921D921C9219978A
:102B0000FB011286138614861586B12CF801828586
:102B10009385A485B5854389548965897689841709
:102B20009507A607B70708F05BC025E0B695A795FF
:102B3000979587952A95D1F7F82FFF70AF2ED8017A
:102B400015968C91823008F41FC1C8010E94760747
:102B500097FD1AC1F80182859385A485B5854F96A6
:102B6000A11DB11D82879387A487B587F0E2AF9E30
:102B7000B001112466567D4F6115710509F404C139
:102B8000DB018C91882319F0853EC1F4FFC0B110A0
:102B90000EC0F701A28A8091040190910501A091D5
:102BA0000601B091070186879787A08BB18BDB0167
:102BB0008C91882399F0BB24B394A8CF4BE050E0CC
:102BC000C6010E942A24892B09F0A0CF832D80738F
:102BD000803309F4D9C0432D6A2DD2C0BB24B394ED
:102BE000832D8271823109F0CFC0BB20C9F0F7017B
:102BF000668577858089918941E00E94AE1388239C
:102C000009F4C2C0D70152960C91B0E20B9F80012B
:102C1000112406561D4F0115110509F078C0B4C0E6
:102C2000F8018581823009F4AFC0C8010E94FE021C
:102C3000882309F4A9C0D8015B96ED91FC915C97BB
:102C400016968D909D90AD90BC901997B2E08B1A1E
:102C50009108A108B108058404C0880C991CAA1C1D
:102C6000BB1C0A94D2F786859785A089B189880E06
:102C7000991EAA1EBB1E2480E1E08E1A9108A108AD
:102C8000B108222009F124013501420C511C611CBC
:102C9000711C0E947313882309F476C0EAE9F2E0FC
:102CA000119224E0EA39F207D9F7409204015092D8
:102CB000050160920601709207018091090681600A
:102CC000809309062A94DDCFD8015B96ED91FC91A3
:102CD0005C9780E092E0A0E0B0E0058404C0880F3B
:102CE000991FAA1FBB1F0A94D2F7F8014389548980
:102CF00065897689840F951FA61FB71F838B948BD8
:102D0000A58BB68BD70152961C920AE912E080E29D
:102D1000F80111928A95E9F78BE0F601D80101904C
:102D20000D928A95E1F7E0913C02F0913D023097D7
:102D300039F0B801625F7F4FC801409609950DC018
:102D400081E298E2D80151969C938E93509780E04F
:102D500098E01F969C938E931E97F8018089918925
:102D6000938B828B918F808F86859785978B868BAF
:102D70000E947313882341F0432DD70152966C9122
:102D8000C7010E94F50105C080E003C0B11013CF58
:102D900000CF2B960FB6F894DEBF0FBECDBFDF91EC
:102DA000CF911F910F91FF90EF90DF90CF90BF9048
:102DB000AF909F908F907F906F905F904F903F90DB
:102DC0002F9008951F920F920FB60F9211242F93F8
:102DD0003F938F939F93AF93BF9380918402909181
:102DE0008502A0918602B09187023091510623E0BE
:102DF000230F2D3720F40196A11DB11D05C026E833
:102E0000230F0296A11DB11D2093510680938402C9
:102E100090938502A0938602B093870280918802E6
:102E200090918902A0918A02B0918B020196A11D16
:102E3000B11D8093880290938902A0938A02B09377
:102E40008B02BF91AF919F918F913F912F910F90E6
:102E50000FBE0F901F901895CF93DF93CDB7DEB7BD
:102E6000CC56D1090FB6F894DEBF0FBECDBF789413
:102E700084B5826084BD84B5816084BD85B582607F
:102E800085BD85B5816085BD80916E008160809330
:102E90006E00109281008091810082608093810099
:102EA00080918100816080938100809180008160A9
:102EB000809380008091B10084608093B100809104
:102EC000B00081608093B00080917A00846080932C
:102ED0007A0080917A00826080937A0080917A00F3
:102EE000816080937A0080917A00806880937A0074
:102EF0001092C10010927E0210927D021092800208
:102F000010927F021092810261E087E00E94040D1E
:102F100060E087E00E94D50C61E088E00E94040D2B
:102F200060E088E00E94D50C10927B0262E086E0AF
:102F30000E94040D62E085E00E94040D10923502AB
:102F40001092340260ED77E080E090E00E94670E1E
:102F5000E0911805F091190582E08083E091140555
:102F6000F09115051082E0911605F091170580E1AA
:102F7000808310922005E0911C05F0911D0586E0EC
:102F80008083E0911A05F0911B0580818061808328
:102F9000E0911A05F0911B05808188608083E091A3
:102FA0001A05F0911B05808180688083E0911A05E5
:102FB000F0911B0580818F7D808384E690E0A0E006
:102FC000B0E080930C0590930D05A0930E05B0938F
:102FD0000F058CE691E09F938F9381E791E09F939B
:102FE0008F9389E492E09F938F930E94512469E428
:102FF00072E088E095E00E94D7108FE08093FE0594
:103000000E94E30D81E080933F0280933E0286E4BC
:1030100099E090933D0280933C020F900F900F90A7
:103020000F900F900F908091E205882321F08DED95
:1030300095E00E94F2021092BE051092BC0510921B
:10304000B9051092B8058AE08093B7050E94A10ED9
:103050006B017C0161E08091B7050E94040D61E085
:103060008091B7050E94D50C1FB7F8948091480253
:10307000811127C0E0E9F0E08491E4EAF0E0949166
:10308000E82FF0E0EE0FFF1FE859FF4FA591B49134
:10309000EC91E92321F461E08AE00E94D50C61E023
:1030A0008AE00E94040D8CB580618CBD8CB5806473
:1030B0008CBD61E08DE00E94040D61E08BE00E9418
:1030C000040D809148028F5F809348021FBF82E504
:1030D0008093B1051092B2058091B1059091B2052F
:1030E0000E9451041AE08FEF0E9412041150D9F788
:1030F00083EB95E00E94540420E030E0A90160E0F9
:1031000083EB95E00E946A04182F8093BD058130FF
:1031100049F00E94A10E6C197D09613D774060F372
:1031200081E054C02AEA31E040E050E068E083EBFF
:1031300095E00E946A0482FF03C01093BE050EC092
:1031400014E00E9419048093BD051150D1F78A3A0A
:1031500011F082E03BC082E08093BE058091BE0505
:10316000823031F4812C912CA12CF0E4BF2E03C0CD
:10317000812C912C540120E030E0A90167E383EB1E
:1031800095E00E946A04A501940169E283EB95E051
:103190000E946A048093BD05882349F00E94A10E15
:1031A0006C197D09613D774030F388E00FC0809154
:1031B000BE05823001F520E030E0A9016AE383EB2F
:1031C00095E00E946A04882341F086E08093B80568
:1031D00083EB95E00E94070428C00E941904807CBC
:1031E000803C19F483E08093BE050E9419040E947C
:1031F00019040E94190483EB95E00E94070480E5FE
:103200008093B1051092B20581E00E947E0B882365
:1032100039F08DED95E00E942A0B882331F025C00E
:1032200080E00E947E0B8111F4CF03E010E061E0AA
:1032300087E00E94D50C68EC70E080E090E00E948E
:10324000670E60E087E00E94D50C68EC70E080E0DB
:1032500090E00E94670E0150110949F760ED77E098
:1032600080E090E00E94670EE0CF1092470281E07C
:10327000809345028093440290E1909381001092E4
:10328000800093E09093460222E13AE73093870072
:103290002093860093E19093810025ED30E03093F8
:1032A00037022093360280936F00109281001092B3
:1032B0008500109284009091460290619093810065
:1032C0001092E4041092E304109206051092050592
:1032D0001092E2048093E1041092DC0461E082E148
:1032E0000E94D50C61E083E10E94D50C8091B90069
:1032F0008E7F8093B9008091B9008D7F8093B90053
:1033000088E48093B80085E48093BC008CEE9FE055
:1033100090933B0280933A028DEE9FE090933902A6
:10332000809338028FE498E1A9E4BCE580934002E1
:1033300090934102A0934202B093430288E60E9418
:10334000F30980E090E00E94A20A0E94460A87E00A
:1033500090E00E94FD0985EA95E00E94FE0F8F77BC
:10336000982F92959F701AEF082F919F000D1124AE
:1033700085EA95E00E94FE0F9C01332744E03595D5
:1033800027954A95E1F7F82E129FF00C112485EA53
:1033900095E00E94FE0F9C01332754E03595279558
:1033A0005A95E1F7E82E129FE00C112485EA95E08A
:1033B0000E94FE0F85EA95E00E94FE0F9C013327D4
:1033C00064E0359527956A95E1F7D82E129FD00CC9
:1033D000112485EA95E00E94FE0F9C01332774E0DA
:1033E000359527957A95E1F7C82E129FC00C1124C8
:1033F00085EA95E00E94FE0F9C013327E4E03595B5
:103400002795EA95E1F7129F800D11248983CA82DE
:10341000DB82EC82FD820E83CE0101960E9499121E
:103420006093400270934102809342029093430262
:1034300080E00E94A70A182F88E60E94F3098EE018
:1034400090E00E94A20A612F637285EA95E00E94D3
:1034500047100E94460A62E080E00E94040D8BE360
:1034600091E09093010180930001809169008C7F2D
:10347000816080936900E89A81E00E94A70A87FD35
:10348000BFC46BE871E088E095E00E94D71060EA65
:1034900071E088E095E00E94D710E09001068091ED
:1034A0000206A9968FAFA99780910306A8968FAFC1
:1034B000A89780910406A7968FAFA79780910506DD
:1034C000A6968FAFA69780914702882309F430C251
:1034D000833009F48CC030F4813059F0823009F423
:1034E00052C023C2843009F4BBC0853009F4FFC048
:1034F0001CC2F12C87010053184FBE0167597F4F42
:10350000CE0186599F4F0E949308AB969FADAB9713
:10351000AA968FADAA97911123C0882331F183E633
:10352000E816F10418F40F5F1F4F02C000ED17E01A
:1035300010928100109285001092840080914602C2
:1035400080618093810081E08093450280934402F2
:10355000C801805D9740809301061092060605C061
:10356000811103C082E00E948E1F80914502882352
:1035700009F443C480914402882309F46EC020E01A
:1035800044E060E0B2C0BE0167597F4FCE0186596A
:103590009F4F0E949308AB969FADAB97AA968FADB5
:1035A000AA97911111C08823A1F04CE061E0CE01EF
:1035B00088599F4F0E942B09A9968FADA997809398
:1035C00002061092060605C0811103C083E00E9426
:1035D0008E1F80914502882309F40FC48091440214
:1035E0008823D9F1A9968FADA99720E033C0BE01F9
:1035F00067597F4FCE0186599F4F0E949308AB9623
:103600009FADAB97AA968FADAA97911111C0882351
:10361000A1F04FE161E0CE0189599F4F0E942B0933
:10362000A8968FADA897809303061092060605C052
:10363000811103C084E00E948E1F8091450288237F
:1036400009F4DBC380914402882339F0A8968FAD3A
:10365000A89722E042E060E062C10E94E30D62C1EF
:10366000BE0167597F4FCE0186599F4F0E94930834
:10367000AB969FADAB97AA968FADAA97911111C04B
:103680008823A1F047E160E0CE018A599F4F0E9454
:103690002B09A7968FADA797809304061092060674
:1036A00005C0811103C085E00E948E1F80914502F4
:1036B000882309F4A2C3009105068091440210E01A
:1036C000882371F0A7968FADA79720E044E060EEC5
:1036D000F80134E6839FE00DF11D1124CF0120C1D4
:1036E0000E94E30D22E042E060EEC80119C1BE0174
:1036F00067597F4FCE0186599F4F0E949308AB9622
:103700009FADAB97AA968FADAA97911112C088234F
:1037100009F4E7C04BE360E0CE018B599F4F0E9454
:103720002B09A6968FADA6978093050610920606E4
:10373000D8C08111D6C00091010688E60E94F30925
:1037400086E090E00E94A20A1AE0802F612F0E947A
:10375000BC22692FE0E18E9F600D112485EA95E07F
:103760000E9447100E94460A0091020688E60E94C5
:10377000F30985E090E00E94A20A802F612F0E9449
:10378000BC22692FF0E18F9F600D112485EA95E03E
:103790000E9447100E94460A0091030688E60E9494
:1037A000F30984E090E00E94A20A802F612F0E941A
:1037B000BC22692F20E1829F600D112485EA95E0EB
:1037C0000E9447100E94460A0091040688E60E9463
:1037D000F30982E090E00E94A20A0E94460A81E07A
:1037E00090E00E94FD0985EA95E00E94FE0F86FFA9
:1037F00018C00D3060F084EF800F612F0E94BC2252
:10380000192F30E1839F100D1124106614C0802FF2
:10381000612F0E94BC22192FE0E18E9F100D112410
:103820000AC0802F612F0E94BC22192FF0E18F9FC8
:10383000100D11241F7B88E60E94F30982E090E0BE
:103840000E94A20A612F85EA95E00E9447100E941B
:10385000460A1091050688E60E94F30981E090E08F
:103860000E94A20A812F6AE00E94BC22692F20E1F7
:10387000829F600D112485EA95E00E9447100E9406
:10388000460A88E60E94F30980E090E00E94A20ABE
:1038900060E085EA95E00E9447100E94460A81E0B8
:1038A0000E94A70A182F88E60E94F3098FE090E093
:1038B0000E94A20A612F6F7785EA95E00E94471067
:1038C0000E94460A81E096E00E94991260934002AD
:1038D00070934102809342029093430280E00E94E1
:1038E0008E1F80914502882309F487C21091040637
:1038F00080914402882369F0A6968FADA69790E048
:1039000020E044E060EE34E6139F800D911D112409
:1039100007C00E94E30D20E042E060EE812F90E0BE
:103920000E94FA0D1092450268C21092470265C2C9
:10393000D09081028D2D90E004E010E0081B190B5F
:10394000FC01E358FD4F7F01A12CB12C0A151B058A
:1039500019F4011130C0C5C00E94A10E609310057A
:1039600070931105809312059093130588E095E0FC
:103970000E94E70E97FF51C20E94A10E40901005D1
:10398000509011056090120570901305DC01CB0179
:1039900084199509A609B70940900C0550900D05AA
:1039A00060900E0570900F0584159505A605B70566
:1039B000E8F28501CECF0D0D00938102043009F0AD
:1039C0001CC280917D0290917E02982789279827BA
:1039D00090937E0280937D0280917F02909180027D
:1039E0009827892798279093800280937F0280915F
:1039F0007C02882309F472C061E088E00E94D50C43
:103A000085E080937B024091400250914102609199
:103A1000420270914302CE014E960E94FB12CE01EB
:103A200001960E94D61FEA8DFB8D309709F452C093
:103A30008581882309F44EC0409140025091410293
:103A40006091420270914302809180028F93809135
:103A50007F028F9380917E028F9380917D028F935E
:103A60008BA11F928F938AA11F928F9389A11F927E
:103A70008F9388A11F928F938F8D1F928F938E8D1E
:103A800090E08053984F9F938F937F936F935F93B2
:103A90004F9383EA91E09F938F9389E492E09F9301
:103AA0008F930E94512469E472E0CE0101960E9436
:103AB000D7108A8D9B8D0FB6F894DEBF0FBECDBF99
:103AC000009741F00E94F2028A8D9B8D0E949C23F8
:103AD0001B8E1A8E60E088E00E94D50C1092810245
:103AE0008CC11092810280913F02882311F11092C3
:103AF0003F02409140025091410260914202709118
:103B00004302CE0101960E94FB122C818D8190E030
:103B100034E6239F800D911D112420913E02211136
:103B200003C044E060EE03C020E044E060E00E9497
:103B3000FA0DBE0167597F4FCE0186599F4F0E94F3
:103B4000930890917C02911123C0AB968FADAB97F7
:103B50008823F1F0AA968FADAA978823C9F04091E7
:103B60004002509141026091420270914302CE01A5
:103B700001960E94FB1286E0FE013196A1E0B6E0BC
:103B800001900D928A95E1F781E00E948E1F35C168
:103B9000AB968FADAB97882309F4DBC0AA962FAD07
:103BA000AA972111D6C081E0292E282620927C02D6
:103BB000222009F4C9C061E087E00E94D50CC12C25
:103BC000D12C9CE8492E92E0592E28E5A22E21E026
:103BD000B22EDF92CF928CEC91E09F938F935F9205
:103BE0004F920E9451241EAE1DAEBCAEABAE2196CC
:103BF0001FAE219719A218A2BF8EAE8E1BA20F90E6
:103C00000F900F900F900F900F90612C712C9E01D0
:103C1000255C3F4F79010DED15E0C301F301E45739
:103C2000FD4F20812F3209F40196DC01A457BD4FCE
:103C3000FE01E85AFF4F20E030E04F014D914F3236
:103C400049F0442339F02F5F3F4F019641932C30C8
:103C50003105A1F7F401E20FF31F1082FC01E457D4
:103C6000FD4F20812F3209F401963C01FC01E457FD
:103C7000FD4F30801C821B82BA82A9821E8221E005
:103C8000A401B801CE0101960E941B15882339F0CA
:103C9000CE0101960E94F202311007C022C035E029
:103CA0000D3D130709F0C4C0C6C0F701858181111D
:103CB000BBC021E0A401B801C7010E941B15982ECA
:103CC000F5E00D3D1F0709F4D2C0C8010E94F202C1
:103CD000992009F4B0C0902F812F8701E92EF82E8A
:103CE0009CCF25E00D3D120719F0C8010E94F20299
:103CF000222009F4A0C03FEFC31AD30A80E1C816FE
:103D000087E2D80609F065CF03E010E061E087E0C4
:103D10000E94D50C64EF71E080E090E00E94670E95
:103D200060E087E00E94D50C64EF71E080E090E0F5
:103D30000E94670E0150110949F760ED77E080E0BD
:103D400090E00E94670EE0CF60E087E00E94D50C13
:103D500054C0AA969FADAA97992309F44EC0811129
:103D60004CC088E60E94F30981E190E00E94A20A1B
:103D70000E94460A82E090E00E94FD099091E304CF
:103D80008091E404981731F185EA95E00E94FE0FD6
:103D9000182F85EA95E00E94FE0FAD961FAFAD97F4
:103DA000AC961FAEAC97AD966EAD7FADAD97682B60
:103DB00086E0759567958A95E1F7072E000C880BCC
:103DC000990B0E94432120E030E040E85EE30E942E
:103DD0007E2104C060E07CE38CE196EC0E948D22A1
:103DE000DC01CB0120E044E060E00E94FA0D60EDD0
:103DF00077E080E090E00E94670E0E94B00F4DCB0C
:103E000068E072E088E095E00E94D71060EA71E017
:103E100088E095E00E94D71034CBF70181937F01B1
:103E2000FFEFAF1ABF0A92CD25E00D3D120719F042
:103E3000C8010E94F202CE0101960E94D61FEA8DAF
:103E4000FB8D3097D1F285818823B9F269ED71E05D
:103E5000CE0101960E94D7108A8D9B8D009769F242
:103E60000E94F2028A8D9B8D0E949C23C6CF8823DC
:103E700011F38E01025E1F4F2ECFFC01DB01129663
:103E80008D919C9113979383828388E591E0918330
:103E9000808314968C911497848315968C91159732
:103EA000858316964D915D916D917C91199746830E
:103EB0005783608771871A964D915D916D917C91C2
:103EC0001D9742875387648775871E964D915D9134
:103ED0006D917C91519746875787608B718B529675
:103EE0008C915297828B53964D915D916D917C91FF
:103EF0005697438B548B658B768B57964D915D917E
:103F00006D917C915A97478B508F618F728F5B9622
:103F10008D919C915C97948F838F08958093470235
:103F2000E1E8F0E010821092850010928400809108
:103F300046028061808381E0809345028093440241
:103F40000895EF92FF920F931F93CF93DF93EC01AD
:103F50007B018A011B821A8288EE93E0A0E0B0E028
:103F60008C839D83AE83BF8382E191E099838883B4
:103F70008DE190E00E9404239A8F898F009779F059
:103F80002DE1F701DC0101900D922A95E1F74CE05B
:103F900050E0B801CE010C960E944224188EDF91A9
:103FA000CF911F910F91FF90EF9008952F923F9224
:103FB0004F925F926F927F928F929F92AF92BF9239
:103FC000CF92DF92EF92FF920F931F93CF93DF93E5
:103FD000CDB7DEB7C456D1090FB6F894DEBF0FBE19
:103FE000CDBF5C0119A218A288E591E09F8F8E8F4A
:103FF0001BA21C821B829A8389831E824E018EE142
:10400000880E911CC4010E942A0B8E010F5F1F4F66
:1040100024018CE8C82E82E0D82E18016FE270E0EF
:10402000C6010E943724009709F442C0F60120819E
:104030002F3221F4FFEFCF1ADF0AF0CF8C198D3029
:1040400008F08CE0E82EF12CA701B601CE01885AC9
:104050009F4F0E944224E8E5F0E0EC0FFD1FEE0DBB
:10406000FF1D1082C8010E94F202F8018581882399
:1040700051F01EAE1DAE88E591E09CAF8BAF21964E
:104080001FAE21971EC021E0AE01485A5F4FB2011A
:10409000C8010E941B15882361F3CE0CDF1CC201EE
:1040A0000E94F202942D852D2801092F182FB6CFDA
:1040B000C6018C5892403C01B201CE01CB960E94C1
:1040C0003D1F830104571D4FF8018081811109C0F4
:1040D000BE01655C7F4FC1010E943D1F42E352E07B
:1040E00039C019A218A288E591E09F8F8E8F1BA27C
:1040F00021968FAD2197811113C0F5011382128291
:1041000088EE93E0A0E0B0E084839583A683B78334
:1041100082E191E091838083128E118E14861EC0FD
:1041200027E1A801BE01655C7F4FC4010E941B15F9
:10413000882319F3CE01CB960E94F20249A95AA90D
:104140006BA97CA9C4010E945E01B401C1010E9457
:104150003D1FA801B101C5010E94A11FC501CC5995
:10416000DF4F0FB6F894DEBF0FBECDBFDF91CF910A
:104170001F910F91FF90EF90DF90CF90BF90AF9085
:104180009F908F907F906F905F904F903F902F9077
:104190000895CF93DF93E8E0F5E01382128288EE72
:1041A00093E0A0E0B0E084839583A683B78324E303
:1041B00031E03183208325EC30E03587248724ECFF
:1041C00030E03787268720EC30E0318B208B21ECE4
:1041D00030E0338B228B22EC30E0358B248B26ECC5
:1041E00030E0378B268B118E128E138E148EE5EAFB
:1041F000F5E01382128284839583A683B78386E4D5
:1042000091E091838083E1EBF5E080E5808311828A
:10421000E3EBF5E0158216821186138682E090E0CA
:10422000A0E0B0E084879587A687B78713A215A67C
:1042300014A688E591E093A782A717A640E050E076
:10424000BA0181E096E00E94FB12CCEFD5E083E05A
:10425000888384E0898384E690E09C838B8360E09C
:1042600083E00E94040D60E089810E94040D60E0FB
:1042700088810E94D50C60E08981DF91CF910C94F8
:10428000D50CE89409C097FB3EF490958095709505
:1042900061957F4F8F4F9F4F9923A9F0F92F96E992
:1042A000BB279395F695879577956795B795F11107
:1042B000F8CFFAF4BB0F11F460FF1BC06F5F7F4FA4
:1042C0008F4F9F4F16C0882311F096E911C07723B6
:1042D00021F09EE8872F762F05C0662371F096E8BF
:1042E000862F70E060E02AF09A95660F771F881F8E
:1042F000DAF7880F9695879597F908950E9491218E
:104300000C9402220E94F42138F00E94FB2120F03C
:10431000952311F00C94EB210C94F12111240C94B1
:1043200036220E94132270F3959FC1F3950F50E03F
:10433000551F629FF001729FBB27F00DB11D639F57
:10434000AA27F00DB11DAA1F649F6627B00DA11DFD
:10435000661F829F2227B00DA11D621F739FB00DA3
:10436000A11D621F839FA00D611D221F749F332713
:10437000A00D611D231F849F600D211D822F762FAC
:104380006A2F11249F5750409AF0F1F088234AF089
:10439000EE0FFF1FBB1F661F771F881F91505040F5
:1043A000A9F79E3F510580F00C94EB210C94362226
:1043B0005F3FE4F3983ED4F3869577956795B7957C
:1043C000F795E7959F5FC1F7FE2B880F911D969596
:1043D000879597F9089597F99F6780E870E060E006
:1043E00008959FEF80EC089500240A94161617068E
:1043F00018060906089500240A94121613061406D6
:1044000005060895092E0394000C11F4882352F038
:10441000BB0F40F4BF2B11F460FF04C06F5F7F4FF0
:104420008F4F9F4F089557FD9058440F551F59F0D7
:104430005F3F71F04795880F97FB991F61F09F3F91
:1044400079F087950895121613061406551FF2CFBA
:104450004695F1DF08C0161617061806991FF1CF0A
:1044600086957105610508940895E894BB27662731
:104470007727CB0197F908950E947E22A59F900D82
:10448000B49F900DA49F800D911D112408952F922B
:104490003F924F925F926F927F928F929F92AF92D4
:1044A000BF92CF92DF92EF92FF920F931F93CF9321
:1044B000DF93CDB7DEB7CA1BDB0B0FB6F894DEBFB8
:1044C0000FBECDBF09942A88398848885F846E84DE
:1044D0007D848C849B84AA84B984C884DF80EE8028
:1044E000FD800C811B81AA81B981CE0FD11D0FB631
:1044F000F894DEBF0FBECDBFED010895A29FB001BD
:10450000B39FC001A39F700D811D1124911DB29F07
:10451000700D811D1124911D08950E941B2288F0A9
:104520009F5798F0B92F9927B751B0F0E1F0660F77
:10453000771F881F991F1AF0BA95C9F714C0B130B8
:1045400091F00E943522B1E008950C943522672F36
:10455000782F8827B85F39F0B93FCCF386957795E7
:104560006795B395D9F73EF49095809570956195D0
:104570007F4F8F4F9F4F0895991B79E004C0991F7B
:10458000961708F0961B881F7A95C9F780950895AD
:10459000AA1BBB1B51E107C0AA1FBB1FA617B70769
:1045A00010F0A61BB70B881F991F5A95A9F7809585
:1045B0009095BC01CD010895A1E21A2EAA1BBB1B48
:1045C000FD010DC0AA1FBB1FEE1FFF1FA217B307DF
:1045D000E407F50720F0A21BB30BE40BF50B661FF5
:1045E000771F881F991F1A9469F7609570958095B9
:1045F00090959B01AC01BD01CF010895EE0FFF1F07
:104600000590F491E02D09940F931F93CF93DF93BE
:104610008230910510F482E090E0E0915406F09130
:10462000550620E030E0A0E0B0E0309719F140817D
:1046300051810281138148175907C8F084179507E3
:1046400069F4109731F012960C93129713961C93FD
:1046500027C0009354061093550622C0211531053A
:1046600019F04217530718F49A01BD01EF01DF0159
:10467000F801DBCF21153105F9F0281B390B243067
:10468000310580F48A819B816115710521F0FB0160
:104690009383828304C09093550680935406FE0151
:1046A000329644C0FE01E20FF31F81939193225092
:1046B0003109398328833AC020915206309153063C
:1046C000232B41F420910A0130910B0130935306C2
:1046D00020935206209108013091090121153105DE
:1046E00041F42DB73EB740910C0150910D01241BB0
:1046F000350BE0915206F0915306E217F307A0F450
:104700002E1B3F0B2817390778F0AC014E5F5F4F27
:104710002417350748F04E0F5F1F50935306409300
:1047200052068193919302C0E0E0F0E0CF01DF9167
:10473000CF911F910F910895CF93DF93009709F4C4
:1047400081C0FC01329713821282A0915406B0916D
:104750005506109781F420813181820F931F20919B
:104760005206309153062817390751F5F093530636
:10477000E093520667C0ED0120E030E0CE17DF077E
:1047800040F44A815B819E0141155105F1F0EA0137
:10479000F5CFD383C28340815181840F951FC81701
:1047A000D90759F488819981840F951F02969183C6
:1047B00080838A819B81938382832115310529F42B
:1047C000F0935506E09354063DC0E901FB83EA836C
:1047D00049915991C40FD51FEC17FD0761F48081F1
:1047E0009181840F951F0296E901998388838281C4
:1047F00093819B838A83E0E0F0E012968D919C91F7
:104800001397009719F0FD01DC01F7CF8D919C9172
:1048100011979D012E5F3F4F820F931F20915206EB
:10482000309153062817390769F4309729F410920C
:1048300055061092540602C013821282B09353069A
:10484000A0935206DF91CF91089581E090E0F89413
:104850000C940427FB01DC0104C08D9101908019A8
:1048600021F441505040C8F7881B990B0895FC0172
:104870008191861721F08823D9F7992708953197D8
:10488000CF010895FB01DC014150504048F00190F8
:104890000D920020C9F701C01D9241505040E0F731
:1048A0000895AEE0B0E0E7E5F4E20C9455220D89FE
:1048B0001E8986E08C831A8309838FEF9FE79E838E
:1048C0008D83AE01475E5F4F6F89788DCE01019673
:1048D0000E947324EF81F885E00FF11F10822E965D
:1048E000E4E00C947122ABE0B0E0E9E7F4E20C9470
:1048F00047226C017B018A01FC01178216828381A9
:1049000081FFCCC1CE0101963C01F6019381F701F4
:1049100093FD859193FF81917F01882309F4BAC1AA
:10492000853239F493FD859193FF81917F01853222
:1049300029F4B60190E00E946A26E7CF912C212C41
:10494000312CFFE1F315D8F08B3279F038F4803256
:1049500079F08332A1F4232D20611DC08D3261F0E6
:10496000803369F4232D216016C0832D8260382E98
:10497000E32DE4603E2E2AC0F32DF8601DC037FC05
:104980002DC020ED280F2A3040F08E32B9F436FCCD
:1049900081C1232D2064322E19C036FE06C08AE064
:1049A000989E200D1124922E11C0EAE02E9E200D1B
:1049B0001124222EF32DF0623F2E08C08C3621F4F4
:1049C000832D8068382E02C0883641F4F70193FDAC
:1049D000859193FF81917F018111B3CF982F9F7DA6
:1049E0009554933028F40C5F1F4F9FE399830DC0BB
:1049F000833631F0833771F0833509F059C021C017
:104A0000F801808189830E5F1F4F88248394912C45
:104A1000530113C02801F2E04F0E511CF801A08091
:104A2000B18036FE03C0692D70E002C06FEF7FEFEA
:104A3000C5010E945F264C018201F32DFF773F2EB6
:104A400016C0280122E0420E511CF801A080B1805E
:104A500036FE03C0692D70E002C06FEF7FEFC50125
:104A60000E9454264C01F32DF0683F2E820133FC46
:104A70001BC0822D90E088169906B0F4B60180E242
:104A800090E00E946A262A94F4CFF50137FC8591C4
:104A900037FE81915F01B60190E00E946A262110E5
:104AA0002A9421E0821A91088114910471F7E8C0D8
:104AB000843611F0893641F5F80137FE07C0608170
:104AC0007181828193810C5F1F4F08C06081718169
:104AD000072E000C880B990B0E5F1F4FF32DFF76EE
:104AE0003F2E97FF09C090958095709561957F4FF7
:104AF0008F4F9F4FF0683F2E2AE030E0A3010E94C5
:104B0000A626882E861845C0853731F4232D2F7EA2
:104B1000B22E2AE030E025C0932D997FB92E8F3632
:104B2000C1F018F4883579F0B5C0803719F08837AE
:104B300021F0B0C0E92FE061BE2EB4FE0DC0FB2D08
:104B4000F460BF2E09C034FE0AC0292F2660B22EA1
:104B500006C028E030E005C020E130E002C020E1DE
:104B600032E0F801B7FE07C06081718182819381D4
:104B70000C5F1F4F06C06081718180E090E00E5F86
:104B80001F4FA3010E94A626882E8618FB2DFF77B3
:104B90003F2E36FE0DC0232D2E7FA22E891458F4F1
:104BA00034FE0BC032FC09C0832D8E7EA82E05C0BA
:104BB000B82CA32C03C0B82C01C0B92CA4FE0FC084
:104BC000FE01E80DF11D8081803321F49A2D997E3C
:104BD000A92E09C0A2FE06C0B394B39404C08A2DC6
:104BE000867809F0B394A3FC11C0A0FE06C0B214ED
:104BF00088F4280C922C9B180EC0B21460F4B601F5
:104C000080E290E00E946A26B394F7CFB21418F4C1
:104C10002B1802C0982C212CA4FE10C0B60180E3F2
:104C200090E00E946A26A2FE17C0A1FC03C088E79C
:104C300090E002C088E590E0B6010CC08A2D86782D
:104C400059F0A1FE02C08BE201C080E2A7FC8DE218
:104C5000B60190E00E946A26891438F4B60180E318
:104C600090E00E946A269A94F7CF8A94F301E80DA7
:104C7000F11D8081B60190E00E946A268110F5CF77
:104C8000222009F442CEB60180E290E00E946A261A
:104C90002A94F6CFF6018681978102C08FEF9FEFAD
:104CA0002B96E2E10C946322FC0105906150704068
:104CB0000110D8F7809590958E0F9F1F0895FC01E5
:104CC0006150704001900110D8F7809590958E0F3B
:104CD0009F1F08950F931F93CF93DF93FB012381B1
:104CE00021FD03C08FEF9FEF2CC022FF16C046812D
:104CF0005781248135814217530744F4A081B18143
:104D00009D012F5F3F4F318320838C932681378114
:104D10002F5F3F4F3783268314C08B01EC01FB01CB
:104D20000084F185E02D0995892BE1F6D8011696CE
:104D30008D919C911797019617969C938E93169739
:104D4000CE01DF91CF911F910F910895FA01AA270B
:104D5000283051F1203181F1E8946F936E7F6E5FBE
:104D60007F4F8F4F9F4FAF4FB1E03ED0B4E03CD06C
:104D7000670F781F891F9A1FA11D680F791F8A1F4F
:104D8000911DA11D6A0F711D811D911DA11D20D0B6
:104D900009F468943F912AE0269F11243019305D70
:104DA0003193DEF6CF010895462F4770405D419361
:104DB000B3E00FD0C9F7F6CF462F4F70405D4A33AE
:104DC00018F0495D31FD4052419302D0A9F7EACF76
:104DD000B4E0A6959795879577956795BA95C9F7A5
:104DE00000976105710508959B01AC010A2E069498
:104DF0005795479537952795BA95C9F7620F731F51
:0C4E0000841F951FA01D0895F894FFCF9B
:104E0C00AD0EAD0EFFFFFFFF000056068000000048
:104E1C000000BB005A07D20033019A005F086908F2
:104E2C003F065B4F666D7D077F6F777C395E7971CE
:104E3C0000000000410FAE0ED80E8E0F090FE70ECA
:104E4C00FB0E0000000047101A10D200EE0F1210DB
:104E5C00FE0FEF0F000000007810AE0ED200D10054
:104E6C00000000007610AE0ED200D100312E32368A
:104E7C00005374617274696E672028766572736969
:104E8C006F6E202573292E2E2E0A00496E697469C7
:104E9C00616C697A6174696F6E20444F4E452E00C7
:104EAC000D0A00256C642C253034642F25303264B7
:104EBC002F253032642C253032643A253032643A56
:104ECC00253032642C25642C25640A007265675FDA
:104EDC00253034642E63737600556E6978207469BE
:104EEC006D652C446174652C54696D652C52657329
:104EFC00697374616E7365202D2C526573697374BC
:104F0C00616E7365202B0A005741524E494E472162
:104F1C0020436C6F636B206F7363696C6C61746F8F
:104F2C0072206973206E6F742072756E6E696E6775
:044F3C0021002F0021
:00000001FF
