:100000000C9489000C94C80B0C94A10B0C94B100B7
:100010000C94B1000C94B1000C94B1000C94B1009C
:100020000C94B1000C94B1000C94B1000C94B1008C
:100030000C94B1000C94AA0C0C94B1000C94B10077
:100040000C94E3200C94B1000C94780C0C94520C9A
:100050000C94B1000C94B1000C94B1000C94B1005C
:100060000C94D10C0C94B1007C3C3E5E2B3D3F2F98
:100070005B5D3B2C2A225C001F1C1F1E1F1E1F1FC6
:100080001E1F1E1F00000000240027002A00000081
:100090000000250028002B0000000000230026009F
:1000A00029000404040404040404020202020202FB
:1000B000030303030303010204081020408001022C
:1000C00004081020010204081020000000080002AB
:1000D000010000030407000000000000000046616A
:1000E000696C656420746F20726561642066696C58
:1000F000652C207573696E672064656661756C7424
:1001000020636F6E66696775726174696F6E000057
:10011000252911241FBECFEFD8E0DEBFCDBF26E0DA
:10012000A4EAB2E001C01D92AE3CB207E1F712E0D2
:10013000A0E0B1E0E4EEFEE502C005900D92A43A25
:10014000B107D9F710E0C9E8D0E004C02197FE015B
:100150000E94612BC838D107C9F70E942D210C9449
:10016000702F0C940000DC015996ED91FC915A9788
:100170003097B9F083899489A589B68942855385DA
:1001800064857585841B950BA60BB70B811520E83C
:100190009207A105B10538F08FEF9FE7A0E0B0E02E
:1001A000089580E090E00895CF93DF931F92CDB73C
:1001B000DEB76983DC01ED91FC910280F381E02DD3
:1001C00041E050E0BE016F5F7F4F09950F90DF91D6
:1001D000CF910895089580E090E00895982F80EDE4
:1001E000890F8A3020F081EA890F8C3110F481E088
:1001F00008958FEB890F8A31D0F39B32C1F381E0F0
:100200009D3221F09E3219F080E0089508950895FE
:1002100081E08093B5029091B40289278093B40263
:100220000895FC0184819581009799F022813381A2
:10023000468157812417350718F0158214820895D6
:10024000A9014F5F5F4F53834283FC01E20FF31F0D
:1002500060830895CF93DF93DC01EB01EC81FD8196
:100260008A819B810896E817F90718F480E090E0EE
:1002700021C03897FD83EC833097C1F31296CD915E
:10028000DC911397209751F0CF018C1B9D0B23E03D
:10029000959587952A95E1F78D8303C01196FC9378
:1002A000EE931396FC93EE931297158214821782A5
:1002B0001682CF01DF91CF910895FC01818D928D3F
:1002C000009711F00C9463120895CF93DF93EC0123
:1002D000898D9A8D009739F481E090E09B838A8321
:1002E00080E090E00BC0FC01138212820E94EB16AA
:1002F000E98DFA8D22813381232B71F7DF91CF9124
:100300000895CF93C1E0C093AF0282E00E9409201C
:10031000892BB1F08091B0029091B102A091B2020C
:10032000B091B3020196A11DB11D8093B0029093CC
:10033000B102A093B202B093B302C093AE0202C066
:100340001092AE02CF9108950F931F93CF93DF9336
:100350001F92CDB7DEB78C01FC01828581111BC0D5
:100360008581882311F0118613C0198241E050E085
:10037000BE016F5F7F4FF801828193810E94EF0B76
:1003800021E0892B09F020E0F8012583898181870C
:1003900081E0F8018287F80181850F90DF91CF918C
:1003A0001F910F910895DF92EF92FF920F931F9389
:1003B000CF93DF93CDB7DEB728970FB6F894DEBFA3
:1003C0000FBECDBF8C017B01DC011696ED91FC9137
:1003D0001797228133818481958193838283FA8365
:1003E000E9831C821B823E832D83821B930B98879B
:1003F0008F83C8010E94A401D82EF8011286C8017B
:100400000E94A401D8011A961C92D81649F18111B4
:1004100003C081E090E047C08C35E1F4C8010E9440
:10042000A4018823B1F3853719F0E2E7F2E006C0B2
:1004300084E090E038C0891729F0329690819111BC
:10044000FACF06C08181811103C082E090E02BC009
:10045000F8011286682FCE0101960E941101CFCFBC
:1004600060E0CE0101960E9411018D819E81892B51
:1004700071F08B819C81E981FA812F813885821B03
:10048000930B22813381820F931F938382838D810B
:100490009E81D7018D939C93892B19F483E090E082
:1004A00002C080E090E028960FB6F894DEBF0FBE41
:1004B000CDBFDF91CF911F910F91FF90EF90DF9013
:1004C00008951F93CF93DF93EC01CE010E94A40106
:1004D0008B302CF489300CF58823C1F032C0803287
:1004E000E1F08F3219F08D3061F517C01A86CE0118
:1004F0000E94A4018A3219F08F32C9F01FC01A86F7
:1005000010E0CE010E94A401811103C081E090E0BF
:100510001AC08F3221F4112311F01A86D6CF11E0C0
:100520008A3209F010E01A86ECCF8A3071F21A860E
:10053000CE010E94A4018111F8CFE8CF82E090E0C3
:1005400002C080E090E0DF91CF911F9108958EBDB1
:1005500000000DB407FEFDCF8EB508958FEF0C940B
:10056000A7028CBD9DBD0895FC01DB0112968D9103
:100570009C9113979383828388E891E09183808391
:1005800014968C911497848315968C911597858376
:1005900016964D915D916D917C9119974683578385
:1005A000608771871A964D915D916D917C911D9731
:1005B00042875387648775871E964D915D916D9133
:1005C0007C91519746875787608B718B52968C919F
:1005D0005297828B53964D915D916D917C91569778
:1005E000438B548B658B768B57964D915D916D91B6
:1005F0007C915A97478B508F618F728F5B968D914C
:100600009C915C97948F838F08954F925F926F9225
:100610007F92AF92BF92CF92DF92EF92FF920F93B1
:100620001F93CF93DF931F92CDB7DEB7FC012581D7
:10063000222309F4C1C0848180FFBEC083899489CC
:10064000A589B6894284538464847584841595058C
:10065000A605B70509F4B0C06F015201F1E0BF2251
:10066000D6015B968D919C915C97B301A20139E014
:1006700076956795579547953A95D1F7223071F45D
:10068000FC01828D938DA48DB58D8A019B01080F8D
:10069000191F2A1F3B1FC901B8014AC0DC0114966B
:1006A0001C9111501423A114B104F9F411111DC0AF
:1006B00045284628472851F4F6018789908DA18D59
:1006C000B28D86839783A087B1870FC0D601169617
:1006D0004D915D916D917C91199796012A5F3F4FE5
:1006E0000E94FE0F882309F467C0F601238D348D24
:1006F00086819781A085B1850297A109B109AC01D6
:10070000BD01F901058404C0440F551F661F771F02
:100710000A94D2F786859785A089B189840F951FA1
:10072000A61FB71FBC01CD01610F711D811D911D59
:10073000D60114962C9126FF0DC0409004015090D4
:10074000050160900601709007014616570668067D
:10075000790699F440E00E94140F882369F1F501AD
:10076000E954FB4FDE0111969F012F5F3F4F2E177B
:100770003F0799F081918D93FACFFE0131967F0169
:1007800001E010E09501AB01BC018091B7069091AA
:10079000B8060E94EB15882379F0F60182859385CF
:1007A000A485B5850196A11DB11D82879387A48775
:1007B000B587898190E002C08FEF9FEF0F90DF91A6
:1007C000CF911F910F91FF90EF90DF90CF90BF904E
:1007D000AF907F906F905F904F900895FC01818D56
:1007E000928D009711F00C9405038FEF9FEF089501
:1007F0000F931F93CF93DF93FC01818D928D009710
:10080000B9F0EF010E9405038C010F3F8FEF18072D
:1008100091F0898D9A8DFC0142855385648575859B
:1008200041505109610971090E94B812C80105C0FF
:1008300080E090E002C08FEF9FEFDF91CF911F919A
:100840000F9108959F92AF92BF92CF92DF92EF9255
:10085000FF920F931F93CF93DF936C015B01FC0119
:100860001082FB01108200E010E0C0E0D0E082E0E6
:10087000E82EFF24F39493E0992E86E00E9409204D
:10088000811125C021968091A502813049F028F080
:10089000823071F08330A9F01EC0F092A5021BC017
:1008A000C436D105C1F4F6018083E092A50211C0DF
:1008B000C83EF3E0DF0779F4F601F0829092A502DA
:1008C00008C0C83CD10539F4F601F08202C010928C
:1008D000A502C0E0D0E085E00E940920811126C079
:1008E0000F5F1F4F8091A402813049F028F08230C1
:1008F00071F08330A9F01EC0F092A4021BC0043630
:100900001105C1F4F5018083E092A40211C0083EF4
:10091000F3E01F0779F4F501F0829092A40208C079
:10092000083C110539F4F501F08202C01092A402CE
:1009300000E010E0F6018081811102C0209739F4B7
:10094000F501808181110AC00115110539F061E0BE
:1009500070E080E090E00E949D208FCFDF91CF91EA
:100960001F910F91FF90EF90DF90CF90BF90AF90CD
:100970009F9008950F931F93CF93DF93FC012481E1
:1009800025FF1FC08B01C081D1812097D1F06E81DE
:100990007F810115110519F06115710521F46017AA
:1009A000710731F411C0C8010E94A52C892B61F098
:1009B0008D81882331F0F8E08F02C00DD11D112404
:1009C000E4CF80E090E001C0CE01DF91CF911F9194
:1009D0000F910895FC019081961728F0941718F450
:1009E0009F5F908301C06083109281001092850008
:1009F000109284008091B60280618093810081E032
:100A00008093B5028093B4020895FC0180819181A6
:100A1000892B21F460E070E0CB0108956AEE70E06C
:100A200080E090E008954F925F926F927F928F9254
:100A30009F92AF92BF92DF92EF92FF920F931F931C
:100A4000CF93DF93CDB7DEB7C654D1090FB6F89474
:100A5000DEBF0FBECDBF8C017B010E9461022796D5
:100A60009FAF8EAF2797CE018B5B9F4F0E940505EE
:100A7000672B09F08CC080FD8AC0C8010E94A401C8
:100A80008B3561F5D70114968C911497807880642A
:100A900014968C93149711961C921E9213961C9286
:100AA0001E921297F8018085882371F1C8010E9477
:100AB000A4018B3509F09CC1D8011A961C92C8017B
:100AC0000E9461029A838983CE0101960E940505E6
:100AD000672B09F0C0C180FDBEC160C08B3789F5AE
:100AE000D70114968C9114978078806214968C9319
:100AF000149711961C921E9213961C921E92129796
:100B0000F8018085811102C085E0B8C1C8010E944A
:100B1000A4018B3709F06CC1D8011A961C92C80148
:100B20000E94610225969FAF8EAF2597CE018D5B07
:100B30009F4F0E940505672B09F076C180FD74C1A7
:100B400098C0C8010E94A401873209F474C182329E
:100B500009F471C1C8010E94A401B82ECE0101960A
:100B60004C01D12C8B2D0E94EE00882309F488C102
:100B7000FFE3DF1609F484C1F8011286D394D4018F
:100B8000BD924D01C8010E94A401B82EEBCF26965C
:100B90008FAD269727969FAD279785C3C8010E94E2
:100BA000A4018D35B1F1D8016D917C91C7010E94EE
:100BB0002A01BC01892B09F451C0F801908591509C
:100BC0009087C8010E9413059A838983D8011896DB
:100BD0008C9118978F5F18968C93CE0101960E9486
:100BE0000505672B09F037C180FD35C1C8010E949A
:100BF00061029A838983CE0101960E940505672BC5
:100C000009F029C180FD27C1C8010E94A4018D35CA
:100C100039F5F801128631C1C8010E94A4018C3255
:100C200009F0E6C0F8011286C8010E94610225960B
:100C30009FAF8EAF2597CE018D5B9F4F0E9405051C
:100C4000672B09F0F1C080FDEFC0D8016D917C9158
:100C5000C7010E942A015C01892B89F483E00EC13F
:100C6000C8010E94A4018C3209F0C2C0F8011286AA
:100C70009ACFC8010E94A4018D3739F7CACFC801A5
:100C80000E94A401873211F08232A9F4BE016F5B89
:100C90007F4FC8010E94D30125969FAF8EAF259745
:100CA000CE018D5B9F4F0E940505672B09F0BCC0EC
:100CB00080FF5BC0B9C0D8011696ED91FC911797E3
:100CC000228133818481958193838283FA83E983AE
:100CD0001C821B823E832D83821B930B98878F83FC
:100CE000C8010E94A401D82E8823E1F18D2D0E9415
:100CF000EE00882389F1F80112866D2DCE01019650
:100D00000E941101C8010E94A401D82E0E94EE0089
:100D10008111F1CF60E0CE0101960E9411018D8119
:100D20009E81892B71F0E981FA818B819C812F81D1
:100D30003885821B930B22813381820F931F93830B
:100D400082838D819E8123969FAF8EAF2397892BBF
:100D500031F483E090E0A0CF82E090E09DCF80E08E
:100D600090E09ACF81E090E097CF23962EAD3FADF3
:100D70002397F50184818068848337832683C801A3
:100D80000E94610225969FAF8EAF2597CE018D5BA5
:100D90009F4F0E940505672B09F046C080FD44C0A7
:100DA000C8010E94A4018A3319F5D8011A961C9231
:100DB0001A9718968C911897815018968C93B501B4
:100DC000C8010E94130525969FAF8EAF2597F801A5
:100DD00080858F5F8087CE018D5B9F4F0E940505C8
:100DE000672B11F580FF06C01FC01E3609F44BC2E9
:100DF00082E044C0C8010E94610225969FAF8EAF79
:100E00002597CE018D5B9F4F0E940505672B61F4EE
:100E100080FD0AC0C8010E94A4018D3709F0FCCEF4
:100E2000D8011A961C9229C024968FAD2497259636
:100E30009FAD259738C2BE016F5B7F4FC8010E94EE
:100E4000D3019A838983CE0101960E940505672B01
:100E500011F480FF03C089819A8125C223962EADAB
:100E60003FAD2397D70114968C91149780788460B6
:100E700014968C9314972D933C9380E090E013C2CA
:100E8000E1E0F0E0EC0FFD1FED0DF11D1082198186
:100E9000112309F465C0CE011D3211F01B3211F48B
:100EA000029601C00196FC01819190ED980F9A3055
:100EB000D8F3811155C0143709F4ECC11B3231F05D
:100EC0001D3231F010E0FE01319605C010E001C086
:100ED00011E0FE01329620E030E0A901019180EDA1
:100EE000800F8A30A0F4AAE0B0E00E94982A202F58
:100EF000000F330B205331094901330FAA08BB08F7
:100F0000A5019401260F371F481F591FE7CF112352
:100F100009F4C2C12115310541055105B9F4E0E0DC
:100F200070E060E090E0D70114968C91149780787F
:100F3000866014968C931497EC9311967C9311977A
:100F400012966C93129713969C9397CFF701848116
:100F500080788760848320833183428353838DCF5D
:100F60006DE772E0CE0101960E94A52C892B09F451
:100F700049C01D3239F01B3251F45E01B2E0AB0EB4
:100F8000B11C08C05E01E2E0AE0EB11C03C0CE0190
:100F900001965C0161E872E0C5010E94A52C892BD5
:100FA00089F1D5018C91882309F441C1FD018D910E
:100FB00090ED980F9A30D0F38E3241F49D01F901F3
:100FC0002F5F3F4F808180538A30C8F380818F7DAF
:100FD0008534A9F481818D3209F463C18B3209F41F
:100FE00060C13196808180538A3008F020C19F0112
:100FF000F9012F5F3F4F808180538A30C8F3808191
:10100000811115C11B3251F01D3279F41A81DD2492
:10101000D3945E01B2E0AB0EB11C0BC01A81D12C8F
:101020005E01E2E0AE0EB11C04C0D12CCE010196EF
:101030005C01143709F4DFC01F7D1E3409F4E0C0E1
:10104000193409F48AC000E020E030E0A901F5017C
:10105000D5011D915D0180ED810F8A30E8F42C3CB3
:10106000BCEC3B07BCE04B075105A4F4AAE0B0E0A0
:101070000E94982A212F110F330B20533109290187
:10108000330F66087708A3019201260F371F481F08
:10109000591FDDCF0F5FDBCF1E3241F55F018FEFB0
:1010A000A81AB80AF501D5011D915D0180ED810FE7
:1010B0008A30E0F42C3CBCEC3B07BCE04B0751050C
:1010C0008CF7AAE0B0E00E94982A212F110F330B71
:1010D000205331092901330F66087708A3019201D3
:1010E000260F371F481F591F0150DCCF80818F7D8D
:1010F000002E000C110B8534F1F581818D3219F42D
:101100003296B1E006C08B3211F0319601C03296B2
:10111000B0E080E090E06AE0B62EA19160ED6A0F49
:101120006A3018F5B89EB001B99E700D11248A2F4F
:10113000AA0F990BC097860F971FB801680F791FE8
:101140006732710554F3BB2341F0DD2009F45DC023
:1011500080E090E0A0E0B0E860C0DD2009F459C074
:1011600080E090E0A0E8BFEF58C0BB2331F091953C
:101170008195910902C080E090E0080F191FCA0113
:10118000B9010E949F2910161106B4F4B12C00FF7A
:101190000CC024E0B29EF0011124EA5DFE4F2081D4
:1011A0003181428153810E94DA2915950795B394C4
:1011B0000115110561F719C0119501951109B12C9F
:1011C0000115110591F000FF0CC0A4E0BA9EF001DA
:1011D0001124E25FFE4F20813181428153810E94C0
:1011E000DA2915950795B394EBCFDC01CB01DD200F
:1011F000A1F0B05812C080E090E0A0E8BFE30DC0BD
:1012000080E090E0A0ECBFE708C080E090E0DC0167
:1012100004C080E090E0A0E8BFE7F70124812078D7
:101220002860248380839183A283B38326CE1437DE
:10123000A1F4D70114968C91149780788560149648
:101240008C9381E090E0A0E0B0E0F701808391838F
:10125000A283B38390E0F4E013C0163609F0C5CD45
:10126000D70114968C9114978078856014968C938E
:10127000F701108211821282138281E090E0F5E082
:10128000DF1211C005C081E090E024E0D2120BC053
:1012900080E009C0E1E044CEE22F732F642F952F48
:1012A00042CE32969FCECA5BDF4F0FB6F894DEBFB8
:1012B0000FBECDBFDF91CF911F910F91FF90EF90A7
:1012C000DF90BF90AF909F908F907F906F905F90D6
:1012D0004F900895009739F0FC0194819F779650C4
:1012E00081E0933008F080E00895EF92FF920F9331
:1012F0001F93CF93DF9300D000D000D0CDB7DEB7DF
:101300007C018B014091B0025091B1026091B20218
:101310007091B302CE0101960E94610E898190E026
:101320004496982F8827990F2A8140E2249F9001A4
:1013300011244B81242B822B932BF70191838083E3
:101340008D81F0E28F9F900111249C81892F90E084
:10135000982F8827990F990F990F822B932B2E8105
:1013600030E035952795822B932BF801918380836C
:1013700026960FB6F894DEBF0FBECDBFDF91CF919A
:101380001F910F91FF90EF9008950895CF92DF92F3
:10139000EF92FF920F931F93CF93DF936C017A012B
:1013A0008B01C0E0D0E0CE15DF0581F0D8016D9152
:1013B0008D01D601ED91FC910190F081E02DC601E7
:1013C0000995892B11F02196EECF7E01C701DF919F
:1013D000CF911F910F91FF90EF90DF90CF900895E4
:1013E000FC01538D448D252F30E0842F90E0821B2B
:1013F000930B541710F0CF96089501970895FC01B0
:10140000918D828D981761F0828DDF01A80FB11D3B
:101410005D968C91928D9F5F9F73928F90E008955F
:101420008FEF9FEF0895FC01918D828D981731F019
:10143000828DE80FF11D858D90E008958FEF9FEF6D
:101440000895FC01918D228D892F90E0805C9F4F43
:10145000821B91098F739927089586EB93E00E9470
:10146000210A21E0892B09F420E0822F0895FC0154
:10147000848DDF01A80FB11DA35ABF4F2C91848D1D
:1014800090E001968F739927848FA689B7892C9352
:10149000A089B1898C91837080648C93938D848DA5
:1014A000981306C00288F389E02D80818F7D8083A8
:1014B0000895EF92FF920F931F93CF93DF93EC0168
:1014C00081E0888F9B8D8C8D981305C0E889F98900
:1014D000808185FD26C0F62E0B8D10E00F5F1F4F1B
:1014E0000F731127E02E8C8DE8120CC00FB607FC8D
:1014F000FACFE889F989808185FFF5CFCE010E9476
:10150000370AF1CF8B8DFE01E80FF11DE35AFF4F33
:10151000F0829FB7F8940B8FEA89FB898081806203
:101520000AC09FB7F894EE89FF896083E889F9893A
:1015300080818370806480839FBF81E090E0DF9131
:10154000CF911F910F91FF90EF900895CF93DF936C
:10155000EC01888D8823C9F0EA89FB89808185FDAB
:1015600005C0A889B9898C9186FD0FC00FB607FC0C
:10157000F5CF808185FFF2CFA889B9898C9185FF4D
:10158000EDCFCE010E94370AE7CFDF91CF910895CA
:1015900080E090E0892B29F00E942D0A81110C94A3
:1015A0000000089585ED8093BC008091BC0084FD0F
:1015B000FCCF10929003089540912503262F30E030
:1015C000240F311D21323105DCF4209190032430A9
:1015D000C9F4FC0180E090E0861758F430912503AF
:1015E0002191DC01AB5FBC4FA30FB11D2C93019681
:1015F000F3CF80912503680F6093250380E0089561
:1016000081E0089582E00895089508950895E09195
:10161000920380919103E81730F4F0E0ED56FC4F0F
:10162000808190E008958FEF9FEF0895909192034D
:1016300080919103981750F4E92FF0E0ED56FC4F9C
:10164000208130E09F5F9093920302C02FEF3FEF25
:10165000C90108958091910390E020919203821B2B
:1016600091090895CF92DF92EF92FF920F931F930B
:10167000CF93DF937C01CB018A012091B503222314
:1016800089F0EB016B01C40ED51ECC15DD0569F0A8
:101690006991D701ED91FC910190F081E02DC70196
:1016A0000995F3CF642F0E94DC0AC801DF91CF9126
:1016B0001F910F91FF90EF90DF90CF900895CF93FF
:1016C000DF931F92CDB7DEB769832091B503222344
:1016D000D1F02091B303203240F021E030E0FC0152
:1016E0003383228380E090E015C08091B403E82F1B
:1016F000F0E0E65BFC4F998190838F5F8093B403A9
:101700008093B30305C061E0CE0101960E94DC0A1C
:1017100081E090E00F90DF91CF9108950E94882C96
:10172000CF93DF931F92CDB7DEB7698341E050E0DE
:10173000BE016F5F7F4F0E94EB160F90DF91CF913C
:1017400008951F920F920FB60F9211242F933F937B
:101750004F935F936F937F938F939F93AF93BF93B9
:10176000EF93FF93E0910201F09103010995FF913E
:10177000EF91BF91AF919F918F917F916F915F9109
:101780004F913F912F910F900FBE0F901F90189582
:101790001F920F920FB60F9211242F933F934F93E6
:1017A0005F936F937F938F939F93AF93BF93EF93C9
:1017B000FF93E0910001F09101010995FF91EF91F4
:1017C000BF91AF919F918F917F916F915F914F9159
:1017D0003F912F910F900FBE0F901F9018958F92F1
:1017E0009F92AF92BF92CF92DF92EF92FF920F93B0
:1017F0001F93CF93DF93EC016A017B0100E010E0BF
:101800000C151D0561F10E94D720688779878A87AA
:101810009B87E881F9810284F385E02DCE0109954B
:1018200097FF17C00E94D72088849984AA84BB841C
:10183000DC01CB0188199909AA09BB098C809D801C
:10184000AE80BF8088159905AA05BB0510F3680115
:1018500006C0F70181937F010F5F1F4FD1CFC601F3
:10186000DF91CF911F910F91FF90EF90DF90CF907C
:10187000BF90AF909F908F9008956115710579F09A
:10188000FB0101900020E9F73197AF01461B570B90
:10189000DC01ED91FC910280F381E02D099480E060
:1018A00090E008951F920F920FB60F9211242F937C
:1018B0003F934F935F936F937F938F939F93AF93D8
:1018C000BF93EF93FF9386EB93E00E94370AFF915B
:1018D000EF91BF91AF919F918F917F916F915F91A8
:1018E0004F913F912F910F900FBE0F901F90189521
:1018F0001F920F920FB60F9211242F938F939F93E5
:10190000EF93FF93E091C603F091C7038081E091CC
:10191000CC03F091CD0382FD12C090818091CF0362
:101920008F5F8F732091D003821751F0E091CF0326
:10193000F0E0EA54FC4F958F8093CF0301C0808183
:10194000FF91EF919F918F912F910F900FBE0F906C
:101950001F9018951F920F920FB60F9211242F937C
:101960003F934F935F936F937F938F939F93AF9327
:10197000BF93EF93FF93E091A602F091A702099520
:10198000FF91EF91BF91AF919F918F917F916F9157
:101990005F914F913F912F910F900FBE0F901F902D
:1019A00018951F920F920FB60F9211242F933F9309
:1019B0004F935F936F937F938F939F93AF93BF9357
:1019C000EF93FF938091B900887F803609F49CC023
:1019D00068F5883209F45BC090F4803109F454C092
:1019E00038F4882309F4F6C0883009F44DC0F6C0F5
:1019F000883109F44CC0803209F45DC0EFC08034F6
:101A000009F468C048F4803309F455C0883309F0FC
:101A1000E5C080938E03D8C0803509F44FC0883567
:101A200009F45DC0883409F0D9C0D6C0883909F4FA
:101A3000C7C0A8F4883709F467C038F4883609F4B9
:101A400063C0803709F460C0C9C0883809F4B8C0E1
:101A5000803909F45FC0803809F0C0C05BC0803BAA
:101A600009F486C038F4803A09F466C0883A09F46B
:101A70007FC0B4C0803C09F4A7C0883C09F4A4C06E
:101A8000883B09F48AC0AAC080918B0310C0909152
:101A90008D0380918C03981770F5E0918D0381E0A0
:101AA0008E0F80938D03F0E0E659FC4F8081809388
:101AB000BB0085EC86C080938E038EC0E0918D03C1
:101AC00081E08E0F80938D038091BB00F0E0E6599A
:101AD000FC4F808390918D0380918C036EC0E091C8
:101AE0008D0381E08E0F80938D038091BB00F0E029
:101AF000E659FC4F808380918F0381116DC081E096
:101B000080938A0384EA61C083E0809390031092FB
:101B10004703CFCF80914703803208F051C0E09156
:101B2000470381E08E0F809347038091BB00F0E074
:101B3000E95DFC4F8083BDCF85EC8093BC001092A3
:101B4000900380914703803230F4E0914703F0E046
:101B5000E95DFC4F10826091470370E0E091A802BC
:101B6000F091A90287E293E009951092470336C0ED
:101B700084E0809390031092260310922503E09155
:101B8000AA02F091AB02099580912503811105C04D
:101B900081E08093250310920503E091260381E004
:101BA0008E0F80932603F0E0EB5FFC4F80818093E3
:101BB000BB009091260380912503981708F479CFF4
:101BC00085E88093BC000AC085EC8093BC0010922D
:101BD000900304C010928E030E94D20AFF91EF91ED
:101BE000BF91AF919F918F917F916F915F914F9135
:101BF0003F912F910F900FBE0F901F901895EF926D
:101C0000FF920F931F93CF93DF93EC01698138818B
:101C1000432F50E08A8190E0E8E7F0E021E02617CA
:101C200030F47491870F911D2F5F3196F8CF633098
:101C300018F0337009F401966DE671E0469F90014B
:101C4000479F300D569F300D1124215031094D5FB3
:101C50005F4F5695479556954795240F351F280F8A
:101C6000391FA8E1B0E00E94DA2A2B817B018C01A8
:101C7000E20EF11C011D111DA8019701ACE3B0E0BB
:101C80000E94982A2C817B018C01E20EF11C011D1F
:101C9000111DA80197010E94982A2D81DC01CB011A
:101CA000820F911DA11DB11DBC01CD0160587C4B5F
:101CB0008249974CDF91CF911F910F91FF90EF9048
:101CC00008958F929F92AF92BF92CF92DF92EF9240
:101CD000FF92CF93DF93EC016A017B0180E8C81A81
:101CE00083E4D80A8DE6E80A88E3F80A8CE3882EB4
:101CF000912CA12CB12CC701B601A50194010E9421
:101D00003F2B6D83CA01B901A50194010E943F2BAD
:101D10006C83C701B60120E13EE040E050E00E9444
:101D20003F2BCA01B90128E130E040E050E00E94B9
:101D30003F2B6B83C701B60120E831E541E050E05D
:101D40000E943F2B18824881542F537081E009F084
:101D500080E090E0BC0163597E4F2617370738F0CA
:101D6000281B390B2D5631404F5F4883ECCF81E063
:101D700089838981E82FF0E0E958FF4FE491511100
:101D800003C0823009F4EF5FF0E02E173F0720F028
:101D90002E1B3F0B8F5FECCF2F5F2A83DF91CF91FC
:101DA000FF90EF90DF90CF90BF90AF909F908F907B
:101DB0000895809100038823A9F140910401509176
:101DC0000501609106017091070127EB34E08091D5
:101DD000B7069091B8060E947F16811102C080E07C
:101DE00008954091010350910203609103037091A3
:101DF0000403411551056105710591F027EB34E0AD
:101E00008091B7069091B8060E947F16882339F317
:101E10001092010310920203109203031092040324
:101E20001092000381E008958F929F92AF92BF922B
:101E3000EF92FF920F931F93CF934B015C01C42F3E
:101E40008091040190910501A0910601B0910701D4
:101E500088159905AA05BB0501F10E94D90E8111CB
:101E600002C080E020C087EBE82E84E0F82E00E07E
:101E700012E020E030E0B501A4018091B706909116
:101E8000B8060E94EB15882361F3809204019092BA
:101E90000501A0920601B092070180910003C82BB2
:101EA000C093000381E0CF911F910F91FF90EF90BD
:101EB000BF90AF909F908F9008954F925F926F92D6
:101EC0007F928F929F92AF92BF92CF92DF92EF92CA
:101ED000FF920F931F93CF93DF93EC014230510594
:101EE0006105710510F480E078C089859A85AB851D
:101EF000BC850196A11DB11D84179507A607B707DC
:101F000090F3CB88DC88ED88FE888F89803129F4B6
:101F1000BB27A72F962F852F09C0DB01CA01E7E059
:101F2000B695A79597958795EA95D1F748015901F8
:101F30002A013B01C80ED91EEA1EFB1E8091040136
:101F400090910501A0910601B0910701C816D9062C
:101F5000EA06FB0681F48F898031A9F4B301A2015E
:101F6000552766277727440F551FFA01E954FB4F81
:101F70009182808219C040E0C701B6010E94140F0F
:101F80008111E9CFB0CFB301A2014F775527662762
:101F90007727440F551F440F551FFA01E954FB4F93
:101FA00080829182A282B3828091000381608093BB
:101FB00000038A89823080F08D819E81AF81B8854F
:101FC000C80ED91EEA1EFB1EC0920103D092020366
:101FD000E0920303F092040381E0DF91CF911F911F
:101FE0000F91FF90EF90DF90CF90BF90AF909F90B8
:101FF0008F907F906F905F904F9008958F929F92F7
:10200000AF92BF92CF92DF92EF92FF920F931F9306
:10201000CF93DF93FC0181859285A385B4850196DA
:10202000A11DB11D84179507A607B70710F480E01E
:102030005BC083889488A588B6888789803129F415
:10204000BB27A72F962F852F09C0DB01CA01C7E048
:10205000B695A79597958795CA95D1F7E9016A0135
:102060007B018F01BC01CD01680D791D8A1D9B1D6F
:102070008090040190900501A0900601B0900701A6
:10208000681579058A059B0591F4F80187898031E7
:10209000A1F4DD24EE24FF24C601880F991FFC0162
:1020A000E954FB4F80819181A0E0B0E018C040E08E
:1020B0000E94140F8111E9CFBACFE894C7F8DD244C
:1020C000EE24FF24C601880F991F880F991FFC0179
:1020D000E954FB4F80819181A281B381BF708883D5
:1020E0009983AA83BB8381E0DF91CF911F910F91E8
:1020F000FF90EF90DF90CF90BF90AF909F908F9028
:1021000008952F923F924F925F926F927F928F929B
:102110009F92AF92BF92CF92DF92EF92FF920F9376
:102120001F93CF93DF93CDB7DEB72B970FB6F894FD
:10213000DEBF0FBECDBF7C01FE013196CE010C96F5
:102140006F0130E23193E817F907E1F7DA0130E087
:1021500087E09D91992331F19E3231F48A3009F460
:1021600079C138E08AE0F5CFE8E6F0E04491442315
:1021700021F031969413FACF6DC1831708F46AC128
:102180004FED490F4E3508F065C141E0430FF601B0
:10219000E30FF11D3FE9390F3A3108F49052908373
:1021A000342FD7CF8981803209F454C1322E8B016C
:1021B000DB015B968D919C915C97F701948F838FE7
:1021C00016961D921D921D921C921997FB01128664
:1021D000138614861586B12CF80182859385A48513
:1021E000B585438954896589768984179507A6073B
:1021F000B70708F05BC025E0B695A795979587953A
:102200002A95D1F7F82FFF70AF2ED80115968C9133
:10221000823008F41FC1C8010E94050397FD1AC14E
:10222000F80182859385A485B5854F96A11DB11DC2
:1022300082879387A487B587F0E2AF9EB00111240F
:1022400069547B4F6115710509F404C1DB018C9160
:10225000882319F0853EC1F4FFC0B1100EC0F7010C
:10226000A28A8091040190910501A0910601B0918C
:10227000070186879787A08BB18BDB018C91882320
:1022800099F0BB24B394A8CF4BE050E0C6010E9464
:102290008D2C892B09F0A0CF832D8073803309F416
:1022A000D9C0432D6A2DD2C0BB24B394832D827133
:1022B000823109F0CFC0BB20C9F0F7016685778570
:1022C0008089918941E00E94140F882309F4C2C0DB
:1022D000D70152960C91B0E20B9F80011124095452
:1022E0001B4F0115110509F078C0B4C0F8018581B4
:1022F000823009F4AFC0C8010E945814882309F441
:10230000A9C0D8015B96ED91FC915C9716968D90D3
:102310009D90AD90BC901997B2E08B1A9108A108DE
:10232000B108058404C0880C991CAA1CBB1C0A9423
:10233000D2F786859785A089B189880E991EAA1E35
:10234000BB1E2480E1E08E1A9108A108B10822206A
:1023500009F124013501420C511C611C711C0E94C1
:10236000D90E882309F476C0E7EBF4E0119226E059
:10237000E73BF207D9F740920401509205016092C1
:102380000601709207018091000381608093000331
:102390002A94DDCFD8015B96ED91FC915C9780E0AB
:1023A00092E0A0E0B0E0058404C0880F991FAA1F46
:1023B000BB1F0A94D2F7F80143895489658976894D
:1023C000840F951FA61FB71F838B948BA58BB68B8D
:1023D000D70152961C9207EB14E080E2F8011192AB
:1023E0008A95E9F78BE0F601D80101900D928A9564
:1023F000E1F7E091AC02F091AD02309739F0B8010D
:10240000625F7F4FC801409609950DC081E298E256
:10241000D80151969C938E93509780E098E01F9638
:102420009C938E931E97F80180899189938B828B60
:10243000918F808F86859785978B868B0E94D90E8A
:10244000882341F0432DD70152966C91C7010E9419
:102450004F1305C080E003C0B11013CF00CF2B96FF
:102460000FB6F894DEBF0FBECDBFDF91CF911F91A5
:102470000F91FF90EF90DF90CF90BF90AF909F9023
:102480008F907F906F905F904F903F902F90089526
:102490000F931F93CF93DF93EB010E94D7208B0103
:1024A0000E94AE028F3F49F00E94D720601B710B43
:1024B0006C177D07A8F380E001C081E0DF91CF9128
:1024C0001F910F9108950F931F93CF93DF93FC01FA
:1024D0002581222309F446C0248127FF3DC08C01B9
:1024E000668577858089918941E00E94140F882351
:1024F000C9F1F801C289F0E2CF9FE0011124C9546B
:10250000DB4F209779F1F8018581823040F483898F
:102510009489A589B6898C8F9D8FAE8FBF8FF80166
:102520008789908DA18DB28D9B8F8A8FBD8BAC8B4F
:10253000E091AC02F091AD02309751F0BE016A5EBD
:102540007F4FCE0148960995888D998D9B8B8A8BFC
:10255000F80194819F779483DF91CF911F910F9120
:102560000C94D90E80E0DF91CF911F910F910895C7
:102570008F929F92AF92BF92CF92DF92EF92FF9293
:102580000F931F93CF93DF93EC018D81811102C0D4
:1025900080E078C00B891C892D893E8904171507B6
:1025A00026073707A8F36A017B01823029F4CA861F
:1025B000DB86EC86FD860DC0C114D104E104F10474
:1025C00051F41E821F82188619861A861B861C8665
:1025D0001D8681E057C08A849B84AC84BD84EB8DCA
:1025E000FC8D258530E0275F3F4FB501A4014150A8
:1025F000510961097109022E04C0769567955795B6
:1026000047950A94D2F7D701C6010197A109B109EC
:1026100004C0B695A795979587952A95D2F7841704
:102620009507A607B70720F089288A288B2871F418
:102630004F89588D698D7A8D4E835F83688779873E
:102640004C015D018E010A5F1F4F16C0841B950B64
:10265000A60BB70BF5CF4E815F8168857985980110
:102660008B8D9C8D0E94FE0F91E0891A9108A10824
:10267000B108882309F48CCF81149104A104B1041A
:1026800051F795CFDF91CF911F910F91FF90EF9070
:10269000DF90CF90BF90AF909F908F9008958F92D2
:1026A0009F92AF92BF92CF92DF92EF92FF920F93E1
:1026B0001F93CF93DF9300D000D0CDB7DEB77C015E
:1026C00080E2689FF0011124E954FB4F93859171DA
:1026D00021F0842F827409F08FC0142FD7015296F5
:1026E0006C9352974091040150910501609106014D
:1026F000709107011E964D935D936D937C93519756
:102700004489558960E070E0BA0155274427828DDD
:10271000938DA0E0B0E0482B592B6A2B7B2BD7017F
:1027200057964D935D936D937C935A9783858871EB
:1027300059F4848D958DA68DB78DF701838B948B7D
:10274000A58BB68B81E012C0803109F055C097018E
:102750002D5E3F4FD7015B968D919C915C970E94B7
:10276000A61A882309F448C084E0F7018583812FE5
:102770008F70D70114968C931497F70116821782E5
:10278000108611861A961D921D921D921C921D97FD
:1027900016FF34C015968C91813071F511FF2CC055
:1027A000F7014389548965897689452B462B472B48
:1027B00009F461C040E050E0BA01C7010E94B812BC
:1027C0008823D1F0F7018788908CA18CB28CC38CC0
:1027D000D48C82E090E0A0E0B0E0F60180839183A9
:1027E000A283B3839E012F5F3F4FB501A401C601B1
:1027F0000E94FE0F811104C080E03DC081E03BC01B
:1028000000E010E09801B501A401C6010E945D0F2F
:10281000882391F389809A80AB80BC80D60157963B
:102820008C91803129F088EF9FEFAFEFBFE004C0BB
:1028300088EF9FEFA0E0B0E088169906AA06BB06D5
:1028400088F2D70157961D921D921D921C925A979D
:10285000F701138A148A158A168A84818068848312
:10286000C7010E946312882339F240E050E0BA01A8
:10287000C7010E94B8120F900F900F900F90DF9138
:10288000CF911F910F91FF90EF90DF90CF90BF906D
:10289000AF909F908F900895CF93DF93EC010E94AB
:1028A0006312882311F01D8281E0DF91CF9108959A
:1028B0003F924F925F926F927F928F929F92AF92D0
:1028C000BF92CF92DF92EF92FF920F931F93CF931D
:1028D000DF93CDB7DEB72C970FB6F894DEBF0FBEEF
:1028E000CDBF5C01DC015B968D909C905C97169649
:1028F000CD90DD90ED90FC901997C114D104E104C6
:10290000F10439F0BFEFCB1ADB0AEB0AFB0A312CDA
:1029100007C0F401C080D180E280F3803324339477
:10292000F40181859285A385B4859C01AD012F5F5B
:102930003F4F4F4F5F4F29873A874B875C87260170
:1029400037011D821E821F821886F40181859285BF
:10295000A385B4852D813E814F815885281739077D
:102960004A075B0708F063C089859A85AB85BC85FB
:102970008C159D05AE05BF0550F482E0C82ED12C04
:10298000E12CF12C92E0492E512C612C712C9E01EE
:102990002F5F3F4FB701A601C4010E94FE0F88239D
:1029A00009F445C089819A81AB81BC81892B8A2B2E
:1029B0008B2B41F0260137019FEF491A590A690A0A
:1029C000790A05C0C414D504E604F70491F02D81FA
:1029D0003E814F8158852F5F3F4F4F4F5F4F2D8373
:1029E0003E834F8358873FEFC31AD30AE30AF30AA3
:1029F000ACCF0FEF1FEF2FEF3FE0B301A201C401F7
:102A00000E945D0F882399F0D50116964D915D9136
:102A10006D917C911997411551056105710549F03A
:102A200093018201C4010E945D0F811102C080E008
:102A30002AC0D50116964D925D926D927C9219979F
:102A4000332051F0D301C2010196A11DB11DF40143
:102A500080839183A283B383F5018789908DA18DB3
:102A6000B28D892B8A2B8B2B69F4D50157964D9209
:102A70005D926D927C925A9714968C91149780680F
:102A800014968C9381E02C960FB6F894DEBF0FBE9F
:102A9000CDBFDF91CF911F910F91FF90EF90DF900D
:102AA000CF90BF90AF909F908F907F906F905F90EE
:102AB0004F903F9008958FB7F894809148038FBF4F
:102AC0000895CF93DF93EC0180914903811109C0F0
:102AD00081E08093490380915F04909160040E949B
:102AE000B10260E08C81DF91CF910C94322061E0E3
:102AF000FC0184810E94322080914903811110924F
:102B000049030895CF93DF93EC018E81882389F0E8
:102B10008F8198859C012F5F3F4F38872F838230AC
:102B2000924018F40E94AE02F3CFCE010E947715B6
:102B30001E82DF91CF9108958F929F92AF92BF92A4
:102B4000FF920F931F93CF93DF93EC01F62E490171
:102B50005A010E948215CE010E9461156CE271E05B
:102B6000CE010E9448128F2D80640E94A70208E1C6
:102B700010E0D501C401002E04C0B695A795979525
:102B800087950A94D2F70E94A70208501109083FBE
:102B90008FEF180771F7FF2029F088E0F81204C0C2
:102BA00087E803C085E901C08FEF0E94A70210E00B
:102BB0000E94AE028A8787FF04C01F3F11F01F5F8B
:102BC000F7CFDF91CF911F910F91FF90BF90AF9002
:102BD0009F908F900895AF92BF92CF92DF92EF9225
:102BE000FF920F931F93CF93DF93EC016901C8010C
:102BF000820F931F8130924008F070C08E8188232D
:102C000071F088819981AA81BB8184179507A607F5
:102C1000B70729F48F819885C816D906B0F548837F
:102C200059836A837B838B85833039F089E0440F35
:102C3000551F661F771F8A95D1F79A01AB0161E195
:102C4000CE010E949C15882319F083E08D8346C035
:102C50000E94D7205B010E94AE028A878F3F49F411
:102C60000E94D7206A197B096D327140A0F38FE072
:102C700003C08E3F31F08DE08D83CE010E94771529
:102C80002DC018861F8281E08E838F8198858C15D8
:102C90009D0540F40E94AE028F8198850196988729
:102CA0008F83F3CF6701E00EF11EEC14FD0431F0C9
:102CB0000E94AE02F60181936F01F7CF8F81988554
:102CC000080F191F18870F838985882319F00115AC
:102CD000124048F0CE010E94821505C0CE010E942C
:102CE000771580E001C081E0DF91CF911F910F91B6
:102CF000FF90EF90DF90CF90BF90AF900895EF924C
:102D0000FF920F931F93CF93DF93EC01790141154D
:102D100051056105710511F482E13CC08B8583305A
:102D200039F089E0440F551F661F771F8A95D1F748
:102D30009A01AB0168E1CE010E949C15882311F035
:102D400084E028C08EEF0E94A70287018EEFF81A58
:102D5000F80181918F010E94A702E016F106C1F7E8
:102D60008FEF0E94A7028FEF0E94A7020E94AE027F
:102D70008A878F71853031F081E18D83CE010E9489
:102D8000771509C068E572E0CE010E9448128111F2
:102D900007C085E18D83CE010E94771580E014C0C5
:102DA00020E030E0A9016DE0CE010E949C15811168
:102DB00009C00E94AE02811105C0CE010E947715A4
:102DC00081E002C084E1E6CFDF91CF911F910F91A6
:102DD000FF90EF9008952F923F924F925F926F92E3
:102DE0007F928F929F92AF92BF92CF92DF92EF929B
:102DF000FF920F931F93CF93DF9300D000D0CDB7F6
:102E0000DEB78C016B011A01DC0115968C911597C8
:102E10008130C9F414968C9181FF15C082FF1DC0CA
:102E2000F801438954896589768982859385A485CB
:102E3000B58584179507A607B70779F0C8010E94E2
:102E4000B81281110AC081E090E0D80113969C93DA
:102E50008E93129780E090E048C1410183C05B9659
:102E60008D919C915C97FC0174802FEF270D2A01B6
:102E70003B0139E076946794579447943A95D1F79B
:102E8000722E74207A01F1E0FF22772009F476C0D7
:102E900080E092E08E199F0954018815990508F485
:102EA0005C01D8015B962D913C915C9716968D91B3
:102EB0009D910D90BC91A02D0297A109B109F90136
:102EC000058404C0880F991FAA1FBB1F0A94D2F75C
:102ED0004685578560897189840F951FA61FB71F86
:102EE0009C01AD01270D311D411D511D29013A01E4
:102EF000A11432E0B30609F088C0809104019091DA
:102F00000501A0910601B0910701481659066A060D
:102F10007B0659F48FEF9FEFDC01809304019093BF
:102F20000501A0930601B09307019601B301A20128
:102F30008091B7069091B8060E947F16882309F405
:102F400082CF9EEFD91A8A189B08F8018285938553
:102F5000A485B5858A0D9B1DA11DB11D8287938710
:102F6000A487B587D8011A964D915D916D917C919A
:102F70001D978114910409F072CF87C0E114F10408
:102F800009F086CF16964D915D916D917C911997C0
:102F9000411551056105710559F457968D919D9123
:102FA0000D90BC91A02D0097A105B10541F521C060
:102FB0009E012F5F3F4F0E94FE0F882309F44BCFE5
:102FC00089819A81AB81BC81F801238D348DF9010F
:102FD0002789203129F048EF5FEF6FEF7FE004C0D1
:102FE00048EF5FEF60E070E084179507A607B7072A
:102FF00030F0C8010E94581481114ACF24CFF80143
:1030000086839783A087B18743CFE114F10429F524
:10301000D8011A964D915D916D917C911D975396B3
:103020008D919D910D90BC91A02D481759076A076D
:103030007B0798F00E94D90E882309F404CF4092B0
:10304000040150920501609206017092070180917F
:10305000000381608093000308C041E0C301B20116
:103060000E94140F882309F4EECED601F701E9542B
:10307000FB4F9F012A0D3B1D2E173F0719F08D9125
:103080008193FACFCA0CDB1C5ECFD8015396CD904A
:10309000DD90ED90FC90569714968C91C416D50651
:1030A000E606F70640F4F801438B548B658B768B6C
:1030B000806884830DC02091AC023091AD02232B37
:1030C00039F02114310421F08068D80114968C93D2
:1030D000F801848183FD02C0C10107C0C8010E94BC
:1030E0006312882309F4AFCEF7CF0F900F900F90A3
:1030F0000F90DF91CF911F910F91FF90EF90DF9094
:10310000CF90BF90AF909F908F907F906F905F9087
:103110004F903F902F9008958091AD049091AE0410
:103120008230910538F0880F991F880F991F0597F5
:103130000197F1F70895CF93DF93CAEAD4E061E0F5
:1031400089810E9461200E948C1860E088810E9421
:1031500061200E948C1860E089810E946120DF91CB
:10316000CF910C948C1861E08091AB040E94612097
:103170000C948C18CF93DF93D82FC8E061E0809136
:10318000AA040E9461200E948C18D0FF02C060E057
:1031900001C061E08091AB040E9461200E948C1804
:1031A00060E08091AA040E9461200E948C18D6954C
:1031B000C15021F761E08091AA040E94612060E083
:1031C0008091AB040E9461200E948C1860E0809185
:1031D000AA040E9461200E948C188091AB040E9476
:1031E0000920C82F811105C061E08091AB040E94C5
:1031F00061200E948C1861E08091AA040E946120E5
:103200000E948C1881E0C11101C080E0DF91CF9154
:103210000895FF920F931F93CF93DF93F82E092FFA
:10322000162FC42F0E94B31880E40E94BA180E947F
:103230009B180E94B3188C2F837080540E94BA1878
:10324000CF2DD02FCE01810F911D8C01C017D1073A
:1032500021F089910E94BA18F9CF0E949B180E9410
:10326000B3188091AC048F7080580E94BA18DF9117
:10327000CF911F910F91FF900C949B18EF92FF92AA
:103280000F931F93CF93DF93EC017B018A011B8285
:103290001A8288EE93E0A0E0B0E08C839D83AE8339
:1032A000BF8382E491E0998388838DE190E00E945E
:1032B000672B9A8F898F009779F02DE1F701DC0158
:1032C00001900D922A95E1F74CE050E0B801CE0153
:1032D0000C960E94AE2C188EDF91CF911F910F910A
:1032E000FF90EF9008958F929F92AF92BF92CF92EE
:1032F000DF92EF92FF920F931F93CF93DF9300D053
:1033000000D0CDB7DEB7D62EC42EBC0197FF03C0C8
:10331000719561957109FB01392F331F3327331FD5
:103320008E010F5F1F4F5801AC0CB11C78018AE071
:10333000882E912C40E40A151B05D1F0CF01B40171
:103340000E942B2BDC01BB27A05BBE4F9C91D501BB
:103350009E935D01811106C0309721F4332311F053
:103360004C9330E0CF01B4010E942B2BFB01E3CF43
:10337000D11016C0422F6C2DC8010E9409190F9060
:103380000F900F900F90DF91CF911F910F91FF90B1
:10339000EF90DF90CF90BF90AF909F908F90089567
:1033A000AE014B5F5F4F8D2D8078F7019081892BA7
:1033B000D7018D937D01DD0C4A175B07A1F7DACFAA
:1033C00091E09093B5038093B6041092B4031092E9
:1033D000B3030895909190039111FCCF982F8132FF
:1033E00008F090E281E08093900380938F032FEFA9
:1033F00020938E0310928D03290F20938C038093CA
:103400008B0380918B03806D80938B0380918A0363
:10341000813061F410928A0380918B038093BB000A
:103420008091BC0083FDF8CF85EC01C085EE8093D0
:10343000BC00809190038130E1F380918D03891766
:1034400010F490918D03EAE6F3E0A3E9B3E080E0A5
:10345000891721F021912D938F5FFACF109292035B
:103460008093910308953091B303313208F04BC03B
:10347000809190038111FCCF9091B60422E02093BB
:10348000900321E020938F032FEF20938E0310925F
:103490008D0330938C03EAE4F3E0AAE6B3E020E086
:1034A000321721F041914D932F5FFACF10928B0389
:1034B00020918B03990F922B90938B0390918A0309
:1034C000913061F410928A0390918B039093BB002A
:1034D0009091BC0093FDF8CF95EC01C095EE9093D0
:1034E000BC00909190039230E1F390918E039F3F46
:1034F00079F080918E03803241F080918E03803389
:1035000031F084E005C081E003C082E001C083E0C7
:103510001092B4031092B3031092B5030895682F6C
:1035200083E594E00C945F0BCF93DF93EC01898DDE
:103530009A8D009741F00E944C14898D9A8D0E94BB
:10354000FF2B1A8E198EDF91CF9108954F925F92C3
:103550006F927F92AF92BF92CF92DF92EF92FF92E3
:103560000F931F93CF93DF9300D000D0CDB7DEB77A
:103570008C0149835A836B837C835901C12CD12CE4
:103580007601412C82E0582E612C712C49815A81A0
:103590006B817C819E012F5F3F4FC8010E94FE0F0F
:1035A000882351F1D301C201F801058404C0880FBA
:1035B000991FAA1FBB1F0A94D2F7C80ED91EEA1E74
:1035C000FB1E49815A816B817C818789803129F07A
:1035D00088EF9FEFAFEFBFE004C088EF9FEFA0E060
:1035E000B0E0481759076A077B0780F2F501C082EF
:1035F000D182E282F38281E00F900F900F900F90C2
:10360000DF91CF911F910F91FF90EF90DF90CF90BE
:10361000BF90AF907F906F905F904F900895CF9341
:10362000DF93FC012581222311F080E049C0EC01E9
:10363000809184048031C1F482E08583178A108EE2
:10364000118E128E8091850490918604A0E0B0E0E6
:1036500025E0880F991FAA1FBB1F2A95D1F7838BDE
:10366000948BA58BB68B19C08032F9F683E08583E5
:1036700040918704509188046091890470918A0474
:10368000478B508F618F728F9F012D5E3F4F8DE66C
:1036900094E00E94A61A882341F28DE694E09C8F64
:1036A0008B8F81E08C831E821F82188619861A8672
:1036B0001B861C861D861E861F86188A198A1A8AF2
:1036C000DF91CF9108952F923F924F925F926F9228
:1036D0007F928F929F92AF92BF92CF92DF92EF92A2
:1036E000FF920F931F93CF93DF93CDB7DEB7C756EB
:1036F000D1090FB6F894DEBF0FBECDBF6C015B01E0
:10370000A6964FAFA69719A218A288E891E09F8FBE
:103710008E8F1BA21C821B829A8389831E824E017C
:103720008EE1880E911CC4010E940F1B75018E0151
:103730000F5F1F4F240118016FE270E0C7010E9464
:103740009A2C009709F442C0F70120812F3221F40E
:10375000FFEFEF1AFF0AF0CF8E198D3008F08CE0E2
:10376000682E712CA301B701CE01885A9F4F0E9489
:10377000AE2CE8E5F0E0EC0FFD1FE60DF71D108222
:10378000C8010E944C14F8018581882351F01EAEB7
:103790001DAE88E891E09CAF8BAF21961FAE2197BC
:1037A00021C021E0AE01485A5F4FB201C8010E941A
:1037B0008110882361F3E60CF71CC2010E944C14AF
:1037C000942D852D2801092F182FB6CFC7018A19EE
:1037D0009B09A8969FAF8EAFA897B201CE01CB965A
:1037E0000E94B402A896EEADFFADA897AE0EBF1E24
:1037F000F5018081811109C0BE01655C7F4FC10167
:103800000E94B4024AE852E041C019A218A288E816
:1038100091E09F8F8E8F1BA221968FAD21978111F2
:1038200013C0F6011382128288EE93E0A0E0B0E0AC
:1038300084839583A683B78382E491E09183808318
:10384000128E118E148626C0A6962FADA697A501BE
:10385000BE01655C7F4FC4010E948110882309F37B
:10386000CE01CB960E944C14A6968FADA69786707B
:10387000863039F449A95AA96BA97CA9C4010E94D0
:10388000B812B401C1010E94B402A501B101C60180
:103890000E943E19C601C959DF4F0FB6F894DEBF2A
:1038A0000FBECDBFDF91CF911F910F91FF90EF9091
:1038B000DF90CF90BF90AF909F908F907F906F9050
:1038C0005F904F903F902F900895CF93DF9300D05B
:1038D00000D0CDB7DEB719821A821B821C8240E06D
:1038E00064E0CE0101960E9409190F900F900F908D
:1038F0000F90DF91CF910895833081F028F48130CB
:1039000099F08230A1F008958730A9F08830B9F09D
:103910008430D1F4809180008F7D03C0809180003D
:103920008F7780938000089584B58F7702C084B527
:103930008F7D84BD08958091B0008F7703C0809102
:10394000B0008F7D8093B00008953FB7F8948091C8
:10395000C6069091C706A091C806B091C90626B5C3
:10396000A89B05C02F3F19F00196A11DB11D3FBFB7
:10397000BA2FA92F982F8827820F911DA11DB11D45
:10398000BC01CD0142E0660F771F881F991F4A9541
:10399000D1F708950F931F93CF93DF93FC0102811A
:1039A0001381C081D1812896B801CE010E94BA044A
:1039B0000E946A09882309F44FC0B801CE010E9411
:1039C000BA04FC01892B09F447C094819F77973092
:1039D00028F4953070F4933090F43EC0973061F045
:1039E0009830D1F560817181828193810E94E92AAA
:1039F00039C08081918137C06081718128C0019078
:103A0000F081E02D309741F18081843741F18B3294
:103A100029F08D3221F4319691E002C0319690E088
:103A200060E070E04AE0819120ED280F2A3068F4D0
:103A3000469F9001479F300D1124682F880F770B08
:103A400060537109620F731FEECF992359F08827D5
:103A50009927861B970B07C080E090E004C081E0A7
:103A600090E001C0CB01DF91CF911F910F9108959C
:103A70000F931F93CF93DF93FC0102811381C081C9
:103A8000D1812896B801CE010E94BA040E946A0929
:103A9000882309F44FC0B801CE010E94BA04FC018A
:103AA000892B09F44AC094819F77973028F4953088
:103AB00070F4933090F441C0973061F09830E9F59C
:103AC00060817181828193810E94F02A3CC0808153
:103AD00091813AC06081718128C00190F081E02D10
:103AE000309759F18081843759F18B3229F08D322A
:103AF00021F4319691E002C0319690E060E070E0F0
:103B00004AE0819120ED280F2A3068F4469F900109
:103B1000479F300D1124B90160537109680F711D61
:103B200087FD7A95EECF992371F088279927861B18
:103B3000970B0AC08FEF9FEF07C080E090E004C0B2
:103B400081E090E001C0CB01DF91CF911F910F91F7
:103B50000895CF93C82F88E60E94E019CC2319F06E
:103B60008FE090E002C08EE090E00E948F1A0E94E9
:103B7000331A81E090E00E94EA1983E594E00E9404
:103B8000160BCF910895CF92DF92EF92FF920F9391
:103B90001F93CF93DF93CDB7DEB7C753D1400FB696
:103BA000F894DEBF0FBECDBF7E0122EFE21A2EEFEA
:103BB000F20A41E0BC01C7010E94631BCE010E96D0
:103BC0009A8389839C838B83FE82ED82F886EF82C1
:103BD0008D8580788D878E010F5F1F4FC75DDE4F0B
:103BE00019830883C952D140C55DDE4FF982E8824E
:103BF000CB52D140C35DDE4F1882CD52D140C25D61
:103C0000DE4F1882CE52D140C15DDE4F198308834A
:103C1000CF52D1408AE0CF5CDE4F8883C153D14080
:103C2000CD5CDE4F1882C353D140BE01675F7F4F2A
:103C3000CE01875D9E4F0E941305CA5CDE4F9983BB
:103C40008883C653D140CE018A5C9E4F0E940505F1
:103C5000672B29F09EEDC92E90E0D92E0CC080FD77
:103C6000F9CF13C086EB93E00E94590AFFEFCF1AF9
:103C7000DF0A892B21F0F60164916111F3CF6CED1D
:103C800071E086EB93E00E943D0CCC24CA94DC2CBE
:103C9000CC5CDE4FD982C882C453D140C75DDE4FB1
:103CA00019830883C952D1408CE892E0C55DDE4F8C
:103CB00099838883CB52D140BE016C5C7E4FCE018C
:103CC000875D9E4F0E94381D9093BC068093BB0673
:103CD000CC5CDE4F19821882C453D140C75DDE4FE1
:103CE00019830883C952D14082E992E0C55DDE4F55
:103CF00099838883CB52D140BE016C5C7E4FCE014C
:103D0000875D9E4F0E94CA1C9093BA068093B906A5
:103D1000CC5CDE4FD982C882C453D140C75DDE4F30
:103D200019830883C952D14088E992E0C55DDE4F0E
:103D300099838883CB52D140BE016C5C7E4FCE010B
:103D4000875D9E4F0E94381D9093C0068093BF06EA
:103D5000CC5CDE4F19821882C453D140C75DDE4F60
:103D600019830883C952D1408EE992E0C55DDE4FC8
:103D700099838883CB52D140BE016C5C7E4FCE01CB
:103D8000875D9E4F0E94CA1C9093BE068093BD061D
:103D9000C7010E94941AC95CDE4F0FB6F894DEBFCB
:103DA0000FBECDBFDF91CF911F910F91FF90EF908C
:103DB000DF90CF9008958F929F92AF92BF92CF9253
:103DC000DF92EF92FF92CF93DF93C82F81E694E0CA
:103DD0009093B8068093B706CC2369F1C53010F0F4
:103DE00080E00CC140E060E070E0CB010E94140F65
:103DF0008823B1F320E1C29FC001112489559B4F54
:103E0000FC01E254FE4F20812F7751F73C96408110
:103E1000518162817381443651056105710500F35A
:103E20003497C080D180E280F380C114D104E104D2
:103E3000F10421F4D5CFC12CD12C760140E0C7018B
:103E4000B6010E94140F882359F28091C204909108
:103E5000C3048115924021F6A091C704AA2309F456
:103E6000BFCF6091C5047091C6046115710509F456
:103E7000B7CF2091C404222309F4B2CFA0937F04CA
:103E80002093710480E030E041E050E0C82FFA0157
:103E9000082E02C0EE0FFF1F0A94E2F72E173F070D
:103EA00039F08F5FC83091F789E080937A0498CF1A
:103EB00080937A042091CD043091CE0421153105F0
:103EC00019F040E050E008C02091DB043091DC04A0
:103ED0004091DD045091DE0420937204309373040A
:103EE000409374045093750446015701860E971E43
:103EF000A11CB11C8092800490928104A092820443
:103F0000B0928304E091C804F091C904F093860450
:103F1000E0938504B0E00E94982A860E971EA81EA2
:103F2000B91E8092870490928804A0928904B0926E
:103F30008A0485E0EE0FFF1F8A95E1F7E150FE4FFE
:103F4000EF2FFF27E6958E0E9F1EA11CB11C8092BD
:103F50007B0490927C04A0927D04B0927E04209118
:103F6000CA043091CB042115310521F0A90160E08C
:103F700070E008C04091D7045091D8046091D904F2
:103F80007091DA04D701C60188199909AA09BB09F9
:103F9000840F951FA61FB71F04C0B695A7959795C8
:103FA0008795CA95D2F78093760490937704A0936F
:103FB0007804B0937904853F2FE09207A105B105FD
:103FC00010F48CE018C0853F9F4FA105B10510F497
:103FD00080E111C08091E3049091E404A091E50494
:103FE000B091E6048093870490938804A093890499
:103FF000B0938A0480E28093840481E0DF91CF91C2
:10400000FF90EF90DF90CF90BF90AF909F908F90F8
:104010000895CF93DF93282F30E0F901E653FF4F47
:104020008491F901EA54FF4FD491F901EE55FF4F05
:10403000C491CC2391F081110E947C1CEC2FF0E004
:10404000EE0FFF1FE856FF4FA591B491EC91ED23C1
:1040500081E090E021F480E002C080E090E0DF9118
:10406000CF9108951F93CF93DF93282F30E0F9016C
:10407000E653FF4F8491F901EA54FF4FD491F901BF
:10408000EE55FF4FC491CC23C1F0162F81110E9431
:104090007C1CEC2FF0E0EE0FFF1FE257FF4FA591C5
:1040A000B4919FB7F894111104C08C91D095D82386
:1040B00002C0EC91DE2BDC939FBFDF91CF911F916B
:1040C0000895CF93DF9390E0FC01EA54FF4F2491D1
:1040D000FC01EE55FF4F8491882361F190E0880F39
:1040E000991FFC01EC57FF4FC591D491FC01E25799
:1040F000FF4FA591B491611109C09FB7F8948881D1
:10410000209582238883EC912E230BC0623061F4CA
:104110009FB7F8948881322F309583238883EC9160
:104120002E2B2C939FBF06C08FB7F894E8812E2BBF
:1041300028838FBFDF91CF9108958F929F92AF9286
:10414000BF92CF92DF92EF92FF926B017C010E94AF
:10415000A51C4B015C01C114D104E104F104F1F090
:104160000E94A51CDC01CB0188199909AA09BB0989
:10417000883E9340A105B10570F321E0C21AD10831
:10418000E108F10888EE880E83E0981EA11CB11C9E
:10419000C114D104E104F10419F7DDCFFF90EF90D1
:1041A000DF90CF90BF90AF909F908F9008952FB7E2
:1041B000F8946091C2067091C3068091C4069091F4
:1041C000C5062FBF08951F920F920FB60F921124AC
:1041D0002F933F938F939F93AF93BF938091C2068A
:1041E0009091C306A091C406B091C5063091C10656
:1041F00023E0230F2D3720F40196A11DB11D05C02A
:1042000026E8230F0296A11DB11D2093C1068093BD
:10421000C2069093C306A093C406B093C5068091CE
:10422000C6069091C706A091C806B091C90601962E
:10423000A11DB11D8093C6069093C706A093C80622
:10424000B093C906BF91AF919F918F913F912F91EC
:104250000F900FBE0F901F901895CF93DF93CDB79F
:10426000DEB7CA56D1090FB6F894DEBF0FBECDBF78
:10427000789484B5826084BD84B5816084BD85B541
:10428000826085BD85B5816085BD80916E0081604D
:1042900080936E00109281008091810082608093F3
:1042A00081008091810081608093810080918000F5
:1042B0008160809380008091B10084608093B10020
:1042C0008091B00081608093B00080917A0084601A
:1042D00080937A0080917A00826080937A00809146
:1042E0007A00816080937A0080917A008068809360
:1042F0007A001092C1001092FC021092FB02109200
:10430000FE021092FD021092FF0261E087E00E941F
:10431000612060E087E00E94322061E088E00E9436
:10432000612060E088E00E9432201092F90262E091
:1043300086E00E94612062E085E00E946120109288
:10434000A5021092A40260ED77E080E090E00E9468
:104350009D20E091C603F091C70382E08083E09145
:10436000C203F091C3031082E091C403F091C5032E
:1043700080E180831092CE03E091CA03F091CB03D9
:1043800086E08083E091C803F091C9038081806159
:104390008083E091C803F091C903808188608083A5
:1043A000E091C803F091C903808180688083E09127
:1043B000C803F091C90380818F7D808384E690E0FB
:1043C000A0E0B0E08093BA039093BB03A093BC033A
:1043D000B093BD038CE991E09F938F9381EA91E0C4
:1043E0009F938F9389EB92E09F938F930E94BD2CB4
:1043F00069EB72E086EB93E00E943D0C8FE08093C6
:10440000AC040E94651C81E08093AF028093AE02F1
:1044100085E799E09093AD028093AC020F900F90E6
:104420000F900F900F900F9080919004882321F0AF
:104430008BE894E00E944C1410926C0410926A0471
:1044400010926704109266048AE0809365040E94CB
:10445000D7206B017C0161E0809165040E9461209E
:1044600061E0809165040E9432201FB7F89480912A
:10447000B802811127C0ECEAF0E08491E0ECF0E0B2
:104480009491E82FF0E0EE0FFF1FEC57FF4FA5913E
:10449000B491EC91E92321F461E08AE00E9432209A
:1044A00061E08AE00E9461208CB580618CBD8CB592
:1044B00080648CBD61E08DE00E94612061E08BE052
:1044C0000E9461208091B8028F5F8093B8021FBF65
:1044D00082E580935F041092600480915F04909164
:1044E00060040E94B1021AE08FEF0E94A7021150EF
:1044F000D9F781E694E00E94611520E030E0A9013F
:1045000060E081E694E00E949C15182F80936B0474
:10451000813049F00E94D7206C197D09613D7740B8
:1045200060F381E054C02AEA31E040E050E068E006
:1045300081E694E00E949C1582FF03C010936C04F6
:104540000EC014E00E94AE0280936B041150D1F7AC
:104550008A3A11F082E03BC082E080936C04809143
:104560006C04823031F4812C912CA12CF0E4BF2E0C
:1045700003C0812C912C540120E030E0A90167E3B5
:1045800081E694E00E949C15A501940169E281E610
:1045900094E00E949C1580936B04882349F00E944C
:1045A000D7206C197D09613D774030F388E00FC05A
:1045B00080916C04823001F520E030E0A9016AE3CB
:1045C00081E694E00E949C15882341F086E0809368
:1045D000660481E694E00E94771528C00E94AE022E
:1045E000807C803C19F483E080936C040E94AE02CE
:1045F0000E94AE020E94AE0281E694E00E9477150E
:1046000080E580935F041092600481E00E94DB1ECD
:10461000882339F08BE894E00E940F1B882331F047
:1046200025C080E00E94DB1E8111F4CF03E010E082
:1046300061E087E00E94322068EC70E080E090E06A
:104640000E949D2060E087E00E94322068EC70E0CC
:1046500080E090E00E949D200150110949F760ED33
:1046600077E080E090E00E949D20E0CF1092B702BA
:1046700081E08093B5028093B40290E19093810031
:104680001092800093E09093B60222E13AE73093D3
:1046900087002093860093E19093810028E031E029
:1046A0003093A7022093A60280936F00109281009E
:1046B00010928500109284009091B60290619093C0
:1046C000810010929203109291031092B403109201
:1046D000B3031092900380938F0310928A0361E0DA
:1046E00082E10E94322061E083E10E9432208091C9
:1046F000B9008E7F8093B9008091B9008D7F80933F
:10470000B90088E48093B80085E48093BC0084E01D
:104710009BE09093AB028093AA0285E09BE090938C
:10472000A9028093A8028FE498E1A9E4BCE58093F4
:10473000B0029093B102A093B202B093B30288E6A4
:104740000E94E01980E090E00E948F1A0E94331AC4
:1047500087E090E00E94EA1983E594E00E94160B3E
:104760008F77982F92959F701AEF082F919F000DC9
:10477000112483E594E00E94160B9C01332744E04A
:10478000359527954A95E1F7F82E129FF00C1124E4
:1047900083E594E00E94160B9C01332754E0359585
:1047A00027955A95E1F7E82E129FE00C112483E536
:1047B00094E00E94160B83E594E00E94160B9C0186
:1047C000332764E0359527956A95E1F7D82E129F37
:1047D000D00C112483E594E00E94160B9C01332732
:1047E00074E0359527957A95E1F7C82E129FC00C95
:1047F000112483E594E00E94160B9C013327E4E02A
:1048000035952795EA95E1F7129F800D112489834C
:10481000CA82DB82EC82FD820E83CE0101960E9469
:10482000FF0D6093B0027093B1028093B202909337
:10483000B30280E00E94A91D182F88E60E94E019AB
:104840008EE090E00E948F1A612F637283E594E0FE
:104850000E945F0B0E94331A62E080E00E94612098
:1048600081E891E0909301018093000180916900BB
:104870008C7F816080936900E89A81E00E94A91D85
:1048800087FD9DC48BEB91E00E94C31D67EC71E036
:1048900086EB93E00E943D0C6CED71E086EB93E0BB
:1048A0000E943D0CE090AF048091B004A9968FAFB8
:1048B000A9978091B104A8968FAFA8978091B20470
:1048C000A7968FAFA7978091B304A6968FAFA697B0
:1048D0008091B702882309F430C2833009F48CC078
:1048E00030F4813059F0823009F452C023C2843050
:1048F00009F4BBC0853009F4FFC01CC2F12C87014C
:104900000053184FBE0167597F4FCE0186599F4F04
:104910000E942204AB969FADAB97AA968FADAA9743
:10492000911123C0882331F183E6E816F10418F4CD
:104930000F5F1F4F02C000ED17E010928100109230
:104940008500109284008091B6028061809381007E
:1049500081E08093B5028093B402C801805D9740E6
:104960008093AF041092B40405C0811103C082E0AB
:104970000E9412298091B502882309F41DC48091F8
:10498000B402882309F46EC020E044E060E0B2C0C5
:10499000BE0167597F4FCE0186599F4F0E94220466
:1049A000AB969FADAB97AA968FADAA97911111C008
:1049B0008823A1F04CE061E0CE0188599F4F0E940E
:1049C000EA04A9968FADA9978093B0041092B4041D
:1049D00005C0811103C083E00E9412298091B502B5
:1049E000882309F4E9C38091B4028823D9F1A996F8
:1049F0008FADA99720E033C0BE0167597F4FCE012C
:104A000086599F4F0E942204AB969FADAB97AA9602
:104A10008FADAA97911111C08823A1F04FE161E0F9
:104A2000CE0189599F4F0E94EA04A8968FADA8979E
:104A30008093B1041092B40405C0811103C084E0D6
:104A40000E9412298091B502882309F4B5C3809190
:104A5000B402882339F0A8968FADA89722E042E0EF
:104A600060E062C10E94651C62C1BE0167597F4F50
:104A7000CE0186599F4F0E942204AB969FADAB9703
:104A8000AA968FADAA97911111C08823A1F047E192
:104A900060E0CE018A599F4F0E94EA04A7968FAD2D
:104AA000A7978093B2041092B40405C0811103C08B
:104AB00085E00E9412298091B502882309F47CC305
:104AC0000091B3048091B40210E0882371F0A7969E
:104AD0008FADA79720E044E060EEF80134E6839FB5
:104AE000E00DF11D1124CF0120C10E94651C22E0C0
:104AF00042E060EEC80119C1BE0167597F4FCE0187
:104B000086599F4F0E942204AB969FADAB97AA9601
:104B10008FADAA97911112C0882309F4E7C04BE327
:104B200060E0CE018B599F4F0E94EA04A6968FAD9C
:104B3000A6978093B3041092B404D8C08111D6C054
:104B40000091AF0488E60E94E01986E090E00E94A0
:104B50008F1A1AE0802F612F0E941F2B692FE0E12E
:104B60008E9F600D112483E594E00E945F0B0E94EC
:104B7000331A0091B00488E60E94E01985E090E0C5
:104B80000E948F1A802F612F0E941F2B692FF0E146
:104B90008F9F600D112483E594E00E945F0B0E94BB
:104BA000331A0091B10488E60E94E01984E090E095
:104BB0000E948F1A802F612F0E941F2B692F20E1E6
:104BC000829F600D112483E594E00E945F0B0E9498
:104BD000331A0091B20488E60E94E01982E090E066
:104BE0000E948F1A0E94331A81E090E00E94EA1915
:104BF00083E594E00E94160B86FF18C00D3060F02C
:104C000084EF800F612F0E941F2B192F30E1839FAB
:104C1000100D1124106614C0802F612F0E941F2BCD
:104C2000192FE0E18E9F100D11240AC0802F612FF3
:104C30000E941F2B192FF0E18F9F100D11241F7B55
:104C400088E60E94E01982E090E00E948F1A612FAE
:104C500083E594E00E945F0B0E94331A1091B30425
:104C600088E60E94E01981E090E00E948F1A812F6F
:104C70006AE00E941F2B692F20E1829F600D1124A2
:104C800083E594E00E945F0B0E94331A88E60E943D
:104C9000E01980E090E00E948F1A60E083E594E0E4
:104CA0000E945F0B0E94331A81E00E94A91D182FF9
:104CB00088E60E94E0198FE090E00E948F1A612F31
:104CC0006F7783E594E00E945F0B0E94331A8FEAAE
:104CD00094E00E94FF0D6093B0027093B102809344
:104CE000B2029093B30280E00E9412298091B50233
:104CF000882309F461C21091B2048091B402882320
:104D000069F0A6968FADA69790E020E044E060EEB3
:104D100034E6139F800D911D112407C00E94651C6D
:104D200020E042E060EE812F90E00E947319109223
:104D3000B50242C21092B7023FC26091FF0270E01A
:104D400044E050E0461B570B65507D4F86EB93E0E7
:104D50000E94EF0B882309F4B3C09091FF02890FE2
:104D60008093FF02843009F027C22091FB0230912A
:104D7000FC023227232732273093FC022093FB02C8
:104D80008091FD029091FE029827892798279093A1
:104D9000FE028093FD024091BB065091BC06421773
:104DA000530708F48AC04091B9065091BA062417F7
:104DB000350708F482C02091BF063091C00628173D
:104DC000390708F47AC02091BD063091BE068217DB
:104DD000930708F472C08091FA02882309F46DC029
:104DE00061E088E00E94322085E08093F9024091E2
:104DF000B0025091B1026091B2027091B302CE0143
:104E00004E960E94610E47E16BEE72E0CE01019674
:104E10000E94631BEA8DFB8D309709F44AC085819F
:104E2000882309F446C04091B0025091B1026091CC
:104E3000B2027091B3028091FE028F938091FD02C5
:104E40008F938091FC028F938091FB028F938BA1B3
:104E50001F928F938AA11F928F9389A11F928F9384
:104E600088A11F928F938F8D1F928F938E8D90E0CC
:104E70008053984F9F938F937F936F935F934F933C
:104E80008FED91E09F938F9389EB92E09F938F93A7
:104E90000E94BD2C69EB72E0CE0101960E943D0C90
:104EA000CE0101960E94941A0FB6F894DEBF0FBE91
:104EB000CDBF60E088E00E9432201092FF027CC1EA
:104EC0001092FF028091AF02882311F11092AF027D
:104ED0004091B0025091B1026091B2027091B30260
:104EE000CE0101960E94610E2C818D8190E0E4E656
:104EF0002E9F800D911D11242091AE02211103C01F
:104F000044E060EE03C020E044E060E00E947319DA
:104F1000BE0167597F4FCE0186599F4F0E942204E0
:104F20009091FA02911123C0AB968FADAB97882375
:104F3000F1F0AA968FADAA978823C9F04091B002EC
:104F40005091B1026091B2027091B302CE0101960C
:104F50000E94610E86E0FE013196AFEAB4E0019056
:104F60000D928A95E1F781E00E94122925C1AB9646
:104F70008FADAB97882309F4D2C0AA962FADAA971C
:104F80002111CDC081E0292E28262092FA0222206C
:104F900009F4C0C061E087E00E943220C12CD12C0E
:104FA00098E8A92E91E0B92EDF92CF9228E032E066
:104FB0003F932F93EBEEF2E0FF93EF930E94BD2C13
:104FC0001EAE1DAEBCAEABAE21961FAE219719A290
:104FD00018A2BF8EAE8E1BA20F900F900F900F9055
:104FE0000F900F90612C712CCE01CB967C010BE8B9
:104FF00014E0C301F301E551FD4F20812F3209F484
:105000000196DC01A551BD4FFE01E85AFF4F20E09B
:1050100030E04F014D914F3249F0442339F02F5F7A
:105020003F4F019641932C303105A1F7F401E20F77
:10503000F31F1082FC01E551FD4F20812F3209F44E
:1050400001963C01FC01E551FD4F30801C821B8222
:10505000BA82A9821E8221E0A401B801CE01019684
:105060000E948110882309F4B7C0CE0101960E94E6
:105070004C143320E1F0F70185818111ADC021E0AE
:10508000A401B801C7010E948110982EF4E00B38EA
:105090001F0709F4C1C0C8010E944C14992009F4EB
:1050A000A2C0902F812F8701E92EF82EA2CF24E0F5
:1050B0000B38120719F0C8010E944C14222009F481
:1050C00092C03FEFC31AD30A80E1C81687E2D80620
:1050D00009F06ACF03E010E061E087E00E9432202F
:1050E00064EF71E080E090E00E949D2060E087E046
:1050F0000E94322064EF71E080E090E00E949D20E9
:105100000150110949F760ED77E080E090E00E94DE
:105110009D20E0CF60E087E00E9432204DC0AA963B
:105120009FADAA97992309F447C0811145C088E62D
:105130000E94E01981E190E00E948F1A0E94331AC8
:1051400082E090E00E94EA1990919103809192038D
:105150009817F9F083E594E00E94160B182F83E569
:1051600094E00E94160B512E412CB201682B86E070
:10517000759567958A95E1F7072E000C880B990BBA
:105180000E949F2920E030E040E85EE30E94DA2997
:1051900004C060E07CE38CE196EC0E94F02ADC0124
:1051A000CB0120E044E060E00E94731960ED77E0FD
:1051B00080E090E00E949D200E94C80A73CB64E4C6
:1051C00072E086EB93E00E943D0C6CED71E086EBA3
:1051D00093E00E943D0C56CB94E00B38190719F070
:1051E000C8010E944C1447E16BEE72E0CE010196BB
:1051F0000E94631BEA8DFB8D3097F1F28581882335
:10520000D9F265E172E0CE0101960E943D0CCE011B
:1052100001960E94941AD0CF882329F38E01025E52
:105220001F4F3FCF8093B702E1E8F0E01082109269
:105230008500109284008091B6028061808381E0B5
:105240008093B5028093B4020895CF93DF93E6EB89
:10525000F3E01382128288EE93E0A0E0B0E0848352
:105260009583A683B78324E631E03183208325EC40
:1052700030E03587248724EC30E03787268720EC20
:1052800030E0318B208B21EC30E0338B228B22EC11
:1052900030E0358B248B26EC30E0378B268B118E5B
:1052A000128E138E148EE3E5F4E01382128284834F
:1052B0009583A683B78386E791E091838083EFE5AA
:1052C000F4E080E580831182E1E6F4E01582168245
:1052D0001186138682E090E0A0E0B0E08487958795
:1052E000A687B78713A215A614A688E891E093A70E
:1052F00082A717A640E050E0BA018FEA94E00E942E
:10530000610ECAEAD4E083E0888384E0898384E67E
:1053100090E09C838B8360E083E00E94612060E0EA
:1053200089810E94612060E088810E94322060E0D3
:105330008981DF91CF910C943220E89409C097FBCA
:105340003EF490958095709561957F4F8F4F9F4F5C
:105350009923A9F0F92F96E9BB279395F6958795A0
:1053600077956795B795F111F8CFFAF4BB0F11F463
:1053700060FF1BC06F5F7F4F8F4F9F4F16C088230A
:1053800011F096E911C0772321F09EE8872F762F40
:1053900005C0662371F096E8862F70E060E02AF081
:1053A0009A95660F771F881FDAF7880F969587956D
:1053B00097F908950E94ED290C945E2A0E94502AC4
:1053C00038F00E94572A20F0952311F00C94472AB8
:1053D0000C944D2A11240C94922A0E946F2A70F387
:1053E000959FC1F3950F50E0551F629FF001729F8A
:1053F000BB27F00DB11D639FAA27F00DB11DAA1F99
:10540000649F6627B00DA11D661F829F2227B00DE5
:10541000A11D621F739FB00DA11D621F839FA00D70
:10542000611D221F749F3327A00D611D231F849FC0
:10543000600D211D822F762F6A2F11249F57504017
:105440009AF0F1F088234AF0EE0FFF1FBB1F661F92
:10545000771F881F91505040A9F79E3F510580F05B
:105460000C94472A0C94922A5F3FE4F3983ED4F3BD
:10547000869577956795B795F795E7959F5FC1F7FF
:10548000FE2B880F911D9695879597F9089597F9AA
:105490009F6780E870E060E008959FEF80EC0895DA
:1054A00000240A9416161706180609060895002403
:1054B0000A9412161306140605060895092E03947D
:1054C000000C11F4882352F0BB0F40F4BF2B11F4F1
:1054D00060FF04C06F5F7F4F8F4F9F4F089557FD50
:1054E0009058440F551F59F05F3F71F04795880F52
:1054F00097FB991F61F09F3F79F0879508951216E9
:1055000013061406551FF2CF4695F1DF08C0161694
:1055100017061806991FF1CF869571056105089445
:105520000895E894BB2766277727CB0197F908955C
:105530000E94DA2AA59F900DB49F900DA49F800D24
:10554000911D112408952F923F924F925F926F9276
:105550007F928F929F92AF92BF92CF92DF92EF9203
:10556000FF920F931F93CF93DF93CDB7DEB7CA1B84
:10557000DB0B0FB6F894DEBF0FBECDBF09942A88AF
:10558000398848885F846E847D848C849B84AA8457
:10559000B984C884DF80EE80FD800C811B81AA81E4
:1055A000B981CE0FD11D0FB6F894DEBF0FBECDBFAF
:1055B000ED010895A29FB001B39FC001A39F700D9C
:1055C000811D1124911DB29F700D811D1124911D0B
:1055D00008950E94F02A6894B1110C94922A0895BB
:1055E0000E94772A88F09F5798F0B92F9927B751D2
:1055F000B0F0E1F0660F771F881F991F1AF0BA9577
:10560000C9F714C0B13091F00E94912AB1E0089519
:105610000C94912A672F782F8827B85F39F0B93F0B
:10562000CCF3869577956795B395D9F73EF4909529
:105630008095709561957F4F8F4F9F4F0895991B6F
:1056400079E004C0991F961708F0961B881F7A9579
:10565000C9F780950895AA1BBB1B51E107C0AA1F7B
:10566000BB1FA617B70710F0A61BB70B881F991F03
:105670005A95A9F780959095BC01CD010895A1E2B6
:105680001A2EAA1BBB1BFD010DC0AA1FBB1FEE1FBC
:10569000FF1FA217B307E407F50720F0A21BB30B07
:1056A000E40BF50B661F771F881F991F1A9469F783
:1056B00060957095809590959B01AC01BD01CF01DF
:1056C0000895EE0FFF1F0590F491E02D09940F93BC
:1056D0001F93CF93DF938230910510F482E090E026
:1056E000E091CC06F091CD0620E030E0A0E0B0E003
:1056F000309719F140815181028113814817590770
:10570000C8F08417950769F4109731F012960C933E
:10571000129713961C9327C00093CC061093CD06C6
:1057200022C02115310519F04217530718F49A01C8
:10573000BD01EF01DF01F801DBCF21153105F9F0E3
:10574000281B390B2430310580F48A819B81611537
:10575000710521F0FB019383828304C09093CD06F1
:105760008093CC06FE01329644C0FE01E20FF31F87
:105770008193919322503109398328833AC0209133
:10578000CA063091CB06232B41F420910A013091B7
:105790000B013093CB062093CA062091080130916B
:1057A00009012115310541F42DB73EB740910C0197
:1057B00050910D01241B350BE091CA06F091CB06E8
:1057C000E217F307A0F42E1B3F0B2817390778F0D8
:1057D000AC014E5F5F4F2417350748F04E0F5F1F37
:1057E0005093CB064093CA068193919302C0E0E0A8
:1057F000F0E0CF01DF91CF911F910F910895CF93EA
:10580000DF93009709F481C0FC0132971382128262
:10581000A091CC06B091CD06109781F42081318102
:10582000820F931F2091CA063091CB0628173907A3
:1058300051F5F093CB06E093CA0667C0ED0120E076
:1058400030E0CE17DF0740F44A815B819E014115AD
:105850005105F1F0EA01F5CFD383C2834081518134
:10586000840F951FC817D90759F488819981840F2F
:10587000951F0296918380838A819B819383828383
:105880002115310529F4F093CD06E093CC063DC0F7
:10589000E901FB83EA8349915991C40FD51FEC17A5
:1058A000FD0761F480819181840F951F0296E901C3
:1058B00099838883828193819B838A83E0E0F0E0EF
:1058C00012968D919C911397009719F0FD01DC01C0
:1058D000F7CF8D919C9111979D012E5F3F4F820FC5
:1058E000931F2091CA063091CB062817390769F417
:1058F000309729F41092CD061092CC0602C0138284
:105900001282B093CB06A093CA06DF91CF9108957F
:1059100081E090E0F8940C94702FFB01DC0104C04E
:105920008D910190801921F441505040C8F7881B97
:10593000990B0895FC018191861721F08823D9F7EE
:10594000992708953197CF010895FB01DC018D91CE
:10595000019080190110D9F3990B0895FB01DC0126
:105960004150504048F001900D920020C9F701C00D
:105970001D9241505040E0F70895AEE0B0E0E3ECF6
:10598000FCE20C94B12A0D891E8986E08C831A836F
:1059900009838FEF9FE79E838D83AE01475E5F4F44
:1059A0006F89788DCE0101960E94DF2CEF81F885FA
:1059B000E00FF11F10822E96E4E00C94CD2AABE0AC
:1059C000B0E0E5EEFCE20C94A32A6C017B018A01B5
:1059D000FC0117821682838181FFCCC1CE01019622
:1059E0003C01F6019381F70193FD859193FF81912D
:1059F0007F01882309F4BAC1853239F493FD85917A
:105A000093FF81917F01853229F4B60190E00E94D5
:105A1000D62EE7CF912C212C312CFFE1F315D8F0B5
:105A20008B3279F038F4803279F08332A1F4232D6F
:105A300020611DC08D3261F0803369F4232D216017
:105A400016C0832D8260382EE32DE4603E2E2AC0DE
:105A5000F32DF8601DC037FC2DC020ED280F2A3033
:105A600040F08E32B9F436FC81C1232D2064322EF1
:105A700019C036FE06C08AE0989E200D1124922E91
:105A800011C0EAE02E9E200D1124222EF32DF0628B
:105A90003F2E08C08C3621F4832D8068382E02C03A
:105AA000883641F4F70193FD859193FF81917F0141
:105AB0008111B3CF982F9F7D9554933028F40C5FBC
:105AC0001F4F9FE399830DC0833631F0833771F008
:105AD000833509F059C021C0F801808189830E5FA8
