:100000000C9470000C94D9130C94B2130C949800B7
:100010000C9498000C9498000C9498000C94980000
:100020000C9498000C9498000C9498000C949800F0
:100030000C9498000C946F140C9498000C949800F5
:100040000C940D1A0C9498000C943D140C941714F5
:100050000C9498000C9498000C9498000C949800C0
:100060000C9470150C9498000000000024002700E8
:100070002A0000000000250028002B0000000000DE
:1000800023002600290004040404040404040202DA
:100090000202020203030303030301020408102007
:1000A0004080010204081020010204081020000012
:1000B0000008000201000003040700000000000027
:1000C00000007C3C3E5E2B3D3F2F5B5D3B2C2A229B
:1000D0005C001F1C1F1E1F1E1F1F1E1F1E1FE12254
:1000E00011241FBECFEFD8E0DEBFCDBF26E0A8EBC6
:1000F000B2E001C01D92A43FB207E1F712E0A0E018
:10010000B1E0E2E7F2E502C005900D92A83BB1072D
:10011000D9F710E0C0E7D0E004C02197FE010E94AB
:100120003125CF36D107C9F70E94571A0C943729C9
:100130000C940000DC015996ED91FC915A97309790
:10014000B9F083899489A589B689428553856485E8
:100150007585841B950BA60BB70B811520E89207BC
:10016000A105B10538F08FEF9FE7A0E0B0E008955A
:1001700080E090E00895CF93DF931F92CDB7DEB774
:100180006983DC01ED91FC910280F381E02D41E077
:1001900050E0BE016F5F7F4F09950F90DF91CF91C7
:1001A0000895089580E090E008950F931F93CF93F2
:1001B000DF93FC012581222309F446C0248127FF17
:1001C0003DC08C01668577858089918941E00E94D8
:1001D000D9168823C9F1F801C289F0E2CF9FE00166
:1001E0001124C65DDC4F209779F1F80185818230BA
:1001F00040F483899489A589B6898C8F9D8FAE8FB1
:10020000BF8FF8018789908DA18DB28D9B8F8A8FCA
:10021000BD8BAC8BE091C002F091C102309751F0E0
:10022000BE016A5E7F4FCE0148960995888D998DF3
:100230009B8B8A8BF80194819F779483DF91CF9178
:100240001F910F910C949E1680E0DF91CF911F912A
:100250000F910895FC01818D928D009711F00C94FF
:10026000D500089581E08093D0029091CF02892734
:100270008093CF028091C4028F3F71F08091C402BD
:10028000882331F08091C40281508093C402089584
:1002900060E088E00C94FE0F0895CF93C1E0C09316
:1002A000C30282E00E94D50F892BB1F08091CA026F
:1002B0009091CB02A091CC02B091CD020196A11DEC
:1002C000B11D8093CA029093CB02A093CC02B0934D
:1002D000CD02C093C20202C01092C202CF91089513
:1002E0008F929F92AF92BF92CF92DF92EF92FF9246
:1002F0000F931F93CF93DF93EC018D81811102C087
:1003000080E078C00B891C892D893E890417150768
:1003100026073707A8F36A017B01823029F4CA86D1
:10032000DB86EC86FD860DC0C114D104E104F10426
:1003300051F41E821F82188619861A861B861C8617
:100340001D8681E057C08A849B84AC84BD84EB8D7C
:10035000FC8D258530E0275F3F4FB501A40141505A
:10036000510961097109022E04C076956795579568
:1003700047950A94D2F7D701C6010197A109B1099F
:1003800004C0B695A795979587952A95D2F78417B7
:100390009507A607B70720F089288A288B2871F4CB
:1003A0004F89588D698D7A8D4E835F8368877987F1
:1003B0004C015D018E010A5F1F4F16C0841B950B17
:1003C000A60BB70BF5CF4E815F81688579859801C3
:1003D0008B8D9C8D0E94C31791E0891A9108A1080A
:1003E000B108882309F48CCF81149104A104B104CD
:1003F00051F795CFDF91CF911F910F91FF90EF9023
:10040000DF90CF90BF90AF909F908F9008958F9284
:100410009F92AF92BF92CF92DF92EF92FF920F9393
:100420001F93CF93DF9300D000D0CDB7DEB77C0110
:1004300080E2689FF0011124E65DFC4F9385917185
:1004400021F0842F827409F08FC0142FD7015296A7
:100450006C935297409104015091050160910601FF
:10046000709107011E964D935D936D937C93519708
:100470004489558960E070E0BA0155274427828D90
:10048000938DA0E0B0E0482B592B6A2B7B2BD70132
:1004900057964D935D936D937C935A97838588719E
:1004A00059F4848D958DA68DB78DF701838B948B30
:1004B000A58BB68B81E012C0803109F055C0970141
:1004C0002D5E3F4FD7015B968D919C915C970E946A
:1004D000430C882309F448C084E0F7018583812F09
:1004E0008F70D70114968C931497F7011682178298
:1004F000108611861A961D921D921D921C921D97B0
:1005000016FF34C015968C91813071F511FF2CC007
:10051000F7014389548965897689452B462B472BFA
:1005200009F461C040E050E0BA01C7010E947001C7
:100530008823D1F0F7018788908CA18CB28CC38C72
:10054000D48C82E090E0A0E0B0E0F601808391835B
:10055000A283B3839E012F5F3F4FB501A401C60163
:100560000E94C317811104C080E03DC081E03BC000
:1005700000E010E09801B501A401C6010E94221715
:10058000882391F389809A80AB80BC80D6015796EE
:100590008C91803129F088EF9FEFAFEFBFE004C06E
:1005A00088EF9FEFA0E0B0E088169906AA06BB0688
:1005B00088F2D70157961D921D921D921C925A9750
:1005C000F701138A148A158A168A848180688483C5
:1005D000C7010E94D500882339F240E050E0BA01FB
:1005E000C7010E9470010F900F900F900F90DF9144
:1005F000CF911F910F91FF90EF90DF90CF90BF9020
:10060000AF909F908F900895CF93DF93EC010E945D
:10061000D500882311F01D8281E0DF91CF910895EC
:100620003F924F925F926F927F928F929F92AF9282
:10063000BF92CF92DF92EF92FF920F931F93CF93CF
:10064000DF93CDB7DEB72C970FB6F894DEBF0FBEA1
:10065000CDBF5C01DC015B968D909C905C971696FB
:10066000CD90DD90ED90FC901997C114D104E10478
:10067000F10439F0BFEFCB1ADB0AEB0AFB0A312C8D
:1006800007C0F401C080D180E280F380332433942A
:10069000F40181859285A385B4859C01AD012F5F0E
:1006A0003F4F4F4F5F4F29873A874B875C87260123
:1006B00037011D821E821F821886F4018185928572
:1006C000A385B4852D813E814F8158852817390730
:1006D0004A075B0708F063C089859A85AB85BC85AE
:1006E0008C159D05AE05BF0550F482E0C82ED12CB7
:1006F000E12CF12C92E0492E512C612C712C9E01A1
:100700002F5F3F4FB701A601C4010E94C317882382
:1007100009F445C089819A81AB81BC81892B8A2BE0
:100720008B2B41F0260137019FEF491A590A690ABC
:10073000790A05C0C414D504E604F70491F02D81AC
:100740003E814F8158852F5F3F4F4F4F5F4F2D8325
:100750003E834F8358873FEFC31AD30AE30AF30A55
:10076000ACCF0FEF1FEF2FEF3FE0B301A201C401A9
:100770000E942217882399F0D50116964D915D911C
:100780006D917C911997411551056105710549F0ED
:1007900093018201C4010E942217811102C080E0EE
:1007A0002AC0D50116964D925D926D927C92199752
:1007B000332051F0D301C2010196A11DB11DF401F6
:1007C00080839183A283B383F5018789908DA18D66
:1007D000B28D892B8A2B8B2B69F4D50157964D92BC
:1007E0005D926D927C925A9714968C9114978068C2
:1007F00014968C9381E02C960FB6F894DEBF0FBE52
:10080000CDBFDF91CF911F910F91FF90EF90DF90BF
:10081000CF90BF90AF909F908F907F906F905F90A0
:100820004F903F9008958FB7F894809121038FBF28
:10083000089561E0FC0184810E94FE0F80912003F5
:1008400081111092200308958EBD00000DB407FEA3
:10085000FDCF8EB508958FEF0C9424040F931F9352
:10086000CF93DF93EB010E94CA118B010E942B04EE
:100870008F3F49F00E94CA11601B710B6C177D07F6
:10088000A8F380E001C081E0DF91CF911F910F912B
:100890000895CF93DF93EC018E81882389F08F81B7
:1008A00098859C012F5F3F4F38872F83823092407D
:1008B00018F40E942B04F3CFCE010E9419041E826B
:1008C000DF91CF9108958CBD9DBD0895CF93DF93A7
:1008D000EC0180912003811109C081E08093200305
:1008E00080914F06909150060E94630460E08C81D5
:1008F000DF91CF910C94FE0F8F929F92AF92BF9297
:10090000FF920F931F93CF93DF93EC01F62E4901D3
:100910005A010E944904CE010E9466046CE271E013
:10092000CE010E942E048F2D80640E94240408E1D1
:1009300010E0D501C401002E04C0B695A795979587
:1009400087950A94D2F70E94240408501109083FA1
:100950008FEF180771F7FF2029F088E0F81204C024
:1009600087E803C085E901C08FEF0E94240410E0EE
:100970000E942B048A8787FF04C01F3F11F01F5F6E
:10098000F7CFDF91CF911F910F91FF90BF90AF9064
:100990009F908F900895AF92BF92CF92DF92EF9287
:1009A000FF920F931F93CF93DF93EC016901C8016E
:1009B000820F931F8130924008F070C08E8188238F
:1009C00071F088819981AA81BB8184179507A60758
:1009D000B70729F48F819885C816D906B0F54883E2
:1009E00059836A837B838B85833039F089E0440F98
:1009F000551F661F771F8A95D1F79A01AB0161E1F8
:100A0000CE010E947C04882319F083E08D8346C0C8
:100A10000E94CA115B010E942B048A878F3F49F410
:100A20000E94CA116A197B096D327140A0F38FE0F0
:100A300003C08E3F31F08DE08D83CE010E941904FA
:100A40002DC018861F8281E08E838F8198858C153A
:100A50009D0540F40E942B048F819885019698870C
:100A60008F83F3CF6701E00EF11EEC14FD0431F02B
:100A70000E942B04F60181936F01F7CF8F81988537
:100A8000080F191F18870F838985882319F001150E
:100A9000124048F0CE010E94490405C0CE010E94D8
:100AA000190480E001C081E0DF91CF911F910F9187
:100AB000FF90EF90DF90CF90BF90AF900895EF92AE
:100AC000FF920F931F93CF93DF93EC0179014115B0
:100AD00051056105710511F482E13CC08B858330BD
:100AE00039F089E0440F551F661F771F8A95D1F7AB
:100AF0009A01AB0168E1CE010E947C04882311F0C9
:100B000084E028C08EEF0E94240487018EEFF81A3B
:100B1000F80181918F010E942404E016F106C1F7CB
:100B20008FEF0E9424048FEF0E9424040E942B0464
:100B30008A878F71853031F081E18D83CE010E94EB
:100B4000190409C068E572E0CE010E942E048111EB
:100B500007C085E18D83CE010E94190480E014C096
:100B600020E030E0A9016DE0CE010E947C048111FB
:100B700009C00E942B04811105C0CE010E941904F6
:100B800081E002C084E1E6CFDF91CF911F910F9108
:100B9000FF90EF9008952F923F924F925F926F9245
:100BA0007F928F929F92AF92BF92CF92DF92EF92FD
:100BB000FF920F931F93CF93DF9300D000D0CDB758
:100BC000DEB78C016B011A01DC0115968C9115972B
:100BD0008130C9F414968C9181FF15C082FF1DC02D
:100BE000F801438954896589768982859385A4852E
:100BF000B58584179507A607B70779F0C8010E9445
:100C0000700181110AC081E090E0D80113969C9395
:100C10008E93129780E090E048C1410183C05B96BB
:100C20008D919C915C97FC0174802FEF270D2A0118
:100C30003B0139E076946794579447943A95D1F7FD
:100C4000722E74207A01F1E0FF22772009F476C039
:100C500080E092E08E199F0954018815990508F4E7
:100C60005C01D8015B962D913C915C9716968D9115
:100C70009D910D90BC91A02D0297A109B109F90198
:100C8000058404C0880F991FAA1FBB1F0A94D2F7BE
:100C90004685578560897189840F951FA61FB71FE8
:100CA0009C01AD01270D311D411D511D29013A0146
:100CB000A11432E0B30609F088C08091040190913C
:100CC0000501A0910601B0910701481659066A0670
:100CD0007B0659F48FEF9FEFDC0180930401909322
:100CE0000501A0930601B09307019601B301A2018B
:100CF00080912A0590912B050E945F05882309F4B5
:100D000082CF9EEFD91A8A189B08F80182859385B5
:100D1000A485B5858A0D9B1DA11DB11D8287938772
:100D2000A487B587D8011A964D915D916D917C91FC
:100D30001D978114910409F072CF87C0E114F1046A
:100D400009F086CF16964D915D916D917C91199722
:100D5000411551056105710559F457968D919D9185
:100D60000D90BC91A02D0097A105B10541F521C0C2
:100D70009E012F5F3F4F0E94C317882309F44BCF7A
:100D800089819A81AB81BC81F801238D348DF90171
:100D90002789203129F048EF5FEF6FEF7FE004C033
:100DA00048EF5FEF60E070E084179507A607B7078C
:100DB00030F0C8010E94100381114ACF24CFF801FE
:100DC00086839783A087B18743CFE114F10429F587
:100DD000D8011A964D915D916D917C911D97539616
:100DE0008D919D910D90BC91A02D481759076A07D0
:100DF0007B0798F00E949E16882309F404CF409246
:100E000004015092050160920601709207018091E1
:100E1000A70681608093A70608C041E0C301B20124
:100E20000E94D916882309F4EECED601F701E65DBB
:100E3000FC4F9F012A0D3B1D2E173F0719F08D9186
:100E40008193FACFCA0CDB1C5ECFD8015396CD90AC
:100E5000DD90ED90FC90569714968C91C416D506B3
:100E6000E606F70640F4F801438B548B658B768BCE
:100E7000806884830DC02091C0023091C102232B71
:100E800039F02114310421F08068D80114968C9334
:100E9000F801848183FD02C0C10107C0C8010E941E
:100EA000D500882309F4AFCEF7CF0F900F900F90A5
:100EB0000F90DF91CF911F910F91FF90EF90DF90F6
:100EC000CF90BF90AF909F908F907F906F905F90EA
:100ED0004F903F902F900895CF93DF93EC01898D31
:100EE0009A8D009739F481E090E09B838A8380E0BB
:100EF00090E00BC0FC01138212820E94CB05E98DA9
:100F0000FA8D22813381232B71F7DF91CF910895E0
:100F1000FC01DB0112968D919C9113979383828340
:100F20008AE691E09183808314968C911497848350
:100F300015968C911597858316964D915D916D91BF
:100F40007C91199746835783608771871A964D91D4
:100F50005D916D917C911D9742875387648775875A
:100F60001E964D915D916D917C9151974687578763
:100F7000608B718B52968C915297828B53964D91C8
:100F80005D916D917C915697438B548B658B768BDD
:100F900057964D915D916D917C915A97478B508FEB
:100FA000618F728F5B968D919C915C97948F838FEC
:100FB00008954F925F926F927F92AF92BF92CF92BD
:100FC000DF92EF92FF920F931F93CF93DF931F92C5
:100FD000CDB7DEB7FC012581222309F4C1C084818D
:100FE00080FFBEC083899489A589B68942845384D1
:100FF0006484758484159505A605B70509F4B0C009
:101000006F015201F1E0BF22D6015B968D919C9158
:101010005C97B301A20139E076956795579547959E
:101020003A95D1F7223071F4FC01828D938DA48D15
:10103000B58D8A019B01080F191F2A1F3B1FC9018B
:10104000B8014AC0DC0114961C9111501423A1145C
:10105000B104F9F411111DC045284628472851F460
:10106000F6018789908DA18DB28D86839783A087A5
:10107000B1870FC0D60116964D915D916D917C910F
:10108000199796012A5F3F4F0E94C317882309F4DE
:1010900067C0F601238D348D86819781A085B18547
:1010A0000297A109B109AC01BD01F901058404C091
:1010B000440F551F661F771F0A94D2F786859785C0
:1010C000A089B189840F951FA61FB71FBC01CD0150
:1010D000610F711D811D911DD60114962C9126FF63
:1010E0000DC0409004015090050160900601709081
:1010F0000701461657066806790699F440E00E94F3
:10110000D916882369F1F501E65DFC4FDE011196E1
:101110009F012F5F3F4F2E173F0799F081918D93CD
:10112000FACFFE0131967F0101E010E09501AB019D
:10113000BC0180912A0590912B050E94CB04882345
:1011400079F0F60182859385A485B5850196A11D68
:10115000B11D82879387A487B587898190E002C0FB
:101160008FEF9FEF0F90DF91CF911F910F91FF9025
:10117000EF90DF90CF90BF90AF907F906F905F9097
:101180004F900895FC01818D928D009711F00C9481
:10119000D9078FEF9FEF08950F931F93CF93DF939E
:1011A000FC01818D928D0097B9F0EF010E94D90763
:1011B0008C010F3F8FEF180791F0898D9A8DFC01FC
:1011C00042855385648575854150510961097109CE
:1011D0000E947001C80105C080E090E002C08FEF5E
:1011E0009FEFDF91CF911F910F9108959F92AF9242
:1011F000BF92CF92DF92EF92FF920F931F93CF9304
:10120000DF936C015B01FC011082FB01108200E0A6
:1012100010E0C0E0D0E082E0E82EFF24F39493E0F9
:10122000992E86E00E94D50F811125C021968091CC
:10123000B902813049F028F0823071F08330A9F092
:101240001EC0F092B9021BC0C436D105C1F4F6012C
:101250008083E092B90211C0C83EF3E0DF0779F461
:10126000F601F0829092B90208C0C83CD10539F469
:10127000F601F08202C01092B902C0E0D0E085E031
:101280000E94D50F811126C00F5F1F4F8091B802B9
:10129000813049F028F0823071F08330A9F01EC00F
:1012A000F092B8021BC004361105C1F4F501808329
:1012B000E092B80211C0083EF3E01F0779F4F5018F
:1012C000F0829092B80208C0083C110539F4F5018B
:1012D000F08202C01092B80200E010E0F6018081B6
:1012E000811102C0209739F4F501808181110AC073
:1012F0000115110539F061E070E080E090E00E9496
:1013000090118FCFDF91CF911F910F91FF90EF90B0
:10131000DF90CF90BF90AF909F900895CF93DF93D1
:1013200000D000D0CDB7DEB740911C0150911D0117
:1013300060911E0170911F0149835A836B837C83E6
:10134000813069F048F0823079F0833091F48FE495
:101350008C8388EE93E00FC08FE38C830AC086E015
:101360008C838AEF90E007C08BE58C8384EF91E05B
:1013700002C084E690E0BB24BA940FE06C01E12C3B
:10138000F12C18E061E087E00E94FE0FB092C402E9
:1013900000939C0640E064E0CE0101960E94D710C5
:1013A000C701B6010E94901160E087E00E94FE0F25
:1013B00010939C0640E064E0CE0101960E94D71095
:1013C000C701B6010E949011DDCF2F923F924F923C
:1013D0005F926F927F928F929F92AF92BF92CF92C5
:1013E000DF92EF92FF920F931F93CF93DF93CDB7CE
:1013F000DEB7C556D1090FB6F894DEBF0FBECDBF1C
:10140000C12CD12C8FE2282E82E0382E98E9492E6B
:1014100095E0592E2AE6A22E21E0B22EDF92CF923D
:101420008091C502282F082E000C330B3F938F9319
:101430003F922F925F924F920E9484261EAE1DAE65
:10144000BCAEABAE21961FAE219719A218A2BF8EDB
:10145000AE8E1BA20FB6F894DEBF0FBECDBF612CBF
:10146000712CFE01FB967F010BE716E0C301F3012F
:10147000E856FA4F20812F3209F40196DC01A85674
:10148000BA4FFE01E85AFF4F20E030E04F014D9186
:101490004F3249F0442339F02F5F3F4F019641937B
:1014A0002C303105A1F7F401E20FF31F1082FC018B
:1014B000E856FA4F20812F3209F401963C01FC01D5
:1014C000E856FA4F8081A6968FAFA6971C821B82A2
:1014D000BA82A9821E8221E0A401B801CE01019640
:1014E0000E944618882351F0CE0101960E94040301
:1014F000A6969FADA697911106C020C0E6E00B37D7
:101500001E0799F535C0F701858181112AC021E0B8
:10151000A401B801C7010E944618982EF6E00B37C7
:101520001F0709F46DC0C8010E940403992001F14E
:10153000902F812F8701E92EF82E98CF86E00B3768
:10154000180719F0C8010E9404039FEFC91AD90AAD
:10155000E8EECE16E3E0DE0609F060CF82E00E94FE
:101560008E09F6E00B371F0719F0C8010E9404032B
:1015700061E087E00E94FE0F8FEF8093C402CE01EE
:1015800001960E94000DEA8DFB8D309709F43FC053
:1015900085818823E1F16EE372E0CE0101960E941D
:1015A000151468E975E0CE0101960E94151465E4F2
:1015B00072E0CE0101960E9415146EE771E0CE0133
:1015C00001960E9415146DE672E0CE0101960E940C
:1015D00015148091C502893429F0853531F460E70E
:1015E00072E005C068E472E002C060EA72E0CE0119
:1015F00001960E941514CE0101960E94310C07C07D
:10160000882309F4B5CF8E01025E1F4F91CFCB59CD
:10161000DF4F0FB6F894DEBF0FBECDBFDF91CF9185
:101620001F910F91FF90EF90DF90CF90BF90AF9000
:101630009F908F907F906F905F904F903F902F90F2
:1016400008958093D102E1E8F0E0108210928500C5
:10165000109284008091CE028061808381E080932B
:10166000D0028093CF020895FC019081961728F054
:10167000941718F49F5F908301C0608310928100DB
:1016800010928500109284008091CE028061809338
:10169000810081E08093D0028093CF020895EF9281
:1016A000FF920F931F93CF93DF9300D000D000D011
:1016B000CDB7DEB77C018B014091CA025091CB02BD
:1016C0006091CC027091CD02CE0101960E94F81477
:1016D000898190E04496982F8827990F2A8140E2CB
:1016E000249F900111244B81242B822B932BF701F3
:1016F000918380838D81F0E28F9F900111249C81E2
:10170000892F90E0982F8827990F990F990F822B96
:10171000932B2E8130E035952795822B932BF80162
:101720009183808326960FB6F894DEBF0FBECDBF9F
:10173000DF91CF911F910F91FF90EF9008958091CD
:101740009D0690919E068230910538F0880F991F72
:10175000880F991F05970197F1F70895833081F05D
:1017600028F4813099F08230A1F008958730A9F0F3
:101770008830B9F08430D1F4809180008F7D03C02F
:10178000809180008F7780938000089584B58F7753
:1017900002C084B58F7D84BD08958091B0008F779D
:1017A00003C08091B0008F7D8093B00008953FB753
:1017B000F8948091260390912703A0912803B0917B
:1017C000290326B5A89B05C02F3F19F00196A11D3E
:1017D000B11D3FBFBA2FA92F982F8827820F911DC7
:1017E000A11DB11DBC01CD0142E0660F771F881F0E
:1017F000991F4A95D1F70895EF92FF920F931F9387
:10180000CF93DF93EC017B018A011B821A8288EE61
:1018100093E0A0E0B0E08C839D83AE83BF8384E33C
:1018200091E0998388838DE190E00E9437259A8F1B
:10183000898F009779F02DE1F701DC0101900D927D
:101840002A95E1F74CE050E0B801CE010C960E94D9
:101850007526188EDF91CF911F910F91FF90EF9019
:101860000895CF93DF93EC01898D9A8D009741F015
:101870000E940403898D9A8D0E94CF251A8E198E9D
:10188000DF91CF9108954F925F926F927F92AF92C6
:10189000BF92CF92DF92EF92FF920F931F93CF935D
:1018A000DF9300D000D0CDB7DEB78C0149835A83D7
:1018B0006B837C835901C12CD12C7601412C82E0B1
:1018C000582E612C712C49815A816B817C819E013B
:1018D0002F5F3F4FC8010E94C317882351F1D301E6
:1018E000C201F801058404C0880F991FAA1FBB1FFD
:1018F0000A94D2F7C80ED91EEA1EFB1E49815A81EE
:101900006B817C818789803129F088EF9FEFAFEF71
:10191000BFE004C088EF9FEFA0E0B0E04817590790
:101920006A077B0780F2F501C082D182E282F382EE
:1019300081E00F900F900F900F90DF91CF911F914A
:101940000F91FF90EF90DF90CF90BF90AF907F907E
:101950006F905F904F900895CF93DF93FC012581A6
:10196000222311F080E049C0EC018091740680319F
:10197000C1F482E08583178A108E118E128E8091B9
:10198000750690917606A0E0B0E025E0880F991FDB
:10199000AA1FBB1F2A95D1F7838B948BA58BB68B7F
:1019A00019C08032F9F683E0858340917706509123
:1019B00078066091790670917A06478B508F618F17
:1019C000728F9F012D5E3F4F8DE596E00E94430C84
:1019D000882341F28DE596E09C8F8B8F81E08C838C
:1019E0001E821F82188619861A861B861C861D86F3
:1019F0001E861F86188A198A1A8ADF91CF91089548
:101A00002F923F924F925F926F927F928F929F920E
:101A1000AF92BF92CF92DF92EF92FF920F931F93FC
:101A2000CF93DF93CDB7DEB7C456D1090FB6F89484
:101A3000DEBF0FBECDBF5C0119A218A28AE691E0FD
:101A40009F8F8E8F1BA21C821B829A8389831E828A
:101A50004E018EE1880E911CC4010E94AC0C8E01D7
:101A60000F5F1F4F240188E9C82E85E0D82E18018A
:101A70006FE270E0C6010E946A26009709F442C036
:101A8000F60120812F3221F4FFEFCF1ADF0AF0CFC9
:101A90008C198D3008F08CE0E82EF12CA701B601EE
:101AA000CE01885A9F4F0E947526E8E5F0E0EC0FC2
:101AB000FD1FEE0DFF1D1082C8010E940403F801F6
:101AC0008581882351F01EAE1DAE8AE691E09CAF61
:101AD0008BAF21961FAE21971EC021E0AE01485A60
:101AE0005F4FB201C8010E944618882361F3CE0CF3
:101AF000DF1CC2010E940403942D852D2801092FAB
:101B0000182FB6CFC601885995403C01B201CE01CD
:101B1000CB960E948807830108561A4FF8018081EE
:101B2000811109C0BE01655C7F4FC1010E94880719
:101B300046EB52E039C019A218A28AE691E09F8FC5
:101B40008E8F1BA221968FAD2197811113C0F501B5
:101B50001382128288EE93E0A0E0B0E08483958344
:101B6000A683B78384E391E091838083128E118EE4
:101B700014861EC027E1A801BE01655C7F4FC40129
:101B80000E944618882319F3CE01CB960E940403C5
:101B900049A95AA96BA97CA9C4010E947001B4018A
:101BA000C1010E948807A801B101C5010E94FC0B78
:101BB000C501CC59DF4F0FB6F894DEBF0FBECDBFC5
:101BC000DF91CF911F910F91FF90EF90DF90CF9019
:101BD000BF90AF909F908F907F906F905F904F904D
:101BE0003F902F90089530919705313208F04BC007
:101BF000809174058111FCCF9091A60622E020937C
:101C0000740521E0209373052FEF20937205109245
:101C1000710530937005E7E7F5E0A0E5B5E020E059
:101C2000321721F041914D932F5FFACF10924F055B
:101C300020914F05990F922B90934F0590914E054F
:101C4000913061F410924E0590914F059093BB0036
:101C50009091BC0093FDF8CF95EC01C095EE909368
:101C6000BC00909174059230E1F3909172059F3F12
:101C700079F080917205803241F080917205803355
:101C800031F084E005C081E003C082E001C083E060
:101C90001092760510929705109275050895682F99
:101CA00083E496E00C94701391E090937505809313
:101CB000A6061092760510929705089590917405E6
:101CC0009111FCCF982F813208F090E281E080934F
:101CD0007405809373052FEF2093720510927105A0
:101CE000290F2093700580934F0580914F05806DDB
:101CF00080934F0580914E05813061F410924E051E
:101D000080914F058093BB008091BC0083FDF8CF8C
:101D100085EC01C085EE8093BC0080917405813014
:101D2000E1F380917105891710F490917105E0E558
:101D3000F5E0AEE2B5E080E0891721F021912D9326
:101D40008F5FFACF10922D0580932C0508958F9206
:101D50009F92AF92BF92CF92DF92EF92FF92CF937A
:101D6000DF93C82F81E596E090932B0580932A0599
:101D7000CC2369F1C53010F080E00CC140E060E098
:101D800070E0CB010E94D9168823B1F320E1C29FF5
:101D9000C0011124865E9C4FFC01E254FE4F20815D
:101DA0002F7751F73C96408151816281738144368F
:101DB00051056105710500F33497C080D180E28040
:101DC000F380C114D104E104F10421F4D5CFC12C76
:101DD000D12C760140E0C701B6010E94D9168823B4
:101DE00059F280913503909136038115924021F686
:101DF000A0913A03AA2309F4BFCF609138037091F0
:101E000039036115710509F4B7CF209137032223F7
:101E100009F4B2CFA0936F062093610680E030E012
:101E200041E050E0C82FFA01082E02C0EE0FFF1F5C
:101E30000A94E2F72E173F0739F08F5FC83091F709
:101E400089E080936A0698CF80936A0620914003C8
:101E5000309141032115310519F040E050E008C0F0
:101E600020914E0330914F03409150035091510304
:101E70002093620630936306409364065093650690
:101E800046015701860E971EA11CB11C8092700658
:101E900090927106A0927206B0927306E0913B0395
:101EA000F0913C03F0937606E0937506B0E00E9453
:101EB0005424860E971EA81EB91E80927706909213
:101EC0007806A0927906B0927A0685E0EE0FFF1FA1
:101ED0008A95E1F7E150FE4FEF2FFF27E6958E0E32
:101EE0009F1EA11CB11C80926B0690926C06A09262
:101EF0006D06B0926E0620913D0330913E03211590
:101F0000310521F0A90160E070E008C040914A036A
:101F100050914B0360914C0370914D03D701C60162
:101F200088199909AA09BB09840F951FA61FB71F15
:101F300004C0B695A79597958795CA95D2F78093D3
:101F4000660690936706A0936806B0936906853F7E
:101F50002FE09207A105B10510F48CE018C0853F71
:101F60009F4FA105B10510F480E111C08091560387
:101F700090915703A0915803B0915903809377062D
:101F800090937806A0937906B0937A0680E28093C6
:101F9000740681E0DF91CF91FF90EF90DF90CF90BA
:101FA000BF90AF909F908F900895CF93DF93282F8D
:101FB00030E0F901E255FF4F8491F901E656FF4FF9
:101FC000D491F901EA57FF4FC491CC2391F08111CC
:101FD0000E94AE0BEC2FF0E0EE0FFF1FE458FF4F16
:101FE000A591B491EC91ED2381E090E021F480E0A3
:101FF00002C080E090E0DF91CF9108951F93CF93CE
:10200000DF93282F30E0F901E255FF4F8491F90169
:10201000E656FF4FD491F901EA57FF4FC491CC2304
:10202000C1F0162F81110E94AE0BEC2FF0E0EE0FE5
:10203000FF1FEE58FF4FA591B4919FB7F89411116F
:1020400004C08C91D095D82302C0EC91DE2BDC9398
:102050009FBFDF91CF911F910895CF93DF9390E0C1
:10206000FC01E656FF4F2491FC01EA57FF4F849193
:10207000882361F190E0880F991FFC01E859FF4F18
:10208000C591D491FC01EE58FF4FA591B491611117
:1020900009C09FB7F8948881209582238883EC91AA
:1020A0002E230BC0623061F49FB7F8948881322FE1
:1020B000309583238883EC912E2B2C939FBF06C0F1
:1020C0008FB7F894E8812E2B28838FBFDF91CF91B3
:1020D0000895CF93DF93CAE9D6E061E089810E9439
:1020E0002D100E949F0B60E088810E942D100E949D
:1020F0009F0B60E089810E942D10DF91CF910C949D
:102100009F0BCF93DF93D82FC8E061E080919A06B0
:102110000E942D100E949F0BD0FF02C060E001C002
:1021200061E080919B060E942D100E949F0B60E051
:1021300080919A060E942D100E949F0BD695C15047
:1021400021F761E080919A060E942D1060E0809155
:102150009B060E942D100E949F0B60E080919A06C2
:102160000E942D100E949F0B80919B060E94D50F0C
:10217000C82F811105C061E080919B060E942D103F
:102180000E949F0B61E080919A060E942D100E9490
:102190009F0B81E0C11101C080E0DF91CF910895D4
:1021A00061E080919B060E942D100C949F0BFF9282
:1021B0000F931F93CF93DF93F82E092F162FC42F61
:1021C0000E94D01080E40E9481100E9469100E9439
:1021D000D0108C2F837080540E948110CF2DD02F6F
:1021E000CE01810F911D8C01C017D10721F089917B
:1021F0000E948110F9CF0E9469100E94D010809136
:102200009C068F7080580E948110DF91CF911F91A2
:102210000F91FF900C946910CF93DF9300D000D002
:10222000CDB7DEB719821A821B821C8240E064E0BF
:10223000CE0101960E94D7100F900F900F900F9033
:10224000DF91CF9108958F929F92AF92BF92CF92DC
:10225000DF92EF92FF920F931F93CF93DF9300D003
:1022600000D0CDB7DEB7D62EC42EBC0197FF03C079
:10227000719561957109FB01392F331F3327331F86
:102280008E010F5F1F4F5801AC0CB11C78018AE022
:10229000882E912C40E40A151B05D1F0CF01B40122
:1022A0000E94E724DC01BB27A05EBE4F9C91D501B4
:1022B0009E935D01811106C0309721F4332311F004
:1022C0004C9330E0CF01B4010E94E724FB01E3CF3F
:1022D000D11016C0422F6C2DC8010E94D7100F904C
:1022E0000F900F900F90DF91CF911F910F91FF9062
:1022F000EF90DF90CF90BF90AF909F908F90089518
:10230000AE014B5F5F4F8D2D8078F7019081892B57
:10231000D7018D937D01DD0C4A175B07A1F7DACF5A
:102320008F929F92AF92BF92CF92DF92EF92FF92E5
:102330006B017C010E94D70B4B015C01C114D104DD
:10234000E104F104F1F00E94D70BDC01CB01881904
:102350009909AA09BB09883E9340A105B10570F30C
:1023600021E0C21AD108E108F10888EE880E83E066
:10237000981EA11CB11CC114D104E104F10419F789
:10238000DDCFFF90EF90DF90CF90BF90AF909F9008
:102390008F9008952FB7F8946091220370912303D2
:1023A00080912403909125032FBF08950895CF9223
:1023B000DF92EF92FF920F931F93CF93DF936C0105
:1023C0007A018B01C0E0D0E0CE15DF0581F0D801A5
:1023D0006D918D01D601ED91FC910190F081E02D80
:1023E000C6010995892B11F02196EECF7E01C70118
:1023F000DF91CF911F910F91FF90EF90DF90CF90E1
:102400000895FC01538D448D252F30E0842F90E0FA
:10241000821B930B541710F0CF96089501970895DF
:10242000FC01918D828D981761F0828DDF01A80FDC
:10243000B11D5D968C91928D9F5F9F73928F90E0FE
:1024400008958FEF9FEF0895FC01918D828D98176D
:1024500031F0828DE80FF11D858D90E008958FEFAA
:102460009FEF0895FC01918D228D892F90E0805C73
:102470009F4F821B91098F739927089586EA95E0F3
:102480000E94321221E0892B09F420E0822F089566
:10249000FC01848DDF01A80FB11DA35ABF4F2C9101
:1024A000848D90E001968F739927848FA689B789D0
:1024B0002C93A089B1898C91837080648C93938DC7
:1024C000848D981306C00288F389E02D80818F7D6A
:1024D00080830895EF92FF920F931F93CF93DF9322
:1024E000EC0181E0888F9B8D8C8D981305C0E88965
:1024F000F989808185FD26C0F62E0B8D10E00F5FD7
:102500001F4F0F731127E02E8C8DE8120CC00FB6F1
:1025100007FCFACFE889F989808185FFF5CFCE01E4
:102520000E944812F1CF8B8DFE01E80FF11DE35A96
:10253000FF4FF0829FB7F8940B8FEA89FB89808167
:1025400080620AC09FB7F894EE89FF896083E889AA
:10255000F98980818370806480839FBF81E090E0EF
:10256000DF91CF911F910F91FF90EF900895CF933E
:10257000DF93EC01888D8823C9F0EA89FB8980818B
:1025800085FD05C0A889B9898C9186FD0FC00FB65D
:1025900007FCF5CF808185FFF2CFA889B9898C919E
:1025A00085FFEDCFCE010E944812E7CFDF91CF919A
:1025B000089580E090E0892B29F00E943E1281115D
:1025C0000C940000089585ED8093BC008091BC00C0
:1025D00084FDFCCF1092740508954091CC06262FFF
:1025E00030E0240F311D21323105DCF420917405D7
:1025F0002430C9F4FC0180E090E0861758F4309153
:10260000CC062191DC01A455B94FA30FB11D2C9329
:102610000196F3CF8091CC06680F6093CC0680E0E2
:10262000089581E0089582E0089508950895089539
:10263000E0912D0580912C05E81730F4F0E0E25D83
:10264000FA4F808190E008958FEF9FEF0895909169
:102650002D0580912C05981750F4E92FF0E0E25DEC
:10266000FA4F208130E09F5F90932D0502C02FEF3D
:102670003FEFC901089580912C0590E020912D0530
:10268000821B91090895CF92DF92EF92FF920F93F0
:102690001F93CF93DF937C01CB018A0120917505B5
:1026A000222389F0EB016B01C40ED51ECC15DD058C
:1026B00069F06991D701ED91FC910190F081E02DD5
:1026C000C7010995F3CF642F0E94ED12C801DF9175
:1026D000CF911F910F91FF90EF90DF90CF900895D1
:1026E000CF93DF931F92CDB7DEB769832091750535
:1026F0002223D1F020919705203240F021E030E0F4
:10270000FC013383228380E090E015C08091760540
:10271000E82FF0E0E958FA4F998190838F5F80931A
:1027200076058093970505C061E0CE0101960E9471
:10273000ED1281E090E00F90DF91CF9108950E941B
:102740005826CF93DF931F92CDB7DEB7698341E060
:1027500050E0BE016F5F7F4F0E94CB050F90DF916D
:10276000CF9108951F920F920FB60F9211242F93BD
:102770003F934F935F936F937F938F939F93AF9309
:10278000BF93EF93FF93E0910201F091030109954C
:10279000FF91EF91BF91AF919F918F917F916F9139
:1027A0005F914F913F912F910F900FBE0F901F900F
:1027B00018951F920F920FB60F9211242F933F93EB
:1027C0004F935F936F937F938F939F93AF93BF9339
:1027D000EF93FF93E0910001F09101010995FF91C2
:1027E000EF91BF91AF919F918F917F916F915F9189
:1027F0004F913F912F910F900FBE0F901F90189502
:102800006115710579F0FB0101900020E9F731971E
:10281000AF01461B570BDC01ED91FC910280F38167
:10282000E02D099480E090E008950C9400141F922C
:102830000F920FB60F9211242F933F934F935F93F4
:102840006F937F938F939F93AF93BF93EF93FF9378
:1028500086EA95E00E944812FF91EF91BF91AF91F7
:102860009F918F917F916F915F914F913F912F91A8
:102870000F900FBE0F901F9018951F920F920FB6DA
:102880000F9211242F938F939F93EF93FF93E091D7
:10289000B605F091B7058081E091BC05F091BD05CA
:1028A00082FD12C090818091BF058F5F8F73209150
:1028B000C005821751F0E091BF05F0E0EA55FA4FEC
:1028C000958F8093BF0501C08081FF91EF919F910B
:1028D0008F912F910F900FBE0F901F9018951F9200
:1028E0000F920FB60F9211242F933F934F935F9344
:1028F0006F937F938F939F93AF93BF93EF93FF93C8
:10290000E091BA02F091BB020995FF91EF91BF915E
:10291000AF919F918F917F916F915F914F913F9177
:102920002F910F900FBE0F901F901895EF92FF926E
:102930000F931F93CF93DF93EC0169813881432F6D
:1029400050E08A8190E0E2EDF0E021E0261730F4DB
:102950007491870F911D2F5F3196F8CF633018F077
:10296000337009F401966DE671E0469F9001479F30
:10297000300D569F300D1124215031094D5F5F4FAE
:102980005695479556954795240F351F280F391FA3
:10299000A8E1B0E00E9496242B817B018C01E20E1D
:1029A000F11C011D111DA8019701ACE3B0E00E94CC
:1029B00054242C817B018C01E20EF11C011D111DA0
:1029C000A80197010E9454242D81DC01CB01820FC4
:1029D000911DA11DB11DBC01CD0160587C4B8249E8
:1029E000974CDF91CF911F910F91FF90EF90089539
:1029F0008F929F92AF92BF92CF92DF92EF92FF920F
:102A0000CF93DF93EC016A017B0180E8C81A83E46D
:102A1000D80A8DE6E80A88E3F80A8CE3882E912C20
:102A2000A12CB12CC701B601A50194010E940F256C
:102A30006D83CA01B901A50194010E940F256C8321
:102A4000C701B60120E13EE040E050E00E940F25C2
:102A5000CA01B90128E130E040E050E00E940F25B2
:102A60006B83C701B60120E831E541E050E00E94E8
:102A70000F2518824881542F537081E009F080E0BF
:102A800090E0BC0163597E4F2617370738F0281BAA
:102A9000390B2D5631404F5F4883ECCF81E089835D
:102AA0008981E82FF0E0EF52FF4FE491511103C00C
:102AB000823009F4EF5FF0E02E173F0720F02E1B65
:102AC0003F0B8F5FECCF2F5F2A83DF91CF91FF9079
:102AD000EF90DF90CF90BF90AF909F908F90089530
:102AE0001F920F920FB60F9211242F933F934F9383
:102AF0005F936F937F938F939F93AF93BF93EF9366
:102B0000FF938091B900887F803609F49CC068F5F6
:102B1000883209F45BC090F4803109F454C038F471
:102B2000882309F4F6C0883009F44DC0F6C0883116
:102B300009F44CC0803209F45DC0EFC0803409F460
:102B400068C048F4803309F455C0883309F0E5C003
:102B500080937205D8C0803509F44FC0883509F4D8
:102B60005DC0883409F0D9C0D6C0883909F4C7C01F
:102B7000A8F4883709F467C038F4883609F463C0CC
:102B8000803709F460C0C9C0883809F4B8C08039FA
:102B900009F45FC0803809F0C0C05BC0803B09F415
:102BA00086C038F4803A09F466C0883A09F47FC0D8
:102BB000B4C0803C09F4A7C0883C09F4A4C0883B99
:102BC00009F48AC0AAC080914F0510C09091710588
:102BD00080917005981770F5E091710581E08E0F76
:102BE00080937105F0E0E05BFA4F80818093BB0039
:102BF00085EC86C0809372058EC0E091710581E0FE
:102C00008E0F809371058091BB00F0E0E05BFA4F7E
:102C1000808390917105809170056EC0E09171057F
:102C200081E08E0F809371058091BB00F0E0E05B46
:102C3000FA4F80838091730581116DC081E080938C
:102C40004E0584EA61C083E0809374051092EE061D
:102C5000CFCF8091EE06803208F051C0E091EE06B1
:102C600081E08E0F8093EE068091BB00F0E0E2538E
:102C7000F94F8083BDCF85EC8093BC001092740522
:102C80008091EE06803230F4E091EE06F0E0E253FF
:102C9000F94F10826091EE0670E0E091BC02F09175
:102CA000BD028EEC96E009951092EE0636C084E0E7
:102CB000809374051092CD061092CC06E091BE026E
:102CC000F091BF0209958091CC06811105C081E089
:102CD0008093CC061092AC06E091CD0681E08E0F79
:102CE0008093CD06F0E0E455F94F80818093BB00DE
:102CF0009091CD068091CC06981708F479CF85E89D
:102D00008093BC000AC085EC8093BC0010927405CF
:102D100004C0109272050E94E312FF91EF91BF91DF
:102D2000AF919F918F917F916F915F914F913F9163
:102D30002F910F900FBE0F901F9018958091A706AE
:102D40008823A9F140910401509105016091060189
:102D5000709107012AE233E080912A0590912B05BA
:102D60000E945F05811102C080E008954091A8068D
:102D70005091A9066091AA067091AB0641155105C4
:102D80006105710591F02AE233E080912A05909166
:102D90002B050E945F05882339F31092A806109234
:102DA000A9061092AA061092AB061092A70681E01F
:102DB00008958F929F92AF92BF92EF92FF920F93DE
:102DC0001F93CF934B015C01C42F8091040190911C
:102DD0000501A0910601B091070188159905AA0582
:102DE000BB0501F10E949E16811102C080E020C047
:102DF0008AE2E82E83E0F82E00E012E020E030E0E6
:102E0000B501A40180912A0590912B050E94CB0465
:102E1000882361F38092040190920501A09206013B
:102E2000B09207018091A706C82BC093A70681E046
:102E3000CF911F910F91FF90EF90BF90AF909F9017
:102E40008F9008954F925F926F927F928F929F9290
:102E5000AF92BF92CF92DF92EF92FF920F931F93A8
:102E6000CF93DF93EC01423051056105710510F4F9
:102E700080E078C089859A85AB85BC850196A11DC7
:102E8000B11D84179507A607B70790F3CB88DC8898
:102E9000ED88FE888F89803129F4BB27A72F962FD4
:102EA000852F09C0DB01CA01E7E0B695A795979584
:102EB0008795EA95D1F7480159012A013B01C80ECF
:102EC000D91EEA1EFB1E8091040190910501A0917C
:102ED0000601B0910701C816D906EA06FB0681F47F
:102EE0008F898031A9F4B301A2015527662777277E
:102EF000440F551FFA01E65DFC4F9182808219C094
:102F000040E0C701B6010E94D9168111E9CFB0CFC8
:102F1000B301A2014F77552766277727440F551F26
:102F2000440F551FFA01E65DFC4F80829182A28218
:102F3000B3828091A70681608093A7068A89823038
:102F400080F08D819E81AF81B885C80ED91EEA1EA2
:102F5000FB1EC092A806D092A906E092AA06F092A3
:102F6000AB0681E0DF91CF911F910F91FF90EF9021
:102F7000DF90CF90BF90AF909F908F907F906F9099
:102F80005F904F9008958F929F92AF92BF92CF9291
:102F9000DF92EF92FF920F931F93CF93DF93FC0189
:102FA00081859285A385B4850196A11DB11D8417E5
:102FB0009507A607B70710F480E05BC08388948864
:102FC000A588B6888789803129F4BB27A72F962F3B
:102FD000852F09C0DB01CA01C7E0B695A795979573
:102FE0008795CA95D1F7E9016A017B018F01BC0180
:102FF000CD01680D791D8A1D9B1D80900401909064
:103000000501A0900601B0900701681579058A05B1
:103010009B0591F4F80187898031A1F4DD24EE2429
:10302000FF24C601880F991FFC01E65DFC4F8081DB
:103030009181A0E0B0E018C040E00E94D916811153
:10304000E9CFBACFE894C7F8DD24EE24FF24C60107
:10305000880F991F880F991FFC01E65DFC4F808146
:103060009181A281B381BF7088839983AA83BB8336
:1030700081E0DF91CF911F910F91FF90EF90DF9052
:10308000CF90BF90AF909F908F9008952F923F92D6
:103090004F925F926F927F928F929F92AF92BF9268
:1030A000CF92DF92EF92FF920F931F93CF93DF9314
:1030B000CDB7DEB72B970FB6F894DEBF0FBECDBFEE
:1030C0007C01FE013196CE010C966F0130E2319306
:1030D000E817F907E1F7DA0130E087E09D919923DD
:1030E00031F19E3231F48A3009F479C138E08AE056
:1030F000F5CFE2ECF0E04491442321F031969413B3
:10310000FACF6DC1831708F46AC14FED490F4E35F0
:1031100008F065C141E0430FF601E30FF11D3FE9FF
:10312000390F3A3108F490529083342FD7CF8981E8
:10313000803209F454C1322E8B01DB015B968D91F4
:103140009C915C97F701948F838F16961D921D9228
:103150001D921C921997FB01128613861486158600
:10316000B12CF80182859385A485B585438954895E
:103170006589768984179507A607B70708F05BC0AD
:1031800025E0B695A795979587952A95D1F7F82FBD
:10319000FF70AF2ED80115968C91823008F41FC1B4
:1031A000C8010E94D90797FD1AC1F801828593854D
:1031B000A485B5854F96A11DB11D82879387A487ED
:1031C000B587F0E2AF9EB0011124665D7C4F6115BA
:1031D000710509F404C1DB018C91882319F0853E47
:1031E000C1F4FFC0B1100EC0F701A28A80910401A2
:1031F00090910501A0910601B091070186879787FC
:10320000A08BB18BDB018C91882399F0BB24B39404
:10321000A8CF4BE050E0C6010E945D26892B09F043
:10322000A0CF832D8073803309F4D9C0432D6A2D3C
:10323000D2C0BB24B394832D8271823109F0CFC0F8
:10324000BB20C9F0F701668577858089918941E0C7
:103250000E94D916882309F4C2C0D70152960C9156
:10326000B0E20B9F80011124065D1C4F0115110572
:1032700009F078C0B4C0F8018581823009F4AFC08C
:10328000C8010E941003882309F4A9C0D8015B96E5
:10329000ED91FC915C9716968D909D90AD90BC90B1
:1032A0001997B2E08B1A9108A108B108058404C0EF
:1032B000880C991CAA1CBB1C0A94D2F7868597859A
:1032C000A089B189880E991EAA1EBB1E2480E1E048
:1032D0008E1A9108A108B108222009F124013501B4
:1032E000420C511C611C711C0E949E16882309F41B
:1032F00076C0EAE2F3E0119225E0EA32F207D9F76C
:1033000040920401509205016092060170920701FB
:103310008091A70681608093A7062A94DDCFD8010B
:103320005B96ED91FC915C9780E092E0A0E0B0E0CC
:10333000058404C0880F991FAA1FBB1F0A94D2F7E7
:10334000F8014389548965897689840F951FA61FE2
:10335000B71F838B948BA58BB68BD70152961C928B
:103360000AE213E080E2F80111928A95E9F78BE016
:10337000F601D80101900D928A95E1F7E091C00223
:10338000F091C102309739F0B801625F7F4FC801F8
:10339000409609950DC081E298E2D80151969C9320
:1033A0008E93509780E098E01F969C938E931E9783
:1033B000F80180899189938B828B918F808F86858C
:1033C0009785978B868B0E949E16882341F0432D0C
:1033D000D70152966C91C7010E94070205C080E098
:1033E00003C0B11013CF00CF2B960FB6F894DEBFF9
:1033F0000FBECDBFDF91CF911F910F91FF90EF9046
:10340000DF90CF90BF90AF909F908F907F906F9004
:103410005F904F903F902F9008951F920F920FB69C
:103420000F9211242F933F938F939F93AF93BF934A
:103430008091220390912303A0912403B09125034E
:103440003091EF0623E0230F2D3720F40196A11DC4
:10345000B11D05C026E8230F0296A11DB11D2093C2
:10346000EF068093220390932303A0932403B09349
:1034700025038091260390912703A0912803B09102
:1034800029030196A11DB11D809326039093270364
:10349000A0932803B0932903BF91AF919F918F917F
:1034A0003F912F910F900FBE0F901F901895CF93C3
:1034B000DF93CDB7DEB7E7970FB6F894DEBF0FBE48
:1034C000CDBF789484B5826084BD84B5816084BDAD
:1034D00085B5826085BD85B5816085BD80916E00B2
:1034E000816080936E0010928100809181008260E3
:1034F0008093810080918100816080938100809120
:1035000080008160809380008091B100846080930E
:10351000B1008091B00081608093B00080917A000A
:10352000846080937A0080917A00826080937A0030
:1035300080917A00816080937A0080917A0080681F
:1035400080937A001092C100109217031092160314
:10355000109219031092180310921F0361E087E084
:103560000E942D1060E087E00E94FE0F61E088E07D
:103570000E942D1060E088E00E94FE0F1092C402AD
:1035800062E086E00E942D1062E085E00E942D102E
:103590001092B9021092B80289E48093C50285E0C6
:1035A0000E94D50F892B19F485E58093C50280917F
:1035B000C502893419F480ED97E004C0853551F4D3
:1035C00088E393E09093C9028093C8021092C702E7
:1035D0001092C602E091B605F091B70582E08083B3
:1035E000E091B205F091B3051082E091B405F0913D
:1035F000B50580E180831092BE05E091BA05F09197
:10360000BB0586E08083E091B805F091B905808123
:1036100080618083E091B805F091B9058081886070
:103620008083E091B805F091B9058081806880833E
:10363000E091B805F091B90580818F7D808384E6A3
:1036400090E0A0E0B0E08093AA059093AB05A09332
:10365000AC05B093AD058EE791E09F938F9383E81F
:1036600091E09F938F9383ED92E09F938F930E94BD
:10367000842663ED72E086EA95E00E9415148FE0DF
:1036800080939C060E940C110F900F900F900F904A
:103690000F900F908091C502853511F48CE101C027
:1036A00080E18C8F86E08D8F8DE78E8F8FE38F8FFB
:1036B00040E064E0CE014C960E94D71060ED77E0C8
:1036C00080E090E00E9490110E940C1181E08093B4
:1036D000C3028093C2028FE49BE09093C102809367
:1036E000C00280918006882321F08BE796E00E943B
:1036F000040310925C0610925A061092570610921C
:1037000056068AE0809355060E94CA118B0161E03B
:10371000809155060E942D1061E0809155060E940F
:10372000FE0FFFB6F8948091D202811127C0E0E924
:10373000F0E08491E4EAF0E09491E82FF0E0EE0FFD
:10374000FF1FE859FF4FA591B491EC91E92321F4B3
:1037500061E08AE00E94FE0F61E08AE00E942D1085
:103760008CB580618CBD8CB580648CBD61E08DE0D2
:103770000E942D1061E08BE00E942D108091D202FA
:103780008F5F8093D202FFBE82E580934F06109236
:10379000500680914F06909150060E9463042AE0E3
:1037A000F22E8FEF0E942404FA94F110FACF81E5F3
:1037B00096E00E94660420E030E0A90160E081E527
:1037C00096E00E947C04F82E80935B0621E082172D
:1037D00049F00E94CA11601B710B613D774058F39C
:1037E00081E056C02AEA31E040E050E068E081E53F
:1037F00096E00E947C0482FF03C0F0925C0610C039
:1038000094E0F92E0E942B0480935B06FA94F11049
:10381000F9CF8A3A11F082E03BC082E080935C06E7
:1038200080915C06823031F4C12CD12CE12C80E4F3
:10383000F82E03C0C12CD12C760120E030E0A90184
:1038400067E381E596E00E947C04A701960169E2A6
:1038500081E596E00E947C0480935B06882349F012
:103860000E94CA11601B710B613D774030F388E004
:103870000FC080915C06823001F520E030E0A901A4
:103880006AE381E596E00E947C04882341F086E0AB
:103890008093560681E596E00E94190428C00E9494
:1038A0002B04807C803C19F483E080935C060E94AA
:1038B0002B040E942B040E942B0481E596E00E94B9
:1038C000190480E580934F061092500681E00E9413
:1038D000A70E882339F08BE796E00E94AC0C882372
:1038E00031F007C080E00E94A70E8111F4CF80E084
:1038F00093C51092D10201E00093D0020093CF0251
:1039000080E1809381001092800083E08093CE025A
:1039100082E19AE7909387008093860083E1809309
:10392000810082E391E09093BB028093BA020093FE
:103930006F00109281001092850010928400809197
:10394000CE028061809381008FE498E1A9E4BCE518
:103950008093CA029093CB02A093CC02B093CD0285
:1039600010922D0510922C05109276051092970555
:10397000109274050093730510924E0561E082E188
:103980000E94FE0F61E083E10E94FE0F8091B9006A
:103990008E7F8093B9008091B9008D7F8093B900AC
:1039A00088E48093B80085E48093BC0085E193E1CE
:1039B0009093BF028093BE0286E193E19093BD0293
:1039C0008093BC0288E60E94540E80E090E00E9442
:1039D0004F0E0E94F30D87E090E00E945E0E83E49C
:1039E00096E00E9427138F77982F92959F701AEF79
:1039F000F82E919FF00C112483E496E00E94271387
:103A00009C01332794E0359527959A95E1F7E82EA8
:103A1000129FE00C112483E496E00E9427139C017E
:103A2000332744E0359527954A95E1F7D82E129F24
:103A3000D00C112483E496E00E94271383E496E0DF
:103A40000E9427139C01332754E0359527955A95FA
:103A5000E1F7C82E129FC00C112483E496E00E9467
:103A600027139C01332764E0359527956A95E1F784
:103A7000B82E129FB00C112483E496E00E94271305
:103A80009C01332774E0359527957A95E1F7129FCD
:103A9000800D11248983BA82CB82DC82ED82FE8282
:103AA000CE0101960E9496146093CA027093CB02D5
:103AB0008093CC029093CD0288E60E94540E8EE053
:103AC00090E00E944F0E0E94F30D81E090E00E9472
:103AD0005E0E83E496E00E942713182F88E60E946A
:103AE000540E8EE090E00E944F0E612F637283E4CB
:103AF00096E00E9470130E94F30D62E080E00E9445
:103B00002D108DE491E0909301018093000180914C
:103B100069008C7F816080936900E89A00931503A7
:103B20000E94E5094091CA025091CB026091CC02FB
:103B30007091CD02CE0101960E94F8148C81809381
:103B400014036DE971E086EA95E00E94001462EBCF
:103B500071E086EA95E00E940014EAE06E2E712C76
:103B6000F6E0CF2EF2E0DF2EA3EDEA2EA2E0FA2E51
:103B7000CE014F969BAB8AABBCEBAB2EB1E0BB2E1C
:103B800015EB812E11E0912E9091D102992309F429
:103B900021C200919F065091A0065FA73091A10617
:103BA00039A71091A2061C8F8091A30689839330B8
:103BB00009F48AC030F4913059F0923009F450C0C1
:103BC00006C2943009F4B0C0953009F4E6C0FFC1D4
:103BD00010E00053184F8091D002882379F0809133
:103BE000CF02882339F020E044E060E0C8010E9461
:103BF000231102C00E940C111092D002BE01605D20
:103C00007F4FCE01C1960E94F60899A988A991110B
:103C100023C0882309F4CAC4C801805D9740833655
:103C2000910518F40F5F1F4F02C000ED17E01092CE
:103C3000810010928500109284008091CE028061F4
:103C40008093810081E08093D0028093CF02005D59
:103C5000174000939F062FC08111A8C482E031C095
:103C60008091D002882381F08091CF02882341F097
:103C700020E042E060E0852F90E00E94231102C026
:103C80000E940C111092D002BE01605D7F4FCE01E8
:103C9000C1960E94F60899A988A991110FC088239E
:103CA00009F484C44CE061E0CE018F960E94340B8D
:103CB0008FA58093A0061092A40678C4811176C4C3
:103CC00083E00E94210B72C48091D002882381F08E
:103CD0008091CF02882341F022E042E060E0832F10
:103CE00090E00E94231102C00E940C111092D00299
:103CF000BE01605D7F4FCE01C1960E94F60899A972
:103D000088A991110DC0882309F450C44FE161E0E6
:103D1000CE0189960E94340B89A58093A106CBCF52
:103D2000811144C484E0CDCF9091D0029923C9F091
:103D30009091CF02992351F090E020E044E060EEB2
:103D4000E4E61E9F800D911D112407C00E940C11F6
:103D5000898122E042E060EE90E00E9423111092FF
:103D6000D002BE01605D7F4FCE01C1960E94F60871
:103D700099A988A991110DC0882309F417C447E1B6
:103D800060E0CE014C960E94340B8C8D8093A2068D
:103D900092CF81110BC485E094CF9091D0029923EA
:103DA000C9F09091CF02992351F090E020E044E0D7
:103DB00060EEF4E61F9F800D911D112407C00E9444
:103DC0000C1120E042E060EE812F90E00E94231170
:103DD0001092D002BE01605D7F4FCE01C1960E945D
:103DE000F60899A988A991110DC0882309F4DEC3AA
:103DF0004BE360E0CE0101960E94340B89818093F1
:103E0000A30659CF8111D2C300919F0688E60E9474
:103E1000540E86E090E00E944F0E1AE0802F612F32
:103E20000E94DB24692F20E1829F600D112483E42E
:103E300096E00E9470130E94F30D0091A00688E6A0
:103E40000E94540E85E090E00E944F0E802F612F5B
:103E50000E94DB24692F30E1839F600D112483E4ED
:103E600096E00E9470130E94F30D0091A10688E66F
:103E70000E94540E84E090E00E944F0E802F612F2C
:103E80000E94DB24692F40E1849F600D112483E4AC
:103E900096E00E9470130E94F30D0091A20688E63E
:103EA0000E94540E82E090E00E944F0E0E94F30D9B
:103EB00081E090E00E945E0E83E496E00E9427136A
:103EC00086FF18C00D3060F084EF800F612F0E94D4
:103ED000DB24192FE0E18E9F100D1124106614C011
:103EE000802F612F0E94DB24192FF0E18F9F100D8E
:103EF00011240AC0802F612F0E94DB24192F20E19A
:103F0000829F100D11241F7B88E60E94540E82E0D0
:103F100090E00E944F0E612F83E496E00E947013A0
:103F20000E94F30D1091A30688E60E94540E81E0D2
:103F300090E00E944F0E812F6AE00E94DB24692FDF
:103F400030E1839F600D112483E496E00E9470139A
:103F50000E94F30D88E60E94540E80E090E00E94DB
:103F60004F0E60E083E496E00E9470130E94F30D10
:103F700088E60E94540E8FE090E00E944F0E0E944F
:103F8000F30D81E090E00E945E0E83E496E00E94D3
:103F90002713182F88E60E94540E8FE090E00E94AD
:103FA0004F0E612F6F7783E496E00E9470130E949A
:103FB000F30D8FE996E00E9496146093CA02709305
:103FC000CB028093CC029093CD0280E07ACE109207
:103FD000D102ECC28091C502893431F0853511F4EB
:103FE00085E003C081E001C082E020911F0330E042
:103FF000282E312C221A330AC9018A5E9C4F9DABB0
:104000008CAB00E010E02016310691F44091CA021A
:104010005091CB026091CC027091CD02CE01899675
:104020000E94F8143CA48091150381112FC044C054
:104030000E94CA116093AE057093AF058093B005DE
:104040009093B10586EA95E00E94101297FFB1C2E5
:104050000E94CA112091AE053091AF054091B00584
:104060005091B105DC01CB01821B930BA40BB50B66
:104070002091AA053091AB054091AC055091AD055A
:1040800082179307A407B507E8F2C0CF8091140305
:10409000381681F0332061F095E0391649F0EAE0F6
:1040A0003E1631F0FFE03F1619F024E1321202C053
:1040B0000E94E50930921403002309F4AFC18091F6
:1040C000C502893409F404C1853509F06FC261E085
:1040D00088E00E94FE0F82E08093C40280911F035B
:1040E000800F80931F03853009F0F2C030911603D2
:1040F0003CAB409117034EAB809118038FAB2090DF
:10410000190330901A0320911603309117033227B8
:104110002327322730931703209316038091180327
:1041200090911903982789279827909319038093D2
:10413000180334FE10C030931C0320931B0390938C
:104140001E0380931D031092170310921603109202
:104150001903109218038091160390911703409150
:10416000C8025091C9028417950708F0AEC020918B
:10417000C6023091C7022817390708F0A6C08091FF
:104180001803909119038417950708F09EC028170B
:10419000390708F09AC080911503882309F495C067
:1041A000CE0101960E94000DEA8DFB8D309709F437
:1041B0008CC08581882309F488C083E0EEE0F1E0BB
:1041C000DE015C9601900D928A95E1F78AE0EAA9FA
:1041D000FBA911928A95E9F780911A038E01045E7A
:1041E0001F4F84FF17C080911E038F9380911D0382
:1041F0008F9380911C038F9380911B038F939F92C9
:104200008F921F930F930E9484260FB6F894DEBFFF
:104210000FBECDBF80911A034091CA025091CB02CC
:104220006091CC027091CD021F923F921F922F920B
:104230001F923FA93F931F929EA99F931F92ECA9A3
:10424000EF931F930F9381FB992790F91F929F93F0
:1042500081701F928F93809119038F93809118031F
:104260008F93809117038F93809116038F938EA560
:104270001F928F938DA51F928F938CA51F928F9362
:104280008BA51F928F938AA51F928F9389A590E08B
:104290008053984F9F938F937F936F935F934F9328
:1042A000BF92AF92FF92EF920E9484260FB6F894CD
:1042B000DEBF0FBECDBF63ED72E0CE0101960E945E
:1042C0001514CE0101960E94310C10921F036EC18D
:1042D00090911F0391110FC0809116032091170335
:1042E000382F307F19F48093160305C00150822FB8
:1042F000B9F720931603090F00931F03023008F447
:1043000055C1809116039091170398278927982704
:104310009093170380931603209115032223A9F28B
:1043200097702091C8023091C9022817390768F2A6
:104330002091C6023091C7028217930730F261E0E4
:1043400088E00E94FE0F8FEF8093C4024091CA0262
:104350005091CB026091CC027091CD02CE014C966F
:104360000E94F814CE0101960E94000DEA8DFB8D8B
:10437000309709F450C08581882309F44CC080919E
:104380001603909117039C01377093FF03C088EECA
:1043900093E002C080E090E04091CA025091CB02CD
:1043A0006091CC027091CD023F932F939F938F9396
:1043B00089A11F928F9388A11F928F938F8D1F9237
:1043C0008F938E8D1F928F938D8D1F928F938C8DD7
:1043D00090E08053984F9F938F937F936F935F9359
:1043E0004F93DF92CF92FF92EF920E94842663ED6B
:1043F00072E0CE0101960E941514CE0101960E9432
:10440000310C60E088E00E94FE0F0FB6F894DEBF2A
:104410000FBECDBF5ACF83E00E948E0910921F03BA
:104420008091C3028823B1F01092C3022CA58DA500
:1044300090E0E4E62E9F800D911D11242091C20290
:10444000211103C044E060EE03C020E044E060E0DE
:104450000E942311BE01605D7F4FCE01C1960E9474
:10446000F6083091150399A928A931111BC0992389
:1044700069F12223B9F04091CA025091CB026091B8
:10448000CC027091CD02CE0101960E94F81486E014
:10449000FE013196AFE9B6E001900D928A95E1F701
:1044A00081E00FCC992391F0211110C081E0832786
:1044B00080931503882329F00E94E50930921403A4
:1044C00075C060E087E00E94FE0F70C0222309F4EF
:1044D0006DC091116BC088E60E94540E81E190E09E
:1044E0000E944F0E0E94F30D82E090E00E945E0E4B
:1044F00090912C0580912D059817F9F083E496E0B2
:104500000E942713182F83E496E00E942713512E50
:10451000412CB201682B86E0759567958A95E1F785
:10452000072E000C880B990B0E945B2320E030E0E3
:1045300040E85EE30E94962304C060E07CE38CE1E7
:1045400096EC0E94A5249B0119821A821B821C8270
:10455000F9E3FC8377FF0BC022273327261B370B99
:1045600080E42A30310514F48A8301C08983C901AB
:10457000B3010E94FB24FC01E05EFE4F80818B832F
:104580002A3031053CF06F70E62FF0E0E05EFE4F20
:1045900080818A8340E064E0CE0101960E94D710BA
:1045A00068EB7BE080E090E00E9490110E94D912BD
:1045B000EBCAECA9FDA98193FDABECAB0F5F1F4FDC
:1045C00022CDCF93DF93E6EAF5E01382128288EEE4
:1045D00093E0A0E0B0E084839583A683B78326E4CC
:1045E00031E03183208325EC30E03587248724ECCB
:1045F00030E03787268720EC30E0318B208B21ECB0
:1046000030E0338B228B22EC30E0358B248B26EC90
:1046100030E0378B268B118E128E138E148EE3E4CE
:10462000F6E01382128284839583A683B78388E59C
:1046300091E091838083EFE4F6E080E5808311824E
:10464000E1E5F6E0158216821186138682E090E09D
:10465000A0E0B0E084879587A687B78713A215A648
:1046600014A68AE691E093A782A717A640E050E03F
:10467000BA018FE996E00E94F814CAE9D6E083E017
:10468000888384E0898384E690E09C838B8360E068
:1046900083E00E942D1060E089810E942D1060E06F
:1046A00088810E94FE0F60E08981DF91CF910C9498
:1046B000FE0FE89409C097FB3EF4909580957095A5
:1046C00061957F4F8F4F9F4F9923A9F0F92F96E95E
:1046D000BB279395F695879577956795B795F111D3
:1046E000F8CFFAF4BB0F11F460FF1BC06F5F7F4F70
:1046F0008F4F9F4F16C0882311F096E911C0772382
:1047000021F09EE8872F762F05C0662371F096E88A
:10471000862F70E060E02AF09A95660F771F881F59
:10472000DAF7880F9695879597F908950E94A9233F
:104730000C941A240E940C2438F00E94132420F0B8
:10474000952311F00C9403240C94092411240C9447
:104750004E240E942B2470F3959FC1F3950F50E0D7
:10476000551F629FF001729FBB27F00DB11D639F23
:10477000AA27F00DB11DAA1F649F6627B00DA11DC9
:10478000661F829F2227B00DA11D621F739FB00D6F
:10479000A11D621F839FA00D611D221F749F3327DF
:1047A000A00D611D231F849F600D211D822F762F78
:1047B0006A2F11249F5750409AF0F1F088234AF055
:1047C000EE0FFF1FBB1F661F771F881F91505040C1
:1047D000A9F79E3F510580F00C9403240C944E24BD
:1047E0005F3FE4F3983ED4F3869577956795B79548
:1047F000F795E7959F5FC1F7FE2B880F911D969562
:10480000879597F9089597F99F6780E870E060E0D1
:1048100008959FEF80EC089500240A941616170659
:1048200018060906089500240A94121613061406A1
:1048300005060895092E0394000C11F4882352F004
:10484000BB0F40F4BF2B11F460FF04C06F5F7F4FBC
:104850008F4F9F4F089557FD9058440F551F59F0A3
:104860005F3F71F04795880F97FB991F61F09F3F5D
:1048700079F087950895121613061406551FF2CF86
:104880004695F1DF08C0161617061806991FF1CFD6
:1048900086957105610508940895E894BB276627FD
:1048A0007727CB0197F908950E949624A59F900D34
:1048B000B49F900DA49F800D911D112408952F92F7
:1048C0003F924F925F926F927F928F929F92AF92A0
:1048D000BF92CF92DF92EF92FF920F931F93CF93ED
:1048E000DF93CDB7DEB7CA1BDB0B0FB6F894DEBF84
:1048F0000FBECDBF09942A88398848885F846E84AA
:104900007D848C849B84AA84B984C884DF80EE80F3
:10491000FD800C811B81AA81B981CE0FD11D0FB6FC
:10492000F894DEBF0FBECDBFED010895A29FB00188
:10493000B39FC001A39F700D811D1124911DB29FD3
:10494000700D811D1124911D08950E94AC2468945E
:10495000B1110C944E2408950E94332488F09F577F
:1049600098F0B92F9927B751B0F0E1F0660F771F93
:10497000881F991F1AF0BA95C9F714C0B13091F089
:104980000E944D24B1E008950C944D24672F782F98
:104990008827B85F39F0B93FCCF38695779567954E
:1049A000B395D9F73EF490958095709561957F4FBA
:1049B0008F4F9F4F0895991B79E004C0991F961758
:1049C00008F0961B881F7A95C9F780950895AA1B51
:1049D000BB1B51E107C0AA1FBB1FA617B70710F0EA
:1049E000A61BB70B881F991F5A95A9F7809590951C
:1049F000BC01CD01089597FB072E16F4009407D053
:104A000077FD09D00E94E72407FC05D03EF490957D
:104A100081959F4F0895709561957F4F0895A1E20C
:104A20001A2EAA1BBB1BFD010DC0AA1FBB1FEE1F28
:104A3000FF1FA217B307E407F50720F0A21BB30B73
:104A4000E40BF50B661F771F881F991F1A9469F7EF
:104A500060957095809590959B01AC01BD01CF014B
:104A60000895EE0FFF1F0590F491E02D09940F9328
:104A70001F93CF93DF938230910510F482E090E092
:104A8000E091F206F091F30620E030E0A0E0B0E023
:104A9000309719F1408151810281138148175907DC
:104AA000C8F08417950769F4109731F012960C93AB
:104AB000129713961C9327C00093F2061093F306E7
:104AC00022C02115310519F04217530718F49A0135
:104AD000BD01EF01DF01F801DBCF21153105F9F050
:104AE000281B390B2430310580F48A819B816115A4
:104AF000710521F0FB019383828304C09093F30638
:104B00008093F206FE01329644C0FE01E20FF31FCD
:104B10008193919322503109398328833AC020919F
:104B2000F0063091F106232B41F420910A013091D7
:104B30000B013093F1062093F0062091080130918B
:104B400009012115310541F42DB73EB740910C0103
:104B500050910D01241B350BE091F006F091F10608
:104B6000E217F307A0F42E1B3F0B2817390778F044
:104B7000AC014E5F5F4F2417350748F04E0F5F1FA3
:104B80005093F1064093F0068193919302C0E0E0C8
:104B9000F0E0CF01DF91CF911F910F910895CF9356
:104BA000DF93009709F481C0FC01329713821282CF
:104BB000A091F206B091F306109781F42081318123
:104BC000820F931F2091F0063091F10628173907C4
:104BD00051F5F093F106E093F00667C0ED0120E097
:104BE00030E0CE17DF0740F44A815B819E0141151A
:104BF0005105F1F0EA01F5CFD383C28340815181A1
:104C0000840F951FC817D90759F488819981840F9B
:104C1000951F0296918380838A819B8193838283EF
:104C20002115310529F4F093F306E093F2063DC017
:104C3000E901FB83EA8349915991C40FD51FEC1711
:104C4000FD0761F480819181840F951F0296E9012F
:104C500099838883828193819B838A83E0E0F0E05B
:104C600012968D919C911397009719F0FD01DC012C
:104C7000F7CF8D919C9111979D012E5F3F4F820F31
:104C8000931F2091F0063091F1062817390769F437
:104C9000309729F41092F3061092F20602C01382A4
:104CA0001282B093F106A093F006DF91CF910895A0
:104CB00081E090E0F8940C943729FB01DC0104C0FA
:104CC0008D910190801921F441505040C8F7881B04
:104CD000990B0895FC018191861721F08823D9F75B
:104CE000992708953197CF010895FB01DC014150C8
:104CF000504048F001900D920020C9F701C01D926C
:104D000041505040E0F70895AEE0B0E0EAE8F6E246
:104D10000C946D240D891E8986E08C831A83098387
:104D20008FEF9FE79E838D83AE01475E5F4F6F8954
:104D3000788DCE0101960E94A626EF81F885E00FBE
:104D4000F11F10822E96E4E00C948924ABE0B0E0D1
:104D5000ECEAF6E20C945F246C017B018A01FC0111
:104D600017821682838181FFCCC1CE0101963C015E
:104D7000F6019381F70193FD859193FF81917F0166
:104D8000882309F4BAC1853239F493FD859193FFE4
:104D900081917F01853229F4B60190E00E949D281F
:104DA000E7CF912C212C312CFFE1F315D8F08B3279
:104DB00079F038F4803279F08332A1F4232D206128
:104DC0001DC08D3261F0803369F4232D216016C03F
:104DD000832D8260382EE32DE4603E2E2AC0F32D11
:104DE000F8601DC037FC2DC020ED280F2A3040F0A0
:104DF0008E32B9F436FC81C1232D2064322E19C0C5
:104E000036FE06C08AE0989E200D1124922E11C015
:104E1000EAE02E9E200D1124222EF32DF0623F2E6B
:104E200008C08C3621F4832D8068382E02C0883665
:104E300041F4F70193FD859193FF81917F018111E9
:104E4000B3CF982F9F7D9554933028F40C5F1F4F5C
:104E50009FE399830DC0833631F0833771F083353A
:104E600009F059C021C0F801808189830E5F1F4F6E
:104E700088248394912C530113C02801F2E04F0E33
:104E8000511CF801A080B18036FE03C0692D70E08E
:104E900002C06FEF7FEFC5010E9492284C01820192
:104EA000F32DFF773F2E16C0280122E0420E511C41
:104EB000F801A080B18036FE03C0692D70E002C009
:104EC0006FEF7FEFC5010E9487284C01F32DF0683A
:104ED0003F2E820133FC1BC0822D90E0881699067C
:104EE000B0F4B60180E290E00E949D282A94F4CFAD
:104EF000F50137FC859137FE81915F01B60190E0A5
:104F00000E949D2821102A9421E0821A9108811480
:104F1000910471F7E8C0843611F0893641F5F80143
:104F200037FE07C060817181828193810C5F1F4FC2
:104F300008C060817181072E000C880B990B0E5FF1
:104F40001F4FF32DFF763F2E97FF09C09095809558
:104F5000709561957F4F8F4F9F4FF0683F2E2AE0ED
:104F600030E0A3010E94D928882E861845C08537D5
:104F700031F4232D2F7EB22E2AE030E025C0932D70
:104F8000997FB92E8F36C1F018F4883579F0B5C005
:104F9000803719F0883721F0B0C0E92FE061BE2ECC
:104FA000B4FE0DC0FB2DF460BF2E09C034FE0AC054
:104FB000292F2660B22E06C028E030E005C020E18F
:104FC00030E002C020E132E0F801B7FE07C06081A6
:104FD0007181828193810C5F1F4F06C06081718156
:104FE00080E090E00E5F1F4FA3010E94D928882E19
:104FF0008618FB2DFF773F2E36FE0DC0232D2E7F0A
:10500000A22E891458F434FE0BC032FC09C0832D43
:105010008E7EA82E05C0B82CA32C03C0B82C01C0CE
:10502000B92CA4FE0FC0FE01E80DF11D8081803374
:1050300021F49A2D997EA92E09C0A2FE06C0B39430
:10504000B39404C08A2D867809F0B394A3FC11C0F0
:10505000A0FE06C0B21488F4280C922C9B180EC037
:10506000B21460F4B60180E290E00E949D28B394EF
:10507000F7CFB21418F42B1802C0982C212CA4FEE0
:1050800010C0B60180E390E00E949D28A2FE17C0E8
:10509000A1FC03C088E790E002C088E590E0B6017B
:1050A0000CC08A2D867859F0A1FE02C08BE201C0A7
:1050B00080E2A7FC8DE2B60190E00E949D28891451
:1050C00038F4B60180E390E00E949D289A94F7CFCF
:1050D0008A94F301E80DF11D8081B60190E00E94F1
:1050E0009D288110F5CF222009F442CEB60180E23E
:1050F00090E00E949D282A94F6CFF6018681978140
:1051000002C08FEF9FEF2B96E2E10C947B24FC0111
:105110000590615070400110D8F7809590958E0FE2
:105120009F1F0895FC016150704001900110D8F755
:10513000809590958E0F9F1F08950F931F93CF9387
:10514000DF93FB01238121FD03C08FEF9FEF2CC074
:1051500022FF16C0468157812481358142175307AB
:1051600044F4A081B1819D012F5F3F4F31832083A3
:105170008C93268137812F5F3F4F3783268314C05E
:105180008B01EC01FB010084F185E02D0995892B51
:10519000E1F6D80116968D919C9117970196179676
:1051A0009C938E931697CE01DF91CF911F910F9113
:1051B0000895FA01AA27283051F1203181F1E894AD
:1051C0006F936E7F6E5F7F4F8F4F9F4FAF4FB1E0FA
:1051D0003ED0B4E03CD0670F781F891F9A1FA11DF5
:1051E000680F791F8A1F911DA11D6A0F711D811DF6
:1051F000911DA11D20D009F468943F912AE0269FBB
:1052000011243019305D3193DEF6CF010895462F19
:105210004770405D4193B3E00FD0C9F7F6CF462FFA
:105220004F70405D4A3318F0495D31FD4052419363
:1052300002D0A9F7EACFB4E0A69597958795779520
:105240006795BA95C9F700976105710508959B01A7
:10525000AC010A2E06945795479537952795BA9530
:10526000C9F7620F731F841F951FA01D0895F8943E
:02527000FFCF6E
:10527200D611D611FFFFFFFF0000F40680002C2C90
:105282000000000000000000000000007950500003
:105292003F065B4F666D7D077F6F777C395E797164
:1052A20000000000BB006C07D2002A019A00C2086D
:1052B200CC08000000006A12D7110112B712321294
:1052C200101224120000000070134313D2001713AF
:1052D2003B132713181300000000A113D711D200AB
:1052E200D100000000009F13D711D200D100312E4F
:1052F2003630005374617274696E67202876657265
:1053020073696F6E202573292E2E2E0A00496E694D
:105312007469616C697A6174696F6E20444F4E459D
:105322002E000D0A002C25642C256400256C642CAB
:10533200253034642F253032642F253032642C25F9
:105342003032643A253032643A253032642C256496
:105352002C25642C25642C256425732C2530325889
:10536200202530325820253032582025303258201E
:10537200253032580A00256C642C253034642F25E0
:105382003032642F253032642C253032643A253095
:1053920032643A253032642C25642C25640A0025B7
:1053A200635F524547253033642E435356004669A6
:1053B2006C653A2000202800556E69782074696D6A
:1053C200652C446174652C54696D652C416C617265
:1053D2006D2C43757272656E7420492841290A004A
:1053E200556E69782074696D652C446174652C541E
:1053F200696D652C552D2C552B2C4B2D2C4B2B2CA4
:10540200522D2C522B2C4865782044756D700A0061
:105412004572726F722120556E6B6E6F776E206DC2
:085422006F6465210A002F00F0
:00000001FF
