:100000000C9470000C94A7120C9480120C9498001D
:100010000C9498000C9498000C9498000C94980000
:100020000C9498000C9498000C9498000C949800F0
:100030000C9498000C943B130C9498000C9498002A
:100040000C940A190C9498000C9409130C94E31264
:100050000C9498000C9498000C9498000C949800C0
:100060000C943C140C94980000000000240027001D
:100070002A0000000000250028002B0000000000DE
:1000800023002600290004040404040404040202DA
:100090000202020203030303030301020408102007
:1000A0004080010204081020010204081020000012
:1000B0000008000201000003040700000000000027
:1000C00000007C3C3E5E2B3D3F2F5B5D3B2C2A229B
:1000D0005C001F1C1F1E1F1E1F1F1E1F1E1F302205
:1000E00011241FBECFEFD8E0DEBFCDBF26E0A8E6CB
:1000F000B2E001C01D92A039B207E1F712E0A0E022
:10010000B1E0E0E1F1E502C005900D92A836B1073B
:10011000D9F710E0C0E7D0E004C02197FE010E94AB
:100120008024CF36D107C9F70E9454190C94862831
:100130000C940000DC015996ED91FC915A97309790
:10014000B9F083899489A589B689428553856485E8
:100150007585841B950BA60BB70B811520E89207BC
:10016000A105B10538F08FEF9FE7A0E0B0E008955A
:1001700080E090E00895CF93DF931F92CDB7DEB774
:100180006983DC01ED91FC910280F381E02D41E077
:1001900050E0BE016F5F7F4F09950F90DF91CF91C7
:1001A0000895089580E090E0089581E080937A02B8
:1001B0009091790289278093790208950F931F9374
:1001C000CF93DF93FC012581222309F446C02481CB
:1001D00027FF3DC08C01668577858089918941E044
:1001E0000E94A5158823C9F1F801C289F0E2CF9FCA
:1001F000E0011124C453DD4F209779F1F801858186
:10020000823040F483899489A589B6898C8F9D8F2B
:10021000AE8FBF8FF8018789908DA18DB28D9B8F96
:100220008A8FBD8BAC8BE0917002F0917102309798
:1002300051F0BE016A5E7F4FCE0148960995888DC8
:10024000998D9B8B8A8BF80194819F779483DF91A2
:10025000CF911F910F910C946A1580E0DF91CF919F
:100260001F910F910895FC01818D928D009711F0DF
:100270000C94DE000895CF93C1E0C093730282E036
:100280000E94AF0E892BB1F080917402909175029B
:10029000A0917602B09177020196A11DB11D8093C5
:1002A000740290937502A0937602B0937702C09384
:1002B000720202C010927202CF9108958F929F92A3
:1002C000AF92BF92CF92DF92EF92FF920F931F9364
:1002D000CF93DF93EC018D81811102C080E078C063
:1002E0000B891C892D893E890417150726073707B6
:1002F000A8F36A017B01823029F4CA86DB86EC868A
:10030000FD860DC0C114D104E104F10451F41E8234
:100310001F82188619861A861B861C861D8681E018
:1003200057C08A849B84AC84BD84EB8DFC8D25856D
:1003300030E0275F3F4FB501A401415051096109E9
:100340007109022E04C076956795579547950A94D2
:10035000D2F7D701C6010197A109B10904C0B6952A
:10036000A795979587952A95D2F784179507A6079D
:10037000B70720F089288A288B2871F44F89588D77
:10038000698D7A8D4E835F83688779874C015D0123
:100390008E010A5F1F4F16C0841B950BA60BB70B6F
:1003A000F5CF4E815F816885798598018B8D9C8D15
:1003B0000E948F1691E0891A9108A108B10888233C
:1003C00009F48CCF81149104A104B10451F795CFA5
:1003D000DF91CF911F910F91FF90EF90DF90CF9021
:1003E000BF90AF909F908F9008958F929F92AF9201
:1003F000BF92CF92DF92EF92FF920F931F93CF9312
:10040000DF9300D000D0CDB7DEB77C0180E2689FDB
:10041000F0011124E453FD4F9385917121F0842F55
:10042000827409F08FC0142FD70152966C935297A3
:1004300040910401509105016091060170910701FE
:100440001E964D935D936D937C9351974489558986
:1004500060E070E0BA0155274427828D938DA0E0BB
:10046000B0E0482B592B6A2B7B2BD70157964D9325
:100470005D936D937C935A978385887159F4848D2D
:10048000958DA68DB78DF701838B948BA58BB68B3D
:1004900081E012C0803109F055C097012D5E3F4FB9
:1004A000D7015B968D919C915C970E946E0B88237F
:1004B00009F448C084E0F7018583812F8F70D7014C
:1004C00014968C931497F701168217821086118662
:1004D0001A961D921D921D921C921D9716FF34C0F4
:1004E00015968C91813071F511FF2CC0F70143896D
:1004F000548965897689452B462B472B09F461C0C1
:1005000040E050E0BA01C7010E945E018823D1F0AB
:10051000F7018788908CA18CB28CC38CD48C82E03C
:1005200090E0A0E0B0E0F60180839183A283B383E2
:100530009E012F5F3F4FB501A401C6010E948F1697
:10054000811104C080E03DC081E03BC000E010E0CC
:100550009801B501A401C6010E94EE15882391F30C
:1005600089809A80AB80BC80D60157968C9180316F
:1005700029F088EF9FEFAFEFBFE004C088EF9FEF57
:10058000A0E0B0E088169906AA06BB0688F2D7015B
:1005900057961D921D921D921C925A97F701138A2D
:1005A000148A158A168A848180688483C7010E9410
:1005B000DE00882339F240E050E0BA01C7010E9412
:1005C0005E010F900F900F900F90DF91CF911F91D0
:1005D0000F91FF90EF90DF90CF90BF90AF909F90E2
:1005E0008F900895CF93DF93EC010E94DE00882363
:1005F00011F01D8281E0DF91CF9108953F924F92DB
:100600005F926F927F928F929F92AF92BF92CF92A2
:10061000DF92EF92FF920F931F93CF93DF93CDB7AB
:10062000DEB72C970FB6F894DEBF0FBECDBF5C01CE
:10063000DC015B968D909C905C971696CD90DD903A
:10064000ED90FC901997C114D104E104F10439F044
:10065000BFEFCB1ADB0AEB0AFB0A312C07C0F4010F
:10066000C080D180E280F38033243394F40181850B
:100670009285A385B4859C01AD012F5F3F4F4F4FFD
:100680005F4F29873A874B875C87260137011D8298
:100690001E821F821886F40181859285A385B48508
:1006A0002D813E814F815885281739074A075B07FE
:1006B00008F063C089859A85AB85BC858C159D053E
:1006C000AE05BF0550F482E0C82ED12CE12CF12CF0
:1006D00092E0492E512C612C712C9E012F5F3F4FCF
:1006E000B701A601C4010E948F16882309F445C0F2
:1006F00089819A81AB81BC81892B8A2B8B2B41F01C
:10070000260137019FEF491A590A690A790A05C07B
:10071000C414D504E604F70491F02D813E814F8185
:1007200058852F5F3F4F4F4F5F4F2D833E834F8341
:1007300058873FEFC31AD30AE30AF30AACCF0FEF8F
:100740001FEF2FEF3FE0B301A201C4010E94EE159D
:10075000882399F0D50116964D915D916D917C910C
:100760001997411551056105710549F09301820101
:10077000C4010E94EE15811102C080E02AC0D5019B
:1007800016964D925D926D927C921997332051F09E
:10079000D301C2010196A11DB11DF4018083918393
:1007A000A283B383F5018789908DA18DB28D892BAA
:1007B0008A2B8B2B69F4D50157964D925D926D92E1
:1007C0007C925A9714968C911497806814968C9307
:1007D00081E02C960FB6F894DEBF0FBECDBFDF913F
:1007E000CF911F910F91FF90EF90DF90CF90BF902E
:1007F000AF909F908F907F906F905F904F903F90C1
:1008000008958FB7F8948091BD028FBF089561E07D
:10081000FC0184810E94D80E8091BC02811110924B
:10082000BC0208958EBD00000DB407FEFDCF8EB54D
:1008300008958FEF0C9412040F931F93CF93DF93BF
:10084000EB010E94FE188B010E9419048F3F49F0B2
:100850000E94FE18601B710B6C177D07A8F380E0E7
:1008600001C081E0DF91CF911F910F910895CF9347
:10087000DF93EC018E81882389F08F8198859C011C
:100880002F5F3F4F38872F838230924018F40E94A9
:100890001904F3CFCE010E9407041E82DF91CF918D
:1008A00008958CBD9DBD0895CF93DF93EC01809199
:1008B000BC02811109C081E08093BC028091E305F4
:1008C0009091E4050E94510460E08C81DF91CF910A
:1008D0000C94D80E8F929F92AF92BF92FF920F937B
:1008E0001F93CF93DF93EC01F62E49015A010E942A
:1008F0003704CE010E9454046CE271E0CE010E94E4
:100900001C048F2D80640E94120408E110E0D501C0
:10091000C401002E04C0B695A795979587950A94B3
:10092000D2F70E94120408501109083F8FEF1807F0
:1009300071F7FF2029F088E0F81204C087E803C0AF
:1009400085E901C08FEF0E94120410E00E94190493
:100950008A8787FF04C01F3F11F01F5FF7CFDF9129
:10096000CF911F910F91FF90BF90AF909F908F906C
:100970000895AF92BF92CF92DF92EF92FF920F93C2
:100980001F93CF93DF93EC016901C801820F931F7E
:100990008130924008F070C08E81882371F0888188
:1009A0009981AA81BB8184179507A607B70729F407
:1009B0008F819885C816D906B0F5488359836A8314
:1009C0007B838B85833039F089E0440F551F661F88
:1009D000771F8A95D1F79A01AB0161E1CE010E94A0
:1009E0006A04882319F083E08D8346C00E94FE18B4
:1009F0005B010E9419048A878F3F49F40E94FE1808
:100A00006A197B096D327140A0F38FE003C08E3FFD
:100A100031F08DE08D83CE010E9407042DC0188631
:100A20001F8281E08E838F8198858C159D0540F40F
:100A30000E9419048F819885019698878F83F3CF40
:100A40006701E00EF11EEC14FD0431F00E94190460
:100A5000F60181936F01F7CF8F819885080F191FD9
:100A600018870F838985882319F00115124048F0F3
:100A7000CE010E94370405C0CE010E94070480E029
:100A800001C081E0DF91CF911F910F91FF90EF9016
:100A9000DF90CF90BF90AF900895EF92FF920F93A9
:100AA0001F93CF93DF93EC01790141155105610547
:100AB000710511F482E13CC08B85833039F089E007
:100AC000440F551F661F771F8A95D1F79A01AB0116
:100AD00068E1CE010E946A04882311F084E028C0F6
:100AE0008EEF0E94120487018EEFF81AF8018191AF
:100AF0008F010E941204E016F106C1F78FEF0E94E9
:100B000012048FEF0E9412040E9419048A878F71C9
:100B1000853031F081E18D83CE010E94070409C048
:100B200068E572E0CE010E941C04811107C085E1D6
:100B30008D83CE010E94070480E014C020E030E0E5
:100B4000A9016DE0CE010E946A04811109C00E94D2
:100B50001904811105C0CE010E94070481E002C082
:100B600084E1E6CFDF91CF911F910F91FF90EF903D
:100B700008952F923F924F925F926F927F928F9241
:100B80009F92AF92BF92CF92DF92EF92FF920F931C
:100B90001F93CF93DF9300D000D0CDB7DEB78C0189
:100BA0006B011A01DC0115968C9115978130C9F4FF
:100BB00014968C9181FF15C082FF1DC0F8014389F6
:100BC00054896589768982859385A485B58584173E
:100BD0009507A607B70779F0C8010E945E01811149
:100BE0000AC081E090E0D80113969C938E931297EF
:100BF00080E090E048C1410183C05B968D919C915B
:100C00005C97FC0174802FEF270D2A013B0139E02E
:100C100076946794579447943A95D1F7722E74203E
:100C20007A01F1E0FF22772009F476C080E092E0BB
:100C30008E199F0954018815990508F45C01D801A3
:100C40005B962D913C915C9716968D919D910D90A0
:100C5000BC91A02D0297A109B109F901058404C036
:100C6000880F991FAA1FBB1F0A94D2F74685578584
:100C700060897189840F951FA61FB71F9C01AD0164
:100C8000270D311D411D511D29013A01A11432E0EA
:100C9000B30609F088C08091040190910501A091EC
:100CA0000601B0910701481659066A067B0659F4F9
:100CB0008FEF9FEFDC018093040190930501A093D7
:100CC0000601B09307019601B301A2018091CC0403
:100CD0009091CD040E944D05882309F482CF9EEFA8
:100CE000D91A8A189B08F80182859385A485B58551
:100CF0008A0D9B1DA11DB11D82879387A487B5878F
:100D0000D8011A964D915D916D917C911D9781143A
:100D1000910409F072CF87C0E114F10409F086CF85
:100D200016964D915D916D917C91199741155105E4
:100D30006105710559F457968D919D910D90BC9167
:100D4000A02D0097A105B10541F521C09E012F5F9F
:100D50003F4F0E948F16882309F44BCF89819A81D7
:100D6000AB81BC81F801238D348DF90127892031B5
:100D700029F048EF5FEF6FEF7FE004C048EF5FEFCF
:100D800060E070E084179507A607B70730F0C80148
:100D90000E94FE0281114ACF24CFF80186839783F7
:100DA000A087B18743CFE114F10429F5D8011A9641
:100DB0004D915D916D917C911D9753968D919D9173
:100DC0000D90BC91A02D481759076A077B0798F032
:100DD0000E946A15882309F404CF409204015092BE
:100DE0000501609206017092070180913B068160C7
:100DF00080933B0608C041E0C301B2010E94A515E3
:100E0000882309F4EECED601F701E453FD4F9F018C
:100E10002A0D3B1D2E173F0719F08D918193FACFB4
:100E2000CA0CDB1C5ECFD8015396CD90DD90ED90BF
:100E3000FC90569714968C91C416D506E606F706D4
:100E400040F4F801438B548B658B768B80688483E8
:100E50000DC02091700230917102232B39F02114C2
:100E6000310421F08068D80114968C93F8018481B4
:100E700083FD02C0C10107C0C8010E94DE008823B3
:100E800009F4AFCEF7CF0F900F900F900F90DF9136
:100E9000CF911F910F91FF90EF90DF90CF90BF9077
:100EA000AF909F908F907F906F905F904F903F900A
:100EB0002F900895CF93DF93EC01898D9A8D009741
:100EC00039F481E090E09B838A8380E090E00BC05E
:100ED000FC01138212820E94B905E98DFA8D2281EC
:100EE0003381232B71F7DF91CF910895FC01DB0152
:100EF00012968D919C911397938382838CE591E058
:100F00009183808314968C911497848315968C9189
:100F10001597858316964D915D916D917C911997EA
:100F200046835783608771871A964D915D916D91C5
:100F30007C911D9742875387648775871E964D91D4
:100F40005D916D917C91519746875787608B718B2E
:100F500052968C915297828B53964D915D916D91E3
:100F60007C915697438B548B658B768B57964D911E
:100F70005D916D917C915A97478B508F618F728FE5
:100F80005B968D919C915C97948F838F08954F927F
:100F90005F926F927F92AF92BF92CF92DF92EF9269
:100FA000FF920F931F93CF93DF931F92CDB7DEB7BE
:100FB000FC012581222309F4C1C0848180FFBEC0C9
:100FC00083899489A589B68942845384648475840D
:100FD00084159505A605B70509F4B0C06F01520147
:100FE000F1E0BF22D6015B968D919C915C97B30195
:100FF000A20139E076956795579547953A95D1F7CF
:10100000223071F4FC01828D938DA48DB58D8A01FF
:101010009B01080F191F2A1F3B1FC901B8014AC0B5
:10102000DC0114961C9111501423A114B104F9F49D
:1010300011111DC045284628472851F4F60187891B
:10104000908DA18DB28D86839783A087B1870FC0C5
:10105000D60116964D915D916D917C9119979601EF
:101060002A5F3F4F0E948F16882309F467C0F6015C
:10107000238D348D86819781A085B1850297A10942
:10108000B109AC01BD01F901058404C0440F551F2D
:10109000661F771F0A94D2F786859785A089B18944
:1010A000840F951FA61FB71FBC01CD01610F711DD5
:1010B000811D911DD60114962C9126FF0DC04090E4
:1010C00004015090050160900601709007014616DA
:1010D00057066806790699F440E00E94A515882312
:1010E00069F1F501E453FD4FDE0111969F012F5F79
:1010F0003F4F2E173F0799F081918D93FACFFE0154
:1011000031967F0101E010E09501AB01BC018091B7
:10111000CC049091CD040E94B904882379F0F601A3
:1011200082859385A485B5850196A11DB11D828711
:101130009387A487B587898190E002C08FEF9FEFE6
:101140000F90DF91CF911F910F91FF90EF90DF9063
:10115000CF90BF90AF907F906F905F904F90089529
:10116000FC01818D928D009711F00C94C7078FEFD1
:101170009FEF08950F931F93CF93DF93FC01818D11
:10118000928D0097B9F0EF010E94C7078C010F3FC5
:101190008FEF180791F0898D9A8DFC014285538558
:1011A0006485758541505109610971090E945E018C
:1011B000C80105C080E090E002C08FEF9FEFDF9193
:1011C000CF911F910F9108959F92AF92BF92CF92AE
:1011D000DF92EF92FF920F931F93CF93DF936C01F7
:1011E0005B01FC011082FB01108200E010E0C0E016
:1011F000D0E082E0E82EFF24F39493E0992E86E07D
:101200000E94AF0E811125C0219680916902813024
:1012100049F028F0823071F08330A9F01EC0F092BE
:1012200069021BC0C436D105C1F4F6018083E09287
:10123000690211C0C83EF3E0DF0779F4F601F082DD
:101240009092690208C0C83CD10539F4F601F082D9
:1012500002C010926902C0E0D0E085E00E94AF0EAB
:10126000811126C00F5F1F4F80916802813049F0C5
:1012700028F0823071F08330A9F01EC0F09268022D
:101280001BC004361105C1F4F5018083E0926802A9
:1012900011C0083EF3E01F0779F4F501F082909247
:1012A000680208C0083C110539F4F501F08202C05B
:1012B0001092680200E010E0F6018081811102C006
:1012C000209739F4F501808181110AC001151105BB
:1012D00039F061E070E080E090E00E946A108FCF0A
:1012E000DF91CF911F910F91FF90EF90DF90CF9002
:1012F000BF90AF909F900895CF93DF9300D000D020
:10130000CDB7DEB740910E0150910F0160911001F1
:101310007091110149835A836B837C83813069F01A
:1013200048F0823079F0833091F48FE48C8388EE3A
:1013300093E00FC08FE38C830AC086E08C838AEF32
:1013400090E007C08BE58C8384EF91E002C084E6D7
:1013500090E00FE06C01E12CF12C18E061E087E0F7
:101360000E94D80E0093300640E064E0CE01019662
:101370000E94B10FC701B6010E946A1060E087E0C9
:101380000E94D80E1093300640E064E0CE01019632
:101390000E94B10FC701B6010E946A10DFCF80938F
:1013A0007B02E1E8F0E01082109285001092840048
:1013B000809178028061808381E080937A028093BB
:1013C00079020895FC019081961728F0941718F47B
:1013D0009F5F908301C0608310928100109285000E
:1013E000109284008091780280618093810081E076
:1013F00080937A02809379020895EF92FF920F937F
:101400001F93CF93DF9300D000D000D0CDB7DEB7CD
:101410007C018B01409174025091750260917602BB
:1014200070917702CE0101960E94C413898190E0E9
:101430004496982F8827990F2A8140E2249F900193
:1014400011244B81242B822B932BF70191838083D2
:101450008D81F0E28F9F900111249C81892F90E073
:10146000982F8827990F990F990F822B932B2E81F4
:1014700030E035952795822B932BF801918380835B
:1014800026960FB6F894DEBF0FBECDBFDF91CF9189
:101490001F910F91FF90EF900895809131069091E8
:1014A00032068230910538F0880F991F880F991FF6
:1014B00005970197F1F70895833081F028F4813082
:1014C00099F08230A1F008958730A9F08830B9F002
:1014D0008430D1F4809180008F7D03C080918000A2
:1014E0008F7780938000089584B58F7702C084B58C
:1014F0008F7D84BD08958091B0008F7703C0809167
:10150000B0008F7D8093B0000895EF92FF920F930B
:101510001F93CF93DF93EC017B018A011B821A8218
:1015200088EE93E0A0E0B0E08C839D83AE83BF8320
:1015300086E291E0998388838DE190E00E94862481
:101540009A8F898F009779F02DE1F701DC010190E6
:101550000D922A95E1F74CE050E0B801CE010C96CF
:101560000E94C425188EDF91CF911F910F91FF909B
:10157000EF90089530913905313208F04BC08091D9
:1015800016058111FCCF90913A0622E020931605B2
:1015900021E0209315052FEF2093140510921305D9
:1015A00030931205E9E1F5E0A2EFB4E020E0321754
:1015B00021F041914D932F5FFACF1092F1042091C9
:1015C000F104990F922B9093F1049091F0049130D3
:1015D00061F41092F0049091F1049093BB0090910B
:1015E000BC0093FDF8CF95EC01C095EE9093BC0044
:1015F000909116059230E1F3909114059F3F79F098
:1016000080911405803241F080911405803331F0CF
:1016100084E005C081E003C082E001C083E0109255
:10162000180510923905109217050895682F87ED57
:1016300095E00C943E1291E09093170580933A0642
:101640001092180510923905089590911605911180
:10165000FCCF982F813208F090E281E0809316054C
:10166000809315052FEF2093140510921305290F71
:10167000209312058093F1048091F104806D809392
:10168000F1048091F004813061F41092F0048091B3
:10169000F1048093BB008091BC0083FDF8CF85EC02
:1016A00001C085EE8093BC00809116058130E1F386
:1016B00080911305891710F490911305E2EFF4E07F
:1016C000A0EDB4E080E0891721F021912D938F5F88
:1016D000FACF1092CF048093CE0408954F925F9278
:1016E0006F927F92AF92BF92CF92DF92EF92FF9272
:1016F0000F931F93CF93DF9300D000D0CDB7DEB709
:101700008C0149835A836B837C835901C12CD12C72
:101710007601412C82E0582E612C712C49815A812E
:101720006B817C819E012F5F3F4FC8010E948F1605
:10173000882351F1D301C201F801058404C0880F48
:10174000991FAA1FBB1F0A94D2F7C80ED91EEA1E02
:10175000FB1E49815A816B817C818789803129F008
:1017600088EF9FEFAFEFBFE004C088EF9FEFA0E0EE
:10177000B0E0481759076A077B0780F2F501C0827D
:10178000D182E282F38281E00F900F900F900F9050
:10179000DF91CF911F910F91FF90EF90DF90CF904D
:1017A000BF90AF907F906F905F904F900895CF93D0
:1017B000DF93FC012581222311F080E049C0EC0178
:1017C000809108068031C1F482E08583178A108EEB
:1017D000118E128E8091090690910A06A0E0B0E069
:1017E00025E0880F991FAA1FBB1F2A95D1F7838B6D
:1017F000948BA58BB68B19C08032F9F683E0858374
:1018000040910B0650910C0660910D0670910E06EA
:10181000478B508F618F728F9F012D5E3F4F81EFFD
:1018200095E00E946E0B882341F281EF95E09C8F3A
:101830008B8F81E08C831E821F82188619861A8600
:101840001B861C861D861E861F86188A198A1A8A80
:10185000DF91CF9108958F929F92AF92BF92CF92D6
:10186000DF92EF92FF92CF93DF93C82F85EE95E042
:101870009093CD048093CC04CC2369F1C53010F053
:1018800080E00CC140E060E070E0CB010E94A51553
:101890008823B1F320E1C29FC001112484549D4FDD
:1018A000FC01E254FE4F20812F7751F73C96408196
:1018B000518162817381443651056105710500F3E0
:1018C0003497C080D180E280F380C114D104E10458
:1018D000F10421F4D5CFC12CD12C760140E0C70111
:1018E000B6010E94A515882359F28091D7029091E4
:1018F000D8028115924021F6A091DC02AA2309F4B6
:10190000BFCF6091DA027091DB026115710509F4B5
:10191000B7CF2091D902222309F4B2CFA0930306B6
:101920002093F50580E030E041E050E0C82FFA0157
:10193000082E02C0EE0FFF1F0A94E2F72E173F0792
:1019400039F08F5FC83091F789E08093FE0598CF1A
:101950008093FE052091E2023091E30221153105CA
:1019600019F040E050E008C02091F0023091F102FF
:101970004091F2025091F3022093F6053093F7055F
:101980004093F8055093F90546015701860E971EBE
:10199000A11CB11C8092040690920506A092060636
:1019A000B0920706E091DD02F091DE02F0930A06A4
:1019B000E0930906B0E00E94A323860E971EA81E9E
:1019C000B91E80920B0690920C06A0920D06B09262
:1019D0000E0685E0EE0FFF1F8A95E1F7E150FE4FFE
:1019E000EF2FFF27E6958E0E9F1EA11CB11C809243
:1019F000FF0590920006A0920106B0920206209187
:101A0000DF023091E0022115310521F0A90160E0EB
:101A100070E008C04091EC025091ED026091EE023E
:101A20007091EF02D701C60188199909AA09BB096B
:101A3000840F951FA61FB71F04C0B695A79597954D
:101A40008795CA95D2F78093FA059093FB05A093EA
:101A5000FC05B093FD05853F2FE09207A105B10578
:101A600010F48CE018C0853F9F4FA105B10510F41C
:101A700080E111C08091F8029091F902A091FA02E0
:101A8000B091FB0280930B0690930C06A0930D0679
:101A9000B0930E0680E28093080681E0DF91CF913B
:101AA000FF90EF90DF90CF90BF90AF909F908F907E
:101AB0000895CF93DF93EC01898D9A8D009741F0C3
:101AC0000E94F202898D9A8D0E941E251A8E198E0F
:101AD000DF91CF9108952F923F924F925F926F9234
:101AE0007F928F929F92AF92BF92CF92DF92EF92AE
:101AF000FF920F931F93CF93DF93CDB7DEB7C456FA
:101B0000D1090FB6F894DEBF0FBECDBF5C0119A29C
:101B100018A28CE591E09F8F8E8F1BA21C821B82E6
:101B20009A8389831E824E018EE1880E911CC40126
:101B30000E94D70B8E010F5F1F4F24018EEBC82E22
:101B400082E0D82E18016FE270E0C6010E94B9252C
:101B5000009709F442C0F60120812F3221F4FFEFF3
:101B6000CF1ADF0AF0CF8C198D3008F08CE0E82E08
:101B7000F12CA701B601CE01885A9F4F0E94C425BF
:101B8000E8E5F0E0EC0FFD1FEE0DFF1D1082C8012F
:101B90000E94F202F8018581882351F01EAE1DAE2D
:101BA0008CE591E09CAF8BAF21961FAE21971EC0B4
:101BB00021E0AE01485A5F4FB201C8010E941217DE
:101BC000882361F3CE0CDF1CC2010E94F202942D27
:101BD000852D2801092F182FB6CFC6018E5B9240A4
:101BE0003C01B201CE01CB960E94760783010254DC
:101BF0001D4FF8018081811109C0BE01655C7F4FD6
:101C0000C1010E94760746E652E039C019A218A227
:101C10008CE591E09F8F8E8F1BA221968FAD21972F
:101C2000811113C0F5011382128288EE93E0A0E0C7
:101C3000B0E084839583A683B78386E291E09183A5
:101C40008083128E118E14861EC027E1A801BE016A
:101C5000655C7F4FC4010E941217882319F3CE01DF
:101C6000CB960E94F20249A95AA96BA97CA9C4018A
:101C70000E945E01B401C1010E947607A801B10172
:101C8000C5010E94850AC501CC59DF4F0FB6F894F3
:101C9000DEBF0FBECDBFDF91CF911F910F91FF909F
:101CA000EF90DF90CF90BF90AF909F908F907F90FC
:101CB0006F905F904F903F902F9008958F929F92DA
:101CC000AF92BF92EF92FF920F931F93CF93DF9348
:101CD0008B017C01C0E0D0E0C017D107A1F10E94C8
:101CE000FE186093420570934305809344059093DA
:101CF00045058AE395E00E94DE1097FF1FC00E9411
:101D0000FE188090420590904305A0904405B09045
:101D10004505DC01CB0188199909AA09BB09809006
:101D20003E0590903F05A0904005B0904105881574
:101D30009905AA05BB05E8F28E0105C0F70181935C
:101D40007F012196C9CFC801DF91CF911F910F91DB
:101D5000FF90EF90BF90AF909F908F900895CF939A
:101D6000DF93282F30E0F901E255FF4F8491F9010C
:101D7000E656FF4FD491F901EA57FF4FC491CC23A7
:101D800091F081110E945C0AEC2FF0E0EE0FFF1F32
:101D9000E458FF4FA591B491EC91ED2381E090E0E0
:101DA00021F480E002C080E090E0DF91CF910895BF
:101DB0001F93CF93DF93282F30E0F901E255FF4FB7
:101DC0008491F901E656FF4FD491F901EA57FF4F8C
:101DD000C491CC23C1F0162F81110E945C0AEC2F14
:101DE000F0E0EE0FFF1FEE58FF4FA591B4919FB7A3
:101DF000F894111104C08C91D095D82302C0EC91B5
:101E0000DE2BDC939FBFDF91CF911F910895CF937D
:101E1000DF9390E0FC01E656FF4F2491FC01EA5766
:101E2000FF4F8491882361F190E0880F991FFC0196
:101E3000E859FF4FC591D491FC01EE58FF4FA59191
:101E4000B491611109C09FB7F894888120958223CD
:101E50008883EC912E230BC0623061F49FB7F89415
:101E60008881322F309583238883EC912E2B2C93FD
:101E70009FBF06C08FB7F894E8812E2B28838FBFB1
:101E8000DF91CF910895CF93DF93CEE2D6E061E06A
:101E900089810E94070F0E944D0A60E088810E949C
:101EA000070F0E944D0A60E089810E94070FDF91B1
:101EB000CF910C944D0ACF93DF93D82FC8E061E007
:101EC00080912E060E94070F0E944D0AD0FF02C08B
:101ED00060E001C061E080912F060E94070F0E9420
:101EE0004D0A60E080912E060E94070F0E944D0A65
:101EF000D695C15021F761E080912E060E94070F10
:101F000060E080912F060E94070F0E944D0A60E05A
:101F100080912E060E94070F0E944D0A80912F0685
:101F20000E94AF0EC82F811105C061E080912F067D
:101F30000E94070F0E944D0A61E080912E060E94C8
:101F4000070F0E944D0A81E0C11101C080E0DF91BE
:101F5000CF91089561E080912F060E94070F0C94A5
:101F60004D0AFF920F931F93CF93DF93F82E092F03
:101F7000162FC42F0E94AA0F80E40E945B0F0E94BC
:101F8000430F0E94AA0F8C2F837080540E945B0F16
:101F9000CF2DD02FCE01810F911D8C01C017D107FD
:101FA00021F089910E945B0FF9CF0E94430F0E949C
:101FB000AA0F809130068F7080580E945B0FDF91CE
:101FC000CF911F910F91FF900C94430FCF93DF930C
:101FD00000D000D0CDB7DEB719821A821B821C82D6
:101FE00040E064E0CE0101960E94B10F0F900F9087
:101FF0000F900F90DF91CF9108958F929F92AF92A3
:10200000BF92CF92DF92EF92FF920F931F93CF93E5
:10201000DF9300D000D0CDB7DEB7D62EC42EBC01E2
:1020200097FF03C0719561957109FB01392F331F2B
:102030003327331F8E010F5F1F4F5801AC0CB11CAB
:1020400078018AE0882E912C40E40A151B05D1F016
:10205000CF01B4010E943624DC01BB27AE5EBE4F27
:102060009C91D5019E935D01811106C0309721F4AA
:10207000332311F04C9330E0CF01B4010E94362499
:10208000FB01E3CFD11016C0422F6C2DC8010E9476
:10209000B10F0F900F900F900F90DF91CF911F9184
:1020A0000F91FF90EF90DF90CF90BF90AF909F90F7
:1020B0008F900895AE014B5F5F4F8D2D8078F701B3
:1020C0009081892BD7018D937D01DD0C4A175B0729
:1020D000A1F7DACF8F929F92AF92BF92CF92DF9209
:1020E000EF92FF926B017C010E94D9184B015C01B9
:1020F000C114D104E104F104F1F00E94D918DC010B
:10210000CB0188199909AA09BB09883E9340A1050A
:10211000B10570F321E0C21AD108E108F10888EE98
:10212000880E83E0981EA11CB11CC114D104E104E7
:10213000F10419F7DDCFFF90EF90DF90CF90BF90C3
:10214000AF909F908F9008950895CF92DF92EF9275
:10215000FF920F931F93CF93DF936C017A018B0152
:10216000C0E0D0E0CE15DF0581F0D8016D918D0182
:10217000D601ED91FC910190F081E02DC601099509
:10218000892B11F02196EECF7E01C701DF91CF910F
:102190001F910F91FF90EF90DF90CF900895FC0179
:1021A000538D448D252F30E0842F90E0821B930BBC
:1021B000541710F0CF96089501970895FC01918D62
:1021C000828D981761F0828DDF01A80FB11D5D9699
:1021D0008C91928D9F5F9F73928F90E008958FEF07
:1021E0009FEF0895FC01918D828D981731F0828DBB
:1021F000E80FF11D858D90E008958FEF9FEF089512
:10220000FC01918D228D892F90E0805C9F4F821B75
:1022100091098F73992708958AE395E00E94001130
:1022200021E0892B09F420E0822F0895FC01848DA0
:10223000DF01A80FB11DA35ABF4F2C91848D90E0F0
:1022400001968F739927848FA689B7892C93A089CB
:10225000B1898C91837080648C93938D848D981355
:1022600006C00288F389E02D80818F7D80830895E8
:10227000EF92FF920F931F93CF93DF93EC0181E0D6
:10228000888F9B8D8C8D981305C0E889F989808192
:1022900085FD26C0F62E0B8D10E00F5F1F4F0F73CC
:1022A0001127E02E8C8DE8120CC00FB607FCFACF78
:1022B000E889F989808185FFF5CFCE010E9416114A
:1022C000F1CF8B8DFE01E80FF11DE35AFF4FF08235
:1022D0009FB7F8940B8FEA89FB89808180620AC0DE
:1022E0009FB7F894EE89FF896083E889F989808136
:1022F0008370806480839FBF81E090E0DF91CF9105
:102300001F910F91FF90EF900895CF93DF93EC0111
:10231000888D8823C9F0EA89FB89808185FD05C005
:10232000A889B9898C9186FD0FC00FB607FCF5CF3F
:10233000808185FFF2CFA889B9898C9185FFEDCF87
:10234000CE010E941611E7CFDF91CF91089580E072
:1023500090E0892B29F00E940C1181110C9400004F
:10236000089585ED8093BC008091BC0084FDFCCF76
:1023700010921605089540916006262F30E0240F34
:10238000311D21323105DCF4209116052430C9F4C9
:10239000FC0180E090E0861758F4309160062191AE
:1023A000DC01A05CB94FA30FB11D2C930196F3CFB4
:1023B00080916006680F6093600680E0089581E078
:1023C000089582E00895089508950895E091CF0456
:1023D0008091CE04E81730F4F0E0E053FB4F8081A9
:1023E00090E008958FEF9FEF08959091CF04809132
:1023F000CE04981750F4E92FF0E0E053FB4F208112
:1024000030E09F5F9093CF0402C02FEF3FEFC901F0
:1024100008958091CE0490E02091CF04821B910911
:102420000895CF92DF92EF92FF920F931F93CF9375
:10243000DF937C01CB018A0120911705222389F0CB
:10244000EB016B01C40ED51ECC15DD0569F0699159
:10245000D701ED91FC910190F081E02DC701099524
:10246000F3CF642F0E94BB11C801DF91CF911F9160
:102470000F91FF90EF90DF90CF900895CF93DF936F
:102480001F92CDB7DEB76983209117052223D1F0C3
:1024900020913905203240F021E030E0FC01338307
:1024A000228380E090E015C080911805E82FF0E0CD
:1024B000E75EFA4F998190838F5F80931805809330
:1024C000390505C061E0CE0101960E94BB1181E093
:1024D00090E00F90DF91CF9108950E94A725CF93B0
:1024E000DF931F92CDB7DEB7698341E050E0BE01B4
:1024F0006F5F7F4F0E94B9050F90DF91CF910895D4
:102500001F920F920FB60F9211242F933F934F9368
:102510005F936F937F938F939F93AF93BF93EF934B
:10252000FF93E0910201F09103010995FF91EF9172
:10253000BF91AF919F918F917F916F915F914F91DB
:102540003F912F910F900FBE0F901F9018951F92E3
:102550000F920FB60F9211242F933F934F935F93D7
:102560006F937F938F939F93AF93BF93EF93FF935B
:10257000E0910001F09101010995FF91EF91BF9168
:10258000AF919F918F917F916F915F914F913F910B
:102590002F910F900FBE0F901F9018956115710528
:1025A00079F0FB0101900020E9F73197AF01461B5C
:1025B000570BDC01ED91FC910280F381E02D099431
:1025C00080E090E008951F920F920FB60F921124B1
:1025D0002F933F934F935F936F937F938F939F932B
:1025E000AF93BF93EF93FF938AE395E00E94161198
:1025F000FF91EF91BF91AF919F918F917F916F91DB
:102600005F914F913F912F910F900FBE0F901F90B0
:1026100018951F920F920FB60F9211242F938F933C
:102620009F93EF93FF93E0914A05F0914B058081D2
:10263000E0915005F091510582FD12C0908180918A
:1026400053058F5F8F7320915405821751F0E091ED
:102650005305F0E0E65CFA4F958F8093530501C077
:102660008081FF91EF919F918F912F910F900FBEDD
:102670000F901F9018951F920F920FB60F92112472
:102680002F933F934F935F936F937F938F939F937A
:10269000AF93BF93EF93FF93E0916A02F0916B02C7
:1026A0000995FF91EF91BF91AF919F918F917F918C
:1026B0006F915F914F913F912F910F900FBE0F90AF
:1026C0001F901895EF92FF920F931F93CF93DF9374
:1026D000EC0169813881432F50E08A8190E0E2ED7E
:1026E000F0E021E0261730F47491870F911D2F5FE1
:1026F0003196F8CF633018F0337009F401966DE627
:1027000071E0469F9001479F300D569F300D112478
:10271000215031094D5F5F4F569547955695479526
:10272000240F351F280F391FA8E1B0E00E94E523D0
:102730002B817B018C01E20EF11C011D111DA801F2
:102740009701ACE3B0E00E94A3232C817B018C01B4
:10275000E20EF11C011D111DA80197010E94A32387
:102760002D81DC01CB01820F911DA11DB11DBC018A
:10277000CD0160587C4B8249974CDF91CF911F91DE
:102780000F91FF90EF9008958F929F92AF92BF921A
:10279000CF92DF92EF92FF92CF93DF93EC016A0129
:1027A0007B0180E8C81A83E4D80A8DE6E80A88E34A
:1027B000F80A8CE3882E912CA12CB12CC701B6010C
:1027C000A50194010E945E246D83CA01B901A5018F
:1027D00094010E945E246C83C701B60120E13EE0B3
:1027E00040E050E00E945E24CA01B90128E130E0D7
:1027F00040E050E00E945E246B83C701B60120E8F0
:1028000031E541E050E00E945E2418824881542F57
:10281000537081E009F080E090E0BC0163597E4F85
:102820002617370738F0281B390B2D5631404F5FDC
:102830004883ECCF81E089838981E82FF0E0EF5273
:10284000FF4FE491511103C0823009F4EF5FF0E0D3
:102850002E173F0720F02E1B3F0B8F5FECCF2F5F13
:102860002A83DF91CF91FF90EF90DF90CF90BF90C0
:10287000AF909F908F9008951F920F920FB60F9276
:1028800011242F933F934F935F936F937F938F9375
:102890009F93AF93BF93EF93FF938091B900887F8D
:1028A000803609F49CC068F5883209F45BC090F466
:1028B000803109F454C038F4882309F4F6C0883014
:1028C00009F44DC0F6C0883109F44CC0803209F4D7
:1028D0005DC0EFC0803409F468C048F4803309F467
:1028E00055C0883309F0E5C080931405D8C0803501
:1028F00009F44FC0883509F45DC0883409F0D9C0A7
:10290000D6C0883909F4C7C0A8F4883709F467C06D
:1029100038F4883609F463C0803709F460C0C9C050
:10292000883809F4B8C0803909F45FC0803809F0EC
:10293000C0C05BC0803B09F486C038F4803A09F41B
:1029400066C0883A09F47FC0B4C0803C09F4A7C0CF
:10295000883C09F4A4C0883B09F48AC0AAC08091CD
:10296000F10410C09091130580911205981770F52D
:10297000E091130581E08E0F80931305F0E0EE5097
:10298000FB4F80818093BB0085EC86C0809314054B
:102990008EC0E091130581E08E0F80931305809126
:1029A000BB00F0E0EE50FB4F8083909113058091C7
:1029B00012056EC0E091130581E08E0F8093130520
:1029C0008091BB00F0E0EE50FB4F808380911505B5
:1029D00081116DC081E08093F00484EA61C083E0DE
:1029E0008093160510928206CFCF809182068032A6
:1029F00008F051C0E091820681E08E0F809382063C
:102A00008091BB00F0E0EE59F94F8083BDCF85EC9B
:102A10008093BC001092160580918206803230F4BB
:102A2000E0918206F0E0EE59F94F10826091820643
:102A300070E0E0916C02F0916D0282E696E00995FB
:102A40001092820636C084E08093160510926106CB
:102A500010926006E0916E02F0916F0209958091EC
:102A60006006811105C081E08093600610924006E7
:102A7000E091610681E08E0F80936106F0E0E05CFA
:102A8000F94F80818093BB00909161068091600630
:102A9000981708F479CF85E88093BC000AC085ECCC
:102AA0008093BC001092160504C0109214050E9479
:102AB000B111FF91EF91BF91AF919F918F917F9154
:102AC0006F915F914F913F912F910F900FBE0F909B
:102AD0001F90189580913B068823A9F1409104012D
:102AE0005091050160910601709107012CEC32E0D4
:102AF0008091CC049091CD040E944D05811102C0BB
:102B000080E0089540913C0650913D0660913E065C
:102B100070913F06411551056105710591F02CEC4E
:102B200032E08091CC049091CD040E944D05882321
:102B300039F310923C0610923D0610923E06109218
:102B40003F0610923B0681E008958F929F92AF92CC
:102B5000BF92EF92FF920F931F93CF934B015C01B3
:102B6000C42F8091040190910501A0910601B091BC
:102B7000070188159905AA05BB0501F10E946A1590
:102B8000811102C080E020C08CECE82E82E0F82E9B
:102B900000E012E020E030E0B501A4018091CC0417
:102BA0009091CD040E94B904882361F380920401BE
:102BB00090920501A0920601B092070180913B0618
:102BC000C82BC0933B0681E0CF911F910F91FF90DE
:102BD000EF90BF90AF909F908F9008954F925F922B
:102BE0006F927F928F929F92AF92BF92CF92DF921D
:102BF000EF92FF920F931F93CF93DF93EC0142303C
:102C000051056105710510F480E078C089859A85C9
:102C1000AB85BC850196A11DB11D84179507A6073C
:102C2000B70790F3CB88DC88ED88FE888F898031E8
:102C300029F4BB27A72F962F852F09C0DB01CA01D6
:102C4000E7E0B695A79597958795EA95D1F748015E
:102C500059012A013B01C80ED91EEA1EFB1E8091B4
:102C6000040190910501A0910601B0910701C816D9
:102C7000D906EA06FB0681F48F898031A9F4B301F5
:102C8000A201552766277727440F551FFA01E45301
:102C9000FD4F9182808219C040E0C701B6010E94B9
:102CA000A5158111E9CFB0CFB301A2014F77552708
:102CB00066277727440F551F440F551FFA01E45329
:102CC000FD4F80829182A282B38280913B06816017
:102CD00080933B068A89823080F08D819E81AF810E
:102CE000B885C80ED91EEA1EFB1EC0923C06D092C3
:102CF0003D06E0923E06F0923F0681E0DF91CF91E3
:102D00001F910F91FF90EF90DF90CF90BF90AF9009
:102D10009F908F907F906F905F904F9008958F92CB
:102D20009F92AF92BF92CF92DF92EF92FF920F935A
:102D30001F93CF93DF93FC0181859285A385B48592
:102D40000196A11DB11D84179507A607B70710F4BA
:102D500080E05BC083889488A588B68887898031A5
:102D600029F4BB27A72F962F852F09C0DB01CA01A5
:102D7000C7E0B695A79597958795CA95D1F7E901CC
:102D80006A017B018F01BC01CD01680D791D8A1D8F
:102D90009B1D8090040190900501A0900601B090C9
:102DA0000701681579058A059B0591F4F801878963
:102DB0008031A1F4DD24EE24FF24C601880F991F81
:102DC000FC01E453FD4F80819181A0E0B0E018C088
:102DD00040E00E94A5158111E9CFBACFE894C7F869
:102DE000DD24EE24FF24C601880F991F880F991F48
:102DF000FC01E453FD4F80819181A281B381BF70BA
:102E000088839983AA83BB8381E0DF91CF911F914F
:102E10000F91FF90EF90DF90CF90BF90AF909F9079
:102E20008F9008952F923F924F925F926F927F9270
:102E30008F929F92AF92BF92CF92DF92EF92FF92CA
:102E40000F931F93CF93DF93CDB7DEB72B970FB6BA
:102E5000F894DEBF0FBECDBF7C01FE013196CE01DE
:102E60000C966F0130E23193E817F907E1F7DA01C8
:102E700030E087E09D91992331F19E3231F48A3020
:102E800009F479C138E08AE0F5CFE2ECF0E0449152
:102E9000442321F031969413FACF6DC1831708F4BF
:102EA0006AC14FED490F4E3508F065C141E0430F4F
:102EB000F601E30FF11D3FE9390F3A3108F4905262
:102EC0009083342FD7CF8981803209F454C1322EB8
:102ED0008B01DB015B968D919C915C97F701948F40
:102EE000838F16961D921D921D921C921997FB01BD
:102EF0001286138614861586B12CF8018285938577
:102F0000A485B58543895489658976898417950791
:102F1000A607B70708F05BC025E0B695A79597957B
:102F200087952A95D1F7F82FFF70AF2ED801159607
:102F30008C91823008F41FC1C8010E94C70797FD19
:102F40001AC1F80182859385A485B5854F96A11D88
:102F5000B11D82879387A487B587F0E2AF9EB00149
:102F6000112464537D4F6115710509F404C1DB011F
:102F70008C91882319F0853EC1F4FFC0B1100EC0BA
:102F8000F701A28A8091040190910501A0910601A8
:102F9000B091070186879787A08BB18BDB018C915D
:102FA000882399F0BB24B394A8CF4BE050E0C6012E
:102FB0000E94AC25892B09F0A0CF832D807380332C
:102FC00009F4D9C0432D6A2DD2C0BB24B394832DFC
:102FD0008271823109F0CFC0BB20C9F0F70166854C
:102FE00077858089918941E00E94A515882309F49D
:102FF000C2C0D70152960C91B0E20B9F8001112400
:1030000004531D4F0115110509F078C0B4C0F80133
:103010008581823009F4AFC0C8010E94FE02882376
:1030200009F4A9C0D8015B96ED91FC915C971696C6
:103030008D909D90AD90BC901997B2E08B1A91083D
:10304000A108B108058404C0880C991CAA1CBB1CEB
:103050000A94D2F786859785A089B189880E991E32
:10306000AA1EBB1E2480E1E08E1A9108A108B108B7
:10307000222009F124013501420C511C611C711CF4
:103080000E946A15882309F476C0ECECF2E01192F4
:1030900024E0EC3CF207D9F740920401509205017C
:1030A000609206017092070180913B0681608093D7
:1030B0003B062A94DDCFD8015B96ED91FC915C979D
:1030C00080E092E0A0E0B0E0058404C0880F991F82
:1030D000AA1FBB1F0A94D2F7F80143895489658956
:1030E0007689840F951FA61FB71F838B948BA58BA2
:1030F000B68BD70152961C920CEC12E080E2F801DC
:1031000011928A95E9F78BE0F601D80101900D92B2
:103110008A95E1F7E0917002F0917102309739F0F1
:10312000B801625F7F4FC801409609950DC081E2EA
:1031300098E2D80151969C938E93509780E098E046
:103140001F969C938E931E97F80180899189938B8B
:10315000828B918F808F86859785978B868B0E9437
:103160006A15882341F0432DD70152966C91C7010F
:103170000E94F50105C080E003C0B11013CF00CF5D
:103180002B960FB6F894DEBF0FBECDBFDF91CF9167
:103190001F910F91FF90EF90DF90CF90BF90AF9075
:1031A0009F908F907F906F905F904F903F902F9067
:1031B00008953FB7F8948091880690918906A09170
:1031C0008A06B0918B0626B5A89B05C02F3F19F043
:1031D0000196A11DB11D3FBFBA2FA92F982F882797
:1031E000820F911DA11DB11DBC01CD0142E0660FF2
:1031F000771F881F991F4A95D1F708952FB7F89424
:10320000609184067091850680918606909187066C
:103210002FBF08951F920F920FB60F9211242F9374
:103220003F938F939F93AF93BF9380918406909128
:103230008506A0918606B09187063091830623E02B
:10324000230F2D3720F40196A11DB11D05C026E8DE
:10325000230F0296A11DB11D20938306809384063F
:1032600090938506A0938606B09387068091880682
:1032700090918906A0918A06B0918B060196A11DB6
:10328000B11D8093880690938906A0938A06B09317
:103290008B06BF91AF919F918F913F912F910F908E
:1032A0000FBE0F901F901895CF93DF93CDB7DEB769
:1032B000CA56D1090FB6F894DEBF0FBECDBF7894C1
:1032C00084B5826084BD84B5816084BD85B582602B
:1032D00085BD85B5816085BD80916E0081608093DC
:1032E0006E00109281008091810082608093810045
:1032F0008091810081608093810080918000816055
:10330000809380008091B10084608093B1008091AF
:10331000B00081608093B00080917A0084608093D7
:103320007A0080917A00826080937A0080917A009E
:10333000816080937A0080917A00806880937A001F
:103340001092C1001092B2021092B1021092B40217
:103350001092B3021092B60261E087E00E94070F5C
:1033600060E087E00E94D80E61E088E00E94070FCD
:1033700060E088E00E94D80E1092AF0262E086E022
:103380000E94070F62E085E00E94070F1092690219
:103390001092680289E48093B70285E00E94AF0E24
:1033A000892B19F482E58093B7028091B7028934A2
:1033B00019F480ED97E004C0823551F488EC90E078
:1033C0009093BB028093BA021092B9021092B80295
:1033D000E0914A05F0914B0582E08083E09146053B
:1033E000F09147051082E0914805F091490580E190
:1033F000808310925205E0914E05F0914F0586E0D2
:103400008083E0914C05F0914D058081806180833F
:10341000E0914C05F0914D05808188608083E091BA
:103420004C05F0914D05808180688083E0914C05CA
:10343000F0914D0580818F7D808384E690E0A0E04F
:10344000B0E080933E0590933F05A0934005B09374
:10345000410580E791E09F938F9385E791E09F93EB
:103460008F938DE792E09F938F930E94D3256DE712
:1034700072E08AE395E00E94CE128FE080933006DE
:103480000E94E60F0F900F900F900F900F900F90EB
:103490008091B702823511F480E501C080E18E8F02
:1034A00086E08F8F86E688A387E089A340E064E00A
:1034B000CE014E960E94B10F60ED77E080E090E083
:1034C0000E946A100E94E60F81E08093730280934D
:1034D00072028DEF99E09093710280937002809157
:1034E0001406882321F08FE096E00E94F2021092E9
:1034F000F0051092EE051092EB051092EA058AE0B5
:103500008093E9050E94FE188B0161E08091E90536
:103510000E94070F61E08091E9050E94D80EFFB676
:10352000F89480917C02811127C0E0E9F0E0849159
:10353000E4EAF0E09491E82FF0E0EE0FFF1FE85985
:10354000FF4FA591B491EC91E92321F461E08AE069
:103550000E94D80E61E08AE00E94070F8CB580615E
:103560008CBD8CB580648CBD61E08DE00E94070F3E
:1035700061E08BE00E94070F80917C028F5F809357
:103580007C02FFBE82E58093E3051092E405809102
:10359000E3059091E4050E945104BAE0FB2E8FEF01
:1035A0000E941204FA94F110FACF85EE95E00E9481
:1035B000540420E030E0A90160E085EE95E00E942F
:1035C0006A04F82E8093EF0521E0821749F00E94EB
:1035D000FE18601B710B613D774058F381E056C0C7
:1035E0002AEA31E040E050E068E085EE95E00E9494
:1035F0006A0482FF03C0F092F00510C0A4E0FA2E26
:103600000E9419048093EF05FA94F110F9CF8A3AD9
:1036100011F082E03BC082E08093F0058091F005DC
:10362000823031F4C12CD12CE12CF0E4FF2E03C008
:10363000C12CD12C760120E030E0A90167E385EEB2
:1036400095E00E946A04A701960169E285EE95E083
:103650000E946A048093EF05882349F00E94FE18B7
:10366000601B710B613D774030F388E00FC08091A3
:10367000F005823001F520E030E0A9016AE385EE33
:1036800095E00E946A04882341F086E08093EA0571
:1036900085EE95E00E94070428C00E941904807CF2
:1036A000803C19F483E08093F0050E9419040E9485
:1036B00019040E94190485EE95E00E94070480E534
:1036C0008093E3051092E40581E00E942B0C88238F
:1036D00039F08FE096E00E94D70B882331F007C0C5
:1036E00080E00E942B0C8111F4CF80E0EDC4109299
:1036F0007B0281E080937A028093790290E190933B
:1037000081001092800093E09093780222E13AE7E2
:10371000309387002093860093E19093810025EDFC
:1037200030E030936B0220936A0280936F00109216
:10373000810010928500109284009091780290612F
:10374000909381004FE458E169E47CE54093740272
:103750005093750260937602709377021092CF04B3
:103760001092CE0410921805109239051092160589
:10377000809315051092F00461E082E10E94D80E5A
:1037800061E083E10E94D80E8091B9008E7F809322
:10379000B9008091B9008D7F8093B90088E480934F
:1037A000B80085E48093BC0083EE91E190936F02B2
:1037B00080936E0284EE91E190936D0280936C028F
:1037C00088E60E941B0B80E090E00E94160B0E948E
:1037D000BA0A87E090E00E94250B87ED95E00E94F1
:1037E000F5118F77982F92959F701AEF082F919F60
:1037F000000D112487ED95E00E94F5119C013327FF
:1038000044E0359527954A95E1F7F82E129FF00C84
:10381000112487ED95E00E94F5119C01332754E0B7
:10382000359527955A95E1F7E82E129FE00C112463
:1038300087ED95E00E94F51187ED95E00E94F51166
:103840009C01332764E0359527956A95E1F7D82EDA
:10385000129FD00C112487ED95E00E94F5119C0178
:10386000332774E0359527957A95E1F7C82E129F96
:10387000C00C112487ED95E00E94F5119C013327BF
:10388000E4E035952795EA95E1F7129F800D112424
:103890008983CA82DB82EC82FD820E83CE0101968F
:1038A0000E94621360937402709375028093760293
:1038B0009093770288E60E941B0B8EE090E00E94B6
:1038C000160B0E94BA0A81E090E00E94250B87ED5A
:1038D00095E00E94F511182F88E60E941B0B8EE0E0
:1038E00090E00E94160B612F637287ED95E00E94B5
:1038F0003E120E94BA0A62E080E00E94070F8BE34A
:1039000091E09093010180930001809169008C7F88
:10391000816080936900E89A6FE871E08AE395E03E
:103920000E94CE1264EA71E08AE395E00E94CE1212
:103930000091330630913406A9963FAFA997809144
:103940003506A8968FAFA897F0903606A796FFAEDB
:10395000A79790913706A6969FAFA69720917B02D6
:10396000222309F439C2233009F497C030F42130FE
:1039700059F0223009F455C02CC2243009F4C4C0D7
:10398000253009F403C125C210E00053184F80917F
:103990007A02882379F080917902882339F020E037
:1039A00044E060E0C8010E94FD0F02C00E94E60FE3
:1039B00010927A02BE0167597F4FCE0186599F4F00
:1039C0000E94E408AB969FADAB97AA968FADAA97DD
:1039D000911123C0882309F43AC4C801805D97403F
:1039E0008336910518F40F5F1F4F02C000ED17E0FA
:1039F00010928100109285001092840080917802CC
:103A000080618093810081E080937A0280937902C3
:103A1000005D17400093330637C0811118C482E05F
:103A200039C080917A02882381F0809179028823BD
:103A300041F020E042E060E0832F90E00E94FD0F23
:103A400002C00E94E60F10927A02BE0167597F4FB2
:103A5000CE0186599F4F0E94E408AB969FADAB976D
:103A6000AA968FADAA97911112C0882309F4EFC3CB
:103A70004CE061E0CE0188599F4F0E94E209A9966F
:103A80008FADA9978093340610923806E0C3811158
:103A9000DEC383E00E94CF09DAC390917A029923B2
:103AA00079F090917902992339F022E042E060E0C8
:103AB00090E00E94FD0F02C00E94E60F10927A0271
:103AC000BE0167597F4FCE0186599F4F0E94E4087F
:103AD000AB969FADAB97AA968FADAA97911110C0E8
:103AE000882309F4B4C34FE161E0CE0189599F4FA7
:103AF0000E94E209A8968FADA89780933506C4CF9F
:103B00008111A5C384E0C6CF80917A028823D1F0C9
:103B100080917902092F10E0882351F020E044E0E1
:103B200060EEC801E4E6FE9E800D911D112406C0E2
:103B30000E94E60F22E042E060EEC8010E94FD0F05
:103B400010927A02BE0167597F4FCE0186599F4F6E
:103B50000E94E408AB969FADAB97AA968FADAA974B
:103B6000911110C0882309F472C347E160E0CE01CF
:103B70008A599F4F0E94E209A7968FADA79780931D
:103B8000360682CF811163C385E084CF80917A02AB
:103B90008823D1F080917902882359F0892F90E011
:103BA00020E044E060EEF4E6FF9E800D911D1124BC
:103BB00007C00E94E60F20E042E060EE8F2D90E00B
:103BC0000E94FD0F10927A02BE0167597F4FCE010D
:103BD00086599F4F0E94E408AB969FADAB97AA967B
:103BE0008FADAA97911110C0882309F430C34BE31D
:103BF00060E0CE018B599F4F0E94E209A6968FADDF
:103C0000A6978093370640CF811121C300913306D8
:103C100088E60E941B0B86E090E00E94160B1AE0DB
:103C2000802F612F0E942A24692F20E1829F600D3E
:103C3000112487ED95E00E943E120E94BA0A00917D
:103C4000340688E60E941B0B85E090E00E94160B6C
:103C5000802F612F0E942A24692F30E1839F600DFD
:103C6000112487ED95E00E943E120E94BA0A00914D
:103C7000350688E60E941B0B84E090E00E94160B3C
:103C8000802F612F0E942A24692FE0E18E9F600D12
:103C9000112487ED95E00E943E120E94BA0A00911D
:103CA000360688E60E941B0B82E090E00E94160B0D
:103CB0000E94BA0A81E090E00E94250B87ED95E012
:103CC0000E94F51186FF18C00D3060F084EF800F60
:103CD000612F0E942A24192FF0E18F9F100D1124CB
:103CE000106614C0802F612F0E942A24192F20E112
:103CF000829F100D11240AC0802F612F0E942A2458
:103D0000192F30E1839F100D11241F7B88E60E943C
:103D10001B0B82E090E00E94160B612F87ED95E06F
:103D20000E943E120E94BA0A1091370688E60E944D
:103D30001B0B81E090E00E94160B812F6AE00E942D
:103D40002A24692FE0E18E9F600D112487ED95E014
:103D50000E943E120E94BA0A88E60E941B0B80E075
:103D600090E00E94160B60E087ED95E00E943E1205
:103D70000E94BA0A88E60E941B0B8FE090E00E9426
:103D8000160B0E94BA0A81E090E00E94250B87ED95
:103D900095E00E94F511182F88E60E941B0B8FE01A
:103DA00090E00E94160B612F6F7787ED95E00E94DF
:103DB0003E120E94BA0A83E396E00E946213609367
:103DC000740270937502809376029093770280E07C
:103DD00061CE10927B023BC28091B702823509F01E
:103DE000BDC01091B602812F90E065E070E0681BC5
:103DF000790B8F549D4F0E945E0E882309F46AC18F
:103E0000180F1093B602153009F021C22091B102AB
:103E10003091B2023227232732273093B202209307
:103E2000B1028091B3029091B40298278927982714
:103E30009093B4028093B3026091BA027091BB0276
:103E40002617370708F087C04091B8025091B90291
:103E50004217530708F07FC08617970708F07BC00A
:103E60004817590708F077C08091B002882309F4F9
:103E700072C061E088E00E94D80E1093AF024091BA
:103E80007402509175026091760270917702CE01B2
:103E90004E960E94C413CE0101960E946B0DEA8DCE
:103EA000FB8D309709F453C08581882309F44FC0F6
:103EB0008091B50240917402509175026091760232
:103EC00070917702982F91701F929F9382701F922A
:103ED0008F938091B4028F938091B3028F938091DE
:103EE000B2028F938091B1028F938BA11F928F9317
:103EF0008AA11F928F9389A11F928F9388A11F92ED
:103F00008F938F8D1F928F938E8D90E08053984F5B
:103F10009F938F937F936F935F934F9387EA91E083
:103F20009F938F938DE792E09F938F930E94D32569
:103F30006DE772E0CE0101960E94CE12CE0101968D
:103F40000E94590D0FB6F894DEBF0FBECDBF60E0E2
:103F500088E00E94D80E1092B60279C1893409F027
:103F6000B9C00091B602802F90E062E070E0681B5B
:103F7000790B8F549D4F0E945E0E182F882309F4F1
:103F8000A9C001110CC08091B102982F907F29F037
:103F900011508091B2021111F8CF8093B102010F3C
:103FA000023008F493C01092B6028091B102909151
:103FB000B2029827892798279093B2028093B10282
:103FC0002091B002222309F483C097702091BA0295
:103FD0003091BB022817390708F47AC02091B80243
:103FE0003091B9028217930708F472C061E088E04B
:103FF0000E94D80E40917402509175026091760231
:1040000070917702CE014E960E94C413CE010196A4
:104010000E946B0DEA8DFB8D309709F454C08581A9
:10402000882309F450C08091B1029091B2029C01A2
:10403000377093FF03C088EE93E002C080E090E009
:1040400040917402509175026091760270917702EE
:104050003F932F939F938F938BA11F928F938AA14E
:104060001F928F9389A11F928F9388A11F928F9384
:104070008F8D1F928F938E8D90E08053984F9F93DA
:104080008F937F936F935F934F9386ED91E09F9310
:104090008F938DE792E09F938F930E94D3256DE7D6
:1040A00072E0CE0101960E94CE12CE0101960E94CE
:1040B000590D60E088E00E94D80E0FB6F894DEBF7C
:1040C0000FBECDBF05C083E00E947C090093B602FD
:1040D0001111BDC01092B602809173028823F1F0D5
:1040E00010927302409174025091750260917602B1
:1040F00070917702CE0101960E94C4132C818D81AC
:1041000090E0E4E62E9F800D911D11242091720213
:104110002111A0C044E060EE0E94FD0FBE0167596E
:104120007F4FCE0186599F4F0E94E4089091B002C4
:10413000992309F493C0AB968FADAB97882309F40C
:10414000F8C0AA962FADAA972111F3C081E0292EBD
:1041500028262092B002222009F4E6C0C12CD12CDE
:104160009CE5A92E91E0B92EDF92CF928091B70203
:10417000282F082E000C330B3F938F932FEF31E045
:104180003F932F93EEEBF2E0FF93EF930E94D32542
:104190001EAE1DAEBCAEABAE21961FAE219719A2CE
:1041A00018A2BF8EAE8E1BA20FB6F894DEBF0FBE54
:1041B000CDBF612C712CFE01FB967F010FE016E054
:1041C000C301F301E254FD4F20812F3209F401961F
:1041D000DC01A254BD4FFE01E85AFF4F20E030E061
:1041E0004F014D914F3209F05CC0F401E20FF31F13
:1041F0001082FC01E254FD4F20812F3209F4019618
:104200003C01FC01E254FD4F30801C821B82BA82CB
:10421000A9821E8221E0A401B801CE0101960E946C
:10422000121781114AC0F6E00F301F0709F014C1C0
:1042300061E087E00E94D80ECE0101960E946B0DCE
:10424000EA8DFB8D309719F085818111E7C00E94BE
:10425000A7116ECB20E044E060E05ECFAB968FAD5F
:10426000AB97882309F467CFAA968FADAA978823C6
:1042700009F461CF40917402509175026091760209
:1042800070917702CE0101960E94C41386E0FE0170
:104290003196A3E3B6E001900D928A95E1F781E0B3
:1042A000F9CB442309F4A1CF2F5F3F4F01964193EF
:1042B0002C30310509F095CF98CFCE0101960E94A0
:1042C000F2023320E1F0F70185818111C0C021E0C5
:1042D000A401B801C7010E941217982EF6E00F3012
:1042E0001F0709F4ADC0C8010E94F202992009F429
:1042F0009FCF902F812F8701E92EF82E61CF26E0E6
:104300000F30120719F0C8010E94F202222009F4AE
:104310008FCF3FEFC31AD30A88EEC81683E0D806C2
:1043200009F022CF82E0D0CE60E087E00E94D80E74
:104330008ECFAA969FADAA97992309F488CF8111B1
:1043400086CF88E60E941B0B81E190E00E94160B4D
:104350000E94BA0A82E090E00E94250B9091CE0460
:104360008091CF049817F9F087ED95E00E94F51140
:10437000182F87ED95E00E94F511512E412CB201C6
:10438000682B86E0759567958A95E1F7072E000CF6
:10439000880B990B0E94AA2220E030E040E85EE3FF
:1043A0000E94E52204C060E07CE38CE196EC0E9470
:1043B000F4239B0119821A821B821C8249E34C83DD
:1043C00077FF0BC022273327261B370B80E42A30C8
:1043D000310514F48A8301C08983C9016AE070E061
:1043E0000E944A24FC01EE5EFE4F80818B832A30BE
:1043F00031053CF06F70E62FF0E0EE5EFE4F8081FD
:104400008A8340E064E0CE0101960E94B10F68EB20
:104410007BE080E090E00E946A1019CF8091B702A3
:10442000893419F46FE072E002C067E372E0CE01F4
:1044300001960E94CE12CE0101960E94590D07CF1F
:10444000882309F4F5CE8E01025E1F4F52CF96E00D
:104450000F30190709F4ECCEC8010E94F202E8CE31
:10446000CF93DF93EAE3F5E01382128288EE93E0C4
:10447000A0E0B0E084839583A683B78328E331E08E
:104480003183208325EC30E03587248724EC30E02D
:104490003787268720EC30E0318B208B21EC30E011
:1044A000338B228B22EC30E0358B248B26EC30E0F2
:1044B000378B268B118E128E138E148EE7EDF5E05E
:1044C0001382128284839583A683B7838AE491E062
:1044D00091838083E3EEF5E080E580831182E5EE51
:1044E000F5E0158216821186138682E090E0A0E046
:1044F000B0E084879587A687B78713A215A614A670
:104500008CE591E093A782A717A640E050E0BA019E
:1045100083E396E00E94C413CEE2D6E083E0888372
:1045200084E0898384E690E09C838B8360E083E071
:104530000E94070F60E089810E94070F60E0888178
:104540000E94D80E60E08981DF91CF910C94D80E43
:10455000E89409C097FB3EF490958095709561951D
:104560007F4F8F4F9F4F9923A9F0F92F96E9BB27D3
:104570009395F695879577956795B795F111F8CF4F
:10458000FAF4BB0F11F460FF1BC06F5F7F4F8F4FBA
:104590009F4F16C0882311F096E911C0772321F0B0
:1045A0009EE8872F762F05C0662371F096E8862F48
:1045B00070E060E02AF09A95660F771F881FDAF79F
:1045C000880F9695879597F908950E94F8220C9484
:1045D00069230E945B2338F00E94622320F0952318
:1045E00011F00C9452230C94582311240C949D2305
:1045F0000E947A2370F3959FC1F3950F50E0551FE9
:10460000629FF001729FBB27F00DB11D639FAA2727
:10461000F00DB11DAA1F649F6627B00DA11D661F76
:10462000829F2227B00DA11D621F739FB00DA11D97
:10463000621F839FA00D611D221F749F3327A00D51
:10464000611D231F849F600D211D822F762F6A2FED
:1046500011249F5750409AF0F1F088234AF0EE0F52
:10466000FF1FBB1F661F771F881F91505040A9F77F
:104670009E3F510580F00C9452230C949D235F3F84
:10468000E4F3983ED4F3869577956795B795F795BB
:10469000E7959F5FC1F7FE2B880F911D9695879533
:1046A00097F9089597F99F6780E870E060E00895B2
:1046B0009FEF80EC089500240A941616170618063A
:1046C0000906089500240A94121613061406050616
:1046D0000895092E0394000C11F4882352F0BB0FA7
:1046E00040F4BF2B11F460FF04C06F5F7F4F8F4F0A
:1046F0009F4F089557FD9058440F551F59F05F3F45
:1047000071F04795880F97FB991F61F09F3F79F0F3
:1047100087950895121613061406551FF2CF469575
:10472000F1DF08C0161617061806991FF1CF8695F7
:104730007105610508940895E894BB2766277727DB
:10474000CB0197F908950E94E523A59F900DB49F92
:10475000900DA49F800D911D112408952F923F92DA
:104760004F925F926F927F928F929F92AF92BF9281
:10477000CF92DF92EF92FF920F931F93CF93DF932D
:10478000CDB7DEB7CA1BDB0B0FB6F894DEBF0FBE8A
:10479000CDBF09942A88398848885F846E847D84D7
:1047A0008C849B84AA84B984C884DF80EE80FD80D9
:1047B0000C811B81AA81B981CE0FD11D0FB6F8944F
:1047C000DEBF0FBECDBFED010895A29FB001B39F24
:1047D000C001A39F700D811D1124911DB29F700D0A
:1047E000811D1124911D08950E94FB236894B1112D
:1047F0000C949D2308950E94822388F09F5798F07F
:10480000B92F9927B751B0F0E1F0660F771F881FD5
:10481000991F1AF0BA95C9F714C0B13091F00E94EF
:104820009C23B1E008950C949C23672F782F882750
:10483000B85F39F0B93FCCF3869577956795B39516
:10484000D9F73EF490958095709561957F4F8F4F85
:104850009F4F0895991B79E004C0991F961708F09F
:10486000961B881F7A95C9F780950895AA1BBB1BD4
:1048700051E107C0AA1FBB1FA617B70710F0A61B60
:10488000B70B881F991F5A95A9F780959095BC0181
:10489000CD01089597FB072E16F4009407D077FDFD
:1048A00009D00E94362407FC05D03EF490958195EE
:1048B0009F4F0895709561957F4F0895A1E21A2E3C
:1048C000AA1BBB1BFD010DC0AA1FBB1FEE1FFF1FB4
:1048D000A217B307E407F50720F0A21BB30BE40B04
:1048E000F50B661F771F881F991F1A9469F760954B
:1048F0007095809590959B01AC01BD01CF01089505
:10490000EE0FFF1F0590F491E02D09940F931F9374
:10491000CF93DF938230910510F482E090E0E09134
:104920008E06F0918F0620E030E0A0E0B0E03097F6
:1049300019F1408151810281138148175907C8F04C
:104940008417950769F4109731F012960C9312971B
:1049500013961C9327C000938E0610938F0622C0D7
:104960002115310519F04217530718F49A01BD01BA
:10497000EF01DF01F801DBCF21153105F9F0281B2C
:10498000390B2430310580F48A819B8161157105D2
:1049900021F0FB019383828304C090938F06809360
:1049A0008E06FE01329644C0FE01E20FF31F819392
:1049B000919322503109398328833AC020918C0683
:1049C00030918D06232B41F420910A0130910B0187
:1049D00030938D0620938C062091080130910901B7
:1049E0002115310541F42DB73EB740910C0150918E
:1049F0000D01241B350BE0918C06F0918D06E2171A
:104A0000F307A0F42E1B3F0B2817390778F0AC01F1
:104A10004E5F5F4F2417350748F04E0F5F1F5093CE
:104A20008D0640938C068193919302C0E0E0F0E004
:104A3000CF01DF91CF911F910F910895CF93DF9315
:104A4000009709F481C0FC01329713821282A09171
:104A50008E06B0918F06109781F420813181820FEC
:104A6000931F20918C0630918D062817390751F538
:104A7000F0938D06E0938C0667C0ED0120E030E0F6
:104A8000CE17DF0740F44A815B819E014115510535
:104A9000F1F0EA01F5CFD383C28340815181840FC5
:104AA000951FC817D90759F488819981840F951FDC
:104AB0000296918380838A819B81938382832115CF
:104AC000310529F4F0938F06E0938E063DC0E9018D
:104AD000FB83EA8349915991C40FD51FEC17FD0759
:104AE00061F480819181840F951F0296E901998379
:104AF0008883828193819B838A83E0E0F0E0129631
:104B00008D919C911397009719F0FD01DC01F7CF6F
:104B10008D919C9111979D012E5F3F4F820F931FA6
:104B200020918C0630918D062817390769F430974B
:104B300029F410928F0610928E0602C01382128200
:104B4000B0938D06A0938C06DF91CF91089581E0FC
:104B500090E0F8940C948628FB01DC0104C08D9150
:104B60000190801921F441505040C8F7881B990BDF
:104B70000895FC018191861721F08823D9F79927A0
:104B800008953197CF010895FB01DC014150504059
:104B900048F001900D920020C9F701C01D924150CC
:104BA0005040E0F70895AEE0B0E0E9EDF5E20C9496
:104BB000BC230D891E8986E08C831A8309838FEFBD
:104BC0009FE79E838D83AE01475E5F4F6F89788D2F
:104BD000CE0101960E94F525EF81F885E00FF11FC7
:104BE00010822E96E4E00C94D823ABE0B0E0EBEF1B
:104BF000F5E20C94AE236C017B018A01FC01178263
:104C00001682838181FFCCC1CE0101963C01F60161
:104C10009381F70193FD859193FF81917F01882313
:104C200009F4BAC1853239F493FD859193FF8191DE
:104C30007F01853229F4B60190E00E94EC27E7CF8E
:104C4000912C212C312CFFE1F315D8F08B3279F027
:104C500038F4803279F08332A1F4232D20611DC015
:104C60008D3261F0803369F4232D216016C0832DCD
:104C70008260382EE32DE4603E2E2AC0F32DF860CA
:104C80001DC037FC2DC020ED280F2A3040F08E3299
:104C9000B9F436FC81C1232D2064322E19C036FEB2
:104CA00006C08AE0989E200D1124922E11C0EAE0E1
:104CB0002E9E200D1124222EF32DF0623F2E08C0CF
:104CC0008C3621F4832D8068382E02C0883641F45A
:104CD000F70193FD859193FF81917F018111B3CFFE
:104CE000982F9F7D9554933028F40C5F1F4F9FE3BE
:104CF00099830DC0833631F0833771F0833509F025
:104D000059C021C0F801808189830E5F1F4F88241C
:104D10008394912C530113C02801F2E04F0E511CD3
:104D2000F801A080B18036FE03C0692D70E002C09A
:104D30006FEF7FEFC5010E94E1274C018201F32D47
:104D4000FF773F2E16C0280122E0420E511CF801C9
:104D5000A080B18036FE03C0692D70E002C06FEF05
:104D60007FEFC5010E94D6274C01F32DF0683F2E3E
:104D7000820133FC1BC0822D90E088169906B0F4A6
:104D8000B60180E290E00E94EC272A94F4CFF5016E
:104D900037FC859137FE81915F01B60190E00E945A
:104DA000EC2721102A9421E0821A910881149104A1
:104DB00071F7E8C0843611F0893641F5F80137FE05
:104DC00007C060817181828193810C5F1F4F08C091
:104DD00060817181072E000C880B990B0E5F1F4FAD
:104DE000F32DFF763F2E97FF09C090958095709523
:104DF00061957F4F8F4F9F4FF0683F2E2AE030E044
:104E0000A3010E942828882E861845C0853731F4D2
:104E1000232D2F7EB22E2AE030E025C0932D997FDE
:104E2000B92E8F36C1F018F4883579F0B5C08037C7
:104E300019F0883721F0B0C0E92FE061BE2EB4FE32
:104E40000DC0FB2DF460BF2E09C034FE0AC0292F0F
:104E50002660B22E06C028E030E005C020E130E038
:104E600002C020E132E0F801B7FE07C06081718125
:104E7000828193810C5F1F4F06C06081718180E049
:104E800090E00E5F1F4FA3010E942828882E8618ED
:104E9000FB2DFF773F2E36FE0DC0232D2E7FA22E39
:104EA000891458F434FE0BC032FC09C0832D8E7E69
:104EB000A82E05C0B82CA32C03C0B82C01C0B92C57
:104EC000A4FE0FC0FE01E80DF11D8081803321F4A6
:104ED0009A2D997EA92E09C0A2FE06C0B394B39460
:104EE00004C08A2D867809F0B394A3FC11C0A0FEFB
:104EF00006C0B21488F4280C922C9B180EC0B21471
:104F000060F4B60180E290E00E94EC27B394F7CF02
:104F1000B21418F42B1802C0982C212CA4FE10C037
:104F2000B60180E390E00E94EC27A2FE17C0A1FC2E
:104F300003C088E790E002C088E590E0B6010CC0AD
:104F40008A2D867859F0A1FE02C08BE201C080E272
:104F5000A7FC8DE2B60190E00E94EC27891438F49A
:104F6000B60180E390E00E94EC279A94F7CF8A94F0
:104F7000F301E80DF11D8081B60190E00E94EC275D
:104F80008110F5CF222009F442CEB60180E290E0F4
:104F90000E94EC272A94F6CFF6018681978102C001
:104FA0008FEF9FEF2B96E2E10C94CA23FC01059052
:104FB000615070400110D8F7809590958E0F9F1F1B
:104FC0000895FC016150704001900110D8F7809560
:104FD00090958E0F9F1F08950F931F93CF93DF938C
:104FE000FB01238121FD03C08FEF9FEF2CC022FF27
:104FF00016C046815781248135814217530744F4F6
:10500000A081B1819D012F5F3F4F318320838C931D
:10501000268137812F5F3F4F3783268314C08B0152
:10502000EC01FB010084F185E02D0995892BE1F667
:10503000D80116968D919C911797019617969C937F
:105040008E931697CE01DF91CF911F910F91089506
:10505000FA01AA27283051F1203181F1E8946F93A9
:105060006E7F6E5F7F4F8F4F9F4FAF4FB1E03ED04F
:10507000B4E03CD0670F781F891F9A1FA11D680FED
:10508000791F8A1F911DA11D6A0F711D811D911D20
:10509000A11D20D009F468943F912AE0269F112495
:1050A0003019305D3193DEF6CF010895462F4770F9
:1050B000405D4193B3E00FD0C9F7F6CF462F4F7054
:1050C000405D4A3318F0495D31FD4052419302D0B2
:1050D000A9F7EACFB4E0A695979587957795679558
:1050E000BA95C9F700976105710508959B01AC0158
:1050F0000A2E06945795479537952795BA95C9F77F
:10510000620F731F841F951FA01D0895F894FFCF91
:10511000A410A410FFFFFFFF00009006800079504C
:1051200050003F065B4F666D7D077F6F777C395E71
:10513000797100000000BB005A07D20033019A00C9
:10514000B008BA08000000003811A510CF10851172
:105150000011DE10F210000000003E121112D20009
:10516000E5110912F511E611000000006F12A510FB
:10517000D200D100000000006D12A510D200D100B5
:10518000312E3437005374617274696E672028764B
:10519000657273696F6E202573292E2E2E0A0049C1
:1051A0006E697469616C697A6174696F6E20444FCD
:1051B0004E452E000D0A00256C642C253034642FDA
:1051C000253032642F253032642C253032643A2564
:1051D0003032643A253032642C25642C25642C2529
:1051E000642C25640A00256C642C253034642F253A
:1051F0003032642F253032642C253032643A253029
:1052000032643A253032642C25642C25640A0072FD
:1052100065675F25D181253033642E637376005531
:105220006E69782074696D652C446174652C5469CD
:105230006D652C416C61726D2C43757272656E7474
:1052400020492841290A00556E69782074696D65E6
:105250002C446174652C54696D652C5265736973B7
:1052600074616E7365202D2C526573697374616E61
:085270007365202B0A002F00DA
:107800000C94343C0C94513C0C94513C0C94513CE1
:107810000C94513C0C94513C0C94513C0C94513CB4
:107820000C94513C0C94513C0C94513C0C94513CA4
:107830000C94513C0C94513C0C94513C0C94513C94
:107840000C94513C0C94513C0C94513C0C94513C84
:107850000C94513C0C94513C0C94513C0C94513C74
:107860000C94513C0C94513C11241FBECFEFD8E036
:10787000DEBFCDBF11E0A0E0B1E0ECE9FFE702C060
:1078800005900D92A230B107D9F712E0A2E0B1E065
:1078900001C01D92AD30B107E1F70E942D3D0C945F
:1078A000CC3F0C94003C982F959595959595959582
:1078B000905D8F708A307CF0282F295A8091C0000B
:1078C00085FFFCCF9093C6008091C00085FFFCCF60
:1078D0002093C6000895282F205DF0CF982F809127
:1078E000C00085FFFCCF9093C6000895EF92FF92F1
:1078F0000F931F93EE24FF2487018091C00087FD22
:1079000017C00894E11CF11C011D111D81E4E8164B
:1079100082E4F8068FE0080780E0180770F3E09132
:107920000401F091050109958091C00087FFE9CF1E
:107930008091C6001F910F91FF90EF9008950E94D3
:10794000763C982F8091C00085FFFCCF9093C600B5
:1079500091362CF490330CF09053892F089597555D
:10796000892F08951F930E949F3C182F0E949F3CCF
:107970001295107F810F1F9108951F93182F882350
:1079800021F00E94763C1150E1F71F9108951F935A
:10799000182F0E94763C803249F0809103018F5F5E
:1079A000809303018530C1F01F9108958091C0003C
:1079B00085FFFCCF84E18093C6008091C00085FFE5
:1079C000FCCF1093C6008091C00085FFFCCF80E102
:1079D0008093C6001F910895E0910401F091050184
:1079E00009951F9108950E94763C803241F0809164
:1079F00003018F5F80930301853081F008958091AA
:107A0000C00085FFFCCF84E18093C6008091C00058
:107A100085FFFCCF80E18093C6000895E0910401CA
:107A2000F09105010995089540E951E08823A1F0FE
:107A30002D9A28EE33E0FA013197F1F721503040CA
:107A4000D1F72D9828EE33E0FA013197F1F7215064
:107A50003040D1F7815061F708953F924F925F9285
:107A60006F927F928F929F92AF92BF92CF92DF924E
:107A7000EF92FF920F931F93CF93DF93000080E16B
:107A80008093C4001092C50088E18093C10086E015
:107A90008093C2005098589A259A81E00E94143D24
:107AA00024E1F22E9EE1E92E85E9D82E0FE0C02ECA
:107AB00010E1B12EAA24A394B1E49B2EA6E58A2E50
:107AC000F2E57F2EE0E26E2E79E4572E63E5462E36
:107AD00050E5352E0E94763C8033B1F18133B9F107
:107AE000803409F46FC0813409F476C0823409F41B
:107AF00085C0853409F488C0803531F1823521F1A3
:107B0000813511F1853509F485C0863509F48DC0BC
:107B1000843609F496C0843709F403C1853709F423
:107B200072C1863709F466C0809103018F5F80932C
:107B30000301853079F6E0910401F0910501099582
:107B40000E94763C803351F60E94F33CC3CF0E94E2
:107B5000763C803249F78091C00085FFFCCFF092DF
:107B6000C6008091C00085FFFCCF9092C600809136
:107B7000C00085FFFCCF8092C6008091C00085FFC9
:107B8000FCCF7092C6008091C00085FFFCCF609250
:107B9000C6008091C00085FFFCCF5092C600809146
:107BA000C00085FFFCCF4092C6008091C00085FFD9
:107BB000FCCF3092C6008091C00085FFFCCFB09210
:107BC000C60088CF0E94763C863808F4BDCF0E945C
:107BD000763C0E94F33C7ECF0E94763C803809F4CC
:107BE0009CC0813809F40BC1823809F43CC1883942
:107BF00009F48FC080E00E94C73C6CCF84E10E94F2
:107C0000BD3C0E94F33C66CF85E00E94BD3C0E94D3
:107C1000F33C60CF0E94763C809306010E94763C44
:107C2000809307010E94F33C55CF0E94763C80333D
:107C300009F41DC183E00E94BD3C80E00E94C73C66
:107C400049CF0E94763C809309020E94763C809343
:107C5000080280910C028E7F80930C020E94763C79
:107C6000853409F415C18091080290910902892B8D
:107C700089F000E010E00E94763CF801E85FFE4FDA
:107C800080830F5F1F4F80910802909109020817AF
:107C9000190788F30E94763C803209F045CF809125
:107CA0000C0280FF01C16091060170910701660F0F
:107CB000771F7093070160930601A0910802B091AD
:107CC00009021097C9F0E8E0F1E09B01AD014E0F09
:107CD0005F1FF999FECF32BD21BD819180BDFA9A17
:107CE000F99A2F5F3F4FE417F50799F76A0F7B1F4B
:107CF00070930701609306018091C00085FFFCCF5F
:107D0000F092C6008091C00085FFFCCFB092C60003
:107D1000E1CE83E00E94C73CDDCE82E00E94C73CFA
:107D2000D9CE0E94763C809309020E94763C8093D3
:107D300008028091060190910701880F991F909386
:107D40000701809306010E94763C853409F4A6C0A1
:107D500080910C028E7F80930C020E94763C8032D0
:107D600009F0B8CE8091C00085FFFCCFF092C6002C
:107D7000609108027091090261157105B9F140E046
:107D800050E080910C02A82FA170B82FB27011C0E2
:107D9000BB2309F45CC0E0910601F0910701319624
:107DA000F0930701E09306014F5F5F4F46175707B7
:107DB000E8F4AA2369F3F999FECF209106013091E6
:107DC000070132BD21BDF89A90B58091C00085FFB2
:107DD000FCCF9093C6002F5F3F4F30930701209355
:107DE00006014F5F5F4F4617570718F38091C00099
:107DF00085FDE5CE8091C00085FFF8CFE0CE81E023
:107E00000E94C73C67CE0E94763C803209F08CCE3F
:107E10008091C00085FFFCCFF092C6008091C00029
:107E200085FFFCCFE092C6008091C00085FFFCCFAB
:107E3000D092C6008091C00085FFFCCFC092C600E2
:107E40008091C00085FFFCCFB092C60043CEE09188
:107E50000601F091070194918091C00085FFFCCF4D
:107E60009093C6009CCF80E10E94C73C33CE0E9415
:107E7000763C0E94763C182F0E94763C112309F430
:107E800083C0113009F484C08FE00E94C73C22CE29
:107E900080910C02816080930C02E5CE80910C02EF
:107EA000816080930C0259CF809107018823880F4D
:107EB000880B8A2180930B02809106019091070123
:107EC000880F991F90930701809306018091080203
:107ED00080FF09C080910802909109020196909359
:107EE000090280930802F894F999FECF1127E091D6
:107EF0000601F0910701C8E0D1E08091080290915D
:107F00000902103091F40091570001700130D9F34B
:107F100003E000935700E89500915700017001308D
:107F2000D9F301E100935700E89509901990009169
:107F3000570001700130D9F301E000935700E89534
:107F40001395103498F011270091570001700130FB
:107F5000D9F305E000935700E895009157000170B0
:107F60000130D9F301E100935700E895329602976A
:107F700009F0C7CF103011F00296E5CF112480919F
:107F8000C00085FFB9CEBCCE8EE10E94C73CA2CD19
:0C7F900085E90E94C73C9ECDF894FFCF0D
:027F9C00800063
:040000030000780081
:00000001FF
