:100000000C9470000C94E0130C94B9130C949800A9
:100010000C9498000C9498000C9498000C94980000
:100020000C9498000C9498000C9498000C949800F0
:100030000C9498000C9474140C9498000C949800F0
:100040000C94431A0C9498000C9442140C941C14B5
:100050000C9498000C9498000C9498000C949800C0
:100060000C9475150C9498000000000024002700E3
:100070002A0000000000250028002B0000000000DE
:1000800023002600290004040404040404040202DA
:100090000202020203030303030301020408102007
:1000A0004080010204081020010204081020000012
:1000B0000008000201000003040700000000000027
:1000C00000007C3C3E5E2B3D3F2F5B5D3B2C2A229B
:1000D0005C001F1C1F1E1F1E1F1F1E1F1E1F6422D1
:1000E00011241FBECFEFD8E0DEBFCDBF26E0A0E6D3
:1000F000B2E001C01D92A838B207E1F712E0A0E01B
:10010000B1E0E8E7F1E502C005900D92A036B10735
:10011000D9F710E0C0E7D0E004C02197FE010E94AB
:10012000B424CF36D107C9F70E948D1A0C94BA288F
:100130000C940000DC015996ED91FC915A97309790
:10014000B9F083899489A589B689428553856485E8
:100150007585841B950BA60BB70B811520E89207BC
:10016000A105B10538F08FEF9FE7A0E0B0E008955A
:1001700080E090E00895CF93DF931F92CDB7DEB774
:100180006983DC01ED91FC910280F381E02D41E077
:1001900050E0BE016F5F7F4F09950F90DF91CF91C7
:1001A0000895089580E090E008950F931F93CF93F2
:1001B000DF93FC012581222309F446C0248127FF17
:1001C0003DC08C01668577858089918941E00E94D8
:1001D000DE168823C9F1F801C289F0E2CF9FE00161
:1001E0001124CC53DD4F209779F1F80185818230BD
:1001F00040F483899489A589B6898C8F9D8FAE8FB1
:10020000BF8FF8018789908DA18DB28D9B8F8A8FCA
:10021000BD8BAC8BE0916802F0916902309751F090
:10022000BE016A5E7F4FCE0148960995888D998DF3
:100230009B8B8A8BF80194819F779483DF91CF9178
:100240001F910F910C94A31680E0DF91CF911F9125
:100250000F910895FC01818D928D009711F00C94FF
:10026000D500089581E080937802909177028927E4
:100270008093770280916C028F3F71F080916C02C5
:10028000882331F080916C02815080936C02089534
:1002900060E088E00C9411100895CF93C1E0C09302
:1002A0006B0282E00E94E80F892BB1F0809172020C
:1002B00090917302A0917402B09175020196A11DF4
:1002C000B11D8093720290937302A0937402B09355
:1002D0007502C0936A0202C010926A02CF9108951B
:1002E0008F929F92AF92BF92CF92DF92EF92FF9246
:1002F0000F931F93CF93DF93EC018D81811102C087
:1003000080E078C00B891C892D893E890417150768
:1003100026073707A8F36A017B01823029F4CA86D1
:10032000DB86EC86FD860DC0C114D104E104F10426
:1003300051F41E821F82188619861A861B861C8617
:100340001D8681E057C08A849B84AC84BD84EB8D7C
:10035000FC8D258530E0275F3F4FB501A40141505A
:10036000510961097109022E04C076956795579568
:1003700047950A94D2F7D701C6010197A109B1099F
:1003800004C0B695A795979587952A95D2F78417B7
:100390009507A607B70720F089288A288B2871F4CB
:1003A0004F89588D698D7A8D4E835F8368877987F1
:1003B0004C015D018E010A5F1F4F16C0841B950B17
:1003C000A60BB70BF5CF4E815F81688579859801C3
:1003D0008B8D9C8D0E94C81791E0891A9108A10805
:1003E000B108882309F48CCF81149104A104B104CD
:1003F00051F795CFDF91CF911F910F91FF90EF9023
:10040000DF90CF90BF90AF909F908F9008958F9284
:100410009F92AF92BF92CF92DF92EF92FF920F9393
:100420001F93CF93DF9300D000D0CDB7DEB77C0110
:1004300080E2689FF0011124EC53FD4F9385917188
:1004400021F0842F827409F08FC0142FD7015296A7
:100450006C935297409104015091050160910601FF
:10046000709107011E964D935D936D937C93519708
:100470004489558960E070E0BA0155274427828D90
:10048000938DA0E0B0E0482B592B6A2B7B2BD70132
:1004900057964D935D936D937C935A97838588719E
:1004A00059F4848D958DA68DB78DF701838B948B30
:1004B000A58BB68B81E012C0803109F055C0970141
:1004C0002D5E3F4FD7015B968D919C915C970E946A
:1004D000A70C882309F448C084E0F7018583812FA5
:1004E0008F70D70114968C931497F7011682178298
:1004F000108611861A961D921D921D921C921D97B0
:1005000016FF34C015968C91813071F511FF2CC007
:10051000F7014389548965897689452B462B472BFA
:1005200009F461C040E050E0BA01C7010E947001C7
:100530008823D1F0F7018788908CA18CB28CC38C72
:10054000D48C82E090E0A0E0B0E0F601808391835B
:10055000A283B3839E012F5F3F4FB501A401C60163
:100560000E94C817811104C080E03DC081E03BC0FB
:1005700000E010E09801B501A401C6010E94271710
:10058000882391F389809A80AB80BC80D6015796EE
:100590008C91803129F088EF9FEFAFEFBFE004C06E
:1005A00088EF9FEFA0E0B0E088169906AA06BB0688
:1005B00088F2D70157961D921D921D921C925A9750
:1005C000F701138A148A158A168A848180688483C5
:1005D000C7010E94D500882339F240E050E0BA01FB
:1005E000C7010E9470010F900F900F900F90DF9144
:1005F000CF911F910F91FF90EF90DF90CF90BF9020
:10060000AF909F908F900895CF93DF93EC010E945D
:10061000D500882311F01D8281E0DF91CF910895EC
:100620003F924F925F926F927F928F929F92AF9282
:10063000BF92CF92DF92EF92FF920F931F93CF93CF
:10064000DF93CDB7DEB72C970FB6F894DEBF0FBEA1
:10065000CDBF5C01DC015B968D909C905C971696FB
:10066000CD90DD90ED90FC901997C114D104E10478
:10067000F10439F0BFEFCB1ADB0AEB0AFB0A312C8D
:1006800007C0F401C080D180E280F380332433942A
:10069000F40181859285A385B4859C01AD012F5F0E
:1006A0003F4F4F4F5F4F29873A874B875C87260123
:1006B00037011D821E821F821886F4018185928572
:1006C000A385B4852D813E814F8158852817390730
:1006D0004A075B0708F063C089859A85AB85BC85AE
:1006E0008C159D05AE05BF0550F482E0C82ED12CB7
:1006F000E12CF12C92E0492E512C612C712C9E01A1
:100700002F5F3F4FB701A601C4010E94C81788237D
:1007100009F445C089819A81AB81BC81892B8A2BE0
:100720008B2B41F0260137019FEF491A590A690ABC
:10073000790A05C0C414D504E604F70491F02D81AC
:100740003E814F8158852F5F3F4F4F4F5F4F2D8325
:100750003E834F8358873FEFC31AD30AE30AF30A55
:10076000ACCF0FEF1FEF2FEF3FE0B301A201C401A9
:100770000E942717882399F0D50116964D915D9117
:100780006D917C911997411551056105710549F0ED
:1007900093018201C4010E942717811102C080E0E9
:1007A0002AC0D50116964D925D926D927C92199752
:1007B000332051F0D301C2010196A11DB11DF401F6
:1007C00080839183A283B383F5018789908DA18D66
:1007D000B28D892B8A2B8B2B69F4D50157964D92BC
:1007E0005D926D927C925A9714968C9114978068C2
:1007F00014968C9381E02C960FB6F894DEBF0FBE52
:10080000CDBFDF91CF911F910F91FF90EF90DF90BF
:10081000CF90BF90AF909F908F907F906F905F90A0
:100820004F903F9008958FB7F8948091B5028FBF95
:10083000089561E0FC0184810E9411108091B4024E
:1008400081111092B40208958EBD00000DB407FE10
:10085000FDCF8EB508958FEF0C9424040F931F9352
:10086000CF93DF93EB010E94371A8B010E942B0478
:100870008F3F49F00E94371A601B710B6C177D0780
:10088000A8F380E001C081E0DF91CF911F910F912B
:100890000895CF93DF93EC018E81882389F08F81B7
:1008A00098859C012F5F3F4F38872F83823092407D
:1008B00018F40E942B04F3CFCE010E9419041E826B
:1008C000DF91CF9108958CBD9DBD0895CF93DF93A7
:1008D000EC018091B402811109C081E08093B402DF
:1008E0008091DB059091DC050E94630460E08C81BF
:1008F000DF91CF910C9411108F929F92AF92BF9283
:10090000FF920F931F93CF93DF93EC01F62E4901D3
:100910005A010E944904CE010E9466046CE271E013
:10092000CE010E942E048F2D80640E94240408E1D1
:1009300010E0D501C401002E04C0B695A795979587
:1009400087950A94D2F70E94240408501109083FA1
:100950008FEF180771F7FF2029F088E0F81204C024
:1009600087E803C085E901C08FEF0E94240410E0EE
:100970000E942B048A8787FF04C01F3F11F01F5F6E
:10098000F7CFDF91CF911F910F91FF90BF90AF9064
:100990009F908F900895AF92BF92CF92DF92EF9287
:1009A000FF920F931F93CF93DF93EC016901C8016E
:1009B000820F931F8130924008F070C08E8188238F
:1009C00071F088819981AA81BB8184179507A60758
:1009D000B70729F48F819885C816D906B0F54883E2
:1009E00059836A837B838B85833039F089E0440F98
:1009F000551F661F771F8A95D1F79A01AB0161E1F8
:100A0000CE010E947C04882319F083E08D8346C0C8
:100A10000E94371A5B010E942B048A878F3F49F49A
:100A20000E94371A6A197B096D327140A0F38FE07A
:100A300003C08E3F31F08DE08D83CE010E941904FA
:100A40002DC018861F8281E08E838F8198858C153A
:100A50009D0540F40E942B048F819885019698870C
:100A60008F83F3CF6701E00EF11EEC14FD0431F02B
:100A70000E942B04F60181936F01F7CF8F81988537
:100A8000080F191F18870F838985882319F001150E
:100A9000124048F0CE010E94490405C0CE010E94D8
:100AA000190480E001C081E0DF91CF911F910F9187
:100AB000FF90EF90DF90CF90BF90AF900895EF92AE
:100AC000FF920F931F93CF93DF93EC0179014115B0
:100AD00051056105710511F482E13CC08B858330BD
:100AE00039F089E0440F551F661F771F8A95D1F7AB
:100AF0009A01AB0168E1CE010E947C04882311F0C9
:100B000084E028C08EEF0E94240487018EEFF81A3B
:100B1000F80181918F010E942404E016F106C1F7CB
:100B20008FEF0E9424048FEF0E9424040E942B0464
:100B30008A878F71853031F081E18D83CE010E94EB
:100B4000190409C068E572E0CE010E942E048111EB
:100B500007C085E18D83CE010E94190480E014C096
:100B600020E030E0A9016DE0CE010E947C048111FB
:100B700009C00E942B04811105C0CE010E941904F6
:100B800081E002C084E1E6CFDF91CF911F910F9108
:100B9000FF90EF9008952F923F924F925F926F9245
:100BA0007F928F929F92AF92BF92CF92DF92EF92FD
:100BB000FF920F931F93CF93DF9300D000D0CDB758
:100BC000DEB78C016B011A01DC0115968C9115972B
:100BD0008130C9F414968C9181FF15C082FF1DC02D
:100BE000F801438954896589768982859385A4852E
:100BF000B58584179507A607B70779F0C8010E9445
:100C0000700181110AC081E090E0D80113969C9395
:100C10008E93129780E090E048C1410183C05B96BB
:100C20008D919C915C97FC0174802FEF270D2A0118
:100C30003B0139E076946794579447943A95D1F7FD
:100C4000722E74207A01F1E0FF22772009F476C039
:100C500080E092E08E199F0954018815990508F4E7
:100C60005C01D8015B962D913C915C9716968D9115
:100C70009D910D90BC91A02D0297A109B109F90198
:100C8000058404C0880F991FAA1FBB1F0A94D2F7BE
:100C90004685578560897189840F951FA61FB71FE8
:100CA0009C01AD01270D311D411D511D29013A0146
:100CB000A11432E0B30609F088C08091040190913C
:100CC0000501A0910601B0910701481659066A0670
:100CD0007B0659F48FEF9FEFDC0180930401909322
:100CE0000501A0930601B09307019601B301A2018B
:100CF0008091C4049091C5040E945F05882309F483
:100D000082CF9EEFD91A8A189B08F80182859385B5
:100D1000A485B5858A0D9B1DA11DB11D8287938772
:100D2000A487B587D8011A964D915D916D917C91FC
:100D30001D978114910409F072CF87C0E114F1046A
:100D400009F086CF16964D915D916D917C91199722
:100D5000411551056105710559F457968D919D9185
:100D60000D90BC91A02D0097A105B10541F521C0C2
:100D70009E012F5F3F4F0E94C817882309F44BCF75
:100D800089819A81AB81BC81F801238D348DF90171
:100D90002789203129F048EF5FEF6FEF7FE004C033
:100DA00048EF5FEF60E070E084179507A607B7078C
:100DB00030F0C8010E94100381114ACF24CFF801FE
:100DC00086839783A087B18743CFE114F10429F587
:100DD000D8011A964D915D916D917C911D97539616
:100DE0008D919D910D90BC91A02D481759076A07D0
:100DF0007B0798F00E94A316882309F404CF409241
:100E000004015092050160920601709207018091E1
:100E1000330681608093330608C041E0C301B2010C
:100E20000E94DE16882309F4EECED601F701EC53BA
:100E3000FD4F9F012A0D3B1D2E173F0719F08D9185
:100E40008193FACFCA0CDB1C5ECFD8015396CD90AC
:100E5000DD90ED90FC90569714968C91C416D506B3
:100E6000E606F70640F4F801438B548B658B768BCE
:100E7000806884830DC02091680230916902232B21
:100E800039F02114310421F08068D80114968C9334
:100E9000F801848183FD02C0C10107C0C8010E941E
:100EA000D500882309F4AFCEF7CF0F900F900F90A5
:100EB0000F90DF91CF911F910F91FF90EF90DF90F6
:100EC000CF90BF90AF909F908F907F906F905F90EA
:100ED0004F903F902F900895CF93DF93EC01898D31
:100EE0009A8D009739F481E090E09B838A8380E0BB
:100EF00090E00BC0FC01138212820E94CB05E98DA9
:100F0000FA8D22813381232B71F7DF91CF910895E0
:100F1000FC01DB0112968D919C9113979383828340
:100F20008CE591E09183808314968C91149784834F
:100F300015968C911597858316964D915D916D91BF
:100F40007C91199746835783608771871A964D91D4
:100F50005D916D917C911D9742875387648775875A
:100F60001E964D915D916D917C9151974687578763
:100F7000608B718B52968C915297828B53964D91C8
:100F80005D916D917C915697438B548B658B768BDD
:100F900057964D915D916D917C915A97478B508FEB
:100FA000618F728F5B968D919C915C97948F838FEC
:100FB00008954F925F926F927F92AF92BF92CF92BD
:100FC000DF92EF92FF920F931F93CF93DF931F92C5
:100FD000CDB7DEB7FC012581222309F4C1C084818D
:100FE00080FFBEC083899489A589B68942845384D1
:100FF0006484758484159505A605B70509F4B0C009
:101000006F015201F1E0BF22D6015B968D919C9158
:101010005C97B301A20139E076956795579547959E
:101020003A95D1F7223071F4FC01828D938DA48D15
:10103000B58D8A019B01080F191F2A1F3B1FC9018B
:10104000B8014AC0DC0114961C9111501423A1145C
:10105000B104F9F411111DC045284628472851F460
:10106000F6018789908DA18DB28D86839783A087A5
:10107000B1870FC0D60116964D915D916D917C910F
:10108000199796012A5F3F4F0E94C817882309F4D9
:1010900067C0F601238D348D86819781A085B18547
:1010A0000297A109B109AC01BD01F901058404C091
:1010B000440F551F661F771F0A94D2F786859785C0
:1010C000A089B189840F951FA61FB71FBC01CD0150
:1010D000610F711D811D911DD60114962C9126FF63
:1010E0000DC0409004015090050160900601709081
:1010F0000701461657066806790699F440E00E94F3
:10110000DE16882369F1F501EC53FD4FDE011196DF
:101110009F012F5F3F4F2E173F0799F081918D93CD
:10112000FACFFE0131967F0101E010E09501AB019D
:10113000BC018091C4049091C5040E94CB04882313
:1011400079F0F60182859385A485B5850196A11D68
:10115000B11D82879387A487B587898190E002C0FB
:101160008FEF9FEF0F90DF91CF911F910F91FF9025
:10117000EF90DF90CF90BF90AF907F906F905F9097
:101180004F900895FC01818D928D009711F00C9481
:10119000D9078FEF9FEF08950F931F93CF93DF939E
:1011A000FC01818D928D0097B9F0EF010E94D90763
:1011B0008C010F3F8FEF180791F0898D9A8DFC01FC
:1011C00042855385648575854150510961097109CE
:1011D0000E947001C80105C080E090E002C08FEF5E
:1011E0009FEFDF91CF911F910F9108959F92AF9242
:1011F000BF92CF92DF92EF92FF920F931F93CF9304
:10120000DF936C015B01FC011082FB01108200E0A6
:1012100010E0C0E0D0E082E0E82EFF24F39493E0F9
:10122000992E86E00E94E80F811125C021968091B9
:101230006102813049F028F0823071F08330A9F0EA
:101240001EC0F09261021BC0C436D105C1F4F60184
:101250008083E092610211C0C83EF3E0DF0779F4B9
:10126000F601F0829092610208C0C83CD10539F4C1
:10127000F601F08202C010926102C0E0D0E085E089
:101280000E94E80F811126C00F5F1F4F80916002FE
:10129000813049F028F0823071F08330A9F01EC00F
:1012A000F09260021BC004361105C1F4F501808381
:1012B000E092600211C0083EF3E01F0779F4F501E7
:1012C000F0829092600208C0083C110539F4F501E3
:1012D000F08202C01092600200E010E0F60180810E
:1012E000811102C0209739F4F501808181110AC073
:1012F0000115110539F061E070E080E090E00E9496
:10130000A3118FCFDF91CF911F910F91FF90EF909D
:10131000DF90CF90BF90AF909F900895CF93DF93D1
:1013200000D000D0CDB7DEB740910E0150910F0133
:10133000609110017091110149835A836B837C8302
:10134000813069F048F0823079F0833091F48FE495
:101350008C8388EE93E00FC08FE38C830AC086E015
:101360008C838AEF90E007C08BE58C8384EF91E05B
:1013700002C084E690E0BB24BA940FE06C01E12C3B
:10138000F12C18E061E087E00E941110B0926C022D
:101390000093280640E064E0CE0101960E94EA1026
:1013A000C701B6010E94A31160E087E00E941110FE
:1013B0001093280640E064E0CE0101960E94EA10F6
:1013C000C701B6010E94A311DDCF2F923F924F9229
:1013D0005F926F927F928F929F92AF92BF92CF92C5
:1013E000DF92EF92FF920F931F93CF93DF93CDB7CE
:1013F000DEB7C556D1090FB6F894DEBF0FBECDBF1C
:10140000C12CD12C8FEF282E81E0382E96EB492E5F
:1014100092E0592E2CE5A22E21E0B22EDF92CF923F
:1014200080916D02282F082E000C330B3F938F9371
:101430003F922F925F924F920E9407261EAE1DAEE2
:10144000BCAEABAE21961FAE219719A218A2BF8EDB
:10145000AE8E1BA20FB6F894DEBF0FBECDBF612CBF
:10146000712CFE01FB967F0107E016E0C301F3013A
:10147000EA54FD4F20812F3209F40196DC01AA5471
:10148000BD4FFE01E85AFF4F20E030E04F014D9183
:101490004F3249F0442339F02F5F3F4F019641937B
:1014A0002C303105A1F7F401E20FF31F1082FC018B
:1014B000EA54FD4F20812F3209F401963C01FC01D2
:1014C000EA54FD4F8081A6968FAFA6971C821B829F
:1014D000BA82A9821E8221E0A401B801CE01019640
:1014E0000E944B18882351F0CE0101960E940403FC
:1014F000A6969FADA697911106C020C0E6E00730E2
:101500001E0799F535C0F701858181112AC021E0B8
:10151000A401B801C7010E944B18982EF6E00730CD
:101520001F0709F455C0C8010E940403992001F166
:10153000902F812F8701E92EF82E98CF86E0073073
:10154000180719F0C8010E9404039FEFC91AD90AAD
:10155000E8EECE16E3E0DE0609F060CF82E00E94FE
:101560008E09F6E007301F0719F0C8010E94040336
:1015700061E087E00E9411108FEF80936C02CE0132
:1015800001960E94A40EEA8DFB8D309739F185817A
:10159000882321F16EE072E0CE0101960E940714CB
:1015A00066EB72E0CE0101960E94071480916D02F5
:1015B000893419F465E172E002C06DE372E0CE0196
:1015C00001960E940714CE0101960E94920E06C059
:1015D000882371F28E01025E1F4FAACFCB59DF4FD5
:1015E0000FB6F894DEBF0FBECDBFDF91CF911F9134
:1015F0000F91FF90EF90DF90CF90BF90AF909F90B2
:101600008F907F906F905F904F903F902F900895B4
:1016100080937902E1E8F0E0108210928500109248
:101620008400809176028061808381E080937802DB
:10163000809377020895FC019081961728F0941703
:1016400018F49F5F908301C0608310928100109214
:1016500085001092840080917602806180938100E1
:1016600081E080937802809377020895EF92FF9251
:101670000F931F93CF93DF9300D000D000D0CDB74E
:10168000DEB77C018B014091720250917302609130
:10169000740270917502CE0101960E94FD14898139
:1016A00090E04496982F8827990F2A8140E2249F42
:1016B000900111244B81242B822B932BF7019183D2
:1016C00080838D81F0E28F9F900111249C81892F6E
:1016D00090E0982F8827990F990F990F822B932BC1
:1016E0002E8130E035952795822B932BF80191833D
:1016F000808326960FB6F894DEBF0FBECDBFDF9174
:10170000CF911F910F91FF90EF900895809129063E
:1017100090912A068230910538F0880F991F880F22
:10172000991F05970197F1F70895833081F028F408
:10173000813099F08230A1F008958730A9F0883087
:10174000B9F08430D1F4809180008F7D03C0809106
:1017500080008F7780938000089584B58F7702C0D2
:1017600084B58F7D84BD08958091B0008F7703C0CC
:101770008091B0008F7D8093B0000895EF92FF922A
:101780000F931F93CF93DF93EC017B018A011B82A0
:101790001A8288EE93E0A0E0B0E08C839D83AE8354
:1017A000BF8386E291E0998388838DE190E00E9477
:1017B000BA249A8F898F009779F02DE1F701DC0127
:1017C00001900D922A95E1F74CE050E0B801CE016E
:1017D0000C960E94F825188EDF91CF911F910F91E2
:1017E000FF90EF90089530913105313208F04BC0F1
:1017F00080910E058111FCCF9091320622E020935A
:101800000E0521E020930D052FEF20930C0510927B
:101810000B0530930A05E1E1F5E0AAEEB4E020E023
:10182000321721F041914D932F5FFACF1092E904C6
:101830002091E904990F922B9093E9049091E80488
:10184000913061F41092E8049091E9049093BB0008
:101850009091BC0093FDF8CF95EC01C095EE90936C
:10186000BC0090910E059230E1F390910C059F3FE2
:1018700079F080910C05803241F080910C05803325
:1018800031F084E005C081E003C082E001C083E064
:10189000109210051092310510920F050895682FCF
:1018A0008FEC95E00C94771391E090930F05809363
:1018B00032061092100510923105089590910E0590
:1018C0009111FCCF982F813208F090E281E0809353
:1018D0000E0580930D052FEF20930C0510920B053C
:1018E000290F20930A058093E9048091E904806D13
:1018F0008093E9048091E804813061F41092E80457
:101900008091E9048093BB008091BC0083FDF8CFF7
:1019100085EC01C085EE8093BC0080910E0581307E
:10192000E1F380910B05891710F490910B05EAEE15
:10193000F4E0A8ECB4E080E0891721F021912D9328
:101940008F5FFACF1092C7048093C60408954F9218
:101950005F926F927F92AF92BF92CF92DF92EF929F
:10196000FF920F931F93CF93DF9300D000D0CDB79A
:10197000DEB78C0149835A836B837C835901C12C68
:10198000D12C7601412C82E0582E612C712C49819A
:101990005A816B817C819E012F5F3F4FC8010E945D
:1019A000C817882351F1D301C201F801058404C08E
:1019B000880F991FAA1FBB1F0A94D2F7C80ED91E01
:1019C000EA1EFB1E49815A816B817C8187898031A7
:1019D00029F088EF9FEFAFEFBFE004C088EF9FEFE3
:1019E000A0E0B0E0481759076A077B0780F2F501CD
:1019F000C082D182E282F38281E00F900F900F903B
:101A00000F90DF91CF911F910F91FF90EF90DF909A
:101A1000CF90BF90AF907F906F905F904F90089560
:101A2000CF93DF93FC012581222311F080E049C090
:101A3000EC01809100068031C1F482E08583178A31
:101A4000108E118E128E8091010690910206A0E0F8
:101A5000B0E025E0880F991FAA1FBB1F2A95D1F778
:101A6000838B948BA58BB68B19C08032F9F683E0FB
:101A7000858340910306509104066091050670919C
:101A80000606478B508F618F728F9F012D5E3F4FEF
:101A900089EE95E00E94A70C882341F289EE95E03B
:101AA0009C8F8B8F81E08C831E821F821886198603
:101AB0001A861B861C861D861E861F86188A198A12
:101AC0001A8ADF91CF9108958F929F92AF92BF9221
:101AD000CF92DF92EF92FF92CF93DF93C82F8DEDDD
:101AE00095E09093C5048093C404CC2369F1C5307C
:101AF00010F080E00CC140E060E070E0CB010E949B
:101B0000DE168823B1F320E1C29FC00111248C545A
:101B10009D4FFC01E254FE4F20812F7751F73C96F8
:101B2000408151816281738144365105610571059F
:101B300000F33497C080D180E280F380C114D104D7
:101B4000E104F10421F4D5CFC12CD12C760140E081
:101B5000C701B6010E94DE16882359F28091CF0298
:101B60009091D0028115924021F6A091D402AA232F
:101B700009F4BFCF6091D2027091D3026115710553
:101B800009F4B7CF2091D102222309F4B2CFA09358
:101B9000FB052093ED0580E030E041E050E0C82FE8
:101BA000FA01082E02C0EE0FFF1F0A94E2F72E176B
:101BB0003F0739F08F5FC83091F789E08093F605D1
:101BC00098CF8093F6052091DA023091DB0221153F
:101BD000310519F040E050E008C02091E802309152
:101BE000E9024091EA025091EB022093EE05309316
:101BF000EF054093F0055093F10546015701860E1D
:101C0000971EA11CB11C8092FC059092FD05A0922C
:101C1000FE05B092FF05E091D502F091D602F09357
:101C20000206E0930106B0E00E94D723860E971EBD
:101C3000A81EB91E8092030690920406A092050683
:101C4000B092060685E0EE0FFF1F8A95E1F7E1509E
:101C5000FE4FEF2FFF27E6958E0E9F1EA11CB11C95
:101C60008092F7059092F805A092F905B092FA05D6
:101C70002091D7023091D8022115310521F0A90118
:101C800060E070E008C04091E4025091E50260918C
:101C9000E6027091E702D701C60188199909AA09DD
:101CA000BB09840F951FA61FB71F04C0B695A79543
:101CB00097958795CA95D2F78093F2059093F3058F
:101CC000A093F405B093F505853F2FE09207A10599
:101CD000B10510F48CE018C0853F9F4FA105B105F8
:101CE00010F480E111C08091F0029091F102A09176
:101CF000F202B091F3028093030690930406A0933E
:101D00000506B093060680E28093000681E0DF912D
:101D1000CF91FF90EF90DF90CF90BF90AF909F90CA
:101D20008F900895CF93DF93EC01898D9A8D009762
:101D300041F00E940403898D9A8D0E9452251A8ECB
:101D4000198EDF91CF9108952F923F924F925F921B
:101D50006F927F928F929F92AF92BF92CF92DF92BB
:101D6000EF92FF920F931F93CF93DF93CDB7DEB720
:101D7000C456D1090FB6F894DEBF0FBECDBF5C01CB
:101D800019A218A28CE591E09F8F8E8F1BA21C8256
:101D90001B829A8389831E824E018EE1880E911CDC
:101DA000C4010E94100D8E010F5F1F4F240186EBAE
:101DB000C82E82E0D82E18016FE270E0C6010E94A2
:101DC000ED25009709F442C0F60120812F3221F45D
:101DD000FFEFCF1ADF0AF0CF8C198D3008F08CE0BE
:101DE000E82EF12CA701B601CE01885A9F4F0E9420
:101DF000F825E8E5F0E0EC0FFD1FEE0DFF1D108269
:101E0000C8010E940403F8018581882351F01EAEA9
:101E10001DAE8CE591E09CAF8BAF21961FAE219754
:101E20001EC021E0AE01485A5F4FB201C8010E94B6
:101E30004B18882361F3CE0CDF1CC2010E940403FF
:101E4000942D852D2801092F182FB6CFC601865B4A
:101E500092403C01B201CE01CB960E9488078301DB
:101E60000A541D4FF8018081811109C0BE01655CD3
:101E70007F4FC1010E9488074EE552E039C019A288
:101E800018A28CE591E09F8F8E8F1BA221968FADBB
:101E90002197811113C0F5011382128288EE93E01D
:101EA000A0E0B0E084839583A683B78386E291E0C7
:101EB00091838083128E118E14861EC027E1A801A3
:101EC000BE01655C7F4FC4010E944B18882319F343
:101ED000CE01CB960E94040349A95AA96BA97CA9FB
:101EE000C4010E947001B401C1010E948807A801C9
:101EF000B101C5010E94BE0BC501CC59DF4F0FB621
:101F0000F894DEBF0FBECDBFDF91CF911F910F912F
:101F1000FF90EF90DF90CF90BF90AF909F908F9009
:101F20007F906F905F904F903F902F9008958F9289
:101F30009F92AF92BF92EF92FF920F931F93CF9316
:101F4000DF938B017C01C0E0D0E0C017D107A1F185
:101F50000E94371A60933A0570933B0580933C05C5
:101F600090933D0582E395E00E94171297FF1FC0F2
:101F70000E94371A80903A0590903B05A0903C054E
:101F8000B0903D05DC01CB0188199909AA09BB096C
:101F90008090360590903705A0903805B0903905AF
:101FA00088159905AA05BB05E8F28E0105C0F70161
:101FB00081937F012196C9CFC801DF91CF911F91F5
:101FC0000F91FF90EF90BF90AF909F908F900895EA
:101FD000CF93DF93282F30E0F901E255FF4F849132
:101FE000F901E656FF4FD491F901EA57FF4FC4912A
:101FF000CC2391F081110E94950BEC2FF0E0EE0FB5
:10200000FF1FE458FF4FA591B491EC91ED2381E0BF
:1020100090E021F480E002C080E090E0DF91CF9179
:1020200008951F93CF93DF93282F30E0F901E255F5
:10203000FF4F8491F901E656FF4FD491F901EA5719
:10204000FF4FC491CC23C1F0162F81110E94950B34
:10205000EC2FF0E0EE0FFF1FEE58FF4FA591B4916B
:102060009FB7F894111104C08C91D095D82302C069
:10207000EC91DE2BDC939FBFDF91CF911F910895F0
:10208000CF93DF9390E0FC01E656FF4F2491FC01D3
:10209000EA57FF4F8491882361F190E0880F991FE0
:1020A000FC01E859FF4FC591D491FC01EE58FF4F58
:1020B000A591B491611109C09FB7F89488812095CA
:1020C00082238883EC912E230BC0623061F49FB78A
:1020D000F8948881322F309583238883EC912E2BBE
:1020E0002C939FBF06C08FB7F894E8812E2B2883CE
:1020F0008FBFDF91CF910895CF93DF93C6E2D6E0F3
:1021000061E089810E9440100E94860B60E0888116
:102110000E9440100E94860B60E089810E9440105E
:10212000DF91CF910C94860BCF93DF93D82FC8E02B
:1021300061E0809126060E9440100E94860BD0FF2D
:1021400002C060E001C061E0809127060E9440105B
:102150000E94860B60E0809126060E9440100E943B
:10216000860BD695C15021F761E0809126060E942A
:10217000401060E0809127060E9440100E94860B6C
:1021800060E0809126060E9440100E94860B80919C
:1021900027060E94E80FC82F811105C061E08091D9
:1021A00027060E9440100E94860B61E0809126065F
:1021B0000E9440100E94860B81E0C11101C080E0A6
:1021C000DF91CF91089561E0809127060E94401031
:1021D0000C94860BFF920F931F93CF93DF93F82EEF
:1021E000092F162FC42F0E94E31080E40E94941040
:1021F0000E947C100E94E3108C2F837080540E94F8
:102200009410CF2DD02FCE01810F911D8C01C017BE
:10221000D10721F089910E949410F9CF0E947C107F
:102220000E94E310809128068F7080580E949410BD
:10223000DF91CF911F910F91FF900C947C10CF9361
:10224000DF9300D000D0CDB7DEB719821A821B828F
:102250001C8240E064E0CE0101960E94EA100F90DB
:102260000F900F900F90DF91CF9108958F929F92D2
:10227000AF92BF92CF92DF92EF92FF920F931F9394
:10228000CF93DF9300D000D0CDB7DEB7D62EC42ECB
:10229000BC0197FF03C0719561957109FB01392F4E
:1022A000331F3327331F8E010F5F1F4F5801AC0CB4
:1022B000B11C78018AE0882E912C40E40A151B0598
:1022C000D1F0CF01B4010E946A24DC01BB27AE5ECD
:1022D000BE4F9C91D5019E935D01811106C0309740
:1022E00021F4332311F04C9330E0CF01B4010E946C
:1022F0006A24FB01E3CFD11016C0422F6C2DC80118
:102300000E94EA100F900F900F900F90DF91CF91E5
:102310001F910F91FF90EF90DF90CF90BF90AF9003
:102320009F908F900895AE014B5F5F4F8D2D807809
:10233000F7019081892BD7018D937D01DD0C4A1720
:102340005B07A1F7DACF8F929F92AF92BF92CF92A5
:10235000DF92EF92FF926B017C010E94121A4B01F7
:102360005C01C114D104E104F104F1F00E94121ADD
:10237000DC01CB0188199909AA09BB09883E934061
:10238000A105B10570F321E0C21AD108E108F108F6
:1023900088EE880E83E0981EA11CB11CC114D104E4
:1023A000E104F10419F7DDCFFF90EF90DF90CF90BB
:1023B000BF90AF909F908F9008950895CF92DF9235
:1023C000EF92FF920F931F93CF93DF936C017A01EB
:1023D0008B01C0E0D0E0CE15DF0581F0D8016D9112
:1023E0008D01D601ED91FC910190F081E02DC601A7
:1023F0000995892B11F02196EECF7E01C701DF915F
:10240000CF911F910F91FF90EF90DF90CF900895A3
:10241000FC01538D448D252F30E0842F90E0821BEA
:10242000930B541710F0CF96089501970895FC016F
:10243000918D828D981761F0828DDF01A80FB11DFB
:102440005D968C91928D9F5F9F73928F90E008951F
:102450008FEF9FEF0895FC01918D828D981731F0D9
:10246000828DE80FF11D858D90E008958FEF9FEF2D
:102470000895FC01918D228D892F90E0805C9F4F03
:10248000821B91098F739927089582E395E00E943A
:10249000391221E0892B09F420E0822F0895FC01F4
:1024A000848DDF01A80FB11DA35ABF4F2C91848DDD
:1024B00090E001968F739927848FA689B7892C9312
:1024C000A089B1898C91837080648C93938D848D65
:1024D000981306C00288F389E02D80818F7D808368
:1024E0000895EF92FF920F931F93CF93DF93EC0128
:1024F00081E0888F9B8D8C8D981305C0E889F989C0
:10250000808185FD26C0F62E0B8D10E00F5F1F4FDA
:102510000F731127E02E8C8DE8120CC00FB607FC4C
:10252000FACFE889F989808185FFF5CFCE010E9435
:102530004F12F1CF8B8DFE01E80FF11DE35AFF4FD3
:10254000F0829FB7F8940B8FEA89FB8980818062C3
:102550000AC09FB7F894EE89FF896083E889F989FA
:1025600080818370806480839FBF81E090E0DF91F1
:10257000CF911F910F91FF90EF900895CF93DF932C
:10258000EC01888D8823C9F0EA89FB89808185FD6B
:1025900005C0A889B9898C9186FD0FC00FB607FCCC
:1025A000F5CF808185FFF2CFA889B9898C9185FF0D
:1025B000EDCFCE010E944F12E7CFDF91CF9108956A
:1025C00080E090E0892B29F00E94451281110C9443
:1025D0000000089585ED8093BC008091BC0084FDCF
:1025E000FCCF10920E05089540915806262F30E03A
:1025F000240F311D21323105DCF420910E052430E9
:10260000C9F4FC0180E090E0861758F43091580638
:102610002191DC01A85CB94FA30FB11D2C93019649
:10262000F3CF80915806680F6093580680E00895B4
:1026300081E0089582E00895089508950895E09155
:10264000C7048091C604E81730F4F0E0E853FB4F6C
:10265000808190E008958FEF9FEF08959091C704D7
:102660008091C604981750F4E92FF0E0E853FB4F2F
:10267000208130E09F5F9093C70402C02FEF3FEFAF
:10268000C90108958091C60490E02091C704821B7F
:1026900091090895CF92DF92EF92FF920F931F93CB
:1026A000CF93DF937C01CB018A0120910F05222378
:1026B00089F0EB016B01C40ED51ECC15DD0569F068
:1026C0006991D701ED91FC910190F081E02DC70156
:1026D0000995F3CF642F0E94F412C801DF91CF91C6
:1026E0001F910F91FF90EF90DF90CF900895CF93BF
:1026F000DF931F92CDB7DEB7698320910F052223A8
:10270000D1F020913105203240F021E030E0FC0191
:102710003383228380E090E015C080911005E82F7C
:10272000F0E0EF5EFA4F998190838F5F8093100500
:102730008093310505C061E0CE0101960E94F4123C
:1027400081E090E00F90DF91CF9108950E94DB250A
:10275000CF93DF931F92CDB7DEB7698341E050E09E
:10276000BE016F5F7F4F0E94CB050F90DF91CF912D
:1027700008951F920F920FB60F9211242F933F933B
:102780004F935F936F937F938F939F93AF93BF9379
:10279000EF93FF93E0910201F09103010995FF91FE
:1027A000EF91BF91AF919F918F917F916F915F91C9
:1027B0004F913F912F910F900FBE0F901F90189542
:1027C0001F920F920FB60F9211242F933F934F93A6
:1027D0005F936F937F938F939F93AF93BF93EF9389
:1027E000FF93E0910001F09101010995FF91EF91B4
:1027F000BF91AF919F918F917F916F915F914F9119
:102800003F912F910F900FBE0F901F90189561155B
:10281000710579F0FB0101900020E9F73197AF01D4
:10282000461B570BDC01ED91FC910280F381E02DFA
:10283000099480E090E008951F920F920FB60F92D6
:1028400011242F933F934F935F936F937F938F93B5
:102850009F93AF93BF93EF93FF9382E395E00E9422
:102860004F12FF91EF91BF91AF919F918F917F9107
:102870006F915F914F913F912F910F900FBE0F90ED
:102880001F9018951F920F920FB60F9211242F933D
:102890008F939F93EF93FF93E0914205F09143054F
:1028A0008081E0914805F091490582FD12C0908138
:1028B00080914B058F5F8F7320914C05821751F0EB
:1028C000E0914B05F0E0EE5CFA4F958F80934B055D
:1028D00001C08081FF91EF919F918F912F910F9077
:1028E0000FBE0F901F9018951F920F920FB60F9268
:1028F00011242F933F934F935F936F937F938F9305
:102900009F93AF93BF93EF93FF93E0916202F09197
:1029100063020995FF91EF91BF91AF919F918F91C4
:102920007F916F915F914F913F912F910F900FBECB
:102930000F901F901895EF92FF920F931F93CF93D4
:10294000DF93EC0169813881432F50E08A8190E068
:10295000E2EDF0E021E0261730F47491870F911D2D
:102960002F5F3196F8CF633018F0337009F4019679
:102970006DE671E0469F9001479F300D569F300DE8
:102980001124215031094D5F5F4F5695479556955B
:102990004795240F351F280F391FA8E1B0E00E948A
:1029A00019242B817B018C01E20EF11C011D111DEC
:1029B000A8019701ACE3B0E00E94D7232C817B01F2
:1029C0008C01E20EF11C011D111DA80197010E944E
:1029D000D7232D81DC01CB01820F911DA11DB11DDB
:1029E000BC01CD0160587C4B8249974CDF91CF915F
:1029F0001F910F91FF90EF9008958F929F92AF9249
:102A0000BF92CF92DF92EF92FF92CF93DF93EC01D0
:102A10006A017B0180E8C81A83E4D80A8DE6E80AD7
:102A200088E3F80A8CE3882E912CA12CB12CC701E5
:102A3000B601A50194010E9492246D83CA01B901D7
:102A4000A50194010E9492246C83C701B60120E184
:102A50003EE040E050E00E949224CA01B90128E122
:102A600030E040E050E00E9492246B83C701B60141
:102A700020E831E541E050E00E949224188248812C
:102A8000542F537081E009F080E090E0BC0163595D
:102A90007E4F2617370738F0281B390B2D5631404B
:102AA0004F5F4883ECCF81E089838981E82FF0E094
:102AB000EF52FF4FE491511103C0823009F4EF5FF0
:102AC000F0E02E173F0720F02E1B3F0B8F5FECCF5F
:102AD0002F5F2A83DF91CF91FF90EF90DF90CF900F
:102AE000BF90AF909F908F9008951F920F920FB656
:102AF0000F9211242F933F934F935F936F937F9384
:102B00008F939F93AF93BF93EF93FF938091B900FF
:102B1000887F803609F49CC068F5883209F45BC070
:102B200090F4803109F454C038F4882309F4F6C0D5
:102B3000883009F44DC0F6C0883109F44CC08032A9
:102B400009F45DC0EFC0803409F468C048F48033F4
:102B500009F455C0883309F0E5C080930C05D8C04E
:102B6000803509F44FC0883509F45DC0883409F018
:102B7000D9C0D6C0883909F4C7C0A8F4883709F489
:102B800067C038F4883609F463C0803709F460C040
:102B9000C9C0883809F4B8C0803909F45FC08038EA
:102BA00009F0C0C05BC0803B09F486C038F4803AAD
:102BB00009F466C0883A09F47FC0B4C0803C09F4C7
:102BC000A7C0883C09F4A4C0883B09F48AC0AAC005
:102BD0008091E90410C090910B0580910A05981727
:102BE00070F5E0910B0581E08E0F80930B05F0E00E
:102BF000E651FB4F80818093BB0085EC86C08093BB
:102C00000C058EC0E0910B0581E08E0F80930B05C3
:102C10008091BB00F0E0E651FB4F808390910B0563
:102C200080910A056EC0E0910B0581E08E0F8093C4
:102C30000B058091BB00F0E0E651FB4F8083809153
:102C40000D0581116DC081E08093E80484EA61C0C4
:102C500083E080930E0510927A06CFCF80917A069A
:102C6000803208F051C0E0917A0681E08E0F8093A7
:102C70007A068091BB00F0E0E65AF94F8083BDCF21
:102C800085EC8093BC0010920E0580917A0680320C
:102C900030F4E0917A06F0E0E65AF94F1082609144
:102CA0007A0670E0E0916402F09165028AE596E0B0
:102CB000099510927A0636C084E080930E05109232
:102CC000590610925806E0916602F0916702099544
:102CD00080915806811105C081E0809358061092BA
:102CE0003806E091590681E08E0F80935906F0E096
:102CF000E85CF94F80818093BB00909159068091E8
:102D00005806981708F479CF85E88093BC000AC06C
:102D100085EC8093BC0010920E0504C010920C0547
:102D20000E94EA12FF91EF91BF91AF919F918F9115
:102D30007F916F915F914F913F912F910F900FBEB7
:102D40000F901F901895809133068823A9F1409128
:102D5000040150910501609106017091070124EC76
:102D600032E08091C4049091C5040E945F058111F6
:102D700002C080E00895409134065091350660917C
:102D8000360670913706411551056105710591F0C0
:102D900024EC32E08091C4049091C5040E945F0548
:102DA000882339F3109234061092350610923606B5
:102DB000109237061092330681E008958F929F9209
:102DC000AF92BF92EF92FF920F931F93CF934B015D
:102DD0005C01C42F8091040190910501A09106012E
:102DE000B091070188159905AA05BB0501F10E945C
:102DF000A316811102C080E020C084ECE82E82E09E
:102E0000F82E00E012E020E030E0B501A40180914E
:102E1000C4049091C5040E94CB04882361F380927E
:102E2000040190920501A0920601B09207018091E1
:102E30003306C82BC093330681E0CF911F910F91C9
:102E4000FF90EF90BF90AF909F908F9008954F921A
:102E50005F926F927F928F929F92AF92BF92CF922A
:102E6000DF92EF92FF920F931F93CF93DF93EC01CA
:102E7000423051056105710510F480E078C0898504
:102E80009A85AB85BC850196A11DB11D8417950758
:102E9000A607B70790F3CB88DC88ED88FE888F897A
:102EA000803129F4BB27A72F962F852F09C0DB017E
:102EB000CA01E7E0B695A79597958795EA95D1F76A
:102EC000480159012A013B01C80ED91EEA1EFB1E0A
:102ED0008091040190910501A0910601B091070134
:102EE000C816D906EA06FB0681F48F898031A9F459
:102EF000B301A201552766277727440F551FFA0112
:102F0000EC53FD4F9182808219C040E0C701B601A9
:102F10000E94DE168111E9CFB0CFB301A2014F7735
:102F2000552766277727440F551F440F551FFA0171
:102F3000EC53FD4F80829182A282B382809133064E
:102F40008160809333068A89823080F08D819E81F2
:102F5000AF81B885C80ED91EEA1EFB1EC09234068A
:102F6000D0923506E0923606F092370681E0DF9186
:102F7000CF911F910F91FF90EF90DF90CF90BF9076
:102F8000AF909F908F907F906F905F904F9008953B
:102F90008F929F92AF92BF92CF92DF92EF92FF9269
:102FA0000F931F93CF93DF93FC0181859285A385B7
:102FB000B4850196A11DB11D84179507A607B70713
:102FC00010F480E05BC083889488A588B6888789E0
:102FD000803129F4BB27A72F962F852F09C0DB014D
:102FE000CA01C7E0B695A79597958795CA95D1F779
:102FF000E9016A017B018F01BC01CD01680D791DDA
:103000008A1D9B1D8090040190900501A0900601EF
:10301000B0900701681579058A059B0591F4F801C0
:1030200087898031A1F4DD24EE24FF24C601880FB6
:10303000991FFC01EC53FD4F80819181A0E0B0E02D
:1030400018C040E00E94DE168111E9CFBACFE894A3
:10305000C7F8DD24EE24FF24C601880F991F880FCE
:10306000991FFC01EC53FD4F80819181A281B381B6
:10307000BF7088839983AA83BB8381E0DF91CF915E
:103080001F910F91FF90EF90DF90CF90BF90AF9086
:103090009F908F9008952F923F924F925F926F92E0
:1030A0007F928F929F92AF92BF92CF92DF92EF92D8
:1030B000FF920F931F93CF93DF93CDB7DEB72B977C
:1030C0000FB6F894DEBF0FBECDBF7C01FE01319676
:1030D000CE010C966F0130E23193E817F907E1F762
:1030E000DA0130E087E09D91992331F19E3231F48D
:1030F0008A3009F479C138E08AE0F5CFE2ECF0E0FB
:103100004491442321F031969413FACF6DC1831773
:1031100008F46AC14FED490F4E3508F065C141E032
:10312000430FF601E30FF11D3FE9390F3A3108F47F
:1031300090529083342FD7CF8981803209F454C1C3
:10314000322E8B01DB015B968D919C915C97F70190
:10315000948F838F16961D921D921D921C92199723
:10316000FB011286138614861586B12CF801828520
:103170009385A485B58543895489658976898417A3
:103180009507A607B70708F05BC025E0B695A79599
:10319000979587952A95D1F7F82FFF70AF2ED80114
:1031A00015968C91823008F41FC1C8010E94D9077E
:1031B00097FD1AC1F80182859385A485B5854F9640
:1031C000A11DB11D82879387A487B587F0E2AF9ECA
:1031D000B00111246C537D4F6115710509F404C1D0
:1031E000DB018C91882319F0853EC1F4FFC0B1103A
:1031F0000EC0F701A28A8091040190910501A0916F
:103200000601B091070186879787A08BB18BDB0100
:103210008C91882399F0BB24B394A8CF4BE050E065
:10322000C6010E94E025892B09F0A0CF832D807371
:10323000803309F4D9C0432D6A2DD2C0BB24B39486
:10324000832D8271823109F0CFC0BB20C9F0F70114
:10325000668577858089918941E00E94DE16882302
:1032600009F4C2C0D70152960C91B0E20B9F8001C5
:1032700011240C531D4F0115110509F078C0B4C07D
:10328000F8018581823009F4AFC0C8010E941003A3
:10329000882309F4A9C0D8015B96ED91FC915C9755
:1032A00016968D909D90AD90BC901997B2E08B1AB8
:1032B0009108A108B108058404C0880C991CAA1CB7
:1032C000BB1C0A94D2F786859785A089B189880EA0
:1032D000991EAA1EBB1E2480E1E08E1A9108A10847
:1032E000B108222009F124013501420C511C611C56
:1032F000711C0E94A316882309F476C0E4ECF2E066
:10330000119224E0E43CF207D9F740920401509274
:103310000501609206017092070180913306816079
:10332000809333062A94DDCFD8015B96ED91FC9112
:103330005C9780E092E0A0E0B0E0058404C0880FD4
:10334000991FAA1FBB1F0A94D2F7F8014389548919
:1033500065897689840F951FA61FB71F838B948B71
:10336000A58BB68BD70152961C9204EC12E080E23A
:10337000F80111928A95E9F78BE0F601D8010190E6
:103380000D928A95E1F7E0916802F0916902309719
:1033900039F0B801625F7F4FC801409609950DC0B2
:1033A00081E298E2D80151969C938E93509780E0E9
:1033B00098E01F969C938E931E97F80180899189BF
:1033C000938B828B918F808F86859785978B868B49
:1033D0000E94A316882341F0432DD70152966C9189
:1033E000C7010E94070205C080E003C0B11013CFDF
:1033F00000CF2B960FB6F894DEBF0FBECDBFDF9186
:10340000CF911F910F91FF90EF90DF90CF90BF90E1
:10341000AF909F908F907F906F905F904F903F9074
:103420002F9008953FB7F89480918006909181067F
:10343000A0918206B091830626B5A89B05C02F3FB8
:1034400019F00196A11DB11D3FBFBA2FA92F982FCA
:103450008827820F911DA11DB11DBC01CD0142E045
:10346000660F771F881F991F4A95D1F708952FB7C8
:10347000F89460917C0670917D0680917E06909113
:103480007F062FBF08951F920F920FB60F9211243F
:103490002F933F938F939F93AF93BF9380917C061D
:1034A00090917D06A0917E06B0917F0630917B06BB
:1034B00023E0230F2D3720F40196A11DB11D05C077
:1034C00026E8230F0296A11DB11D20937B06809351
:1034D0007C0690937D06A0937E06B0937F06809134
:1034E000800690918106A0918206B0918306019694
:1034F000A11DB11D8093800690938106A093820642
:10350000B0938306BF91AF919F918F913F912F917F
:103510000F900FBE0F901F901895CF93DF93CDB7EC
:10352000DEB7A6970FB6F894DEBF0FBECDBF789476
:1035300084B5826084BD84B5816084BD85B58260B8
:1035400085BD85B5816085BD80916E008160809369
:103550006E001092810080918100826080938100D2
:1035600080918100816080938100809180008160E2
:10357000809380008091B10084608093B10080913D
:10358000B00081608093B00080917A008460809365
:103590007A0080917A00826080937A0080917A002C
:1035A000816080937A0080917A00806880937A00AD
:1035B0001092C1001092AF021092AE021092B102AE
:1035C0001092B0021092B30261E087E00E944010B6
:1035D00060E087E00E94111061E088E00E944010E6
:1035E00060E088E00E94111010926C0262E086E0B8
:1035F0000E94401062E085E00E944010109261023B
:103600001092600289E480936D0285E00E94E80FC9
:1036100080ED97E0909371028093700210926F0298
:1036200010926E02E0914205F091430582E08083A2
:10363000E0913E05F0913F051082E0914005F09148
:10364000410580E1808310924A05E0914605F091A2
:10365000470586E08083E0914405F091450580812F
:1036600080618083E0914405F09145058081886008
:103670008083E0914405F0914505808180688083D6
:10368000E0914405F091450580818F7D808384E63B
:1036900090E0A0E0B0E08093360590933705A093CA
:1036A0003805B093390580E791E09F938F9385E7C4
:1036B00091E09F938F938BE792E09F938F930E946B
:1036C00007266BE772E082E395E00E9407148FE023
:1036D000809328060E941F110F900F900F900F905B
:1036E0000F900F9080916D02853511F480E501C037
:1036F00080E18C8F86E08D8F8DE68E8F8DE78F8FAA
:1037000040E064E0CE014C960E94EA1060ED77E064
:1037100080E090E00E94A3110E941F1181E080933D
:103720006B0280936A0286E39BE090936902809328
:10373000680280910C06882321F087E096E00E94C1
:1037400004031092E8051092E6051092E30510922A
:10375000E2058AE08093E1050E94371A8B0161E05F
:103760008091E1050E94401061E08091E1050E9496
:103770001110FFB6F89480917A02811127C0E0E918
:10378000F0E08491E4EAF0E09491E82FF0E0EE0FAD
:10379000FF1FE859FF4FA591B491EC91E92321F463
:1037A00061E08AE00E94111061E08AE00E9440100E
:1037B0008CB580618CBD8CB580648CBD61E08DE082
:1037C0000E94401061E08BE00E94401080917A02DC
:1037D0008F5F80937A02FFBE82E58093DB051092B3
:1037E000DC058091DB059091DC050E9463042AE0F2
:1037F000F22E8FEF0E942404FA94F110FACF8DED8F
:1038000095E00E94660420E030E0A90160E08DEDC3
:1038100095E00E947C04F82E8093E70521E0821752
:1038200049F00E94371A601B710B613D774058F3D5
:1038300081E056C02AEA31E040E050E068E08DEDDA
:1038400095E00E947C0482FF03C0F092E80510C05E
:1038500094E0F92E0E942B048093E705FA94F1106E
:10386000F9CF8A3A11F082E03BC082E08093E8050C
:103870008091E805823031F4C12CD12CE12C80E418
:10388000F82E03C0C12CD12C760120E030E0A90134
:1038900067E38DED95E00E947C04A701960169E243
:1038A0008DED95E00E947C048093E705882349F024
:1038B0000E94371A601B710B613D774030F388E03E
:1038C0000FC08091E805823001F520E030E0A901C9
:1038D0006AE38DED95E00E947C04882341F086E048
:1038E0008093E2058DED95E00E94190428C00E94A6
:1038F0002B04807C803C19F483E08093E8050E94CF
:103900002B040E942B040E942B048DED95E00E9455
:10391000190480E58093DB051092DC0581E00E94AC
:10392000640D882339F087E096E00E94100D88230B
:1039300031F007C080E00E94640D8111F4CF80E077
:10394000DEC41092790281E080937802809377023E
:1039500090E1909381001092800093E09093760222
:1039600022E13AE7309387002093860093E1909319
:10397000810022E331E0309363022093620280935E
:103980006F00109281001092850010928400909137
:1039900076029061909381004FE458E169E47CE500
:1039A0004093720250937302609374027093750295
:1039B0001092C7041092C60410921005109231059F
:1039C00010920E0580930D051092E80461E082E1EB
:1039D0000E94111061E083E10E9411108091B900F2
:1039E0008E7F8093B9008091B9008D7F8093B9005C
:1039F00088E48093B80085E48093BC008CE193E177
:103A000090936702809366028DE193E19093650243
:103A10008093640288E60E94540C80E090E00E944B
:103A20004F0C0E94F30B87E090E00E945E0C8FEC3D
:103A300095E00E942E138F77982F92959F701AEF22
:103A4000082F919F000D11248FEC95E00E942E13FA
:103A50009C01332794E0359527959A95E1F7F82E48
:103A6000129FF00C11248FEC95E00E942E139C0104
:103A7000332744E0359527954A95E1F7E82E129FC4
:103A8000E00C11248FEC95E00E942E138FEC95E052
:103A90000E942E139C01332754E0359527955A95A3
:103AA000E1F7D82E129FD00C11248FEC95E00E94E4
:103AB0002E139C01332764E0359527956A95E1F72D
:103AC000C82E129FC00C11248FEC95E00E942E137B
:103AD0009C01332774E0359527957A95E1F7129F7D
:103AE000800D11248983CA82DB82EC82FD820E83E1
:103AF000CE0101960E949B14609372027093730230
:103B0000809374029093750288E60E94540C8EE0B4
:103B100090E00E944F0C0E94F30B81E090E00E9425
:103B20005E0C8FEC95E00E942E13182F88E60E9401
:103B3000540C8EE090E00E944F0C612F63728FEC6A
:103B400095E00E9477130E94F30B62E080E00E94F0
:103B500040108DE491E090930101809300018091E9
:103B600069008C7F816080936900E89A6FE871E05A
:103B700082E395E00E94071464EA71E082E395E035
:103B80000E940714E9E33E2EFAE06F2E712CA6ED99
:103B9000CA2EA1E0DA2EBBE7EB2EB2E0FB2E15E039
:103BA000812E912C07EAA02E01E0B02E20912B0649
:103BB00030912C063DA380912D068CA320902E06DB
:103BC0002BA200912F060AA390917902992309F460
:103BD00014C2933009F48BC030F4913059F0923014
:103BE00009F451C007C2943009F4B0C0953009F40B
:103BF000E6C000C2022F10E00053184F80917802F7
:103C0000882379F080917702882339F020E044E01E
:103C100060E0C8010E94361102C00E941F1110927C
:103C20007802BE01645E7F4FCE0186960E94F60840
:103C30009EA18C8D911123C0882309F4AFC3C801C4
:103C4000805D97408336910518F40F5F1F4F02C0C7
:103C500000ED17E010928100109285001092840010
:103C60008091760280618093810081E08093780268
:103C700080937702005D174000932B062FC08111BF
:103C80008DC382E031C080917802882381F08091D9
:103C90007702882341F020E042E060E0832F90E04B
:103CA0000E94361102C00E941F1110927802BE01BC
:103CB000645E7F4FCE0186960E94F6089EA18C8D91
:103CC00091110FC0882309F469C34CE061E0CE0173
:103CD00085960E941B0B8DA180932C0610923006B6
:103CE0005DC381115BC383E00E94080B57C39091B1
:103CF0007802992379F090917702992339F022E0A4
:103D000042E060E090E00E94361102C00E941F1164
:103D100010927802BE01645E7F4FCE0186960E94AB
:103D2000F6089EA18C8D91110DC0882309F436C32D
:103D30004FE161E0CE0184960E941B0B8CA1809321
:103D40002D06CCCF81112AC384E0CECF809178029A
:103D50008823C9F08091770210E0882351F020E099
:103D600044E060EEC80134E6239E800D911D1124CD
:103D700006C00E941F1122E042E060EEC8010E94CE
:103D8000361110927802BE01645E7F4FCE01869696
:103D90000E94F6089EA18C8D91110DC0882309F414
:103DA000FDC247E160E0CE0183960E941B0B8BA110
:103DB00080932E0693CF8111F1C285E095CF80913B
:103DC00078028823D1F080917702882359F0802FE0
:103DD00090E020E044E060EE34E6239E800D911DEB
:103DE000112407C00E941F1120E042E060EE822DE6
:103DF00090E00E94361110927802BE01645E7F4FFF
:103E0000CE0186960E94F6089EA18C8D91110DC060
:103E1000882309F4C3C24BE360E0CE0182960E947E
:103E20001B0B8AA180932F0659CF8111B7C2009135
:103E30002B0688E60E94540C86E090E00E944F0C0E
:103E40001AE0802F612F0E945E24692F20E1829F5B
:103E5000600D11248FEC95E00E9477130E94F30B04
:103E600000912C0688E60E94540C85E090E00E94A8
:103E70004F0C802F612F0E945E24692F30E1839FB9
:103E8000600D11248FEC95E00E9477130E94F30BD4
:103E900000912D0688E60E94540C84E090E00E9478
:103EA0004F0C802F612F0E945E24692F20E1829F9A
:103EB000600D11248FEC95E00E9477130E94F30BA4
:103EC00000912E0688E60E94540C82E090E00E9449
:103ED0004F0C0E94F30B81E090E00E945E0C8FEC8F
:103EE00095E00E942E1386FF18C00D3060F084EF1D
:103EF000800F612F0E945E24192F30E1839F100DE7
:103F00001124106614C0802F612F0E945E24192F87
:103F100020E1829F100D11240AC0802F612F0E9482
:103F20005E24192F30E1839F100D11241F7B88E63A
:103F30000E94540C82E090E00E944F0C612F8FECA5
:103F400095E00E9477130E94F30B10912F0688E6EC
:103F50000E94540C81E090E00E944F0C812F6AE097
:103F60000E945E24692F20E1829F600D11248FEC56
:103F700095E00E9477130E94F30B88E60E94540C90
:103F800080E090E00E944F0C60E08FEC95E00E9492
:103F900077130E94F30B88E60E94540C8FE090E0A8
:103FA0000E944F0C0E94F30B81E090E00E945E0C97
:103FB0008FEC95E00E942E13182F88E60E94540C77
:103FC0008FE090E00E944F0C612F6F778FEC95E0AF
:103FD0000E9477130E94F30B8BE296E00E949B14E1
:103FE00060937202709373028093740290937502CF
:103FF00080E07ACE10927902D1C180916D02853530
:1040000009F0C5C00091B302802F90E0B401681B95
:10401000790B82559D4F0E94970F182F882309F422
:1040200074C161E088E00E94111082E080936C020C
:10403000100F1093B302153009F0B0C12091AE02F9
:104040003091AF023227232732273093AF022093DB
:10405000AE028091B0029091B102982789279827EB
:104060009093B1028093B0026091700270917102DE
:104070002617370708F088C040916E0250916F02F2
:104080004217530708F080C08617970708F07CC0D6
:104090004817590708F078C08091AD02882309F4C9
:1040A00073C04091720250917302609174027091DA
:1040B0007502CE014C960E94FD148F8D882341F02D
:1040C000853031F08A3021F08F3011F0843119F4CD
:1040D00028120E94E509CE0101960E94A40EEA8DE5
:1040E000FB8D309709F450C08581882309F44CC0BA
:1040F0008091B202409172025091730260917402F9
:104100007091750281FB992790F91F929F9381709E
:104110001F928F938091B1028F938091B0028F9301
:104120008091AF028F938091AE028F9389A11F92ED
:104130008F9388A11F928F938F8D1F928F938E8D57
:104140001F928F938D8D1F928F938C8D90E0805353
:10415000984F9F938F937F936F935F934F93BF92EB
:10416000AF92FF92EF920E9407266BE772E0CE01BA
:1041700001960E940714CE0101960E94920E0FB67E
:10418000F894DEBF0FBECDBF1092B30207C18934D1
:1041900009F0BBC00091B302802F90E062E070E0B4
:1041A000681B790B82559D4F0E94970F182F88230B
:1041B00009F4ABC001110FC09091AF028091AE0223
:1041C000282F207F19F48093AE0205C01150892F4B
:1041D000B9F79093AE02010F023008F492C010922A
:1041E000B3028091AE029091AF0298278927982759
:1041F0009093AF028093AE022091AD02222309F486
:1042000082C097702091700230917102281739078F
:1042100008F479C020916E0230916F0282179307E3
:1042200008F471C061E088E00E9411108FEF809364
:104230006C0240917202509173026091740270910D
:104240007502CE014C960E94FD14CE0101960E948B
:10425000A40EEA8DFB8D309709F450C08581882328
:1042600009F44CC08091AE029091AF029C0137706E
:1042700093FF03C088EE93E002C080E090E040919D
:1042800072025091730260917402709175023F93B3
:104290002F939F938F9389A11F928F9388A11F9231
:1042A0008F938F8D1F928F938E8D1F928F938D8DF5
:1042B0001F928F938C8D90E08053984F9F938F9394
:1042C0007F936F935F934F93DF92CF92FF92EF9222
:1042D0000E9407266BE772E0CE0101960E94071448
:1042E000CE0101960E94920E60E088E00E941110BB
:1042F0000FB6F894DEBF0FBECDBF05C083E00E94AD
:104300008E090093B302111149C01092B30280913B
:104310006B028823F1F010926B024091720250916F
:1043200073026091740270917502CE0101960E9431
:10433000FD142C818D8190E034E6239F800D911D2A
:10434000112420916A0221112CC044E060EE0E94E9
:104350003611BE01645E7F4FCE0186960E94F6083C
:104360003091AD029EA12C8D3323F9F09923E9F110
:1043700021113BC081E083278093AD02882381F126
:104380000E94E5094091720250917302609174029B
:1043900070917502CE0101960E94FD140E94E012F8
:1043A00005CC20E044E060E0D2CF9923F1F0222355
:1043B000E9F240917202509173026091740270911F
:1043C0007502CE0101960E94FD1486E0FE01319631
:1043D000ABE2B6E001900D928A95E1F781E084CCE2
:1043E00060E087E00E941110D9CF2223B9F2911129
:1043F000D5CF88E60E94540C81E190E00E944F0CDA
:104400000E94F30B82E090E00E945E0C9091C60443
:104410008091C7049817F9F08FEC95E00E942E1355
:10442000182F8FEC95E00E942E13512E412CB201D3
:10443000682B86E0759567958A95E1F7072E000C45
:10444000880B990B0E94DE2220E030E040E85EE31A
:104450000E94192304C060E07CE38CE196EC0E948A
:1044600028249B0119821A821B821C823C8277FFBE
:104470000BC022273327261B370B80E42A30310557
:1044800014F48A8301C08983C901B3010E947E2488
:10449000FC01EE5EFE4F80818B832A3031053CF0BB
:1044A0006F70E62FF0E0EE5EFE4F80818A8340E081
:1044B00064E0CE0101960E94EA1068EB7BE080E0A8
:1044C00090E00E94A3116ACFCF93DF93E2E3F5E07F
:1044D0001382128288EE93E0A0E0B0E0848395839B
:1044E000A683B78328E331E03183208325EC30E0D5
:1044F0003587248724EC30E03787268720EC30E0AE
:10450000318B208B21EC30E0338B228B22EC30E09E
:10451000358B248B26EC30E0378B268B118E128E58
:10452000138E148EEFECF5E0138212828483958350
:10453000A683B7838AE491E091838083EBEDF5E075
:1045400080E580831182EDEDF5E0158216821186FB
:10455000138682E090E0A0E0B0E084879587A6878C
:10456000B78713A215A614A68CE591E093A782A79E
:1045700017A640E050E0BA018BE296E00E94FD14DD
:10458000C6E2D6E083E0888384E0898384E690E015
:104590009C838B8360E083E00E94401060E089810F
:1045A0000E94401060E088810E94111060E08981C3
:1045B000DF91CF910C941110E89409C097FB3EF461
:1045C00090958095709561957F4F8F4F9F4F992360
:1045D000A9F0F92F96E9BB279395F69587957795DE
:1045E0006795B795F111F8CFFAF4BB0F11F460FF9E
:1045F0001BC06F5F7F4F8F4F9F4F16C0882311F0F6
:1046000096E911C0772321F09EE8872F762F05C009
:10461000662371F096E8862F70E060E02AF09A95A4
:10462000660F771F881FDAF7880F9695879597F999
:1046300008950E942C230C949D230E948F2338F010
:104640000E94962320F0952311F00C9486230C945D
:104650008C2311240C94D1230E94AE2370F3959FD8
:10466000C1F3950F50E0551F629FF001729FBB2769
:10467000F00DB11D639FAA27F00DB11DAA1F649F05
:104680006627B00DA11D661F829F2227B00DA11DB8
:10469000621F739FB00DA11D621F839FA00D611D3E
:1046A000221F749F3327A00D611D231F849F600D5F
:1046B000211D822F762F6A2F11249F5750409AF088
:1046C000F1F088234AF0EE0FFF1FBB1F661F771F14
:1046D000881F91505040A9F79E3F510580F00C94DF
:1046E00086230C94D1235F3FE4F3983ED4F3869560
:1046F00077956795B795F795E7959F5FC1F7FE2B7F
:10470000880F911D9695879597F9089597F99F675A
:1047100080E870E060E008959FEF80EC0895002449
:104720000A941616170618060906089500240A9416
:1047300012161306140605060895092E0394000C9C
:1047400011F4882352F0BB0F40F4BF2B11F460FF2B
:1047500004C06F5F7F4F8F4F9F4F089557FD905854
:10476000440F551F59F05F3F71F04795880F97FB35
:10477000991F61F09F3F79F08795089512161306EF
:104780001406551FF2CF4695F1DF08C0161617061E
:104790001806991FF1CF8695710561050894089553
:1047A000E894BB2766277727CB0197F908950E94E5
:1047B0001924A59F900DB49F900DA49F800D911D6D
:1047C000112408952F923F924F925F926F927F92A1
:1047D0008F929F92AF92BF92CF92DF92EF92FF9211
:1047E0000F931F93CF93DF93CDB7DEB7CA1BDB0BBD
:1047F0000FB6F894DEBF0FBECDBF09942A88398862
:1048000048885F846E847D848C849B84AA84B98468
:10481000C884DF80EE80FD800C811B81AA81B98174
:10482000CE0FD11D0FB6F894DEBF0FBECDBFED0188
:104830000895A29FB001B39FC001A39F700D811D79
:104840001124911DB29F700D811D1124911D089599
:104850000E942F246894B1110C94D12308950E94D2
:10486000B62388F09F5798F0B92F9927B751B0F029
:10487000E1F0660F771F881F991F1AF0BA95C9F7E4
:1048800014C0B13091F00E94D023B1E008950C948F
:10489000D023672F782F8827B85F39F0B93FCCF342
:1048A000869577956795B395D9F73EF49095809561
:1048B000709561957F4F8F4F9F4F0895991B79E0B9
:1048C00004C0991F961708F0961B881F7A95C9F7A0
:1048D00080950895AA1BBB1B51E107C0AA1FBB1FEF
:1048E000A617B70710F0A61BB70B881F991F5A957C
:1048F000A9F780959095BC01CD01089597FB072EEF
:1049000016F4009407D077FD09D00E946A2407FCB2
:1049100005D03EF4909581959F4F089570956195CF
:104920007F4F0895A1E21A2EAA1BBB1BFD010DC0EB
:10493000AA1FBB1FEE1FFF1FA217B307E407F5074F
:1049400020F0A21BB30BE40BF50B661F771F881F2B
:10495000991F1A9469F760957095809590959B01C1
:10496000AC01BD01CF010895EE0FFF1F0590F4913A
:10497000E02D09940F931F93CF93DF93823091051D
:1049800010F482E090E0E0918606F091870620E046
:1049900030E0A0E0B0E0309719F140815181028110
:1049A000138148175907C8F08417950769F41097C1
:1049B00031F012960C93129713961C9327C0009314
:1049C00086061093870622C02115310519F042177B
:1049D000530718F49A01BD01EF01DF01F801DBCFA5
:1049E00021153105F9F0281B390B2430310580F4ED
:1049F0008A819B816115710521F0FB01938382837C
:104A000004C09093870680938606FE01329644C0C8
:104A1000FE01E20FF31F81939193225031093983F4
:104A200028833AC02091840630918506232B41F4D7
:104A300020910A0130910B01309385062093840662
:104A400020910801309109012115310541F42DB75C
:104A50003EB740910C0150910D01241B350BE091A4
:104A60008406F0918506E217F307A0F42E1B3F0B96
:104A70002817390778F0AC014E5F5F4F24173507D0
:104A800048F04E0F5F1F5093850640938406819334
:104A9000919302C0E0E0F0E0CF01DF91CF911F9150
:104AA0000F910895CF93DF93009709F481C0FC0123
:104AB000329713821282A0918606B09187061097D2
:104AC00081F420813181820F931F209184063091DF
:104AD00085062817390751F5F0938506E09384067B
:104AE00067C0ED0120E030E0CE17DF0740F44A81D7
:104AF0005B819E0141155105F1F0EA01F5CFD383A9
:104B0000C28340815181840F951FC817D90759F47A
:104B100088819981840F951F0296918380838A8171
:104B20009B81938382832115310529F4F0938706B5
:104B3000E09386063DC0E901FB83EA8349915991E0
:104B4000C40FD51FEC17FD0761F480819181840F9C
:104B5000951F0296E90199838883828193819B83C3
:104B60008A83E0E0F0E012968D919C911397009774
:104B700019F0FD01DC01F7CF8D919C9111979D01FA
:104B80002E5F3F4F820F931F209184063091850640
:104B90002817390769F4309729F410928706109284
:104BA000860602C013821282B0938506A093840603
:104BB000DF91CF91089581E090E0F8940C94BA28A9
:104BC000FB01DC0104C08D910190801921F441505A
:104BD0005040C8F7881B990B0895FC0181918617F6
:104BE00021F08823D9F7992708953197CF010895A7
:104BF000FB01DC014150504048F001900D92002033
:104C0000C9F701C01D9241505040E0F70895AEE051
:104C1000B0E0EDE0F6E20C94F0230D891E8986E009
:104C20008C831A8309838FEF9FE79E838D83AE0168
:104C3000475E5F4F6F89788DCE0101960E942926CD
:104C4000EF81F885E00FF11F10822E96E4E00C94BE
:104C50000C24ABE0B0E0EFE2F6E20C94E2236C014E
:104C60007B018A01FC0117821682838181FFCCC1FE
:104C7000CE0101963C01F6019381F70193FD8591E8
:104C800093FF81917F01882309F4BAC1853239F4F9
:104C900093FD859193FF81917F01853229F4B601BF
:104CA00090E00E942028E7CF912C212C312CFFE1AD
:104CB000F315D8F08B3279F038F4803279F0833202
:104CC000A1F4232D20611DC08D3261F0803369F481
:104CD000232D216016C0832D8260382EE32DE460E1
:104CE0003E2E2AC0F32DF8601DC037FC2DC020EDEC
:104CF000280F2A3040F08E32B9F436FC81C1232DC2
:104D00002064322E19C036FE06C08AE0989E200D1F
:104D10001124922E11C0EAE02E9E200D1124222E85
:104D2000F32DF0623F2E08C08C3621F4832D80686D
:104D3000382E02C0883641F4F70193FD859193FF28
:104D400081917F018111B3CF982F9F7D955493302E
:104D500028F40C5F1F4F9FE399830DC0833631F019
:104D6000833771F0833509F059C021C0F801808183
:104D700089830E5F1F4F88248394912C530113C0A5
:104D80002801F2E04F0E511CF801A080B18036FEE0
:104D900003C0692D70E002C06FEF7FEFC5010E9474
:104DA00015284C018201F32DFF773F2E16C02801F4
:104DB00022E0420E511CF801A080B18036FE03C0F3
:104DC000692D70E002C06FEF7FEFC5010E940A28D5
:104DD0004C01F32DF0683F2E820133FC1BC0822D65
:104DE00090E088169906B0F4B60180E290E00E9447
:104DF00020282A94F4CFF50137FC859137FE819164
:104E00005F01B60190E00E94202821102A9421E041
:104E1000821A91088114910471F7E8C0843611F068
:104E2000893641F5F80137FE07C0608171818281C2
:104E300093810C5F1F4F08C060817181072E000CA9
:104E4000880B990B0E5F1F4FF32DFF763F2E97FFB8
:104E500009C090958095709561957F4F8F4F9F4FBA
:104E6000F0683F2E2AE030E0A3010E945C28882EE3
:104E7000861845C0853731F4232D2F7EB22E2AE0C7
:104E800030E025C0932D997FB92E8F36C1F018F4EC
:104E9000883579F0B5C0803719F0883721F0B0C077
:104EA000E92FE061BE2EB4FE0DC0FB2DF460BF2ED5
:104EB00009C034FE0AC0292F2660B22E06C028E0A1
:104EC00030E005C020E130E002C020E132E0F8012E
:104ED000B7FE07C060817181828193810C5F1F4F93
:104EE00006C06081718180E090E00E5F1F4FA301DA
:104EF0000E945C28882E8618FB2DFF773F2E36FEF9
:104F00000DC0232D2E7FA22E891458F434FE0BC021
:104F100032FC09C0832D8E7EA82E05C0B82CA32C90
:104F200003C0B82C01C0B92CA4FE0FC0FE01E80DCF
:104F3000F11D8081803321F49A2D997EA92E09C01C
:104F4000A2FE06C0B394B39404C08A2D867809F0FB
:104F5000B394A3FC11C0A0FE06C0B21488F4280CC0
:104F6000922C9B180EC0B21460F4B60180E290E05F
:104F70000E942028B394F7CFB21418F42B1802C063
:104F8000982C212CA4FE10C0B60180E390E00E9472
:104F90002028A2FE17C0A1FC03C088E790E002C051
:104FA00088E590E0B6010CC08A2D867859F0A1FE04
:104FB00002C08BE201C080E2A7FC8DE2B60190E066
:104FC0000E942028891438F4B60180E390E00E9402
:104FD00020289A94F7CF8A94F301E80DF11D80817F
:104FE000B60190E00E9420288110F5CF222009F41C
:104FF00042CEB60180E290E00E9420282A94F6CFAB
:10500000F6018681978102C08FEF9FEF2B96E2E138
:105010000C94FE23FC010590615070400110D8F7FC
:10502000809590958E0F9F1F0895FC0161507040F0
:1050300001900110D8F7809590958E0F9F1F0895CD
:105040000F931F93CF93DF93FB01238121FD03C0B7
:105050008FEF9FEF2CC022FF16C04681578124811D
:1050600035814217530744F4A081B1819D012F5F20
:105070003F4F318320838C93268137812F5F3F4FB1
:105080003783268314C08B01EC01FB010084F1857A
:10509000E02D0995892BE1F6D80116968D919C910A
:1050A0001797019617969C938E931697CE01DF91D2
:1050B000CF911F910F910895FA01AA27283051F13D
:1050C000203181F1E8946F936E7F6E5F7F4F8F4F39
:1050D0009F4FAF4FB1E03ED0B4E03CD0670F781F98
:1050E000891F9A1FA11D680F791F8A1F911DA11D7D
:1050F0006A0F711D811D911DA11D20D009F46894B6
:105100003F912AE0269F11243019305D3193DEF65D
:10511000CF010895462F4770405D4193B3E00FD013
:10512000C9F7F6CF462F4F70405D4A3318F0495DFE
:1051300031FD4052419302D0A9F7EACFB4E0A695E1
:105140009795879577956795BA95C9F70097610503
:10515000710508959B01AC010A2E06945795479559
:1051600037952795BA95C9F7620F731F841F951F4E
:08517000A01D0895F894FFCF83
:10517800DD11DD11FFFFFFFF000088068000795078
:1051880050003F065B4F666D7D077F6F777C395E09
:10519800797100000000BB006C07D2002A019A0058
:1051A800C208CC08000000007112DE110812BE12FD
:1051B800391217122B120000000077134A13D2007D
:1051C8001E1342132E131F1300000000A813DE1134
:1051D800D200D10000000000A613DE11D200D100D9
:1051E800312E3536005374617274696E67202876E3
:1051F800657273696F6E202573292E2E2E0A004959
:105208006E697469616C697A6174696F6E20444F64
:105218004E452E000D0A00256C642C253034642F71
:10522800253032642F253032642C253032643A25FB
:105238003032643A253032642C25642C25642C25C0
:10524800642C25640A00256C642C253034642F25D1
:105258003032642F253032642C253032643A2530C0
:1052680032643A253032642C25642C25640A0025E2
:10527800635F524547253033642E435356004669D1
:105288006C653A2000556E69782074696D652C4408
:105298006174652C54696D652C416C61726D2C4389
:1052A800757272656E7420492841290A00556E6925
:1052B800782074696D652C446174652C54696D653A
:1052C8002C2D552C2B552C2D4B2C2B4B0A002F00FD
:00000001FF
