:100000000C9470000C9454120C942D120C949800C3
:100010000C9498000C9498000C9498000C94980000
:100020000C9498000C9498000C9498000C949800F0
:100030000C9498000C94E8120C9498000C9498007E
:100040000C94B7180C9498000C94B6120C9490125F
:100050000C9498000C9498000C9498000C949800C0
:100060000C94E9130C949800000000002400270071
:100070002A0000000000250028002B0000000000DE
:1000800023002600290004040404040404040202DA
:100090000202020203030303030301020408102007
:1000A0004080010204081020010204081020000012
:1000B0000008000201000003040700000000000027
:1000C00000007C3C3E5E2B3D3F2F5B5D3B2C2A229B
:1000D0005C001F1C1F1E1F1E1F1F1E1F1E1FE8214E
:1000E00011241FBECFEFD8E0DEBFCDBF26E0A8E3CE
:1000F000B2E001C01D92AF35B207E1F712E0A0E017
:10010000B1E0E0E8F0E502C005900D92A833B10738
:10011000D9F710E0C0E7D0E004C02197FE010E94AB
:100120003824CF36D107C9F70E9401190C943E2814
:100130000C940000DC015996ED91FC915A97309790
:10014000B9F083899489A589B689428553856485E8
:100150007585841B950BA60BB70B811520E89207BC
:10016000A105B10538F08FEF9FE7A0E0B0E008955A
:1001700080E090E00895CF93DF931F92CDB7DEB774
:100180006983DC01ED91FC910280F381E02D41E077
:1001900050E0BE016F5F7F4F09950F90DF91CF91C7
:1001A0000895089580E090E0089581E080934A02E8
:1001B0009091490289278093490208950F931F93D4
:1001C000CF93DF93FC012581222309F446C02481CB
:1001D00027FF3DC08C01668577858089918941E044
:1001E0000E9452158823C9F1F801C289F0E2CF9F1D
:1001F000E0011124C556DD4F209779F1F801858182
:10020000823040F483899489A589B6898C8F9D8F2B
:10021000AE8FBF8FF8018789908DA18DB28D9B8F96
:100220008A8FBD8BAC8BE0914002F09141023097F8
:1002300051F0BE016A5E7F4FCE0148960995888DC8
:10024000998D9B8B8A8BF80194819F779483DF91A2
:10025000CF911F910F910C94171580E0DF91CF91F2
:100260001F910F910895FC01818D928D009711F0DF
:100270000C94DE000895CF93C1E0C093430282E066
:100280000E945C0E892BB1F080914402909145024E
:10029000A0914602B09147020196A11DB11D809325
:1002A000440290934502A0934602B0934702C09344
:1002B000420202C010924202CF9108958F929F9203
:1002C000AF92BF92CF92DF92EF92FF920F931F9364
:1002D000CF93DF93EC018D81811102C080E078C063
:1002E0000B891C892D893E890417150726073707B6
:1002F000A8F36A017B01823029F4CA86DB86EC868A
:10030000FD860DC0C114D104E104F10451F41E8234
:100310001F82188619861A861B861C861D8681E018
:1003200057C08A849B84AC84BD84EB8DFC8D25856D
:1003300030E0275F3F4FB501A401415051096109E9
:100340007109022E04C076956795579547950A94D2
:10035000D2F7D701C6010197A109B10904C0B6952A
:10036000A795979587952A95D2F784179507A6079D
:10037000B70720F089288A288B2871F44F89588D77
:10038000698D7A8D4E835F83688779874C015D0123
:100390008E010A5F1F4F16C0841B950BA60BB70B6F
:1003A000F5CF4E815F816885798598018B8D9C8D15
:1003B0000E943C1691E0891A9108A108B10888238F
:1003C00009F48CCF81149104A104B10451F795CFA5
:1003D000DF91CF911F910F91FF90EF90DF90CF9021
:1003E000BF90AF909F908F9008958F929F92AF9201
:1003F000BF92CF92DF92EF92FF920F931F93CF9312
:10040000DF9300D000D0CDB7DEB77C0180E2689FDB
:10041000F0011124E556FD4F9385917121F0842F51
:10042000827409F08FC0142FD70152966C935297A3
:1004300040910401509105016091060170910701FE
:100440001E964D935D936D937C9351974489558986
:1004500060E070E0BA0155274427828D938DA0E0BB
:10046000B0E0482B592B6A2B7B2BD70157964D9325
:100470005D936D937C935A978385887159F4848D2D
:10048000958DA68DB78DF701838B948BA58BB68B3D
:1004900081E012C0803109F055C097012D5E3F4FB9
:1004A000D7015B968D919C915C970E941B0B8823D2
:1004B00009F448C084E0F7018583812F8F70D7014C
:1004C00014968C931497F701168217821086118662
:1004D0001A961D921D921D921C921D9716FF34C0F4
:1004E00015968C91813071F511FF2CC0F70143896D
:1004F000548965897689452B462B472B09F461C0C1
:1005000040E050E0BA01C7010E945E018823D1F0AB
:10051000F7018788908CA18CB28CC38CD48C82E03C
:1005200090E0A0E0B0E0F60180839183A283B383E2
:100530009E012F5F3F4FB501A401C6010E943C16EA
:10054000811104C080E03DC081E03BC000E010E0CC
:100550009801B501A401C6010E949B15882391F35F
:1005600089809A80AB80BC80D60157968C9180316F
:1005700029F088EF9FEFAFEFBFE004C088EF9FEF57
:10058000A0E0B0E088169906AA06BB0688F2D7015B
:1005900057961D921D921D921C925A97F701138A2D
:1005A000148A158A168A848180688483C7010E9410
:1005B000DE00882339F240E050E0BA01C7010E9412
:1005C0005E010F900F900F900F90DF91CF911F91D0
:1005D0000F91FF90EF90DF90CF90BF90AF909F90E2
:1005E0008F900895CF93DF93EC010E94DE00882363
:1005F00011F01D8281E0DF91CF9108953F924F92DB
:100600005F926F927F928F929F92AF92BF92CF92A2
:10061000DF92EF92FF920F931F93CF93DF93CDB7AB
:10062000DEB72C970FB6F894DEBF0FBECDBF5C01CE
:10063000DC015B968D909C905C971696CD90DD903A
:10064000ED90FC901997C114D104E104F10439F044
:10065000BFEFCB1ADB0AEB0AFB0A312C07C0F4010F
:10066000C080D180E280F38033243394F40181850B
:100670009285A385B4859C01AD012F5F3F4F4F4FFD
:100680005F4F29873A874B875C87260137011D8298
:100690001E821F821886F40181859285A385B48508
:1006A0002D813E814F815885281739074A075B07FE
:1006B00008F063C089859A85AB85BC858C159D053E
:1006C000AE05BF0550F482E0C82ED12CE12CF12CF0
:1006D00092E0492E512C612C712C9E012F5F3F4FCF
:1006E000B701A601C4010E943C16882309F445C045
:1006F00089819A81AB81BC81892B8A2B8B2B41F01C
:10070000260137019FEF491A590A690A790A05C07B
:10071000C414D504E604F70491F02D813E814F8185
:1007200058852F5F3F4F4F4F5F4F2D833E834F8341
:1007300058873FEFC31AD30AE30AF30AACCF0FEF8F
:100740001FEF2FEF3FE0B301A201C4010E949B15F0
:10075000882399F0D50116964D915D916D917C910C
:100760001997411551056105710549F09301820101
:10077000C4010E949B15811102C080E02AC0D501EE
:1007800016964D925D926D927C921997332051F09E
:10079000D301C2010196A11DB11DF4018083918393
:1007A000A283B383F5018789908DA18DB28D892BAA
:1007B0008A2B8B2B69F4D50157964D925D926D92E1
:1007C0007C925A9714968C911497806814968C9307
:1007D00081E02C960FB6F894DEBF0FBECDBFDF913F
:1007E000CF911F910F91FF90EF90DF90CF90BF902E
:1007F000AF909F908F907F906F905F904F903F90C1
:1008000008958FB7F89480918C028FBF089561E0AE
:10081000FC0184810E94850E80918B0281111092CF
:100820008B0208958EBD00000DB407FEFDCF8EB57E
:1008300008958FEF0C9412040F931F93CF93DF93BF
:10084000EB010E94AB188B010E9419048F3F49F005
:100850000E94AB18601B710B6C177D07A8F380E03A
:1008600001C081E0DF91CF911F910F910895CF9347
:10087000DF93EC018E81882389F08F8198859C011C
:100880002F5F3F4F38872F838230924018F40E94A9
:100890001904F3CFCE010E9407041E82DF91CF918D
:1008A00008958CBD9DBD0895CF93DF93EC01809199
:1008B0008B02811109C081E080938B028091B20587
:1008C0009091B3050E94510460E08C81DF91CF913B
:1008D0000C94850E8F929F92AF92BF92FF920F93CE
:1008E0001F93CF93DF93EC01F62E49015A010E942A
:1008F0003704CE010E9454046CE271E0CE010E94E4
:100900001C048F2D80640E94120408E110E0D501C0
:10091000C401002E04C0B695A795979587950A94B3
:10092000D2F70E94120408501109083F8FEF1807F0
:1009300071F7FF2029F088E0F81204C087E803C0AF
:1009400085E901C08FEF0E94120410E00E94190493
:100950008A8787FF04C01F3F11F01F5FF7CFDF9129
:10096000CF911F910F91FF90BF90AF909F908F906C
:100970000895AF92BF92CF92DF92EF92FF920F93C2
:100980001F93CF93DF93EC016901C801820F931F7E
:100990008130924008F070C08E81882371F0888188
:1009A0009981AA81BB8184179507A607B70729F407
:1009B0008F819885C816D906B0F5488359836A8314
:1009C0007B838B85833039F089E0440F551F661F88
:1009D000771F8A95D1F79A01AB0161E1CE010E94A0
:1009E0006A04882319F083E08D8346C00E94AB1807
:1009F0005B010E9419048A878F3F49F40E94AB185B
:100A00006A197B096D327140A0F38FE003C08E3FFD
:100A100031F08DE08D83CE010E9407042DC0188631
:100A20001F8281E08E838F8198858C159D0540F40F
:100A30000E9419048F819885019698878F83F3CF40
:100A40006701E00EF11EEC14FD0431F00E94190460
:100A5000F60181936F01F7CF8F819885080F191FD9
:100A600018870F838985882319F00115124048F0F3
:100A7000CE010E94370405C0CE010E94070480E029
:100A800001C081E0DF91CF911F910F91FF90EF9016
:100A9000DF90CF90BF90AF900895EF92FF920F93A9
:100AA0001F93CF93DF93EC01790141155105610547
:100AB000710511F482E13CC08B85833039F089E007
:100AC000440F551F661F771F8A95D1F79A01AB0116
:100AD00068E1CE010E946A04882311F084E028C0F6
:100AE0008EEF0E94120487018EEFF81AF8018191AF
:100AF0008F010E941204E016F106C1F78FEF0E94E9
:100B000012048FEF0E9412040E9419048A878F71C9
:100B1000853031F081E18D83CE010E94070409C048
:100B200068E572E0CE010E941C04811107C085E1D6
:100B30008D83CE010E94070480E014C020E030E0E5
:100B4000A9016DE0CE010E946A04811109C00E94D2
:100B50001904811105C0CE010E94070481E002C082
:100B600084E1E6CFDF91CF911F910F91FF90EF903D
:100B700008952F923F924F925F926F927F928F9241
:100B80009F92AF92BF92CF92DF92EF92FF920F931C
:100B90001F93CF93DF9300D000D0CDB7DEB78C0189
:100BA0006B011A01DC0115968C9115978130C9F4FF
:100BB00014968C9181FF15C082FF1DC0F8014389F6
:100BC00054896589768982859385A485B58584173E
:100BD0009507A607B70779F0C8010E945E01811149
:100BE0000AC081E090E0D80113969C938E931297EF
:100BF00080E090E048C1410183C05B968D919C915B
:100C00005C97FC0174802FEF270D2A013B0139E02E
:100C100076946794579447943A95D1F7722E74203E
:100C20007A01F1E0FF22772009F476C080E092E0BB
:100C30008E199F0954018815990508F45C01D801A3
:100C40005B962D913C915C9716968D919D910D90A0
:100C5000BC91A02D0297A109B109F901058404C036
:100C6000880F991FAA1FBB1F0A94D2F74685578584
:100C700060897189840F951FA61FB71F9C01AD0164
:100C8000270D311D411D511D29013A01A11432E0EA
:100C9000B30609F088C08091040190910501A091EC
:100CA0000601B0910701481659066A067B0659F4F9
:100CB0008FEF9FEFDC018093040190930501A093D7
:100CC0000601B09307019601B301A20180919B0434
:100CD00090919C040E944D05882309F482CF9EEFD9
:100CE000D91A8A189B08F80182859385A485B58551
:100CF0008A0D9B1DA11DB11D82879387A487B5878F
:100D0000D8011A964D915D916D917C911D9781143A
:100D1000910409F072CF87C0E114F10409F086CF85
:100D200016964D915D916D917C91199741155105E4
:100D30006105710559F457968D919D910D90BC9167
:100D4000A02D0097A105B10541F521C09E012F5F9F
:100D50003F4F0E943C16882309F44BCF89819A812A
:100D6000AB81BC81F801238D348DF90127892031B5
:100D700029F048EF5FEF6FEF7FE004C048EF5FEFCF
:100D800060E070E084179507A607B70730F0C80148
:100D90000E94FE0281114ACF24CFF80186839783F7
:100DA000A087B18743CFE114F10429F5D8011A9641
:100DB0004D915D916D917C911D9753968D919D9173
:100DC0000D90BC91A02D481759076A077B0798F032
:100DD0000E941715882309F404CF40920401509211
:100DE0000501609206017092070180910A068160F8
:100DF00080930A0608C041E0C301B2010E94521567
:100E0000882309F4EECED601F701E556FD4F9F0188
:100E10002A0D3B1D2E173F0719F08D918193FACFB4
:100E2000CA0CDB1C5ECFD8015396CD90DD90ED90BF
:100E3000FC90569714968C91C416D506E606F706D4
:100E400040F4F801438B548B658B768B80688483E8
:100E50000DC02091400230914102232B39F0211422
:100E6000310421F08068D80114968C93F8018481B4
:100E700083FD02C0C10107C0C8010E94DE008823B3
:100E800009F4AFCEF7CF0F900F900F900F90DF9136
:100E9000CF911F910F91FF90EF90DF90CF90BF9077
:100EA000AF909F908F907F906F905F904F903F900A
:100EB0002F900895CF93DF93EC01898D9A8D009741
:100EC00039F481E090E09B838A8380E090E00BC05E
:100ED000FC01138212820E94B905E98DFA8D2281EC
:100EE0003381232B71F7DF91CF910895FC01DB0152
:100EF00012968D919C911397938382838DE591E057
:100F00009183808314968C911497848315968C9189
:100F10001597858316964D915D916D917C911997EA
:100F200046835783608771871A964D915D916D91C5
:100F30007C911D9742875387648775871E964D91D4
:100F40005D916D917C91519746875787608B718B2E
:100F500052968C915297828B53964D915D916D91E3
:100F60007C915697438B548B658B768B57964D911E
:100F70005D916D917C915A97478B508F618F728FE5
:100F80005B968D919C915C97948F838F08954F927F
:100F90005F926F927F92AF92BF92CF92DF92EF9269
:100FA000FF920F931F93CF93DF931F92CDB7DEB7BE
:100FB000FC012581222309F4C1C0848180FFBEC0C9
:100FC00083899489A589B68942845384648475840D
:100FD00084159505A605B70509F4B0C06F01520147
:100FE000F1E0BF22D6015B968D919C915C97B30195
:100FF000A20139E076956795579547953A95D1F7CF
:10100000223071F4FC01828D938DA48DB58D8A01FF
:101010009B01080F191F2A1F3B1FC901B8014AC0B5
:10102000DC0114961C9111501423A114B104F9F49D
:1010300011111DC045284628472851F4F60187891B
:10104000908DA18DB28D86839783A087B1870FC0C5
:10105000D60116964D915D916D917C9119979601EF
:101060002A5F3F4F0E943C16882309F467C0F601AF
:10107000238D348D86819781A085B1850297A10942
:10108000B109AC01BD01F901058404C0440F551F2D
:10109000661F771F0A94D2F786859785A089B18944
:1010A000840F951FA61FB71FBC01CD01610F711DD5
:1010B000811D911DD60114962C9126FF0DC04090E4
:1010C00004015090050160900601709007014616DA
:1010D00057066806790699F440E00E945215882365
:1010E00069F1F501E556FD4FDE0111969F012F5F75
:1010F0003F4F2E173F0799F081918D93FACFFE0154
:1011000031967F0101E010E09501AB01BC018091B7
:101110009B0490919C040E94B904882379F0F60105
:1011200082859385A485B5850196A11DB11D828711
:101130009387A487B587898190E002C08FEF9FEFE6
:101140000F90DF91CF911F910F91FF90EF90DF9063
:10115000CF90BF90AF907F906F905F904F90089529
:10116000FC01818D928D009711F00C94C7078FEFD1
:101170009FEF08950F931F93CF93DF93FC01818D11
:10118000928D0097B9F0EF010E94C7078C010F3FC5
:101190008FEF180791F0898D9A8DFC014285538558
:1011A0006485758541505109610971090E945E018C
:1011B000C80105C080E090E002C08FEF9FEFDF9193
:1011C000CF911F910F9108959F92AF92BF92CF92AE
:1011D000DF92EF92FF920F931F93CF93DF936C01F7
:1011E0005B01FC011082FB01108200E010E0C0E016
:1011F000D0E082E0E82EFF24F39493E0992E86E07D
:101200000E945C0E811125C02196809139028130A7
:1012100049F028F0823071F08330A9F01EC0F092BE
:1012200039021BC0C436D105C1F4F6018083E092B7
:10123000390211C0C83EF3E0DF0779F4F601F0820D
:101240009092390208C0C83CD10539F4F601F08209
:1012500002C010923902C0E0D0E085E00E945C0E2E
:10126000811126C00F5F1F4F80913802813049F0F5
:1012700028F0823071F08330A9F01EC0F09238025D
:101280001BC004361105C1F4F5018083E0923802D9
:1012900011C0083EF3E01F0779F4F501F082909247
:1012A000380208C0083C110539F4F501F08202C08B
:1012B0001092380200E010E0F6018081811102C036
:1012C000209739F4F501808181110AC001151105BB
:1012D00039F061E070E080E090E00E9417108FCF5D
:1012E000DF91CF911F910F91FF90EF90DF90CF9002
:1012F000BF90AF909F90089580934B02E1E8F0E09B
:1013000010821092850010928400809148028061C2
:10131000808381E080934A02809349020895FC0112
:101320009081961728F0941718F49F5F908301C05E
:101330006083109281001092850010928400809149
:10134000480280618093810081E080934A0280930B
:1013500049020895EF92FF920F931F93CF93DF936B
:1013600000D000D000D0CDB7DEB77C018B0140911A
:101370004402509145026091460270914702CE01AD
:1013800001960E947113898190E04496982F8827D6
:10139000990F2A8140E2249F900111244B81242B34
:1013A000822B932BF701918380838D81F0E28F9FB5
:1013B000900111249C81892F90E0982F8827990F04
:1013C000990F990F822B932B2E8130E0359527951D
:1013D000822B932BF8019183808326960FB6F89485
:1013E000DEBF0FBECDBFDF91CF911F910F91FF9058
:1013F000EF9008958091000690910106823091054A
:1014000038F0880F991F880F991F05970197F1F7FA
:101410000895833081F028F4813099F08230A1F072
:1014200008958730A9F08830B9F08430D1F48091E4
:1014300080008F7D03C0809180008F778093800033
:10144000089584B58F7702C084B58F7D84BD0895DB
:101450008091B0008F7703C08091B0008F7D809322
:10146000B0000895EF92FF920F931F93CF93DF93F5
:10147000EC017B018A011B821A8288EE93E0A0E0D6
:10148000B0E08C839D83AE83BF8387E291E0998334
:1014900088838DE190E00E943E249A8F898F009787
:1014A00079F02DE1F701DC0101900D922A95E1F729
:1014B0004CE050E0B801CE010C960E947C25188EBD
:1014C000DF91CF911F910F91FF90EF900895309190
:1014D0000805313208F04BC08091E5048111FCCF42
:1014E0009091090622E02093E50421E02093E40492
:1014F0002FEF2093E3041092E2043093E104E8EE2E
:10150000F4E0A1ECB4E020E0321721F041914D93DA
:101510002F5FFACF1092C0042091C004990F922B34
:101520009093C0049091BF04913061F41092BF0475
:101530009091C0049093BB009091BC0093FDF8CFB4
:1015400095EC01C095EE9093BC009091E50492302B
:10155000E1F39091E3049F3F79F08091E3048032BE
:1015600041F08091E304803331F084E005C081E0F4
:1015700003C082E001C083E01092E70410920805E6
:101580001092E6040895682F86EA95E00C94EB111A
:1015900091E09093E604809309061092E70410927C
:1015A000080508959091E5049111FCCF982F8132A0
:1015B00008F090E281E08093E5048093E4042FEF4B
:1015C0002093E3041092E204290F2093E104809316
:1015D000C0048091C004806D8093C0048091BF04DA
:1015E000813061F41092BF048091C0048093BB00ED
:1015F0008091BC0083FDF8CF85EC01C085EE80931F
:10160000BC008091E5048130E1F38091E204891708
:1016100010F49091E204E1ECF4E0AFE9B4E080E092
:10162000891721F021912D938F5FFACF10929E049C
:1016300080939D0408954F925F926F927F92AF9234
:10164000BF92CF92DF92EF92FF920F931F93CF93AF
:10165000DF9300D000D0CDB7DEB78C0149835A8329
:101660006B837C835901C12CD12C7601412C82E003
:10167000582E612C712C49815A816B817C819E018D
:101680002F5F3F4FC8010E943C16882351F1D301C0
:10169000C201F801058404C0880F991FAA1FBB1F4F
:1016A0000A94D2F7C80ED91EEA1EFB1E49815A8140
:1016B0006B817C818789803129F088EF9FEFAFEFC4
:1016C000BFE004C088EF9FEFA0E0B0E048175907E3
:1016D0006A077B0780F2F501C082D182E282F38241
:1016E00081E00F900F900F900F90DF91CF911F919D
:1016F0000F91FF90EF90DF90CF90BF90AF907F90D1
:101700006F905F904F900895CF93DF93FC012581F8
:10171000222311F080E049C0EC018091D70580318F
:10172000C1F482E08583178A108E118E128E80910B
:10173000D8059091D905A0E0B0E025E0880F991F69
:10174000AA1FBB1F2A95D1F7838B948BA58BB68BD1
:1017500019C08032F9F683E085834091DA05509113
:10176000DB056091DC057091DD05478B508F618F43
:10177000728F9F012D5E3F4F80EC95E00E941B0B06
:10178000882341F280EC95E09C8F8B8F81E08C83E5
:101790001E821F82188619861A861B861C861D8645
:1017A0001E861F86188A198A1A8ADF91CF9108959A
:1017B0008F929F92AF92BF92CF92DF92EF92FF9261
:1017C000CF93DF93C82F84EB95E090939C04809394
:1017D0009B04CC2369F1C53010F080E00CC140E0DF
:1017E00060E070E0CB010E9452158823B1F320E144
:1017F000C29FC001112485579D4FFC01E254FE4F4A
:1018000020812F7751F73C9640815181628173810D
:10181000443651056105710500F33497C080D180CD
:10182000E280F380C114D104E104F10421F4D5CFA6
:10183000C12CD12C760140E0C701B6010E9452159F
:10184000882359F28091A6029091A70281159240B7
:1018500021F6A091AB02AA2309F4BFCF6091A9029F
:101860007091AA026115710509F4B7CF2091A80201
:10187000222309F4B2CFA093D2052093C40580E0BF
:1018800030E041E050E0C82FFA01082E02C0EE0F10
:10189000FF1F0A94E2F72E173F0739F08F5FC83019
:1018A00091F789E08093CD0598CF8093CD05209165
:1018B000B1023091B2022115310519F040E050E03B
:1018C00008C02091BF023091C0024091C1025091E6
:1018D000C2022093C5053093C6054093C7055093B7
:1018E000C80546015701860E971EA11CB11C8092A7
:1018F000D3059092D405A092D505B092D605E0917B
:10190000AC02F091AD02F093D905E093D805B0E0B8
:101910000E945B23860E971EA81EB91E8092DA05D0
:101920009092DB05A092DC05B092DD0585E0EE0F1C
:10193000FF1F8A95E1F7E150FE4FEF2FFF27E69555
:101940008E0E9F1EA11CB11C8092CE059092CF05D9
:10195000A092D005B092D1052091AE023091AF0295
:101960002115310521F0A90160E070E008C0409127
:10197000BB025091BC026091BD027091BE02D701C2
:10198000C60188199909AA09BB09840F951FA61FCA
:10199000B71F04C0B695A79597958795CA95D2F7B6
:1019A0008093C9059093CA05A093CB05B093CC054D
:1019B000853F2FE09207A105B10510F48CE018C017
:1019C000853F9F4FA105B10510F480E111C08091C2
:1019D000C7029091C802A091C902B091CA02809337
:1019E000DA059093DB05A093DC05B093DD0580E27A
:1019F0008093D70581E0DF91CF91FF90EF90DF904A
:101A0000CF90BF90AF909F908F900895CF93DF932A
:101A1000EC01898D9A8D009741F00E94F202898D28
:101A20009A8D0E94D6241A8E198EDF91CF91089537
:101A30002F923F924F925F926F927F928F929F92DE
:101A4000AF92BF92CF92DF92EF92FF920F931F93CC
:101A5000CF93DF93CDB7DEB7C456D1090FB6F89454
:101A6000DEBF0FBECDBF5C0119A218A28DE591E0CB
:101A70009F8F8E8F1BA21C821B829A8389831E825A
:101A80004E018EE1880E911CC4010E94840B8E01D0
:101A90000F5F1F4F24018DE8C82E82E0D82E180159
:101AA0006FE270E0C6010E947125009709F442C000
:101AB000F60120812F3221F4FFEFCF1ADF0AF0CF99
:101AC0008C198D3008F08CE0E82EF12CA701B601BE
:101AD000CE01885A9F4F0E947C25E8E5F0E0EC0F8C
:101AE000FD1FEE0DFF1D1082C8010E94F202F801D9
:101AF0008581882351F01EAE1DAE8DE591E09CAF2F
:101B00008BAF21961FAE21971EC021E0AE01485A2F
:101B10005F4FB201C8010E94BF16882361F3CE0C4B
:101B2000DF1CC2010E94F202942D852D2801092F8D
:101B3000182FB6CFC6018D5892403C01B201CE019C
:101B4000CB960E947607830103571D4FF8018081D1
:101B5000811109C0BE01655C7F4FC1010E947607FB
:101B600045E352E039C019A218A28DE591E09F8F9C
:101B70008E8F1BA221968FAD2197811113C0F50185
:101B80001382128288EE93E0A0E0B0E08483958314
:101B9000A683B78387E291E091838083128E118EB2
:101BA00014861EC027E1A801BE01655C7F4FC401F9
:101BB0000E94BF16882319F3CE01CB960E94F20231
:101BC00049A95AA96BA97CA9C4010E945E01B4016C
:101BD000C1010E947607A801B101C5010E94320A25
:101BE000C501CC59DF4F0FB6F894DEBF0FBECDBF95
:101BF000DF91CF911F910F91FF90EF90DF90CF90E9
:101C0000BF90AF909F908F907F906F905F904F901C
:101C10003F902F9008958F929F92AF92BF92EF9234
:101C2000FF920F931F93CF93DF938B017C01C0E052
:101C3000D0E0C017D107A1F10E94AB186093110545
:101C400070931205809313059093140589E095E035
:101C50000E948B1097FF1FC00E94AB188090110547
:101C600090901205A0901305B0901405DC01CB01F3
:101C700088199909AA09BB0980900D0590900E0555
:101C8000A0900F05B090100588159905AA05BB0511
:101C9000E8F28E0105C0F70181937F012196C9CF3B
:101CA000C801DF91CF911F910F91FF90EF90BF90EE
:101CB000AF909F908F900895CF93DF93282F30E0BF
:101CC000F901E255FF4F8491F901E656FF4FD49197
:101CD000F901EA57FF4FC491CC2391F081110E9482
:101CE000090AEC2FF0E0EE0FFF1FE458FF4FA5911B
:101CF000B491EC91ED2381E090E021F480E002C00A
:101D000080E090E0DF91CF9108951F93CF93DF9310
:101D1000282F30E0F901E255FF4F8491F901E65692
:101D2000FF4FD491F901EA57FF4FC491CC23C1F082
:101D3000162F81110E94090AEC2FF0E0EE0FFF1F11
:101D4000EE58FF4FA591B4919FB7F894111104C0BC
:101D50008C91D095D82302C0EC91DE2BDC939FBFF1
:101D6000DF91CF911F910895CF93DF9390E0FC0115
:101D7000E656FF4F2491FC01EA57FF4F84918823D8
:101D800061F190E0880F991FFC01E859FF4FC59160
:101D9000D491FC01EE58FF4FA591B491611109C097
:101DA0009FB7F8948881209582238883EC912E2315
:101DB0000BC0623061F49FB7F8948881322F309560
:101DC00083238883EC912E2B2C939FBF06C08FB763
:101DD000F894E8812E2B28838FBFDF91CF9108954F
:101DE000CF93DF93CDEFD5E061E089810E94B40EFF
:101DF0000E94FA0960E088810E94B40E0E94FA09EC
:101E000060E089810E94B40EDF91CF910C94FA09B1
:101E1000CF93DF93D82FC8E061E08091FD050E9449
:101E2000B40E0E94FA09D0FF02C060E001C061E078
:101E30008091FE050E94B40E0E94FA0960E0809134
:101E4000FD050E94B40E0E94FA09D695C15021F7F3
:101E500061E08091FD050E94B40E60E08091FE0576
:101E60000E94B40E0E94FA0960E08091FD050E9474
:101E7000B40E0E94FA098091FE050E945C0EC82FE4
:101E8000811105C061E08091FE050E94B40E0E94A0
:101E9000FA0961E08091FD050E94B40E0E94FA09E2
:101EA00081E0C11101C080E0DF91CF91089561E030
:101EB0008091FE050E94B40E0C94FA09FF920F93D4
:101EC0001F93CF93DF93F82E092F162FC42F0E9454
:101ED000570F80E40E94080F0E94F00E0E94570FD7
:101EE0008C2F837080540E94080FCF2DD02FCE01ED
:101EF000810F911D8C01C017D10721F089910E949B
:101F0000080FF9CF0E94F00E0E94570F8091FF0535
:101F10008F7080580E94080FDF91CF911F910F9111
:101F2000FF900C94F00ECF93DF9300D000D0CDB78C
:101F3000DEB719821A821B821C8240E064E0CE0167
:101F400001960E945E0F0F900F900F900F90DF91FF
:101F5000CF9108958F929F92AF92BF92CF92DF92CE
:101F6000EF92FF920F931F93CF93DF9300D000D097
:101F7000CDB7DEB7D62EC42EBC0197FF03C0719536
:101F800061957109FB01392F331F3327331F8E01F0
:101F90000F5F1F4F5801AC0CB11C78018AE0882EEE
:101FA000912C40E40A151B05D1F0CF01B4010E9429
:101FB000EE23DC01BB27AD5EBE4F9C91D5019E9305
:101FC0005D01811106C0309721F4332311F04C9349
:101FD00030E0CF01B4010E94EE23FB01E3CFD1102A
:101FE00016C0422F6C2DC8010E945E0F0F900F90FB
:101FF0000F900F90DF91CF911F910F91FF90EF9075
:10200000DF90CF90BF90AF909F908F900895AE01DA
:102010004B5F5F4F8D2D8078F7019081892BD70121
:102020008D937D01DD0C4A175B07A1F7DACF8F9204
:102030009F92AF92BF92CF92DF92EF92FF926B018D
:102040007C010E9486184B015C01C114D104E1049B
:10205000F104F1F00E948618DC01CB01881999097E
:10206000AA09BB09883E9340A105B10570F321E0A0
:10207000C21AD108E108F10888EE880E83E0981EA4
:10208000A11CB11CC114D104E104F10419F7DDCF86
:10209000FF90EF90DF90CF90BF90AF909F908F9088
:1020A00008950895CF92DF92EF92FF920F931F93BE
:1020B000CF93DF936C017A018B01C0E0D0E0CE15A5
:1020C000DF0581F0D8016D918D01D601ED91FC9174
:1020D0000190F081E02DC6010995892B11F0219620
:1020E000EECF7E01C701DF91CF911F910F91FF903D
:1020F000EF90DF90CF900895FC01538D448D252FF4
:1021000030E0842F90E0821B930B541710F0CF9691
:10211000089501970895FC01918D828D981761F0C3
:10212000828DDF01A80FB11D5D968C91928D9F5F0E
:102130009F73928F90E008958FEF9FEF0895FC01B9
:10214000918D828D981731F0828DE80FF11D858D6C
:1021500090E008958FEF9FEF0895FC01918D228DFF
:10216000892F90E0805C9F4F821B91098F73992784
:10217000089589E095E00E94AD1021E0892B09F4D3
:1021800020E0822F0895FC01848DDF01A80FB11D8E
:10219000A35ABF4F2C91848D90E001968F7399279D
:1021A000848FA689B7892C93A089B1898C9183707B
:1021B00080648C93938D848D981306C00288F38974
:1021C000E02D80818F7D80830895EF92FF920F93A1
:1021D0001F93CF93DF93EC0181E0888F9B8D8C8DD3
:1021E000981305C0E889F989808185FD26C0F62EFF
:1021F0000B8D10E00F5F1F4F0F731127E02E8C8D9A
:10220000E8120CC00FB607FCFACFE889F989808183
:1022100085FFF5CFCE010E94C310F1CF8B8DFE015B
:10222000E80FF11DE35AFF4FF0829FB7F8940B8F30
:10223000EA89FB89808180620AC09FB7F894EE89A1
:10224000FF896083E889F989808183708064808355
:102250009FBF81E090E0DF91CF911F910F91FF90A0
:10226000EF900895CF93DF93EC01888D8823C9F018
:10227000EA89FB89808185FD05C0A889B9898C918F
:1022800086FD0FC00FB607FCF5CF808185FFF2CF2A
:10229000A889B9898C9185FFEDCFCE010E94C3102A
:1022A000E7CFDF91CF91089580E090E0892B29F06E
:1022B0000E94B91081110C940000089585ED80935F
:1022C000BC008091BC0084FDFCCF1092E504089511
:1022D00040912F06262F30E0240F311D2132310589
:1022E000DCF42091E5042430C9F4FC0180E090E0A6
:1022F000861758F430912F062191DC01A15FB94F68
:10230000A30FB11D2C930196F3CF80912F06680F78
:1023100060932F0680E0089581E0089582E008959B
:10232000089508950895E0919E0480919D04E81712
:1023300030F4F0E0E156FB4F808190E008958FEF9C
:102340009FEF089590919E0480919D04981750F4FA
:10235000E92FF0E0E156FB4F208130E09F5F909342
:102360009E0402C02FEF3FEFC901089580919D04A4
:1023700090E020919E04821B91090895CF92DF92F4
:10238000EF92FF920F931F93CF93DF937C01CB01CA
:102390008A012091E604222389F0EB016B01C40E2F
:1023A000D51ECC15DD0569F06991D701ED91FC9141
:1023B0000190F081E02DC7010995F3CF642F0E94B1
:1023C0006811C801DF91CF911F910F91FF90EF909D
:1023D000DF90CF900895CF93DF931F92CDB7DEB7F4
:1023E00069832091E6042223D1F020910805203250
:1023F00040F021E030E0FC013383228380E090E074
:1024000015C08091E704E82FF0E0E851FB4F998177
:1024100090838F5F8093E7048093080505C061E097
:10242000CE0101960E94681181E090E00F90DF914B
:10243000CF9108950E945F25CF93DF931F92CDB770
:10244000DEB7698341E050E0BE016F5F7F4F0E94BD
:10245000B9050F90DF91CF9108951F920F920FB69B
:102460000F9211242F933F934F935F936F937F931A
:102470008F939F93AF93BF93EF93FF93E0910201EC
:10248000F09103010995FF91EF91BF91AF919F9159
:102490008F917F916F915F914F913F912F910F900D
:1024A0000FBE0F901F9018951F920F920FB60F92AC
:1024B00011242F933F934F935F936F937F938F9349
:1024C0009F93AF93BF93EF93FF93E0910001F0913F
:1024D00001010995FF91EF91BF91AF919F918F916C
:1024E0007F916F915F914F913F912F910F900FBE10
:1024F0000F901F9018956115710579F0FB010190FF
:102500000020E9F73197AF01461B570BDC01ED9135
:10251000FC910280F381E02D099480E090E0089521
:102520001F920F920FB60F9211242F933F934F9348
:102530005F936F937F938F939F93AF93BF93EF932B
:10254000FF9389E095E00E94C310FF91EF91BF9146
:10255000AF919F918F917F916F915F914F913F913B
:102560002F910F900FBE0F901F9018951F920F92F2
:102570000FB60F9211242F938F939F93EF93FF9396
:10258000E0911905F0911A058081E0911F05F09105
:10259000200582FD12C09081809122058F5F8F738C
:1025A00020912305821751F0E0912205F0E0E75FCA
:1025B000FA4F958F8093220501C08081FF91EF91A2
:1025C0009F918F912F910F900FBE0F901F90189594
:1025D0001F920F920FB60F9211242F933F934F9398
:1025E0005F936F937F938F939F93AF93BF93EF937B
:1025F000FF93E0913A02F0913B020995FF91EF9130
:10260000BF91AF919F918F917F916F915F914F910A
:102610003F912F910F900FBE0F901F901895EF9242
:10262000FF920F931F93CF93DF93EC016981388161
:10263000432F50E08A8190E0E2EDF0E021E02617A0
:1026400030F47491870F911D2F5F3196F8CF63306E
:1026500018F0337009F401966DE671E0469F900121
:10266000479F300D569F300D1124215031094D5F89
:102670005F4F5695479556954795240F351F280F60
:10268000391FA8E1B0E00E949D232B817B018C01C2
:10269000E20EF11C011D111DA8019701ACE3B0E091
:1026A0000E945B232C817B018C01E20EF11C011D39
:1026B000111DA80197010E945B232D81DC01CB0134
:1026C000820F911DA11DB11DBC01CD0160587C4B35
:1026D0008249974CDF91CF911F910F91FF90EF901E
:1026E00008958F929F92AF92BF92CF92DF92EF9216
:1026F000FF92CF93DF93EC016A017B0180E8C81A57
:1027000083E4D80A8DE6E80A88E3F80A8CE3882E89
:10271000912CA12CB12CC701B601A50194010E94F6
:1027200016246D83CA01B901A50194010E941624E3
:102730006C83C701B60120E13EE040E050E00E941A
:102740001624CA01B90128E130E040E050E00E94BF
:1027500016246B83C701B60120E831E541E050E063
:102760000E94162418824881542F537081E009F08A
:1027700080E090E0BC0163597E4F2617370738F0A0
:10278000281B390B2D5631404F5F4883ECCF81E039
:1027900089838981E82FF0E0EF52FF4FE4915111D6
:1027A00003C0823009F4EF5FF0E02E173F0720F0FE
:1027B0002E1B3F0B8F5FECCF2F5F2A83DF91CF91D2
:1027C000FF90EF90DF90CF90BF90AF909F908F9051
:1027D00008951F920F920FB60F9211242F933F93DB
:1027E0004F935F936F937F938F939F93AF93BF9319
:1027F000EF93FF938091B900887F803609F49CC0E5
:1028000068F5883209F45BC090F4803109F454C053
:1028100038F4882309F4F6C0883009F44DC0F6C0B6
:10282000883109F44CC0803209F45DC0EFC08034B7
:1028300009F468C048F4803309F455C0883309F0BE
:10284000E5C08093E304D8C0803509F44FC08835D3
:1028500009F45DC0883409F0D9C0D6C0883909F4BC
:10286000C7C0A8F4883709F467C038F4883609F47B
:1028700063C0803709F460C0C9C0883809F4B8C0A3
:10288000803909F45FC0803809F0C0C05BC0803B6C
:1028900009F486C038F4803A09F466C0883A09F42D
:1028A0007FC0B4C0803C09F4A7C0883C09F4A4C030
:1028B000883B09F48AC0AAC08091C00410C09091DE
:1028C000E2048091E104981770F5E091E20481E060
:1028D0008E0F8093E204F0E0EF53FB4F80818093F2
:1028E000BB0085EC86C08093E3048EC0E091E204D7
:1028F00081E08E0F8093E2048091BB00F0E0EF5303
:10290000FB4F80839091E2048091E1046EC0E091DE
:10291000E20481E08E0F8093E2048091BB00F0E03E
:10292000EF53FB4F80838091E40481116DC081E0FF
:102930008093BF0484EA61C083E08093E504109231
:102940005106CFCF80915106803208F051C0E091FE
:10295000510681E08E0F809351068091BB00F0E01C
:10296000EF5CF94F8083BDCF85EC8093BC00109263
:10297000E50480915106803230F4E0915106F0E098
:10298000EF5CF94F10826091510670E0E0913C02DB
:10299000F0913D0281E396E009951092510636C010
:1029A00084E08093E5041092300610922F06E091A7
:1029B0003E02F0913F02099580912F06811105C0DA
:1029C00081E080932F0610920F06E091300681E09F
:1029D0008E0F80933006F0E0E15FF94F80818093A5
:1029E000BB009091300680912F06981708F479CF9C
:1029F00085E88093BC000AC085EC8093BC001092EF
:102A0000E50404C01092E3040E945E11FF91EF916F
:102A1000BF91AF919F918F917F916F915F914F91F6
:102A20003F912F910F900FBE0F901F90189580919E
:102A30000A068823A9F14091040150910501609193
:102A40000601709107012BE932E080919B0490917F
:102A50009C040E944D05811102C080E008954091C0
:102A60000B0650910C0660910D0670910E064115F3
:102A700051056105710591F02BE932E080919B04CD
:102A800090919C040E944D05882339F310920B0607
:102A900010920C0610920D0610920E0610920A0665
:102AA00081E008958F929F92AF92BF92EF92FF9232
:102AB0000F931F93CF934B015C01C42F80910401AE
:102AC00090910501A0910601B09107018815990523
:102AD000AA05BB0501F10E941715811102C080E013
:102AE00020C08BE9E82E82E0F82E00E012E020E022
:102AF00030E0B501A40180919B0490919C040E9458
:102B0000B904882361F38092040190920501A09298
:102B10000601B092070180910A06C82BC0930A06ED
:102B200081E0CF911F910F91FF90EF90BF90AF90F8
:102B30009F908F9008954F925F926F927F928F92A5
:102B40009F92AF92BF92CF92DF92EF92FF920F933C
:102B50001F93CF93DF93EC0142305105610571055E
:102B600010F480E078C089859A85AB85BC85019694
:102B7000A11DB11D84179507A607B70790F3CB8851
:102B8000DC88ED88FE888F89803129F4BB27A72F48
:102B9000962F852F09C0DB01CA01E7E0B695A795FE
:102BA00097958795EA95D1F7480159012A013B018C
:102BB000C80ED91EEA1EFB1E8091040190910501EA
:102BC000A0910601B0910701C816D906EA06FB06D6
:102BD00081F48F898031A9F4B301A20155276627BA
:102BE0007727440F551FFA01E556FD4F91828082E9
:102BF00019C040E0C701B6010E9452158111E9CF0A
:102C0000B0CFB301A2014F77552766277727440F2E
:102C1000551F440F551FFA01E556FD4F80829182E2
:102C2000A282B38280910A06816080930A068A8913
:102C3000823080F08D819E81AF81B885C80ED91E0B
:102C4000EA1EFB1EC0920B06D0920C06E0920D0607
:102C5000F0920E0681E0DF91CF911F910F91FF90CE
:102C6000EF90DF90CF90BF90AF909F908F907F902C
:102C70006F905F904F9008958F929F92AF92BF9206
:102C8000CF92DF92EF92FF920F931F93CF93DF9338
:102C9000FC0181859285A385B4850196A11DB11D96
:102CA00084179507A607B70710F480E05BC08388F8
:102CB0009488A588B6888789803129F4BB27A72FF7
:102CC000962F852F09C0DB01CA01C7E0B695A795ED
:102CD00097958795CA95D1F7E9016A017B018F0124
:102CE000BC01CD01680D791D8A1D9B1D80900401DA
:102CF00090900501A0900601B09007016815790534
:102D00008A059B0591F4F80187898031A1F4DD24BF
:102D1000EE24FF24C601880F991FFC01E556FD4FE4
:102D200080819181A0E0B0E018C040E00E9452157F
:102D30008111E9CFBACFE894C7F8DD24EE24FF244F
:102D4000C601880F991F880F991FFC01E556FD4F9A
:102D500080819181A281B381BF7088839983AA8386
:102D6000BB8381E0DF91CF911F910F91FF90EF9096
:102D7000DF90CF90BF90AF909F908F9008952F924B
:102D80003F924F925F926F927F928F929F92AF92FB
:102D9000BF92CF92DF92EF92FF920F931F93CF9348
:102DA000DF93CDB7DEB72B970FB6F894DEBF0FBE1B
:102DB000CDBF7C01FE013196CE010C966F0130E251
:102DC0003193E817F907E1F7DA0130E087E09D91E8
:102DD000992331F19E3231F48A3009F479C138E017
:102DE0008AE0F5CFE2ECF0E04491442321F0319603
:102DF0009413FACF6DC1831708F46AC14FED490FE0
:102E00004E3508F065C141E0430FF601E30FF11DB7
:102E10003FE9390F3A3108F490529083342FD7CFDD
:102E20008981803209F454C1322E8B01DB015B961B
:102E30008D919C915C97F701948F838F16961D92CC
:102E40001D921D921C921997FB01128613861486FF
:102E50001586B12CF80182859385A485B5854389B3
:102E600054896589768984179507A607B70708F0FE
:102E70005BC025E0B695A795979587952A95D1F7DC
:102E8000F82FFF70AF2ED80115968C91823008F480
:102E90001FC1C8010E94C70797FD1AC1F8018285AA
:102EA0009385A485B5854F96A11DB11D8287938713
:102EB000A487B587F0E2AF9EB001112465567D4F1F
:102EC0006115710509F404C1DB018C91882319F0A7
:102ED000853EC1F4FFC0B1100EC0F701A28A8091F7
:102EE000040190910501A0910601B0910701868728
:102EF0009787A08BB18BDB018C91882399F0BB2441
:102F0000B394A8CF4BE050E0C6010E946425892B02
:102F100009F0A0CF832D8073803309F4D9C0432DED
:102F20006A2DD2C0BB24B394832D8271823109F003
:102F3000CFC0BB20C9F0F70166857785808991896C
:102F400041E00E945215882309F4C2C0D70152966D
:102F50000C91B0E20B9F8001112405561D4F011505
:102F6000110509F078C0B4C0F8018581823009F4F8
:102F7000AFC0C8010E94FE02882309F4A9C0D8018D
:102F80005B96ED91FC915C9716968D909D90AD901F
:102F9000BC901997B2E08B1A9108A108B10805847A
:102FA00004C0880C991CAA1CBB1C0A94D2F7868505
:102FB0009785A089B189880E991EAA1EBB1E248000
:102FC000E1E08E1A9108A108B108222009F124013C
:102FD0003501420C511C611C711C0E94171588237D
:102FE00009F476C0EBE9F2E0119224E0EB39F20744
:102FF000D9F7409204015092050160920601709247
:10300000070180910A06816080930A062A94DDCF29
:10301000D8015B96ED91FC915C9780E092E0A0E096
:10302000B0E0058404C0880F991FAA1FBB1F0A9433
:10303000D2F7F8014389548965897689840F951FF1
:10304000A61FB71F838B948BA58BB68BD701529687
:103050001C920BE912E080E2F80111928A95E9F7DF
:103060008BE0F601D80101900D928A95E1F7E0918D
:103070004002F0914102309739F0B801625F7F4F12
:10308000C801409609950DC081E298E2D801519699
:103090009C938E93509780E098E01F969C938E931C
:1030A0001E97F80180899189938B828B918F808FF5
:1030B00086859785978B868B0E941715882341F00C
:1030C000432DD70152966C91C7010E94F50105C0AE
:1030D00080E003C0B11013CF00CF2B960FB6F89449
:1030E000DEBF0FBECDBFDF91CF911F910F91FF903B
:1030F000EF90DF90CF90BF90AF909F908F907F9098
:103100006F905F904F903F902F9008953FB7F89445
:103110008091570690915806A0915906B0915A0691
:1031200026B5A89B05C02F3F19F00196A11DB11D22
:103130003FBFBA2FA92F982F8827820F911DA11D5D
:10314000B11DBC01CD0142E0660F771F881F991F9A
:103150004A95D1F708952FB7F8946091530670916E
:10316000540680915506909156062FBF08951F92E0
:103170000F920FB60F9211242F933F938F939F932B
:10318000AF93BF938091530690915406A09155063A
:10319000B09156063091520623E0230F2D3720F4CC
:1031A0000196A11DB11D05C026E8230F0296A11DA1
:1031B000B11D209352068093530690935406A0931A
:1031C0005506B09356068091570690915806A091E7
:1031D0005906B0915A060196A11DB11D809357065C
:1031E00090935806A0935906B0935A06BF91AF9199
:1031F0009F918F913F912F910F900FBE0F901F9035
:103200001895CF93DF93CDB7DEB7CA56D1090FB665
:10321000F894DEBF0FBECDBF789484B5826084BDC4
:1032200084B5816084BD85B5826085BD85B58160CA
:1032300085BD80916E00816080936E001092810048
:103240008091810082608093810080918100816003
:1032500080938100809180008160809380008091C4
:10326000B10084608093B1008091B0008160809350
:10327000B00080917A00846080937A0080917A0017
:10328000826080937A0080917A00816080937A00D6
:1032900080917A00806880937A001092C100109229
:1032A0008202109281021092840210928302109284
:1032B000850261E087E00E94B40E60E087E00E9432
:1032C000850E61E088E00E94B40E60E088E00E9414
:1032D000850E10927F0262E086E00E94B40E62E0EA
:1032E00085E00E94B40E109239021092380289E4EF
:1032F0008093860285E00E945C0E892B19F082E59E
:103300008093860280918602893419F480ED97E0DB
:1033100004C0823551F488EC90E090938A02809347
:10332000890210928802109287020E94930F809166
:103330000E0190910F01A0911001B09111018E8F9B
:103340009F8FA8A3B9A340E064E0CE014E960E94EF
:103350005E0F60ED77E080E090E00E941710E09152
:103360001905F0911A0582E08083E0911505F0912E
:1033700016051082E0911705F091180580E1808311
:1033800010922105E0911D05F0911E0586E08083D5
:10339000E0911B05F0911C05808180618083E091A4
:1033A0001B05F0911C05808188608083E0911B05DE
:1033B000F0911C05808180688083E0911B05F0916D
:1033C0001C0580818F7D808384E690E0A0E0B0E0E2
:1033D00080930D0590930E05A0930F05B0931005F3
:1033E00081E791E09F938F9386E791E09F938F937E
:1033F0008DE492E09F938F930E948B256DE472E0A1
:1034000089E095E00E947B128FE08093FF050E9487
:10341000930F81E080934302809342028AEA99E00D
:1034200090934102809340020F900F900F900F9065
:103430000F900F908091E305882321F08EED95E0A9
:103440000E94F2021092BF051092BD051092BA05BB
:103450001092B9058AE08093B8050E94AB186B0101
:103460007C0161E08091B8050E94B40E61E080911A
:10347000B8050E94850E1FB7F89480914C02811107
:1034800027C0E0E9F0E08491E4EAF0E09491E82FCD
:10349000F0E0EE0FFF1FE859FF4FA591B491EC91BA
:1034A000E92321F461E08AE00E94850E61E08AE070
:1034B0000E94B40E8CB580618CBD8CB580648CBDCF
:1034C00061E08DE00E94B40E61E08BE00E94B40EDA
:1034D00080914C028F5F80934C021FBF82E58093E6
:1034E000B2051092B3058091B2059091B3050E9488
:1034F00051041AE08FEF0E9412041150D9F784EBA7
:1035000095E00E94540420E030E0A90160E084EBE3
:1035100095E00E946A04182F8093BE05813049F01F
:103520000E94AB186C197D09613D774060F381E022
:1035300054C02AEA31E040E050E068E084EB95E0D6
:103540000E946A0482FF03C01093BF050EC014E0FE
:103550000E9419048093BE051150D1F78A3A11F0E8
:1035600082E03BC082E08093BF058091BF0582303E
:1035700031F4812C912CA12CF0E4BF2E03C0812CBE
:10358000912C540120E030E0A90167E384EB95E041
:103590000E946A04A501940169E284EB95E00E940F
:1035A0006A048093BE05882349F00E94AB186C1909
:1035B0007D09613D774030F388E00FC08091BF0501
:1035C000823001F520E030E0A9016AE384EB95E068
:1035D0000E946A04882341F086E08093B90584EB59
:1035E00095E00E94070428C00E941904807C803C5A
:1035F00019F483E08093BF050E9419040E94190406
:103600000E94190484EB95E00E94070480E58093F2
:10361000B2051092B30581E00E94D80B882339F0DF
:103620008EED95E00E94840B882331F01AC080E073
:103630000E94D80B8111F4CF61E087E00E94850ED3
:1036400068EC70E080E090E00E94171060E087E096
:103650000E94850E68EC70E080E090E00E941710F8
:10366000EBCF10924B0281E080934A028093490293
:1036700090E1909381001092800093E09093480233
:1036800022E13AE7309387002093860093E19093FC
:10369000810025ED30E030933B0220933A02809385
:1036A0006F0010928100109285001092840090911A
:1036B00048029061909381004FE458E169E47CE511
:1036C0004093440250934502609346027093470230
:1036D00010929E0410929D041092E7041092080527
:1036E0001092E5048093E4041092BF0461E082E14B
:1036F0000E94850E61E083E10E94850E8091B900F1
:103700008E7F8093B9008091B9008D7F8093B9003E
:1037100088E48093B80085E48093BC0080E991E15F
:1037200090933F0280933E0281E991E190933D02A4
:1037300080933C0288E60E94C80A80E090E00E94E4
:10374000C30A0E94670A87E090E00E94D20A86EAD4
:1037500095E00E94A2118F77982F92959F701AEF93
:10376000082F919F000D112486EA95E00E94A21176
:103770009C01332744E0359527954A95E1F7F82ECB
:10378000129FF00C112486EA95E00E94A2119C0180
:10379000332754E0359527955A95E1F7E82E129F87
:1037A000E00C112486EA95E00E94A21186EA95E0D9
:1037B0000E94A2119C01332764E0359527956A95F4
:1037C000E1F7D82E129FD00C112486EA95E00E94D2
:1037D000A2119C01332774E0359527957A95E1F77E
:1037E000C82E129FC00C112486EA95E00E94A211F7
:1037F0009C013327E4E035952795EA95E1F7129F80
:10380000800D11248983CA82DB82EC82FD820E83C3
:10381000CE0101960E940F136093440270934502FB
:10382000809346029093470288E60E94C80A8EE081
:1038300090E00E94C30A0E94670A81E090E00E9423
:10384000D20A86EA95E00E94A211182F88E60E940B
:10385000C80A8EE090E00E94C30A612F637286EA74
:1038600095E00E94EB110E94670A62E080E00E94EE
:10387000B40E8BE391E0909301018093000180915D
:1038800069008C7F816080936900E89A60E971E04B
:1038900089E095E00E947B1265EA71E089E095E09D
:1038A0000E947B120091020630910306A9963FAF59
:1038B000A99780910406A8968FAFA897F090050667
:1038C000A796FFAEA79790910606A6969FAFA697DC
:1038D00020914B02222309F439C2233009F497C006
:1038E00030F4213059F0223009F455C02CC2243074
:1038F00009F4C4C0253009F403C125C210E0005307
:10390000184F80914A02882379F0809149028823D8
:1039100039F020E044E060E0C8010E94AA0F02C034
:103920000E94930F10924A02BE0167597F4FCE0149
:1039300086599F4F0E94E408AB969FADAB97AA961D
:103940008FADAA97911123C0882309F442C4C801FE
:10395000805D97408336910518F40F5F1F4F02C0BA
:1039600000ED17E010928100109285001092840003
:103970008091480280618093810081E080934A02B7
:1039800080934902005D17400093020637C0811101
:1039900020C482E039C080914A02882381F080915E
:1039A0004902882341F020E042E060E0832F90E06C
:1039B0000E94AA0F02C00E94930F10924A02BE01F9
:1039C00067597F4FCE0186599F4F0E94E408AB96FE
:1039D0009FADAB97AA968FADAA97911112C088237D
:1039E00009F4F7C34CE061E0CE0188599F4F0E9473
:1039F0008F09A9968FADA9978093030610920706A9
:103A0000E8C38111E6C383E00E947C09E2C3909180
:103A10004A02992379F090914902992339F022E0E2
:103A200042E060E090E00E94AA0F02C00E94930F63
:103A300010924A02BE0167597F4FCE0186599F4FAF
:103A40000E94E408AB969FADAB97AA968FADAA975C
:103A5000911110C0882309F4BCC34FE161E0CE018D
:103A600089599F4F0E948F09A8968FADA897809380
:103A70000406C4CF8111ADC384E0C6CF80914A0251
:103A80008823D1F080914902092F10E0882351F05A
:103A900020E044E060EEC801E4E6FE9E800D911D4A
:103AA000112406C00E94930F22E042E060EEC8019C
:103AB0000E94AA0F10924A02BE0167597F4FCE01A1
:103AC00086599F4F0E94E408AB969FADAB97AA968C
:103AD0008FADAA97911110C0882309F47AC347E1EA
:103AE00060E0CE018A599F4F0E948F09A7968FAD43
:103AF000A7978093050682CF81116BC385E084CFA1
:103B000080914A028823D1F080914902882359F09C
:103B1000892F90E020E044E060EEF4E6FF9E800D07
:103B2000911D112407C00E94930F20E042E060EE37
:103B30008F2D90E00E94AA0F10924A02BE01675991
:103B40007F4FCE0186599F4F0E94E408AB969FADF0
:103B5000AB97AA968FADAA97911110C0882309F44C
:103B600038C34BE360E0CE018B599F4F0E948F0911
:103B7000A6968FADA6978093060640CF811129C3E4
:103B80000091020688E60E94C80A86E090E00E9442
:103B9000C30A1AE0802F612F0E94E223692F20E1DF
:103BA000829F600D112486EA95E00E94EB110E942D
:103BB000670A0091030688E60E94C80A85E090E043
:103BC0000E94C30A802F612F0E94E223692F30E1F7
:103BD000839F600D112486EA95E00E94EB110E94FC
:103BE000670A0091040688E60E94C80A84E090E013
:103BF0000E94C30A802F612F0E94E223692FE0E117
:103C00008E9F600D112486EA95E00E94EB110E94C0
:103C1000670A0091050688E60E94C80A82E090E0E3
:103C20000E94C30A0E94670A81E090E00E94D20AC3
:103C300086EA95E00E94A21186FF18C00D3060F060
:103C400084EF800F612F0E94E223192FF0E18F9FF4
:103C5000100D1124106614C0802F612F0E94E223E2
:103C6000192F20E1829F100D11240AC0802F612F8F
:103C70000E94E223192F30E1839F100D11241F7B36
:103C800088E60E94C80A82E090E00E94C30A612F81
:103C900086EA95E00E94EB110E94670A10910606E1
:103CA00088E60E94C80A81E090E00E94C30A812F42
:103CB0006AE00E94E223692FE0E18E9F600D1124EB
:103CC00086EA95E00E94EB110E94670A88E60E944E
:103CD000C80A80E090E00E94C30A60E086EA95E0AE
:103CE0000E94EB110E94670A88E60E94C80A8FE0D2
:103CF00090E00E94C30A0E94670A81E090E00E945F
:103D0000D20A86EA95E00E94A211182F88E60E9446
:103D1000C80A8FE090E00E94C30A612F6F7786EA9D
:103D200095E00E94EB110E94670A82E096E00E94F3
:103D30000F13609344027093450280934602909360
:103D4000470280E061CE10924B0243C2809186020E
:103D5000823509F0B5C010918502812F90E064E0B2
:103D600070E0681B790B8F579D4F0E940B0E8823C4
:103D700009F461C1810F80938502843009F029C262
:103D800020918102309182023227232732273093FB
:103D9000820220938102809183029091840298276D
:103DA00089279827909384028093830260918902E7
:103DB00070918A022617370708F07FC0409187026A
:103DC000509188024217530708F077C0861797076B
:103DD00008F073C04817590708F06FC0809180023F
:103DE000882309F46AC061E088E00E94850E85E0BE
:103DF00080937F02409144025091450260914602B7
:103E000070914702CE014E960E947113CE01019629
:103E10000E94180DEA8DFB8D309709F44AC0858108
:103E2000882309F446C040914402509145026091B4
:103E3000460270914702809184028F9380918302A1
:103E40008F93809182028F93809181028F938BA1B7
:103E50001F928F938AA11F928F9389A11F928F9394
:103E600088A11F928F938F8D1F928F938E8D90E0DC
:103E70008053984F9F938F937F936F935F934F934C
:103E800088EA91E09F938F938DE492E09F938F93C4
:103E90000E948B256DE472E0CE0101960E947B1298
:103EA000CE0101960E94060D0FB6F894DEBF0FBE3C
:103EB000CDBF60E088E00E94850E1092850289C126
:103EC000893409F0B8C000918502802F90E062E04B
:103ED00070E0681B790B8F579D4F0E940B0E182FB7
:103EE000882309F4A8C001110FC08091810290912C
:103EF0008202282F207F19F48093810205C011507F
:103F0000892FB9F790938102010F00938502023047
:103F100008F48FC0109285028091810290918202F4
:103F20009827892798279093820280938102209175
:103F30008002222309F47DC097702091890230917C
:103F40008A022817390708F474C02091870230913B
:103F500088028217930708F46CC061E088E00E9431
:103F6000850E409144025091450260914602709145
:103F70004702CE014E960E947113CE0101960E9417
:103F8000180DEA8DFB8D309709F44FC08581882389
:103F900009F44BC080918102909182029C0137709C
:103FA00093FF03C088EE93E002C080E090E0409170
:103FB00044025091450260914602709147023F933E
:103FC0002F939F938F938BA11F928F938AA11F9200
:103FD0008F9389A11F928F9388A11F928F938F8DAA
:103FE0001F928F938E8D90E08053984F9F938F9365
:103FF0007F936F935F934F9388EA91E09F938F93A2
:104000008DE492E09F938F930E948B256DE472E084
:10401000CE0101960E947B12CE0101960E94060DF0
:104020000FB6F894DEBF0FBECDBF60E088E00E94FF
:10403000850E1111CEC01092850280914302882313
:10404000F1F0109243024091440250914502609178
:10405000460270914702CE0101960E9471132C8195
:104060008D8190E0E4E62E9F800D911D112420911A
:1040700042022111B1C044E060EE0E94AA0FBE01CD
:1040800067597F4FCE0186599F4F0E94E408909157
:104090008002992309F4A4C0AB968FADAB97882317
:1040A00009F406C1AA962FADAA97211101C181E09A
:1040B000292E282620928002222009F4F4C061E0F3
:1040C00087E00E94850EC12CD12C9DE5A92E91E0A0
:1040D000B92EDF92CF9221ED31E03F932F93EDE89F
:1040E000F2E0FF93EF930E948B251EAE1DAEBCAE97
:1040F000ABAE21961FAE219719A218A2BF8EAE8E2D
:104100001BA20F900F900F900F900F900F90612CAB
:10411000712CCE01CB967C010EED15E0C301F301AD
:10412000E357FD4F20812F3209F40196DC01A3579C
:10413000BD4FFE01E85AFF4F20E030E04F014D91A6
:104140004F3209F070C0F401E20FF31F1082FC013E
:10415000E357FD4F20812F3209F401963C01FC0109
:10416000E357FD4F30801C821B82BA82A9821E82D7
:1041700021E0A401B801CE0101960E94BF16882358
:1041800009F41DC1CE0101960E94F202332009F408
:1041900062C0F7018581811112C121E0A401B8013B
:1041A000C7010E94BF16982EF5E00E3D1F0709F4C7
:1041B00046C0C8010E94F202911047C0CE0101968C
:1041C0000E94180DEA8DFB8D309719F085818111C1
:1041D000E4C00E94541166CB20E044E060E04DCF83
:1041E000AB968FADAB97882309F456CFAA968FADC7
:1041F000AA97882309F450CF409144025091450278
:104200006091460270914702CE0101960E9471139F
:1042100086E0FE013196A2E0B6E001900D928A950B
:10422000E1F781E0F1CB442309F48DCF2F5F3F4FBD
:10423000019641932C30310509F081CF84CF88233A
:1042400009F4BCCF8E01025E1F4F902F812F870192
:10425000E92EF82E63CF25E00E3D120719F0C801B4
:104260000E94F202222009F4A9CF3FEFC31AD30A19
:1042700080E1C81687E2D80609F02BCF61E087E01D
:104280000E94850E64EF71E080E090E00E941710BC
:1042900060E087E00E94850E64EF71E080E090E0CE
:1042A0000E941710EBCF60E087E00E94850E91CF4F
:1042B000AA969FADAA97992309F48BCF811189CF34
:1042C00088E60E94C80A81E190E00E94C30A0E9429
:1042D000670A82E090E00E94D20A90919D0480914A
:1042E0009E049817F9F086EA95E00E94A211182F13
:1042F00086EA95E00E94A211512E412CB201682B52
:1043000086E0759567958A95E1F7072E000C880B76
:10431000990B0E94622220E030E040E85EE30E94B8
:104320009D2204C060E07CE38CE196EC0E94AC230B
:104330009B0119821A821B821C8249E34C8377FFFE
:104340000BC022273327261B370B80E12A3031058B
:1043500014F48A8301C08983C9016AE070E00E9475
:104360000224FC01ED5EFE4F80818B832A303105F3
:104370003CF06F70E62FF0E0ED5EFE4F80818A83A7
:1043800040E064E0CE0101960E945E0F68EB7BE0A6
:1043900080E090E00E9417101CCF80918602893443
:1043A00019F46EED71E002C066E072E0CE01019694
:1043B0000E947B12CE0101960E94060D0ACF95E065
:1043C0000E3D190709F4FACEC8010E94F202F6CE9A
:1043D000CF93DF93E9E0F5E01382128288EE93E059
:1043E000A0E0B0E084839583A683B78329E331E01E
:1043F0003183208325EC30E03587248724EC30E0BE
:104400003787268720EC30E0318B208B21EC30E0A1
:10441000338B228B22EC30E0358B248B26EC30E082
:10442000378B268B118E128E138E148EE6EAF5E0F2
:104430001382128284839583A683B7838BE491E0F1
:1044400091838083E2EBF5E080E580831182E4EBE9
:10445000F5E0158216821186138682E090E0A0E0D6
:10446000B0E084879587A687B78713A215A614A600
:104470008DE591E093A782A717A640E050E0BA012E
:1044800082E096E00E947113CDEFD5E083E088834F
:1044900084E0898384E690E09C838B8360E083E002
:1044A0000E94B40E60E089810E94B40E60E08881B1
:1044B0000E94850E60E08981DF91CF910C94850E7A
:1044C000E89409C097FB3EF49095809570956195AE
:1044D0007F4F8F4F9F4F9923A9F0F92F96E9BB2764
:1044E0009395F695879577956795B795F111F8CFE0
:1044F000FAF4BB0F11F460FF1BC06F5F7F4F8F4F4B
:104500009F4F16C0882311F096E911C0772321F040
:104510009EE8872F762F05C0662371F096E8862FD8
:1045200070E060E02AF09A95660F771F881FDAF72F
:10453000880F9695879597F908950E94B0220C945C
:1045400021230E94132338F00E941A2320F0952380
:1045500011F00C940A230C94102311240C9455236D
:104560000E94322370F3959FC1F3950F50E0551FC1
:10457000629FF001729FBB27F00DB11D639FAA27B8
:10458000F00DB11DAA1F649F6627B00DA11D661F07
:10459000829F2227B00DA11D621F739FB00DA11D28
:1045A000621F839FA00D611D221F749F3327A00DE2
:1045B000611D231F849F600D211D822F762F6A2F7E
:1045C00011249F5750409AF0F1F088234AF0EE0FE3
:1045D000FF1FBB1F661F771F881F91505040A9F710
:1045E0009E3F510580F00C940A230C9455235F3FA5
:1045F000E4F3983ED4F3869577956795B795F7954C
:10460000E7959F5FC1F7FE2B880F911D96958795C3
:1046100097F9089597F99F6780E870E060E0089542
:104620009FEF80EC089500240A94161617061806CA
:104630000906089500240A941216130614060506A6
:104640000895092E0394000C11F4882352F0BB0F37
:1046500040F4BF2B11F460FF04C06F5F7F4F8F4F9A
:104660009F4F089557FD9058440F551F59F05F3FD5
:1046700071F04795880F97FB991F61F09F3F79F084
:1046800087950895121613061406551FF2CF469506
:10469000F1DF08C0161617061806991FF1CF869588
:1046A0007105610508940895E894BB27662777276C
:1046B000CB0197F908950E949D23A59F900DB49F6B
:1046C000900DA49F800D911D112408952F923F926B
:1046D0004F925F926F927F928F929F92AF92BF9212
:1046E000CF92DF92EF92FF920F931F93CF93DF93BE
:1046F000CDB7DEB7CA1BDB0B0FB6F894DEBF0FBE1B
:10470000CDBF09942A88398848885F846E847D8467
:104710008C849B84AA84B984C884DF80EE80FD8069
:104720000C811B81AA81B981CE0FD11D0FB6F894DF
:10473000DEBF0FBECDBFED010895A29FB001B39FB4
:10474000C001A39F700D811D1124911DB29F700D9A
:10475000811D1124911D08950E94B3236894B11105
:104760000C94552308950E943A2388F09F5798F09F
:10477000B92F9927B751B0F0E1F0660F771F881F66
:10478000991F1AF0BA95C9F714C0B13091F00E9480
:104790005423B1E008950C945423672F782F882771
:1047A000B85F39F0B93FCCF3869577956795B395A7
:1047B000D9F73EF490958095709561957F4F8F4F16
:1047C0009F4F0895991B79E004C0991F961708F030
:1047D000961B881F7A95C9F780950895AA1BBB1B65
:1047E00051E107C0AA1FBB1FA617B70710F0A61BF1
:1047F000B70B881F991F5A95A9F780959095BC0112
:10480000CD01089597FB072E16F4009407D077FD8D
:1048100009D00E94EE2307FC05D03EF490958195C7
:104820009F4F0895709561957F4F0895A1E21A2ECC
:10483000AA1BBB1BFD010DC0AA1FBB1FEE1FFF1F44
:10484000A217B307E407F50720F0A21BB30BE40B94
:10485000F50B661F771F881F991F1A9469F76095DB
:104860007095809590959B01AC01BD01CF01089595
:10487000EE0FFF1F0590F491E02D09940F931F9305
:10488000CF93DF938230910510F482E090E0E091C5
:104890005D06F0915E0620E030E0A0E0B0E03097E9
:1048A00019F1408151810281138148175907C8F0DD
:1048B0008417950769F4109731F012960C931297AC
:1048C00013961C9327C000935D0610935E0622C0CA
:1048D0002115310519F04217530718F49A01BD014B
:1048E000EF01DF01F801DBCF21153105F9F0281BBD
:1048F000390B2430310580F48A819B816115710563
:1049000021F0FB019383828304C090935E06809321
:104910005D06FE01329644C0FE01E20FF31F819353
:10492000919322503109398328833AC020915B0644
:1049300030915C06232B41F420910A0130910B0148
:1049400030935C0620935B062091080130910901A9
:104950002115310541F42DB73EB740910C0150911E
:104960000D01241B350BE0915B06F0915C06E2170C
:10497000F307A0F42E1B3F0B2817390778F0AC0182
:104980004E5F5F4F2417350748F04E0F5F1F50935F
:104990005C0640935B068193919302C0E0E0F0E0F7
:1049A000CF01DF91CF911F910F910895CF93DF93A6
:1049B000009709F481C0FC01329713821282A09102
:1049C0005D06B0915E06109781F420813181820FDF
:1049D000931F20915B0630915C062817390751F52B
:1049E000F0935C06E0935B0667C0ED0120E030E0E9
:1049F000CE17DF0740F44A815B819E0141155105C6
:104A0000F1F0EA01F5CFD383C28340815181840F55
:104A1000951FC817D90759F488819981840F951F6C
:104A20000296918380838A819B819383828321155F
:104A3000310529F4F0935E06E0935D063DC0E9017F
:104A4000FB83EA8349915991C40FD51FEC17FD07E9
:104A500061F480819181840F951F0296E901998309
:104A60008883828193819B838A83E0E0F0E01296C1
:104A70008D919C911397009719F0FD01DC01F7CF00
:104A80008D919C9111979D012E5F3F4F820F931F37
:104A900020915B0630915C062817390769F430973E
:104AA00029F410925E0610925D0602C013821282F3
:104AB000B0935C06A0935B06DF91CF91089581E0EF
:104AC00090E0F8940C943E28FB01DC0104C08D9129
:104AD0000190801921F441505040C8F7881B990B70
:104AE0000895FC018191861721F08823D9F7992731
:104AF00008953197CF010895FB01DC0141505040EA
:104B000048F001900D920020C9F701C01D9241505C
:104B10005040E0F70895AEE0B0E0E1E9F5E20C9432
:104B200074230D891E8986E08C831A8309838FEF95
:104B30009FE79E838D83AE01475E5F4F6F89788DBF
:104B4000CE0101960E94AD25EF81F885E00FF11F9F
:104B500010822E96E4E00C949023ABE0B0E0E3EBFF
:104B6000F5E20C9466236C017B018A01FC0117823B
:104B70001682838181FFCCC1CE0101963C01F601F2
:104B80009381F70193FD859193FF81917F018823A4
:104B900009F4BAC1853239F493FD859193FF81916F
:104BA0007F01853229F4B60190E00E94A427E7CF67
:104BB000912C212C312CFFE1F315D8F08B3279F0B8
:104BC00038F4803279F08332A1F4232D20611DC0A6
:104BD0008D3261F0803369F4232D216016C0832D5E
:104BE0008260382EE32DE4603E2E2AC0F32DF8605B
:104BF0001DC037FC2DC020ED280F2A3040F08E322A
:104C0000B9F436FC81C1232D2064322E19C036FE42
:104C100006C08AE0989E200D1124922E11C0EAE071
:104C20002E9E200D1124222EF32DF0623F2E08C05F
:104C30008C3621F4832D8068382E02C0883641F4EA
:104C4000F70193FD859193FF81917F018111B3CF8E
:104C5000982F9F7D9554933028F40C5F1F4F9FE34E
:104C600099830DC0833631F0833771F0833509F0B5
:104C700059C021C0F801808189830E5F1F4F8824AD
:104C80008394912C530113C02801F2E04F0E511C64
:104C9000F801A080B18036FE03C0692D70E002C02B
:104CA0006FEF7FEFC5010E9499274C018201F32D20
:104CB000FF773F2E16C0280122E0420E511CF8015A
:104CC000A080B18036FE03C0692D70E002C06FEF96
:104CD0007FEFC5010E948E274C01F32DF0683F2E17
:104CE000820133FC1BC0822D90E088169906B0F437
:104CF000B60180E290E00E94A4272A94F4CFF50147
:104D000037FC859137FE81915F01B60190E00E94EA
:104D1000A42721102A9421E0821A91088114910479
:104D200071F7E8C0843611F0893641F5F80137FE95
:104D300007C060817181828193810C5F1F4F08C021
:104D400060817181072E000C880B990B0E5F1F4F3D
:104D5000F32DFF763F2E97FF09C0909580957095B3
:104D600061957F4F8F4F9F4FF0683F2E2AE030E0D4
:104D7000A3010E94E027882E861845C0853731F4AC
:104D8000232D2F7EB22E2AE030E025C0932D997F6F
:104D9000B92E8F36C1F018F4883579F0B5C0803758
:104DA00019F0883721F0B0C0E92FE061BE2EB4FEC3
:104DB0000DC0FB2DF460BF2E09C034FE0AC0292FA0
:104DC0002660B22E06C028E030E005C020E130E0C9
:104DD00002C020E132E0F801B7FE07C060817181B6
:104DE000828193810C5F1F4F06C06081718180E0DA
:104DF00090E00E5F1F4FA3010E94E027882E8618C7
:104E0000FB2DFF773F2E36FE0DC0232D2E7FA22EC9
:104E1000891458F434FE0BC032FC09C0832D8E7EF9
:104E2000A82E05C0B82CA32C03C0B82C01C0B92CE7
:104E3000A4FE0FC0FE01E80DF11D8081803321F436
:104E40009A2D997EA92E09C0A2FE06C0B394B394F0
:104E500004C08A2D867809F0B394A3FC11C0A0FE8B
:104E600006C0B21488F4280C922C9B180EC0B21401
:104E700060F4B60180E290E00E94A427B394F7CFDB
:104E8000B21418F42B1802C0982C212CA4FE10C0C8
:104E9000B60180E390E00E94A427A2FE17C0A1FC07
:104EA00003C088E790E002C088E590E0B6010CC03E
:104EB0008A2D867859F0A1FE02C08BE201C080E203
:104EC000A7FC8DE2B60190E00E94A427891438F473
:104ED000B60180E390E00E94A4279A94F7CF8A94C9
:104EE000F301E80DF11D8081B60190E00E94A42736
:104EF0008110F5CF222009F442CEB60180E290E085
:104F00000E94A4272A94F6CFF6018681978102C0D9
:104F10008FEF9FEF2B96E2E10C948223FC0105902A
:104F2000615070400110D8F7809590958E0F9F1FAB
:104F30000895FC016150704001900110D8F78095F0
:104F400090958E0F9F1F08950F931F93CF93DF931C
:104F5000FB01238121FD03C08FEF9FEF2CC022FFB7
:104F600016C046815781248135814217530744F486
:104F7000A081B1819D012F5F3F4F318320838C93AE
:104F8000268137812F5F3F4F3783268314C08B01E3
:104F9000EC01FB010084F185E02D0995892BE1F6F8
:104FA000D80116968D919C911797019617969C9310
:104FB0008E931697CE01DF91CF911F910F91089597
:104FC000FA01AA27283051F1203181F1E8946F933A
:104FD0006E7F6E5F7F4F8F4F9F4FAF4FB1E03ED0E0
:104FE000B4E03CD0670F781F891F9A1FA11D680F7E
:104FF000791F8A1F911DA11D6A0F711D811D911DB1
:10500000A11D20D009F468943F912AE0269F112425
:105010003019305D3193DEF6CF010895462F477089
:10502000405D4193B3E00FD0C9F7F6CF462F4F70E4
:10503000405D4A3318F0495D31FD4052419302D042
:10504000A9F7EACFB4E0A6959795879577956795E8
:10505000BA95C9F700976105710508959B01AC01E8
:105060000A2E06945795479537952795BA95C9F70F
:10507000620F731F841F951FA01D0895F894FFCF22
:1050800051105110FFFFFFFF00005F06800010016C
:105090000403003F065B4F666D7D077F6F777C39A9
:1050A0005E797100000000BB005A07D20033019AFC
:1050B00000B008BA0800000000E51052107C103261
:1050C00011AD108B109F1000000000EB11BE11D22B
:1050D000009211B611A2119311000000001C12528F
:1050E00010D200D100000000001A125210D200D1DC
:1050F00000312E3433005374617274696E67202856
:1051000076657273696F6E202573292E2E2E0A0024
:10511000496E697469616C697A6174696F6E204463
:105120004F4E452E000D0A00256C642C253034644A
:105130002F253032642F253032642C253032643AEA
:10514000253032643A253032642C25642C25640ADB
:10515000007265675F253034642E63737600556E88
:1051600069782074696D652C446174652C54696D8F
:10517000652C416C61726D2C43757272656E742082
:10518000492841290A00556E69782074696D652C9B
:10519000446174652C54696D652C52657369737430
:1051A000616E7365202D2C526573697374616E7323
:0851B00065202B0A002F00000E
:00000001FF
