:100000000C9470000C94C5130C949E130C949800DF
:100010000C9498000C9498000C9498000C94980000
:100020000C9498000C9498000C9498000C949800F0
:100030000C9498000C945B140C9498000C94980009
:100040000C94F9190C9498000C9429140C94031432
:100050000C9498000C9498000C9498000C949800C0
:100060000C945C150C9498000000000024002700FC
:100070002A0000000000250028002B0000000000DE
:1000800023002600290004040404040404040202DA
:100090000202020203030303030301020408102007
:1000A0004080010204081020010204081020000012
:1000B0000008000201000003040700000000000027
:1000C00000007C3C3E5E2B3D3F2F5B5D3B2C2A229B
:1000D0005C001F1C1F1E1F1E1F1F1E1F1E1FA8228D
:1000E00011241FBECFEFD8E0DEBFCDBF26E0A6E8CB
:1000F000B2E001C01D92A33BB207E1F712E0A0E01D
:10010000B1E0E0E0F2E502C005900D92A638B1073B
:10011000D9F710E0C0E7D0E004C02197FE010E94AB
:10012000F824CF36D107C9F70E94431A0C94FE2851
:100130000C940000DC015996ED91FC915A97309790
:10014000B9F083899489A589B689428553856485E8
:100150007585841B950BA60BB70B811520E89207BC
:10016000A105B10538F08FEF9FE7A0E0B0E008955A
:1001700080E090E00895CF93DF931F92CDB7DEB774
:100180006983DC01ED91FC910280F381E02D41E077
:1001900050E0BE016F5F7F4F09950F90DF91CF91C7
:1001A0000895089580E090E008950F931F93CF93F2
:1001B000DF93FC012581222309F446C0248127FF17
:1001C0003DC08C01668577858089918941E00E94D8
:1001D000C5168823C9F1F801C289F0E2CF9FE0017A
:1001E0001124C751DD4F209779F1F80185818230C4
:1001F00040F483899489A589B6898C8F9D8FAE8FB1
:10020000BF8FF8018789908DA18DB28D9B8F8A8FCA
:10021000BD8BAC8BE0918E02F0918F02309751F044
:10022000BE016A5E7F4FCE0148960995888D998DF3
:100230009B8B8A8BF80194819F779483DF91CF9178
:100240001F910F910C948A1680E0DF91CF911F913E
:100250000F910895FC01818D928D009711F00C94FF
:10026000D500089581E080939E0290919D02892798
:1002700080939D02809192028F3F71F08091920253
:10028000882331F0809192028150809392020895E8
:1002900060E088E00C94EA0F0895CF93C1E0C0932A
:1002A000910282E00E94C10F892BB1F080919802E7
:1002B00090919902A0919A02B0919B020196A11D82
:1002C000B11D8093980290939902A0939A02B093E3
:1002D0009B02C093900202C010929002CF910895A9
:1002E0008F929F92AF92BF92CF92DF92EF92FF9246
:1002F0000F931F93CF93DF93EC018D81811102C087
:1003000080E078C00B891C892D893E890417150768
:1003100026073707A8F36A017B01823029F4CA86D1
:10032000DB86EC86FD860DC0C114D104E104F10426
:1003300051F41E821F82188619861A861B861C8617
:100340001D8681E057C08A849B84AC84BD84EB8D7C
:10035000FC8D258530E0275F3F4FB501A40141505A
:10036000510961097109022E04C076956795579568
:1003700047950A94D2F7D701C6010197A109B1099F
:1003800004C0B695A795979587952A95D2F78417B7
:100390009507A607B70720F089288A288B2871F4CB
:1003A0004F89588D698D7A8D4E835F8368877987F1
:1003B0004C015D018E010A5F1F4F16C0841B950B17
:1003C000A60BB70BF5CF4E815F81688579859801C3
:1003D0008B8D9C8D0E94AF1791E0891A9108A1081E
:1003E000B108882309F48CCF81149104A104B104CD
:1003F00051F795CFDF91CF911F910F91FF90EF9023
:10040000DF90CF90BF90AF909F908F9008958F9284
:100410009F92AF92BF92CF92DF92EF92FF920F9393
:100420001F93CF93DF9300D000D0CDB7DEB77C0110
:1004300080E2689FF0011124E751FD4F938591718F
:1004400021F0842F827409F08FC0142FD7015296A7
:100450006C935297409104015091050160910601FF
:10046000709107011E964D935D936D937C93519708
:100470004489558960E070E0BA0155274427828D90
:10048000938DA0E0B0E0482B592B6A2B7B2BD70132
:1004900057964D935D936D937C935A97838588719E
:1004A00059F4848D958DA68DB78DF701838B948B30
:1004B000A58BB68B81E012C0803109F055C0970141
:1004C0002D5E3F4FD7015B968D919C915C970E946A
:1004D0002F0C882309F448C084E0F7018583812F1D
:1004E0008F70D70114968C931497F7011682178298
:1004F000108611861A961D921D921D921C921D97B0
:1005000016FF34C015968C91813071F511FF2CC007
:10051000F7014389548965897689452B462B472BFA
:1005200009F461C040E050E0BA01C7010E947001C7
:100530008823D1F0F7018788908CA18CB28CC38C72
:10054000D48C82E090E0A0E0B0E0F601808391835B
:10055000A283B3839E012F5F3F4FB501A401C60163
:100560000E94AF17811104C080E03DC081E03BC014
:1005700000E010E09801B501A401C6010E940E1729
:10058000882391F389809A80AB80BC80D6015796EE
:100590008C91803129F088EF9FEFAFEFBFE004C06E
:1005A00088EF9FEFA0E0B0E088169906AA06BB0688
:1005B00088F2D70157961D921D921D921C925A9750
:1005C000F701138A148A158A168A848180688483C5
:1005D000C7010E94D500882339F240E050E0BA01FB
:1005E000C7010E9470010F900F900F900F90DF9144
:1005F000CF911F910F91FF90EF90DF90CF90BF9020
:10060000AF909F908F900895CF93DF93EC010E945D
:10061000D500882311F01D8281E0DF91CF910895EC
:100620003F924F925F926F927F928F929F92AF9282
:10063000BF92CF92DF92EF92FF920F931F93CF93CF
:10064000DF93CDB7DEB72C970FB6F894DEBF0FBEA1
:10065000CDBF5C01DC015B968D909C905C971696FB
:10066000CD90DD90ED90FC901997C114D104E10478
:10067000F10439F0BFEFCB1ADB0AEB0AFB0A312C8D
:1006800007C0F401C080D180E280F380332433942A
:10069000F40181859285A385B4859C01AD012F5F0E
:1006A0003F4F4F4F5F4F29873A874B875C87260123
:1006B00037011D821E821F821886F4018185928572
:1006C000A385B4852D813E814F8158852817390730
:1006D0004A075B0708F063C089859A85AB85BC85AE
:1006E0008C159D05AE05BF0550F482E0C82ED12CB7
:1006F000E12CF12C92E0492E512C612C712C9E01A1
:100700002F5F3F4FB701A601C4010E94AF17882396
:1007100009F445C089819A81AB81BC81892B8A2BE0
:100720008B2B41F0260137019FEF491A590A690ABC
:10073000790A05C0C414D504E604F70491F02D81AC
:100740003E814F8158852F5F3F4F4F4F5F4F2D8325
:100750003E834F8358873FEFC31AD30AE30AF30A55
:10076000ACCF0FEF1FEF2FEF3FE0B301A201C401A9
:100770000E940E17882399F0D50116964D915D9130
:100780006D917C911997411551056105710549F0ED
:1007900093018201C4010E940E17811102C080E002
:1007A0002AC0D50116964D925D926D927C92199752
:1007B000332051F0D301C2010196A11DB11DF401F6
:1007C00080839183A283B383F5018789908DA18D66
:1007D000B28D892B8A2B8B2B69F4D50157964D92BC
:1007E0005D926D927C925A9714968C9114978068C2
:1007F00014968C9381E02C960FB6F894DEBF0FBE52
:10080000CDBFDF91CF911F910F91FF90EF90DF90BF
:10081000CF90BF90AF909F908F907F906F905F90A0
:100820004F903F9008958FB7F8948091E0028FBF6A
:10083000089561E0FC0184810E94EA0F8091DF024B
:1008400081111092DF0208958EBD00000DB407FEE5
:10085000FDCF8EB508958FEF0C9424040F931F9352
:10086000CF93DF93EB010E94B6118B010E942B0402
:100870008F3F49F00E94B611601B710B6C177D070A
:10088000A8F380E001C081E0DF91CF911F910F912B
:100890000895CF93DF93EC018E81882389F08F81B7
:1008A00098859C012F5F3F4F38872F83823092407D
:1008B00018F40E942B04F3CFCE010E9419041E826B
:1008C000DF91CF9108958CBD9DBD0895CF93DF93A7
:1008D000EC018091DF02811109C081E08093DF0289
:1008E00080910E0690910F060E94630460E08C8157
:1008F000DF91CF910C94EA0F8F929F92AF92BF92AB
:10090000FF920F931F93CF93DF93EC01F62E4901D3
:100910005A010E944904CE010E9466046CE271E013
:10092000CE010E942E048F2D80640E94240408E1D1
:1009300010E0D501C401002E04C0B695A795979587
:1009400087950A94D2F70E94240408501109083FA1
:100950008FEF180771F7FF2029F088E0F81204C024
:1009600087E803C085E901C08FEF0E94240410E0EE
:100970000E942B048A8787FF04C01F3F11F01F5F6E
:10098000F7CFDF91CF911F910F91FF90BF90AF9064
:100990009F908F900895AF92BF92CF92DF92EF9287
:1009A000FF920F931F93CF93DF93EC016901C8016E
:1009B000820F931F8130924008F070C08E8188238F
:1009C00071F088819981AA81BB8184179507A60758
:1009D000B70729F48F819885C816D906B0F54883E2
:1009E00059836A837B838B85833039F089E0440F98
:1009F000551F661F771F8A95D1F79A01AB0161E1F8
:100A0000CE010E947C04882319F083E08D8346C0C8
:100A10000E94B6115B010E942B048A878F3F49F424
:100A20000E94B6116A197B096D327140A0F38FE004
:100A300003C08E3F31F08DE08D83CE010E941904FA
:100A40002DC018861F8281E08E838F8198858C153A
:100A50009D0540F40E942B048F819885019698870C
:100A60008F83F3CF6701E00EF11EEC14FD0431F02B
:100A70000E942B04F60181936F01F7CF8F81988537
:100A8000080F191F18870F838985882319F001150E
:100A9000124048F0CE010E94490405C0CE010E94D8
:100AA000190480E001C081E0DF91CF911F910F9187
:100AB000FF90EF90DF90CF90BF90AF900895EF92AE
:100AC000FF920F931F93CF93DF93EC0179014115B0
:100AD00051056105710511F482E13CC08B858330BD
:100AE00039F089E0440F551F661F771F8A95D1F7AB
:100AF0009A01AB0168E1CE010E947C04882311F0C9
:100B000084E028C08EEF0E94240487018EEFF81A3B
:100B1000F80181918F010E942404E016F106C1F7CB
:100B20008FEF0E9424048FEF0E9424040E942B0464
:100B30008A878F71853031F081E18D83CE010E94EB
:100B4000190409C068E572E0CE010E942E048111EB
:100B500007C085E18D83CE010E94190480E014C096
:100B600020E030E0A9016DE0CE010E947C048111FB
:100B700009C00E942B04811105C0CE010E941904F6
:100B800081E002C084E1E6CFDF91CF911F910F9108
:100B9000FF90EF9008952F923F924F925F926F9245
:100BA0007F928F929F92AF92BF92CF92DF92EF92FD
:100BB000FF920F931F93CF93DF9300D000D0CDB758
:100BC000DEB78C016B011A01DC0115968C9115972B
:100BD0008130C9F414968C9181FF15C082FF1DC02D
:100BE000F801438954896589768982859385A4852E
:100BF000B58584179507A607B70779F0C8010E9445
:100C0000700181110AC081E090E0D80113969C9395
:100C10008E93129780E090E048C1410183C05B96BB
:100C20008D919C915C97FC0174802FEF270D2A0118
:100C30003B0139E076946794579447943A95D1F7FD
:100C4000722E74207A01F1E0FF22772009F476C039
:100C500080E092E08E199F0954018815990508F4E7
:100C60005C01D8015B962D913C915C9716968D9115
:100C70009D910D90BC91A02D0297A109B109F90198
:100C8000058404C0880F991FAA1FBB1F0A94D2F7BE
:100C90004685578560897189840F951FA61FB71FE8
:100CA0009C01AD01270D311D411D511D29013A0146
:100CB000A11432E0B30609F088C08091040190913C
:100CC0000501A0910601B0910701481659066A0670
:100CD0007B0659F48FEF9FEFDC0180930401909322
:100CE0000501A0930601B09307019601B301A2018B
:100CF0008091E9049091EA040E945F05882309F439
:100D000082CF9EEFD91A8A189B08F80182859385B5
:100D1000A485B5858A0D9B1DA11DB11D8287938772
:100D2000A487B587D8011A964D915D916D917C91FC
:100D30001D978114910409F072CF87C0E114F1046A
:100D400009F086CF16964D915D916D917C91199722
:100D5000411551056105710559F457968D919D9185
:100D60000D90BC91A02D0097A105B10541F521C0C2
:100D70009E012F5F3F4F0E94AF17882309F44BCF8E
:100D800089819A81AB81BC81F801238D348DF90171
:100D90002789203129F048EF5FEF6FEF7FE004C033
:100DA00048EF5FEF60E070E084179507A607B7078C
:100DB00030F0C8010E94100381114ACF24CFF801FE
:100DC00086839783A087B18743CFE114F10429F587
:100DD000D8011A964D915D916D917C911D97539616
:100DE0008D919D910D90BC91A02D481759076A07D0
:100DF0007B0798F00E948A16882309F404CF40925A
:100E000004015092050160920601709207018091E1
:100E1000660681608093660608C041E0C301B201A6
:100E20000E94C516882309F4EECED601F701E751DA
:100E3000FD4F9F012A0D3B1D2E173F0719F08D9185
:100E40008193FACFCA0CDB1C5ECFD8015396CD90AC
:100E5000DD90ED90FC90569714968C91C416D506B3
:100E6000E606F70640F4F801438B548B658B768BCE
:100E7000806884830DC020918E0230918F02232BD5
:100E800039F02114310421F08068D80114968C9334
:100E9000F801848183FD02C0C10107C0C8010E941E
:100EA000D500882309F4AFCEF7CF0F900F900F90A5
:100EB0000F90DF91CF911F910F91FF90EF90DF90F6
:100EC000CF90BF90AF909F908F907F906F905F90EA
:100ED0004F903F902F900895CF93DF93EC01898D31
:100EE0009A8D009739F481E090E09B838A8380E0BB
:100EF00090E00BC0FC01138212820E94CB05E98DA9
:100F0000FA8D22813381232B71F7DF91CF910895E0
:100F1000FC01DB0112968D919C9113979383828340
:100F20008CE591E09183808314968C91149784834F
:100F300015968C911597858316964D915D916D91BF
:100F40007C91199746835783608771871A964D91D4
:100F50005D916D917C911D9742875387648775875A
:100F60001E964D915D916D917C9151974687578763
:100F7000608B718B52968C915297828B53964D91C8
:100F80005D916D917C915697438B548B658B768BDD
:100F900057964D915D916D917C915A97478B508FEB
:100FA000618F728F5B968D919C915C97948F838FEC
:100FB00008954F925F926F927F92AF92BF92CF92BD
:100FC000DF92EF92FF920F931F93CF93DF931F92C5
:100FD000CDB7DEB7FC012581222309F4C1C084818D
:100FE00080FFBEC083899489A589B68942845384D1
:100FF0006484758484159505A605B70509F4B0C009
:101000006F015201F1E0BF22D6015B968D919C9158
:101010005C97B301A20139E076956795579547959E
:101020003A95D1F7223071F4FC01828D938DA48D15
:10103000B58D8A019B01080F191F2A1F3B1FC9018B
:10104000B8014AC0DC0114961C9111501423A1145C
:10105000B104F9F411111DC045284628472851F460
:10106000F6018789908DA18DB28D86839783A087A5
:10107000B1870FC0D60116964D915D916D917C910F
:10108000199796012A5F3F4F0E94AF17882309F4F2
:1010900067C0F601238D348D86819781A085B18547
:1010A0000297A109B109AC01BD01F901058404C091
:1010B000440F551F661F771F0A94D2F786859785C0
:1010C000A089B189840F951FA61FB71FBC01CD0150
:1010D000610F711D811D911DD60114962C9126FF63
:1010E0000DC0409004015090050160900601709081
:1010F0000701461657066806790699F440E00E94F3
:10110000C516882369F1F501E751FD4FDE011196FF
:101110009F012F5F3F4F2E173F0799F081918D93CD
:10112000FACFFE0131967F0101E010E09501AB019D
:10113000BC018091E9049091EA040E94CB048823C9
:1011400079F0F60182859385A485B5850196A11D68
:10115000B11D82879387A487B587898190E002C0FB
:101160008FEF9FEF0F90DF91CF911F910F91FF9025
:10117000EF90DF90CF90BF90AF907F906F905F9097
:101180004F900895FC01818D928D009711F00C9481
:10119000D9078FEF9FEF08950F931F93CF93DF939E
:1011A000FC01818D928D0097B9F0EF010E94D90763
:1011B0008C010F3F8FEF180791F0898D9A8DFC01FC
:1011C00042855385648575854150510961097109CE
:1011D0000E947001C80105C080E090E002C08FEF5E
:1011E0009FEFDF91CF911F910F9108959F92AF9242
:1011F000BF92CF92DF92EF92FF920F931F93CF9304
:10120000DF936C015B01FC011082FB01108200E0A6
:1012100010E0C0E0D0E082E0E82EFF24F39493E0F9
:10122000992E86E00E94C10F811125C021968091E0
:101230008702813049F028F0823071F08330A9F0C4
:101240001EC0F09287021BC0C436D105C1F4F6015E
:101250008083E092870211C0C83EF3E0DF0779F493
:10126000F601F0829092870208C0C83CD10539F49B
:10127000F601F08202C010928702C0E0D0E085E063
:101280000E94C10F811126C00F5F1F4F80918602FF
:10129000813049F028F0823071F08330A9F01EC00F
:1012A000F09286021BC004361105C1F4F50180835B
:1012B000E092860211C0083EF3E01F0779F4F501C1
:1012C000F0829092860208C0083C110539F4F501BD
:1012D000F08202C01092860200E010E0F6018081E8
:1012E000811102C0209739F4F501808181110AC073
:1012F0000115110539F061E070E080E090E00E9496
:101300007C118FCFDF91CF911F910F91FF90EF90C4
:10131000DF90CF90BF90AF909F900895CF93DF93D1
:1013200000D000D0CDB7DEB740910E0150910F0133
:10133000609110017091110149835A836B837C8302
:10134000813069F048F0823079F0833091F48FE495
:101350008C8388EE93E00FC08FE38C830AC086E015
:101360008C838AEF90E007C08BE58C8384EF91E05B
:1013700002C084E690E0BB24BA940FE06C01E12C3B
:10138000F12C18E061E087E00E94EA0FB09292022F
:1013900000935B0640E064E0CE0101960E94C3101A
:1013A000C701B6010E947C1160E087E00E94EA0F4D
:1013B00010935B0640E064E0CE0101960E94C310EA
:1013C000C701B6010E947C11DDCF2F923F924F9250
:1013D0005F926F927F928F929F92AF92BF92CF92C5
:1013E000DF92EF92FF920F931F93CF93DF93CDB7CE
:1013F000DEB7C556D1090FB6F894DEBF0FBECDBF1C
:10140000C12CD12C88E0282E82E0382E97E5492E79
:1014100095E0592E2CE5A22E21E0B22EDF92CF923C
:1014200080919302282F082E000C330B3F938F934B
:101430003F922F925F924F920E944B261EAE1DAE9E
:10144000BCAEABAE21961FAE219719A218A2BF8EDB
:10145000AE8E1BA20FB6F894DEBF0FBECDBF612CBF
:10146000712CFE01FB967F010AE316E0C301F30134
:10147000E95AFA4F20812F3209F40196DC01A95A6A
:10148000BA4FFE01E85AFF4F20E030E04F014D9186
:101490004F3249F0442339F02F5F3F4F019641937B
:1014A0002C303105A1F7F401E20FF31F1082FC018B
:1014B000E95AFA4F20812F3209F401963C01FC01D0
:1014C000E95AFA4F8081A6968FAFA6971C821B829D
:1014D000BA82A9821E8221E0A401B801CE01019640
:1014E0000E943218882351F0CE0101960E94040315
:1014F000A6969FADA697911106C020C0E6E00A33DC
:101500001E0799F535C0F701858181112AC021E0B8
:10151000A401B801C7010E943218982EF6E00A33E0
:101520001F0709F45AC0C8010E940403992001F161
:10153000902F812F8701E92EF82E98CF86E00A336D
:10154000180719F0C8010E9404039FEFC91AD90AAD
:10155000E8EECE16E3E0DE0609F060CF82E00E94FE
:101560008E09F6E00A331F0719F0C8010E94040330
:1015700061E087E00E94EA0F8FEF80939202CE0134
:1015800001960E94EC0CEA8DFB8D309761F185810C
:10159000882349F167E172E0CE0101960E940114AF
:1015A00067E575E0CE0101960E94011480919302D7
:1015B000893429F0853531F466E472E005C06EE1C6
:1015C00072E002C06DE672E0CE0101960E94011445
:1015D000CE0101960E941D0C06C0882349F28E019F
:1015E000025E1F4FA5CFCB59DF4F0FB6F894DEBF79
:1015F0000FBECDBFDF91CF911F910F91FF90EF9064
:10160000DF90CF90BF90AF909F908F907F906F9022
:101610005F904F903F902F90089580939F02E1E854
:10162000F0E01082109285001092840080919C025C
:101630008061808381E080939E0280939D02089563
:10164000FC019081961728F0941718F49F5F9083FF
:1016500001C0608310928100109285001092840076
:1016600080919C0280618093810081E080939E0242
:1016700080939D020895EF92FF920F931F93CF9353
:10168000DF9300D000D000D0CDB7DEB77C018B0156
:10169000409198025091990260919A0270919B0238
:1016A000CE0101960E94E414898190E04496982F1F
:1016B0008827990F2A8140E2249F900111244B81B1
:1016C000242B822B932BF701918380838D81F0E271
:1016D0008F9F900111249C81892F90E0982F88275B
:1016E000990F990F990F822B932B2E8130E035950E
:1016F0002795822B932BF8019183808326960FB632
:10170000F894DEBF0FBECDBFDF91CF911F910F9137
:10171000FF90EF90089580915C0690915D06823075
:10172000910538F0880F991F880F991F0597019729
:10173000F1F70895833081F028F4813099F08230F8
:10174000A1F008958730A9F08830B9F08430D1F441
:10175000809180008F7D03C0809180008F7780937F
:101760008000089584B58F7702C084B58F7D84BDD5
:1017700008958091B0008F7703C08091B0008F7D75
:101780008093B00008953FB7F8948091E50290915E
:10179000E602A091E702B091E80226B5A89B05C039
:1017A0002F3F19F00196A11DB11D3FBFBA2FA92FE0
:1017B000982F8827820F911DA11DB11DBC01CD015D
:1017C00042E0660F771F881F991F4A95D1F7089549
:1017D000EF92FF920F931F93CF93DF93EC017B0166
:1017E0008A011B821A8288EE93E0A0E0B0E08C832D
:1017F0009D83AE83BF8386E291E0998388838DE1E8
:1018000090E00E94FE249A8F898F009779F02DE155
:10181000F701DC0101900D922A95E1F74CE050E0D0
:10182000B801CE010C960E943C26188EDF91CF9114
:101830001F910F91FF90EF900895CF93DF93EC01EC
:10184000898D9A8D009741F00E940403898D9A8DAD
:101850000E9496251A8E198EDF91CF9108954F928E
:101860005F926F927F92AF92BF92CF92DF92EF9290
:10187000FF920F931F93CF93DF9300D000D0CDB78B
:10188000DEB78C0149835A836B837C835901C12C59
:10189000D12C7601412C82E0582E612C712C49818B
:1018A0005A816B817C819E012F5F3F4FC8010E944E
:1018B000AF17882351F1D301C201F801058404C098
:1018C000880F991FAA1FBB1F0A94D2F7C80ED91EF2
:1018D000EA1EFB1E49815A816B817C818789803198
:1018E00029F088EF9FEFAFEFBFE004C088EF9FEFD4
:1018F000A0E0B0E0481759076A077B0780F2F501BE
:10190000C082D182E282F38281E00F900F900F902B
:101910000F90DF91CF911F910F91FF90EF90DF908B
:10192000CF90BF90AF907F906F905F904F90089551
:10193000CF93DF93FC012581222311F080E049C081
:10194000EC01809133068031C1F482E08583178AEF
:10195000108E118E128E8091340690913506A0E083
:10196000B0E025E0880F991FAA1FBB1F2A95D1F769
:10197000838B948BA58BB68B19C08032F9F683E0EC
:1019800085834091360650913706609138067091F4
:101990003906478B508F618F728F9F012D5E3F4FAD
:1019A0008CE196E00E942F0C882341F28CE196E0B6
:1019B0009C8F8B8F81E08C831E821F8218861986F4
:1019C0001A861B861C861D861E861F86188A198A03
:1019D0001A8ADF91CF9108952F923F924F925F9292
:1019E0006F927F928F929F92AF92BF92CF92DF922F
:1019F000EF92FF920F931F93CF93DF93CDB7DEB794
:101A0000C456D1090FB6F894DEBF0FBECDBF5C013E
:101A100019A218A28CE591E09F8F8E8F1BA21C82C9
:101A20001B829A8389831E824E018EE1880E911C4F
:101A3000C4010E94980C8E010F5F1F4F240187E59F
:101A4000C82E85E0D82E18016FE270E0C6010E9412
:101A50003126009709F442C0F60120812F3221F48B
:101A6000FFEFCF1ADF0AF0CF8C198D3008F08CE031
:101A7000E82EF12CA701B601CE01885A9F4F0E9493
:101A80003C26E8E5F0E0EC0FFD1FEE0DFF1D108297
:101A9000C8010E940403F8018581882351F01EAE1D
:101AA0001DAE8CE591E09CAF8BAF21961FAE2197C8
:101AB0001EC021E0AE01485A5F4FB201C8010E942A
:101AC0003218882361F3CE0CDF1CC2010E9404038C
:101AD000942D852D2801092F182FB6CFC6018755C3
:101AE00095403C01B201CE01CB960E94880783014C
:101AF000095A1A4FF8018081811109C0BE01655C45
:101B00007F4FC1010E94880743E852E039C019A203
:101B100018A28CE591E09F8F8E8F1BA221968FAD2E
:101B20002197811113C0F5011382128288EE93E090
:101B3000A0E0B0E084839583A683B78386E291E03A
:101B400091838083128E118E14861EC027E1A80116
:101B5000BE01655C7F4FC4010E943218882319F3CF
:101B6000CE01CB960E94040349A95AA96BA97CA96E
:101B7000C4010E947001B401C1010E948807A8013C
:101B8000B101C5010E94E80BC501CC59DF4F0FB66A
:101B9000F894DEBF0FBECDBFDF91CF911F910F91A3
:101BA000FF90EF90DF90CF90BF90AF909F908F907D
:101BB0007F906F905F904F903F902F90089530915D
:101BC0005605313208F04BC0809133058111FCCFAE
:101BD0009091650622E02093330521E020933205A1
:101BE0002FEF209331051092300530932F05E6E357
:101BF000F5E0AFE0B5E020E0321721F041914D93E0
:101C00002F5FFACF10920E0520910E05990F922B9F
:101C100090930E0590910D05913061F410920D0591
:101C200090910E059093BB009091BC0093FDF8CF6E
:101C300095EC01C095EE9093BC00909133059230E5
:101C4000E1F3909131059F3F79F080913105803229
:101C500041F080913105803331F084E005C081E0AE
:101C600003C082E001C083E0109235051092560552
:101C7000109234050895682F82E096E00C945C136E
:101C800091E090933405809365061092350510928B
:101C900056050895909133059111FCCF982F81320C
:101CA00008F090E281E080933305809332052FEFB6
:101CB0002093310510923005290F20932F05809332
:101CC0000E0580910E05806D80930E0580910D05A7
:101CD000813061F410920D0580910E058093BB0058
:101CE0008091BC0083FDF8CF85EC01C085EE809328
:101CF000BC00809133058130E1F380913005891774
:101D000010F490913005EFE0F5E0ADEEB4E080E046
:101D1000891721F021912D938F5FFACF1092EC0457
:101D20008093EB0408958F929F92AF92BF92CF92CF
:101D3000DF92EF92FF92CF93DF93C82F80E196E07E
:101D40009093EA048093E904CC2369F1C53010F044
:101D500080E00CC140E060E070E0CB010E94C5165D
:101D60008823B1F320E1C29FC001112487529D4F07
:101D7000FC01E254FE4F20812F7751F73C964081C1
:101D8000518162817381443651056105710500F30B
:101D90003497C080D180E280F380C114D104E10483
:101DA000F10421F4D5CFC12CD12C760140E0C7013C
:101DB000B6010E94C516882359F28091F4029091D1
:101DC000F5028115924021F6A091F902AA2309F4A7
:101DD000BFCF6091F7027091F8026115710509F4A7
:101DE000B7CF2091F602222309F4B2CFA0932E069A
:101DF0002093200680E030E041E050E0C82FFA0157
:101E0000082E02C0EE0FFF1F0A94E2F72E173F07BD
:101E100039F08F5FC83091F789E08093290698CF19
:101E2000809329062091FF0230910003211531058E
:101E300019F040E050E008C020910D0330910E03EE
:101E400040910F03509110032093210630932206F6
:101E5000409323065093240646015701860E971E91
:101E6000A11CB11C80922F0690923006A0923106E0
:101E7000B0923206E091FA02F091FB02F09335063F
:101E8000E0933406B0E00E941B24860E971EA81E25
:101E9000B91E8092360690923706A0923806B0920C
:101EA000390685E0EE0FFF1F8A95E1F7E150FE4FFE
:101EB000EF2FFF27E6958E0E9F1EA11CB11C80926E
:101EC0002A0690922B06A0922C06B0922D06209105
:101ED000FC023091FD022115310521F0A90160E0DD
:101EE00070E008C04091090350910A0360910B0310
:101EF00070910C03D701C60188199909AA09BB0979
:101F0000840F951FA61FB71F04C0B695A795979578
:101F10008795CA95D2F78093250690932606A093BD
:101F20002706B0932806853F2FE09207A105B1054B
:101F300010F48CE018C0853F9F4FA105B10510F447
:101F400080E111C08091150390911603A0911703B1
:101F5000B09118038093360690933706A093380605
:101F6000B093390680E28093330681E0DF91CF9110
:101F7000FF90EF90DF90CF90BF90AF909F908F90A9
:101F80000895CF93DF93282F30E0F901E255FF4FFA
:101F90008491F901E656FF4FD491F901EA57FF4FBA
:101FA000C491CC2391F081110E949A0BEC2FF0E0A8
:101FB000EE0FFF1FE458FF4FA591B491EC91ED2374
:101FC00081E090E021F480E002C080E090E0DF91C9
:101FD000CF9108951F93CF93DF93282F30E0F9011D
:101FE000E255FF4F8491F901E656FF4FD491F90174
:101FF000EA57FF4FC491CC23C1F0162F81110E94E4
:102000009A0BEC2FF0E0EE0FFF1FEE58FF4FA5915B
:10201000B4919FB7F894111104C08C91D095D82336
:1020200002C0EC91DE2BDC939FBFDF91CF911F911B
:102030000895CF93DF9390E0FC01E656FF4F249183
:10204000FC01EA57FF4F8491882361F190E0880FEB
:10205000991FFC01E859FF4FC591D491FC01EE583E
:10206000FF4FA591B491611109C09FB7F894888181
:10207000209582238883EC912E230BC0623061F47B
:102080009FB7F8948881322F309583238883EC9111
:102090002E2B2C939FBF06C08FB7F894E8812E2B70
:1020A00028838FBFDF91CF910895CF93DF93C9E548
:1020B000D6E061E089810E9419100E948B0B60E0DC
:1020C00088810E9419100E948B0B60E089810E9418
:1020D0001910DF91CF910C948B0BCF93DF93D82FF6
:1020E000C8E061E0809159060E9419100E948B0B94
:1020F000D0FF02C060E001C061E080915A060E94FA
:1021000019100E948B0B60E0809159060E941910F3
:102110000E948B0BD695C15021F761E08091590642
:102120000E94191060E080915A060E9419100E94C6
:102130008B0B60E0809159060E9419100E948B0B56
:1021400080915A060E94C10FC82F811105C061E01D
:1021500080915A060E9419100E948B0B61E08091B9
:1021600059060E9419100E948B0B81E0C11101C019
:1021700080E0DF91CF91089561E080915A060E943E
:1021800019100C948B0BFF920F931F93CF93DF9337
:10219000F82E092F162FC42F0E94BC1080E40E9435
:1021A0006D100E9455100E94BC108C2F83708054BB
:1021B0000E946D10CF2DD02FCE01810F911D8C016B
:1021C000C017D10721F089910E946D10F9CF0E94AC
:1021D00055100E94BC1080915B068F7080580E9441
:1021E0006D10DF91CF911F910F91FF900C945510BE
:1021F000CF93DF9300D000D0CDB7DEB719821A821B
:102200001B821C8240E064E0CE0101960E94C31054
:102210000F900F900F900F90DF91CF9108958F92B4
:102220009F92AF92BF92CF92DF92EF92FF920F9365
:102230001F93CF93DF9300D000D0CDB7DEB7D62E5B
:10224000C42EBC0197FF03C0719561957109FB0114
:10225000392F331F3327331F8E010F5F1F4F580154
:10226000AC0CB11C78018AE0882E912C40E40A1550
:102270001B05D1F0CF01B4010E94AE24DC01BB27C5
:10228000AE5EBE4F9C91D5019E935D01811106C04B
:10229000309721F4332311F04C9330E0CF01B40197
:1022A0000E94AE24FB01E3CFD11016C0422F6C2D4B
:1022B000C8010E94C3100F900F900F900F90DF91F4
:1022C000CF911F910F91FF90EF90DF90CF90BF9033
:1022D000AF909F908F900895AE014B5F5F4F8D2D13
:1022E0008078F7019081892BD7018D937D01DD0CDA
:1022F0004A175B07A1F7DACF8F929F92AF92BF92F6
:10230000CF92DF92EF92FF926B017C010E94C30B90
:102310004B015C01C114D104E104F104F1F00E940D
:10232000C30BDC01CB0188199909AA09BB09883EB6
:102330009340A105B10570F321E0C21AD108E1086C
:10234000F10888EE880E83E0981EA11CB11CC11410
:10235000D104E104F10419F7DDCFFF90EF90DF9095
:10236000CF90BF90AF909F908F9008952FB7F89423
:102370006091E1027091E2028091E3029091E402A7
:102380002FBF08950895CF92DF92EF92FF920F939F
:102390001F93CF93DF936C017A018B01C0E0D0E0F3
:1023A000CE15DF0581F0D8016D918D01D601ED913B
:1023B000FC910190F081E02DC6010995892B11F067
:1023C0002196EECF7E01C701DF91CF911F910F9132
:1023D000FF90EF90DF90CF900895FC01538D448DD6
:1023E000252F30E0842F90E0821B930B541710F0C0
:1023F000CF96089501970895FC01918D828D9817CD
:1024000061F0828DDF01A80FB11D5D968C91928DD8
:102410009F5F9F73928F90E008958FEF9FEF0895D5
:10242000FC01918D828D981731F0828DE80FF11D9E
:10243000858D90E008958FEF9FEF0895FC01918DB9
:10244000228D892F90E0805C9F4F821B91098F73B2
:102450009927089585E695E00E941E1221E0892BB8
:1024600009F420E0822F0895FC01848DDF01A80F7C
:10247000B11DA35ABF4F2C91848D90E001968F73AC
:102480009927848FA689B7892C93A089B1898C91CB
:10249000837080648C93938D848D981306C002881A
:1024A000F389E02D80818F7D80830895EF92FF92E4
:1024B0000F931F93CF93DF93EC0181E0888F9B8D67
:1024C0008C8D981305C0E889F989808185FD26C027
:1024D000F62E0B8D10E00F5F1F4F0F731127E02EAC
:1024E0008C8DE8120CC00FB607FCFACFE889F98989
:1024F000808185FFF5CFCE010E943412F1CF8B8D04
:10250000FE01E80FF11DE35AFF4FF0829FB7F894E8
:102510000B8FEA89FB89808180620AC09FB7F8949B
:10252000EE89FF896083E889F989808183708064FE
:1025300080839FBF81E090E0DF91CF911F910F9149
:10254000FF90EF900895CF93DF93EC01888D88235F
:10255000C9F0EA89FB89808185FD05C0A889B98910
:102560008C9186FD0FC00FB607FCF5CF808185FFEB
:10257000F2CFA889B9898C9185FFEDCFCE010E9459
:102580003412E7CFDF91CF91089580E090E0892B5E
:1025900029F00E942A1281110C940000089585ED03
:1025A0008093BC008091BC0084FDFCCF1092330569
:1025B000089540918B06262F30E0240F311D2132E3
:1025C0003105DCF4209133052430C9F4FC0180E0AE
:1025D00090E0861758F430918B062191DC01A559C3
:1025E000B94FA30FB11D2C930196F3CF80918B06A9
:1025F000680F60938B0680E0089581E0089582E083
:102600000895089508950895E091EC048091EB04F5
:10261000E81730F4F0E0E351FB4F808190E008953B
:102620008FEF9FEF08959091EC048091EB04981741
:1026300050F4E92FF0E0E351FB4F208130E09F5F41
:102640009093EC0402C02FEF3FEFC90108958091F1
:10265000EB0490E02091EC04821B91090895CF9245
:10266000DF92EF92FF920F931F93CF93DF937C0142
:10267000CB018A0120913405222389F0EB016B0103
:10268000C40ED51ECC15DD0569F06991D701ED9119
:10269000FC910190F081E02DC7010995F3CF642FE3
:1026A0000E94D912C801DF91CF911F910F91FF9025
:1026B000EF90DF90CF900895CF93DF931F92CDB727
:1026C000DEB76983209134052223D1F0209156058D
:1026D000203240F021E030E0FC013383228380E0AF
:1026E00090E015C080913505E82FF0E0EA5CFA4FE4
:1026F000998190838F5F809335058093560505C03F
:1027000061E0CE0101960E94D91281E090E00F9025
:10271000DF91CF9108950E941F26CF93DF931F92E0
:10272000CDB7DEB7698341E050E0BE016F5F7F4FF8
:102730000E94CB050F90DF91CF9108951F920F92C9
:102740000FB60F9211242F933F934F935F936F9384
:102750007F938F939F93AF93BF93EF93FF93E091FA
:102760000201F09103010995FF91EF91BF91AF91A3
:102770009F918F917F916F915F914F913F912F9199
:102780000F900FBE0F901F9018951F920F920FB6CB
:102790000F9211242F933F934F935F936F937F93E7
:1027A0008F939F93AF93BF93EF93FF93E0910001BB
:1027B000F09101010995FF91EF91BF91AF919F9128
:1027C0008F917F916F915F914F913F912F910F90DA
:1027D0000FBE0F901F9018956115710579F0FB01E0
:1027E00001900020E9F73197AF01461B570BDC0140
:1027F000ED91FC910280F381E02D099480E090E05E
:1028000008950C94EC131F920F920FB60F9211249F
:102810002F933F934F935F936F937F938F939F93E8
:10282000AF93BF93EF93FF9385E695E00E94341238
:10283000FF91EF91BF91AF919F918F917F916F9198
:102840005F914F913F912F910F900FBE0F901F906E
:1028500018951F920F920FB60F9211242F938F93FA
:102860009F93EF93FF93E0917505F091760580813A
:10287000E0917B05F0917C0582FD12C090818091F2
:102880007E058F5F8F7320917F05821751F0E09155
:102890007E05F0E0EB59FA4F958F80937E0501C0DD
:1028A0008081FF91EF919F918F912F910F900FBE9B
:1028B0000F901F9018951F920F920FB60F92112430
:1028C0002F933F934F935F936F937F938F939F9338
:1028D000AF93BF93EF93FF93E0918802F091890249
:1028E0000995FF91EF91BF91AF919F918F917F914A
:1028F0006F915F914F913F912F910F900FBE0F906D
:102900001F901895EF92FF920F931F93CF93DF9331
:10291000EC0169813881432F50E08A8190E0E2ED3B
:10292000F0E021E0261730F47491870F911D2F5F9E
:102930003196F8CF633018F0337009F401966DE6E4
:1029400071E0469F9001479F300D569F300D112436
:10295000215031094D5F5F4F5695479556954795E4
:10296000240F351F280F391FA8E1B0E00E945D2415
:102970002B817B018C01E20EF11C011D111DA801B0
:102980009701ACE3B0E00E941B242C817B018C01F9
:10299000E20EF11C011D111DA80197010E941B24CC
:1029A0002D81DC01CB01820F911DA11DB11DBC0148
:1029B000CD0160587C4B8249974CDF91CF911F919C
:1029C0000F91FF90EF9008958F929F92AF92BF92D8
:1029D000CF92DF92EF92FF92CF93DF93EC016A01E7
:1029E0007B0180E8C81A83E4D80A8DE6E80A88E308
:1029F000F80A8CE3882E912CA12CB12CC701B601CA
:102A0000A50194010E94D6246D83CA01B901A501D4
:102A100094010E94D6246C83C701B60120E13EE0F8
:102A200040E050E00E94D624CA01B90128E130E01C
:102A300040E050E00E94D6246B83C701B60120E835
:102A400031E541E050E00E94D62418824881542F9D
:102A5000537081E009F080E090E0BC0163597E4F43
:102A60002617370738F0281B390B2D5631404F5F9A
:102A70004883ECCF81E089838981E82FF0E0EF5231
:102A8000FF4FE491511103C0823009F4EF5FF0E091
:102A90002E173F0720F02E1B3F0B8F5FECCF2F5FD1
:102AA0002A83DF91CF91FF90EF90DF90CF90BF907E
:102AB000AF909F908F9008951F920F920FB60F9234
:102AC00011242F933F934F935F936F937F938F9333
:102AD0009F93AF93BF93EF93FF938091B900887F4B
:102AE000803609F49CC068F5883209F45BC090F424
:102AF000803109F454C038F4882309F4F6C08830D2
:102B000009F44DC0F6C0883109F44CC0803209F494
:102B10005DC0EFC0803409F468C048F4803309F424
:102B200055C0883309F0E5C080933105D8C08035A1
:102B300009F44FC0883509F45DC0883409F0D9C064
:102B4000D6C0883909F4C7C0A8F4883709F467C02B
:102B500038F4883609F463C0803709F460C0C9C00E
:102B6000883809F4B8C0803909F45FC0803809F0AA
:102B7000C0C05BC0803B09F486C038F4803A09F4D9
:102B800066C0883A09F47FC0B4C0803C09F4A7C08D
:102B9000883C09F4A4C0883B09F48AC0AAC080918B
:102BA0000E0510C09091300580912F05981770F593
:102BB000E091300581E08E0F80933005F0E0E15F19
:102BC000FA4F80818093BB0085EC86C080933105ED
:102BD0008EC0E091300581E08E0F809330058091AA
:102BE000BB00F0E0E15FFA4F808390913005809167
:102BF0002F056EC0E091300581E08E0F8093300587
:102C00008091BB00F0E0E15FFA4F80838091320554
:102C100081116DC081E080930D0584EA61C083E07D
:102C2000809333051092AD06CFCF8091AD068032F0
:102C300008F051C0E091AD0681E08E0F8093AD06A3
:102C40008091BB00F0E0E357F94F8083BDCF85EC66
:102C50008093BC00109233058091AD06803230F431
:102C6000E091AD06F0E0E357F94F10826091AD06B8
:102C700070E0E0918A02F0918B028DE896E0099570
:102C80001092AD0636C084E08093330510928C0616
:102C900010928B06E0918C02F0918D020995809143
:102CA0008B06811105C081E080938B0610926B0624
:102CB000E0918C0681E08E0F80938C06F0E0E55960
:102CC000F94F80818093BB0090918C0680918B0698
:102CD000981708F479CF85E88093BC000AC085EC8A
:102CE0008093BC001092330504C0109231050E94FD
:102CF000CF12FF91EF91BF91AF919F918F917F91F3
:102D00006F915F914F913F912F910F900FBE0F9058
:102D10001F901895809166068823A9F140910401BF
:102D200050910501609106017091070129EE32E092
:102D30008091E9049091EA040E945F05811102C02C
:102D400080E0089540916706509168066091690699
:102D500070916A06411551056105710591F029EEE2
:102D600032E08091E9049091EA040E945F05882393
:102D700039F3109267061092680610926906109255
:102D80006A061092660681E008958F929F92AF9234
:102D9000BF92EF92FF920F931F93CF934B015C0171
:102DA000C42F8091040190910501A0910601B0917A
:102DB000070188159905AA05BB0501F10E948A162D
:102DC000811102C080E020C089EEE82E82E0F82E5A
:102DD00000E012E020E030E0B501A4018091E904B8
:102DE0009091EA040E94CB04882361F3809204014D
:102DF00090920501A0920601B092070180916606AB
:102E0000C82BC093660681E0CF911F910F91FF9070
:102E1000EF90BF90AF909F908F9008954F925F92E8
:102E20006F927F928F929F92AF92BF92CF92DF92DA
:102E3000EF92FF920F931F93CF93DF93EC014230F9
:102E400051056105710510F480E078C089859A8587
:102E5000AB85BC850196A11DB11D84179507A607FA
:102E6000B70790F3CB88DC88ED88FE888F898031A6
:102E700029F4BB27A72F962F852F09C0DB01CA0194
:102E8000E7E0B695A79597958795EA95D1F748011C
:102E900059012A013B01C80ED91EEA1EFB1E809172
:102EA000040190910501A0910601B0910701C81697
:102EB000D906EA06FB0681F48F898031A9F4B301B3
:102EC000A201552766277727440F551FFA01E751BE
:102ED000FD4F9182808219C040E0C701B6010E9477
:102EE000C5168111E9CFB0CFB301A2014F775527A5
:102EF00066277727440F551F440F551FFA01E751E6
:102F0000FD4F80829182A282B382809166068160A9
:102F1000809366068A89823080F08D819E81AF81A0
:102F2000B885C80ED91EEA1EFB1EC0926706D09255
:102F30006806E0926906F0926A0681E0DF91CF911F
:102F40001F910F91FF90EF90DF90CF90BF90AF90C7
:102F50009F908F907F906F905F904F9008958F9289
:102F60009F92AF92BF92CF92DF92EF92FF920F9318
:102F70001F93CF93DF93FC0181859285A385B48550
:102F80000196A11DB11D84179507A607B70710F478
:102F900080E05BC083889488A588B6888789803163
:102FA00029F4BB27A72F962F852F09C0DB01CA0163
:102FB000C7E0B695A79597958795CA95D1F7E9018A
:102FC0006A017B018F01BC01CD01680D791D8A1D4D
:102FD0009B1D8090040190900501A0900601B09087
:102FE0000701681579058A059B0591F4F801878921
:102FF0008031A1F4DD24EE24FF24C601880F991F3F
:10300000FC01E751FD4F80819181A0E0B0E018C044
:1030100040E00E94C5168111E9CFBACFE894C7F805
:10302000DD24EE24FF24C601880F991F880F991F05
:10303000FC01E751FD4F80819181A281B381BF7076
:1030400088839983AA83BB8381E0DF91CF911F910D
:103050000F91FF90EF90DF90CF90BF90AF909F9037
:103060008F9008952F923F924F925F926F927F922E
:103070008F929F92AF92BF92CF92DF92EF92FF9288
:103080000F931F93CF93DF93CDB7DEB72B970FB678
:10309000F894DEBF0FBECDBF7C01FE013196CE019C
:1030A0000C966F0130E23193E817F907E1F7DA0186
:1030B00030E087E09D91992331F19E3231F48A30DE
:1030C00009F479C138E08AE0F5CFE2ECF0E0449110
:1030D000442321F031969413FACF6DC1831708F47D
:1030E0006AC14FED490F4E3508F065C141E0430F0D
:1030F000F601E30FF11D3FE9390F3A3108F4905220
:103100009083342FD7CF8981803209F454C1322E75
:103110008B01DB015B968D919C915C97F701948FFD
:10312000838F16961D921D921D921C921997FB017A
:103130001286138614861586B12CF8018285938534
:10314000A485B5854389548965897689841795074F
:10315000A607B70708F05BC025E0B695A795979539
:1031600087952A95D1F7F82FFF70AF2ED8011596C5
:103170008C91823008F41FC1C8010E94D90797FDC5
:103180001AC1F80182859385A485B5854F96A11D46
:10319000B11D82879387A487B587F0E2AF9EB00107
:1031A000112467517D4F6115710509F404C1DB01DC
:1031B0008C91882319F0853EC1F4FFC0B1100EC078
:1031C000F701A28A8091040190910501A091060166
:1031D000B091070186879787A08BB18BDB018C911B
:1031E000882399F0BB24B394A8CF4BE050E0C601EC
:1031F0000E942426892B09F0A0CF832D8073803371
:1032000009F4D9C0432D6A2DD2C0BB24B394832DB9
:103210008271823109F0CFC0BB20C9F0F701668509
:1032200077858089918941E00E94C516882309F439
:10323000C2C0D70152960C91B0E20B9F80011124BD
:1032400007511D4F0115110509F078C0B4C0F801F0
:103250008581823009F4AFC0C8010E941003882321
:1032600009F4A9C0D8015B96ED91FC915C97169684
:103270008D909D90AD90BC901997B2E08B1A9108FB
:10328000A108B108058404C0880C991CAA1CBB1CA9
:103290000A94D2F786859785A089B189880E991EF0
:1032A000AA1EBB1E2480E1E08E1A9108A108B10875
:1032B000222009F124013501420C511C611C711CB2
:1032C0000E948A16882309F476C0E9EEF2E0119292
:1032D00024E0E93EF207D9F740920401509205013B
:1032E000609206017092070180916606816080936A
:1032F00066062A94DDCFD8015B96ED91FC915C9730
:1033000080E092E0A0E0B0E0058404C0880F991F3F
:10331000AA1FBB1F0A94D2F7F80143895489658913
:103320007689840F951FA61FB71F838B948BA58B5F
:10333000B68BD70152961C9209EE12E080E2F8019A
:1033400011928A95E9F78BE0F601D80101900D9270
:103350008A95E1F7E0918E02F0918F02309739F073
:10336000B801625F7F4FC801409609950DC081E2A8
:1033700098E2D80151969C938E93509780E098E004
:103380001F969C938E931E97F80180899189938B49
:10339000828B918F808F86859785978B868B0E94F5
:1033A0008A16882341F0432DD70152966C91C701AC
:1033B0000E94070205C080E003C0B11013CF00CF08
:1033C0002B960FB6F894DEBF0FBECDBFDF91CF9125
:1033D0001F910F91FF90EF90DF90CF90BF90AF9033
:1033E0009F908F907F906F905F904F903F902F9025
:1033F00008951F920F920FB60F9211242F933F93AF
:103400008F939F93AF93BF938091E1029091E202DB
:10341000A091E302B091E4023091AE0623E0230FC5
:103420002D3720F40196A11DB11D05C026E8230FFC
:103430000296A11DB11D2093AE068093E1029093E8
:10344000E202A093E302B093E4028091E50290913E
:10345000E602A091E702B091E8020196A11DB11D1C
:103460008093E5029093E602A093E702B093E8020E
:10347000BF91AF919F918F913F912F910F900FBE70
:103480000F901F901895CF93DF93CDB7DEB7E597D8
:103490000FB6F894DEBF0FBECDBF789484B58260BE
:1034A00084BD84B5816084BD85B5826085BD85B5E8
:1034B000816085BD80916E00816080936E00109266
:1034C00081008091810082608093810080918100E1
:1034D0008160809381008091800081608093800072
:1034E0008091B10084608093B1008091B0008160D0
:1034F0008093B00080917A00846080937A008091FC
:103500007A00826080937A0080917A008160809353
:103510007A0080917A00806880937A001092C100CE
:103520001092D6021092D5021092D8021092D702B1
:103530001092DE0261E087E00E94191060E087E0EF
:103540000E94EA0F61E088E00E94191060E088E0C4
:103550000E94EA0F1092920262E086E00E94191027
:1035600062E085E00E941910109287021092860294
:1035700085E58093930285E00E94C10F892B19F4A1
:1035800089E48093930280919302893419F480ED49
:1035900097E004C0853551F488E393E09093970257
:1035A000809396021092950210929402E091750514
:1035B000F091760582E08083E0917105F0917205CB
:1035C0001082E0917305F091740580E18083109280
:1035D0007D05E0917905F0917A0586E08083E091A0
:1035E0007705F0917805808180618083E09177058F
:1035F000F0917805808188608083E0917705F09173
:103600007805808180688083E0917705F091780566
:1036100080818F7D808384E690E0A0E0B0E080939D
:10362000690590936A05A0936B05B0936C0580E7DC
:1036300091E09F938F9385E791E09F938F9381EA29
:1036400092E09F938F930E944B2661EA72E085E699
:1036500095E00E9401148FE080935B060E94F810B1
:103660000F900F900F900F900F900F9080919302FA
:10367000853511F480E501C080E18C8F86E08D8F67
:103680008DE68E8F8FE78F8F40E064E0CE014C9601
:103690000E94C31060ED77E080E090E00E947C1112
:1036A0000E94F81081E080939102809390028BE356
:1036B0009BE090938F0280938E0280913F06882337
:1036C00021F08AE396E00E94040310921B061092F8
:1036D000190610921606109215068AE080931406B9
:1036E0000E94B6118B0161E0809114060E941910AE
:1036F00061E0809114060E94EA0FFFB6F894809171
:10370000A002811127C0E0E9F0E08491E4EAF0E052
:103710009491E82FF0E0EE0FFF1FE859FF4FA591BD
:10372000B491EC91E92321F461E08AE00E94EA0F70
:1037300061E08AE00E9419108CB580618CBD8CB567
:1037400080648CBD61E08DE00E94191061E08BE027
:103750000E9419108091A0028F5F8093A002FFBE8B
:1037600082E580930E0610920F0680910E069091CE
:103770000F060E9463042AE0F22E8FEF0E942404B9
:10378000FA94F110FACF80E196E00E94660420E0FE
:1037900030E0A90160E080E196E00E947C04F82E10
:1037A00080931A0621E0821749F00E94B611601B2F
:1037B000710B613D774058F381E056C02AEA31E051
:1037C00040E050E068E080E196E00E947C0482FFE7
:1037D00003C0F0921B0610C094E0F92E0E942B0447
:1037E00080931A06FA94F110F9CF8A3A11F082E028
:1037F0003BC082E080931B0680911B06823031F42F
:10380000C12CD12CE12C80E4F82E03C0C12CD12C8A
:10381000760120E030E0A90167E380E196E00E94B4
:103820007C04A701960169E280E196E00E947C0495
:1038300080931A06882349F00E94B611601B710B11
:10384000613D774030F388E00FC080911B068230E5
:1038500001F520E030E0A9016AE380E196E00E94F2
:103860007C04882341F086E08093150680E196E091
:103870000E94190428C00E942B04807C803C19F40B
:1038800083E080931B060E942B040E942B040E945D
:103890002B0480E196E00E94190480E580930E06D7
:1038A00010920F0681E00E94930E882339F08AE37C
:1038B00096E00E94980C882331F007C080E00E94B7
:1038C000930E8111F4CF80E06EC510929F0201E04B
:1038D00000939E0200939D0280E1809381001092EC
:1038E000800083E080939C0282E19AE790938700B6
:1038F0008093860083E18093810082E391E090933E
:1039000089028093880200936F00109281001092C8
:1039100085001092840080919C02806180938100D8
:103920008FE498E1A9E4BCE5809398029093990212
:10393000A0939A02B0939B021092EC041092EB04B5
:1039400010923505109256051092330500933205FA
:1039500010920D0561E082E10E94EA0F61E083E1CF
:103960000E94EA0F8091B9008E7F8093B900809108
:10397000B9008D7F8093B90088E48093B80085E416
:103980008093BC0081E093E190938D0280938C0240
:1039900082E093E190938B0280938A0288E60E94F2
:1039A000400E80E090E00E943B0E0E94DF0D87E019
:1039B00090E00E944A0E82E096E00E9413138F77F7
:1039C000982F92959F701AEFF82E919FF00C11246A
:1039D00082E096E00E9413139C01332794E0359512
:1039E00027959A95E1F7E82E129FE00C112482E0CA
:1039F00096E00E9413139C01332744E035952795E8
:103A00004A95E1F7D82E129FD00C112482E096E05F
:103A10000E94131382E096E00E9413139C01332747
:103A200054E0359527955A95E1F7C82E129FC00CA2
:103A3000112482E096E00E9413139C01332764E076
:103A4000359527956A95E1F7B82E129FB00C112491
:103A500082E096E00E9413139C01332774E03595B1
:103A600027957A95E1F7129F800D11248983BA82F8
:103A7000CB82DC82ED82FE82CE0101960E9482140E
:103A8000609398027093990280939A0290939B029C
:103A900088E60E94400E8EE090E00E943B0E0E945D
:103AA000DF0D81E090E00E944A0E82E096E00E94E5
:103AB0001313182F88E60E94400E8EE090E00E94BB
:103AC0003B0E612F637282E096E00E945C130E94BD
:103AD000DF0D62E080E00E9419108DE491E0909388
:103AE000010180930001809169008C7F8160809347
:103AF0006900E89A0093D4020E94E5094091980277
:103B00005091990260919A0270919B02CE010196A8
:103B10000E94E4148C818093D3026FE871E085E603
:103B200095E00E94EC1364EA71E085E695E00E945E
:103B3000EC13EAE04E2E512CFFED6F2EF1E07F2EBC
:103B4000A1EAEA2EA2E0FA2EFE017E96FBABEAABDA
:103B50009E01245E3F4F6901BEEAAB2EB1E0BB2E51
:103B600090919F02992309F421C200915E06509121
:103B70005F065FA73091600639A7109161061C8F20
:103B8000809162068983933009F48AC030F49130C1
:103B900059F0923009F450C006C2943009F4B0C014
:103BA000953009F4E6C0FFC110E00053184F809132
:103BB0009E02882379F080919D02882339F020E0CD
:103BC00044E060E0C8010E940F1102C00E94F8109A
:103BD00010929E02BE01605D7F4FCE01C1960E9491
:103BE000F60899A988A9911123C0882309F4A5C4CE
:103BF000C801805D97408336910518F40F5F1F4F11
:103C000002C000ED17E01092810010928500109222
:103C1000840080919C0280618093810081E0809388
:103C20009E0280939D02005D174000935E062FC0A8
:103C3000811183C482E031C080919E02882381F08B
:103C400080919D02882341F020E042E060E0852FD2
:103C500090E00E940F1102C00E94F81010929E0284
:103C6000BE01605D7F4FCE01C1960E94F60899A902
:103C700088A991110FC0882309F45FC44CE061E06A
:103C8000CE018F960E94200B8FA580935F06109225
:103C9000630653C4811151C483E00E940D0B4DC4CF
:103CA00080919E02882381F080919D02882341F0BB
:103CB00022E042E060E0832F90E00E940F1102C0FA
:103CC0000E94F81010929E02BE01605D7F4FCE01EF
:103CD000C1960E94F60899A988A991110DC0882360
:103CE00009F42BC44FE161E0CE0189960E94200BBC
:103CF00089A580936006CBCF81111FC484E0CDCF0E
:103D000090919E029923C9F090919D02992351F0C0
:103D100090E020E044E060EE34E6139F800D911DBA
:103D2000112407C00E94F810898122E042E060EE71
:103D300090E00E940F1110929E02BE01605D7F4FC5
:103D4000CE01C1960E94F60899A988A991110DC0CB
:103D5000882309F4F2C347E160E0CE014C960E944B
:103D6000200B8C8D8093610692CF8111E6C385E094
:103D700094CF90919E029923C9F090919D0299232E
:103D800051F090E020E044E060EEE4E61E9F800DFC
:103D9000911D112407C00E94F81020E042E060EE5F
:103DA000812F90E00E940F1110929E02BE01605D73
:103DB0007F4FCE01C1960E94F60899A988A991115A
:103DC0000DC0882309F4B9C34BE360E0CE0101962E
:103DD0000E94200B89818093620659CF8111ADC367
:103DE00000915E0688E60E94400E86E090E00E9408
:103DF0003B0E1AE0802F612F0E94A224692FF0E170
:103E00008F9F600D112482E096E00E945C130E9457
:103E1000DF0D00915F0688E60E94400E85E090E08D
:103E20000E943B0E802F612F0E94A224692F20E167
:103E3000829F600D112482E096E00E945C130E9434
:103E4000DF0D0091600688E60E94400E84E090E05D
:103E50000E943B0E802F612F0E94A224692F30E127
:103E6000839F600D112482E096E00E945C130E9403
:103E7000DF0D0091610688E60E94400E82E090E02E
:103E80000E943B0E0E94DF0D81E090E00E944A0EEE
:103E900082E096E00E94131386FF18C00D3060F098
:103EA00084EF800F612F0E94A224192FE0E18E9FE2
:103EB000100D1124106614C0802F612F0E94A224BF
:103EC000192FF0E18F9F100D11240AC0802F612F50
:103ED0000E94A224192F20E1829F100D11241F7B24
:103EE00088E60E94400E82E090E00E943B0E612F27
:103EF00082E096E00E945C130E94DF0D1091620642
:103F000088E60E94400E81E090E00E943B0E812FE7
:103F10006AE00E94A224692F30E1839F600D112482
:103F200082E096E00E945C130E94DF0D88E60E940A
:103F3000400E80E090E00E943B0E60E082E096E060
:103F40000E945C130E94DF0D88E60E94400E8FE005
:103F500090E00E943B0E0E94DF0D81E090E00E9405
:103F60004A0E82E096E00E941313182F88E60E9402
:103F7000400E8FE090E00E943B0E612F6F7782E051
:103F800096E00E945C130E94DF0D8EE596E00E9491
:103F90008214609398027093990280939A0290938E
:103FA0009B0280E07ACE10929F02C7C2809193025A
:103FB000893431F0853511F485E003C081E001C01A
:103FC00082E02091DE0230E0282E312C221A330AC2
:103FD000C9018B529D4F9DAB8CAB00E010E02016C9
:103FE000310691F4409198025091990260919A02A1
:103FF00070919B02CE0189960E94E4143CA48091AA
:10400000D40281112FC044C00E94B61160936D0587
:1040100070936E0580936F059093700585E695E02B
:104020000E94FC1197FF8CC20E94B61120916D0571
:1040300030916E0540916F0550917005DC01CB0108
:10404000821B930BA40BB50B2091690530916A0577
:1040500040916B0550916C0582179307A407B50733
:10406000E8F2C0CF8091D302381681F0332061F09E
:1040700095E0391649F0EAE03E1631F0FFE03F16D0
:1040800019F024E1321202C00E94E5093092D302F5
:10409000002309F48AC180919302893409F4E4C0B1
:1040A000853509F04AC261E088E00E94EA0F82E0AB
:1040B000809392028091DE02800F8093DE02853031
:1040C00009F0D2C02091D5023091D60232272327A1
:1040D00032273093D6022093D5028091D702909157
:1040E000D8029827892798279093D8028093D702DF
:1040F0004091D90245FF10C03093DB022093DA02D1
:104100009093DD028093DC021092D6021092D502C9
:104110001092D8021092D7028091D5029091D602C7
:1041200040919602509197028417950708F099C024
:1041300020919402309195022817390708F091C018
:104140008091D7029091D8028417950708F089C012
:104150002817390708F085C08091D402882309F414
:1041600080C0CE0101960E94EC0CEA8DFB8D309749
:1041700009F477C08581882309F473C01D8E1C8ED5
:104180008BE0EAA9FBA911928A95E9F78091D902FF
:1041900085FF19C08091DD028F938091DC028F939F
:1041A0008091DB028F938091DA028F9327EA31E0CE
:1041B0003F932F93DF92CF920E944B260FB6F89435
:1041C000DEBF0FBECDBF8091D902409198025091C1
:1041D000990260919A0270919B02DF92CF9281FBCB
:1041E000992790F91F929F9381701F928F938091CE
:1041F000D8028F938091D7028F938091D6028F93AC
:104200008091D5028F938EA51F928F938DA51F92BB
:104210008F938CA51F928F938BA51F928F938AA546
:104220001F928F9389A590E08053984F9F938F930F
:104230007F936F935F934F93BF92AF92FF92EF92F2
:104240000E944B2661EA72E0CE0101960E940114A1
:10425000CE0101960E941D0C0FB6F894DEBF0FBE72
:10426000CDBF1092DE0269C19091DE0291110FC0A4
:104270008091D5022091D602382F307F19F4809397
:10428000D50205C00150822FB9F72093D502090F3E
:104290000093DE02023008F450C18091D502909163
:1042A000D6029827892798279093D6028093D50223
:1042B0002091D4022223A9F2977020919602309186
:1042C00097022817390768F22091940230919502DD
:1042D0008217930730F261E088E00E94EA0F8FEFC7
:1042E00080939202409198025091990260919A02B3
:1042F00070919B02CE014C960E94E414CE0101966F
:104300000E94EC0CEA8DFB8D309709F44BC085813F
:10431000882309F447C08091D5029091D6029C0170
:10432000377093FF03C088EE93E002C080E090E016
:10433000409198025091990260919A0270919B026B
:104340003F932F939F938F9389A11F928F9388A15F
:104350001F928F938F8D1F928F938E8D1F928F93AD
:104360008D8D1F928F938C8D90E08053984F9F93EB
:104370008F937F936F935F934F937F926F92FF9290
:10438000EF920E944B2661EA72E0CE0101960E94F4
:104390000114CE0101960E941D0C60E088E00E948D
:1043A000EA0F5ACF83E00E948E091092DE028091BC
:1043B00091028823B1F0109291022CA58DA590E076
:1043C000E4E62E9F800D911D112420919002211171
:1043D00003C044E060EE03C020E044E060E00E94DF
:1043E0000F11BE01605D7F4FCE01C1960E94F6089D
:1043F0003091D40299A928A931111BC0992369F1E0
:104400002223B9F0409198025091990260919A024A
:1044100070919B02CE0101960E94E41486E0FE0199
:104420003196AEE5B6E001900D928A95E1F781E014
:1044300034CC992391F0211110C081E0832780931F
:10444000D402882329F00E94E5093092D30275C076
:1044500060E087E00E94EA0F70C0222309F46DC07B
:1044600091116BC088E60E94400E81E190E00E94AD
:104470003B0E0E94DF0D82E090E00E944A0E909178
:10448000EB048091EC049817F9F082E096E00E942A
:104490001313182F82E096E00E941313912E812CA3
:1044A000B401682B86E0759567958A95E1F7072E2C
:1044B000000C880B990B0E94222320E030E040E89A
:1044C0005EE30E945D2304C060E07CE38CE196EC37
:1044D0000E946C249B0119821A821B821C8249E370
:1044E0004C8377FF0BC022273327261B370B80E432
:1044F0002A30310514F48A8301C08983C901B201CD
:104500000E94C224FC01EE5EFE4F80818B832A3024
:1045100031053CF06F70E62FF0E0EE5EFE4F8081DB
:104520008A8340E064E0CE0101960E94C31068EBEC
:104530007BE080E090E00E947C110E94C51210CBCD
:10454000ECA9FDA98193FDABECAB0F5F1F4F47CDED
:10455000CF93DF93E5E6F5E01382128288EE93E0D5
:10456000A0E0B0E084839583A683B78328E331E09D
:104570003183208325EC30E03587248724EC30E03C
:104580003787268720EC30E0318B208B21EC30E020
:10459000338B228B22EC30E0358B248B26EC30E001
:1045A000378B268B118E128E138E148EE2E0F6E07E
:1045B0001382128284839583A683B7838AE491E071
:1045C00091838083EEE0F6E080E580831182E0E174
:1045D000F6E0158216821186138682E090E0A0E054
:1045E000B0E084879587A687B78713A215A614A67F
:1045F0008CE591E093A782A717A640E050E0BA01AE
:104600008EE596E00E94E414C9E5D6E083E0888355
:1046100084E0898384E690E09C838B8360E083E080
:104620000E94191060E089810E94191060E0888161
:104630000E94EA0F60E08981DF91CF910C94EA0F2C
:10464000E89409C097FB3EF490958095709561952C
:104650007F4F8F4F9F4F9923A9F0F92F96E9BB27E2
:104660009395F695879577956795B795F111F8CF5E
:10467000FAF4BB0F11F460FF1BC06F5F7F4F8F4FC9
:104680009F4F16C0882311F096E911C0772321F0BF
:104690009EE8872F762F05C0662371F096E8862F57
:1046A00070E060E02AF09A95660F771F881FDAF7AE
:1046B000880F9695879597F908950E9470230C941A
:1046C000E1230E94D32338F00E94DA2320F09523BF
:1046D00011F00C94CA230C94D02311240C941524AB
:1046E0000E94F22370F3959FC1F3950F50E0551F80
:1046F000629FF001729FBB27F00DB11D639FAA2737
:10470000F00DB11DAA1F649F6627B00DA11D661F85
:10471000829F2227B00DA11D621F739FB00DA11DA6
:10472000621F839FA00D611D221F749F3327A00D60
:10473000611D231F849F600D211D822F762F6A2FFC
:1047400011249F5750409AF0F1F088234AF0EE0F61
:10475000FF1FBB1F661F771F881F91505040A9F78E
:104760009E3F510580F00C94CA230C9415245F3FA2
:10477000E4F3983ED4F3869577956795B795F795CA
:10478000E7959F5FC1F7FE2B880F911D9695879542
:1047900097F9089597F99F6780E870E060E00895C1
:1047A0009FEF80EC089500240A9416161706180649
:1047B0000906089500240A94121613061406050625
:1047C0000895092E0394000C11F4882352F0BB0FB6
:1047D00040F4BF2B11F460FF04C06F5F7F4F8F4F19
:1047E0009F4F089557FD9058440F551F59F05F3F54
:1047F00071F04795880F97FB991F61F09F3F79F003
:1048000087950895121613061406551FF2CF469584
:10481000F1DF08C0161617061806991FF1CF869506
:104820007105610508940895E894BB2766277727EA
:10483000CB0197F908950E945D24A59F900DB49F28
:10484000900DA49F800D911D112408952F923F92E9
:104850004F925F926F927F928F929F92AF92BF9290
:10486000CF92DF92EF92FF920F931F93CF93DF933C
:10487000CDB7DEB7CA1BDB0B0FB6F894DEBF0FBE99
:10488000CDBF09942A88398848885F846E847D84E6
:104890008C849B84AA84B984C884DF80EE80FD80E8
:1048A0000C811B81AA81B981CE0FD11D0FB6F8945E
:1048B000DEBF0FBECDBFED010895A29FB001B39F33
:1048C000C001A39F700D811D1124911DB29F700D19
:1048D000811D1124911D08950E9473246894B111C3
:1048E0000C94152408950E94FA2388F09F5798F09D
:1048F000B92F9927B751B0F0E1F0660F771F881FE5
:10490000991F1AF0BA95C9F714C0B13091F00E94FE
:104910001424B1E008950C941424672F782F88276D
:10492000B85F39F0B93FCCF3869577956795B39525
:10493000D9F73EF490958095709561957F4F8F4F94
:104940009F4F0895991B79E004C0991F961708F0AE
:10495000961B881F7A95C9F780950895AA1BBB1BE3
:1049600051E107C0AA1FBB1FA617B70710F0A61B6F
:10497000B70B881F991F5A95A9F780959095BC0190
:10498000CD01089597FB072E16F4009407D077FD0C
:1049900009D00E94AE2407FC05D03EF49095819585
:1049A0009F4F0895709561957F4F0895A1E21A2E4B
:1049B000AA1BBB1BFD010DC0AA1FBB1FEE1FFF1FC3
:1049C000A217B307E407F50720F0A21BB30BE40B13
:1049D000F50B661F771F881F991F1A9469F760955A
:1049E0007095809590959B01AC01BD01CF01089514
:1049F000EE0FFF1F0590F491E02D09940F931F9384
:104A0000CF93DF938230910510F482E090E0E09143
:104A1000B106F091B20620E030E0A0E0B0E03097BF
:104A200019F1408151810281138148175907C8F05B
:104A30008417950769F4109731F012960C9312972A
:104A400013961C9327C00093B1061093B20622C0A0
:104A50002115310519F04217530718F49A01BD01C9
:104A6000EF01DF01F801DBCF21153105F9F0281B3B
:104A7000390B2430310580F48A819B8161157105E1
:104A800021F0FB019383828304C09093B20680934C
:104A9000B106FE01329644C0FE01E20FF31F81937E
:104AA000919322503109398328833AC02091AF066F
:104AB0003091B006232B41F420910A0130910B0173
:104AC0003093B0062093AF06209108013091090180
:104AD0002115310541F42DB73EB740910C0150919D
:104AE0000D01241B350BE091AF06F091B006E217E3
:104AF000F307A0F42E1B3F0B2817390778F0AC0101
:104B00004E5F5F4F2417350748F04E0F5F1F5093DD
:104B1000B0064093AF068193919302C0E0E0F0E0CD
:104B2000CF01DF91CF911F910F910895CF93DF9324
:104B3000009709F481C0FC01329713821282A09180
:104B4000B106B091B206109781F420813181820FB5
:104B5000931F2091AF063091B0062817390751F501
:104B6000F093B006E093AF0667C0ED0120E030E0BF
:104B7000CE17DF0740F44A815B819E014115510544
:104B8000F1F0EA01F5CFD383C28340815181840FD4
:104B9000951FC817D90759F488819981840F951FEB
:104BA0000296918380838A819B81938382832115DE
:104BB000310529F4F093B206E093B1063DC0E90156
:104BC000FB83EA8349915991C40FD51FEC17FD0768
:104BD00061F480819181840F951F0296E901998388
:104BE0008883828193819B838A83E0E0F0E0129640
:104BF0008D919C911397009719F0FD01DC01F7CF7F
:104C00008D919C9111979D012E5F3F4F820F931FB5
:104C10002091AF063091B0062817390769F4309714
:104C200029F41092B2061092B10602C013821282C9
:104C3000B093B006A093AF06DF91CF91089581E0C5
:104C400090E0F8940C94FE28FB01DC0104C08D91E7
:104C50000190801921F441505040C8F7881B990BEE
:104C60000895FC018191861721F08823D9F79927AF
:104C700008953197CF010895FB01DC014150504068
:104C800048F001900D920020C9F701C01D924150DB
:104C90005040E0F70895AEE0B0E0E1E5F6E20C94B4
:104CA00034240D891E8986E08C831A8309838FEF53
:104CB0009FE79E838D83AE01475E5F4F6F89788D3E
:104CC000CE0101960E946D26EF81F885E00FF11F5D
:104CD00010822E96E4E00C945024ABE0B0E0E3E7C1
:104CE000F6E20C9426246C017B018A01FC011782F8
:104CF0001682838181FFCCC1CE0101963C01F60171
:104D00009381F70193FD859193FF81917F01882322
:104D100009F4BAC1853239F493FD859193FF8191ED
:104D20007F01853229F4B60190E00E946428E7CF24
:104D3000912C212C312CFFE1F315D8F08B3279F036
:104D400038F4803279F08332A1F4232D20611DC024
:104D50008D3261F0803369F4232D216016C0832DDC
:104D60008260382EE32DE4603E2E2AC0F32DF860D9
:104D70001DC037FC2DC020ED280F2A3040F08E32A8
:104D8000B9F436FC81C1232D2064322E19C036FEC1
:104D900006C08AE0989E200D1124922E11C0EAE0F0
:104DA0002E9E200D1124222EF32DF0623F2E08C0DE
:104DB0008C3621F4832D8068382E02C0883641F469
:104DC000F70193FD859193FF81917F018111B3CF0D
:104DD000982F9F7D9554933028F40C5F1F4F9FE3CD
:104DE00099830DC0833631F0833771F0833509F034
:104DF00059C021C0F801808189830E5F1F4F88242C
:104E00008394912C530113C02801F2E04F0E511CE2
:104E1000F801A080B18036FE03C0692D70E002C0A9
:104E20006FEF7FEFC5010E9459284C018201F32DDD
:104E3000FF773F2E16C0280122E0420E511CF801D8
:104E4000A080B18036FE03C0692D70E002C06FEF14
:104E50007FEFC5010E944E284C01F32DF0683F2ED4
:104E6000820133FC1BC0822D90E088169906B0F4B5
:104E7000B60180E290E00E9464282A94F4CFF50104
:104E800037FC859137FE81915F01B60190E00E9469
:104E9000642821102A9421E0821A91088114910437
:104EA00071F7E8C0843611F0893641F5F80137FE14
:104EB00007C060817181828193810C5F1F4F08C0A0
:104EC00060817181072E000C880B990B0E5F1F4FBC
:104ED000F32DFF763F2E97FF09C090958095709532
:104EE00061957F4F8F4F9F4FF0683F2E2AE030E053
:104EF000A3010E94A028882E861845C0853731F46A
:104F0000232D2F7EB22E2AE030E025C0932D997FED
:104F1000B92E8F36C1F018F4883579F0B5C08037D6
:104F200019F0883721F0B0C0E92FE061BE2EB4FE41
:104F30000DC0FB2DF460BF2E09C034FE0AC0292F1E
:104F40002660B22E06C028E030E005C020E130E047
:104F500002C020E132E0F801B7FE07C06081718134
:104F6000828193810C5F1F4F06C06081718180E058
:104F700090E00E5F1F4FA3010E94A028882E861884
:104F8000FB2DFF773F2E36FE0DC0232D2E7FA22E48
:104F9000891458F434FE0BC032FC09C0832D8E7E78
:104FA000A82E05C0B82CA32C03C0B82C01C0B92C66
:104FB000A4FE0FC0FE01E80DF11D8081803321F4B5
:104FC0009A2D997EA92E09C0A2FE06C0B394B3946F
:104FD00004C08A2D867809F0B394A3FC11C0A0FE0A
:104FE00006C0B21488F4280C922C9B180EC0B21480
:104FF00060F4B60180E290E00E946428B394F7CF99
:10500000B21418F42B1802C0982C212CA4FE10C046
:10501000B60180E390E00E946428A2FE17C0A1FCC4
:1050200003C088E790E002C088E590E0B6010CC0BC
:105030008A2D867859F0A1FE02C08BE201C080E281
:10504000A7FC8DE2B60190E00E946428891438F430
:10505000B60180E390E00E9464289A94F7CF8A9486
:10506000F301E80DF11D8081B60190E00E946428F3
:105070008110F5CF222009F442CEB60180E290E003
:105080000E9464282A94F6CFF6018681978102C097
:105090008FEF9FEF2B96E2E10C944224FC010590E8
:1050A000615070400110D8F7809590958E0F9F1F2A
:1050B0000895FC016150704001900110D8F780956F
:1050C00090958E0F9F1F08950F931F93CF93DF939B
:1050D000FB01238121FD03C08FEF9FEF2CC022FF36
:1050E00016C046815781248135814217530744F405
:1050F000A081B1819D012F5F3F4F318320838C932D
:10510000268137812F5F3F4F3783268314C08B0161
:10511000EC01FB010084F185E02D0995892BE1F676
:10512000D80116968D919C911797019617969C938E
:105130008E931697CE01DF91CF911F910F91089515
:10514000FA01AA27283051F1203181F1E8946F93B8
:105150006E7F6E5F7F4F8F4F9F4FAF4FB1E03ED05E
:10516000B4E03CD0670F781F891F9A1FA11D680FFC
:10517000791F8A1F911DA11D6A0F711D811D911D2F
:10518000A11D20D009F468943F912AE0269F1124A4
:105190003019305D3193DEF6CF010895462F477008
:1051A000405D4193B3E00FD0C9F7F6CF462F4F7063
:1051B000405D4A3318F0495D31FD4052419302D0C1
:1051C000A9F7EACFB4E0A695979587957795679567
:1051D000BA95C9F700976105710508959B01AC0167
:1051E0000A2E06945795479537952795BA95C9F78E
:1051F000620F731F841F951FA01D0895F894FFCFA1
:10520000C211C211FFFFFFFF0000B30680007950FA
:1052100050003F065B4F666D7D077F6F777C395E80
:10522000797100000000BB006C07D2002A019A00CF
:10523000C208CC08000000005612C311ED11A312E1
:105240001E12FC111012000000005C132F13D2007C
:105250000313271313130413000000008D13C3114D
:10526000D200D100000000008B13C311D200D10086
:10527000312E3538005374617274696E6720287658
:10528000657273696F6E202573292E2E2E0A0049D0
:105290006E697469616C697A6174696F6E20444FDC
:1052A0004E452E000D0A002C25642C256400256C2B
:1052B000642C253034642F253032642F253032643D
:1052C0002C253032643A253032643A253032642C51
:1052D00025642C25642C25642C256425730A00255F
:1052E0006C642C253034642F253032642F25303205
:1052F000642C253032643A253032643A25303264E9
:105300002C25642C25640A0025635F52454725300F
:1053100033642E4353560046696C653A2000556E3F
:1053200069782074696D652C446174652C54696DCD
:10533000652C416C61726D2C43757272656E7420C0
:10534000492841290A00556E69782074696D652CD9
:10535000446174652C54696D652C2D552C2B552C8E
:105360002D4B2C2B4B2C2D522C2B520A004572729C
:105370006F722120556E6B6E6F776E206D6F646556
:06538000210A002F0000CD
:00000001FF
