:100000000C9470000C94870B0C94600B0C9498006B
:100010000C9498000C9498000C9498000C94980000
:100020000C9498000C9498000C9498000C949800F0
:100030000C9498000C94690C0C9498000C94980003
:100040000C94911E0C9498000C94370C0C94110C89
:100050000C9498000C9498000C9498000C949800C0
:100060000C94900C0C9498007C3C3E5E2B3D3F2FF2
:100070005B5D3B2C2A225C001F1C1F1E1F1E1F1FC6
:100080001E1F1E1F00000000240027002A00000081
:100090000000250028002B0000000000230026009F
:1000A00029000404040404040404020202020202FB
:1000B000030303030303010204081020408001022C
:1000C00004081020010204081020000000080002AB
:1000D00001000003040700000000000000004729A1
:1000E00011241FBECFEFD8E0DEBFCDBF26E0A6EDC6
:1000F000B2E001C01D92AD3FB207E1F712E0A0E00F
:10010000B1E0E0E5FFE502C005900D92A63DB10724
:10011000D9F710E0C0E7D0E004C02197FE010E94AB
:10012000972BCF36D107C9F70E94DB1E0C94A62F60
:100130000C940000DC015996ED91FC915A97309790
:10014000B9F083899489A589B689428553856485E8
:100150007585841B950BA60BB70B811520E89207BC
:10016000A105B10538F08FEF9FE7A0E0B0E008955A
:1001700080E090E00895CF93DF931F92CDB7DEB774
:100180006983DC01ED91FC910280F381E02D41E077
:1001900050E0BE016F5F7F4F09950F90DF91CF91C7
:1001A0000895089580E090E00895982F80ED890FDC
:1001B0008A3020F081EA890F8C3110F481E00895B3
:1001C0008FEB890F8A31D0F39B32C1F381E09D32EE
:1001D00021F09E3219F080E008950895089581E09D
:1001E0008093E8029091E70289278093E7020895BF
:1001F000FC0184819581009799F0228133814681A9
:1002000057812417350718F0158214820895A90123
:100210004F5F5F4F53834283FC01E20FF31F608304
:100220000895CF93DF93DC01EB01EC81FD818A819E
:100230009B810896E817F90718F480E090E021C048
:100240003897FD83EC833097C1F31296CD91DC9102
:100250001397209751F0CF018C1B9D0B23E09595B0
:1002600087952A95E1F78D8303C01196FC93EE9351
:100270001396FC93EE9312971582148217821682BE
:10028000CF01DF91CF910895FC01818D928D009770
:1002900011F00C9468180895CF93DF93EC01898DC9
:1002A0009A8D009739F481E090E09B838A8380E007
:1002B00090E00BC0FC01138212820E94F01CE98DB9
:1002C000FA8D22813381232B71F7DF91CF9108952D
:1002D000CF93C1E0C093E10282E00E944C16892BCB
:1002E000B1F08091E2029091E302A091E402B0911A
:1002F000E5020196A11DB11D8093E2029093E302F5
:10030000A093E402B093E502C093E00202C0109211
:10031000E002CF9108950F931F93CF93DF931F9225
:10032000CDB7DEB78C01FC01828581111BC08581B0
:10033000882311F0118613C0198241E050E0BE01FC
:100340006F5F7F4FF801828193810E94AE0B21E0A5
:10035000892B09F020E0F80125838981818781E0DC
:10036000F8018287F80181850F90DF91CF911F916D
:100370000F910895DF92EF92FF920F931F93CF9307
:10038000DF93CDB7DEB728970FB6F894DEBF0FBE68
:10039000CDBF8C017B01DC011696ED91FC91179786
:1003A000228133818481958193838283FA83E983D7
:1003B0001C821B823E832D83821B930B98878F8325
:1003C000C8010E948B01D82EF8011286C8010E9434
:1003D0008B01D8011A961C92D81649F1811103C0DD
:1003E00081E090E047C08C35E1F4C8010E948B01A8
:1003F0008823B1F3853719F0EBEBF2E006C084E017
:1004000090E038C0891729F0329690819111FACF87
:1004100006C08181811103C082E090E02BC0F80109
:100420001286682FCE0101960E94F800CFCF60E0BF
:10043000CE0101960E94F8008D819E81892B71F07A
:100440008B819C81E981FA812F813885821B930BF6
:1004500022813381820F931F938382838D819E81BA
:10046000D7018D939C93892B19F483E090E002C00F
:1004700080E090E028960FB6F894DEBF0FBECDBFA7
:10048000DF91CF911F910F91FF90EF90DF90089532
:100490001F93CF93DF93EC01CE010E948B018B3031
:1004A0002CF489300CF58823C1F032C08032E1F0A1
:1004B0008F3219F08D3061F517C01A86CE010E9477
:1004C0008B018A3219F08F32C9F01FC01A8610E0F2
:1004D000CE010E948B01811103C081E090E01AC01F
:1004E0008F3221F4112311F01A86D6CF11E08A320F
:1004F00009F010E01A86ECCF8A3071F21A86CE012C
:100500000E948B018111F8CFE8CF82E090E002C019
:1005100080E090E0DF91CF911F9108958EBD0000A3
:100520000DB407FEFDCF8EB508958FEF0C948E02AB
:100530008CBD9DBD0895FC01DB0112968D919C91AF
:1005400013979383828388E891E091838083149644
:100550008C911497848315968C91159785831696A4
:100560004D915D916D917C9119974683578360877A
:1005700071871A964D915D916D917C911D9742877F
:100580005387648775871E964D915D916D917C911F
:10059000519746875787608B718B52968C915297F3
:1005A000828B53964D915D916D917C915697438BC3
:1005B000548B658B768B57964D915D916D917C91A7
:1005C0005A97478B508F618F728F5B968D919C915C
:1005D0005C97948F838F08954F925F926F927F9272
:1005E000AF92BF92CF92DF92EF92FF920F931F9341
:1005F000CF93DF931F92CDB7DEB7FC012581222375
:1006000009F4C1C0848180FFBEC083899489A58913
:10061000B689428453846484758484159505A6053F
:10062000B70509F4B0C06F015201F1E0BF22D60155
:100630005B968D919C915C97B301A20139E0769510
:100640006795579547953A95D1F7223071F4FC019B
:10065000828D938DA48DB58D8A019B01080F191F82
:100660002A1F3B1FC901B8014AC0DC0114961C9126
:1006700011501423A114B104F9F411111DC045281F
:100680004628472851F4F6018789908DA18DB28DB7
:1006900086839783A087B1870FC0D60116964D91A8
:1006A0005D916D917C91199796012A5F3F4F0E9451
:1006B000BD0F882309F467C0F601238D348D868130
:1006C0009781A085B1850297A109B109AC01BD014F
:1006D000F901058404C0440F551F661F771F0A9453
:1006E000D2F786859785A089B189840F951FA61FAB
:1006F000B71FBC01CD01610F711D811D911DD60178
:1007000014962C9126FF0DC04090040150900501D5
:100710006090060170900701461657066806790634
:1007200099F440E00E94D30E882369F1F501E9575E
:10073000FC4FDE0111969F012F5F3F4F2E173F07A1
:1007400099F081918D93FACFFE0131967F0101E0FE
:1007500010E09501AB01BC0180918705909188055F
:100760000E94F01B882379F0F60182859385A48589
:10077000B5850196A11DB11D82879387A487B58792
:10078000898190E002C08FEF9FEF0F90DF91CF91B2
:100790001F910F91FF90EF90DF90CF90BF90AF909F
:1007A0007F906F905F904F900895FC01818D928DA6
:1007B000009711F00C94EC028FEF9FEF08950F93C8
:1007C0001F93CF93DF93FC01818D928D0097B9F039
:1007D000EF010E94EC028C010F3F8FEF180791F0A0
:1007E000898D9A8DFC0142855385648575854150BC
:1007F0005109610971090E94BD18C80105C080E056
:1008000090E002C08FEF9FEFDF91CF911F910F918A
:1008100008959F92AF92BF92CF92DF92EF92FF9294
:100820000F931F93CF93DF936C015B01FC01108248
:10083000FB01108200E010E0C0E0D0E082E0E82E92
:10084000FF24F39493E0992E86E00E944C168111C8
:1008500025C021968091D702813049F028F082305E
:1008600071F08330A9F01EC0F092D7021BC0C436CD
:10087000D105C1F4F6018083E092D70211C0C83ED1
:10088000F3E0DF0779F4F601F0829092D70208C016
:10089000C83CD10539F4F601F08202C01092D702AB
:1008A000C0E0D0E085E00E944C16811126C00F5FA9
:1008B0001F4F8091D602813049F028F0823071F0CC
:1008C0008330A9F01EC0F092D6021BC00436110579
:1008D000C1F4F5018083E092D60211C0083EF3E036
:1008E0001F0779F4F501F0829092D60208C0083C07
:1008F000110539F4F501F08202C01092D60200E031
:1009000010E0F6018081811102C0209739F4F501D1
:10091000808181110AC00115110539F061E070E094
:1009200080E090E00E9407188FCFDF91CF911F9158
:100930000F91FF90EF90DF90CF90BF90AF909F907E
:1009400008958093E902E1E8F0E0108210928500BA
:10095000109284008091E6028061808381E0809320
:10096000E8028093E7020895FC019081961728F031
:10097000941718F49F5F908301C0608310928100E8
:1009800010928500109284008091E602806180932D
:10099000810081E08093E8028093E7020895FC01E2
:1009A00080819181892B21F460E070E0CB01089572
:1009B00061ED70E080E090E008954F925F926F9259
:1009C0007F928F929F92AF92BF92DF92EF92FF92AF
:1009D0000F931F93CF93DF93CDB7DEB7C654D109E2
:1009E0000FB6F894DEBF0FBECDBF8C017B010E9415
:1009F000480227969FAF8EAF2797CE018B5B9F4F04
:100A00000E94CF04672B09F08CC080FD8AC0C8010A
:100A10000E948B018B3561F5D70114968C91149748
:100A20008078806414968C93149711961C921E9271
:100A300013961C921E921297F8018085882371F1FB
:100A4000C8010E948B018B3509F09CC1D8011A9610
:100A50001C92C8010E9448029A838983CE010196A4
:100A60000E94CF04672B09F0C0C180FDBEC160C0E9
:100A70008B3789F5D70114968C9114978078806212
:100A800014968C93149711961C921E9213961C9296
:100A90001E921297F8018085811102C085E0B8C1CD
:100AA000C8010E948B018B3709F06CC1D8011A96DE
:100AB0001C92C8010E94480225969FAF8EAF2597D1
:100AC000CE018D5B9F4F0E94CF04672B09F076C14A
:100AD00080FD74C198C0C8010E948B01873209F45F
:100AE00074C1823209F471C1C8010E948B01B82E11
:100AF000CE0101964C01D12C8B2D0E94D50088236C
:100B000009F488C1FFE3DF1609F484C1F8011286F5
:100B1000D394D401BD924D01C8010E948B01B82E1F
:100B2000EBCF26968FAD269727969FAD279785C347
:100B3000C8010E948B018D35B1F1D8016D917C9176
:100B4000C7010E941101BC01892B09F451C0F801B1
:100B5000908591509087C8010E94DD049A83898313
:100B6000D80118968C9118978F5F18968C93CE01A8
:100B700001960E94CF04672B09F037C180FD35C173
:100B8000C8010E9448029A838983CE0101960E947F
:100B9000CF04672B09F029C180FD27C1C8010E943D
:100BA0008B018D3539F5F801128631C1C8010E94DB
:100BB0008B018C3209F0E6C0F8011286C8010E9450
:100BC000480225969FAF8EAF2597CE018D5B9F4F34
:100BD0000E94CF04672B09F0F1C080FDEFC0D8015F
:100BE0006D917C91C7010E9411015C01892B89F4F0
:100BF00083E00EC1C8010E948B018C3209F0C2C093
:100C0000F80112869ACFC8010E948B018D3739F7FF
:100C1000CACFC8010E948B01873211F08232A9F439
:100C2000BE016F5B7F4FC8010E94BA0125969FAF3E
:100C30008EAF2597CE018D5B9F4F0E94CF04672B0F
:100C400009F0BCC080FF5BC0B9C0D8011696ED9119
:100C5000FC911797228133818481958193838283CC
:100C6000FA83E9831C821B823E832D83821B930BB4
:100C700098878F83C8010E948B01D82E8823E1F1C9
:100C80008D2D0E94D500882389F1F80112866D2DE3
:100C9000CE0101960E94F800C8010E948B01D82E57
:100CA0000E94D5008111F1CF60E0CE0101960E9433
:100CB000F8008D819E81892B71F0E981FA818B8109
:100CC0009C812F813885821B930B22813381820F77
:100CD000931F938382838D819E8123969FAF8EAFD6
:100CE0002397892B31F483E090E0A0CF82E090E05D
:100CF0009DCF80E090E09ACF81E090E097CF23965F
:100D00002EAD3FAD2397F5018481806884833783BE
:100D10002683C8010E94480225969FAF8EAF259773
:100D2000CE018D5B9F4F0E94CF04672B09F046C018
:100D300080FD44C0C8010E948B018A3319F5D80197
:100D40001A961C921A9718968C911897815018969B
:100D50008C93B501C8010E94DD0425969FAF8EAF2C
:100D60002597F80180858F5F8087CE018D5B9F4F2F
:100D70000E94CF04672B11F580FF06C01FC01E36EE
:100D800009F44BC282E044C0C8010E944802259683
:100D90009FAF8EAF2597CE018D5B9F4F0E94CF04F2
:100DA000672B61F480FD0AC0C8010E948B018D375A
:100DB00009F0FCCED8011A961C9229C024968FAD5A
:100DC000249725969FAD259738C2BE016F5B7F4F54
:100DD000C8010E94BA019A838983CE0101960E94BC
:100DE000CF04672B11F480FF03C089819A8125C24B
:100DF00023962EAD3FAD2397D70114968C9114976F
:100E00008078846014968C9314972D933C9380E0A3
:100E100090E013C2E1E0F0E0EC0FFD1FED0DF11DDD
:100E200010821981112309F465C0CE011D3211F021
:100E30001B3211F4029601C00196FC01819190EDE4
:100E4000980F9A30D8F3811155C0143709F4ECC1CA
:100E50001B3231F01D3231F010E0FE01319605C039
:100E600010E001C011E0FE01329620E030E0A9015F
:100E7000019180ED800F8A30A0F4AAE0B0E00E94DA
:100E8000BA2A202F000F330B205331094901330FA9
:100E9000AA08BB08A5019401260F371F481F591F38
:100EA000E7CF112309F4C2C12115310541055105D0
:100EB000B9F4E0E070E060E090E0D70114968C9126
:100EC00014978078866014968C931497EC931196FF
:100ED0007C93119712966C93129713969C9397CFCD
:100EE000F701848180788760848320833183428303
:100EF00053838DCF66EC72E0CE0101960E94DB2C0D
:100F0000892B09F449C01D3239F01B3251F45E01BE
:100F1000B2E0AB0EB11C08C05E01E2E0AE0EB11C47
:100F200003C0CE0101965C016AEC72E0C5010E942B
:100F3000DB2C892B89F1D5018C91882309F441C1DF
:100F4000FD018D9190ED980F9A30D0F38E3241F4DF
:100F50009D01F9012F5F3F4F808180538A30C8F394
:100F600080818F7D8534A9F481818D3209F463C13C
:100F70008B3209F460C13196808180538A3008F049
:100F800020C19F01F9012F5F3F4F808180538A303C
:100F9000C8F38081811115C11B3251F01D3279F4E3
:100FA0001A81DD24D3945E01B2E0AB0EB11C0BC0FC
:100FB0001A81D12C5E01E2E0AE0EB11C04C0D12C2E
:100FC000CE0101965C01143709F4DFC01F7D1E3489
:100FD00009F4E0C0193409F48AC000E020E030E0F0
:100FE000A901F501D5011D915D0180ED810F8A30C8
:100FF000E8F42C3CBCEC3B07BCE04B075105A4F4E7
:10100000AAE0B0E00E94BA2A212F110F330B20531F
:1010100031092901330F66087708A3019201260FD1
:10102000371F481F591FDDCF0F5FDBCF1E3241F541
:101030005F018FEFA81AB80AF501D5011D915D0176
:1010400080ED810F8A30E0F42C3CBCEC3B07BCE027
:101050004B0751058CF7AAE0B0E00E94BA2A212F75
:10106000110F330B205331092901330F660877081C
:10107000A3019201260F371F481F591F0150DCCFD3
:1010800080818F7D002E000C110B8534F1F581815C
:101090008D3219F43296B1E006C08B3211F03196E0
:1010A00001C03296B0E080E090E06AE0B62EA191F7
:1010B00060ED6A0F6A3018F5B89EB001B99E700DE8
:1010C00011248A2FAA0F990BC097860F971FB8017A
:1010D000680F791F6732710554F3BB2341F0DD209F
:1010E00009F45DC080E090E0A0E0B0E860C0DD20E1
:1010F00009F459C080E090E0A0E8BFEF58C0BB23DE
:1011000031F091958195910902C080E090E0080F3F
:10111000191FCA01B9010E94C12910161106B4F4A1
:10112000B12C00FF0CC024E0B29EF0011124EA5D56
:10113000FE4F20813181428153810E94FC29159507
:101140000795B3940115110561F719C01195019523
:101150001109B12C0115110591F000FF0CC0A4E09C
:10116000BA9EF0011124E25FFE4F2081318142815D
:1011700053810E94FC2915950795B394EBCFDC01B0
:10118000CB01DD20A1F0B05812C080E090E0A0E8D3
:10119000BFE30DC080E090E0A0ECBFE708C080E0B6
:1011A00090E0DC0104C080E090E0A0E8BFE7F70138
:1011B000248120782860248380839183A283B38351
:1011C00026CE1437A1F4D70114968C911497807809
:1011D000856014968C9381E090E0A0E0B0E0F70188
:1011E00080839183A283B38390E0F4E013C016362A
:1011F00009F0C5CDD70114968C911497807885603D
:1012000014968C93F701108211821282138281E06E
:1012100090E0F5E0DF1211C005C081E090E024E02D
:10122000D2120BC080E009C0E1E044CEE22F732F60
:10123000642F952F42CE32969FCECA5BDF4F0FB6FA
:10124000F894DEBF0FBECDBFDF91CF911F910F91FC
:10125000FF90EF90DF90BF90AF909F908F907F9026
:101260006F905F904F900895EF92FF920F931F93AE
:10127000CF93DF9300D000D000D0CDB7DEB77C0194
:101280008B014091E2025091E3026091E40270917F
:10129000E502CE0101960E94200E898190E04496DD
:1012A000982F8827990F2A8140E2249F90011124CA
:1012B0004B81242B822B932BF701918380838D818B
:1012C000F0E28F9F900111249C81892F90E0982F4C
:1012D0008827990F990F990F822B932B2E8130E03D
:1012E00035952795822B932BF80191838083269641
:1012F0000FB6F894DEBF0FBECDBFDF91CF911F9127
:101300000F91FF90EF9008950895CF92DF92EF92A2
:10131000FF920F931F93CF93DF936C017A018B01A0
:10132000C0E0D0E0CE15DF0581F0D8016D918D01D0
:10133000D601ED91FC910190F081E02DC601099557
:10134000892B11F02196EECF7E01C701DF91CF915D
:101350001F910F91FF90EF90DF90CF900895FC01C7
:10136000538D448D252F30E0842F90E0821B930B0A
:10137000541710F0CF96089501970895FC01918DB0
:10138000828D981761F0828DDF01A80FB11D5D96E7
:101390008C91928D9F5F9F73928F90E008958FEF55
:1013A0009FEF0895FC01918D828D981731F0828D09
:1013B000E80FF11D858D90E008958FEF9FEF089560
:1013C000FC01918D228D892F90E0805C9F4F821BC4
:1013D00091098F739927089585EF95E00E94E009A0
:1013E00021E0892B09F420E0822F0895FC01848DEF
:1013F000DF01A80FB11DA35ABF4F2C91848D90E03F
:1014000001968F739927848FA689B7892C93A08919
:10141000B1898C91837080648C93938D848D9813A3
:1014200006C00288F389E02D80818F7D8083089536
:10143000EF92FF920F931F93CF93DF93EC0181E024
:10144000888F9B8D8C8D981305C0E889F9898081E0
:1014500085FD26C0F62E0B8D10E00F5F1F4F0F731A
:101460001127E02E8C8DE8120CC00FB607FCFACFC6
:10147000E889F989808185FFF5CFCE010E94F609C0
:10148000F1CF8B8DFE01E80FF11DE35AFF4FF08283
:101490009FB7F8940B8FEA89FB89808180620AC02C
:1014A0009FB7F894EE89FF896083E889F989808184
:1014B0008370806480839FBF81E090E0DF91CF9153
:1014C0001F910F91FF90EF900895CF93DF93EC0160
:1014D000888D8823C9F0EA89FB89808185FD05C054
:1014E000A889B9898C9186FD0FC00FB607FCF5CF8E
:1014F000808185FFF2CFA889B9898C9185FFEDCFD6
:10150000CE010E94F609E7CFDF91CF91089580E0E8
:1015100090E0892B29F00E94EC0981110C940000C5
:10152000089585ED8093BC008091BC0084FDFCCFC4
:101530001092CF05089540915C03262F30E0240FD0
:10154000311D21323105DCF42091CF052430C9F45E
:10155000FC0180E090E0861758F430915C03219103
:10156000DC01A45CBC4FA30FB11D2C930196F3CFFB
:1015700080915C03680F60935C0380E0089581E0D4
:10158000089582E00895089508950895E091D105A1
:101590008091D005E81730F4F0E0EE52FA4F8081E8
:1015A00090E008958FEF9FEF08959091D10580917D
:1015B000D005981750F4E92FF0E0EE52FA4F208151
:1015C00030E09F5F9093D10502C02FEF3FEFC9013C
:1015D00008958091D00590E02091D105821B91095A
:1015E0000895CF92DF92EF92FF920F931F93CF93C4
:1015F000DF937C01CB018A012091F405222389F03D
:10160000EB016B01C40ED51ECC15DD0569F06991A7
:10161000D701ED91FC910190F081E02DC701099572
:10162000F3CF642F0E949B0AC801DF91CF911F91D5
:101630000F91FF90EF90DF90CF900895CF93DF93BD
:101640001F92CDB7DEB769832091F4052223D1F034
:101650002091F205203240F021E030E0FC0133839C
:10166000228380E090E015C08091F305E82FF0E040
:10167000E757FA4F998190838F5F8093F3058093AA
:10168000F20505C061E0CE0101960E949B0A81E04F
:1016900090E00F90DF91CF9108950E94BE2CCF93E0
:1016A000DF931F92CDB7DEB7698341E050E0BE0102
:1016B0006F5F7F4F0E94F01C0F90DF91CF910895D4
:1016C0001F920F920FB60F9211242F933F934F93B7
:1016D0005F936F937F938F939F93AF93BF93EF939A
:1016E000FF93E0910201F09103010995FF91EF91C1
:1016F000BF91AF919F918F917F916F915F914F912A
:101700003F912F910F900FBE0F901F9018951F9231
:101710000F920FB60F9211242F933F934F935F9325
:101720006F937F938F939F93AF93BF93EF93FF93A9
:10173000E0910001F09101010995FF91EF91BF91B6
:10174000AF919F918F917F916F915F914F913F9159
:101750002F910F900FBE0F901F9018958F929F9210
:10176000AF92BF92CF92DF92EF92FF920F931F93AF
:10177000CF93DF93EC016A017B0100E010E00C15D0
:101780001D0561F10E944118688779878A879B87C8
:10179000E881F9810284F385E02DCE01099597FF58
:1017A00017C00E94411888849984AA84BB84DC01F4
:1017B000CB0188199909AA09BB098C809D80AE804C
:1017C000BF8088159905AA05BB0510F3680106C0FE
:1017D000F70181937F010F5F1F4FD1CFC601DF91CA
:1017E000CF911F910F91FF90EF90DF90CF90BF901E
:1017F000AF909F908F9008956115710579F0FB016E
:1018000001900020E9F73197AF01461B570BDC012F
:10181000ED91FC910280F381E02D099480E090E04D
:1018200008951F920F920FB60F9211242F933F939A
:101830004F935F936F937F938F939F93AF93BF93D8
:10184000EF93FF9385EF95E00E94F609FF91EF91EA
:10185000BF91AF919F918F917F916F915F914F91C8
:101860003F912F910F900FBE0F901F9018951F92D0
:101870000F920FB60F9211242F938F939F93EF9394
:10188000FF93E0910506F09106068081E0910B063A
:10189000F0910C0682FD12C0908180910E068F5F40
:1018A0008F7320910F06821751F0E0910E06F0E041
:1018B000EB50FA4F958F80930E0601C08081FF9107
:1018C000EF919F918F912F910F900FBE0F901F90CE
:1018D00018951F920F920FB60F9211242F933F93DA
:1018E0004F935F936F937F938F939F93AF93BF9328
:1018F000EF93FF93E091D802F091D9020995FF91FF
:10190000EF91BF91AF919F918F917F916F915F9177
:101910004F913F912F910F900FBE0F901F901895F0
:101920001F920F920FB60F9211242F933F934F9354
:101930005F936F937F938F939F93AF93BF93EF9337
:10194000FF938091B900887F803609F49CC068F5C8
:10195000883209F45BC090F4803109F454C038F443
:10196000882309F4F6C0883009F44DC0F6C08831E8
:1019700009F44CC0803209F45DC0EFC0803409F432
:1019800068C048F4803309F455C0883309F0E5C0D5
:101990008093CD05D8C0803509F44FC0883509F44F
:1019A0005DC0883409F0D9C0D6C0883909F4C7C0F1
:1019B000A8F4883709F467C038F4883609F463C09E
:1019C000803709F460C0C9C0883809F4B8C08039CC
:1019D00009F45FC0803809F0C0C05BC0803B09F4E7
:1019E00086C038F4803A09F466C0883A09F47FC0AA
:1019F000B4C0803C09F4A7C0883C09F4A4C0883B6B
:101A000009F48AC0AAC08091CA0510C09091CC0583
:101A10008091CB05981770F5E091CC0581E08E0F91
:101A20008093CC05F0E0E755FA4F80818093BB00AE
:101A300085EC86C08093CD058EC0E091CC0581E019
:101A40008E0F8093CC058091BB00F0E0E755FA4FF4
:101A500080839091CC058091CB056EC0E091CC0540
:101A600081E08E0F8093CC058091BB00F0E0E755BC
:101A7000FA4F80838091CE0581116DC081E0809303
:101A8000C90584EA61C083E08093CF0510927E038C
:101A9000CFCF80917E03803208F051C0E0917E0369
:101AA00081E08E0F80937E038091BB00F0E0E25ACC
:101AB000FC4F8083BDCF85EC8093BC001092CF0596
:101AC00080917E03803230F4E0917E03F0E0E25AB0
:101AD000FC4F108260917E0370E0E091DA02F09199
:101AE000DB028EE593E0099510927E0336C084E018
:101AF0008093CF0510925D0310925C03E091DC02AD
:101B0000F091DD02099580915C03811105C081E0AF
:101B100080935C0310923C03E0915D0381E08E0FA3
:101B200080935D03F0E0E45CFC4F80818093BB0018
:101B300090915D0380915C03981708F479CF85E854
:101B40008093BC000AC085EC8093BC001092CF0546
:101B500004C01092CD050E94910AFF91EF91BF91B0
:101B6000AF919F918F917F916F915F914F913F9135
:101B70002F910F900FBE0F901F901895EF92FF922C
:101B80000F931F93CF93DF93EC0169813881432F2B
:101B900050E08A8190E0E8E7F0E021E0261730F499
:101BA0007491870F911D2F5F3196F8CF633018F035
:101BB000337009F401966DE671E0469F9001479FEE
:101BC000300D569F300D1124215031094D5F5F4F6C
:101BD0005695479556954795240F351F280F391F61
:101BE000A8E1B0E00E94FC2A2B817B018C01E20E6F
:101BF000F11C011D111DA8019701ACE3B0E00E948A
:101C0000BA2A2C817B018C01E20EF11C011D111DF1
:101C1000A80197010E94BA2A2D81DC01CB01820F15
:101C2000911DA11DB11DBC01CD0160587C4B8249A5
:101C3000974CDF91CF911F910F91FF90EF900895F6
:101C40008F929F92AF92BF92CF92DF92EF92FF92CC
:101C5000CF93DF93EC016A017B0180E8C81A83E42B
:101C6000D80A8DE6E80A88E3F80A8CE3882E912CDE
:101C7000A12CB12CC701B601A50194010E94752BBE
:101C80006D83CA01B901A50194010E94752B6C8373
:101C9000C701B60120E13EE040E050E00E94752B14
:101CA000CA01B90128E130E040E050E00E94752B04
:101CB0006B83C701B60120E831E541E050E00E94A6
:101CC000752B18824881542F537081E009F080E011
:101CD00090E0BC0163597E4F2617370738F0281B68
:101CE000390B2D5631404F5F4883ECCF81E089831B
:101CF0008981E82FF0E0E958FF4FE491511103C0CA
:101D0000823009F4EF5FF0E02E173F0720F02E1B22
:101D10003F0B8F5FECCF2F5F2A83DF91CF91FF9036
:101D2000EF90DF90CF90BF90AF909F908F900895ED
:101D3000809137038823A9F1409104015091050156
:101D4000609106017091070127E833E080918705D3
:101D5000909188050E94841C811102C080E0089542
:101D6000409138035091390360913A0370913B03DD
:101D7000411551056105710591F027E833E0809127
:101D80008705909188050E94841C882339F310925E
:101D900038031092390310923A0310923B031092C9
:101DA000370381E008958F929F92AF92BF92EF9296
:101DB000FF920F931F93CF934B015C01C42F80912F
:101DC000040190910501A0910601B09107018815C9
:101DD0009905AA05BB0501F10E94980E811102C068
:101DE00080E020C087E8E82E83E0F82E00E012E0D3
:101DF00020E030E0B501A40180918705909188052D
:101E00000E94F01B882361F38092040190920501E7
:101E1000A0920601B092070180913703C82BC093AE
:101E2000370381E0CF911F910F91FF90EF90BF900A
:101E3000AF909F908F9008954F925F926F927F9294
:101E40008F929F92AF92BF92CF92DF92EF92FF92CA
:101E50000F931F93CF93DF93EC014230510561053F
:101E6000710510F480E078C089859A85AB85BC85C2
:101E70000196A11DB11D84179507A607B70790F31A
:101E8000CB88DC88ED88FE888F89803129F4BB27D8
:101E9000A72F962F852F09C0DB01CA01E7E0B69571
:101EA000A79597958795EA95D1F7480159012A0199
:101EB0003B01C80ED91EEA1EFB1E809104019091C1
:101EC0000501A0910601B0910701C816D906EA06DE
:101ED000FB0681F48F898031A9F4B301A201552753
:101EE00066277727440F551FFA01E957FC4F918267
:101EF000808219C040E0C701B6010E94D30E811153
:101F0000E9CFB0CFB301A2014F77552766277727D6
:101F1000440F551F440F551FFA01E957FC4F8082AB
:101F20009182A282B38280913703816080933703CC
:101F30008A89823080F08D819E81AF81B885C80EFC
:101F4000D91EEA1EFB1EC0923803D0923903E092DC
:101F50003A03F0923B0381E0DF91CF911F910F9103
:101F6000FF90EF90DF90CF90BF90AF909F908F90B9
:101F70007F906F905F904F9008958F929F92AF9255
:101F8000BF92CF92DF92EF92FF920F931F93CF9366
:101F9000DF93FC0181859285A385B4850196A11DFF
:101FA000B11D84179507A607B70710F480E05BC042
:101FB00083889488A588B6888789803129F4BB27CF
:101FC000A72F962F852F09C0DB01CA01C7E0B69560
:101FD000A79597958795CA95D1F7E9016A017B0185
:101FE0008F01BC01CD01680D791D8A1D9B1D80905C
:101FF000040190900501A0900601B09007016815BA
:1020000079058A059B0591F4F80187898031A1F44F
:10201000DD24EE24FF24C601880F991FFC01E95737
:10202000FC4F80819181A0E0B0E018C040E00E94A8
:10203000D30E8111E9CFBACFE894C7F8DD24EE249E
:10204000FF24C601880F991F880F991FFC01E957CB
:10205000FC4F80819181A281B381BF708883998375
:10206000AA83BB8381E0DF91CF911F910F91FF90F5
:10207000EF90DF90CF90BF90AF909F908F9008959A
:102080002F923F924F925F926F927F928F929F9288
:10209000AF92BF92CF92DF92EF92FF920F931F9376
:1020A000CF93DF93CDB7DEB72B970FB6F894DEBF93
:1020B0000FBECDBF7C01FE013196CE010C966F01A3
:1020C00030E23193E817F907E1F7DA0130E087E011
:1020D0009D91992331F19E3231F48A3009F479C10E
:1020E00038E08AE0F5CFE8E6F0E04491442321F0BF
:1020F00031969413FACF6DC1831708F46AC14FED7E
:10210000490F4E3508F065C141E0430FF601E30F7A
:10211000F11D3FE9390F3A3108F490529083342F82
:10212000D7CF8981803209F454C1322E8B01DB0173
:102130005B968D919C915C97F701948F838F169697
:102140001D921D921D921C921997FB0112861386F7
:1021500014861586B12CF80182859385A485B585F2
:10216000438954896589768984179507A607B70737
:1021700008F05BC025E0B695A795979587952A95B9
:10218000D1F7F82FFF70AF2ED80115968C918230C1
:1021900008F41FC1C8010E94EC0297FD1AC1F801A2
:1021A00082859385A485B5854F96A11DB11D828733
:1021B0009387A487B587F0E2AF9EB00111246957D9
:1021C0007C4F6115710509F404C1DB018C918823F2
:1021D00019F0853EC1F4FFC0B1100EC0F701A28A0C
:1021E0008091040190910501A0910601B091070131
:1021F00086879787A08BB18BDB018C91882399F020
:10220000BB24B394A8CF4BE050E0C6010E94C32C7E
:10221000892B09F0A0CF832D8073803309F4D9C0B6
:10222000432D6A2DD2C0BB24B394832D8271823199
:1022300009F0CFC0BB20C9F0F7016685778580899A
:10224000918941E00E94D30E882309F4C2C0D701CE
:1022500052960C91B0E20B9F8001112409571C4F3C
:102260000115110509F078C0B4C0F80185818230EC
:1022700009F4AFC0C8010E945D1A882309F4A9C0FF
:10228000D8015B96ED91FC915C9716968D909D9090
:10229000AD90BC901997B2E08B1A9108A108B108D3
:1022A000058404C0880C991CAA1CBB1C0A94D2F794
:1022B00086859785A089B189880E991EAA1EBB1EA6
:1022C0002480E1E08E1A9108A108B108222009F1CA
:1022D00024013501420C511C611C711C0E94980E96
:1022E000882309F476C0E7E8F3E0119225E0E738A7
:1022F000F207D9F74092040150920501609206015D
:1023000070920701809137038160809337032A948C
:10231000DDCFD8015B96ED91FC915C9780E092E077
:10232000A0E0B0E0058404C0880F991FAA1FBB1F5E
:102330000A94D2F7F8014389548965897689840F14
:10234000951FA61FB71F838B948BA58BB68BD701C8
:1023500052961C9207E813E080E2F80111928A95E8
:10236000E9F78BE0F601D80101900D928A95E1F72B
:10237000E091DE02F091DF02309739F0B801625F40
:102380007F4FC801409609950DC081E298E2D801BF
:1023900051969C938E93509780E098E01F969C9363
:1023A0008E931E97F80180899189938B828B918FF0
:1023B000808F86859785978B868B0E94980E8823C1
:1023C00041F0432DD70152966C91C7010E945419D8
:1023D00005C080E003C0B11013CF00CF2B960FB61D
:1023E000F894DEBF0FBECDBFDF91CF911F910F914B
:1023F000FF90EF90DF90CF90BF90AF909F908F9025
:102400007F906F905F904F903F902F9008958091B4
:10241000EC069091ED068230910538F0880F991FF7
:10242000880F991F05970197F1F70895833081F080
:1024300028F4813099F08230A1F008958730A9F016
:102440008830B9F08430D1F4809180008F7D03C052
:10245000809180008F7780938000089584B58F7776
:1024600002C084B58F7D84BD08958091B0008F77C0
:1024700003C08091B0008F7D8093B00008953FB776
:10248000F8948091830390918403A0918503B09187
:10249000860326B5A89B05C02F3F19F00196A11D04
:1024A000B11D3FBFBA2FA92F982F8827820F911DEA
:1024B000A11DB11DBC01CD0142E0660F771F881F31
:1024C000991F4A95D1F70895EF92FF920F931F93AA
:1024D000CF93DF93EC017B018A011B821A8288EE85
:1024E00093E0A0E0B0E08C839D83AE83BF8382E560
:1024F00091E0998388838DE190E00E949D2B9A8FD3
:10250000898F009779F02DE1F701DC0101900D92A0
:102510002A95E1F74CE050E0B801CE010C960E94FC
:10252000E42C188EDF91CF911F910F91FF90EF90C7
:10253000089591E09093F4058093F5061092F305C9
:102540001092F20508959091CF059111FCCF982F2C
:10255000813208F090E281E08093CF058093CE0530
:102560002FEF2093CD051092CC05290F2093CB059A
:102570008093CA058091CA05806D8093CA058091B9
:10258000C905813061F41092C9058091CA05809314
:10259000BB008091BC0083FDF8CF85EC01C085EEC7
:1025A0008093BC008091CF058130E1F38091CC0510
:1025B000891710F49091CC05E9EAF5E0A2EDB5E0B9
:1025C00080E0891721F021912D938F5FFACF10922F
:1025D000D1058093D00508953091F205313208F08D
:1025E0004BC08091CF058111FCCF9091F50622E080
:1025F0002093CF0521E02093CE052FEF2093CD052A
:102600001092CC053093CB05E9E8F5E0A9EAB5E0F6
:1026100020E0321721F041914D932F5FFACF1092B5
:10262000CA052091CA05990F922B9093CA059091E3
:10263000C905913061F41092C9059091CA05909333
:10264000BB009091BC0093FDF8CF95EC01C095EED6
:102650009093BC009091CF059230E1F39091CD051D
:102660009F3F79F08091CD05803241F08091CD057A
:10267000803331F084E005C081E003C082E001C016
:1026800083E01092F3051092F2051092F40508957C
:10269000682F82E996E00C941E0BCF93DF93EC0138
:1026A000898D9A8D009741F00E94511A898D9A8DDB
:1026B0000E94352C1A8E198EDF91CF9108954F927A
:1026C0005F926F927F92AF92BF92CF92DF92EF9222
:1026D000FF920F931F93CF93DF9300D000D0CDB71D
:1026E000DEB78C0149835A836B837C835901C12CEB
:1026F000D12C7601412C82E0582E612C712C49811D
:102700005A816B817C819E012F5F3F4FC8010E94DF
:10271000BD0F882351F1D301C201F801058404C023
:10272000880F991FAA1FBB1F0A94D2F7C80ED91E83
:10273000EA1EFB1E49815A816B817C818789803129
:1027400029F088EF9FEFAFEFBFE004C088EF9FEF65
:10275000A0E0B0E0481759076A077B0780F2F5014F
:10276000C082D182E282F38281E00F900F900F90BD
:102770000F90DF91CF911F910F91FF90EF90DF901D
:10278000CF90BF90AF907F906F905F904F900895E3
:10279000CF93DF93FC012581222311F080E049C013
:1027A000EC018091C3068031C1F482E08583178AF1
:1027B000108E118E128E8091C4069091C506A0E0F5
:1027C000B0E025E0880F991FAA1FBB1F2A95D1F7FB
:1027D000838B948BA58BB68B19C08032F9F683E07E
:1027E00085834091C6065091C7066091C8067091D6
:1027F000C906478B508F618F728F9F012D5E3F4FAF
:102800008CEA96E00E945F13882341F28CEA96E0FE
:102810009C8F8B8F81E08C831E821F821886198685
:102820001A861B861C861D861E861F86188A198A94
:102830001A8ADF91CF9108952F923F924F925F9223
:102840006F927F928F929F92AF92BF92CF92DF92C0
:10285000EF92FF920F931F93CF93DF93CDB7DEB725
:10286000C756D1090FB6F894DEBF0FBECDBF6C01BD
:102870005B01A6964FAFA69719A218A288E891E02F
:102880009F8F8E8F1BA21C821B829A8389831E823C
:102890004E018EE1880E911CC4010E94C81375017F
:1028A0008E010F5F1F4F240118016FE270E0C70116
:1028B0000E94D02C009709F442C0F70120812F32EA
:1028C00021F4FFEFEF1AFF0AF0CF8E198D3008F0D8
:1028D0008CE0682E712CA301B701CE01885A9F4F5E
:1028E0000E94E42CE8E5F0E0EC0FFD1FE60DF71D7B
:1028F0001082C8010E94511AF8018581882351F085
:102900001EAE1DAE88E891E09CAF8BAF21961FAE46
:10291000219721C021E0AE01485A5F4FB201C801A2
:102920000E944010882361F3E60CF71CC2010E944C
:10293000511A942D852D2801092F182FB6CFC701C4
:102940008A199B09A8969FAF8EAFA897B201CE01B6
:10295000CB960E949B02A896EEADFFADA897AE0E57
:10296000BF1EF5018081811109C0BE01655C7F4FEA
:10297000C1010E949B0243ED52E041C019A218A27E
:1029800088E891E09F8F8E8F1BA221968FAD2197B3
:10299000811113C0F6011382128288EE93E0A0E049
:1029A000B0E084839583A683B78382E591E0918329
:1029B0008083128E118E148626C0A6962FADA69700
:1029C000A501BE01655C7F4FC4010E9440108823B1
:1029D00009F3CE01CB960E94511AA6968FADA69709
:1029E0008670863039F449A95AA96BA97CA9C4011B
:1029F0000E94BD18B401C1010E949B02A501B10152
:102A0000C6010E946412C601C959DF4F0FB6F8947F
:102A1000DEBF0FBECDBFDF91CF911F910F91FF9011
:102A2000EF90DF90CF90BF90AF909F908F907F906E
:102A30006F905F904F903F902F9008958F929F924C
:102A4000AF92BF92CF92DF92EF92FF92CF93DF933C
:102A5000C82F80EA96E09093880580938705CC2361
:102A600069F1C53010F080E00CC140E060E070E03A
:102A7000CB010E94D30E8823B1F320E1C29FC00195
:102A8000112489589C4FFC01E254FE4F20812F777E
:102A900051F73C96408151816281738144365105E2
:102AA0006105710500F33497C080D180E280F38026
:102AB000C114D104E104F10421F4D5CFC12CD12CEF
:102AC000760140E0C701B6010E94D30E882359F277
:102AD00080919203909193038115924021F6A091E9
:102AE0009703AA2309F4BFCF6091950370919603D1
:102AF0006115710509F4B7CF20919403222309F4DD
:102B0000B2CFA093BE062093B00680E030E041E053
:102B100050E0C82FFA01082E02C0EE0FFF1F0A94E2
:102B2000E2F72E173F0739F08F5FC83091F789E041
:102B30008093B90698CF8093B90620919D03309178
:102B40009E032115310519F040E050E008C02091A6
:102B5000AB033091AC034091AD035091AE03209391
:102B6000B1063093B2064093B3065093B4064601C3
:102B70005701860E971EA11CB11C8092BF06909231
:102B8000C006A092C106B092C206E0919803F091EF
:102B90009903F093C506E093C406B0E00E94BA2AF8
:102BA000860E971EA81EB91E8092C6069092C70672
:102BB000A092C806B092C90685E0EE0FFF1F8A9565
:102BC000E1F7E150FE4FEF2FFF27E6958E0E9F1E97
:102BD000A11CB11C8092BA069092BB06A092BC06C2
:102BE000B092BD0620919A0330919B0321153105C7
:102BF00021F0A90160E070E008C04091A703509166
:102C0000A8036091A9037091AA03D701C60188198E
:102C10009909AA09BB09840F951FA61FB71F04C0F5
:102C2000B695A79597958795CA95D2F78093B506DF
:102C30009093B606A093B706B093B806853F2FE0F1
:102C40009207A105B10510F48CE018C0853F9F4F95
:102C5000A105B10510F480E111C08091B3039091FA
:102C6000B403A091B503B091B6038093C6069093C8
:102C7000C706A093C806B093C90680E28093C30636
:102C800081E0DF91CF91FF90EF90DF90CF90BF90E8
:102C9000AF909F908F900895CF93DF93282F30E0CF
:102CA000F901E653FF4F8491F901EA54FF4FD491A3
:102CB000F901EE55FF4FC491CC2391F081110E9490
:102CC0001612EC2FF0E0EE0FFF1FE856FF4FA59114
:102CD000B491EC91ED2381E090E021F480E002C01A
:102CE00080E090E0DF91CF9108951F93CF93DF9321
:102CF000282F30E0F901E653FF4F8491F901EA549F
:102D0000FF4FD491F901EE55FF4FC491CC23C1F090
:102D1000162F81110E941612EC2FF0E0EE0FFF1F0C
:102D2000E257FF4FA591B4919FB7F894111104C0D9
:102D30008C91D095D82302C0EC91DE2BDC939FBF01
:102D4000DF91CF911F910895CF93DF9390E0FC0125
:102D5000EA54FF4F2491FC01EE55FF4F84918823E4
:102D600061F190E0880F991FFC01EC57FF4FC5916E
:102D7000D491FC01E257FF4FA591B491611109C0B4
:102D80009FB7F8948881209582238883EC912E2325
:102D90000BC0623061F49FB7F8948881322F309570
:102DA00083238883EC912E2B2C939FBF06C08FB773
:102DB000F894E8812E2B28838FBFDF91CF9108955F
:102DC000CF93DF93C9EED6E061E089810E94A4161B
:102DD0000E94071260E088810E94A4160E940712D8
:102DE00060E089810E94A416DF91CF910C940712B4
:102DF000CF93DF93D82FC8E061E08091E9060E946D
:102E0000A4160E940712D0FF02C060E001C061E07A
:102E10008091EA060E94A4160E94071260E0809149
:102E2000E9060E94A4160E940712D695C15021F708
:102E300061E08091E9060E94A41660E08091EA06B4
:102E40000E94A4160E94071260E08091E9060E9489
:102E5000A4160E9407128091EA060E944C16C82F01
:102E6000811105C061E08091EA060E94A4160E94CB
:102E7000071261E08091E9060E94A4160E940712E1
:102E800081E0C11101C080E0DF91CF91089561E040
:102E90008091EA060E94A4160C940712FF920F93E9
:102EA0001F93CF93DF93F82E092F162FC42F0E9464
:102EB000471780E40E94F8160E94E0160E94471708
:102EC0008C2F837080540E94F816CF2DD02FCE0106
:102ED000810F911D8C01C017D10721F089910E94AB
:102EE000F816F9CF0E94E0160E9447178091EB0672
:102EF0008F7080580E94F816DF91CF911F910F912B
:102F0000FF900C94E0168F929F92AF92BF92CF9257
:102F1000DF92EF92FF920F931F93CF93DF9300D036
:102F200000D0CDB7DEB7D62EC42EBC0197FF03C0AC
:102F3000719561957109FB01392F331F3327331FB9
:102F40008E010F5F1F4F5801AC0CB11C78018AE055
:102F5000882E912C40E40A151B05D1F0CF01B40155
:102F60000E944D2BDC01BB27A25CBE4F9C91D5017A
:102F70009E935D01811106C0309721F4332311F037
:102F80004C9330E0CF01B4010E944D2BFB01E3CF05
:102F9000D11016C0422F6C2DC8010E944E170F9001
:102FA0000F900F900F90DF91CF911F910F91FF9095
:102FB000EF90DF90CF90BF90AF909F908F9008954B
:102FC000AE014B5F5F4F8D2D8078F7019081892B8B
:102FD000D7018D937D01DD0C4A175B07A1F7DACF8E
:102FE000CF93DF9300D000D0CDB7DEB719821A821D
:102FF0001B821C8240E064E0CE0101960E944E17C5
:103000000F900F900F900F90DF91CF9108958F92B6
:103010009F92AF92BF92CF92DF92EF92FF926B019D
:103020007C010E943F124B015C01C114D104E104F8
:10303000F104F1F00E943F12DC01CB0188199909DB
:10304000AA09BB09883E9340A105B10570F321E0B0
:10305000C21AD108E108F10888EE880E83E0981EB4
:10306000A11CB11CC114D104E104F10419F7DDCF96
:10307000FF90EF90DF90CF90BF90AF909F908F9098
:1030800008952FB7F89460917F0370918003809129
:103090008103909182032FBF08950F931F93CF93C5
:1030A000DF93EB010E9441188B010E9495028F3F34
:1030B00049F00E944118601B710B6C177D07A8F343
:1030C00080E001C081E0DF91CF911F910F910895C1
:1030D0000F931F93CF93DF93FC012581222309F4E3
:1030E00046C0248127FF3DC08C0166857785808995
:1030F000918941E00E94D30E8823C9F1F801C28969
:10310000F0E2CF9FE0011124C957DC4F209779F1FD
:10311000F8018581823040F483899489A589B68934
:103120008C8F9D8FAE8FBF8FF8018789908DA18D79
:10313000B28D9B8F8A8FBD8BAC8BE091DE02F091BC
:10314000DF02309751F0BE016A5E7F4FCE01489694
:103150000995888D998D9B8B8A8BF80194819F7737
:103160009483DF91CF911F910F910C94980E80E082
:10317000DF91CF911F910F9108958F929F92AF92FF
:10318000BF92CF92DF92EF92FF920F931F93CF9354
:10319000DF93EC018D81811102C080E078C00B8942
:1031A0001C892D893E890417150726073707A8F3C0
:1031B0006A017B01823029F4CA86DB86EC86FD86B3
:1031C0000DC0C114D104E104F10451F41E821F8228
:1031D000188619861A861B861C861D8681E057C0B4
:1031E0008A849B84AC84BD84EB8DFC8D258530E086
:1031F000275F3F4FB501A401415051096109710991
:10320000022E04C076956795579547950A94D2F794
:10321000D701C6010197A109B10904C0B695A795C8
:10322000979587952A95D2F784179507A607B7072C
:1032300020F089288A288B2871F44F89588D698D50
:103240007A8D4E835F83688779874C015D018E019B
:103250000A5F1F4F16C0841B950BA60BB70BF5CF4B
:103260004E815F816885798598018B8D9C8D0E9448
:10327000BD0F91E0891A9108A108B108882309F4CB
:103280008CCF81149104A104B10451F795CFDF9143
:10329000CF911F910F91FF90EF90DF90CF90BF9053
:1032A000AF909F908F9008958F929F92AF92BF9210
:1032B000CF92DF92EF92FF920F931F93CF93DF9302
:1032C00000D000D0CDB7DEB77C0180E2689FF0016E
:1032D0001124E957FC4F9385917121F0842F82745A
:1032E00009F08FC0142FD70152966C9352974091DA
:1032F00004015091050160910601709107011E962D
:103300004D935D936D937C9351974489558960E00B
:1033100070E0BA0155274427828D938DA0E0B0E07C
:10332000482B592B6A2B7B2BD70157964D935D93D6
:103330006D937C935A978385887159F4848D958D0C
:10334000A68DB78DF701838B948BA58BB68B81E00F
:1033500012C0803109F055C097012D5E3F4FD70153
:103360005B968D919C915C970E945F13882309F472
:1033700048C084E0F7018583812F8F70D7011496B0
:103380008C931497F70116821782108611861A966D
:103390001D921D921D921C921D9716FF34C015960A
:1033A0008C91813071F511FF2CC0F701438954894C
:1033B00065897689452B462B472B09F461C040E08F
:1033C00050E0BA01C7010E94BD188823D1F0F7016F
:1033D0008788908CA18CB28CC38CD48C82E090E0D6
:1033E000A0E0B0E0F60180839183A283B3839E01C5
:1033F0002F5F3F4FB501A401C6010E94BD0F81118F
:1034000004C080E03DC081E03BC000E010E09801D6
:10341000B501A401C6010E941C0F882391F3898085
:103420009A80AB80BC80D60157968C91803129F070
:1034300088EF9FEFAFEFBFE004C088EF9FEFA0E001
:10344000B0E088169906AA06BB0688F2D7015796FF
:103450001D921D921D921C925A97F701138A148A8D
:10346000158A168A848180688483C7010E9468183F
:10347000882339F240E050E0BA01C7010E94BD182C
:103480000F900F900F900F90DF91CF911F910F91A0
:10349000FF90EF90DF90CF90BF90AF909F908F9074
:1034A0000895CF93DF93EC010E946818882311F0F0
:1034B0001D8281E0DF91CF9108953F924F925F92FC
:1034C0006F927F928F929F92AF92BF92CF92DF9234
:1034D000EF92FF920F931F93CF93DF93CDB7DEB799
:1034E0002C970FB6F894DEBF0FBECDBF5C01DC0198
:1034F0005B968D909C905C971696CD90DD90ED90AC
:10350000FC901997C114D104E104F10439F0BFEF24
:10351000CB1ADB0AEB0AFB0A312C07C0F401C0808E
:10352000D180E280F38033243394F4018185928545
:10353000A385B4859C01AD012F5F3F4F4F4F5F4F77
:1035400029873A874B875C87260137011D821E82B7
:103550001F821886F40181859285A385B4852D810B
:103560003E814F815885281739074A075B0708F0C5
:1035700063C089859A85AB85BC858C159D05AE0594
:10358000BF0550F482E0C82ED12CE12CF12C92E042
:10359000492E512C612C712C9E012F5F3F4FB7019A
:1035A000A601C4010E94BD0F882309F445C089818A
:1035B0009A81AB81BC81892B8A2B8B2B41F0260110
:1035C00037019FEF491A590A690A790A05C0C414DC
:1035D000D504E604F70491F02D813E814F81588592
:1035E0002F5F3F4F4F4F5F4F2D833E834F83588751
:1035F0003FEFC31AD30AE30AF30AACCF0FEF1FEF72
:103600002FEF3FE0B301A201C4010E941C0F8823E9
:1036100099F0D50116964D915D916D917C91199718
:10362000411551056105710549F093018201C401FD
:103630000E941C0F811102C080E02AC0D50116969D
:103640004D925D926D927C921997332051F0D30187
:10365000C2010196A11DB11DF40180839183A28353
:10366000B383F5018789908DA18DB28D892B8A2B2B
:103670008B2B69F4D50157964D925D926D927C9299
:103680005A9714968C911497806814968C9381E0C5
:103690002C960FB6F894DEBF0FBECDBFDF91CF9151
:1036A0001F910F91FF90EF90DF90CF90BF90AF9060
:1036B0009F908F907F906F905F904F903F90089574
:1036C0008FB7F8948091F6068FBF0895CF93DF935C
:1036D000EC018091F706811109C081E08093F70623
:1036E00080919E0690919F060E94980260E08C81D6
:1036F000DF91CF910C94751661E0FC0184810E94EA
:1037000075168091F70681111092F7060895CF93F0
:10371000DF93EC018E81882389F08F8198859C014D
:103720002F5F3F4F38872F838230924018F40E94DA
:103730009502F3CFCE010E947C1B1E82DF91CF91B8
:1037400008958F929F92AF92BF92FF920F931F9313
:10375000CF93DF93EC01F62E49015A010E94871B9B
:10376000CE010E94661B6CE271E0CE010E944D18F2
:103770008F2D80640E948E0208E110E0D501C40103
:10378000002E04C0B695A795979587950A94D2F711
:103790000E948E0208501109083F8FEF180771F739
:1037A000FF2029F088E0F81204C087E803C085E90B
:1037B00001C08FEF0E948E0210E00E9495028A875E
:1037C00087FF04C01F3F11F01F5FF7CFDF91CF913C
:1037D0001F910F91FF90BF90AF909F908F90089591
:1037E000AF92BF92CF92DF92EF92FF920F931F930F
:1037F000CF93DF93EC016901C801820F931F8130E1
:10380000924008F070C08E81882371F08881998180
:10381000AA81BB8184179507A607B70729F48F8172
:103820009885C816D906B0F5488359836A837B8387
:103830008B85833039F089E0440F551F661F771F51
:103840008A95D1F79A01AB0161E1CE010E94A11BDB
:10385000882319F083E08D8346C00E9441185B01E4
:103860000E9495028A878F3F49F40E9441186A1985
:103870007B096D327140A0F38FE003C08E3F31F0C1
:103880008DE08D83CE010E947C1B2DC018861F8287
:1038900081E08E838F8198858C159D0540F40E9470
:1038A00095028F819885019698878F83F3CF670162
:1038B000E00EF11EEC14FD0431F00E949502F601B9
:1038C00081936F01F7CF8F819885080F191F188793
:1038D0000F838985882319F00115124048F0CE0125
:1038E0000E94871B05C0CE010E947C1B80E001C0A6
:1038F00081E0DF91CF911F910F91FF90EF90DF90CA
:10390000CF90BF90AF900895EF92FF920F931F93C7
:10391000CF93DF93EC0179014115510561057105E4
:1039200011F482E13CC08B85833039F089E0440F8B
:10393000551F661F771F8A95D1F79A01AB0168E181
:10394000CE010E94A11B882311F084E028C08EEFD5
:103950000E948E0287018EEFF81AF80181918F0183
:103960000E948E02E016F106C1F78FEF0E948E02D0
:103970008FEF0E948E020E9495028A878F71853098
:1039800031F081E18D83CE010E947C1B09C068E586
:1039900072E0CE010E944D18811107C085E18D8330
:1039A000CE010E947C1B80E014C020E030E0A90121
:1039B0006DE0CE010E94A11B811109C00E949502F9
:1039C000811105C0CE010E947C1B81E002C084E110
:1039D000E6CFDF91CF911F910F91FF90EF90089567
:1039E0002F923F924F925F926F927F928F929F920F
:1039F000AF92BF92CF92DF92EF92FF920F931F93FD
:103A0000CF93DF9300D000D0CDB7DEB78C016B0130
:103A10001A01DC0115968C9115978130C9F4149622
:103A20008C9181FF15C082FF1DC0F8014389548924
:103A30006589768982859385A485B58584179507E0
:103A4000A607B70779F0C8010E94BD1881110AC006
:103A500081E090E0D80113969C938E93129780E0BA
:103A600090E048C1410183C05B968D919C915C9729
:103A7000FC0174802FEF270D2A013B0139E0769479
:103A80006794579447943A95D1F7722E74207A012F
:103A9000F1E0FF22772009F476C080E092E08E19F1
:103AA0009F0954018815990508F45C01D8015B96BB
:103AB0002D913C915C9716968D919D910D90BC91A6
:103AC000A02D0297A109B109F901058404C0880F4E
:103AD000991FAA1FBB1F0A94D2F746855785608994
:103AE0007189840F951FA61FB71F9C01AD01270D7B
:103AF000311D411D511D29013A01A11432E0B306C7
:103B000009F088C08091040190910501A0910601FF
:103B1000B0910701481659066A067B0659F48FEFE3
:103B20009FEFDC018093040190930501A0930601AF
:103B3000B09307019601B301A2018091870590918E
:103B400088050E94841C882309F482CF9EEFD91A2D
:103B50008A189B08F80182859385A485B5858A0D0E
:103B60009B1DA11DB11D82879387A487B587D801AE
:103B70001A964D915D916D917C911D9781149104E0
:103B800009F072CF87C0E114F10409F086CF1696D0
:103B90004D915D916D917C9119974115510561058C
:103BA000710559F457968D919D910D90BC91A02D62
:103BB0000097A105B10541F521C09E012F5F3F4F40
:103BC0000E94BD0F882309F44BCF89819A81AB8174
:103BD000BC81F801238D348DF9012789203129F02A
:103BE00048EF5FEF6FEF7FE004C048EF5FEF60E00A
:103BF00070E084179507A607B70730F0C8010E9448
:103C00005D1A81114ACF24CFF80186839783A0875C
:103C1000B18743CFE114F10429F5D8011A964D91EB
:103C20005D916D917C911D9753968D919D910D9015
:103C3000BC91A02D481759076A077B0798F00E948E
:103C4000980E882309F404CF409204015092050194
:103C50006092060170920701809137038160809322
:103C6000370308C041E0C301B2010E94D30E88238C
:103C700009F4EECED601F701E957FC4F9F012A0D5A
:103C80003B1D2E173F0719F08D918193FACFCA0C77
:103C9000DB1C5ECFD8015396CD90DD90ED90FC906B
:103CA000569714968C91C416D506E606F70640F48E
:103CB000F801438B548B658B768B806884830DC0B1
:103CC0002091DE023091DF02232B39F021143104E0
:103CD00021F08068D80114968C93F801848183FDCB
:103CE00002C0C10107C0C8010E946818882309F4F6
:103CF000AFCEF7CF0F900F900F900F90DF91CF9135
:103D00001F910F91FF90EF90DF90CF90BF90AF90F9
:103D10009F908F907F906F905F904F903F902F90EB
:103D200008951F920F920FB60F9211242F933F9375
:103D30008F939F93AF93BF9380917F039091800364
:103D4000A0918103B09182033091F80623E0230F04
:103D50002D3720F40196A11DB11D05C026E8230FC3
:103D60000296A11DB11D2093F80680937F039093C6
:103D70008003A0938103B093820380918303909189
:103D80008403A0918503B09186030196A11DB11D06
:103D90008093830390938403A0938503B093860359
:103DA000BF91AF919F918F913F912F910F900FBE37
:103DB0000F901F901895CF93DF93CDB7DEB7C05704
:103DC000D1090FB6F894DEBF0FBECDBF789484B58D
:103DD000826084BD84B5816084BD85B5826085BD07
:103DE00085B5816085BD80916E00816080936E0095
:103DF0001092810080918100826080938100809187
:103E00008100816080938100809180008160809337
:103E100080008091B10084608093B1008091B000F7
:103E200081608093B00080917A00846080937A00F2
:103E300080917A00826080937A0080917A0081601C
:103E400080937A0080917A00806880937A00109243
:103E5000C10010922E0310922D0310923003109285
:103E60002F031092310361E087E00E94A41660E006
:103E700087E00E94751661E088E00E94A41660E069
:103E800088E00E94751610922B0362E086E00E9483
:103E9000A41662E085E00E94A4161092D702109248
:103EA000D60260ED77E080E090E00E940718E09194
:103EB0000506F091060682E08083E0910106F0910C
:103EC00002061082E0910306F091040680E18083EF
:103ED00010920D06E0910906F0910A0686E08083B3
:103EE000E0910706F0910806808180618083E0916F
:103EF0000706F0910806808188608083E0910706BC
:103F0000F0910806808180688083E0910706F09137
:103F1000080680818F7D808384E690E0A0E0B0E099
:103F20008093F9059093FA05A093FB05B093FC05E7
:103F30008EE991E09F938F9383EA91E09F938F9313
:103F40008BEE92E09F938F930E94F32C6BEE72E0C6
:103F500085EF95E00E94FC0B8FE08093EB060E94BA
:103F6000F01781E08093E1028093E00284E399E01E
:103F70009093DF028093DE020F900F900F900F90CE
:103F80000F900F908091CF06882321F08AEC96E065
:103F90000E94511A1092AB061092A9061092A60622
:103FA0001092A5068AE08093A4060E9441186B0136
:103FB0007C0161E08091A4060E94A41661E08091DA
:103FC000A4060E9475161FB7F8948091EA02811129
:103FD00027C0ECEAF0E08491E0ECF0E09491E82F67
:103FE000F0E0EE0FFF1FEC57FF4FA591B491EC915D
:103FF000E92321F461E08AE00E94751661E08AE01D
:104000000E94A4168CB580618CBD8CB580648CBD7B
:1040100061E08DE00E94A41661E08BE00E94A4168E
:104020008091EA028F5F8093EA021FBF82E580934E
:104030009E0610929F0680919E0690919F060E9478
:1040400098021AE08FEF0E948E021150D9F780EA91
:1040500096E00E94661B20E030E0A90160E080EA63
:1040600096E00E94A11B182F8093AA06813049F088
:104070000E9441186C197D09613D774060F381E031
:1040800054C02AEA31E040E050E068E080EA96E07F
:104090000E94A11B82FF03C01093AB060EC014E068
:1040A0000E9495028093AA061150D1F78A3A11F026
:1040B00082E03BC082E08093AB068091AB06823009
:1040C00031F4812C912CA12CA0E4BA2E03C0812CB8
:1040D000912C540120E030E0A90167E380EA96E0EA
:1040E0000E94A11BA501940169E280EA96E00E946A
:1040F000A11B8093AA06882349F00E9441186C19DD
:104100007D09613D774030F388E00FC08091AB06B8
:10411000823001F520E030E0A9016AE380EA96E010
:104120000E94A11B882341F086E08093A50680EAC7
:1041300096E00E947C1B28C00E949502807C803CF7
:1041400019F483E08093AB060E9495020E949502C9
:104150000E94950280EA96E00E947C1B80E5809395
:104160009E0610929F0681E00E941E15882339F05A
:104170008AEC96E00E94C813882331F01AC080E0D0
:104180000E941E158111F4CF61E087E00E94751630
:1041900068EC70E080E090E00E94071860E087E043
:1041A0000E94751668EC70E080E090E00E940718AD
:1041B000EBCF1092E90281E08093E8028093E7025E
:1041C00090E1909381001092800093E09093E6023A
:1041D00022E13AE7309387002093860093E19093A1
:1041E00081002FEE30E03093D9022093D8028093E3
:1041F0006F001092810010928500109284009091BF
:10420000E6029061909381001092D1051092D00542
:104210001092F3051092F2051092CF058093CE050F
:104220001092C90561E082E10E94751661E083E1A8
:104230000E9475168091B9008E7F8093B90080919D
:10424000B9008D7F8093B90088E48093B80085E43D
:104250008093BC0083EC9AE09093DD028093DC02B3
:1042600084EC9AE09093DB028093DA028FE498E189
:10427000A9E4BCE58093E2029093E302A093E402F8
:10428000B093E50288E60E94991280E090E00E94D7
:1042900048130E94EC1287E090E00E94A31282E98A
:1042A00096E00E94D50A8F77982F92959F701AEF0B
:1042B000082F919F000D112482E996E00E94D50AF3
:1042C0009C01332754E0359527955A95E1F7F82E50
:1042D000129FF00C112482E996E00E94D50A9C01FD
:1042E000332764E0359527956A95E1F7E82E129F0C
:1042F000E00C112482E996E00E94D50A82E996E05A
:104300000E94D50A9C01332774E0359527957A954C
:10431000E1F7D82E129FD00C112482E996E00E947A
:10432000D50A9C013327E4E035952795EA95E1F716
:10433000C82E129FC00C112482E996E00E94D50A73
:104340009C013327F4E035952795FA95E1F7129F04
:10435000800D11248983CA82DB82EC82FD820E8368
:104360008E010F5F1F4FC8010E94BE0D6093E202D5
:104370007093E3028093E4029093E50288E60E9442
:1043800099128EE090E00E9448130E94EC1281E0A6
:1043900090E00E94A31282E996E00E94D50AF82ECE
:1043A00088E60E9499128EE090E00E9448136F2DDB
:1043B000637282E996E00E941E0B0E94EC1262E09A
:1043C00080E00E94A41688E691E09093010180931A
:1043D0000001809169008C7F816080936900E89A78
:1043E00041E06DEB71E0C8010E941C1480E490E094
:1043F0000E949D2B009721F09C01205C3F4F02C042
:1044000020E030E09F8F8E8F3DA32CA34AA54078FB
:104410004AA799A388A33BA32AA35E018EE1A80E15
:10442000B11CBCAEABAE1EAF0DAF1FAE21961FAE22
:1044300021972396BFAEAEAE23978AE024968FAF26
:10444000249726961FAE2697BE016A5D7F4FCE0148
:10445000CB960E94DD049CAF8BAFC8010E944D1328
:10446000CE01CB960E94CF04672B31F47C01E1E0B2
:10447000EE22FF2480FFC7C467E772E085EF95E076
:104480000E94FC0B67EE71E085EF95E00E94FC0B4B
:1044900089E48093320380ED97E090933603809314
:1044A000350310923403109233038E8D9F8D0E943A
:1044B000352C62ED71E085EF95E00E94FC0B67EE14
:1044C00071E085EF95E00E94FC0BE090EE063091E4
:1044D000EF06A9963FAFA9978091F006A8968FAFF7
:1044E000A897D090F106A796DFAEA7979091F20615
:1044F000A6969FAFA6972091E902222309F440C215
:10450000233009F49DC030F4213059F0223009F4F1
:104510005BC033C2243009F4CAC0253009F409C194
:104520002CC2F12C90E3E91A98EFF90A8091E80285
:10453000882379F08091E702882339F020E044E075
:1045400060E0C7010E94831702C00E94F01710921A
:10455000E802BE0167597F4FCE0186599F4F0E94E6
:104560000904AB969FADAB97AA968FADAA97911110
:1045700027C0882309F444C4C701805D974083366F
:10458000910520F497012F5F3F4F02C020ED37E0E7
:104590001092810010928500109284008091E602B2
:1045A00080618093810081E08093E8028093E7023C
:1045B0007901E0EDEE1AE7E0FE0AE092EE0637C080
:1045C00081111EC482E039C08091E802882381F005
:1045D0008091E702882341F020E042E060E0832FF1
:1045E00090E00E94831702C00E94F0171092E80228
:1045F000BE0167597F4FCE0186599F4F0E94090423
:10460000AB969FADAB97AA968FADAA97911112C0AA
:10461000882309F4F5C34CE061E0CE0188599F4F2F
:104620000E94B404A9968FADA9978093EF061092CB
:10463000F306E6C38111E4C383E00E94A104E0C352
:104640009091E802992379F09091E702992339F04B
:1046500022E042E060E090E00E94831702C00E94E6
:10466000F0171092E802BE0167597F4FCE018659BC
:104670009F4F0E940904AB969FADAB97AA968FAD52
:10468000AA97911110C0882309F4BAC34FE161E0E1
:10469000CE0189599F4F0E94B404A8968FADA89768
:1046A0008093F006C4CF8111ABC384E0C6CF809164
:1046B000E8028823D1F08091E702E92EF12C8823CB
:1046C00051F020E044E060EEC701F4E6DF9E800D8B
:1046D000911D112406C00E94F01722E042E060EE16
:1046E000C7010E9483171092E802BE0167597F4FED
:1046F000CE0186599F4F0E940904AB969FADAB97A0
:10470000AA968FADAA97911110C0882309F478C397
:1047100047E160E0CE018A599F4F0E94B404A796FA
:104720008FADA7978093F10682CF811169C385E091
:1047300084CF8091E8028823D1F08091E70288231A
:1047400059F0892F90E020E044E060EE34E6D39EFB
:10475000800D911D112407C00E94F01720E042E057
:1047600060EE8D2D90E00E9483171092E802BE014A
:1047700067597F4FCE0186599F4F0E940904AB961F
:104780009FADAB97AA968FADAA97911110C08823C1
:1047900009F436C34BE360E0CE018B599F4F0E9472
:1047A000B404A6968FADA6978093F20640CF8111F0
:1047B00027C3E090EE0688E60E94991286E090E01A
:1047C0000E9448133AE0F32E8E2D6F2D0E94412B4C
:1047D000692FE0E18E9F600D112482E996E00E942E
:1047E0001E0B0E94EC12E090EF0688E60E949912E0
:1047F00085E090E00E9448138E2D6F2D0E94412B82
:10480000692FF0E18F9F600D112482E996E00E94EC
:104810001E0B0E94EC12E090F00688E60E949912AE
:1048200084E090E00E9448138E2D6F2D0E94412B52
:10483000692F20E1829F600D112482E996E00E9499
:104840001E0B0E94EC12E090F10688E60E9499127D
:1048500082E090E00E9448130E94EC1281E090E018
:104860000E94A31282E996E00E94D50A86FF18C032
:104870003CE03E1558F484EF8E0D6F2D0E94412BC5
:10488000E0E18E9F900D1124906613C08E2D6F2D48
:104890000E94412BF92EF0E18F9FF00C11240AC0E9
:1048A0008E2D6F2D0E94412B20E1829F900D1124AF
:1048B0009F7BF92E88E60E94991282E090E00E9488
:1048C00048136F2D82E996E00E941E0B0E94EC12A5
:1048D000F090F20688E60E94991281E090E00E9432
:1048E00048138F2D6AE00E94412B692F30E1839F8E
:1048F000600D112482E996E00E941E0B0E94EC12CA
:1049000088E60E94991280E090E00E94481360E0DF
:1049100082E996E00E941E0B0E94EC1288E60E943B
:1049200099128FE090E00E9448130E94EC1281E0FF
:1049300090E00E94A31282E996E00E94D50AF82E28
:1049400088E60E9499128FE090E00E9448136F2D34
:104950006F7782E996E00E941E0B0E94EC128EEEA9
:1049600096E00E94BE0D6093E2027093E302809392
:10497000E4029093E50280E060CE1092E90240C22A
:1049800080913203823509F0B7C06091310370E045
:1049900044E050E0461B570B635D7C4F85EF95E08C
:1049A0000E94AE0B882309F46DC190913103890FE9
:1049B00080933103843009F023C220912D0330917C
:1049C0002E0332272327322730932E0320932D03E3
:1049D00080912F03909130039827892798279093EF
:1049E000300380932F036091350370913603621773
:1049F000730708F47EC040913303509134032417A9
:104A0000350708F476C06817790708F472C0841770
:104A1000950708F46EC080912C03882309F469C0BF
:104A200061E088E00E94751685E080932B03409139
:104A3000E2025091E3026091E4027091E502C50147
:104A40000E94200E47E16DE173E0C8010E941C1432
:104A5000EA8DFB8D309709F448C08581882309F4DD
:104A600044C04091E2025091E3026091E4027091EF
:104A7000E502809130038F9380912F038F93809173
:104A80002E038F9380912D038F938BA11F928F9371
:104A90008AA11F928F9389A11F928F9388A11F9241
:104AA0008F938F8D1F928F938E8D90E08053984FB0
:104AB0009F938F937F936F935F934F938AEE91E0D1
:104AC0009F938F938BEE92E09F938F930E94F32C92
:104AD0006BEE72E0C8010E94FC0BC8010E944D13EE
:104AE0000FB6F894DEBF0FBECDBF60E088E00E9435
:104AF00075161092310384C1893409F0C3C06091E6
:104B0000310370E042E050E0461B570B635D7C4F81
:104B100085EF95E00E94AE0B882309F4B3C0909115
:104B20003103992379F09130C1F420912D03309114
:104B30002E0332272327322730932E0320932D0371
:104B40008F5F09C090912D03907F39F090912E03D3
:104B500090932D03815080933103809131038230F3
:104B600009F04EC110923103E0902D03F0902E0316
:104B700097E0F92280912C03882309F441C18091A8
:104B80003503909136038E159F0508F439C1809145
:104B9000330390913403E816F90608F431C161E05B
:104BA00088E00E9475164091E2025091E302609104
:104BB000E4027091E502C5010E94200E47E16DE11B
:104BC00073E0C8010E941C14EA8DFB8D309709F434
:104BD00051C08581882309F44DC04091E202509173
:104BE000E3026091E4027091E502FF92EF928091FE
:104BF0002E03869586958695AD968FAFAD97AE962A
:104C00001FAEAE97AE968EAD9FADAE9781709927D1
:104C10009F938F938BA11F928F938AA11F928F9343
:104C200089A11F928F9388A11F928F938F8D1F92BE
:104C30008F938E8D90E08053984F9F938F937F93A7
:104C40006F935F934F938AEE91E09F938F938BEED8
:104C500092E09F938F930E94F32C6BEE72E0C80159
:104C60000E94FC0BC8010E944D130FB6F894DEBFE2
:104C70000FBECDBF60E088E002C060E087E00E9428
:104C80007516BEC0109231038091E1028823E9F0CD
:104C90001092E1024091E2025091E3026091E4023D
:104CA0007091E502C8010E94200E2C818D8190E058
:104CB000F4E62F9F800D911D11242091E002211117
:104CC0008FC144E060EE0E948317BE0167597F4F99
:104CD000CE0186599F4F0E94090490912C0399237D
:104CE00009F482C1AB968FADAB97882309F4FAC162
:104CF000AA962FADAA972111F5C181E09827AC960D
:104D00009FAFAC9790932C03992309F4B6CF61E041
:104D100087E00E947516612C712C28E8222E21E074
:104D2000322E7F926F9223E132E03F932F93EDE199
:104D3000F3E0FF93EF930E94F32C1EAE1DAE3CAE4A
:104D40002BAE21961FAE219719A218A23F8E2E8E50
:104D50001BA20F900F900F900F900F900F90C12CEF
:104D6000D12CCE01CB962C019AECE92E96E0F92EAF
:104D7000C601F601E35EFC4F20812F3209F4019653
:104D8000DC01A35EBC4FFE01E85AFF4F20E030E09B
:104D90004F014D914F3209F048C1F401E20FF31F6A
:104DA0001082FC01E35EFC4F20812F3209F4019652
:104DB0006C01FC01E35EFC4F9081E1969FAFE197AF
:104DC0001C821B823A8229821E8221E0A401B70143
:104DD000C8010E944010811134C1FAECEF16F6E0D0
:104DE000FF0609F015C247E16DE173E0C8010E94BA
:104DF0001C14EA8DFB8D309719F085818111EDC16E
:104E00000E94870A62CB6FEA72E0CE0186960E940A
:104E10000C29FC01892B51F094819F77935092309B
:104E200028F40190F081E02D309711F4ECE9F1E0E5
:104E300082E5809332038181811106C080818F7D5C
:104E4000893411F48093320368EC71E0CE018696C8
:104E50000E940C290E943C29882309F450C068EC68
:104E600071E0CE0186960E940C29FC01892B09F481
:104E700049C094819F77973028F4953070F493302F
:104E800090F440C0973061F09830E1F56081718115
:104E9000828193810E94122B3AC06081718137C058
:104EA0006081718128C00190F081E02D309751F12F
:104EB0008081843751F18B3229F08D3221F4319683
:104EC00081E002C0319680E060E070E04AE09191BC
:104ED00020ED290F2A3068F4469F9001479F300D3E
:104EE0001124B90160537109690F711D97FD7A95FD
:104EF000EECF882361F071956195710908C06FEF5D
:104F00007FEF05C060E070E002C061E070E0709388
:104F10003603609335036DEC71E0CE0186960E94F6
:104F20000C290E943C29882309F455C06DEC71E0DE
:104F3000CE0186960E940C29FC01892B09F44BC0F6
:104F400094819F77973028F4953078F4933098F4D3
:104F500042C0973069F09830F1F5608171818281AB
:104F600093810E940B2B7B0136C0E080F18033C01F
:104F7000E080F18029C00190F081E02D309759F157
:104F80008081843729F18B3229F08D3221F43196DA
:104F900091E002C0319690E0E12CF12C4AE0819141
:104FA00020ED280F2A3070F44E9D90014F9D300D5A
:104FB0001124E82E880FFF0880E3E81AF108E20EBA
:104FC000F31EEDCF992339F0F194E194F10803C079
:104FD000EE24E394F12CF0923403E092330365CA9B
:104FE00020E044E060E06FCEAB968FADAB978823B6
:104FF00009F478CEAA968FADAA97882309F472CEC9
:105000004091E2025091E3026091E4027091E50266
:10501000C8010E94200E86E0F801AEEEB6E00190D5
:105020000D928A95E1F781E008CB442309F4B5CECF
:105030002F5F3F4F019641932C30310509F0A9CEE7
:10504000ACCEC8010E94511AE196EFADE197EE2374
:10505000E9F0F20185818111D5C021E0A401B701F9
:10506000C2010E944010982EFAECEF16F6E0FF06FF
:1050700009F4C3C0C7010E94511A992009F4B3CEA4
:105080009E2D8F2D7201492E582E72CE2AECE216DB
:1050900026E0F20619F0C7010E94511AAC963FAD06
:1050A000AC97332309F49FCE8FEF681A780A90E10A
:1050B000691697E2790609F034CE61E087E00E9434
:1050C000751664EF71E080E090E00E94071860E0E0
:1050D00087E00E94751664EF71E080E090E00E9426
:1050E0000718EBCFAA969FADAA97992309F488CE0B
:1050F000811186CE88E60E94991281E190E00E949B
:1051000048130E94EC1282E090E00E94A31290915A
:10511000D0058091D105981731F182E996E00E947F
:10512000D50AF82E82E996E00E94D50AE096FFAEF5
:10513000E097AF961FAEAF97E0966EAD7FADE0976C
:10514000682B86E0759567958A95E1F7072E000C28
:10515000880B990B0E94C12920E030E040E85EE313
:105160000E94FC2904C060E07CE38CE196EC0E9484
:105170000B2B9B0119821A821B821C8249E34C83F0
:1051800077FF0BC022273327261B370B80E42A30FA
:10519000310514F48A8301C08983C9016AE070E093
:1051A0000E94612BFC01E25CFE4F80818B832A30E0
:1051B00031053CF06F70E62FF0E0E25CFE4F80813D
:1051C0008A8340E064E0C8010E944E1768EB7BE0F0
:1051D00080E090E00E94071813CE8091320389345A
:1051E00019F460E272E002C068E472E0C8010E9453
:1051F000FC0BC8010E944D1303CE882309F4F3CDA4
:1052000075013ECFEAECEE16E6E0FE0609F4EBCDC2
:10521000C7010E94511AE7CD0F931F93CF93DF93DD
:10522000FC01248125FF1FC08B01C081D181209703
:10523000D1F06E817F810115110519F0611571059D
:1052400021F46017710731F411C0C8010E94DB2CF2
:10525000892B61F08D81882331F0F8E08F02C00D39
:10526000D11D1124E4CF80E090E001C0CE01DF9198
:10527000CF911F910F910895009739F0FC0194810F
:105280009F77965081E0933008F080E00895CF93A7
:10529000DF93E5EFF5E01382128288EE93E0A0E061
:1052A000B0E084839583A683B78324E631E031831D
:1052B000208325EC30E03587248724EC30E03787E5
:1052C000268720EC30E0318B208B21EC30E0338BD3
:1052D000228B22EC30E0358B248B26EC30E0378BB0
:1052E000268B118E128E138E148EE2E9F6E0138255
:1052F000128284839583A683B78386E791E09183A6
:105300008083EEE9F6E080E580831182E0EAF6E052
:10531000158216821186138682E090E0A0E0B0E04C
:1053200084879587A687B78713A215A614A688E851
:1053300091E093A782A717A640E050E0BA018EEE55
:1053400096E00E94200EC9EED6E083E0888384E0D8
:10535000898384E690E09C838B8360E083E00E94F5
:10536000A41660E089810E94A41660E088810E94F2
:10537000751660E08981DF91CF910C947516E894E1
:1053800009C097FB3EF490958095709561957F4F8D
:105390008F4F9F4F9923A9F0F92F96E9BB2793953B
:1053A000F695879577956795B795F111F8CFFAF44B
:1053B000BB0F11F460FF1BC06F5F7F4F8F4F9F4F7C
:1053C00016C0882311F096E911C0772321F09EE8DA
:1053D000872F762F05C0662371F096E8862F70E040
:1053E00060E02AF09A95660F771F881FDAF7880F1A
:1053F0009695879597F908950E940F2A0C94802A14
:105400000E94722A38F00E94792A20F0952311F028
:105410000C94692A0C946F2A11240C94B42A0E94CB
:10542000912A70F3959FC1F3950F50E0551F629F2D
:10543000F001729FBB27F00DB11D639FAA27F00DED
:10544000B11DAA1F649F6627B00DA11D661F829F14
:105450002227B00DA11D621F739FB00DA11D621FF9
:10546000839FA00D611D221F749F3327A00D611D16
:10547000231F849F600D211D822F762F6A2F1124F8
:105480009F5750409AF0F1F088234AF0EE0FFF1F2B
:10549000BB1F661F771F881F91505040A9F79E3F82
:1054A000510580F00C94692A0C94B42A5F3FE4F310
:1054B000983ED4F3869577956795B795F795E795D8
:1054C0009F5FC1F7FE2B880F911D9695879597F9E1
:1054D000089597F99F6780E870E060E008959FEF76
:1054E00080EC089500240A9416161706180609067B
:1054F000089500240A94121613061406050608954A
:10550000092E0394000C11F4882352F0BB0F40F4D1
:10551000BF2B11F460FF04C06F5F7F4F8F4F9F4F11
:10552000089557FD9058440F551F59F05F3F71F093
:105530004795880F97FB991F61F09F3F79F08795FA
:105540000895121613061406551FF2CF4695F1DF83
:1055500008C0161617061806991FF1CF8695710513
:10556000610508940895E894BB2766277727CB0147
:1055700097F908950E94FC2AA59F900DB49F900D65
:10558000A49F800D911D112408952F923F924F9258
:105590005F926F927F928F929F92AF92BF92CF92C3
:1055A000DF92EF92FF920F931F93CF93DF93CDB7CC
:1055B000DEB7CA1BDB0B0FB6F894DEBF0FBECDBF44
:1055C00009942A88398848885F846E847D848C8415
:1055D0009B84AA84B984C884DF80EE80FD800C811E
:1055E0001B81AA81B981CE0FD11D0FB6F894DEBF01
:1055F0000FBECDBFED010895A29FB001B39FC001C2
:10560000A39F700D811D1124911DB29F700D811DEE
:105610001124911D08950E94122B6894B1110C94CD
:10562000B42A08950E94992A88F09F5798F0B92FBC
:105630009927B751B0F0E1F0660F771F881F991FC7
:105640001AF0BA95C9F714C0B13091F00E94B32A8C
:10565000B1E008950C94B32A672F782F8827B85F9C
:1056600039F0B93FCCF3869577956795B395D9F71F
:105670003EF490958095709561957F4F8F4F9F4F29
:105680000895991B79E004C0991F961708F0961B9E
:10569000881F7A95C9F780950895AA1BBB1B51E115
:1056A00007C0AA1FBB1FA617B70710F0A61BB70B92
:1056B000881F991F5A95A9F780959095BC01CD0137
:1056C000089597FB072E16F4009407D077FD09D0B4
:1056D0000E944D2B07FC05D03EF4909581959F4F7D
:1056E0000895709561957F4F0895A1E21A2EAA1B27
:1056F000BB1BFD010DC0AA1FBB1FEE1FFF1FA21782
:10570000B307E407F50720F0A21BB30BE40BF50B7E
:10571000661F771F881F991F1A9469F76095709507
:10572000809590959B01AC01BD01CF010895EE0FCE
:10573000FF1F0590F491E02D09940F931F93CF93D1
:10574000DF938230910510F482E090E0E091FB0657
:10575000F091FC0620E030E0A0E0B0E0309719F1D5
:10576000408151810281138148175907C8F084177D
:10577000950769F4109731F012960C9312971396CF
:105780001C9327C00093FB061093FC0622C0211532
:10579000310519F04217530718F49A01BD01EF01C2
:1057A000DF01F801DBCF21153105F9F0281B390B9A
:1057B0002430310580F48A819B816115710521F0C7
:1057C000FB019383828304C09093FC068093FB06C5
:1057D000FE01329644C0FE01E20FF31F81939193C4
:1057E00022503109398328833AC02091F90630913B
:1057F000FA06232B41F420910A0130910B013093DA
:10580000FA062093F906209108013091090121152B
:10581000310541F42DB73EB740910C0150910D0177
:10582000241B350BE091F906F091FA06E217F30715
:10583000A0F42E1B3F0B2817390778F0AC014E5F00
:105840005F4F2417350748F04E0F5F1F5093FA063D
:105850004093F9068193919302C0E0E0F0E0CF011C
:10586000DF91CF911F910F910895CF93DF93009710
:1058700009F481C0FC01329713821282A091FB06C9
:10588000B091FC06109781F420813181820F931F23
:105890002091F9063091FA062817390751F5F0934F
:1058A000FA06E093F90667C0ED0120E030E0CE177C
:1058B000DF0740F44A815B819E0141155105F1F0FB
:1058C000EA01F5CFD383C28340815181840F951FB4
:1058D000C817D90759F488819981840F951F0296BA
:1058E000918380838A819B819383828321153105F3
:1058F00029F4F093FC06E093FB063DC0E901FB832D
:10590000EA8349915991C40FD51FEC17FD0761F443
:1059100080819181840F951F0296E9019983888384
:10592000828193819B838A83E0E0F0E012968D91DF
:105930009C911397009719F0FD01DC01F7CF8D9131
:105940009C9111979D012E5F3F4F820F931F2091D5
:10595000F9063091FA062817390769F4309729F4C7
:105960001092FC061092FB0602C013821282B093C2
:10597000FA06A093F906DF91CF91089581E090E0B7
:10598000F8940C94A62FFB01DC0104C08D910190CA
:10599000801921F441505040C8F7881B990B089595
:1059A000FC018191861721F08823D9F79927089562
:1059B0003197CF010895FB01DC018D910190801991
:1059C0000110D9F3990B0895FB01DC0141505040BF
:1059D00048F001900D920020C9F701C01D9241507E
:1059E0005040E0F70895AEE0B0E0E9EFFCE20C943F
:1059F000D32A0D891E8986E08C831A8309838FEF51
:105A00009FE79E838D83AE01475E5F4F6F89788DE0
:105A1000CE0101960E94152DEF81F885E00FF11F50
:105A200010822E96E4E00C94EF2AABE0B0E0EBE1BC
:105A3000FDE20C94C52A6C017B018A01FC011782EE
:105A40001682838181FFCCC1CE0101963C01F60113
:105A50009381F70193FD859193FF81917F018823C5
:105A600009F4BAC1853239F493FD859193FF819190
:105A70007F01853229F4B60190E00E940C2FE7CF18
:105A8000912C212C312CFFE1F315D8F08B3279F0D9
:105A900038F4803279F08332A1F4232D20611DC0C7
:105AA0008D3261F0803369F4232D216016C0832D7F
:105AB0008260382EE32DE4603E2E2AC0F32DF8607C
:105AC0001DC037FC2DC020ED280F2A3040F08E324B
:105AD000B9F436FC81C1232D2064322E19C036FE64
