:100000000C9470000C9479120C9452120C94980079
:100010000C9498000C9498000C9498000C94980000
:100020000C9498000C9498000C9498000C949800F0
:100030000C9498000C940F130C9498000C94980056
:100040000C94DE180C9498000C94DD120C94B712EA
:100050000C9498000C9498000C9498000C949800C0
:100060000C9410140C949800000000002400270049
:100070002A0000000000250028002B0000000000DE
:1000800023002600290004040404040404040202DA
:100090000202020203030303030301020408102007
:1000A0004080010204081020010204081020000012
:1000B0000008000201000003040700000000000027
:1000C00000007C3C3E5E2B3D3F2F5B5D3B2C2A229B
:1000D0005C001F1C1F1E1F1E1F1F1E1F1E1F0C2229
:1000E00011241FBECFEFD8E0DEBFCDBF26E0A4E3D2
:1000F000B2E001C01D92AB35B207E1F712E0A0E01B
:10010000B1E0E8ECF0E502C005900D92A433B10730
:10011000D9F710E0C0E7D0E004C02197FE010E94AB
:100120005C24CF36D107C9F70E9428190C946228A5
:100130000C940000DC015996ED91FC915A97309790
:10014000B9F083899489A589B689428553856485E8
:100150007585841B950BA60BB70B811520E89207BC
:10016000A105B10538F08FEF9FE7A0E0B0E008955A
:1001700080E090E00895CF93DF931F92CDB7DEB774
:100180006983DC01ED91FC910280F381E02D41E077
:1001900050E0BE016F5F7F4F09950F90DF91CF91C7
:1001A0000895089580E090E0089581E080934602EC
:1001B0009091450289278093450208950F931F93DC
:1001C000CF93DF93FC012581222309F446C02481CB
:1001D00027FF3DC08C01668577858089918941E044
:1001E0000E9479158823C9F1F801C289F0E2CF9FF6
:1001F000E0011124C956DD4F209779F1F80185817E
:10020000823040F483899489A589B6898C8F9D8F2B
:10021000AE8FBF8FF8018789908DA18DB28D9B8F96
:100220008A8FBD8BAC8BE0913C02F0913D02309700
:1002300051F0BE016A5E7F4FCE0148960995888DC8
:10024000998D9B8B8A8BF80194819F779483DF91A2
:10025000CF911F910F910C943E1580E0DF91CF91CB
:100260001F910F910895FC01818D928D009711F0DF
:100270000C94DE000895CF93C1E0C0933F0282E06A
:100280000E94810E892BB1F0809140029091410231
:10029000A0914202B09143020196A11DB11D80932D
:1002A000400290934102A0934202B0934302C09354
:1002B0003E0202C010923E02CF9108958F929F920B
:1002C000AF92BF92CF92DF92EF92FF920F931F9364
:1002D000CF93DF93EC018D81811102C080E078C063
:1002E0000B891C892D893E890417150726073707B6
:1002F000A8F36A017B01823029F4CA86DB86EC868A
:10030000FD860DC0C114D104E104F10451F41E8234
:100310001F82188619861A861B861C861D8681E018
:1003200057C08A849B84AC84BD84EB8DFC8D25856D
:1003300030E0275F3F4FB501A401415051096109E9
:100340007109022E04C076956795579547950A94D2
:10035000D2F7D701C6010197A109B10904C0B6952A
:10036000A795979587952A95D2F784179507A6079D
:10037000B70720F089288A288B2871F44F89588D77
:10038000698D7A8D4E835F83688779874C015D0123
:100390008E010A5F1F4F16C0841B950BA60BB70B6F
:1003A000F5CF4E815F816885798598018B8D9C8D15
:1003B0000E94631691E0891A9108A108B108882368
:1003C00009F48CCF81149104A104B10451F795CFA5
:1003D000DF91CF911F910F91FF90EF90DF90CF9021
:1003E000BF90AF909F908F9008958F929F92AF9201
:1003F000BF92CF92DF92EF92FF920F931F93CF9312
:10040000DF9300D000D0CDB7DEB77C0180E2689FDB
:10041000F0011124E956FD4F9385917121F0842F4D
:10042000827409F08FC0142FD70152966C935297A3
:1004300040910401509105016091060170910701FE
:100440001E964D935D936D937C9351974489558986
:1004500060E070E0BA0155274427828D938DA0E0BB
:10046000B0E0482B592B6A2B7B2BD70157964D9325
:100470005D936D937C935A978385887159F4848D2D
:10048000958DA68DB78DF701838B948BA58BB68B3D
:1004900081E012C0803109F055C097012D5E3F4FB9
:1004A000D7015B968D919C915C970E94400B8823AD
:1004B00009F448C084E0F7018583812F8F70D7014C
:1004C00014968C931497F701168217821086118662
:1004D0001A961D921D921D921C921D9716FF34C0F4
:1004E00015968C91813071F511FF2CC0F70143896D
:1004F000548965897689452B462B472B09F461C0C1
:1005000040E050E0BA01C7010E945E018823D1F0AB
:10051000F7018788908CA18CB28CC38CD48C82E03C
:1005200090E0A0E0B0E0F60180839183A283B383E2
:100530009E012F5F3F4FB501A401C6010E946316C3
:10054000811104C080E03DC081E03BC000E010E0CC
:100550009801B501A401C6010E94C215882391F338
:1005600089809A80AB80BC80D60157968C9180316F
:1005700029F088EF9FEFAFEFBFE004C088EF9FEF57
:10058000A0E0B0E088169906AA06BB0688F2D7015B
:1005900057961D921D921D921C925A97F701138A2D
:1005A000148A158A168A848180688483C7010E9410
:1005B000DE00882339F240E050E0BA01C7010E9412
:1005C0005E010F900F900F900F90DF91CF911F91D0
:1005D0000F91FF90EF90DF90CF90BF90AF909F90E2
:1005E0008F900895CF93DF93EC010E94DE00882363
:1005F00011F01D8281E0DF91CF9108953F924F92DB
:100600005F926F927F928F929F92AF92BF92CF92A2
:10061000DF92EF92FF920F931F93CF93DF93CDB7AB
:10062000DEB72C970FB6F894DEBF0FBECDBF5C01CE
:10063000DC015B968D909C905C971696CD90DD903A
:10064000ED90FC901997C114D104E104F10439F044
:10065000BFEFCB1ADB0AEB0AFB0A312C07C0F4010F
:10066000C080D180E280F38033243394F40181850B
:100670009285A385B4859C01AD012F5F3F4F4F4FFD
:100680005F4F29873A874B875C87260137011D8298
:100690001E821F821886F40181859285A385B48508
:1006A0002D813E814F815885281739074A075B07FE
:1006B00008F063C089859A85AB85BC858C159D053E
:1006C000AE05BF0550F482E0C82ED12CE12CF12CF0
:1006D00092E0492E512C612C712C9E012F5F3F4FCF
:1006E000B701A601C4010E946316882309F445C01E
:1006F00089819A81AB81BC81892B8A2B8B2B41F01C
:10070000260137019FEF491A590A690A790A05C07B
:10071000C414D504E604F70491F02D813E814F8185
:1007200058852F5F3F4F4F4F5F4F2D833E834F8341
:1007300058873FEFC31AD30AE30AF30AACCF0FEF8F
:100740001FEF2FEF3FE0B301A201C4010E94C215C9
:10075000882399F0D50116964D915D916D917C910C
:100760001997411551056105710549F09301820101
:10077000C4010E94C215811102C080E02AC0D501C7
:1007800016964D925D926D927C921997332051F09E
:10079000D301C2010196A11DB11DF4018083918393
:1007A000A283B383F5018789908DA18DB28D892BAA
:1007B0008A2B8B2B69F4D50157964D925D926D92E1
:1007C0007C925A9714968C911497806814968C9307
:1007D00081E02C960FB6F894DEBF0FBECDBFDF913F
:1007E000CF911F910F91FF90EF90DF90CF90BF902E
:1007F000AF909F908F907F906F905F904F903F90C1
:1008000008958FB7F894809188028FBF089561E0B2
:10081000FC0184810E94AA0E8091870281111092AE
:10082000870208958EBD00000DB407FEFDCF8EB582
:1008300008958FEF0C9412040F931F93CF93DF93BF
:10084000EB010E94D2188B010E9419048F3F49F0DE
:100850000E94D218601B710B6C177D07A8F380E013
:1008600001C081E0DF91CF911F910F910895CF9347
:10087000DF93EC018E81882389F08F8198859C011C
:100880002F5F3F4F38872F838230924018F40E94A9
:100890001904F3CFCE010E9407041E82DF91CF918D
:1008A00008958CBD9DBD0895CF93DF93EC01809199
:1008B0008702811109C081E0809387028091AE0593
:1008C0009091AF050E94510460E08C81DF91CF913F
:1008D0000C94AA0E8F929F92AF92BF92FF920F93A9
:1008E0001F93CF93DF93EC01F62E49015A010E942A
:1008F0003704CE010E9454046CE271E0CE010E94E4
:100900001C048F2D80640E94120408E110E0D501C0
:10091000C401002E04C0B695A795979587950A94B3
:10092000D2F70E94120408501109083F8FEF1807F0
:1009300071F7FF2029F088E0F81204C087E803C0AF
:1009400085E901C08FEF0E94120410E00E94190493
:100950008A8787FF04C01F3F11F01F5FF7CFDF9129
:10096000CF911F910F91FF90BF90AF909F908F906C
:100970000895AF92BF92CF92DF92EF92FF920F93C2
:100980001F93CF93DF93EC016901C801820F931F7E
:100990008130924008F070C08E81882371F0888188
:1009A0009981AA81BB8184179507A607B70729F407
:1009B0008F819885C816D906B0F5488359836A8314
:1009C0007B838B85833039F089E0440F551F661F88
:1009D000771F8A95D1F79A01AB0161E1CE010E94A0
:1009E0006A04882319F083E08D8346C00E94D218E0
:1009F0005B010E9419048A878F3F49F40E94D21834
:100A00006A197B096D327140A0F38FE003C08E3FFD
:100A100031F08DE08D83CE010E9407042DC0188631
:100A20001F8281E08E838F8198858C159D0540F40F
:100A30000E9419048F819885019698878F83F3CF40
:100A40006701E00EF11EEC14FD0431F00E94190460
:100A5000F60181936F01F7CF8F819885080F191FD9
:100A600018870F838985882319F00115124048F0F3
:100A7000CE010E94370405C0CE010E94070480E029
:100A800001C081E0DF91CF911F910F91FF90EF9016
:100A9000DF90CF90BF90AF900895EF92FF920F93A9
:100AA0001F93CF93DF93EC01790141155105610547
:100AB000710511F482E13CC08B85833039F089E007
:100AC000440F551F661F771F8A95D1F79A01AB0116
:100AD00068E1CE010E946A04882311F084E028C0F6
:100AE0008EEF0E94120487018EEFF81AF8018191AF
:100AF0008F010E941204E016F106C1F78FEF0E94E9
:100B000012048FEF0E9412040E9419048A878F71C9
:100B1000853031F081E18D83CE010E94070409C048
:100B200068E572E0CE010E941C04811107C085E1D6
:100B30008D83CE010E94070480E014C020E030E0E5
:100B4000A9016DE0CE010E946A04811109C00E94D2
:100B50001904811105C0CE010E94070481E002C082
:100B600084E1E6CFDF91CF911F910F91FF90EF903D
:100B700008952F923F924F925F926F927F928F9241
:100B80009F92AF92BF92CF92DF92EF92FF920F931C
:100B90001F93CF93DF9300D000D0CDB7DEB78C0189
:100BA0006B011A01DC0115968C9115978130C9F4FF
:100BB00014968C9181FF15C082FF1DC0F8014389F6
:100BC00054896589768982859385A485B58584173E
:100BD0009507A607B70779F0C8010E945E01811149
:100BE0000AC081E090E0D80113969C938E931297EF
:100BF00080E090E048C1410183C05B968D919C915B
:100C00005C97FC0174802FEF270D2A013B0139E02E
:100C100076946794579447943A95D1F7722E74203E
:100C20007A01F1E0FF22772009F476C080E092E0BB
:100C30008E199F0954018815990508F45C01D801A3
:100C40005B962D913C915C9716968D919D910D90A0
:100C5000BC91A02D0297A109B109F901058404C036
:100C6000880F991FAA1FBB1F0A94D2F74685578584
:100C700060897189840F951FA61FB71F9C01AD0164
:100C8000270D311D411D511D29013A01A11432E0EA
:100C9000B30609F088C08091040190910501A091EC
:100CA0000601B0910701481659066A067B0659F4F9
:100CB0008FEF9FEFDC018093040190930501A093D7
:100CC0000601B09307019601B301A2018091970438
:100CD000909198040E944D05882309F482CF9EEFDD
:100CE000D91A8A189B08F80182859385A485B58551
:100CF0008A0D9B1DA11DB11D82879387A487B5878F
:100D0000D8011A964D915D916D917C911D9781143A
:100D1000910409F072CF87C0E114F10409F086CF85
:100D200016964D915D916D917C91199741155105E4
:100D30006105710559F457968D919D910D90BC9167
:100D4000A02D0097A105B10541F521C09E012F5F9F
:100D50003F4F0E946316882309F44BCF89819A8103
:100D6000AB81BC81F801238D348DF90127892031B5
:100D700029F048EF5FEF6FEF7FE004C048EF5FEFCF
:100D800060E070E084179507A607B70730F0C80148
:100D90000E94FE0281114ACF24CFF80186839783F7
:100DA000A087B18743CFE114F10429F5D8011A9641
:100DB0004D915D916D917C911D9753968D919D9173
:100DC0000D90BC91A02D481759076A077B0798F032
:100DD0000E943E15882309F404CF409204015092EA
:100DE00005016092060170920701809106068160FC
:100DF0008093060608C041E0C301B2010E94791544
:100E0000882309F4EECED601F701E956FD4F9F0184
:100E10002A0D3B1D2E173F0719F08D918193FACFB4
:100E2000CA0CDB1C5ECFD8015396CD90DD90ED90BF
:100E3000FC90569714968C91C416D506E606F706D4
:100E400040F4F801438B548B658B768B80688483E8
:100E50000DC020913C0230913D02232B39F021142A
:100E6000310421F08068D80114968C93F8018481B4
:100E700083FD02C0C10107C0C8010E94DE008823B3
:100E800009F4AFCEF7CF0F900F900F900F90DF9136
:100E9000CF911F910F91FF90EF90DF90CF90BF9077
:100EA000AF909F908F907F906F905F904F903F900A
:100EB0002F900895CF93DF93EC01898D9A8D009741
:100EC00039F481E090E09B838A8380E090E00BC05E
:100ED000FC01138212820E94B905E98DFA8D2281EC
:100EE0003381232B71F7DF91CF910895FC01DB0152
:100EF00012968D919C9113979383828388E591E05C
:100F00009183808314968C911497848315968C9189
:100F10001597858316964D915D916D917C911997EA
:100F200046835783608771871A964D915D916D91C5
:100F30007C911D9742875387648775871E964D91D4
:100F40005D916D917C91519746875787608B718B2E
:100F500052968C915297828B53964D915D916D91E3
:100F60007C915697438B548B658B768B57964D911E
:100F70005D916D917C915A97478B508F618F728FE5
:100F80005B968D919C915C97948F838F08954F927F
:100F90005F926F927F92AF92BF92CF92DF92EF9269
:100FA000FF920F931F93CF93DF931F92CDB7DEB7BE
:100FB000FC012581222309F4C1C0848180FFBEC0C9
:100FC00083899489A589B68942845384648475840D
:100FD00084159505A605B70509F4B0C06F01520147
:100FE000F1E0BF22D6015B968D919C915C97B30195
:100FF000A20139E076956795579547953A95D1F7CF
:10100000223071F4FC01828D938DA48DB58D8A01FF
:101010009B01080F191F2A1F3B1FC901B8014AC0B5
:10102000DC0114961C9111501423A114B104F9F49D
:1010300011111DC045284628472851F4F60187891B
:10104000908DA18DB28D86839783A087B1870FC0C5
:10105000D60116964D915D916D917C9119979601EF
:101060002A5F3F4F0E946316882309F467C0F60188
:10107000238D348D86819781A085B1850297A10942
:10108000B109AC01BD01F901058404C0440F551F2D
:10109000661F771F0A94D2F786859785A089B18944
:1010A000840F951FA61FB71FBC01CD01610F711DD5
:1010B000811D911DD60114962C9126FF0DC04090E4
:1010C00004015090050160900601709007014616DA
:1010D00057066806790699F440E00E94791588233E
:1010E00069F1F501E956FD4FDE0111969F012F5F71
:1010F0003F4F2E173F0799F081918D93FACFFE0154
:1011000031967F0101E010E09501AB01BC018091B7
:101110009704909198040E94B904882379F0F6010D
:1011200082859385A485B5850196A11DB11D828711
:101130009387A487B587898190E002C08FEF9FEFE6
:101140000F90DF91CF911F910F91FF90EF90DF9063
:10115000CF90BF90AF907F906F905F904F90089529
:10116000FC01818D928D009711F00C94C7078FEFD1
:101170009FEF08950F931F93CF93DF93FC01818D11
:10118000928D0097B9F0EF010E94C7078C010F3FC5
:101190008FEF180791F0898D9A8DFC014285538558
:1011A0006485758541505109610971090E945E018C
:1011B000C80105C080E090E002C08FEF9FEFDF9193
:1011C000CF911F910F9108959F92AF92BF92CF92AE
:1011D000DF92EF92FF920F931F93CF93DF936C01F7
:1011E0005B01FC011082FB01108200E010E0C0E016
:1011F000D0E082E0E82EFF24F39493E0992E86E07D
:101200000E94810E811125C0219680913502813086
:1012100049F028F0823071F08330A9F01EC0F092BE
:1012200035021BC0C436D105C1F4F6018083E092BB
:10123000350211C0C83EF3E0DF0779F4F601F08211
:101240009092350208C0C83CD10539F4F601F0820D
:1012500002C010923502C0E0D0E085E00E94810E0D
:10126000811126C00F5F1F4F80913402813049F0F9
:1012700028F0823071F08330A9F01EC0F092340261
:101280001BC004361105C1F4F5018083E0923402DD
:1012900011C0083EF3E01F0779F4F501F082909247
:1012A000340208C0083C110539F4F501F08202C08F
:1012B0001092340200E010E0F6018081811102C03A
:1012C000209739F4F501808181110AC001151105BB
:1012D00039F061E070E080E090E00E943C108FCF38
:1012E000DF91CF911F910F91FF90EF90DF90CF9002
:1012F000BF90AF909F900895823039F0833041F0D5
:10130000813049F48AEF90E008C084EF91E005C095
:1013100088EE93E002C084E690E06C01E12CF12CB1
:1013200061E087E00E94AA0EC701B6010E943C104E
:1013300060E087E00E94AA0EC701B6010E943C103F
:10134000EFCF80934702E1E8F0E010821092850031
:1013500010928400809144028061808381E08093B8
:101360004602809345020895FC019081961728F06B
:10137000941718F49F5F908301C0608310928100DE
:1013800010928500109284008091440280618093C5
:10139000810081E080934602809345020895EF9298
:1013A000FF920F931F93CF93DF9300D000D000D014
:1013B000CDB7DEB77C018B014091400250914102D4
:1013C0006091420270914302CE0101960E949813EF
:1013D000898190E04496982F8827990F2A8140E2CE
:1013E000249F900111244B81242B822B932BF701F6
:1013F000918380838D81F0E28F9F900111249C81E5
:10140000892F90E0982F8827990F990F990F822B99
:10141000932B2E8130E035952795822B932BF80165
:101420009183808326960FB6F894DEBF0FBECDBFA2
:10143000DF91CF911F910F91FF90EF9008958091D0
:10144000FC059091FD058230910538F0880F991FB9
:10145000880F991F05970197F1F70895833081F060
:1014600028F4813099F08230A1F008958730A9F0F6
:101470008830B9F08430D1F4809180008F7D03C032
:10148000809180008F7780938000089584B58F7756
:1014900002C084B58F7D84BD08958091B0008F77A0
:1014A00003C08091B0008F7D8093B0000895EF92CB
:1014B000FF920F931F93CF93DF93EC017B018A017F
:1014C0001B821A8288EE93E0A0E0B0E08C839D83BB
:1014D000AE83BF8382E291E0998388838DE190E0BF
:1014E0000E9462249A8F898F009779F02DE1F7018D
:1014F000DC0101900D922A95E1F74CE050E0B80133
:10150000CE010C960E94A025188EDF91CF911F91DD
:101510000F91FF90EF90089530910405313208F05B
:101520004BC08091E1048111FCCF9091050622E02F
:101530002093E10421E02093E0042FEF2093DF04C7
:101540001092DE043093DD04E4EEF4E0ADEBB4E0A1
:1015500020E0321721F041914D932F5FFACF109286
:10156000BC042091BC04990F922B9093BC049091E1
:10157000BB04913061F41092BB049091BC04909331
:10158000BB009091BC0093FDF8CF95EC01C095EEA7
:101590009093BC009091E1049230E1F39091DF04CC
:1015A0009F3F79F08091DF04803241F08091DF0429
:1015B000803331F084E005C081E003C082E001C0E7
:1015C00083E01092E304109204051092E20408955F
:1015D000682F82EA95E00C94101291E09093E20457
:1015E000809305061092E3041092040508959091EB
:1015F000E1049111FCCF982F813208F090E281E054
:101600008093E1048093E0042FEF2093DF04109295
:10161000DE04290F2093DD048093BC048091BC0478
:10162000806D8093BC048091BB04813061F4109282
:10163000BB048091BC048093BB008091BC0083FDFF
:10164000F8CF85EC01C085EE8093BC008091E10469
:101650008130E1F38091DE04891710F49091DE046B
:10166000EDEBF4E0ABE9B4E080E0891721F02191E3
:101670002D938F5FFACF10929A0480939904089566
:101680004F925F926F927F92AF92BF92CF92DF9212
:10169000EF92FF920F931F93CF93DF9300D000D070
:1016A000CDB7DEB78C0149835A836B837C835901A4
:1016B000C12CD12C7601412C82E0582E612C712C4A
:1016C00049815A816B817C819E012F5F3F4FC80108
:1016D0000E946316882351F1D301C201F8010584E9
:1016E00004C0880F991FAA1FBB1F0A94D2F7C80E07
:1016F000D91EEA1EFB1E49815A816B817C81878934
:10170000803129F088EF9FEFAFEFBFE004C088EF92
:101710009FEFA0E0B0E0481759076A077B0780F207
:10172000F501C082D182E282F38281E00F900F90B6
:101730000F900F90DF91CF911F910F91FF90EF903D
:10174000DF90CF90BF90AF907F906F905F904F9061
:101750000895CF93DF93FC012581222311F080E0CF
:1017600049C0EC018091D3058031C1F482E08583CA
:10177000178A108E118E128E8091D4059091D50506
:10178000A0E0B0E025E0880F991FAA1FBB1F2A9593
:10179000D1F7838B948BA58BB68B19C08032F9F669
:1017A00083E085834091D6055091D7056091D80597
:1017B0007091D905478B508F618F728F9F012D5E7D
:1017C0003F4F8CEB95E00E94400B882341F28CEB5D
:1017D00095E09C8F8B8F81E08C831E821F82188600
:1017E00019861A861B861C861D861E861F86188AE9
:1017F000198A1A8ADF91CF9108958F929F92AF92A2
:10180000BF92CF92DF92EF92FF92CF93DF93C82FD8
:1018100080EB95E09093980480939704CC2369F132
:10182000C53010F080E00CC140E060E070E0CB011A
:101830000E9479158823B1F320E1C29FC0011124D1
:1018400089579D4FFC01E254FE4F20812F7751F7BD
:101850003C96408151816281738144365105610516
:10186000710500F33497C080D180E280F380C11409
:10187000D104E104F10421F4D5CFC12CD12C76019F
:1018800040E0C701B6010E947915882359F2809182
:10189000A2029091A3028115924021F6A091A70285
:1018A000AA2309F4BFCF6091A5027091A602611529
:1018B000710509F4B7CF2091A402222309F4B2CF15
:1018C000A093CE052093C00580E030E041E050E0D9
:1018D000C82FFA01082E02C0EE0FFF1F0A94E2F78C
:1018E0002E173F0739F08F5FC83091F789E080935A
:1018F000C90598CF8093C9052091AD023091AE0201
:101900002115310519F040E050E008C02091BB02DC
:101910003091BC024091BD025091BE022093C1059E
:101920003093C2054093C3055093C4054601570147
:10193000860E971EA11CB11C8092CF059092D005F7
:10194000A092D105B092D205E091A802F091A9022F
:10195000F093D505E093D405B0E00E947F23860E76
:10196000971EA81EB91E8092D6059092D705A09208
:10197000D805B092D90585E0EE0FFF1F8A95E1F7F3
:10198000E150FE4FEF2FFF27E6958E0E9F1EA11C04
:10199000B11C8092CA059092CB05A092CC05B09262
:1019A000CD052091AA023091AB022115310521F01D
:1019B000A90160E070E008C04091B7025091B80200
:1019C0006091B9027091BA02D701C60188199909CC
:1019D000AA09BB09840F951FA61FB71F04C0B6959F
:1019E000A79597958795CA95D2F78093C50590934B
:1019F000C605A093C705B093C805853F2FE09207A1
:101A0000A105B10510F48CE018C0853F9F4FA105DA
:101A1000B10510F480E111C08091C3029091C4021D
:101A2000A091C502B091C6028093D6059093D705C8
:101A3000A093D805B093D90580E28093D30581E0C7
:101A4000DF91CF91FF90EF90DF90CF90BF90AF905C
:101A50009F908F900895CF93DF93EC01898D9A8D9D
:101A6000009741F00E94F202898D9A8D0E94FA241B
:101A70001A8E198EDF91CF9108952F923F924F9237
:101A80005F926F927F928F929F92AF92BF92CF920E
:101A9000DF92EF92FF920F931F93CF93DF93CDB717
:101AA000DEB7C456D1090FB6F894DEBF0FBECDBF66
:101AB0005C0119A218A288E591E09F8F8E8F1BA26E
:101AC0001C821B829A8389831E824E018EE1880EBE
:101AD000911CC4010E94A90B8E010F5F1F4F2401AE
:101AE00089E8C82E82E0D82E18016FE270E0C601A6
:101AF0000E949525009709F442C0F60120812F32FB
:101B000021F4FFEFCF1ADF0AF0CF8C198D3008F0E7
:101B10008CE0E82EF12CA701B601CE01885A9F4F28
:101B20000E94A025E8E5F0E0EC0FFD1FEE0DFF1D83
:101B30001082C8010E94F202F8018581882351F0C9
:101B40001EAE1DAE88E591E09CAF8BAF21961FAE17
:101B500021971EC021E0AE01485A5F4FB201C80173
:101B60000E94E616882361F3CE0CDF1CC2010E949E
:101B7000F202942D852D2801092F182FB6CFC6010A
:101B8000895892403C01B201CE01CB960E94760763
:101B9000830107571D4FF8018081811109C0BE01E3
:101BA000655C7F4FC1010E94760742E352E039C075
:101BB00019A218A288E591E09F8F8E8F1BA2219613
:101BC0008FAD2197811113C0F5011382128288EE27
:101BD00093E0A0E0B0E084839583A683B78382E29C
:101BE00091E091838083128E118E14861EC027E1AE
:101BF000A801BE01655C7F4FC4010E94E6168823E0
:101C000019F3CE01CB960E94F20249A95AA96BA9F9
:101C10007CA9C4010E945E01B401C1010E94760743
:101C2000A801B101C5010E94570AC501CC59DF4F77
:101C30000FB6F894DEBF0FBECDBFDF91CF911F91DD
:101C40000F91FF90EF90DF90CF90BF90AF909F905B
:101C50008F907F906F905F904F903F902F9008955E
:101C60008F929F92AF92BF92EF92FF920F931F932A
:101C7000CF93DF938B017C01C0E0D0E0C017D10788
:101C8000A1F10E94D21860930D0570930E05809308
:101C90000F059093100585E095E00E94B01097FF26
:101CA0001FC00E94D21880900D0590900E05A09044
:101CB0000F05B0901005DC01CB0188199909AA091C
:101CC000BB098090090590900A05A0900B05B09083
:101CD0000C0588159905AA05BB05E8F28E0105C01B
:101CE000F70181937F012196C9CFC801DF91CF9180
:101CF0001F910F91FF90EF90BF90AF909F908F90AA
:101D00000895CF93DF93282F30E0F901E255FF4F7C
:101D10008491F901E656FF4FD491F901EA57FF4F3C
:101D2000C491CC2391F081110E942E0AEC2FF0E097
:101D3000EE0FFF1FE458FF4FA591B491EC91ED23F6
:101D400081E090E021F480E002C080E090E0DF914B
:101D5000CF9108951F93CF93DF93282F30E0F9019F
:101D6000E255FF4F8491F901E656FF4FD491F901F6
:101D7000EA57FF4FC491CC23C1F0162F81110E9466
:101D80002E0AEC2FF0E0EE0FFF1FEE58FF4FA5914B
:101D9000B4919FB7F894111104C08C91D095D823B9
:101DA00002C0EC91DE2BDC939FBFDF91CF911F919E
:101DB0000895CF93DF9390E0FC01E656FF4F249106
:101DC000FC01EA57FF4F8491882361F190E0880F6E
:101DD000991FFC01E859FF4FC591D491FC01EE58C1
:101DE000FF4FA591B491611109C09FB7F894888104
:101DF000209582238883EC912E230BC0623061F4FE
:101E00009FB7F8948881322F309583238883EC9193
:101E10002E2B2C939FBF06C08FB7F894E8812E2BF2
:101E200028838FBFDF91CF910895CF93DF93C9EFC0
:101E3000D5E061E089810E94D90E0E941F0A60E00E
:101E400088810E94D90E0E941F0A60E089810E9449
:101E5000D90EDF91CF910C941F0ACF93DF93D82F27
:101E6000C8E061E08091F9050E94D90E0E941F0A26
:101E7000D0FF02C060E001C061E08091FA050E94DD
:101E8000D90E0E941F0A60E08091F9050E94D90EC8
:101E90000E941F0AD695C15021F761E08091F90593
:101EA0000E94D90E60E08091FA050E94D90E0E942E
:101EB0001F0A60E08091F9050E94D90E0E941F0A56
:101EC0008091FA050E94810EC82F811105C061E042
:101ED0008091FA050E94D90E0E941F0A61E080914C
:101EE000F9050E94D90E0E941F0A81E0C11101C0AC
:101EF00080E0DF91CF91089561E08091FA050E9422
:101F0000D90E0C941F0AFF920F931F93CF93DF9368
:101F1000F82E092F162FC42F0E947C0F80E40E94F8
:101F20002D0F0E94150F0E947C0F8C2F8370805400
:101F30000E942D0FCF2DD02FCE01810F911D8C012E
:101F4000C017D10721F089910E942D0FF9CF0E946F
:101F5000150F0E947C0F8091FB058F7080580E94A6
:101F60002D0FDF91CF911F910F91FF900C94150FC2
:101F7000CF93DF9300D000D0CDB7DEB719821A829D
:101F80001B821C8240E064E0CE0101960E94830F18
:101F90000F900F900F900F90DF91CF9108958F9237
:101FA0009F92AF92BF92CF92DF92EF92FF920F93E8
:101FB0001F93CF93DF9300D000D0CDB7DEB7D62EDE
:101FC000C42EBC0197FF03C0719561957109FB0197
:101FD000392F331F3327331F8E010F5F1F4F5801D7
:101FE000AC0CB11C78018AE0882E912C40E40A15D3
:101FF0001B05D1F0CF01B4010E941224DC01BB27E4
:10200000A25FBE4F9C91D5019E935D01811106C0D8
:10201000309721F4332311F04C9330E0CF01B40119
:102020000E941224FB01E3CFD11016C0422F6C2D69
:10203000C8010E94830F0F900F900F900F90DF91B7
:10204000CF911F910F91FF90EF90DF90CF90BF90B5
:10205000AF909F908F900895AE014B5F5F4F8D2D95
:102060008078F7019081892BD7018D937D01DD0C5C
:102070004A175B07A1F7DACF8F929F92AF92BF9278
:10208000CF92DF92EF92FF926B017C010E94AD181C
:102090004B015C01C114D104E104F104F1F00E9490
:1020A000AD18DC01CB0188199909AA09BB09883E42
:1020B0009340A105B10570F321E0C21AD108E108EF
:1020C000F10888EE880E83E0981EA11CB11CC11493
:1020D000D104E104F10419F7DDCFFF90EF90DF9018
:1020E000CF90BF90AF909F908F9008950895CF921A
:1020F000DF92EF92FF920F931F93CF93DF936C01C8
:102100007A018B01C0E0D0E0CE15DF0581F0D80167
:102110006D918D01D601ED91FC910190F081E02D42
:10212000C6010995892B11F02196EECF7E01C701DA
:10213000DF91CF911F910F91FF90EF90DF90CF90A3
:102140000895FC01538D448D252F30E0842F90E0BD
:10215000821B930B541710F0CF96089501970895A2
:10216000FC01918D828D981761F0828DDF01A80F9F
:10217000B11D5D968C91928D9F5F9F73928F90E0C1
:1021800008958FEF9FEF0895FC01918D828D981730
:1021900031F0828DE80FF11D858D90E008958FEF6D
:1021A0009FEF0895FC01918D228D892F90E0805C36
:1021B0009F4F821B91098F739927089585E095E0C1
:1021C0000E94D21021E0892B09F420E0822F08958B
:1021D000FC01848DDF01A80FB11DA35ABF4F2C91C4
:1021E000848D90E001968F739927848FA689B78993
:1021F0002C93A089B1898C91837080648C93938D8A
:10220000848D981306C00288F389E02D80818F7D2C
:1022100080830895EF92FF920F931F93CF93DF93E4
:10222000EC0181E0888F9B8D8C8D981305C0E88927
:10223000F989808185FD26C0F62E0B8D10E00F5F99
:102240001F4F0F731127E02E8C8DE8120CC00FB6B4
:1022500007FCFACFE889F989808185FFF5CFCE01A7
:102260000E94E810F1CF8B8DFE01E80FF11DE35ABB
:10227000FF4FF0829FB7F8940B8FEA89FB8980812A
:1022800080620AC09FB7F894EE89FF896083E8896D
:10229000F98980818370806480839FBF81E090E0B2
:1022A000DF91CF911F910F91FF90EF900895CF9301
:1022B000DF93EC01888D8823C9F0EA89FB8980814E
:1022C00085FD05C0A889B9898C9186FD0FC00FB620
:1022D00007FCF5CF808185FFF2CFA889B9898C9161
:1022E00085FFEDCFCE010E94E810E7CFDF91CF91BF
:1022F000089580E090E0892B29F00E94DE10811182
:102300000C940000089585ED8093BC008091BC0082
:1023100084FDFCCF1092E104089540912B06262FF6
:1023200030E0240F311D21323105DCF42091E1042D
:102330002430C9F4FC0180E090E0861758F4309115
:102340002B062191DC01A55FB94FA30FB11D2C9382
:102350000196F3CF80912B06680F60932B0680E0E7
:10236000089581E0089582E00895089508950895FC
:10237000E0919A0480919904E81730F4F0E0E55672
:10238000FB4F808190E008958FEF9FEF089590912B
:102390009A0480919904981750F4E92FF0E0E556DB
:1023A000FB4F208130E09F5F90939A0402C02FEF93
:1023B0003FEFC90108958091990490E020919A041B
:1023C000821B91090895CF92DF92EF92FF920F93B3
:1023D0001F93CF93DF937C01CB018A012091E2040C
:1023E000222389F0EB016B01C40ED51ECC15DD054F
:1023F00069F06991D701ED91FC910190F081E02D98
:10240000C7010995F3CF642F0E948D11C801DF9198
:10241000CF911F910F91FF90EF90DF90CF90089593
:10242000CF93DF931F92CDB7DEB769832091E2048B
:102430002223D1F020910405203240F021E030E049
:10244000FC013383228380E090E015C08091E30497
:10245000E82FF0E0EC51FB4F998190838F5F8093E0
:10246000E3048093040505C061E0CE0101960E945B
:102470008D1181E090E00F90DF91CF9108950E943F
:102480008325CF93DF931F92CDB7DEB7698341E0F9
:1024900050E0BE016F5F7F4F0E94B9050F90DF9142
:1024A000CF9108951F920F920FB60F9211242F9380
:1024B0003F934F935F936F937F938F939F93AF93CC
:1024C000BF93EF93FF93E0910201F091030109950F
:1024D000FF91EF91BF91AF919F918F917F916F91FC
:1024E0005F914F913F912F910F900FBE0F901F90D2
:1024F00018951F920F920FB60F9211242F933F93AE
:102500004F935F936F937F938F939F93AF93BF93FB
:10251000EF93FF93E0910001F09101010995FF9184
:10252000EF91BF91AF919F918F917F916F915F914B
:102530004F913F912F910F900FBE0F901F901895C4
:102540006115710579F0FB0101900020E9F73197E1
:10255000AF01461B570BDC01ED91FC910280F3812A
:10256000E02D099480E090E008950C94A0121F9251
:102570000F920FB60F9211242F933F934F935F93B7
:102580006F937F938F939F93AF93BF93EF93FF933B
:1025900085E095E00E94E810FF91EF91BF91AF9127
:1025A0009F918F917F916F915F914F913F912F916B
:1025B0000F900FBE0F901F9018951F920F920FB69D
:1025C0000F9211242F938F939F93EF93FF93E0919A
:1025D0001505F09116058081E0911B05F0911C0511
:1025E00082FD12C0908180911E058F5F8F732091B4
:1025F0001F05821751F0E0911E05F0E0EB5FFA4FE6
:10260000958F80931E0501C08081FF91EF919F916E
:102610008F912F910F900FBE0F901F9018951F92C2
:102620000F920FB60F9211242F933F934F935F9306
:102630006F937F938F939F93AF93BF93EF93FF938A
:10264000E0913602F09137020995FF91EF91BF9129
:10265000AF919F918F917F916F915F914F913F913A
:102660002F910F900FBE0F901F901895EF92FF9231
:102670000F931F93CF93DF93EC0169813881432F30
:1026800050E08A8190E0E2EDF0E021E0261730F49E
:102690007491870F911D2F5F3196F8CF633018F03A
:1026A000337009F401966DE671E0469F9001479FF3
:1026B000300D569F300D1124215031094D5F5F4F71
:1026C0005695479556954795240F351F280F391F66
:1026D000A8E1B0E00E94C1232B817B018C01E20EB6
:1026E000F11C011D111DA8019701ACE3B0E00E948F
:1026F0007F232C817B018C01E20EF11C011D111D39
:10270000A80197010E947F232D81DC01CB01820F5C
:10271000911DA11DB11DBC01CD0160587C4B8249AA
:10272000974CDF91CF911F910F91FF90EF900895FB
:102730008F929F92AF92BF92CF92DF92EF92FF92D1
:10274000CF93DF93EC016A017B0180E8C81A83E430
:10275000D80A8DE6E80A88E3F80A8CE3882E912CE3
:10276000A12CB12CC701B601A50194010E943A2405
:102770006D83CA01B901A50194010E943A246C83BA
:10278000C701B60120E13EE040E050E00E943A245B
:10279000CA01B90128E130E040E050E00E943A244B
:1027A0006B83C701B60120E831E541E050E00E94AB
:1027B0003A2418824881542F537081E009F080E058
:1027C00090E0BC0163597E4F2617370738F0281B6D
:1027D000390B2D5631404F5F4883ECCF81E0898320
:1027E0008981E82FF0E0EF52FF4FE491511103C0CF
:1027F000823009F4EF5FF0E02E173F0720F02E1B28
:102800003F0B8F5FECCF2F5F2A83DF91CF91FF903B
:10281000EF90DF90CF90BF90AF909F908F900895F2
:102820001F920F920FB60F9211242F933F934F9345
:102830005F936F937F938F939F93AF93BF93EF9328
:10284000FF938091B900887F803609F49CC068F5B9
:10285000883209F45BC090F4803109F454C038F434
:10286000882309F4F6C0883009F44DC0F6C08831D9
:1028700009F44CC0803209F45DC0EFC0803409F423
:1028800068C048F4803309F455C0883309F0E5C0C6
:102890008093DF04D8C0803509F44FC0883509F42F
:1028A0005DC0883409F0D9C0D6C0883909F4C7C0E2
:1028B000A8F4883709F467C038F4883609F463C08F
:1028C000803709F460C0C9C0883809F4B8C08039BD
:1028D00009F45FC0803809F0C0C05BC0803B09F4D8
:1028E00086C038F4803A09F466C0883A09F47FC09B
:1028F000B4C0803C09F4A7C0883C09F4A4C0883B5C
:1029000009F48AC0AAC08091BC0410C09091DE0472
:102910008091DD04981770F5E091DE0481E08E0F60
:102920008093DE04F0E0E354FB4F80818093BB0092
:1029300085EC86C08093DF048EC0E091DE0481E0E8
:102940008E0F8093DE048091BB00F0E0E354FB4FD8
:1029500080839091DE048091DD046EC0E091DE04FE
:1029600081E08E0F8093DE048091BB00F0E0E354A1
:10297000FB4F80838091E00481116DC081E08093E2
:10298000BB0484EA61C083E08093E10410924D06A9
:10299000CFCF80914D06803208F051C0E0914D06B6
:1029A00081E08E0F80934D068091BB00F0E0E35DE7
:1029B000F94F8083BDCF85EC8093BC001092E10479
:1029C00080914D06803230F4E0914D06F0E0E35DF9
:1029D000F94F108260914D0670E0E0913802F0915D
:1029E00039028DE296E0099510924D0636C084E0DA
:1029F0008093E10410922C0610922B06E0913A028B
:102A0000F0913B02099580912B06811105C081E070
:102A100080932B0610920B06E0912C0681E08E0F1E
:102A200080932C06F0E0E55FF94F80818093BB0036
:102A300090912C0680912B06981708F479CF85E8A1
:102A40008093BC000AC085EC8093BC001092E10426
:102A500004C01092DF040E948311FF91EF91BF9197
:102A6000AF919F918F917F916F915F914F913F9126
:102A70002F910F900FBE0F901F9018958091060612
:102A80008823A9F14091040150910501609106014C
:102A90007091070127E932E08091970490919804A2
:102AA0000E944D05811102C080E008954091070603
:102AB000509108066091090670910A06411551056A
:102AC0006105710591F027E932E0809197049091BA
:102AD00098040E944D05882339F31092070610923E
:102AE00008061092090610920A061092060681E066
:102AF00008958F929F92AF92BF92EF92FF920F93A1
:102B00001F93CF934B015C01C42F809104019091DE
:102B10000501A0910601B091070188159905AA0544
:102B2000BB0501F10E943E15811102C080E020C06A
:102B300087E9E82E82E0F82E00E012E020E030E0A5
:102B4000B501A40180919704909198040E94B90462
:102B5000882361F38092040190920501A0920601FE
:102B6000B092070180910606C82BC093060681E04B
:102B7000CF911F910F91FF90EF90BF90AF909F90DA
:102B80008F9008954F925F926F927F928F929F9253
:102B9000AF92BF92CF92DF92EF92FF920F931F936B
:102BA000CF93DF93EC01423051056105710510F4BC
:102BB00080E078C089859A85AB85BC850196A11D8A
:102BC000B11D84179507A607B70790F3CB88DC885B
:102BD000ED88FE888F89803129F4BB27A72F962F97
:102BE000852F09C0DB01CA01E7E0B695A795979547
:102BF0008795EA95D1F7480159012A013B01C80E92
:102C0000D91EEA1EFB1E8091040190910501A0913E
:102C10000601B0910701C816D906EA06FB0681F441
:102C20008F898031A9F4B301A20155276627772740
:102C3000440F551FFA01E956FD4F9182808219C059
:102C400040E0C701B6010E9479158111E9CFB0CFEC
:102C5000B301A2014F77552766277727440F551FE9
:102C6000440F551FFA01E956FD4F80829182A282DE
:102C7000B382809106068160809306068A8982303D
:102C800080F08D819E81AF81B885C80ED91EEA1E65
:102C9000FB1EC0920706D0920806E0920906F09249
:102CA0000A0681E0DF91CF911F910F91FF90EF9085
:102CB000DF90CF90BF90AF909F908F907F906F905C
:102CC0005F904F9008958F929F92AF92BF92CF9254
:102CD000DF92EF92FF920F931F93CF93DF93FC014C
:102CE00081859285A385B4850196A11DB11D8417A8
:102CF0009507A607B70710F480E05BC08388948827
:102D0000A588B6888789803129F4BB27A72F962FFD
:102D1000852F09C0DB01CA01C7E0B695A795979535
:102D20008795CA95D1F7E9016A017B018F01BC0142
:102D3000CD01680D791D8A1D9B1D80900401909026
:102D40000501A0900601B0900701681579058A0574
:102D50009B0591F4F80187898031A1F4DD24EE24EC
:102D6000FF24C601880F991FFC01E956FD4F8081A1
:102D70009181A0E0B0E018C040E00E947915811177
:102D8000E9CFBACFE894C7F8DD24EE24FF24C601CA
:102D9000880F991F880F991FFC01E956FD4F80810C
:102DA0009181A281B381BF7088839983AA83BB83F9
:102DB00081E0DF91CF911F910F91FF90EF90DF9015
:102DC000CF90BF90AF909F908F9008952F923F9299
:102DD0004F925F926F927F928F929F92AF92BF922B
:102DE000CF92DF92EF92FF920F931F93CF93DF93D7
:102DF000CDB7DEB72B970FB6F894DEBF0FBECDBFB1
:102E00007C01FE013196CE010C966F0130E23193C8
:102E1000E817F907E1F7DA0130E087E09D9199239F
:102E200031F19E3231F48A3009F479C138E08AE018
:102E3000F5CFE2ECF0E04491442321F03196941375
:102E4000FACF6DC1831708F46AC14FED490F4E35B3
:102E500008F065C141E0430FF601E30FF11D3FE9C2
:102E6000390F3A3108F490529083342FD7CF8981AB
:102E7000803209F454C1322E8B01DB015B968D91B7
:102E80009C915C97F701948F838F16961D921D92EB
:102E90001D921C921997FB011286138614861586C3
:102EA000B12CF80182859385A485B5854389548921
:102EB0006589768984179507A607B70708F05BC070
:102EC00025E0B695A795979587952A95D1F7F82F80
:102ED000FF70AF2ED80115968C91823008F41FC177
:102EE000C8010E94C70797FD1AC1F8018285938522
:102EF000A485B5854F96A11DB11D82879387A487B0
:102F0000B587F0E2AF9EB001112469567D4F61157F
:102F1000710509F404C1DB018C91882319F0853E09
:102F2000C1F4FFC0B1100EC0F701A28A8091040164
:102F300090910501A0910601B091070186879787BE
:102F4000A08BB18BDB018C91882399F0BB24B394C7
:102F5000A8CF4BE050E0C6010E948825892B09F0DC
:102F6000A0CF832D8073803309F4D9C0432D6A2DFF
:102F7000D2C0BB24B394832D8271823109F0CFC0BB
:102F8000BB20C9F0F701668577858089918941E08A
:102F90000E947915882309F4C2C0D70152960C917A
:102FA000B0E20B9F8001112409561D4F0115110538
:102FB00009F078C0B4C0F8018581823009F4AFC04F
:102FC000C8010E94FE02882309F4A9C0D8015B96BB
:102FD000ED91FC915C9716968D909D90AD90BC9074
:102FE0001997B2E08B1A9108A108B108058404C0B2
:102FF000880C991CAA1CBB1C0A94D2F7868597855D
:10300000A089B189880E991EAA1EBB1E2480E1E00A
:103010008E1A9108A108B108222009F12401350176
:10302000420C511C611C711C0E943E15882309F43E
:1030300076C0E7E9F2E0119224E0E739F207D9F728
:1030400040920401509205016092060170920701BE
:10305000809106068160809306062A94DDCFD80110
:103060005B96ED91FC915C9780E092E0A0E0B0E08F
:10307000058404C0880F991FAA1FBB1F0A94D2F7AA
:10308000F8014389548965897689840F951FA61FA5
:10309000B71F838B948BA58BB68BD70152961C924E
:1030A00007E912E080E2F80111928A95E9F78BE0D6
:1030B000F601D80101900D928A95E1F7E0913C026A
:1030C000F0913D02309739F0B801625F7F4FC8013F
:1030D000409609950DC081E298E2D80151969C93E3
:1030E0008E93509780E098E01F969C938E931E9746
:1030F000F80180899189938B828B918F808F86854F
:103100009785978B868B0E943E15882341F0432D2F
:10311000D70152966C91C7010E94F50105C080E06D
:1031200003C0B11013CF00CF2B960FB6F894DEBFBB
:103130000FBECDBFDF91CF911F910F91FF90EF9008
:10314000DF90CF90BF90AF909F908F907F906F90C7
:103150005F904F903F902F9008953FB7F8948091E3
:10316000530690915406A0915506B091560626B587
:10317000A89B05C02F3F19F00196A11DB11D3FBFAF
:10318000BA2FA92F982F8827820F911DA11DB11D3D
:10319000BC01CD0142E0660F771F881F991F4A9539
:1031A000D1F708952FB7F89460914F0670915006AB
:1031B00080915106909152062FBF08951F920F9251
:1031C0000FB60F9211242F933F938F939F93AF933A
:1031D000BF9380914F0690915006A0915106B091F7
:1031E000520630914E0623E0230F2D3720F401962E
:1031F000A11DB11D05C026E8230F0296A11DB11D1A
:1032000020934E0680934F0690935006A09351064C
:10321000B09352068091530690915406A0915506A2
:10322000B09156060196A11DB11D8093530690934F
:103230005406A0935506B0935606BF91AF919F9147
:103240008F913F912F910F900FBE0F901F90189567
:10325000CF93DF93CDB7DEB7CA56D1090FB6F89436
:10326000DEBF0FBECDBF789484B5826084BD84B5C7
:10327000816084BD85B5826085BD85B5816085BD71
:1032800080916E00816080936E0010928100809129
:1032900081008260809381008091810081608093B1
:1032A0008100809180008160809380008091B100D6
:1032B00084608093B1008091B00081608093B00001
:1032C00080917A00846080937A0080917A00826095
:1032D00080937A0080917A00816080937A00809157
:1032E0007A00806880937A001092C10010927E026A
:1032F00010927D021092800210927F021092810241
:1033000061E087E00E94D90E60E087E00E94AA0E8B
:1033100061E088E00E94D90E60E088E00E94AA0E79
:1033200010927B0262E086E00E94D90E62E085E0A6
:103330000E94D90E109235021092340282E58093D9
:10334000820285E00E94810E892B19F089E4809326
:10335000820210918202193419F480ED97E004C0C2
:10336000123551F488EC90E09093860280938502A8
:1033700010928402109283020E94B80F812F110FC5
:10338000990B8C56914011F480E501C080E18E8F3D
:1033900016E01F8F86E688A38DE689A340E064E0EF
:1033A000CE014E960E94830F60ED77E080E090E0C2
:1033B0000E943C10E0911505F091160582E0808393
:1033C000E0911105F09112051082E0911305F09142
:1033D000140580E1808310921D05E0911905F0919C
:1033E0001A051083E0911705F0911805808180611E
:1033F0008083E0911705F0911805808188608083B3
:10340000E0911705F0911805808180688083E09134
:103410001705F091180580818F7D808384E690E008
:10342000A0E0B0E08093090590930A05A0930B05F6
:10343000B0930C058EE691E09F938F9383E791E024
:103440009F938F9389E492E09F938F930E94AF257F
:1034500069E472E085E095E00E94B5128FE0809308
:10346000FB050E94B80F60EA71E085E095E00E94DC
:10347000B51281E080933F0280933E028FEC99E089
:1034800090933D0280933C020F900F900F900F900D
:103490000F900F908091DF05882321F08AED95E051
:1034A0000E94F2021092BB051092B9051092B60567
:1034B0001092B5058AE08093B4050E94D2188B0162
:1034C00061E08091B4050E94D90E61E08091B4055D
:1034D0000E94AA0EFFB6F89480914802811127C07D
:1034E000E0E9F0E08491E4EAF0E09491E82FF0E084
:1034F000EE0FFF1FE859FF4FA591B491EC91E9231E
:1035000021F461E08AE00E94AA0E61E08AE00E9454
:10351000D90E8CB580618CBD8CB580648CBD61E0AA
:103520008DE00E94D90E61E08BE00E94D90E80915F
:1035300048028F5F80934802FFBE82E58093AE050C
:103540001092AF058091AE059091AF050E94510495
:10355000BAE0FB2E8FEF0E941204FA94F110FACF1A
:1035600080EB95E00E94540420E030E0A90160E087
:1035700080EB95E00E946A04F82E8093BA0531E052
:10358000831749F00E94D218601B710B613D774090
:1035900058F381E056C02AEA31E040E050E068E0AC
:1035A00080EB95E00E946A0482FF03C0F092BB05A5
:1035B00010C0A4E0FA2E0E9419048093BA05FA9470
:1035C000F110F9CF8A3A11F082E03BC082E080939B
:1035D000BB058091BB05823031F4C12CD12CE12C8C
:1035E000F0E4FF2E03C0C12CD12C760120E030E0A6
:1035F000A90167E380EB95E00E946A04A7019601A8
:1036000069E280EB95E00E946A048093BA05882302
:1036100049F00E94D218601B710B613D774030F376
:1036200088E00FC08091BB05823001F520E030E0DA
:10363000A9016AE380EB95E00E946A04882341F0C7
:1036400086E08093B50580EB95E00E94070428C0D2
:103650000E941904807C803C19F483E08093BB05B0
:103660000E9419040E9419040E94190480EB95E03D
:103670000E94070480E58093AE051092AF0581E0BB
:103680000E94FD0B882339F08AED95E00E94A90B7A
:10369000882331F007C080E00E94FD0B8111F4CF38
:1036A00080E0FAC460EA71E085E095E00E94B5121E
:1036B0001092470281E0809346028093450290E198
:1036C000909381001092800093E09093440222E155
:1036D0003AE7309387002093860093E1909381002E
:1036E00025ED30E0309337022093360280936F004F
:1036F00010928100109285001092840090914402F3
:103700009061909381004FE458E169E47CE5409337
:103710004002509341026093420270934302109220
:103720009A04109299041092E304109204051092E6
:10373000E1048093E0041092BB0461E082E10E9406
:10374000AA0E61E083E10E94AA0E8091B9008E7FEB
:103750008093B9008091B9008D7F8093B90088E48F
:103760008093B80085E48093BC0085EB91E1909351
:103770003B0280933A0286EB91E190933902809369
:10378000380260EA71E085E095E00E94B51288E6B3
:103790000E94ED0A80E090E00E94E80A0E948C0AF4
:1037A00087E090E00E94F70A82EA95E00E94C71144
:1037B0008F77982F92959F701AEF082F919F000D89
:1037C000112482EA95E00E94C7119C01332744E04E
:1037D000359527954A95E1F7F82E129FF00C1124A4
:1037E00082EA95E00E94C7119C01332754E0359589
:1037F00027955A95E1F7E82E129FE00C112482EAF2
:1038000095E00E94C71182EA95E00E94C7119C01D1
:10381000332764E0359527956A95E1F7D82E129FF6
:10382000D00C112482EA95E00E94C7119C01332735
:1038300074E0359527957A95E1F7C82E129FC00C54
:10384000112482EA95E00E94C7119C013327E4E02D
:1038500035952795EA95E1F7129F800D112489830C
:10386000CA82DB82EC82FD820E83CE0101960E9429
:10387000361360934002709341028093420290930A
:10388000430288E60E94ED0A8EE090E00E94E80A7A
:103890000E948C0A81E090E00E94F70A82EA95E09B
:1038A0000E94C711182F88E60E94ED0A8EE090E072
:1038B0000E94E80A612F637282EA95E00E9410126A
:1038C0000E948C0A60EA71E085E095E00E94B512E2
:1038D00062E080E00E94D90E8BE391E090930101B9
:1038E00080930001809169008C7F816080936900E2
:1038F000E89A6DE871E085E095E00E94A01262EA26
:1039000071E085E095E00E94A0120091FE053091E3
:10391000FF05A9963FAFA99780910006A8968FAFA3
:10392000A897F0900106A796FFAEA7979091020680
:10393000A6969FAFA69720914702222309F439C289
:10394000233009F497C030F4213059F0223009F4C3
:1039500055C02CC2243009F4C4C0253009F403C179
:1039600025C210E00053184F80914602882379F059
:1039700080914502882339F020E044E060E0C801EE
:103980000E94CF0F02C00E94B80F10924602BE01E3
:1039900067597F4FCE0186599F4F0E94E408AB962E
:1039A0009FADAB97AA968FADAA97911123C088239C
:1039B00009F446C4C801805D97408336910518F428
:1039C0000F5F1F4F02C000ED17E0109281001092B0
:1039D0008500109284008091440280618093810070
:1039E00081E08093460280934502005D174000937A
:1039F000FE0537C0811124C482E039C0809146029F
:103A0000882381F080914502882341F020E042E044
:103A100060E0832F90E00E94CF0F02C00E94B80F99
:103A200010924602BE0167597F4FCE0186599F4FC3
:103A30000E94E408AB969FADAB97AA968FADAA976C
:103A4000911112C0882309F4FBC34CE061E0CE0160
:103A500088599F4F0E94B409A9968FADA99780936A
:103A6000FF0510920306ECC38111EAC383E00E94B4
:103A7000A109E6C390914602992379F090914502FD
:103A8000992339F022E042E060E090E00E94CF0FFD
:103A900002C00E94B80F10924602BE0167597F4FC4
:103AA000CE0186599F4F0E94E408AB969FADAB971D
:103AB000AA968FADAA97911110C0882309F4C0C3AC
:103AC0004FE161E0CE0189599F4F0E94B409A89649
:103AD0008FADA89780930006C4CF8111B1C384E055
:103AE000C6CF809146028823D1F080914502092FEC
:103AF00010E0882351F020E044E060EEC801E4E6E5
:103B0000FE9E800D911D112406C00E94B80F22E078
:103B100042E060EEC8010E94CF0F10924602BE0143
:103B200067597F4FCE0186599F4F0E94E408AB969C
:103B30009FADAB97AA968FADAA97911110C088231D
:103B400009F47EC347E160E0CE018A599F4F0E948D
:103B5000B409A7968FADA7978093010682CF8111F4
:103B60006FC385E084CF809146028823D1F0809195
:103B70004502882359F0892F90E020E044E060EE70
:103B8000F4E6FF9E800D911D112407C00E94B80F1E
:103B900020E042E060EE8F2D90E00E94CF0F109267
:103BA0004602BE0167597F4FCE0186599F4F0E9442
:103BB000E408AB969FADAB97AA968FADAA979111EB
:103BC00010C0882309F43CC34BE360E0CE018B595D
:103BD0009F4F0E94B409A6968FADA69780930206C8
:103BE00040CF81112DC30091FE0588E60E94ED0AA9
:103BF00086E090E00E94E80A1AE0802F612F0E9480
:103C00000624692F20E1829F600D112482EA95E04D
:103C10000E9410120E948C0A0091FF0588E60E9403
:103C2000ED0A85E090E00E94E80A802F612F0E9453
:103C30000624692F30E1839F600D112482EA95E00C
:103C40000E9410120E948C0A0091000688E60E94D1
:103C5000ED0A84E090E00E94E80A802F612F0E9424
:103C60000624692FE0E18E9F600D112482EA95E021
:103C70000E9410120E948C0A0091010688E60E94A0
:103C8000ED0A82E090E00E94E80A0E948C0A81E03E
:103C900090E00E94F70A82EA95E00E94C71186FF31
:103CA00018C00D3060F084EF800F612F0E94062451
:103CB000192FF0E18F9F100D1124106614C0802F72
:103CC000612F0E940624192F20E1829F100D1124DC
:103CD0000AC0802F612F0E940624192F30E1839F94
:103CE000100D11241F7B88E60E94ED0A82E090E00F
:103CF0000E94E80A612F82EA95E00E9410120E9459
:103D00008C0A1091020688E60E94ED0A81E090E09C
:103D10000E94E80A812F6AE00E940624692FE0E1F0
:103D20008E9F600D112482EA95E00E9410120E947D
:103D30008C0A88E60E94ED0A80E090E00E94E80A82
:103D400060E082EA95E00E9410120E948C0A88E6E8
:103D50000E94ED0A8FE090E00E94E80A0E948C0A1F
:103D600081E090E00E94F70A82EA95E00E94C71184
:103D7000182F88E60E94ED0A8FE090E00E94E80A82
:103D8000612F6F7782EA95E00E9410120E948C0AE0
:103D90008EEF95E00E9436136093400270934102CB
:103DA000809342029093430280E061CE10924702DA
:103DB00047C280918202823509F0B5C0109181021C
:103DC000812F90E064E070E0681B790B83589D4F71
:103DD0000E94300E882309F465C1810F809381020F
:103DE000843009F02DC220917D0230917E0232276D
:103DF0002327322730937E0220937D0280917F0219
:103E00009091800298278927982790938002809329
:103E10007F0260918502709186022617370708F0AD
:103E20007FC040918302509184024217530708F0EB
:103E300077C08617970708F073C04817590708F02E
:103E40006FC080917C02882309F46AC061E088E039
:103E50000E94AA0E85E080937B024091400250911F
:103E600041026091420270914302CE014E960E943F
:103E70009813CE0101960E943D0DEA8DFB8D30977F
:103E800009F44AC08581882309F446C04091400264
:103E900050914102609142027091430280918002F0
:103EA0008F9380917F028F9380917E028F93809178
:103EB0007D028F938BA11F928F938AA11F928F9364
:103EC00089A11F928F9388A11F928F938F8D1F922C
:103ED0008F938E8D90E08053984F9F938F937F9315
:103EE0006F935F934F9385EA91E09F938F9389E45B
:103EF00092E09F938F930E94AF2569E472E0CE0118
:103F000001960E94B512CE0101960E942B0D0FB6AC
:103F1000F894DEBF0FBECDBF60E088E00E94AA0E1D
:103F2000109281028DC1893409F0BCC000918102D8
:103F3000802F90E062E070E0681B790B83589D4F02
:103F40000E94300E182F882309F4ACC001110FC055
:103F500080917D0290917E02282F207F19F480931A
:103F60007D0205C01150892FB9F790937D02010F92
:103F7000023008F493C01092810280917D029091EA
:103F80007E0298278927982790937E0280937D024E
:103F900020917C02222309F483C09770209185022E
:103FA000309186022817390708F47AC020918302DD
:103FB000309184028217930708F472C061E088E0B0
:103FC0000E94AA0E4091400250914102609142022B
:103FD00070914302CE014E960E949813CE01019635
:103FE0000E943D0DEA8DFB8D309709F454C0858108
:103FF000882309F450C080917D0290917E029C013B
:10400000377093FF03C088EE93E002C080E090E039
:1040100040914002509141026091420270914302EE
:104020003F932F939F938F938BA11F928F938AA17E
:104030001F928F9389A11F928F9388A11F928F93B4
:104040008F8D1F928F938E8D90E08053984F9F930A
:104050008F937F936F935F934F9385EA91E09F9344
:104060008F9389E492E09F938F930E94AF2569E438
:1040700072E0CE0101960E94B512CE0101960E9417
:104080002B0D60E088E00E94AA0E0FB6F894DEBF08
:104090000FBECDBF05C083E00E947C090093810262
:1040A0001111CEC01092810280913F028823F1F05D
:1040B00010923F02409140025091410260914202B1
:1040C00070914302CE0101960E9498132C818D813C
:1040D00090E0E4E62E9F800D911D112420913E0278
:1040E0002111B1C044E060EE0E94CF0FBE016759BC
:1040F0007F4FCE0186599F4F0E94E40890917C0229
:10410000992309F4A4C0AB968FADAB97882309F42B
:10411000F3C0AA962FADAA972111EEC081E0292EF7
:10412000282620927C02222009F4E1C061E087E089
:104130000E94AA0EC12CD12C98E5A92E91E0B92E8F
:10414000DF92CF922EEC31E03F932F93E9E8F2E03B
:10415000FF93EF930E94AF251EAE1DAEBCAEABAE7B
:1041600021961FAE219719A218A2BF8EAE8E1BA258
:104170000F900F900F900F900F900F90612C712C5B
:10418000CE01CB967C010AED15E0C301F301E757A0
:10419000FD4F20812F3209F40196DC01A757BD4F56
:1041A000FE01E85AFF4F20E030E04F014D914F32C1
:1041B00009F070C0F401E20FF31F1082FC01E75711
:1041C000FD4F20812F3209F401963C01FC01E75795
:1041D000FD4F30801C821B82BA82A9821E8221E0A0
:1041E000A401B801CE0101960E94E616882309F4C5
:1041F0000AC1CE0101960E94F202332009F462C086
:10420000F70185818111FFC021E0A401B801C70138
:104210000E94E616982EF5E00A3D1F0709F446C0F5
:10422000C8010E94F202911047C0CE0101960E947F
:104230003D0DEA8DFB8D309719F085818111D1C03C
:104240000E94791162CB20E044E060E04DCFAB9654
:104250008FADAB97882309F456CFAA968FADAA9756
:10426000882309F450CF409140025091410260915F
:10427000420270914302CE0101960E94981386E09B
:10428000FE013196AEEFB5E001900D928A95E1F70F
:1042900081E0EDCB442309F48DCF2F5F3F4F019692
:1042A00041932C30310509F081CF84CF882309F464
:1042B000BCCF8E01025E1F4F902F812F8701E92E08
:1042C000F82E63CF25E00A3D120719F0C8010E94BD
:1042D000F202222009F4A9CF3FEFC31AD30A80E1EA
:1042E000C81687E2D80609F02BCF82E0D5CE60E071
:1042F00087E00E94AA0EA4CFAA969FADAA97992301
:1043000009F49ECF81119CCF88E60E94ED0A81E1DD
:1043100090E00E94E80A0E948C0A82E090E00E94ED
:10432000F70A9091990480919A049817F9F082EA1B
:1043300095E00E94C711182F82EA95E00E94C711EC
:10434000512E412CB201682B86E0759567958A95B0
:10435000E1F7072E000C880B990B0E94862220E0C3
:1043600030E040E85EE30E94C12204C060E07CE3EC
:104370008CE196EC0E94D0239B0119821A821B8249
:104380001C8249E34C8377FF0BC022273327261B6F
:10439000370B80E42A30310514F48A8301C0898305
:1043A000C9016AE070E00E942624FC01E25FFE4F32
:1043B00080818B832A3031053CF06F70E62FF0E06E
:1043C000E25FFE4F80818A8340E064E0CE01019687
:1043D0000E94830F68EB7BE080E090E00E943C103D
:1043E0002FCF80918202893419F46BED71E002C005
:1043F00063E072E0CE0101960E94B512CE010196F3
:104400000E942B0D1DCF95E00A3D190709F40DCF31
:10441000C8010E94F20209CFCF93DF93E5E0F5E0F7
:104420001382128288EE93E0A0E0B0E0848395834B
:10443000A683B78324E331E03183208325EC30E089
:104440003587248724EC30E03787268720EC30E05E
:10445000318B208B21EC30E0338B228B22EC30E04F
:10446000358B248B26EC30E0378B268B118E128E09
:10447000138E148EE2EAF5E0138212828483958310
:10448000A683B78386E491E091838083EEEAF5E02A
:1044900080E580831182E0EBF5E0158216821186BB
:1044A000138682E090E0A0E0B0E084879587A6873D
:1044B000B78713A215A614A688E591E093A782A753
:1044C00017A640E050E0BA018EEF95E00E949813E5
:1044D000C9EFD5E083E0888384E0898384E690E0B7
:1044E0009C838B8360E083E00E94D90E60E0898129
:1044F0000E94D90E60E088810E94AA0E60E0898146
:10450000DF91CF910C94AA0EE89409C097FB3EF47A
:1045100090958095709561957F4F8F4F9F4F992310
:10452000A9F0F92F96E9BB279395F695879577958E
:104530006795B795F111F8CFFAF4BB0F11F460FF4E
:104540001BC06F5F7F4F8F4F9F4F16C0882311F0A6
:1045500096E911C0772321F09EE8872F762F05C0BA
:10456000662371F096E8862F70E060E02AF09A9555
:10457000660F771F881FDAF7880F9695879597F94A
:1045800008950E94D4220C9445230E94372338F0CA
:104590000E943E2320F0952311F00C942E230C94BE
:1045A000342311240C9479230E94562370F3959F91
:1045B000C1F3950F50E0551F629FF001729FBB271A
:1045C000F00DB11D639FAA27F00DB11DAA1F649FB6
:1045D0006627B00DA11D661F829F2227B00DA11D69
:1045E000621F739FB00DA11D621F839FA00D611DEF
:1045F000221F749F3327A00D611D231F849F600D10
:10460000211D822F762F6A2F11249F5750409AF038
:10461000F1F088234AF0EE0FFF1FBB1F661F771FC4
:10462000881F91505040A9F79E3F510580F00C948F
:104630002E230C9479235F3FE4F3983ED4F38695C0
:1046400077956795B795F795E7959F5FC1F7FE2B2F
:10465000880F911D9695879597F9089597F99F670B
:1046600080E870E060E008959FEF80EC08950024FA
:104670000A941616170618060906089500240A94C7
:1046800012161306140605060895092E0394000C4D
:1046900011F4882352F0BB0F40F4BF2B11F460FFDC
:1046A00004C06F5F7F4F8F4F9F4F089557FD905805
:1046B000440F551F59F05F3F71F04795880F97FBE6
:1046C000991F61F09F3F79F08795089512161306A0
:1046D0001406551FF2CF4695F1DF08C016161706CF
:1046E0001806991FF1CF8695710561050894089504
:1046F000E894BB2766277727CB0197F908950E9496
:10470000C123A59F900DB49F900DA49F800D911D76
:10471000112408952F923F924F925F926F927F9251
:104720008F929F92AF92BF92CF92DF92EF92FF92C1
:104730000F931F93CF93DF93CDB7DEB7CA1BDB0B6D
:104740000FB6F894DEBF0FBECDBF09942A88398812
:1047500048885F846E847D848C849B84AA84B98419
:10476000C884DF80EE80FD800C811B81AA81B98125
:10477000CE0FD11D0FB6F894DEBF0FBECDBFED0139
:104780000895A29FB001B39FC001A39F700D811D2A
:104790001124911DB29F700D811D1124911D08954A
:1047A0000E94D7236894B1110C94792308950E9434
:1047B0005E2388F09F5798F0B92F9927B751B0F032
:1047C000E1F0660F771F881F991F1AF0BA95C9F795
:1047D00014C0B13091F00E947823B1E008950C9498
:1047E0007823672F782F8827B85F39F0B93FCCF34B
:1047F000869577956795B395D9F73EF49095809512
:10480000709561957F4F8F4F9F4F0895991B79E069
:1048100004C0991F961708F0961B881F7A95C9F750
:1048200080950895AA1BBB1B51E107C0AA1FBB1F9F
:10483000A617B70710F0A61BB70B881F991F5A952C
:10484000A9F780959095BC01CD01089597FB072E9F
:1048500016F4009407D077FD09D00E94122407FCBB
:1048600005D03EF4909581959F4F08957095619580
:104870007F4F0895A1E21A2EAA1BBB1BFD010DC09C
:10488000AA1FBB1FEE1FFF1FA217B307E407F50700
:1048900020F0A21BB30BE40BF50B661F771F881FDC
:1048A000991F1A9469F760957095809590959B0172
:1048B000AC01BD01CF010895EE0FFF1F0590F491EB
:1048C000E02D09940F931F93CF93DF9382309105CE
:1048D00010F482E090E0E0915906F0915A0620E051
:1048E00030E0A0E0B0E0309719F1408151810281C1
:1048F000138148175907C8F08417950769F4109772
:1049000031F012960C93129713961C9327C00093C4
:10491000590610935A0622C02115310519F0421785
:10492000530718F49A01BD01EF01DF01F801DBCF55
:1049300021153105F9F0281B390B2430310580F49D
:104940008A819B816115710521F0FB01938382832C
:1049500004C090935A0680935906FE01329644C0D3
:10496000FE01E20FF31F81939193225031093983A5
:1049700028833AC02091570630915806232B41F4E2
:1049800020910A0130910B0130935806209357066D
:1049900020910801309109012115310541F42DB70D
:1049A0003EB740910C0150910D01241B350BE09155
:1049B0005706F0915806E217F307A0F42E1B3F0BA1
:1049C0002817390778F0AC014E5F5F4F2417350781
:1049D00048F04E0F5F1F509358064093570681933F
:1049E000919302C0E0E0F0E0CF01DF91CF911F9101
:1049F0000F910895CF93DF93009709F481C0FC01D4
:104A0000329713821282A0915906B0915A061097DC
:104A100081F420813181820F931F209157063091BC
:104A200058062817390751F5F0935806E0935706B2
:104A300067C0ED0120E030E0CE17DF0740F44A8187
:104A40005B819E0141155105F1F0EA01F5CFD38359
:104A5000C28340815181840F951FC817D90759F42B
:104A600088819981840F951F0296918380838A8122
:104A70009B81938382832115310529F4F0935A0693
:104A8000E09359063DC0E901FB83EA8349915991BE
:104A9000C40FD51FEC17FD0761F480819181840F4D
:104AA000951F0296E90199838883828193819B8374
:104AB0008A83E0E0F0E012968D919C911397009725
:104AC00019F0FD01DC01F7CF8D919C9111979D01AB
:104AD0002E5F3F4F820F931F20915706309158064B
:104AE0002817390769F4309729F410925A06109262
:104AF000590602C013821282B0935806A09357063B
:104B0000DF91CF91089581E090E0F8940C946228B1
:104B1000FB01DC0104C08D910190801921F441500A
:104B20005040C8F7881B990B0895FC0181918617A6
:104B300021F08823D9F7992708953197CF01089557
:104B4000FB01DC014150504048F001900D920020E3
:104B5000C9F701C01D9241505040E0F70895AEE002
:104B6000B0E0E5EBF5E20C9498230D891E8986E010
:104B70008C831A8309838FEF9FE79E838D83AE0119
:104B8000475E5F4F6F89788DCE0101960E94D125D7
:104B9000EF81F885E00FF11F10822E96E4E00C946F
:104BA000B423ABE0B0E0E7EDF5E20C948A236C01AE
:104BB0007B018A01FC0117821682838181FFCCC1AF
:104BC000CE0101963C01F6019381F70193FD859199
:104BD00093FF81917F01882309F4BAC1853239F4AA
:104BE00093FD859193FF81917F01853229F4B60170
:104BF00090E00E94C827E7CF912C212C312CFFE1B7
:104C0000F315D8F08B3279F038F4803279F08332B2
:104C1000A1F4232D20611DC08D3261F0803369F431
:104C2000232D216016C0832D8260382EE32DE46091
:104C30003E2E2AC0F32DF8601DC037FC2DC020ED9C
:104C4000280F2A3040F08E32B9F436FC81C1232D72
:104C50002064322E19C036FE06C08AE0989E200DD0
:104C60001124922E11C0EAE02E9E200D1124222E36
:104C7000F32DF0623F2E08C08C3621F4832D80681E
:104C8000382E02C0883641F4F70193FD859193FFD9
:104C900081917F018111B3CF982F9F7D95549330DF
:104CA00028F40C5F1F4F9FE399830DC0833631F0CA
:104CB000833771F0833509F059C021C0F801808134
:104CC00089830E5F1F4F88248394912C530113C056
:104CD0002801F2E04F0E511CF801A080B18036FE91
:104CE00003C0692D70E002C06FEF7FEFC5010E9425
:104CF000BD274C018201F32DFF773F2E16C02801FE
:104D000022E0420E511CF801A080B18036FE03C0A3
:104D1000692D70E002C06FEF7FEFC5010E94B227DE
:104D20004C01F32DF0683F2E820133FC1BC0822D15
:104D300090E088169906B0F4B60180E290E00E94F7
:104D4000C8272A94F4CFF50137FC859137FE81916D
:104D50005F01B60190E00E94C82721102A9421E04B
:104D6000821A91088114910471F7E8C0843611F019
:104D7000893641F5F80137FE07C060817181828173
:104D800093810C5F1F4F08C060817181072E000C5A
:104D9000880B990B0E5F1F4FF32DFF763F2E97FF69
:104DA00009C090958095709561957F4F8F4F9F4F6B
:104DB000F0683F2E2AE030E0A3010E940428882EEC
:104DC000861845C0853731F4232D2F7EB22E2AE078
:104DD00030E025C0932D997FB92E8F36C1F018F49D
:104DE000883579F0B5C0803719F0883721F0B0C028
:104DF000E92FE061BE2EB4FE0DC0FB2DF460BF2E86
:104E000009C034FE0AC0292F2660B22E06C028E051
:104E100030E005C020E130E002C020E132E0F801DE
:104E2000B7FE07C060817181828193810C5F1F4F43
:104E300006C06081718180E090E00E5F1F4FA3018A
:104E40000E940428882E8618FB2DFF773F2E36FE01
:104E50000DC0232D2E7FA22E891458F434FE0BC0D2
:104E600032FC09C0832D8E7EA82E05C0B82CA32C41
:104E700003C0B82C01C0B92CA4FE0FC0FE01E80D80
:104E8000F11D8081803321F49A2D997EA92E09C0CD
:104E9000A2FE06C0B394B39404C08A2D867809F0AC
:104EA000B394A3FC11C0A0FE06C0B21488F4280C71
:104EB000922C9B180EC0B21460F4B60180E290E010
:104EC0000E94C827B394F7CFB21418F42B1802C06D
:104ED000982C212CA4FE10C0B60180E390E00E9423
:104EE000C827A2FE17C0A1FC03C088E790E002C05B
:104EF00088E590E0B6010CC08A2D867859F0A1FEB5
:104F000002C08BE201C080E2A7FC8DE2B60190E016
:104F10000E94C827891438F4B60180E390E00E940B
:104F2000C8279A94F7CF8A94F301E80DF11D808188
:104F3000B60190E00E94C8278110F5CF222009F425
:104F400042CEB60180E290E00E94C8272A94F6CFB4
:104F5000F6018681978102C08FEF9FEF2B96E2E1E9
:104F60000C94A623FC010590615070400110D8F705
:104F7000809590958E0F9F1F0895FC0161507040A1
:104F800001900110D8F7809590958E0F9F1F08957E
:104F90000F931F93CF93DF93FB01238121FD03C068
:104FA0008FEF9FEF2CC022FF16C0468157812481CE
:104FB00035814217530744F4A081B1819D012F5FD1
:104FC0003F4F318320838C93268137812F5F3F4F62
:104FD0003783268314C08B01EC01FB010084F1852B
:104FE000E02D0995892BE1F6D80116968D919C91BB
:104FF0001797019617969C938E931697CE01DF9183
:10500000CF911F910F910895FA01AA27283051F1ED
:10501000203181F1E8946F936E7F6E5F7F4F8F4FE9
:105020009F4FAF4FB1E03ED0B4E03CD0670F781F48
:10503000891F9A1FA11D680F791F8A1F911DA11D2D
:105040006A0F711D811D911DA11D20D009F4689466
:105050003F912AE0269F11243019305D3193DEF60E
:10506000CF010895462F4770405D4193B3E00FD0C4
:10507000C9F7F6CF462F4F70405D4A3318F0495DAF
:1050800031FD4052419302D0A9F7EACFB4E0A69592
:105090009795879577956795BA95C9F700976105B4
:1050A000710508959B01AC010A2E0694579547950A
:1050B00037952795BA95C9F7620F731F841F951FFF
:0850C000A01D0895F894FFCF34
:1050C80076107610FFFFFFFF00005B0680003F06AA
:1050D8005B4F666D7D077F6F777C395E7971000065
:1050E8000000BB005A07D20033019A00B008BA0882
:1050F800000000000A117710A1105711D210B0104B
:10510800C410000000001012E311D200B711DB1127
:10511800C711B8110000000041127710D200D10069
:10512800000000003F127710D200D1005200312E4B
:105138003435005374617274696E6720287665721D
:1051480073696F6E202573292E2E2E0A00496E6909
:105158007469616C697A6174696F6E20444F4E4559
:105168002E000D0A00256C642C253034642F253060
:1051780032642F253032642C253032643A2530329F
:10518800643A253032642C25642C25640A00726543
:10519800675F253034642E63737600556E69782016
:1051A80074696D652C446174652C54696D652C4176
:1051B8006C61726D2C43757272656E74204928415A
:1051C800290A00556E69782074696D652C446174EC
:1051D800652C54696D652C526573697374616E73BF
:1051E80065202D2C526573697374616E7365202B6D
:0451F8000A002F007A
:00000001FF
